{
	"viewPureAndSimple.sol": {
		"viewPureAndSimple": {
			"abi": [
				{
					"inputs": [],
					"name": "age",
					"outputs": [
						{
							"internalType": "uint256",
							"name": "",
							"type": "uint256"
						}
					],
					"stateMutability": "view",
					"type": "function"
				},
				{
					"inputs": [],
					"name": "pureFun",
					"outputs": [
						{
							"internalType": "uint256",
							"name": "",
							"type": "uint256"
						}
					],
					"stateMutability": "pure",
					"type": "function"
				},
				{
					"inputs": [],
					"name": "simpleFun",
					"outputs": [],
					"stateMutability": "nonpayable",
					"type": "function"
				},
				{
					"inputs": [],
					"name": "viewFun",
					"outputs": [
						{
							"internalType": "uint256",
							"name": "",
							"type": "uint256"
						}
					],
					"stateMutability": "view",
					"type": "function"
				}
			],
			"devdoc": {
				"kind": "dev",
				"methods": {},
				"version": 1
			},
			"evm": {
				"assembly": "    /* \"viewPureAndSimple.sol\":58:287  contract viewPureAndSimple{... */\n  mstore(0x40, 0x80)\n    /* \"viewPureAndSimple.sol\":104:106  20 */\n  0x14\n    /* \"viewPureAndSimple.sol\":86:106  uint public age = 20 */\n  0x00\n  sstore\n    /* \"viewPureAndSimple.sol\":58:287  contract viewPureAndSimple{... */\n  callvalue\n  dup1\n  iszero\n  tag_1\n  jumpi\n  0x00\n  dup1\n  revert\ntag_1:\n  pop\n  dataSize(sub_0)\n  dup1\n  dataOffset(sub_0)\n  0x00\n  codecopy\n  0x00\n  return\nstop\n\nsub_0: assembly {\n        /* \"viewPureAndSimple.sol\":58:287  contract viewPureAndSimple{... */\n      mstore(0x40, 0x80)\n      callvalue\n      dup1\n      iszero\n      tag_1\n      jumpi\n      0x00\n      dup1\n      revert\n    tag_1:\n      pop\n      jumpi(tag_2, lt(calldatasize, 0x04))\n      shr(0xe0, calldataload(0x00))\n      dup1\n      0x1db307e3\n      eq\n      tag_3\n      jumpi\n      dup1\n      0x262a9dff\n      eq\n      tag_4\n      jumpi\n      dup1\n      0x3d3fee0c\n      eq\n      tag_5\n      jumpi\n      dup1\n      0x733a132e\n      eq\n      tag_6\n      jumpi\n    tag_2:\n      0x00\n      dup1\n      revert\n        /* \"viewPureAndSimple.sol\":237:285  function simpleFun() public{... */\n    tag_3:\n      tag_7\n      tag_8\n      jump\t// in\n    tag_7:\n      stop\n        /* \"viewPureAndSimple.sol\":86:106  uint public age = 20 */\n    tag_4:\n      tag_9\n      tag_10\n      jump\t// in\n    tag_9:\n      mload(0x40)\n      tag_11\n      swap2\n      swap1\n      tag_12\n      jump\t// in\n    tag_11:\n      mload(0x40)\n      dup1\n      swap2\n      sub\n      swap1\n      return\n        /* \"viewPureAndSimple.sol\":109:172  function viewFun() public view returns(uint){... */\n    tag_5:\n      tag_13\n      tag_14\n      jump\t// in\n    tag_13:\n      mload(0x40)\n      tag_15\n      swap2\n      swap1\n      tag_12\n      jump\t// in\n    tag_15:\n      mload(0x40)\n      dup1\n      swap2\n      sub\n      swap1\n      return\n        /* \"viewPureAndSimple.sol\":174:235  function pureFun() public pure returns(uint){... */\n    tag_6:\n      tag_16\n      tag_17\n      jump\t// in\n    tag_16:\n      mload(0x40)\n      tag_18\n      swap2\n      swap1\n      tag_12\n      jump\t// in\n    tag_18:\n      mload(0x40)\n      dup1\n      swap2\n      sub\n      swap1\n      return\n        /* \"viewPureAndSimple.sol\":237:285  function simpleFun() public{... */\n    tag_8:\n        /* \"viewPureAndSimple.sol\":280:282  10 */\n      0x0a\n        /* \"viewPureAndSimple.sol\":276:279  age */\n      sload(0x00)\n        /* \"viewPureAndSimple.sol\":276:282  age+10 */\n      tag_20\n      swap2\n      swap1\n      tag_21\n      jump\t// in\n    tag_20:\n        /* \"viewPureAndSimple.sol\":270:273  age */\n      0x00\n        /* \"viewPureAndSimple.sol\":270:282  age = age+10 */\n      dup2\n      swap1\n      sstore\n      pop\n        /* \"viewPureAndSimple.sol\":237:285  function simpleFun() public{... */\n      jump\t// out\n        /* \"viewPureAndSimple.sol\":86:106  uint public age = 20 */\n    tag_10:\n      sload(0x00)\n      dup2\n      jump\t// out\n        /* \"viewPureAndSimple.sol\":109:172  function viewFun() public view returns(uint){... */\n    tag_14:\n        /* \"viewPureAndSimple.sol\":148:152  uint */\n      0x00\n        /* \"viewPureAndSimple.sol\":166:169  age */\n      dup1\n      sload\n        /* \"viewPureAndSimple.sol\":159:169  return age */\n      swap1\n      pop\n        /* \"viewPureAndSimple.sol\":109:172  function viewFun() public view returns(uint){... */\n      swap1\n      jump\t// out\n        /* \"viewPureAndSimple.sol\":174:235  function pureFun() public pure returns(uint){... */\n    tag_17:\n        /* \"viewPureAndSimple.sol\":213:217  uint */\n      0x00\n        /* \"viewPureAndSimple.sol\":231:232  1 */\n      0x01\n        /* \"viewPureAndSimple.sol\":224:232  return 1 */\n      swap1\n      pop\n        /* \"viewPureAndSimple.sol\":174:235  function pureFun() public pure returns(uint){... */\n      swap1\n      jump\t// out\n        /* \"#utility.yul\":7:125   */\n    tag_25:\n        /* \"#utility.yul\":94:118   */\n      tag_27\n        /* \"#utility.yul\":112:117   */\n      dup2\n        /* \"#utility.yul\":94:118   */\n      tag_28\n      jump\t// in\n    tag_27:\n        /* \"#utility.yul\":89:92   */\n      dup3\n        /* \"#utility.yul\":82:119   */\n      mstore\n        /* \"#utility.yul\":7:125   */\n      pop\n      pop\n      jump\t// out\n        /* \"#utility.yul\":131:353   */\n    tag_12:\n        /* \"#utility.yul\":224:228   */\n      0x00\n        /* \"#utility.yul\":262:264   */\n      0x20\n        /* \"#utility.yul\":251:260   */\n      dup3\n        /* \"#utility.yul\":247:265   */\n      add\n        /* \"#utility.yul\":239:265   */\n      swap1\n      pop\n        /* \"#utility.yul\":275:346   */\n      tag_30\n        /* \"#utility.yul\":343:344   */\n      0x00\n        /* \"#utility.yul\":332:341   */\n      dup4\n        /* \"#utility.yul\":328:345   */\n      add\n        /* \"#utility.yul\":319:325   */\n      dup5\n        /* \"#utility.yul\":275:346   */\n      tag_25\n      jump\t// in\n    tag_30:\n        /* \"#utility.yul\":131:353   */\n      swap3\n      swap2\n      pop\n      pop\n      jump\t// out\n        /* \"#utility.yul\":359:664   */\n    tag_21:\n        /* \"#utility.yul\":399:402   */\n      0x00\n        /* \"#utility.yul\":418:438   */\n      tag_32\n        /* \"#utility.yul\":436:437   */\n      dup3\n        /* \"#utility.yul\":418:438   */\n      tag_28\n      jump\t// in\n    tag_32:\n        /* \"#utility.yul\":413:438   */\n      swap2\n      pop\n        /* \"#utility.yul\":452:472   */\n      tag_33\n        /* \"#utility.yul\":470:471   */\n      dup4\n        /* \"#utility.yul\":452:472   */\n      tag_28\n      jump\t// in\n    tag_33:\n        /* \"#utility.yul\":447:472   */\n      swap3\n      pop\n        /* \"#utility.yul\":606:607   */\n      dup3\n        /* \"#utility.yul\":538:604   */\n      0xffffffffffffffffffffffffffffffffffffffffffffffffffffffffffffffff\n        /* \"#utility.yul\":534:608   */\n      sub\n        /* \"#utility.yul\":531:532   */\n      dup3\n        /* \"#utility.yul\":528:609   */\n      gt\n        /* \"#utility.yul\":525:632   */\n      iszero\n      tag_34\n      jumpi\n        /* \"#utility.yul\":612:630   */\n      tag_35\n      tag_36\n      jump\t// in\n    tag_35:\n        /* \"#utility.yul\":525:632   */\n    tag_34:\n        /* \"#utility.yul\":656:657   */\n      dup3\n        /* \"#utility.yul\":653:654   */\n      dup3\n        /* \"#utility.yul\":649:658   */\n      add\n        /* \"#utility.yul\":642:658   */\n      swap1\n      pop\n        /* \"#utility.yul\":359:664   */\n      swap3\n      swap2\n      pop\n      pop\n      jump\t// out\n        /* \"#utility.yul\":670:747   */\n    tag_28:\n        /* \"#utility.yul\":707:714   */\n      0x00\n        /* \"#utility.yul\":736:741   */\n      dup2\n        /* \"#utility.yul\":725:741   */\n      swap1\n      pop\n        /* \"#utility.yul\":670:747   */\n      swap2\n      swap1\n      pop\n      jump\t// out\n        /* \"#utility.yul\":753:933   */\n    tag_36:\n        /* \"#utility.yul\":801:878   */\n      0x4e487b7100000000000000000000000000000000000000000000000000000000\n        /* \"#utility.yul\":798:799   */\n      0x00\n        /* \"#utility.yul\":791:879   */\n      mstore\n        /* \"#utility.yul\":898:902   */\n      0x11\n        /* \"#utility.yul\":895:896   */\n      0x04\n        /* \"#utility.yul\":888:903   */\n      mstore\n        /* \"#utility.yul\":922:926   */\n      0x24\n        /* \"#utility.yul\":919:920   */\n      0x00\n        /* \"#utility.yul\":912:927   */\n      revert\n\n    auxdata: 0xa2646970667358221220bf1fac3a6db753beca216b968528ea176c7b3c1fec1d8ffb08132f610211e39064736f6c63430008070033\n}\n",
				"bytecode": {
					"linkReferences": {},
					"object": "6080604052601460005534801561001557600080fd5b506101d3806100256000396000f3fe608060405234801561001057600080fd5b506004361061004c5760003560e01c80631db307e314610051578063262a9dff1461005b5780633d3fee0c14610079578063733a132e14610097575b600080fd5b6100596100b5565b005b6100636100cc565b60405161007091906100f3565b60405180910390f35b6100816100d2565b60405161008e91906100f3565b60405180910390f35b61009f6100db565b6040516100ac91906100f3565b60405180910390f35b600a6000546100c4919061010e565b600081905550565b60005481565b60008054905090565b60006001905090565b6100ed81610164565b82525050565b600060208201905061010860008301846100e4565b92915050565b600061011982610164565b915061012483610164565b9250827fffffffffffffffffffffffffffffffffffffffffffffffffffffffffffffffff038211156101595761015861016e565b5b828201905092915050565b6000819050919050565b7f4e487b7100000000000000000000000000000000000000000000000000000000600052601160045260246000fdfea2646970667358221220bf1fac3a6db753beca216b968528ea176c7b3c1fec1d8ffb08132f610211e39064736f6c63430008070033",
					"opcodes": "PUSH1 0x80 PUSH1 0x40 MSTORE PUSH1 0x14 PUSH1 0x0 SSTORE CALLVALUE DUP1 ISZERO PUSH2 0x15 JUMPI PUSH1 0x0 DUP1 REVERT JUMPDEST POP PUSH2 0x1D3 DUP1 PUSH2 0x25 PUSH1 0x0 CODECOPY PUSH1 0x0 RETURN INVALID PUSH1 0x80 PUSH1 0x40 MSTORE CALLVALUE DUP1 ISZERO PUSH2 0x10 JUMPI PUSH1 0x0 DUP1 REVERT JUMPDEST POP PUSH1 0x4 CALLDATASIZE LT PUSH2 0x4C JUMPI PUSH1 0x0 CALLDATALOAD PUSH1 0xE0 SHR DUP1 PUSH4 0x1DB307E3 EQ PUSH2 0x51 JUMPI DUP1 PUSH4 0x262A9DFF EQ PUSH2 0x5B JUMPI DUP1 PUSH4 0x3D3FEE0C EQ PUSH2 0x79 JUMPI DUP1 PUSH4 0x733A132E EQ PUSH2 0x97 JUMPI JUMPDEST PUSH1 0x0 DUP1 REVERT JUMPDEST PUSH2 0x59 PUSH2 0xB5 JUMP JUMPDEST STOP JUMPDEST PUSH2 0x63 PUSH2 0xCC JUMP JUMPDEST PUSH1 0x40 MLOAD PUSH2 0x70 SWAP2 SWAP1 PUSH2 0xF3 JUMP JUMPDEST PUSH1 0x40 MLOAD DUP1 SWAP2 SUB SWAP1 RETURN JUMPDEST PUSH2 0x81 PUSH2 0xD2 JUMP JUMPDEST PUSH1 0x40 MLOAD PUSH2 0x8E SWAP2 SWAP1 PUSH2 0xF3 JUMP JUMPDEST PUSH1 0x40 MLOAD DUP1 SWAP2 SUB SWAP1 RETURN JUMPDEST PUSH2 0x9F PUSH2 0xDB JUMP JUMPDEST PUSH1 0x40 MLOAD PUSH2 0xAC SWAP2 SWAP1 PUSH2 0xF3 JUMP JUMPDEST PUSH1 0x40 MLOAD DUP1 SWAP2 SUB SWAP1 RETURN JUMPDEST PUSH1 0xA PUSH1 0x0 SLOAD PUSH2 0xC4 SWAP2 SWAP1 PUSH2 0x10E JUMP JUMPDEST PUSH1 0x0 DUP2 SWAP1 SSTORE POP JUMP JUMPDEST PUSH1 0x0 SLOAD DUP2 JUMP JUMPDEST PUSH1 0x0 DUP1 SLOAD SWAP1 POP SWAP1 JUMP JUMPDEST PUSH1 0x0 PUSH1 0x1 SWAP1 POP SWAP1 JUMP JUMPDEST PUSH2 0xED DUP2 PUSH2 0x164 JUMP JUMPDEST DUP3 MSTORE POP POP JUMP JUMPDEST PUSH1 0x0 PUSH1 0x20 DUP3 ADD SWAP1 POP PUSH2 0x108 PUSH1 0x0 DUP4 ADD DUP5 PUSH2 0xE4 JUMP JUMPDEST SWAP3 SWAP2 POP POP JUMP JUMPDEST PUSH1 0x0 PUSH2 0x119 DUP3 PUSH2 0x164 JUMP JUMPDEST SWAP2 POP PUSH2 0x124 DUP4 PUSH2 0x164 JUMP JUMPDEST SWAP3 POP DUP3 PUSH32 0xFFFFFFFFFFFFFFFFFFFFFFFFFFFFFFFFFFFFFFFFFFFFFFFFFFFFFFFFFFFFFFFF SUB DUP3 GT ISZERO PUSH2 0x159 JUMPI PUSH2 0x158 PUSH2 0x16E JUMP JUMPDEST JUMPDEST DUP3 DUP3 ADD SWAP1 POP SWAP3 SWAP2 POP POP JUMP JUMPDEST PUSH1 0x0 DUP2 SWAP1 POP SWAP2 SWAP1 POP JUMP JUMPDEST PUSH32 0x4E487B7100000000000000000000000000000000000000000000000000000000 PUSH1 0x0 MSTORE PUSH1 0x11 PUSH1 0x4 MSTORE PUSH1 0x24 PUSH1 0x0 REVERT INVALID LOG2 PUSH5 0x6970667358 0x22 SLT KECCAK256 0xBF 0x1F 0xAC GASPRICE PUSH14 0xB753BECA216B968528EA176C7B3C 0x1F 0xEC SAR DUP16 0xFB ADDMOD SGT 0x2F PUSH2 0x211 0xE3 SWAP1 PUSH5 0x736F6C6343 STOP ADDMOD SMOD STOP CALLER "
				},
				"gasEstimates": {
					"creation": {
						"codeDepositCost": "93400",
						"executionCost": "22247",
						"totalCost": "115647"
					},
					"external": {
						"age()": "2429",
						"pureFun()": "381",
						"simpleFun()": "infinite",
						"viewFun()": "2459"
					}
				},
				"methodIdentifiers": {
					"age()": "262a9dff",
					"pureFun()": "733a132e",
					"simpleFun()": "1db307e3",
					"viewFun()": "3d3fee0c"
				}
			},
			"storageLayout": {
				"storage": [
					{
						"astId": 4,
						"contract": "viewPureAndSimple.sol:viewPureAndSimple",
						"label": "age",
						"offset": 0,
						"slot": "0",
						"type": "t_uint256"
					}
				],
				"types": {
					"t_uint256": {
						"encoding": "inplace",
						"label": "uint256",
						"numberOfBytes": "32"
					}
				}
			},
			"userdoc": {
				"kind": "user",
				"methods": {},
				"version": 1
			}
		}
	}
}