{
	"visibility.sol": {
		"a": {
			"abi": [
				{
					"inputs": [],
					"name": "_external",
					"outputs": [
						{
							"internalType": "string",
							"name": "str",
							"type": "string"
						}
					],
					"stateMutability": "pure",
					"type": "function"
				}
			],
			"devdoc": {
				"kind": "dev",
				"methods": {},
				"version": 1
			},
			"evm": {
				"assembly": "    /* \"visibility.sol\":60:185  contract a{... */\n  mstore(0x40, 0x80)\n  callvalue\n  dup1\n  iszero\n  tag_1\n  jumpi\n  0x00\n  dup1\n  revert\ntag_1:\n  pop\n  dataSize(sub_0)\n  dup1\n  dataOffset(sub_0)\n  0x00\n  codecopy\n  0x00\n  return\nstop\n\nsub_0: assembly {\n        /* \"visibility.sol\":60:185  contract a{... */\n      mstore(0x40, 0x80)\n      callvalue\n      dup1\n      iszero\n      tag_1\n      jumpi\n      0x00\n      dup1\n      revert\n    tag_1:\n      pop\n      jumpi(tag_2, lt(calldatasize, 0x04))\n      shr(0xe0, calldataload(0x00))\n      dup1\n      0x3e9cf0c0\n      eq\n      tag_3\n      jumpi\n    tag_2:\n      0x00\n      dup1\n      revert\n        /* \"visibility.sol\":76:178  function _external() external pure returns(string memory str){... */\n    tag_3:\n      tag_4\n      tag_5\n      jump\t// in\n    tag_4:\n      mload(0x40)\n      tag_6\n      swap2\n      swap1\n      tag_7\n      jump\t// in\n    tag_6:\n      mload(0x40)\n      dup1\n      swap2\n      sub\n      swap1\n      return\n    tag_5:\n        /* \"visibility.sol\":119:136  string memory str */\n      0x60\n        /* \"visibility.sol\":154:171  str=\"devidIsLive\" */\n      mload(0x40)\n      dup1\n      0x40\n      add\n      0x40\n      mstore\n      dup1\n      0x0b\n      dup2\n      mstore\n      0x20\n      add\n      0x646576696449734c697665000000000000000000000000000000000000000000\n      dup2\n      mstore\n      pop\n      swap1\n      pop\n        /* \"visibility.sol\":76:178  function _external() external pure returns(string memory str){... */\n      swap1\n      jump\t// out\n        /* \"#utility.yul\":7:371   */\n    tag_10:\n        /* \"#utility.yul\":95:98   */\n      0x00\n        /* \"#utility.yul\":123:162   */\n      tag_12\n        /* \"#utility.yul\":156:161   */\n      dup3\n        /* \"#utility.yul\":123:162   */\n      tag_13\n      jump\t// in\n    tag_12:\n        /* \"#utility.yul\":178:249   */\n      tag_14\n        /* \"#utility.yul\":242:248   */\n      dup2\n        /* \"#utility.yul\":237:240   */\n      dup6\n        /* \"#utility.yul\":178:249   */\n      tag_15\n      jump\t// in\n    tag_14:\n        /* \"#utility.yul\":171:249   */\n      swap4\n      pop\n        /* \"#utility.yul\":258:310   */\n      tag_16\n        /* \"#utility.yul\":303:309   */\n      dup2\n        /* \"#utility.yul\":298:301   */\n      dup6\n        /* \"#utility.yul\":291:295   */\n      0x20\n        /* \"#utility.yul\":284:289   */\n      dup7\n        /* \"#utility.yul\":280:296   */\n      add\n        /* \"#utility.yul\":258:310   */\n      tag_17\n      jump\t// in\n    tag_16:\n        /* \"#utility.yul\":335:364   */\n      tag_18\n        /* \"#utility.yul\":357:363   */\n      dup2\n        /* \"#utility.yul\":335:364   */\n      tag_19\n      jump\t// in\n    tag_18:\n        /* \"#utility.yul\":330:333   */\n      dup5\n        /* \"#utility.yul\":326:365   */\n      add\n        /* \"#utility.yul\":319:365   */\n      swap2\n      pop\n        /* \"#utility.yul\":99:371   */\n      pop\n        /* \"#utility.yul\":7:371   */\n      swap3\n      swap2\n      pop\n      pop\n      jump\t// out\n        /* \"#utility.yul\":377:690   */\n    tag_7:\n        /* \"#utility.yul\":490:494   */\n      0x00\n        /* \"#utility.yul\":528:530   */\n      0x20\n        /* \"#utility.yul\":517:526   */\n      dup3\n        /* \"#utility.yul\":513:531   */\n      add\n        /* \"#utility.yul\":505:531   */\n      swap1\n      pop\n        /* \"#utility.yul\":577:586   */\n      dup2\n        /* \"#utility.yul\":571:575   */\n      dup2\n        /* \"#utility.yul\":567:587   */\n      sub\n        /* \"#utility.yul\":563:564   */\n      0x00\n        /* \"#utility.yul\":552:561   */\n      dup4\n        /* \"#utility.yul\":548:565   */\n      add\n        /* \"#utility.yul\":541:588   */\n      mstore\n        /* \"#utility.yul\":605:683   */\n      tag_21\n        /* \"#utility.yul\":678:682   */\n      dup2\n        /* \"#utility.yul\":669:675   */\n      dup5\n        /* \"#utility.yul\":605:683   */\n      tag_10\n      jump\t// in\n    tag_21:\n        /* \"#utility.yul\":597:683   */\n      swap1\n      pop\n        /* \"#utility.yul\":377:690   */\n      swap3\n      swap2\n      pop\n      pop\n      jump\t// out\n        /* \"#utility.yul\":696:795   */\n    tag_13:\n        /* \"#utility.yul\":748:754   */\n      0x00\n        /* \"#utility.yul\":782:787   */\n      dup2\n        /* \"#utility.yul\":776:788   */\n      mload\n        /* \"#utility.yul\":766:788   */\n      swap1\n      pop\n        /* \"#utility.yul\":696:795   */\n      swap2\n      swap1\n      pop\n      jump\t// out\n        /* \"#utility.yul\":801:970   */\n    tag_15:\n        /* \"#utility.yul\":885:896   */\n      0x00\n        /* \"#utility.yul\":919:925   */\n      dup3\n        /* \"#utility.yul\":914:917   */\n      dup3\n        /* \"#utility.yul\":907:926   */\n      mstore\n        /* \"#utility.yul\":959:963   */\n      0x20\n        /* \"#utility.yul\":954:957   */\n      dup3\n        /* \"#utility.yul\":950:964   */\n      add\n        /* \"#utility.yul\":935:964   */\n      swap1\n      pop\n        /* \"#utility.yul\":801:970   */\n      swap3\n      swap2\n      pop\n      pop\n      jump\t// out\n        /* \"#utility.yul\":976:1283   */\n    tag_17:\n        /* \"#utility.yul\":1044:1045   */\n      0x00\n        /* \"#utility.yul\":1054:1167   */\n    tag_25:\n        /* \"#utility.yul\":1068:1074   */\n      dup4\n        /* \"#utility.yul\":1065:1066   */\n      dup2\n        /* \"#utility.yul\":1062:1075   */\n      lt\n        /* \"#utility.yul\":1054:1167   */\n      iszero\n      tag_27\n      jumpi\n        /* \"#utility.yul\":1153:1154   */\n      dup1\n        /* \"#utility.yul\":1148:1151   */\n      dup3\n        /* \"#utility.yul\":1144:1155   */\n      add\n        /* \"#utility.yul\":1138:1156   */\n      mload\n        /* \"#utility.yul\":1134:1135   */\n      dup2\n        /* \"#utility.yul\":1129:1132   */\n      dup5\n        /* \"#utility.yul\":1125:1136   */\n      add\n        /* \"#utility.yul\":1118:1157   */\n      mstore\n        /* \"#utility.yul\":1090:1092   */\n      0x20\n        /* \"#utility.yul\":1087:1088   */\n      dup2\n        /* \"#utility.yul\":1083:1093   */\n      add\n        /* \"#utility.yul\":1078:1093   */\n      swap1\n      pop\n        /* \"#utility.yul\":1054:1167   */\n      jump(tag_25)\n    tag_27:\n        /* \"#utility.yul\":1185:1191   */\n      dup4\n        /* \"#utility.yul\":1182:1183   */\n      dup2\n        /* \"#utility.yul\":1179:1192   */\n      gt\n        /* \"#utility.yul\":1176:1277   */\n      iszero\n      tag_28\n      jumpi\n        /* \"#utility.yul\":1265:1266   */\n      0x00\n        /* \"#utility.yul\":1256:1262   */\n      dup5\n        /* \"#utility.yul\":1251:1254   */\n      dup5\n        /* \"#utility.yul\":1247:1263   */\n      add\n        /* \"#utility.yul\":1240:1267   */\n      mstore\n        /* \"#utility.yul\":1176:1277   */\n    tag_28:\n        /* \"#utility.yul\":1025:1283   */\n      pop\n        /* \"#utility.yul\":976:1283   */\n      pop\n      pop\n      pop\n      jump\t// out\n        /* \"#utility.yul\":1289:1391   */\n    tag_19:\n        /* \"#utility.yul\":1330:1336   */\n      0x00\n        /* \"#utility.yul\":1381:1383   */\n      0x1f\n        /* \"#utility.yul\":1377:1384   */\n      not\n        /* \"#utility.yul\":1372:1374   */\n      0x1f\n        /* \"#utility.yul\":1365:1370   */\n      dup4\n        /* \"#utility.yul\":1361:1375   */\n      add\n        /* \"#utility.yul\":1357:1385   */\n      and\n        /* \"#utility.yul\":1347:1385   */\n      swap1\n      pop\n        /* \"#utility.yul\":1289:1391   */\n      swap2\n      swap1\n      pop\n      jump\t// out\n\n    auxdata: 0xa26469706673582212208fe7fc32d7470ba7df9724110beadf1d8e94024fa47ab44e8b43f66d2cdf4e7064736f6c63430008070033\n}\n",
				"bytecode": {
					"linkReferences": {},
					"object": "608060405234801561001057600080fd5b5061017c806100206000396000f3fe608060405234801561001057600080fd5b506004361061002b5760003560e01c80633e9cf0c014610030575b600080fd5b61003861004e565b60405161004591906100c4565b60405180910390f35b60606040518060400160405280600b81526020017f646576696449734c697665000000000000000000000000000000000000000000815250905090565b6000610096826100e6565b6100a081856100f1565b93506100b0818560208601610102565b6100b981610135565b840191505092915050565b600060208201905081810360008301526100de818461008b565b905092915050565b600081519050919050565b600082825260208201905092915050565b60005b83811015610120578082015181840152602081019050610105565b8381111561012f576000848401525b50505050565b6000601f19601f830116905091905056fea26469706673582212208fe7fc32d7470ba7df9724110beadf1d8e94024fa47ab44e8b43f66d2cdf4e7064736f6c63430008070033",
					"opcodes": "PUSH1 0x80 PUSH1 0x40 MSTORE CALLVALUE DUP1 ISZERO PUSH2 0x10 JUMPI PUSH1 0x0 DUP1 REVERT JUMPDEST POP PUSH2 0x17C DUP1 PUSH2 0x20 PUSH1 0x0 CODECOPY PUSH1 0x0 RETURN INVALID PUSH1 0x80 PUSH1 0x40 MSTORE CALLVALUE DUP1 ISZERO PUSH2 0x10 JUMPI PUSH1 0x0 DUP1 REVERT JUMPDEST POP PUSH1 0x4 CALLDATASIZE LT PUSH2 0x2B JUMPI PUSH1 0x0 CALLDATALOAD PUSH1 0xE0 SHR DUP1 PUSH4 0x3E9CF0C0 EQ PUSH2 0x30 JUMPI JUMPDEST PUSH1 0x0 DUP1 REVERT JUMPDEST PUSH2 0x38 PUSH2 0x4E JUMP JUMPDEST PUSH1 0x40 MLOAD PUSH2 0x45 SWAP2 SWAP1 PUSH2 0xC4 JUMP JUMPDEST PUSH1 0x40 MLOAD DUP1 SWAP2 SUB SWAP1 RETURN JUMPDEST PUSH1 0x60 PUSH1 0x40 MLOAD DUP1 PUSH1 0x40 ADD PUSH1 0x40 MSTORE DUP1 PUSH1 0xB DUP2 MSTORE PUSH1 0x20 ADD PUSH32 0x646576696449734C697665000000000000000000000000000000000000000000 DUP2 MSTORE POP SWAP1 POP SWAP1 JUMP JUMPDEST PUSH1 0x0 PUSH2 0x96 DUP3 PUSH2 0xE6 JUMP JUMPDEST PUSH2 0xA0 DUP2 DUP6 PUSH2 0xF1 JUMP JUMPDEST SWAP4 POP PUSH2 0xB0 DUP2 DUP6 PUSH1 0x20 DUP7 ADD PUSH2 0x102 JUMP JUMPDEST PUSH2 0xB9 DUP2 PUSH2 0x135 JUMP JUMPDEST DUP5 ADD SWAP2 POP POP SWAP3 SWAP2 POP POP JUMP JUMPDEST PUSH1 0x0 PUSH1 0x20 DUP3 ADD SWAP1 POP DUP2 DUP2 SUB PUSH1 0x0 DUP4 ADD MSTORE PUSH2 0xDE DUP2 DUP5 PUSH2 0x8B JUMP JUMPDEST SWAP1 POP SWAP3 SWAP2 POP POP JUMP JUMPDEST PUSH1 0x0 DUP2 MLOAD SWAP1 POP SWAP2 SWAP1 POP JUMP JUMPDEST PUSH1 0x0 DUP3 DUP3 MSTORE PUSH1 0x20 DUP3 ADD SWAP1 POP SWAP3 SWAP2 POP POP JUMP JUMPDEST PUSH1 0x0 JUMPDEST DUP4 DUP2 LT ISZERO PUSH2 0x120 JUMPI DUP1 DUP3 ADD MLOAD DUP2 DUP5 ADD MSTORE PUSH1 0x20 DUP2 ADD SWAP1 POP PUSH2 0x105 JUMP JUMPDEST DUP4 DUP2 GT ISZERO PUSH2 0x12F JUMPI PUSH1 0x0 DUP5 DUP5 ADD MSTORE JUMPDEST POP POP POP POP JUMP JUMPDEST PUSH1 0x0 PUSH1 0x1F NOT PUSH1 0x1F DUP4 ADD AND SWAP1 POP SWAP2 SWAP1 POP JUMP INVALID LOG2 PUSH5 0x6970667358 0x22 SLT KECCAK256 DUP16 0xE7 0xFC ORIGIN 0xD7 SELFBALANCE SIGNEXTEND 0xA7 0xDF SWAP8 0x24 GT SIGNEXTEND 0xEA 0xDF SAR DUP15 SWAP5 MUL 0x4F LOG4 PUSH27 0xB44E8B43F66D2CDF4E7064736F6C63430008070033000000000000 "
				},
				"gasEstimates": {
					"creation": {
						"codeDepositCost": "76000",
						"executionCost": "123",
						"totalCost": "76123"
					},
					"external": {
						"_external()": "infinite"
					}
				},
				"methodIdentifiers": {
					"_external()": "3e9cf0c0"
				}
			},
			"storageLayout": {
				"storage": [],
				"types": null
			},
			"userdoc": {
				"kind": "user",
				"methods": {},
				"version": 1
			}
		}
	}
}