{
	"visibility.sol": {
		"b": {
			"abi": [
				{
					"inputs": [],
					"name": "another",
					"outputs": [
						{
							"internalType": "string",
							"name": "str2",
							"type": "string"
						}
					],
					"stateMutability": "view",
					"type": "function"
				}
			],
			"devdoc": {
				"kind": "dev",
				"methods": {},
				"version": 1
			},
			"evm": {
				"assembly": "    /* \"visibility.sol\":188:309  contract b{... */\n  mstore(0x40, 0x80)\n    /* \"visibility.sol\":211:218  new a() */\n  mload(0x40)\n  tag_1\n  swap1\n  tag_2\n  jump\t// in\ntag_1:\n  mload(0x40)\n  dup1\n  swap2\n  sub\n  swap1\n  0x00\n  create\n  dup1\n  iszero\n  dup1\n  iszero\n  tag_3\n  jumpi\n  returndatasize\n  0x00\n  dup1\n  returndatacopy\n  revert(0x00, returndatasize)\ntag_3:\n  pop\n    /* \"visibility.sol\":204:218  a obj =new a() */\n  0x00\n  dup1\n  0x0100\n  exp\n  dup2\n  sload\n  dup2\n  0xffffffffffffffffffffffffffffffffffffffff\n  mul\n  not\n  and\n  swap1\n  dup4\n  0xffffffffffffffffffffffffffffffffffffffff\n  and\n  mul\n  or\n  swap1\n  sstore\n  pop\n    /* \"visibility.sol\":188:309  contract b{... */\n  callvalue\n  dup1\n  iszero\n  tag_4\n  jumpi\n  0x00\n  dup1\n  revert\ntag_4:\n  pop\n  jump(tag_5)\ntag_2:\n  dataSize(sub_1)\n  dup1\n  dataOffset(sub_1)\n  dup4\n  codecopy\n  add\n  swap1\n  jump\t// out\ntag_5:\n  dataSize(sub_0)\n  dup1\n  dataOffset(sub_0)\n  0x00\n  codecopy\n  0x00\n  return\nstop\n\nsub_0: assembly {\n        /* \"visibility.sol\":188:309  contract b{... */\n      mstore(0x40, 0x80)\n      callvalue\n      dup1\n      iszero\n      tag_1\n      jumpi\n      0x00\n      dup1\n      revert\n    tag_1:\n      pop\n      jumpi(tag_2, lt(calldatasize, 0x04))\n      shr(0xe0, calldataload(0x00))\n      dup1\n      0x7a3f119e\n      eq\n      tag_3\n      jumpi\n    tag_2:\n      0x00\n      dup1\n      revert\n        /* \"visibility.sol\":220:307  function another() public view returns(string memory str2){... */\n    tag_3:\n      tag_4\n      tag_5\n      jump\t// in\n    tag_4:\n      mload(0x40)\n      tag_6\n      swap2\n      swap1\n      tag_7\n      jump\t// in\n    tag_6:\n      mload(0x40)\n      dup1\n      swap2\n      sub\n      swap1\n      return\n    tag_5:\n        /* \"visibility.sol\":259:277  string memory str2 */\n      0x60\n        /* \"visibility.sol\":289:292  obj */\n      0x00\n      dup1\n      sload\n      swap1\n      0x0100\n      exp\n      swap1\n      div\n      0xffffffffffffffffffffffffffffffffffffffff\n      and\n        /* \"visibility.sol\":289:302  obj._external */\n      0xffffffffffffffffffffffffffffffffffffffff\n      and\n      0x3e9cf0c0\n        /* \"visibility.sol\":289:304  obj._external() */\n      mload(0x40)\n      dup2\n      0xffffffff\n      and\n      0xe0\n      shl\n      dup2\n      mstore\n      0x04\n      add\n      0x00\n      mload(0x40)\n      dup1\n      dup4\n      sub\n      dup2\n      dup7\n      dup1\n      extcodesize\n      iszero\n      dup1\n      iszero\n      tag_9\n      jumpi\n      0x00\n      dup1\n      revert\n    tag_9:\n      pop\n      gas\n      staticcall\n      iszero\n      dup1\n      iszero\n      tag_11\n      jumpi\n      returndatasize\n      0x00\n      dup1\n      returndatacopy\n      revert(0x00, returndatasize)\n    tag_11:\n      pop\n      pop\n      pop\n      pop\n      mload(0x40)\n      returndatasize\n      0x00\n      dup3\n      returndatacopy\n      returndatasize\n      not(0x1f)\n      0x1f\n      dup3\n      add\n      and\n      dup3\n      add\n      dup1\n      0x40\n      mstore\n      pop\n      dup2\n      add\n      swap1\n      tag_12\n      swap2\n      swap1\n      tag_13\n      jump\t// in\n    tag_12:\n        /* \"visibility.sol\":284:304  str2=obj._external() */\n      swap1\n      pop\n        /* \"visibility.sol\":220:307  function another() public view returns(string memory str2){... */\n      swap1\n      jump\t// out\n        /* \"#utility.yul\":7:428   */\n    tag_15:\n        /* \"#utility.yul\":96:101   */\n      0x00\n        /* \"#utility.yul\":121:187   */\n      tag_17\n        /* \"#utility.yul\":137:186   */\n      tag_18\n        /* \"#utility.yul\":179:185   */\n      dup5\n        /* \"#utility.yul\":137:186   */\n      tag_19\n      jump\t// in\n    tag_18:\n        /* \"#utility.yul\":121:187   */\n      tag_20\n      jump\t// in\n    tag_17:\n        /* \"#utility.yul\":112:187   */\n      swap1\n      pop\n        /* \"#utility.yul\":210:216   */\n      dup3\n        /* \"#utility.yul\":203:208   */\n      dup2\n        /* \"#utility.yul\":196:217   */\n      mstore\n        /* \"#utility.yul\":248:252   */\n      0x20\n        /* \"#utility.yul\":241:246   */\n      dup2\n        /* \"#utility.yul\":237:253   */\n      add\n        /* \"#utility.yul\":286:289   */\n      dup5\n        /* \"#utility.yul\":277:283   */\n      dup5\n        /* \"#utility.yul\":272:275   */\n      dup5\n        /* \"#utility.yul\":268:284   */\n      add\n        /* \"#utility.yul\":265:290   */\n      gt\n        /* \"#utility.yul\":262:374   */\n      iszero\n      tag_21\n      jumpi\n        /* \"#utility.yul\":293:372   */\n      tag_22\n      tag_23\n      jump\t// in\n    tag_22:\n        /* \"#utility.yul\":262:374   */\n    tag_21:\n        /* \"#utility.yul\":383:422   */\n      tag_24\n        /* \"#utility.yul\":415:421   */\n      dup5\n        /* \"#utility.yul\":410:413   */\n      dup3\n        /* \"#utility.yul\":405:408   */\n      dup6\n        /* \"#utility.yul\":383:422   */\n      tag_25\n      jump\t// in\n    tag_24:\n        /* \"#utility.yul\":102:428   */\n      pop\n        /* \"#utility.yul\":7:428   */\n      swap4\n      swap3\n      pop\n      pop\n      pop\n      jump\t// out\n        /* \"#utility.yul\":448:803   */\n    tag_26:\n        /* \"#utility.yul\":515:520   */\n      0x00\n        /* \"#utility.yul\":564:567   */\n      dup3\n        /* \"#utility.yul\":557:561   */\n      0x1f\n        /* \"#utility.yul\":549:555   */\n      dup4\n        /* \"#utility.yul\":545:562   */\n      add\n        /* \"#utility.yul\":541:568   */\n      slt\n        /* \"#utility.yul\":531:653   */\n      tag_28\n      jumpi\n        /* \"#utility.yul\":572:651   */\n      tag_29\n      tag_30\n      jump\t// in\n    tag_29:\n        /* \"#utility.yul\":531:653   */\n    tag_28:\n        /* \"#utility.yul\":682:688   */\n      dup2\n        /* \"#utility.yul\":676:689   */\n      mload\n        /* \"#utility.yul\":707:797   */\n      tag_31\n        /* \"#utility.yul\":793:796   */\n      dup5\n        /* \"#utility.yul\":785:791   */\n      dup3\n        /* \"#utility.yul\":778:782   */\n      0x20\n        /* \"#utility.yul\":770:776   */\n      dup7\n        /* \"#utility.yul\":766:783   */\n      add\n        /* \"#utility.yul\":707:797   */\n      tag_15\n      jump\t// in\n    tag_31:\n        /* \"#utility.yul\":698:797   */\n      swap2\n      pop\n        /* \"#utility.yul\":521:803   */\n      pop\n        /* \"#utility.yul\":448:803   */\n      swap3\n      swap2\n      pop\n      pop\n      jump\t// out\n        /* \"#utility.yul\":809:1333   */\n    tag_13:\n        /* \"#utility.yul\":889:895   */\n      0x00\n        /* \"#utility.yul\":938:940   */\n      0x20\n        /* \"#utility.yul\":926:935   */\n      dup3\n        /* \"#utility.yul\":917:924   */\n      dup5\n        /* \"#utility.yul\":913:936   */\n      sub\n        /* \"#utility.yul\":909:941   */\n      slt\n        /* \"#utility.yul\":906:1025   */\n      iszero\n      tag_33\n      jumpi\n        /* \"#utility.yul\":944:1023   */\n      tag_34\n      tag_35\n      jump\t// in\n    tag_34:\n        /* \"#utility.yul\":906:1025   */\n    tag_33:\n        /* \"#utility.yul\":1085:1086   */\n      0x00\n        /* \"#utility.yul\":1074:1083   */\n      dup3\n        /* \"#utility.yul\":1070:1087   */\n      add\n        /* \"#utility.yul\":1064:1088   */\n      mload\n        /* \"#utility.yul\":1115:1133   */\n      0xffffffffffffffff\n        /* \"#utility.yul\":1107:1113   */\n      dup2\n        /* \"#utility.yul\":1104:1134   */\n      gt\n        /* \"#utility.yul\":1101:1218   */\n      iszero\n      tag_36\n      jumpi\n        /* \"#utility.yul\":1137:1216   */\n      tag_37\n      tag_38\n      jump\t// in\n    tag_37:\n        /* \"#utility.yul\":1101:1218   */\n    tag_36:\n        /* \"#utility.yul\":1242:1316   */\n      tag_39\n        /* \"#utility.yul\":1308:1315   */\n      dup5\n        /* \"#utility.yul\":1299:1305   */\n      dup3\n        /* \"#utility.yul\":1288:1297   */\n      dup6\n        /* \"#utility.yul\":1284:1306   */\n      add\n        /* \"#utility.yul\":1242:1316   */\n      tag_26\n      jump\t// in\n    tag_39:\n        /* \"#utility.yul\":1232:1316   */\n      swap2\n      pop\n        /* \"#utility.yul\":1035:1326   */\n      pop\n        /* \"#utility.yul\":809:1333   */\n      swap3\n      swap2\n      pop\n      pop\n      jump\t// out\n        /* \"#utility.yul\":1339:1703   */\n    tag_40:\n        /* \"#utility.yul\":1427:1430   */\n      0x00\n        /* \"#utility.yul\":1455:1494   */\n      tag_42\n        /* \"#utility.yul\":1488:1493   */\n      dup3\n        /* \"#utility.yul\":1455:1494   */\n      tag_43\n      jump\t// in\n    tag_42:\n        /* \"#utility.yul\":1510:1581   */\n      tag_44\n        /* \"#utility.yul\":1574:1580   */\n      dup2\n        /* \"#utility.yul\":1569:1572   */\n      dup6\n        /* \"#utility.yul\":1510:1581   */\n      tag_45\n      jump\t// in\n    tag_44:\n        /* \"#utility.yul\":1503:1581   */\n      swap4\n      pop\n        /* \"#utility.yul\":1590:1642   */\n      tag_46\n        /* \"#utility.yul\":1635:1641   */\n      dup2\n        /* \"#utility.yul\":1630:1633   */\n      dup6\n        /* \"#utility.yul\":1623:1627   */\n      0x20\n        /* \"#utility.yul\":1616:1621   */\n      dup7\n        /* \"#utility.yul\":1612:1628   */\n      add\n        /* \"#utility.yul\":1590:1642   */\n      tag_25\n      jump\t// in\n    tag_46:\n        /* \"#utility.yul\":1667:1696   */\n      tag_47\n        /* \"#utility.yul\":1689:1695   */\n      dup2\n        /* \"#utility.yul\":1667:1696   */\n      tag_48\n      jump\t// in\n    tag_47:\n        /* \"#utility.yul\":1662:1665   */\n      dup5\n        /* \"#utility.yul\":1658:1697   */\n      add\n        /* \"#utility.yul\":1651:1697   */\n      swap2\n      pop\n        /* \"#utility.yul\":1431:1703   */\n      pop\n        /* \"#utility.yul\":1339:1703   */\n      swap3\n      swap2\n      pop\n      pop\n      jump\t// out\n        /* \"#utility.yul\":1709:2022   */\n    tag_7:\n        /* \"#utility.yul\":1822:1826   */\n      0x00\n        /* \"#utility.yul\":1860:1862   */\n      0x20\n        /* \"#utility.yul\":1849:1858   */\n      dup3\n        /* \"#utility.yul\":1845:1863   */\n      add\n        /* \"#utility.yul\":1837:1863   */\n      swap1\n      pop\n        /* \"#utility.yul\":1909:1918   */\n      dup2\n        /* \"#utility.yul\":1903:1907   */\n      dup2\n        /* \"#utility.yul\":1899:1919   */\n      sub\n        /* \"#utility.yul\":1895:1896   */\n      0x00\n        /* \"#utility.yul\":1884:1893   */\n      dup4\n        /* \"#utility.yul\":1880:1897   */\n      add\n        /* \"#utility.yul\":1873:1920   */\n      mstore\n        /* \"#utility.yul\":1937:2015   */\n      tag_50\n        /* \"#utility.yul\":2010:2014   */\n      dup2\n        /* \"#utility.yul\":2001:2007   */\n      dup5\n        /* \"#utility.yul\":1937:2015   */\n      tag_40\n      jump\t// in\n    tag_50:\n        /* \"#utility.yul\":1929:2015   */\n      swap1\n      pop\n        /* \"#utility.yul\":1709:2022   */\n      swap3\n      swap2\n      pop\n      pop\n      jump\t// out\n        /* \"#utility.yul\":2028:2157   */\n    tag_20:\n        /* \"#utility.yul\":2062:2068   */\n      0x00\n        /* \"#utility.yul\":2089:2109   */\n      tag_52\n      tag_53\n      jump\t// in\n    tag_52:\n        /* \"#utility.yul\":2079:2109   */\n      swap1\n      pop\n        /* \"#utility.yul\":2118:2151   */\n      tag_54\n        /* \"#utility.yul\":2146:2150   */\n      dup3\n        /* \"#utility.yul\":2138:2144   */\n      dup3\n        /* \"#utility.yul\":2118:2151   */\n      tag_55\n      jump\t// in\n    tag_54:\n        /* \"#utility.yul\":2028:2157   */\n      swap2\n      swap1\n      pop\n      jump\t// out\n        /* \"#utility.yul\":2163:2238   */\n    tag_53:\n        /* \"#utility.yul\":2196:2202   */\n      0x00\n        /* \"#utility.yul\":2229:2231   */\n      0x40\n        /* \"#utility.yul\":2223:2232   */\n      mload\n        /* \"#utility.yul\":2213:2232   */\n      swap1\n      pop\n        /* \"#utility.yul\":2163:2238   */\n      swap1\n      jump\t// out\n        /* \"#utility.yul\":2244:2552   */\n    tag_19:\n        /* \"#utility.yul\":2306:2310   */\n      0x00\n        /* \"#utility.yul\":2396:2414   */\n      0xffffffffffffffff\n        /* \"#utility.yul\":2388:2394   */\n      dup3\n        /* \"#utility.yul\":2385:2415   */\n      gt\n        /* \"#utility.yul\":2382:2438   */\n      iszero\n      tag_58\n      jumpi\n        /* \"#utility.yul\":2418:2436   */\n      tag_59\n      tag_60\n      jump\t// in\n    tag_59:\n        /* \"#utility.yul\":2382:2438   */\n    tag_58:\n        /* \"#utility.yul\":2456:2485   */\n      tag_61\n        /* \"#utility.yul\":2478:2484   */\n      dup3\n        /* \"#utility.yul\":2456:2485   */\n      tag_48\n      jump\t// in\n    tag_61:\n        /* \"#utility.yul\":2448:2485   */\n      swap1\n      pop\n        /* \"#utility.yul\":2540:2544   */\n      0x20\n        /* \"#utility.yul\":2534:2538   */\n      dup2\n        /* \"#utility.yul\":2530:2545   */\n      add\n        /* \"#utility.yul\":2522:2545   */\n      swap1\n      pop\n        /* \"#utility.yul\":2244:2552   */\n      swap2\n      swap1\n      pop\n      jump\t// out\n        /* \"#utility.yul\":2558:2657   */\n    tag_43:\n        /* \"#utility.yul\":2610:2616   */\n      0x00\n        /* \"#utility.yul\":2644:2649   */\n      dup2\n        /* \"#utility.yul\":2638:2650   */\n      mload\n        /* \"#utility.yul\":2628:2650   */\n      swap1\n      pop\n        /* \"#utility.yul\":2558:2657   */\n      swap2\n      swap1\n      pop\n      jump\t// out\n        /* \"#utility.yul\":2663:2832   */\n    tag_45:\n        /* \"#utility.yul\":2747:2758   */\n      0x00\n        /* \"#utility.yul\":2781:2787   */\n      dup3\n        /* \"#utility.yul\":2776:2779   */\n      dup3\n        /* \"#utility.yul\":2769:2788   */\n      mstore\n        /* \"#utility.yul\":2821:2825   */\n      0x20\n        /* \"#utility.yul\":2816:2819   */\n      dup3\n        /* \"#utility.yul\":2812:2826   */\n      add\n        /* \"#utility.yul\":2797:2826   */\n      swap1\n      pop\n        /* \"#utility.yul\":2663:2832   */\n      swap3\n      swap2\n      pop\n      pop\n      jump\t// out\n        /* \"#utility.yul\":2838:3145   */\n    tag_25:\n        /* \"#utility.yul\":2906:2907   */\n      0x00\n        /* \"#utility.yul\":2916:3029   */\n    tag_65:\n        /* \"#utility.yul\":2930:2936   */\n      dup4\n        /* \"#utility.yul\":2927:2928   */\n      dup2\n        /* \"#utility.yul\":2924:2937   */\n      lt\n        /* \"#utility.yul\":2916:3029   */\n      iszero\n      tag_67\n      jumpi\n        /* \"#utility.yul\":3015:3016   */\n      dup1\n        /* \"#utility.yul\":3010:3013   */\n      dup3\n        /* \"#utility.yul\":3006:3017   */\n      add\n        /* \"#utility.yul\":3000:3018   */\n      mload\n        /* \"#utility.yul\":2996:2997   */\n      dup2\n        /* \"#utility.yul\":2991:2994   */\n      dup5\n        /* \"#utility.yul\":2987:2998   */\n      add\n        /* \"#utility.yul\":2980:3019   */\n      mstore\n        /* \"#utility.yul\":2952:2954   */\n      0x20\n        /* \"#utility.yul\":2949:2950   */\n      dup2\n        /* \"#utility.yul\":2945:2955   */\n      add\n        /* \"#utility.yul\":2940:2955   */\n      swap1\n      pop\n        /* \"#utility.yul\":2916:3029   */\n      jump(tag_65)\n    tag_67:\n        /* \"#utility.yul\":3047:3053   */\n      dup4\n        /* \"#utility.yul\":3044:3045   */\n      dup2\n        /* \"#utility.yul\":3041:3054   */\n      gt\n        /* \"#utility.yul\":3038:3139   */\n      iszero\n      tag_68\n      jumpi\n        /* \"#utility.yul\":3127:3128   */\n      0x00\n        /* \"#utility.yul\":3118:3124   */\n      dup5\n        /* \"#utility.yul\":3113:3116   */\n      dup5\n        /* \"#utility.yul\":3109:3125   */\n      add\n        /* \"#utility.yul\":3102:3129   */\n      mstore\n        /* \"#utility.yul\":3038:3139   */\n    tag_68:\n        /* \"#utility.yul\":2887:3145   */\n      pop\n        /* \"#utility.yul\":2838:3145   */\n      pop\n      pop\n      pop\n      jump\t// out\n        /* \"#utility.yul\":3151:3432   */\n    tag_55:\n        /* \"#utility.yul\":3234:3261   */\n      tag_70\n        /* \"#utility.yul\":3256:3260   */\n      dup3\n        /* \"#utility.yul\":3234:3261   */\n      tag_48\n      jump\t// in\n    tag_70:\n        /* \"#utility.yul\":3226:3232   */\n      dup2\n        /* \"#utility.yul\":3222:3262   */\n      add\n        /* \"#utility.yul\":3364:3370   */\n      dup2\n        /* \"#utility.yul\":3352:3362   */\n      dup2\n        /* \"#utility.yul\":3349:3371   */\n      lt\n        /* \"#utility.yul\":3328:3346   */\n      0xffffffffffffffff\n        /* \"#utility.yul\":3316:3326   */\n      dup3\n        /* \"#utility.yul\":3313:3347   */\n      gt\n        /* \"#utility.yul\":3310:3372   */\n      or\n        /* \"#utility.yul\":3307:3395   */\n      iszero\n      tag_71\n      jumpi\n        /* \"#utility.yul\":3375:3393   */\n      tag_72\n      tag_60\n      jump\t// in\n    tag_72:\n        /* \"#utility.yul\":3307:3395   */\n    tag_71:\n        /* \"#utility.yul\":3415:3425   */\n      dup1\n        /* \"#utility.yul\":3411:3413   */\n      0x40\n        /* \"#utility.yul\":3404:3426   */\n      mstore\n        /* \"#utility.yul\":3194:3432   */\n      pop\n        /* \"#utility.yul\":3151:3432   */\n      pop\n      pop\n      jump\t// out\n        /* \"#utility.yul\":3438:3618   */\n    tag_60:\n        /* \"#utility.yul\":3486:3563   */\n      0x4e487b7100000000000000000000000000000000000000000000000000000000\n        /* \"#utility.yul\":3483:3484   */\n      0x00\n        /* \"#utility.yul\":3476:3564   */\n      mstore\n        /* \"#utility.yul\":3583:3587   */\n      0x41\n        /* \"#utility.yul\":3580:3581   */\n      0x04\n        /* \"#utility.yul\":3573:3588   */\n      mstore\n        /* \"#utility.yul\":3607:3611   */\n      0x24\n        /* \"#utility.yul\":3604:3605   */\n      0x00\n        /* \"#utility.yul\":3597:3612   */\n      revert\n        /* \"#utility.yul\":3624:3741   */\n    tag_30:\n        /* \"#utility.yul\":3733:3734   */\n      0x00\n        /* \"#utility.yul\":3730:3731   */\n      dup1\n        /* \"#utility.yul\":3723:3735   */\n      revert\n        /* \"#utility.yul\":3747:3864   */\n    tag_23:\n        /* \"#utility.yul\":3856:3857   */\n      0x00\n        /* \"#utility.yul\":3853:3854   */\n      dup1\n        /* \"#utility.yul\":3846:3858   */\n      revert\n        /* \"#utility.yul\":3870:3987   */\n    tag_38:\n        /* \"#utility.yul\":3979:3980   */\n      0x00\n        /* \"#utility.yul\":3976:3977   */\n      dup1\n        /* \"#utility.yul\":3969:3981   */\n      revert\n        /* \"#utility.yul\":3993:4110   */\n    tag_35:\n        /* \"#utility.yul\":4102:4103   */\n      0x00\n        /* \"#utility.yul\":4099:4100   */\n      dup1\n        /* \"#utility.yul\":4092:4104   */\n      revert\n        /* \"#utility.yul\":4116:4218   */\n    tag_48:\n        /* \"#utility.yul\":4157:4163   */\n      0x00\n        /* \"#utility.yul\":4208:4210   */\n      0x1f\n        /* \"#utility.yul\":4204:4211   */\n      not\n        /* \"#utility.yul\":4199:4201   */\n      0x1f\n        /* \"#utility.yul\":4192:4197   */\n      dup4\n        /* \"#utility.yul\":4188:4202   */\n      add\n        /* \"#utility.yul\":4184:4212   */\n      and\n        /* \"#utility.yul\":4174:4212   */\n      swap1\n      pop\n        /* \"#utility.yul\":4116:4218   */\n      swap2\n      swap1\n      pop\n      jump\t// out\n\n    auxdata: 0xa2646970667358221220b69eea95f3f5fe02c8e36326a38a6b99553ea976dfecc56832cb676012727ed464736f6c63430008070033\n}\n\nsub_1: assembly {\n        /* \"visibility.sol\":60:185  contract a{... */\n      mstore(0x40, 0x80)\n      callvalue\n      dup1\n      iszero\n      tag_1\n      jumpi\n      0x00\n      dup1\n      revert\n    tag_1:\n      pop\n      dataSize(sub_0)\n      dup1\n      dataOffset(sub_0)\n      0x00\n      codecopy\n      0x00\n      return\n    stop\n\n    sub_0: assembly {\n            /* \"visibility.sol\":60:185  contract a{... */\n          mstore(0x40, 0x80)\n          callvalue\n          dup1\n          iszero\n          tag_1\n          jumpi\n          0x00\n          dup1\n          revert\n        tag_1:\n          pop\n          jumpi(tag_2, lt(calldatasize, 0x04))\n          shr(0xe0, calldataload(0x00))\n          dup1\n          0x3e9cf0c0\n          eq\n          tag_3\n          jumpi\n        tag_2:\n          0x00\n          dup1\n          revert\n            /* \"visibility.sol\":76:178  function _external() external pure returns(string memory str){... */\n        tag_3:\n          tag_4\n          tag_5\n          jump\t// in\n        tag_4:\n          mload(0x40)\n          tag_6\n          swap2\n          swap1\n          tag_7\n          jump\t// in\n        tag_6:\n          mload(0x40)\n          dup1\n          swap2\n          sub\n          swap1\n          return\n        tag_5:\n            /* \"visibility.sol\":119:136  string memory str */\n          0x60\n            /* \"visibility.sol\":154:171  str=\"devidIsLive\" */\n          mload(0x40)\n          dup1\n          0x40\n          add\n          0x40\n          mstore\n          dup1\n          0x0b\n          dup2\n          mstore\n          0x20\n          add\n          0x646576696449734c697665000000000000000000000000000000000000000000\n          dup2\n          mstore\n          pop\n          swap1\n          pop\n            /* \"visibility.sol\":76:178  function _external() external pure returns(string memory str){... */\n          swap1\n          jump\t// out\n            /* \"#utility.yul\":7:371   */\n        tag_10:\n            /* \"#utility.yul\":95:98   */\n          0x00\n            /* \"#utility.yul\":123:162   */\n          tag_12\n            /* \"#utility.yul\":156:161   */\n          dup3\n            /* \"#utility.yul\":123:162   */\n          tag_13\n          jump\t// in\n        tag_12:\n            /* \"#utility.yul\":178:249   */\n          tag_14\n            /* \"#utility.yul\":242:248   */\n          dup2\n            /* \"#utility.yul\":237:240   */\n          dup6\n            /* \"#utility.yul\":178:249   */\n          tag_15\n          jump\t// in\n        tag_14:\n            /* \"#utility.yul\":171:249   */\n          swap4\n          pop\n            /* \"#utility.yul\":258:310   */\n          tag_16\n            /* \"#utility.yul\":303:309   */\n          dup2\n            /* \"#utility.yul\":298:301   */\n          dup6\n            /* \"#utility.yul\":291:295   */\n          0x20\n            /* \"#utility.yul\":284:289   */\n          dup7\n            /* \"#utility.yul\":280:296   */\n          add\n            /* \"#utility.yul\":258:310   */\n          tag_17\n          jump\t// in\n        tag_16:\n            /* \"#utility.yul\":335:364   */\n          tag_18\n            /* \"#utility.yul\":357:363   */\n          dup2\n            /* \"#utility.yul\":335:364   */\n          tag_19\n          jump\t// in\n        tag_18:\n            /* \"#utility.yul\":330:333   */\n          dup5\n            /* \"#utility.yul\":326:365   */\n          add\n            /* \"#utility.yul\":319:365   */\n          swap2\n          pop\n            /* \"#utility.yul\":99:371   */\n          pop\n            /* \"#utility.yul\":7:371   */\n          swap3\n          swap2\n          pop\n          pop\n          jump\t// out\n            /* \"#utility.yul\":377:690   */\n        tag_7:\n            /* \"#utility.yul\":490:494   */\n          0x00\n            /* \"#utility.yul\":528:530   */\n          0x20\n            /* \"#utility.yul\":517:526   */\n          dup3\n            /* \"#utility.yul\":513:531   */\n          add\n            /* \"#utility.yul\":505:531   */\n          swap1\n          pop\n            /* \"#utility.yul\":577:586   */\n          dup2\n            /* \"#utility.yul\":571:575   */\n          dup2\n            /* \"#utility.yul\":567:587   */\n          sub\n            /* \"#utility.yul\":563:564   */\n          0x00\n            /* \"#utility.yul\":552:561   */\n          dup4\n            /* \"#utility.yul\":548:565   */\n          add\n            /* \"#utility.yul\":541:588   */\n          mstore\n            /* \"#utility.yul\":605:683   */\n          tag_21\n            /* \"#utility.yul\":678:682   */\n          dup2\n            /* \"#utility.yul\":669:675   */\n          dup5\n            /* \"#utility.yul\":605:683   */\n          tag_10\n          jump\t// in\n        tag_21:\n            /* \"#utility.yul\":597:683   */\n          swap1\n          pop\n            /* \"#utility.yul\":377:690   */\n          swap3\n          swap2\n          pop\n          pop\n          jump\t// out\n            /* \"#utility.yul\":696:795   */\n        tag_13:\n            /* \"#utility.yul\":748:754   */\n          0x00\n            /* \"#utility.yul\":782:787   */\n          dup2\n            /* \"#utility.yul\":776:788   */\n          mload\n            /* \"#utility.yul\":766:788   */\n          swap1\n          pop\n            /* \"#utility.yul\":696:795   */\n          swap2\n          swap1\n          pop\n          jump\t// out\n            /* \"#utility.yul\":801:970   */\n        tag_15:\n            /* \"#utility.yul\":885:896   */\n          0x00\n            /* \"#utility.yul\":919:925   */\n          dup3\n            /* \"#utility.yul\":914:917   */\n          dup3\n            /* \"#utility.yul\":907:926   */\n          mstore\n            /* \"#utility.yul\":959:963   */\n          0x20\n            /* \"#utility.yul\":954:957   */\n          dup3\n            /* \"#utility.yul\":950:964   */\n          add\n            /* \"#utility.yul\":935:964   */\n          swap1\n          pop\n            /* \"#utility.yul\":801:970   */\n          swap3\n          swap2\n          pop\n          pop\n          jump\t// out\n            /* \"#utility.yul\":976:1283   */\n        tag_17:\n            /* \"#utility.yul\":1044:1045   */\n          0x00\n            /* \"#utility.yul\":1054:1167   */\n        tag_25:\n            /* \"#utility.yul\":1068:1074   */\n          dup4\n            /* \"#utility.yul\":1065:1066   */\n          dup2\n            /* \"#utility.yul\":1062:1075   */\n          lt\n            /* \"#utility.yul\":1054:1167   */\n          iszero\n          tag_27\n          jumpi\n            /* \"#utility.yul\":1153:1154   */\n          dup1\n            /* \"#utility.yul\":1148:1151   */\n          dup3\n            /* \"#utility.yul\":1144:1155   */\n          add\n            /* \"#utility.yul\":1138:1156   */\n          mload\n            /* \"#utility.yul\":1134:1135   */\n          dup2\n            /* \"#utility.yul\":1129:1132   */\n          dup5\n            /* \"#utility.yul\":1125:1136   */\n          add\n            /* \"#utility.yul\":1118:1157   */\n          mstore\n            /* \"#utility.yul\":1090:1092   */\n          0x20\n            /* \"#utility.yul\":1087:1088   */\n          dup2\n            /* \"#utility.yul\":1083:1093   */\n          add\n            /* \"#utility.yul\":1078:1093   */\n          swap1\n          pop\n            /* \"#utility.yul\":1054:1167   */\n          jump(tag_25)\n        tag_27:\n            /* \"#utility.yul\":1185:1191   */\n          dup4\n            /* \"#utility.yul\":1182:1183   */\n          dup2\n            /* \"#utility.yul\":1179:1192   */\n          gt\n            /* \"#utility.yul\":1176:1277   */\n          iszero\n          tag_28\n          jumpi\n            /* \"#utility.yul\":1265:1266   */\n          0x00\n            /* \"#utility.yul\":1256:1262   */\n          dup5\n            /* \"#utility.yul\":1251:1254   */\n          dup5\n            /* \"#utility.yul\":1247:1263   */\n          add\n            /* \"#utility.yul\":1240:1267   */\n          mstore\n            /* \"#utility.yul\":1176:1277   */\n        tag_28:\n            /* \"#utility.yul\":1025:1283   */\n          pop\n            /* \"#utility.yul\":976:1283   */\n          pop\n          pop\n          pop\n          jump\t// out\n            /* \"#utility.yul\":1289:1391   */\n        tag_19:\n            /* \"#utility.yul\":1330:1336   */\n          0x00\n            /* \"#utility.yul\":1381:1383   */\n          0x1f\n            /* \"#utility.yul\":1377:1384   */\n          not\n            /* \"#utility.yul\":1372:1374   */\n          0x1f\n            /* \"#utility.yul\":1365:1370   */\n          dup4\n            /* \"#utility.yul\":1361:1375   */\n          add\n            /* \"#utility.yul\":1357:1385   */\n          and\n            /* \"#utility.yul\":1347:1385   */\n          swap1\n          pop\n            /* \"#utility.yul\":1289:1391   */\n          swap2\n          swap1\n          pop\n          jump\t// out\n\n        auxdata: 0xa26469706673582212208fe7fc32d7470ba7df9724110beadf1d8e94024fa47ab44e8b43f66d2cdf4e7064736f6c63430008070033\n    }\n}\n",
				"bytecode": {
					"linkReferences": {},
					"object": "60806040526040516100109061007e565b604051809103906000f08015801561002c573d6000803e3d6000fd5b506000806101000a81548173ffffffffffffffffffffffffffffffffffffffff021916908373ffffffffffffffffffffffffffffffffffffffff16021790555034801561007857600080fd5b5061008b565b61019c8061040683390190565b61036c8061009a6000396000f3fe608060405234801561001057600080fd5b506004361061002b5760003560e01c80637a3f119e14610030575b600080fd5b61003861004e565b60405161004591906101ea565b60405180910390f35b606060008054906101000a900473ffffffffffffffffffffffffffffffffffffffff1673ffffffffffffffffffffffffffffffffffffffff16633e9cf0c06040518163ffffffff1660e01b815260040160006040518083038186803b1580156100b657600080fd5b505afa1580156100ca573d6000803e3d6000fd5b505050506040513d6000823e3d601f19601f820116820180604052508101906100f39190610168565b905090565b600061010b61010684610231565b61020c565b90508281526020810184848401111561012757610126610316565b5b61013284828561027e565b509392505050565b600082601f83011261014f5761014e610311565b5b815161015f8482602086016100f8565b91505092915050565b60006020828403121561017e5761017d610320565b5b600082015167ffffffffffffffff81111561019c5761019b61031b565b5b6101a88482850161013a565b91505092915050565b60006101bc82610262565b6101c6818561026d565b93506101d681856020860161027e565b6101df81610325565b840191505092915050565b6000602082019050818103600083015261020481846101b1565b905092915050565b6000610216610227565b905061022282826102b1565b919050565b6000604051905090565b600067ffffffffffffffff82111561024c5761024b6102e2565b5b61025582610325565b9050602081019050919050565b600081519050919050565b600082825260208201905092915050565b60005b8381101561029c578082015181840152602081019050610281565b838111156102ab576000848401525b50505050565b6102ba82610325565b810181811067ffffffffffffffff821117156102d9576102d86102e2565b5b80604052505050565b7f4e487b7100000000000000000000000000000000000000000000000000000000600052604160045260246000fd5b600080fd5b600080fd5b600080fd5b600080fd5b6000601f19601f830116905091905056fea2646970667358221220b69eea95f3f5fe02c8e36326a38a6b99553ea976dfecc56832cb676012727ed464736f6c63430008070033608060405234801561001057600080fd5b5061017c806100206000396000f3fe608060405234801561001057600080fd5b506004361061002b5760003560e01c80633e9cf0c014610030575b600080fd5b61003861004e565b60405161004591906100c4565b60405180910390f35b60606040518060400160405280600b81526020017f646576696449734c697665000000000000000000000000000000000000000000815250905090565b6000610096826100e6565b6100a081856100f1565b93506100b0818560208601610102565b6100b981610135565b840191505092915050565b600060208201905081810360008301526100de818461008b565b905092915050565b600081519050919050565b600082825260208201905092915050565b60005b83811015610120578082015181840152602081019050610105565b8381111561012f576000848401525b50505050565b6000601f19601f830116905091905056fea26469706673582212208fe7fc32d7470ba7df9724110beadf1d8e94024fa47ab44e8b43f66d2cdf4e7064736f6c63430008070033",
					"opcodes": "PUSH1 0x80 PUSH1 0x40 MSTORE PUSH1 0x40 MLOAD PUSH2 0x10 SWAP1 PUSH2 0x7E JUMP JUMPDEST PUSH1 0x40 MLOAD DUP1 SWAP2 SUB SWAP1 PUSH1 0x0 CREATE DUP1 ISZERO DUP1 ISZERO PUSH2 0x2C JUMPI RETURNDATASIZE PUSH1 0x0 DUP1 RETURNDATACOPY RETURNDATASIZE PUSH1 0x0 REVERT JUMPDEST POP PUSH1 0x0 DUP1 PUSH2 0x100 EXP DUP2 SLOAD DUP2 PUSH20 0xFFFFFFFFFFFFFFFFFFFFFFFFFFFFFFFFFFFFFFFF MUL NOT AND SWAP1 DUP4 PUSH20 0xFFFFFFFFFFFFFFFFFFFFFFFFFFFFFFFFFFFFFFFF AND MUL OR SWAP1 SSTORE POP CALLVALUE DUP1 ISZERO PUSH2 0x78 JUMPI PUSH1 0x0 DUP1 REVERT JUMPDEST POP PUSH2 0x8B JUMP JUMPDEST PUSH2 0x19C DUP1 PUSH2 0x406 DUP4 CODECOPY ADD SWAP1 JUMP JUMPDEST PUSH2 0x36C DUP1 PUSH2 0x9A PUSH1 0x0 CODECOPY PUSH1 0x0 RETURN INVALID PUSH1 0x80 PUSH1 0x40 MSTORE CALLVALUE DUP1 ISZERO PUSH2 0x10 JUMPI PUSH1 0x0 DUP1 REVERT JUMPDEST POP PUSH1 0x4 CALLDATASIZE LT PUSH2 0x2B JUMPI PUSH1 0x0 CALLDATALOAD PUSH1 0xE0 SHR DUP1 PUSH4 0x7A3F119E EQ PUSH2 0x30 JUMPI JUMPDEST PUSH1 0x0 DUP1 REVERT JUMPDEST PUSH2 0x38 PUSH2 0x4E JUMP JUMPDEST PUSH1 0x40 MLOAD PUSH2 0x45 SWAP2 SWAP1 PUSH2 0x1EA JUMP JUMPDEST PUSH1 0x40 MLOAD DUP1 SWAP2 SUB SWAP1 RETURN JUMPDEST PUSH1 0x60 PUSH1 0x0 DUP1 SLOAD SWAP1 PUSH2 0x100 EXP SWAP1 DIV PUSH20 0xFFFFFFFFFFFFFFFFFFFFFFFFFFFFFFFFFFFFFFFF AND PUSH20 0xFFFFFFFFFFFFFFFFFFFFFFFFFFFFFFFFFFFFFFFF AND PUSH4 0x3E9CF0C0 PUSH1 0x40 MLOAD DUP2 PUSH4 0xFFFFFFFF AND PUSH1 0xE0 SHL DUP2 MSTORE PUSH1 0x4 ADD PUSH1 0x0 PUSH1 0x40 MLOAD DUP1 DUP4 SUB DUP2 DUP7 DUP1 EXTCODESIZE ISZERO DUP1 ISZERO PUSH2 0xB6 JUMPI PUSH1 0x0 DUP1 REVERT JUMPDEST POP GAS STATICCALL ISZERO DUP1 ISZERO PUSH2 0xCA JUMPI RETURNDATASIZE PUSH1 0x0 DUP1 RETURNDATACOPY RETURNDATASIZE PUSH1 0x0 REVERT JUMPDEST POP POP POP POP PUSH1 0x40 MLOAD RETURNDATASIZE PUSH1 0x0 DUP3 RETURNDATACOPY RETURNDATASIZE PUSH1 0x1F NOT PUSH1 0x1F DUP3 ADD AND DUP3 ADD DUP1 PUSH1 0x40 MSTORE POP DUP2 ADD SWAP1 PUSH2 0xF3 SWAP2 SWAP1 PUSH2 0x168 JUMP JUMPDEST SWAP1 POP SWAP1 JUMP JUMPDEST PUSH1 0x0 PUSH2 0x10B PUSH2 0x106 DUP5 PUSH2 0x231 JUMP JUMPDEST PUSH2 0x20C JUMP JUMPDEST SWAP1 POP DUP3 DUP2 MSTORE PUSH1 0x20 DUP2 ADD DUP5 DUP5 DUP5 ADD GT ISZERO PUSH2 0x127 JUMPI PUSH2 0x126 PUSH2 0x316 JUMP JUMPDEST JUMPDEST PUSH2 0x132 DUP5 DUP3 DUP6 PUSH2 0x27E JUMP JUMPDEST POP SWAP4 SWAP3 POP POP POP JUMP JUMPDEST PUSH1 0x0 DUP3 PUSH1 0x1F DUP4 ADD SLT PUSH2 0x14F JUMPI PUSH2 0x14E PUSH2 0x311 JUMP JUMPDEST JUMPDEST DUP2 MLOAD PUSH2 0x15F DUP5 DUP3 PUSH1 0x20 DUP7 ADD PUSH2 0xF8 JUMP JUMPDEST SWAP2 POP POP SWAP3 SWAP2 POP POP JUMP JUMPDEST PUSH1 0x0 PUSH1 0x20 DUP3 DUP5 SUB SLT ISZERO PUSH2 0x17E JUMPI PUSH2 0x17D PUSH2 0x320 JUMP JUMPDEST JUMPDEST PUSH1 0x0 DUP3 ADD MLOAD PUSH8 0xFFFFFFFFFFFFFFFF DUP2 GT ISZERO PUSH2 0x19C JUMPI PUSH2 0x19B PUSH2 0x31B JUMP JUMPDEST JUMPDEST PUSH2 0x1A8 DUP5 DUP3 DUP6 ADD PUSH2 0x13A JUMP JUMPDEST SWAP2 POP POP SWAP3 SWAP2 POP POP JUMP JUMPDEST PUSH1 0x0 PUSH2 0x1BC DUP3 PUSH2 0x262 JUMP JUMPDEST PUSH2 0x1C6 DUP2 DUP6 PUSH2 0x26D JUMP JUMPDEST SWAP4 POP PUSH2 0x1D6 DUP2 DUP6 PUSH1 0x20 DUP7 ADD PUSH2 0x27E JUMP JUMPDEST PUSH2 0x1DF DUP2 PUSH2 0x325 JUMP JUMPDEST DUP5 ADD SWAP2 POP POP SWAP3 SWAP2 POP POP JUMP JUMPDEST PUSH1 0x0 PUSH1 0x20 DUP3 ADD SWAP1 POP DUP2 DUP2 SUB PUSH1 0x0 DUP4 ADD MSTORE PUSH2 0x204 DUP2 DUP5 PUSH2 0x1B1 JUMP JUMPDEST SWAP1 POP SWAP3 SWAP2 POP POP JUMP JUMPDEST PUSH1 0x0 PUSH2 0x216 PUSH2 0x227 JUMP JUMPDEST SWAP1 POP PUSH2 0x222 DUP3 DUP3 PUSH2 0x2B1 JUMP JUMPDEST SWAP2 SWAP1 POP JUMP JUMPDEST PUSH1 0x0 PUSH1 0x40 MLOAD SWAP1 POP SWAP1 JUMP JUMPDEST PUSH1 0x0 PUSH8 0xFFFFFFFFFFFFFFFF DUP3 GT ISZERO PUSH2 0x24C JUMPI PUSH2 0x24B PUSH2 0x2E2 JUMP JUMPDEST JUMPDEST PUSH2 0x255 DUP3 PUSH2 0x325 JUMP JUMPDEST SWAP1 POP PUSH1 0x20 DUP2 ADD SWAP1 POP SWAP2 SWAP1 POP JUMP JUMPDEST PUSH1 0x0 DUP2 MLOAD SWAP1 POP SWAP2 SWAP1 POP JUMP JUMPDEST PUSH1 0x0 DUP3 DUP3 MSTORE PUSH1 0x20 DUP3 ADD SWAP1 POP SWAP3 SWAP2 POP POP JUMP JUMPDEST PUSH1 0x0 JUMPDEST DUP4 DUP2 LT ISZERO PUSH2 0x29C JUMPI DUP1 DUP3 ADD MLOAD DUP2 DUP5 ADD MSTORE PUSH1 0x20 DUP2 ADD SWAP1 POP PUSH2 0x281 JUMP JUMPDEST DUP4 DUP2 GT ISZERO PUSH2 0x2AB JUMPI PUSH1 0x0 DUP5 DUP5 ADD MSTORE JUMPDEST POP POP POP POP JUMP JUMPDEST PUSH2 0x2BA DUP3 PUSH2 0x325 JUMP JUMPDEST DUP2 ADD DUP2 DUP2 LT PUSH8 0xFFFFFFFFFFFFFFFF DUP3 GT OR ISZERO PUSH2 0x2D9 JUMPI PUSH2 0x2D8 PUSH2 0x2E2 JUMP JUMPDEST JUMPDEST DUP1 PUSH1 0x40 MSTORE POP POP POP JUMP JUMPDEST PUSH32 0x4E487B7100000000000000000000000000000000000000000000000000000000 PUSH1 0x0 MSTORE PUSH1 0x41 PUSH1 0x4 MSTORE PUSH1 0x24 PUSH1 0x0 REVERT JUMPDEST PUSH1 0x0 DUP1 REVERT JUMPDEST PUSH1 0x0 DUP1 REVERT JUMPDEST PUSH1 0x0 DUP1 REVERT JUMPDEST PUSH1 0x0 DUP1 REVERT JUMPDEST PUSH1 0x0 PUSH1 0x1F NOT PUSH1 0x1F DUP4 ADD AND SWAP1 POP SWAP2 SWAP1 POP JUMP INVALID LOG2 PUSH5 0x6970667358 0x22 SLT KECCAK256 0xB6 SWAP15 0xEA SWAP6 RETURN CREATE2 INVALID MUL 0xC8 0xE3 PUSH4 0x26A38A6B SWAP10 SSTORE RETURNDATACOPY 0xA9 PUSH23 0xDFECC56832CB676012727ED464736F6C63430008070033 PUSH1 0x80 PUSH1 0x40 MSTORE CALLVALUE DUP1 ISZERO PUSH2 0x10 JUMPI PUSH1 0x0 DUP1 REVERT JUMPDEST POP PUSH2 0x17C DUP1 PUSH2 0x20 PUSH1 0x0 CODECOPY PUSH1 0x0 RETURN INVALID PUSH1 0x80 PUSH1 0x40 MSTORE CALLVALUE DUP1 ISZERO PUSH2 0x10 JUMPI PUSH1 0x0 DUP1 REVERT JUMPDEST POP PUSH1 0x4 CALLDATASIZE LT PUSH2 0x2B JUMPI PUSH1 0x0 CALLDATALOAD PUSH1 0xE0 SHR DUP1 PUSH4 0x3E9CF0C0 EQ PUSH2 0x30 JUMPI JUMPDEST PUSH1 0x0 DUP1 REVERT JUMPDEST PUSH2 0x38 PUSH2 0x4E JUMP JUMPDEST PUSH1 0x40 MLOAD PUSH2 0x45 SWAP2 SWAP1 PUSH2 0xC4 JUMP JUMPDEST PUSH1 0x40 MLOAD DUP1 SWAP2 SUB SWAP1 RETURN JUMPDEST PUSH1 0x60 PUSH1 0x40 MLOAD DUP1 PUSH1 0x40 ADD PUSH1 0x40 MSTORE DUP1 PUSH1 0xB DUP2 MSTORE PUSH1 0x20 ADD PUSH32 0x646576696449734C697665000000000000000000000000000000000000000000 DUP2 MSTORE POP SWAP1 POP SWAP1 JUMP JUMPDEST PUSH1 0x0 PUSH2 0x96 DUP3 PUSH2 0xE6 JUMP JUMPDEST PUSH2 0xA0 DUP2 DUP6 PUSH2 0xF1 JUMP JUMPDEST SWAP4 POP PUSH2 0xB0 DUP2 DUP6 PUSH1 0x20 DUP7 ADD PUSH2 0x102 JUMP JUMPDEST PUSH2 0xB9 DUP2 PUSH2 0x135 JUMP JUMPDEST DUP5 ADD SWAP2 POP POP SWAP3 SWAP2 POP POP JUMP JUMPDEST PUSH1 0x0 PUSH1 0x20 DUP3 ADD SWAP1 POP DUP2 DUP2 SUB PUSH1 0x0 DUP4 ADD MSTORE PUSH2 0xDE DUP2 DUP5 PUSH2 0x8B JUMP JUMPDEST SWAP1 POP SWAP3 SWAP2 POP POP JUMP JUMPDEST PUSH1 0x0 DUP2 MLOAD SWAP1 POP SWAP2 SWAP1 POP JUMP JUMPDEST PUSH1 0x0 DUP3 DUP3 MSTORE PUSH1 0x20 DUP3 ADD SWAP1 POP SWAP3 SWAP2 POP POP JUMP JUMPDEST PUSH1 0x0 JUMPDEST DUP4 DUP2 LT ISZERO PUSH2 0x120 JUMPI DUP1 DUP3 ADD MLOAD DUP2 DUP5 ADD MSTORE PUSH1 0x20 DUP2 ADD SWAP1 POP PUSH2 0x105 JUMP JUMPDEST DUP4 DUP2 GT ISZERO PUSH2 0x12F JUMPI PUSH1 0x0 DUP5 DUP5 ADD MSTORE JUMPDEST POP POP POP POP JUMP JUMPDEST PUSH1 0x0 PUSH1 0x1F NOT PUSH1 0x1F DUP4 ADD AND SWAP1 POP SWAP2 SWAP1 POP JUMP INVALID LOG2 PUSH5 0x6970667358 0x22 SLT KECCAK256 DUP16 0xE7 0xFC ORIGIN 0xD7 SELFBALANCE SIGNEXTEND 0xA7 0xDF SWAP8 0x24 GT SIGNEXTEND 0xEA 0xDF SAR DUP15 SWAP5 MUL 0x4F LOG4 PUSH27 0xB44E8B43F66D2CDF4E7064736F6C63430008070033000000000000 "
				},
				"gasEstimates": {
					"creation": {
						"codeDepositCost": "175200",
						"executionCost": "infinite",
						"totalCost": "infinite"
					},
					"external": {
						"another()": "infinite"
					}
				},
				"methodIdentifiers": {
					"another()": "7a3f119e"
				}
			},
			"storageLayout": {
				"storage": [
					{
						"astId": 19,
						"contract": "visibility.sol:b",
						"label": "obj",
						"offset": 0,
						"slot": "0",
						"type": "t_contract(a)12"
					}
				],
				"types": {
					"t_contract(a)12": {
						"encoding": "inplace",
						"label": "contract a",
						"numberOfBytes": "20"
					}
				}
			},
			"userdoc": {
				"kind": "user",
				"methods": {},
				"version": 1
			}
		}
	}
}