{
	"payable.sol": {
		"Payable": {
			"abi": [
				{
					"inputs": [],
					"name": "getEth",
					"outputs": [],
					"stateMutability": "payable",
					"type": "function"
				}
			],
			"devdoc": {
				"kind": "dev",
				"methods": {},
				"version": 1
			},
			"evm": {
				"assembly": "    /* \"payable.sol\":58:122  contract Payable{... */\n  mstore(0x40, 0x80)\n  callvalue\n  dup1\n  iszero\n  tag_1\n  jumpi\n  0x00\n  dup1\n  revert\ntag_1:\n  pop\n  dataSize(sub_0)\n  dup1\n  dataOffset(sub_0)\n  0x00\n  codecopy\n  0x00\n  return\nstop\n\nsub_0: assembly {\n        /* \"payable.sol\":58:122  contract Payable{... */\n      mstore(0x40, 0x80)\n      jumpi(tag_1, lt(calldatasize, 0x04))\n      shr(0xe0, calldataload(0x00))\n      dup1\n      0xcb05b93e\n      eq\n      tag_2\n      jumpi\n    tag_1:\n      0x00\n      dup1\n      revert\n        /* \"payable.sol\":80:120  function getEth() payable public{... */\n    tag_2:\n      tag_3\n      tag_4\n      jump\t// in\n    tag_3:\n      stop\n    tag_4:\n      jump\t// out\n\n    auxdata: 0xa2646970667358221220da6ad6e6cbe081c3e72ce6687924e14cbaf92a4c0161af8a399d90666a6fb60964736f6c63430008070033\n}\n",
				"bytecode": {
					"linkReferences": {},
					"object": "6080604052348015600f57600080fd5b50606180601d6000396000f3fe608060405260043610601c5760003560e01c8063cb05b93e146021575b600080fd5b60276029565b005b56fea2646970667358221220da6ad6e6cbe081c3e72ce6687924e14cbaf92a4c0161af8a399d90666a6fb60964736f6c63430008070033",
					"opcodes": "PUSH1 0x80 PUSH1 0x40 MSTORE CALLVALUE DUP1 ISZERO PUSH1 0xF JUMPI PUSH1 0x0 DUP1 REVERT JUMPDEST POP PUSH1 0x61 DUP1 PUSH1 0x1D PUSH1 0x0 CODECOPY PUSH1 0x0 RETURN INVALID PUSH1 0x80 PUSH1 0x40 MSTORE PUSH1 0x4 CALLDATASIZE LT PUSH1 0x1C JUMPI PUSH1 0x0 CALLDATALOAD PUSH1 0xE0 SHR DUP1 PUSH4 0xCB05B93E EQ PUSH1 0x21 JUMPI JUMPDEST PUSH1 0x0 DUP1 REVERT JUMPDEST PUSH1 0x27 PUSH1 0x29 JUMP JUMPDEST STOP JUMPDEST JUMP INVALID LOG2 PUSH5 0x6970667358 0x22 SLT KECCAK256 0xDA PUSH11 0xD6E6CBE081C3E72CE66879 0x24 0xE1 0x4C 0xBA 0xF9 0x2A 0x4C ADD PUSH2 0xAF8A CODECOPY SWAP14 SWAP1 PUSH7 0x6A6FB60964736F PUSH13 0x63430008070033000000000000 "
				},
				"deployedBytecode": {
					"immutableReferences": {},
					"linkReferences": {},
					"object": "608060405260043610601c5760003560e01c8063cb05b93e146021575b600080fd5b60276029565b005b56fea2646970667358221220da6ad6e6cbe081c3e72ce6687924e14cbaf92a4c0161af8a399d90666a6fb60964736f6c63430008070033",
					"opcodes": "PUSH1 0x80 PUSH1 0x40 MSTORE PUSH1 0x4 CALLDATASIZE LT PUSH1 0x1C JUMPI PUSH1 0x0 CALLDATALOAD PUSH1 0xE0 SHR DUP1 PUSH4 0xCB05B93E EQ PUSH1 0x21 JUMPI JUMPDEST PUSH1 0x0 DUP1 REVERT JUMPDEST PUSH1 0x27 PUSH1 0x29 JUMP JUMPDEST STOP JUMPDEST JUMP INVALID LOG2 PUSH5 0x6970667358 0x22 SLT KECCAK256 0xDA PUSH11 0xD6E6CBE081C3E72CE66879 0x24 0xE1 0x4C 0xBA 0xF9 0x2A 0x4C ADD PUSH2 0xAF8A CODECOPY SWAP14 SWAP1 PUSH7 0x6A6FB60964736F PUSH13 0x63430008070033000000000000 "
				},
				"gasEstimates": {
					"creation": {
						"codeDepositCost": "19400",
						"executionCost": "75",
						"totalCost": "19475"
					},
					"external": {
						"getEth()": "98"
					}
				},
				"methodIdentifiers": {
					"getEth()": "cb05b93e"
				}
			},
			"storageLayout": {
				"storage": [],
				"types": null
			},
			"userdoc": {
				"kind": "user",
				"methods": {},
				"version": 1
			}
		}
	}
}