{
	"globalVariable.sol": {
		"globalVariable": {
			"abi": [
				{
					"inputs": [],
					"name": "diff",
					"outputs": [
						{
							"internalType": "uint256",
							"name": "",
							"type": "uint256"
						}
					],
					"stateMutability": "view",
					"type": "function"
				},
				{
					"inputs": [],
					"name": "myAddress",
					"outputs": [
						{
							"internalType": "address",
							"name": "",
							"type": "address"
						}
					],
					"stateMutability": "view",
					"type": "function"
				},
				{
					"inputs": [],
					"name": "time",
					"outputs": [
						{
							"internalType": "uint256",
							"name": "",
							"type": "uint256"
						}
					],
					"stateMutability": "view",
					"type": "function"
				}
			],
			"devdoc": {
				"kind": "dev",
				"methods": {},
				"version": 1
			},
			"evm": {
				"assembly": "    /* \"globalVariable.sol\":58:213  contract globalVariable{... */\n  mstore(0x40, 0x80)\n    /* \"globalVariable.sol\":114:124  msg.sender */\n  caller\n    /* \"globalVariable.sol\":87:124  address public myAddress = msg.sender */\n  0x00\n  dup1\n  0x0100\n  exp\n  dup2\n  sload\n  dup2\n  0xffffffffffffffffffffffffffffffffffffffff\n  mul\n  not\n  and\n  swap1\n  dup4\n  0xffffffffffffffffffffffffffffffffffffffff\n  and\n  mul\n  or\n  swap1\n  sstore\n  pop\n    /* \"globalVariable.sol\":149:164  block.timestamp */\n  timestamp\n    /* \"globalVariable.sol\":130:164  uint public time = block.timestamp */\n  0x01\n  sstore\n    /* \"globalVariable.sol\":189:205  block.difficulty */\n  difficulty\n    /* \"globalVariable.sol\":170:205  uint public diff = block.difficulty */\n  0x02\n  sstore\n    /* \"globalVariable.sol\":58:213  contract globalVariable{... */\n  callvalue\n  dup1\n  iszero\n  tag_1\n  jumpi\n  0x00\n  dup1\n  revert\ntag_1:\n  pop\n  dataSize(sub_0)\n  dup1\n  dataOffset(sub_0)\n  0x00\n  codecopy\n  0x00\n  return\nstop\n\nsub_0: assembly {\n        /* \"globalVariable.sol\":58:213  contract globalVariable{... */\n      mstore(0x40, 0x80)\n      callvalue\n      dup1\n      iszero\n      tag_1\n      jumpi\n      0x00\n      dup1\n      revert\n    tag_1:\n      pop\n      jumpi(tag_2, lt(calldatasize, 0x04))\n      shr(0xe0, calldataload(0x00))\n      dup1\n      0x16ada547\n      eq\n      tag_3\n      jumpi\n      dup1\n      0x26b85ee1\n      eq\n      tag_4\n      jumpi\n      dup1\n      0xa0d7afb7\n      eq\n      tag_5\n      jumpi\n    tag_2:\n      0x00\n      dup1\n      revert\n        /* \"globalVariable.sol\":130:164  uint public time = block.timestamp */\n    tag_3:\n      tag_6\n      tag_7\n      jump\t// in\n    tag_6:\n      mload(0x40)\n      tag_8\n      swap2\n      swap1\n      tag_9\n      jump\t// in\n    tag_8:\n      mload(0x40)\n      dup1\n      swap2\n      sub\n      swap1\n      return\n        /* \"globalVariable.sol\":87:124  address public myAddress = msg.sender */\n    tag_4:\n      tag_10\n      tag_11\n      jump\t// in\n    tag_10:\n      mload(0x40)\n      tag_12\n      swap2\n      swap1\n      tag_13\n      jump\t// in\n    tag_12:\n      mload(0x40)\n      dup1\n      swap2\n      sub\n      swap1\n      return\n        /* \"globalVariable.sol\":170:205  uint public diff = block.difficulty */\n    tag_5:\n      tag_14\n      tag_15\n      jump\t// in\n    tag_14:\n      mload(0x40)\n      tag_16\n      swap2\n      swap1\n      tag_9\n      jump\t// in\n    tag_16:\n      mload(0x40)\n      dup1\n      swap2\n      sub\n      swap1\n      return\n        /* \"globalVariable.sol\":130:164  uint public time = block.timestamp */\n    tag_7:\n      sload(0x01)\n      dup2\n      jump\t// out\n        /* \"globalVariable.sol\":87:124  address public myAddress = msg.sender */\n    tag_11:\n      0x00\n      dup1\n      sload\n      swap1\n      0x0100\n      exp\n      swap1\n      div\n      0xffffffffffffffffffffffffffffffffffffffff\n      and\n      dup2\n      jump\t// out\n        /* \"globalVariable.sol\":170:205  uint public diff = block.difficulty */\n    tag_15:\n      sload(0x02)\n      dup2\n      jump\t// out\n        /* \"#utility.yul\":7:125   */\n    tag_18:\n        /* \"#utility.yul\":94:118   */\n      tag_20\n        /* \"#utility.yul\":112:117   */\n      dup2\n        /* \"#utility.yul\":94:118   */\n      tag_21\n      jump\t// in\n    tag_20:\n        /* \"#utility.yul\":89:92   */\n      dup3\n        /* \"#utility.yul\":82:119   */\n      mstore\n        /* \"#utility.yul\":72:125   */\n      pop\n      pop\n      jump\t// out\n        /* \"#utility.yul\":131:249   */\n    tag_22:\n        /* \"#utility.yul\":218:242   */\n      tag_24\n        /* \"#utility.yul\":236:241   */\n      dup2\n        /* \"#utility.yul\":218:242   */\n      tag_25\n      jump\t// in\n    tag_24:\n        /* \"#utility.yul\":213:216   */\n      dup3\n        /* \"#utility.yul\":206:243   */\n      mstore\n        /* \"#utility.yul\":196:249   */\n      pop\n      pop\n      jump\t// out\n        /* \"#utility.yul\":255:477   */\n    tag_13:\n      0x00\n        /* \"#utility.yul\":386:388   */\n      0x20\n        /* \"#utility.yul\":375:384   */\n      dup3\n        /* \"#utility.yul\":371:389   */\n      add\n        /* \"#utility.yul\":363:389   */\n      swap1\n      pop\n        /* \"#utility.yul\":399:470   */\n      tag_27\n        /* \"#utility.yul\":467:468   */\n      0x00\n        /* \"#utility.yul\":456:465   */\n      dup4\n        /* \"#utility.yul\":452:469   */\n      add\n        /* \"#utility.yul\":443:449   */\n      dup5\n        /* \"#utility.yul\":399:470   */\n      tag_18\n      jump\t// in\n    tag_27:\n        /* \"#utility.yul\":353:477   */\n      swap3\n      swap2\n      pop\n      pop\n      jump\t// out\n        /* \"#utility.yul\":483:705   */\n    tag_9:\n      0x00\n        /* \"#utility.yul\":614:616   */\n      0x20\n        /* \"#utility.yul\":603:612   */\n      dup3\n        /* \"#utility.yul\":599:617   */\n      add\n        /* \"#utility.yul\":591:617   */\n      swap1\n      pop\n        /* \"#utility.yul\":627:698   */\n      tag_29\n        /* \"#utility.yul\":695:696   */\n      0x00\n        /* \"#utility.yul\":684:693   */\n      dup4\n        /* \"#utility.yul\":680:697   */\n      add\n        /* \"#utility.yul\":671:677   */\n      dup5\n        /* \"#utility.yul\":627:698   */\n      tag_22\n      jump\t// in\n    tag_29:\n        /* \"#utility.yul\":581:705   */\n      swap3\n      swap2\n      pop\n      pop\n      jump\t// out\n        /* \"#utility.yul\":711:807   */\n    tag_21:\n      0x00\n        /* \"#utility.yul\":777:801   */\n      tag_31\n        /* \"#utility.yul\":795:800   */\n      dup3\n        /* \"#utility.yul\":777:801   */\n      tag_32\n      jump\t// in\n    tag_31:\n        /* \"#utility.yul\":766:801   */\n      swap1\n      pop\n        /* \"#utility.yul\":756:807   */\n      swap2\n      swap1\n      pop\n      jump\t// out\n        /* \"#utility.yul\":813:939   */\n    tag_32:\n      0x00\n        /* \"#utility.yul\":890:932   */\n      0xffffffffffffffffffffffffffffffffffffffff\n        /* \"#utility.yul\":883:888   */\n      dup3\n        /* \"#utility.yul\":879:933   */\n      and\n        /* \"#utility.yul\":868:933   */\n      swap1\n      pop\n        /* \"#utility.yul\":858:939   */\n      swap2\n      swap1\n      pop\n      jump\t// out\n        /* \"#utility.yul\":945:1022   */\n    tag_25:\n      0x00\n        /* \"#utility.yul\":1011:1016   */\n      dup2\n        /* \"#utility.yul\":1000:1016   */\n      swap1\n      pop\n        /* \"#utility.yul\":990:1022   */\n      swap2\n      swap1\n      pop\n      jump\t// out\n\n    auxdata: 0xa2646970667358221220222e325eee29e33acbc9d3c346d83095462d0deaa51e92349e7f771da8cd1fa264736f6c63430008000033\n}\n",
				"bytecode": {
					"linkReferences": {},
					"object": "6080604052336000806101000a81548173ffffffffffffffffffffffffffffffffffffffff021916908373ffffffffffffffffffffffffffffffffffffffff160217905550426001554460025534801561005857600080fd5b50610196806100686000396000f3fe608060405234801561001057600080fd5b50600436106100415760003560e01c806316ada5471461004657806326b85ee114610064578063a0d7afb714610082575b600080fd5b61004e6100a0565b60405161005b9190610109565b60405180910390f35b61006c6100a6565b60405161007991906100ee565b60405180910390f35b61008a6100ca565b6040516100979190610109565b60405180910390f35b60015481565b60008054906101000a900473ffffffffffffffffffffffffffffffffffffffff1681565b60025481565b6100d981610124565b82525050565b6100e881610156565b82525050565b600060208201905061010360008301846100d0565b92915050565b600060208201905061011e60008301846100df565b92915050565b600061012f82610136565b9050919050565b600073ffffffffffffffffffffffffffffffffffffffff82169050919050565b600081905091905056fea2646970667358221220222e325eee29e33acbc9d3c346d83095462d0deaa51e92349e7f771da8cd1fa264736f6c63430008000033",
					"opcodes": "PUSH1 0x80 PUSH1 0x40 MSTORE CALLER PUSH1 0x0 DUP1 PUSH2 0x100 EXP DUP2 SLOAD DUP2 PUSH20 0xFFFFFFFFFFFFFFFFFFFFFFFFFFFFFFFFFFFFFFFF MUL NOT AND SWAP1 DUP4 PUSH20 0xFFFFFFFFFFFFFFFFFFFFFFFFFFFFFFFFFFFFFFFF AND MUL OR SWAP1 SSTORE POP TIMESTAMP PUSH1 0x1 SSTORE DIFFICULTY PUSH1 0x2 SSTORE CALLVALUE DUP1 ISZERO PUSH2 0x58 JUMPI PUSH1 0x0 DUP1 REVERT JUMPDEST POP PUSH2 0x196 DUP1 PUSH2 0x68 PUSH1 0x0 CODECOPY PUSH1 0x0 RETURN INVALID PUSH1 0x80 PUSH1 0x40 MSTORE CALLVALUE DUP1 ISZERO PUSH2 0x10 JUMPI PUSH1 0x0 DUP1 REVERT JUMPDEST POP PUSH1 0x4 CALLDATASIZE LT PUSH2 0x41 JUMPI PUSH1 0x0 CALLDATALOAD PUSH1 0xE0 SHR DUP1 PUSH4 0x16ADA547 EQ PUSH2 0x46 JUMPI DUP1 PUSH4 0x26B85EE1 EQ PUSH2 0x64 JUMPI DUP1 PUSH4 0xA0D7AFB7 EQ PUSH2 0x82 JUMPI JUMPDEST PUSH1 0x0 DUP1 REVERT JUMPDEST PUSH2 0x4E PUSH2 0xA0 JUMP JUMPDEST PUSH1 0x40 MLOAD PUSH2 0x5B SWAP2 SWAP1 PUSH2 0x109 JUMP JUMPDEST PUSH1 0x40 MLOAD DUP1 SWAP2 SUB SWAP1 RETURN JUMPDEST PUSH2 0x6C PUSH2 0xA6 JUMP JUMPDEST PUSH1 0x40 MLOAD PUSH2 0x79 SWAP2 SWAP1 PUSH2 0xEE JUMP JUMPDEST PUSH1 0x40 MLOAD DUP1 SWAP2 SUB SWAP1 RETURN JUMPDEST PUSH2 0x8A PUSH2 0xCA JUMP JUMPDEST PUSH1 0x40 MLOAD PUSH2 0x97 SWAP2 SWAP1 PUSH2 0x109 JUMP JUMPDEST PUSH1 0x40 MLOAD DUP1 SWAP2 SUB SWAP1 RETURN JUMPDEST PUSH1 0x1 SLOAD DUP2 JUMP JUMPDEST PUSH1 0x0 DUP1 SLOAD SWAP1 PUSH2 0x100 EXP SWAP1 DIV PUSH20 0xFFFFFFFFFFFFFFFFFFFFFFFFFFFFFFFFFFFFFFFF AND DUP2 JUMP JUMPDEST PUSH1 0x2 SLOAD DUP2 JUMP JUMPDEST PUSH2 0xD9 DUP2 PUSH2 0x124 JUMP JUMPDEST DUP3 MSTORE POP POP JUMP JUMPDEST PUSH2 0xE8 DUP2 PUSH2 0x156 JUMP JUMPDEST DUP3 MSTORE POP POP JUMP JUMPDEST PUSH1 0x0 PUSH1 0x20 DUP3 ADD SWAP1 POP PUSH2 0x103 PUSH1 0x0 DUP4 ADD DUP5 PUSH2 0xD0 JUMP JUMPDEST SWAP3 SWAP2 POP POP JUMP JUMPDEST PUSH1 0x0 PUSH1 0x20 DUP3 ADD SWAP1 POP PUSH2 0x11E PUSH1 0x0 DUP4 ADD DUP5 PUSH2 0xDF JUMP JUMPDEST SWAP3 SWAP2 POP POP JUMP JUMPDEST PUSH1 0x0 PUSH2 0x12F DUP3 PUSH2 0x136 JUMP JUMPDEST SWAP1 POP SWAP2 SWAP1 POP JUMP JUMPDEST PUSH1 0x0 PUSH20 0xFFFFFFFFFFFFFFFFFFFFFFFFFFFFFFFFFFFFFFFF DUP3 AND SWAP1 POP SWAP2 SWAP1 POP JUMP JUMPDEST PUSH1 0x0 DUP2 SWAP1 POP SWAP2 SWAP1 POP JUMP INVALID LOG2 PUSH5 0x6970667358 0x22 SLT KECCAK256 0x22 0x2E ORIGIN 0x5E 0xEE 0x29 0xE3 GASPRICE 0xCB 0xC9 0xD3 0xC3 CHAINID 0xD8 ADDRESS SWAP6 CHAINID 0x2D 0xD 0xEA 0xA5 0x1E SWAP3 CALLVALUE SWAP15 PUSH32 0x771DA8CD1FA264736F6C63430008000033000000000000000000000000000000 "
				},
				"gasEstimates": {
					"creation": {
						"codeDepositCost": "81200",
						"executionCost": "61005",
						"totalCost": "142205"
					},
					"external": {
						"diff()": "1151",
						"myAddress()": "1211",
						"time()": "1107"
					}
				},
				"methodIdentifiers": {
					"diff()": "a0d7afb7",
					"myAddress()": "26b85ee1",
					"time()": "16ada547"
				}
			},
			"storageLayout": {
				"storage": [
					{
						"astId": 5,
						"contract": "globalVariable.sol:globalVariable",
						"label": "myAddress",
						"offset": 0,
						"slot": "0",
						"type": "t_address"
					},
					{
						"astId": 9,
						"contract": "globalVariable.sol:globalVariable",
						"label": "time",
						"offset": 0,
						"slot": "1",
						"type": "t_uint256"
					},
					{
						"astId": 13,
						"contract": "globalVariable.sol:globalVariable",
						"label": "diff",
						"offset": 0,
						"slot": "2",
						"type": "t_uint256"
					}
				],
				"types": {
					"t_address": {
						"encoding": "inplace",
						"label": "address",
						"numberOfBytes": "20"
					},
					"t_uint256": {
						"encoding": "inplace",
						"label": "uint256",
						"numberOfBytes": "32"
					}
				}
			},
			"userdoc": {
				"kind": "user",
				"methods": {},
				"version": 1
			}
		}
	}
}