{
	"loops.sol": {
		"loops": {
			"abi": [
				{
					"inputs": [],
					"name": "loop",
					"outputs": [],
					"stateMutability": "pure",
					"type": "function"
				}
			],
			"devdoc": {
				"kind": "dev",
				"methods": {},
				"version": 1
			},
			"evm": {
				"assembly": "    /* \"loops.sol\":60:149  contract loops{... */\n  mstore(0x40, 0x80)\n  callvalue\n  dup1\n  iszero\n  tag_1\n  jumpi\n  0x00\n  dup1\n  revert\ntag_1:\n  pop\n  dataSize(sub_0)\n  dup1\n  dataOffset(sub_0)\n  0x00\n  codecopy\n  0x00\n  return\nstop\n\nsub_0: assembly {\n        /* \"loops.sol\":60:149  contract loops{... */\n      mstore(0x40, 0x80)\n      callvalue\n      dup1\n      iszero\n      tag_1\n      jumpi\n      0x00\n      dup1\n      revert\n    tag_1:\n      pop\n      jumpi(tag_2, lt(calldatasize, 0x04))\n      shr(0xe0, calldataload(0x00))\n      dup1\n      0xa92100cb\n      eq\n      tag_3\n      jumpi\n    tag_2:\n      0x00\n      dup1\n      revert\n        /* \"loops.sol\":81:147  function loop()public pure {... */\n    tag_3:\n      tag_4\n      tag_5\n      jump\t// in\n    tag_4:\n      stop\n    tag_5:\n      jump\t// out\n\n    auxdata: 0xa2646970667358221220038d8e9a04c56fef0a1e9b4b2d55eb4d5a0420de16200ebe781dd9f0336e04d264736f6c63430008070033\n}\n",
				"bytecode": {
					"linkReferences": {},
					"object": "6080604052348015600f57600080fd5b50606d80601d6000396000f3fe6080604052348015600f57600080fd5b506004361060285760003560e01c8063a92100cb14602d575b600080fd5b60336035565b005b56fea2646970667358221220038d8e9a04c56fef0a1e9b4b2d55eb4d5a0420de16200ebe781dd9f0336e04d264736f6c63430008070033",
					"opcodes": "PUSH1 0x80 PUSH1 0x40 MSTORE CALLVALUE DUP1 ISZERO PUSH1 0xF JUMPI PUSH1 0x0 DUP1 REVERT JUMPDEST POP PUSH1 0x6D DUP1 PUSH1 0x1D PUSH1 0x0 CODECOPY PUSH1 0x0 RETURN INVALID PUSH1 0x80 PUSH1 0x40 MSTORE CALLVALUE DUP1 ISZERO PUSH1 0xF JUMPI PUSH1 0x0 DUP1 REVERT JUMPDEST POP PUSH1 0x4 CALLDATASIZE LT PUSH1 0x28 JUMPI PUSH1 0x0 CALLDATALOAD PUSH1 0xE0 SHR DUP1 PUSH4 0xA92100CB EQ PUSH1 0x2D JUMPI JUMPDEST PUSH1 0x0 DUP1 REVERT JUMPDEST PUSH1 0x33 PUSH1 0x35 JUMP JUMPDEST STOP JUMPDEST JUMP INVALID LOG2 PUSH5 0x6970667358 0x22 SLT KECCAK256 SUB DUP14 DUP15 SWAP11 DIV 0xC5 PUSH16 0xEF0A1E9B4B2D55EB4D5A0420DE16200E 0xBE PUSH25 0x1DD9F0336E04D264736F6C6343000807003300000000000000 "
				},
				"gasEstimates": {
					"creation": {
						"codeDepositCost": "21800",
						"executionCost": "75",
						"totalCost": "21875"
					},
					"external": {
						"loop()": "122"
					}
				},
				"methodIdentifiers": {
					"loop()": "a92100cb"
				}
			},
			"storageLayout": {
				"storage": [],
				"types": null
			},
			"userdoc": {
				"kind": "user",
				"methods": {},
				"version": 1
			}
		}
	}
}