{
	"structure.sol": {
		"structure": {
			"abi": [
				{
					"inputs": [],
					"name": "a",
					"outputs": [
						{
							"internalType": "string",
							"name": "name",
							"type": "string"
						},
						{
							"internalType": "uint256",
							"name": "age",
							"type": "uint256"
						},
						{
							"internalType": "address",
							"name": "acc",
							"type": "address"
						}
					],
					"stateMutability": "view",
					"type": "function"
				},
				{
					"inputs": [
						{
							"internalType": "string",
							"name": "_x",
							"type": "string"
						},
						{
							"internalType": "uint256",
							"name": "_y",
							"type": "uint256"
						},
						{
							"internalType": "address",
							"name": "_z",
							"type": "address"
						}
					],
					"name": "setValue",
					"outputs": [],
					"stateMutability": "nonpayable",
					"type": "function"
				}
			],
			"devdoc": {
				"kind": "dev",
				"methods": {},
				"version": 1
			},
			"evm": {
				"assembly": "    /* \"structure.sol\":58:317  contract structure{... */\n  mstore(0x40, 0x80)\n  callvalue\n  dup1\n  iszero\n  tag_1\n  jumpi\n  0x00\n  dup1\n  revert\ntag_1:\n  pop\n  dataSize(sub_0)\n  dup1\n  dataOffset(sub_0)\n  0x00\n  codecopy\n  0x00\n  return\nstop\n\nsub_0: assembly {\n        /* \"structure.sol\":58:317  contract structure{... */\n      mstore(0x40, 0x80)\n      callvalue\n      dup1\n      iszero\n      tag_1\n      jumpi\n      0x00\n      dup1\n      revert\n    tag_1:\n      pop\n      jumpi(tag_2, lt(calldatasize, 0x04))\n      shr(0xe0, calldataload(0x00))\n      dup1\n      0x0dbe671f\n      eq\n      tag_3\n      jumpi\n      dup1\n      0xb771af3d\n      eq\n      tag_4\n      jumpi\n    tag_2:\n      0x00\n      dup1\n      revert\n        /* \"structure.sol\":166:179  myDT public a */\n    tag_3:\n      tag_5\n      tag_6\n      jump\t// in\n    tag_5:\n      mload(0x40)\n      tag_7\n      swap4\n      swap3\n      swap2\n      swap1\n      tag_8\n      jump\t// in\n    tag_7:\n      mload(0x40)\n      dup1\n      swap2\n      sub\n      swap1\n      return\n        /* \"structure.sol\":185:314  function setValue(string memory _x,uint _y,address _z)public... */\n    tag_4:\n      tag_9\n      0x04\n      dup1\n      calldatasize\n      sub\n      dup2\n      add\n      swap1\n      tag_10\n      swap2\n      swap1\n      tag_11\n      jump\t// in\n    tag_10:\n      tag_12\n      jump\t// in\n    tag_9:\n      stop\n        /* \"structure.sol\":166:179  myDT public a */\n    tag_6:\n      0x00\n      dup1\n      0x00\n      add\n      dup1\n      sload\n      tag_13\n      swap1\n      tag_14\n      jump\t// in\n    tag_13:\n      dup1\n      0x1f\n      add\n      0x20\n      dup1\n      swap2\n      div\n      mul\n      0x20\n      add\n      mload(0x40)\n      swap1\n      dup2\n      add\n      0x40\n      mstore\n      dup1\n      swap3\n      swap2\n      swap1\n      dup2\n      dup2\n      mstore\n      0x20\n      add\n      dup3\n      dup1\n      sload\n      tag_15\n      swap1\n      tag_14\n      jump\t// in\n    tag_15:\n      dup1\n      iszero\n      tag_16\n      jumpi\n      dup1\n      0x1f\n      lt\n      tag_17\n      jumpi\n      0x0100\n      dup1\n      dup4\n      sload\n      div\n      mul\n      dup4\n      mstore\n      swap2\n      0x20\n      add\n      swap2\n      jump(tag_16)\n    tag_17:\n      dup3\n      add\n      swap2\n      swap1\n      0x00\n      mstore\n      keccak256(0x00, 0x20)\n      swap1\n    tag_18:\n      dup2\n      sload\n      dup2\n      mstore\n      swap1\n      0x01\n      add\n      swap1\n      0x20\n      add\n      dup1\n      dup4\n      gt\n      tag_18\n      jumpi\n      dup3\n      swap1\n      sub\n      0x1f\n      and\n      dup3\n      add\n      swap2\n    tag_16:\n      pop\n      pop\n      pop\n      pop\n      pop\n      swap1\n      dup1\n      0x01\n      add\n      sload\n      swap1\n      dup1\n      0x02\n      add\n      0x00\n      swap1\n      sload\n      swap1\n      0x0100\n      exp\n      swap1\n      div\n      0xffffffffffffffffffffffffffffffffffffffff\n      and\n      swap1\n      pop\n      dup4\n      jump\t// out\n        /* \"structure.sol\":185:314  function setValue(string memory _x,uint _y,address _z)public... */\n    tag_12:\n        /* \"structure.sol\":279:292  myDT memory b */\n      tag_20\n      tag_21\n      jump\t// in\n    tag_20:\n        /* \"structure.sol\":294:307  b.name = \"rj\" */\n      mload(0x40)\n      dup1\n      0x40\n      add\n      0x40\n      mstore\n      dup1\n      0x02\n      dup2\n      mstore\n      0x20\n      add\n      0x726a000000000000000000000000000000000000000000000000000000000000\n      dup2\n      mstore\n      pop\n        /* \"structure.sol\":294:295  b */\n      dup2\n        /* \"structure.sol\":294:300  b.name */\n      0x00\n      add\n        /* \"structure.sol\":294:307  b.name = \"rj\" */\n      dup2\n      swap1\n      mstore\n      pop\n        /* \"structure.sol\":250:314  {... */\n      pop\n        /* \"structure.sol\":185:314  function setValue(string memory _x,uint _y,address _z)public... */\n      pop\n      pop\n      pop\n      jump\t// out\n    tag_21:\n      mload(0x40)\n      dup1\n      0x60\n      add\n      0x40\n      mstore\n      dup1\n      0x60\n      dup2\n      mstore\n      0x20\n      add\n      0x00\n      dup2\n      mstore\n      0x20\n      add\n      and(0xffffffffffffffffffffffffffffffffffffffff, 0x00)\n      dup2\n      mstore\n      pop\n      swap1\n      jump\t// out\n        /* \"#utility.yul\":7:419   */\n    tag_23:\n        /* \"#utility.yul\":85:90   */\n      0x00\n        /* \"#utility.yul\":110:176   */\n      tag_25\n        /* \"#utility.yul\":126:175   */\n      tag_26\n        /* \"#utility.yul\":168:174   */\n      dup5\n        /* \"#utility.yul\":126:175   */\n      tag_27\n      jump\t// in\n    tag_26:\n        /* \"#utility.yul\":110:176   */\n      tag_28\n      jump\t// in\n    tag_25:\n        /* \"#utility.yul\":101:176   */\n      swap1\n      pop\n        /* \"#utility.yul\":199:205   */\n      dup3\n        /* \"#utility.yul\":192:197   */\n      dup2\n        /* \"#utility.yul\":185:206   */\n      mstore\n        /* \"#utility.yul\":237:241   */\n      0x20\n        /* \"#utility.yul\":230:235   */\n      dup2\n        /* \"#utility.yul\":226:242   */\n      add\n        /* \"#utility.yul\":275:278   */\n      dup5\n        /* \"#utility.yul\":266:272   */\n      dup5\n        /* \"#utility.yul\":261:264   */\n      dup5\n        /* \"#utility.yul\":257:273   */\n      add\n        /* \"#utility.yul\":254:279   */\n      gt\n        /* \"#utility.yul\":251:363   */\n      iszero\n      tag_29\n      jumpi\n        /* \"#utility.yul\":282:361   */\n      tag_30\n      tag_31\n      jump\t// in\n    tag_30:\n        /* \"#utility.yul\":251:363   */\n    tag_29:\n        /* \"#utility.yul\":372:413   */\n      tag_32\n        /* \"#utility.yul\":406:412   */\n      dup5\n        /* \"#utility.yul\":401:404   */\n      dup3\n        /* \"#utility.yul\":396:399   */\n      dup6\n        /* \"#utility.yul\":372:413   */\n      tag_33\n      jump\t// in\n    tag_32:\n        /* \"#utility.yul\":91:419   */\n      pop\n        /* \"#utility.yul\":7:419   */\n      swap4\n      swap3\n      pop\n      pop\n      pop\n      jump\t// out\n        /* \"#utility.yul\":425:564   */\n    tag_34:\n        /* \"#utility.yul\":471:476   */\n      0x00\n        /* \"#utility.yul\":509:515   */\n      dup2\n        /* \"#utility.yul\":496:516   */\n      calldataload\n        /* \"#utility.yul\":487:516   */\n      swap1\n      pop\n        /* \"#utility.yul\":525:558   */\n      tag_36\n        /* \"#utility.yul\":552:557   */\n      dup2\n        /* \"#utility.yul\":525:558   */\n      tag_37\n      jump\t// in\n    tag_36:\n        /* \"#utility.yul\":425:564   */\n      swap3\n      swap2\n      pop\n      pop\n      jump\t// out\n        /* \"#utility.yul\":584:924   */\n    tag_38:\n        /* \"#utility.yul\":640:645   */\n      0x00\n        /* \"#utility.yul\":689:692   */\n      dup3\n        /* \"#utility.yul\":682:686   */\n      0x1f\n        /* \"#utility.yul\":674:680   */\n      dup4\n        /* \"#utility.yul\":670:687   */\n      add\n        /* \"#utility.yul\":666:693   */\n      slt\n        /* \"#utility.yul\":656:778   */\n      tag_40\n      jumpi\n        /* \"#utility.yul\":697:776   */\n      tag_41\n      tag_42\n      jump\t// in\n    tag_41:\n        /* \"#utility.yul\":656:778   */\n    tag_40:\n        /* \"#utility.yul\":814:820   */\n      dup2\n        /* \"#utility.yul\":801:821   */\n      calldataload\n        /* \"#utility.yul\":839:918   */\n      tag_43\n        /* \"#utility.yul\":914:917   */\n      dup5\n        /* \"#utility.yul\":906:912   */\n      dup3\n        /* \"#utility.yul\":899:903   */\n      0x20\n        /* \"#utility.yul\":891:897   */\n      dup7\n        /* \"#utility.yul\":887:904   */\n      add\n        /* \"#utility.yul\":839:918   */\n      tag_23\n      jump\t// in\n    tag_43:\n        /* \"#utility.yul\":830:918   */\n      swap2\n      pop\n        /* \"#utility.yul\":646:924   */\n      pop\n        /* \"#utility.yul\":584:924   */\n      swap3\n      swap2\n      pop\n      pop\n      jump\t// out\n        /* \"#utility.yul\":930:1069   */\n    tag_44:\n        /* \"#utility.yul\":976:981   */\n      0x00\n        /* \"#utility.yul\":1014:1020   */\n      dup2\n        /* \"#utility.yul\":1001:1021   */\n      calldataload\n        /* \"#utility.yul\":992:1021   */\n      swap1\n      pop\n        /* \"#utility.yul\":1030:1063   */\n      tag_46\n        /* \"#utility.yul\":1057:1062   */\n      dup2\n        /* \"#utility.yul\":1030:1063   */\n      tag_47\n      jump\t// in\n    tag_46:\n        /* \"#utility.yul\":930:1069   */\n      swap3\n      swap2\n      pop\n      pop\n      jump\t// out\n        /* \"#utility.yul\":1075:1874   */\n    tag_11:\n        /* \"#utility.yul\":1162:1168   */\n      0x00\n        /* \"#utility.yul\":1170:1176   */\n      dup1\n        /* \"#utility.yul\":1178:1184   */\n      0x00\n        /* \"#utility.yul\":1227:1229   */\n      0x60\n        /* \"#utility.yul\":1215:1224   */\n      dup5\n        /* \"#utility.yul\":1206:1213   */\n      dup7\n        /* \"#utility.yul\":1202:1225   */\n      sub\n        /* \"#utility.yul\":1198:1230   */\n      slt\n        /* \"#utility.yul\":1195:1314   */\n      iszero\n      tag_49\n      jumpi\n        /* \"#utility.yul\":1233:1312   */\n      tag_50\n      tag_51\n      jump\t// in\n    tag_50:\n        /* \"#utility.yul\":1195:1314   */\n    tag_49:\n        /* \"#utility.yul\":1381:1382   */\n      0x00\n        /* \"#utility.yul\":1370:1379   */\n      dup5\n        /* \"#utility.yul\":1366:1383   */\n      add\n        /* \"#utility.yul\":1353:1384   */\n      calldataload\n        /* \"#utility.yul\":1411:1429   */\n      0xffffffffffffffff\n        /* \"#utility.yul\":1403:1409   */\n      dup2\n        /* \"#utility.yul\":1400:1430   */\n      gt\n        /* \"#utility.yul\":1397:1514   */\n      iszero\n      tag_52\n      jumpi\n        /* \"#utility.yul\":1433:1512   */\n      tag_53\n      tag_54\n      jump\t// in\n    tag_53:\n        /* \"#utility.yul\":1397:1514   */\n    tag_52:\n        /* \"#utility.yul\":1538:1601   */\n      tag_55\n        /* \"#utility.yul\":1593:1600   */\n      dup7\n        /* \"#utility.yul\":1584:1590   */\n      dup3\n        /* \"#utility.yul\":1573:1582   */\n      dup8\n        /* \"#utility.yul\":1569:1591   */\n      add\n        /* \"#utility.yul\":1538:1601   */\n      tag_38\n      jump\t// in\n    tag_55:\n        /* \"#utility.yul\":1528:1601   */\n      swap4\n      pop\n        /* \"#utility.yul\":1324:1611   */\n      pop\n        /* \"#utility.yul\":1650:1652   */\n      0x20\n        /* \"#utility.yul\":1676:1729   */\n      tag_56\n        /* \"#utility.yul\":1721:1728   */\n      dup7\n        /* \"#utility.yul\":1712:1718   */\n      dup3\n        /* \"#utility.yul\":1701:1710   */\n      dup8\n        /* \"#utility.yul\":1697:1719   */\n      add\n        /* \"#utility.yul\":1676:1729   */\n      tag_44\n      jump\t// in\n    tag_56:\n        /* \"#utility.yul\":1666:1729   */\n      swap3\n      pop\n        /* \"#utility.yul\":1621:1739   */\n      pop\n        /* \"#utility.yul\":1778:1780   */\n      0x40\n        /* \"#utility.yul\":1804:1857   */\n      tag_57\n        /* \"#utility.yul\":1849:1856   */\n      dup7\n        /* \"#utility.yul\":1840:1846   */\n      dup3\n        /* \"#utility.yul\":1829:1838   */\n      dup8\n        /* \"#utility.yul\":1825:1847   */\n      add\n        /* \"#utility.yul\":1804:1857   */\n      tag_34\n      jump\t// in\n    tag_57:\n        /* \"#utility.yul\":1794:1857   */\n      swap2\n      pop\n        /* \"#utility.yul\":1749:1867   */\n      pop\n        /* \"#utility.yul\":1075:1874   */\n      swap3\n      pop\n      swap3\n      pop\n      swap3\n      jump\t// out\n        /* \"#utility.yul\":1880:1998   */\n    tag_58:\n        /* \"#utility.yul\":1967:1991   */\n      tag_60\n        /* \"#utility.yul\":1985:1990   */\n      dup2\n        /* \"#utility.yul\":1967:1991   */\n      tag_61\n      jump\t// in\n    tag_60:\n        /* \"#utility.yul\":1962:1965   */\n      dup3\n        /* \"#utility.yul\":1955:1992   */\n      mstore\n        /* \"#utility.yul\":1880:1998   */\n      pop\n      pop\n      jump\t// out\n        /* \"#utility.yul\":2004:2368   */\n    tag_62:\n        /* \"#utility.yul\":2092:2095   */\n      0x00\n        /* \"#utility.yul\":2120:2159   */\n      tag_64\n        /* \"#utility.yul\":2153:2158   */\n      dup3\n        /* \"#utility.yul\":2120:2159   */\n      tag_65\n      jump\t// in\n    tag_64:\n        /* \"#utility.yul\":2175:2246   */\n      tag_66\n        /* \"#utility.yul\":2239:2245   */\n      dup2\n        /* \"#utility.yul\":2234:2237   */\n      dup6\n        /* \"#utility.yul\":2175:2246   */\n      tag_67\n      jump\t// in\n    tag_66:\n        /* \"#utility.yul\":2168:2246   */\n      swap4\n      pop\n        /* \"#utility.yul\":2255:2307   */\n      tag_68\n        /* \"#utility.yul\":2300:2306   */\n      dup2\n        /* \"#utility.yul\":2295:2298   */\n      dup6\n        /* \"#utility.yul\":2288:2292   */\n      0x20\n        /* \"#utility.yul\":2281:2286   */\n      dup7\n        /* \"#utility.yul\":2277:2293   */\n      add\n        /* \"#utility.yul\":2255:2307   */\n      tag_69\n      jump\t// in\n    tag_68:\n        /* \"#utility.yul\":2332:2361   */\n      tag_70\n        /* \"#utility.yul\":2354:2360   */\n      dup2\n        /* \"#utility.yul\":2332:2361   */\n      tag_71\n      jump\t// in\n    tag_70:\n        /* \"#utility.yul\":2327:2330   */\n      dup5\n        /* \"#utility.yul\":2323:2362   */\n      add\n        /* \"#utility.yul\":2316:2362   */\n      swap2\n      pop\n        /* \"#utility.yul\":2096:2368   */\n      pop\n        /* \"#utility.yul\":2004:2368   */\n      swap3\n      swap2\n      pop\n      pop\n      jump\t// out\n        /* \"#utility.yul\":2374:2492   */\n    tag_72:\n        /* \"#utility.yul\":2461:2485   */\n      tag_74\n        /* \"#utility.yul\":2479:2484   */\n      dup2\n        /* \"#utility.yul\":2461:2485   */\n      tag_75\n      jump\t// in\n    tag_74:\n        /* \"#utility.yul\":2456:2459   */\n      dup3\n        /* \"#utility.yul\":2449:2486   */\n      mstore\n        /* \"#utility.yul\":2374:2492   */\n      pop\n      pop\n      jump\t// out\n        /* \"#utility.yul\":2498:3031   */\n    tag_8:\n        /* \"#utility.yul\":2667:2671   */\n      0x00\n        /* \"#utility.yul\":2705:2707   */\n      0x60\n        /* \"#utility.yul\":2694:2703   */\n      dup3\n        /* \"#utility.yul\":2690:2708   */\n      add\n        /* \"#utility.yul\":2682:2708   */\n      swap1\n      pop\n        /* \"#utility.yul\":2754:2763   */\n      dup2\n        /* \"#utility.yul\":2748:2752   */\n      dup2\n        /* \"#utility.yul\":2744:2764   */\n      sub\n        /* \"#utility.yul\":2740:2741   */\n      0x00\n        /* \"#utility.yul\":2729:2738   */\n      dup4\n        /* \"#utility.yul\":2725:2742   */\n      add\n        /* \"#utility.yul\":2718:2765   */\n      mstore\n        /* \"#utility.yul\":2782:2860   */\n      tag_77\n        /* \"#utility.yul\":2855:2859   */\n      dup2\n        /* \"#utility.yul\":2846:2852   */\n      dup7\n        /* \"#utility.yul\":2782:2860   */\n      tag_62\n      jump\t// in\n    tag_77:\n        /* \"#utility.yul\":2774:2860   */\n      swap1\n      pop\n        /* \"#utility.yul\":2870:2942   */\n      tag_78\n        /* \"#utility.yul\":2938:2940   */\n      0x20\n        /* \"#utility.yul\":2927:2936   */\n      dup4\n        /* \"#utility.yul\":2923:2941   */\n      add\n        /* \"#utility.yul\":2914:2920   */\n      dup6\n        /* \"#utility.yul\":2870:2942   */\n      tag_72\n      jump\t// in\n    tag_78:\n        /* \"#utility.yul\":2952:3024   */\n      tag_79\n        /* \"#utility.yul\":3020:3022   */\n      0x40\n        /* \"#utility.yul\":3009:3018   */\n      dup4\n        /* \"#utility.yul\":3005:3023   */\n      add\n        /* \"#utility.yul\":2996:3002   */\n      dup5\n        /* \"#utility.yul\":2952:3024   */\n      tag_58\n      jump\t// in\n    tag_79:\n        /* \"#utility.yul\":2498:3031   */\n      swap5\n      swap4\n      pop\n      pop\n      pop\n      pop\n      jump\t// out\n        /* \"#utility.yul\":3037:3166   */\n    tag_28:\n        /* \"#utility.yul\":3071:3077   */\n      0x00\n        /* \"#utility.yul\":3098:3118   */\n      tag_81\n      tag_82\n      jump\t// in\n    tag_81:\n        /* \"#utility.yul\":3088:3118   */\n      swap1\n      pop\n        /* \"#utility.yul\":3127:3160   */\n      tag_83\n        /* \"#utility.yul\":3155:3159   */\n      dup3\n        /* \"#utility.yul\":3147:3153   */\n      dup3\n        /* \"#utility.yul\":3127:3160   */\n      tag_84\n      jump\t// in\n    tag_83:\n        /* \"#utility.yul\":3037:3166   */\n      swap2\n      swap1\n      pop\n      jump\t// out\n        /* \"#utility.yul\":3172:3247   */\n    tag_82:\n        /* \"#utility.yul\":3205:3211   */\n      0x00\n        /* \"#utility.yul\":3238:3240   */\n      0x40\n        /* \"#utility.yul\":3232:3241   */\n      mload\n        /* \"#utility.yul\":3222:3241   */\n      swap1\n      pop\n        /* \"#utility.yul\":3172:3247   */\n      swap1\n      jump\t// out\n        /* \"#utility.yul\":3253:3561   */\n    tag_27:\n        /* \"#utility.yul\":3315:3319   */\n      0x00\n        /* \"#utility.yul\":3405:3423   */\n      0xffffffffffffffff\n        /* \"#utility.yul\":3397:3403   */\n      dup3\n        /* \"#utility.yul\":3394:3424   */\n      gt\n        /* \"#utility.yul\":3391:3447   */\n      iszero\n      tag_87\n      jumpi\n        /* \"#utility.yul\":3427:3445   */\n      tag_88\n      tag_89\n      jump\t// in\n    tag_88:\n        /* \"#utility.yul\":3391:3447   */\n    tag_87:\n        /* \"#utility.yul\":3465:3494   */\n      tag_90\n        /* \"#utility.yul\":3487:3493   */\n      dup3\n        /* \"#utility.yul\":3465:3494   */\n      tag_71\n      jump\t// in\n    tag_90:\n        /* \"#utility.yul\":3457:3494   */\n      swap1\n      pop\n        /* \"#utility.yul\":3549:3553   */\n      0x20\n        /* \"#utility.yul\":3543:3547   */\n      dup2\n        /* \"#utility.yul\":3539:3554   */\n      add\n        /* \"#utility.yul\":3531:3554   */\n      swap1\n      pop\n        /* \"#utility.yul\":3253:3561   */\n      swap2\n      swap1\n      pop\n      jump\t// out\n        /* \"#utility.yul\":3567:3666   */\n    tag_65:\n        /* \"#utility.yul\":3619:3625   */\n      0x00\n        /* \"#utility.yul\":3653:3658   */\n      dup2\n        /* \"#utility.yul\":3647:3659   */\n      mload\n        /* \"#utility.yul\":3637:3659   */\n      swap1\n      pop\n        /* \"#utility.yul\":3567:3666   */\n      swap2\n      swap1\n      pop\n      jump\t// out\n        /* \"#utility.yul\":3672:3841   */\n    tag_67:\n        /* \"#utility.yul\":3756:3767   */\n      0x00\n        /* \"#utility.yul\":3790:3796   */\n      dup3\n        /* \"#utility.yul\":3785:3788   */\n      dup3\n        /* \"#utility.yul\":3778:3797   */\n      mstore\n        /* \"#utility.yul\":3830:3834   */\n      0x20\n        /* \"#utility.yul\":3825:3828   */\n      dup3\n        /* \"#utility.yul\":3821:3835   */\n      add\n        /* \"#utility.yul\":3806:3835   */\n      swap1\n      pop\n        /* \"#utility.yul\":3672:3841   */\n      swap3\n      swap2\n      pop\n      pop\n      jump\t// out\n        /* \"#utility.yul\":3847:3943   */\n    tag_61:\n        /* \"#utility.yul\":3884:3891   */\n      0x00\n        /* \"#utility.yul\":3913:3937   */\n      tag_94\n        /* \"#utility.yul\":3931:3936   */\n      dup3\n        /* \"#utility.yul\":3913:3937   */\n      tag_95\n      jump\t// in\n    tag_94:\n        /* \"#utility.yul\":3902:3937   */\n      swap1\n      pop\n        /* \"#utility.yul\":3847:3943   */\n      swap2\n      swap1\n      pop\n      jump\t// out\n        /* \"#utility.yul\":3949:4075   */\n    tag_95:\n        /* \"#utility.yul\":3986:3993   */\n      0x00\n        /* \"#utility.yul\":4026:4068   */\n      0xffffffffffffffffffffffffffffffffffffffff\n        /* \"#utility.yul\":4019:4024   */\n      dup3\n        /* \"#utility.yul\":4015:4069   */\n      and\n        /* \"#utility.yul\":4004:4069   */\n      swap1\n      pop\n        /* \"#utility.yul\":3949:4075   */\n      swap2\n      swap1\n      pop\n      jump\t// out\n        /* \"#utility.yul\":4081:4158   */\n    tag_75:\n        /* \"#utility.yul\":4118:4125   */\n      0x00\n        /* \"#utility.yul\":4147:4152   */\n      dup2\n        /* \"#utility.yul\":4136:4152   */\n      swap1\n      pop\n        /* \"#utility.yul\":4081:4158   */\n      swap2\n      swap1\n      pop\n      jump\t// out\n        /* \"#utility.yul\":4164:4318   */\n    tag_33:\n        /* \"#utility.yul\":4248:4254   */\n      dup3\n        /* \"#utility.yul\":4243:4246   */\n      dup2\n        /* \"#utility.yul\":4238:4241   */\n      dup4\n        /* \"#utility.yul\":4225:4255   */\n      calldatacopy\n        /* \"#utility.yul\":4310:4311   */\n      0x00\n        /* \"#utility.yul\":4301:4307   */\n      dup4\n        /* \"#utility.yul\":4296:4299   */\n      dup4\n        /* \"#utility.yul\":4292:4308   */\n      add\n        /* \"#utility.yul\":4285:4312   */\n      mstore\n        /* \"#utility.yul\":4164:4318   */\n      pop\n      pop\n      pop\n      jump\t// out\n        /* \"#utility.yul\":4324:4631   */\n    tag_69:\n        /* \"#utility.yul\":4392:4393   */\n      0x00\n        /* \"#utility.yul\":4402:4515   */\n    tag_100:\n        /* \"#utility.yul\":4416:4422   */\n      dup4\n        /* \"#utility.yul\":4413:4414   */\n      dup2\n        /* \"#utility.yul\":4410:4423   */\n      lt\n        /* \"#utility.yul\":4402:4515   */\n      iszero\n      tag_102\n      jumpi\n        /* \"#utility.yul\":4501:4502   */\n      dup1\n        /* \"#utility.yul\":4496:4499   */\n      dup3\n        /* \"#utility.yul\":4492:4503   */\n      add\n        /* \"#utility.yul\":4486:4504   */\n      mload\n        /* \"#utility.yul\":4482:4483   */\n      dup2\n        /* \"#utility.yul\":4477:4480   */\n      dup5\n        /* \"#utility.yul\":4473:4484   */\n      add\n        /* \"#utility.yul\":4466:4505   */\n      mstore\n        /* \"#utility.yul\":4438:4440   */\n      0x20\n        /* \"#utility.yul\":4435:4436   */\n      dup2\n        /* \"#utility.yul\":4431:4441   */\n      add\n        /* \"#utility.yul\":4426:4441   */\n      swap1\n      pop\n        /* \"#utility.yul\":4402:4515   */\n      jump(tag_100)\n    tag_102:\n        /* \"#utility.yul\":4533:4539   */\n      dup4\n        /* \"#utility.yul\":4530:4531   */\n      dup2\n        /* \"#utility.yul\":4527:4540   */\n      gt\n        /* \"#utility.yul\":4524:4625   */\n      iszero\n      tag_103\n      jumpi\n        /* \"#utility.yul\":4613:4614   */\n      0x00\n        /* \"#utility.yul\":4604:4610   */\n      dup5\n        /* \"#utility.yul\":4599:4602   */\n      dup5\n        /* \"#utility.yul\":4595:4611   */\n      add\n        /* \"#utility.yul\":4588:4615   */\n      mstore\n        /* \"#utility.yul\":4524:4625   */\n    tag_103:\n        /* \"#utility.yul\":4373:4631   */\n      pop\n        /* \"#utility.yul\":4324:4631   */\n      pop\n      pop\n      pop\n      jump\t// out\n        /* \"#utility.yul\":4637:4957   */\n    tag_14:\n        /* \"#utility.yul\":4681:4687   */\n      0x00\n        /* \"#utility.yul\":4718:4719   */\n      0x02\n        /* \"#utility.yul\":4712:4716   */\n      dup3\n        /* \"#utility.yul\":4708:4720   */\n      div\n        /* \"#utility.yul\":4698:4720   */\n      swap1\n      pop\n        /* \"#utility.yul\":4765:4766   */\n      0x01\n        /* \"#utility.yul\":4759:4763   */\n      dup3\n        /* \"#utility.yul\":4755:4767   */\n      and\n        /* \"#utility.yul\":4786:4804   */\n      dup1\n        /* \"#utility.yul\":4776:4857   */\n      tag_105\n      jumpi\n        /* \"#utility.yul\":4842:4846   */\n      0x7f\n        /* \"#utility.yul\":4834:4840   */\n      dup3\n        /* \"#utility.yul\":4830:4847   */\n      and\n        /* \"#utility.yul\":4820:4847   */\n      swap2\n      pop\n        /* \"#utility.yul\":4776:4857   */\n    tag_105:\n        /* \"#utility.yul\":4904:4906   */\n      0x20\n        /* \"#utility.yul\":4896:4902   */\n      dup3\n        /* \"#utility.yul\":4893:4907   */\n      lt\n        /* \"#utility.yul\":4873:4891   */\n      dup2\n        /* \"#utility.yul\":4870:4908   */\n      eq\n        /* \"#utility.yul\":4867:4951   */\n      iszero\n      tag_106\n      jumpi\n        /* \"#utility.yul\":4923:4941   */\n      tag_107\n      tag_108\n      jump\t// in\n    tag_107:\n        /* \"#utility.yul\":4867:4951   */\n    tag_106:\n        /* \"#utility.yul\":4688:4957   */\n      pop\n        /* \"#utility.yul\":4637:4957   */\n      swap2\n      swap1\n      pop\n      jump\t// out\n        /* \"#utility.yul\":4963:5244   */\n    tag_84:\n        /* \"#utility.yul\":5046:5073   */\n      tag_110\n        /* \"#utility.yul\":5068:5072   */\n      dup3\n        /* \"#utility.yul\":5046:5073   */\n      tag_71\n      jump\t// in\n    tag_110:\n        /* \"#utility.yul\":5038:5044   */\n      dup2\n        /* \"#utility.yul\":5034:5074   */\n      add\n        /* \"#utility.yul\":5176:5182   */\n      dup2\n        /* \"#utility.yul\":5164:5174   */\n      dup2\n        /* \"#utility.yul\":5161:5183   */\n      lt\n        /* \"#utility.yul\":5140:5158   */\n      0xffffffffffffffff\n        /* \"#utility.yul\":5128:5138   */\n      dup3\n        /* \"#utility.yul\":5125:5159   */\n      gt\n        /* \"#utility.yul\":5122:5184   */\n      or\n        /* \"#utility.yul\":5119:5207   */\n      iszero\n      tag_111\n      jumpi\n        /* \"#utility.yul\":5187:5205   */\n      tag_112\n      tag_89\n      jump\t// in\n    tag_112:\n        /* \"#utility.yul\":5119:5207   */\n    tag_111:\n        /* \"#utility.yul\":5227:5237   */\n      dup1\n        /* \"#utility.yul\":5223:5225   */\n      0x40\n        /* \"#utility.yul\":5216:5238   */\n      mstore\n        /* \"#utility.yul\":5006:5244   */\n      pop\n        /* \"#utility.yul\":4963:5244   */\n      pop\n      pop\n      jump\t// out\n        /* \"#utility.yul\":5250:5430   */\n    tag_108:\n        /* \"#utility.yul\":5298:5375   */\n      0x4e487b7100000000000000000000000000000000000000000000000000000000\n        /* \"#utility.yul\":5295:5296   */\n      0x00\n        /* \"#utility.yul\":5288:5376   */\n      mstore\n        /* \"#utility.yul\":5395:5399   */\n      0x22\n        /* \"#utility.yul\":5392:5393   */\n      0x04\n        /* \"#utility.yul\":5385:5400   */\n      mstore\n        /* \"#utility.yul\":5419:5423   */\n      0x24\n        /* \"#utility.yul\":5416:5417   */\n      0x00\n        /* \"#utility.yul\":5409:5424   */\n      revert\n        /* \"#utility.yul\":5436:5616   */\n    tag_89:\n        /* \"#utility.yul\":5484:5561   */\n      0x4e487b7100000000000000000000000000000000000000000000000000000000\n        /* \"#utility.yul\":5481:5482   */\n      0x00\n        /* \"#utility.yul\":5474:5562   */\n      mstore\n        /* \"#utility.yul\":5581:5585   */\n      0x41\n        /* \"#utility.yul\":5578:5579   */\n      0x04\n        /* \"#utility.yul\":5571:5586   */\n      mstore\n        /* \"#utility.yul\":5605:5609   */\n      0x24\n        /* \"#utility.yul\":5602:5603   */\n      0x00\n        /* \"#utility.yul\":5595:5610   */\n      revert\n        /* \"#utility.yul\":5622:5739   */\n    tag_42:\n        /* \"#utility.yul\":5731:5732   */\n      0x00\n        /* \"#utility.yul\":5728:5729   */\n      dup1\n        /* \"#utility.yul\":5721:5733   */\n      revert\n        /* \"#utility.yul\":5745:5862   */\n    tag_31:\n        /* \"#utility.yul\":5854:5855   */\n      0x00\n        /* \"#utility.yul\":5851:5852   */\n      dup1\n        /* \"#utility.yul\":5844:5856   */\n      revert\n        /* \"#utility.yul\":5868:5985   */\n    tag_54:\n        /* \"#utility.yul\":5977:5978   */\n      0x00\n        /* \"#utility.yul\":5974:5975   */\n      dup1\n        /* \"#utility.yul\":5967:5979   */\n      revert\n        /* \"#utility.yul\":5991:6108   */\n    tag_51:\n        /* \"#utility.yul\":6100:6101   */\n      0x00\n        /* \"#utility.yul\":6097:6098   */\n      dup1\n        /* \"#utility.yul\":6090:6102   */\n      revert\n        /* \"#utility.yul\":6114:6216   */\n    tag_71:\n        /* \"#utility.yul\":6155:6161   */\n      0x00\n        /* \"#utility.yul\":6206:6208   */\n      0x1f\n        /* \"#utility.yul\":6202:6209   */\n      not\n        /* \"#utility.yul\":6197:6199   */\n      0x1f\n        /* \"#utility.yul\":6190:6195   */\n      dup4\n        /* \"#utility.yul\":6186:6200   */\n      add\n        /* \"#utility.yul\":6182:6210   */\n      and\n        /* \"#utility.yul\":6172:6210   */\n      swap1\n      pop\n        /* \"#utility.yul\":6114:6216   */\n      swap2\n      swap1\n      pop\n      jump\t// out\n        /* \"#utility.yul\":6222:6344   */\n    tag_37:\n        /* \"#utility.yul\":6295:6319   */\n      tag_121\n        /* \"#utility.yul\":6313:6318   */\n      dup2\n        /* \"#utility.yul\":6295:6319   */\n      tag_61\n      jump\t// in\n    tag_121:\n        /* \"#utility.yul\":6288:6293   */\n      dup2\n        /* \"#utility.yul\":6285:6320   */\n      eq\n        /* \"#utility.yul\":6275:6338   */\n      tag_122\n      jumpi\n        /* \"#utility.yul\":6334:6335   */\n      0x00\n        /* \"#utility.yul\":6331:6332   */\n      dup1\n        /* \"#utility.yul\":6324:6336   */\n      revert\n        /* \"#utility.yul\":6275:6338   */\n    tag_122:\n        /* \"#utility.yul\":6222:6344   */\n      pop\n      jump\t// out\n        /* \"#utility.yul\":6350:6472   */\n    tag_47:\n        /* \"#utility.yul\":6423:6447   */\n      tag_124\n        /* \"#utility.yul\":6441:6446   */\n      dup2\n        /* \"#utility.yul\":6423:6447   */\n      tag_75\n      jump\t// in\n    tag_124:\n        /* \"#utility.yul\":6416:6421   */\n      dup2\n        /* \"#utility.yul\":6413:6448   */\n      eq\n        /* \"#utility.yul\":6403:6466   */\n      tag_125\n      jumpi\n        /* \"#utility.yul\":6462:6463   */\n      0x00\n        /* \"#utility.yul\":6459:6460   */\n      dup1\n        /* \"#utility.yul\":6452:6464   */\n      revert\n        /* \"#utility.yul\":6403:6466   */\n    tag_125:\n        /* \"#utility.yul\":6350:6472   */\n      pop\n      jump\t// out\n\n    auxdata: 0xa2646970667358221220b53304a257610b9aab805ad801d866292f46e87c3da02dd81d4a9b0a1f46995964736f6c63430008070033\n}\n",
				"bytecode": {
					"linkReferences": {},
					"object": "608060405234801561001057600080fd5b50610592806100206000396000f3fe608060405234801561001057600080fd5b50600436106100365760003560e01c80630dbe671f1461003b578063b771af3d1461005b575b600080fd5b610043610077565b6040516100529392919061031a565b60405180910390f35b61007560048036038101906100709190610254565b610137565b005b600080600001805461008890610448565b80601f01602080910402602001604051908101604052809291908181526020018280546100b490610448565b80156101015780601f106100d657610100808354040283529160200191610101565b820191906000526020600020905b8154815290600101906020018083116100e457829003601f168201915b5050505050908060010154908060020160009054906101000a900473ffffffffffffffffffffffffffffffffffffffff16905083565b61013f610183565b6040518060400160405280600281526020017f726a000000000000000000000000000000000000000000000000000000000000815250816000018190525050505050565b60405180606001604052806060815260200160008152602001600073ffffffffffffffffffffffffffffffffffffffff1681525090565b60006101cd6101c88461037d565b610358565b9050828152602081018484840111156101e9576101e861050e565b5b6101f4848285610406565b509392505050565b60008135905061020b8161052e565b92915050565b600082601f83011261022657610225610509565b5b81356102368482602086016101ba565b91505092915050565b60008135905061024e81610545565b92915050565b60008060006060848603121561026d5761026c610518565b5b600084013567ffffffffffffffff81111561028b5761028a610513565b5b61029786828701610211565b93505060206102a88682870161023f565b92505060406102b9868287016101fc565b9150509250925092565b6102cc816103ca565b82525050565b60006102dd826103ae565b6102e781856103b9565b93506102f7818560208601610415565b6103008161051d565b840191505092915050565b610314816103fc565b82525050565b6000606082019050818103600083015261033481866102d2565b9050610343602083018561030b565b61035060408301846102c3565b949350505050565b6000610362610373565b905061036e828261047a565b919050565b6000604051905090565b600067ffffffffffffffff821115610398576103976104da565b5b6103a18261051d565b9050602081019050919050565b600081519050919050565b600082825260208201905092915050565b60006103d5826103dc565b9050919050565b600073ffffffffffffffffffffffffffffffffffffffff82169050919050565b6000819050919050565b82818337600083830152505050565b60005b83811015610433578082015181840152602081019050610418565b83811115610442576000848401525b50505050565b6000600282049050600182168061046057607f821691505b60208210811415610474576104736104ab565b5b50919050565b6104838261051d565b810181811067ffffffffffffffff821117156104a2576104a16104da565b5b80604052505050565b7f4e487b7100000000000000000000000000000000000000000000000000000000600052602260045260246000fd5b7f4e487b7100000000000000000000000000000000000000000000000000000000600052604160045260246000fd5b600080fd5b600080fd5b600080fd5b600080fd5b6000601f19601f8301169050919050565b610537816103ca565b811461054257600080fd5b50565b61054e816103fc565b811461055957600080fd5b5056fea2646970667358221220b53304a257610b9aab805ad801d866292f46e87c3da02dd81d4a9b0a1f46995964736f6c63430008070033",
					"opcodes": "PUSH1 0x80 PUSH1 0x40 MSTORE CALLVALUE DUP1 ISZERO PUSH2 0x10 JUMPI PUSH1 0x0 DUP1 REVERT JUMPDEST POP PUSH2 0x592 DUP1 PUSH2 0x20 PUSH1 0x0 CODECOPY PUSH1 0x0 RETURN INVALID PUSH1 0x80 PUSH1 0x40 MSTORE CALLVALUE DUP1 ISZERO PUSH2 0x10 JUMPI PUSH1 0x0 DUP1 REVERT JUMPDEST POP PUSH1 0x4 CALLDATASIZE LT PUSH2 0x36 JUMPI PUSH1 0x0 CALLDATALOAD PUSH1 0xE0 SHR DUP1 PUSH4 0xDBE671F EQ PUSH2 0x3B JUMPI DUP1 PUSH4 0xB771AF3D EQ PUSH2 0x5B JUMPI JUMPDEST PUSH1 0x0 DUP1 REVERT JUMPDEST PUSH2 0x43 PUSH2 0x77 JUMP JUMPDEST PUSH1 0x40 MLOAD PUSH2 0x52 SWAP4 SWAP3 SWAP2 SWAP1 PUSH2 0x31A JUMP JUMPDEST PUSH1 0x40 MLOAD DUP1 SWAP2 SUB SWAP1 RETURN JUMPDEST PUSH2 0x75 PUSH1 0x4 DUP1 CALLDATASIZE SUB DUP2 ADD SWAP1 PUSH2 0x70 SWAP2 SWAP1 PUSH2 0x254 JUMP JUMPDEST PUSH2 0x137 JUMP JUMPDEST STOP JUMPDEST PUSH1 0x0 DUP1 PUSH1 0x0 ADD DUP1 SLOAD PUSH2 0x88 SWAP1 PUSH2 0x448 JUMP JUMPDEST DUP1 PUSH1 0x1F ADD PUSH1 0x20 DUP1 SWAP2 DIV MUL PUSH1 0x20 ADD PUSH1 0x40 MLOAD SWAP1 DUP2 ADD PUSH1 0x40 MSTORE DUP1 SWAP3 SWAP2 SWAP1 DUP2 DUP2 MSTORE PUSH1 0x20 ADD DUP3 DUP1 SLOAD PUSH2 0xB4 SWAP1 PUSH2 0x448 JUMP JUMPDEST DUP1 ISZERO PUSH2 0x101 JUMPI DUP1 PUSH1 0x1F LT PUSH2 0xD6 JUMPI PUSH2 0x100 DUP1 DUP4 SLOAD DIV MUL DUP4 MSTORE SWAP2 PUSH1 0x20 ADD SWAP2 PUSH2 0x101 JUMP JUMPDEST DUP3 ADD SWAP2 SWAP1 PUSH1 0x0 MSTORE PUSH1 0x20 PUSH1 0x0 KECCAK256 SWAP1 JUMPDEST DUP2 SLOAD DUP2 MSTORE SWAP1 PUSH1 0x1 ADD SWAP1 PUSH1 0x20 ADD DUP1 DUP4 GT PUSH2 0xE4 JUMPI DUP3 SWAP1 SUB PUSH1 0x1F AND DUP3 ADD SWAP2 JUMPDEST POP POP POP POP POP SWAP1 DUP1 PUSH1 0x1 ADD SLOAD SWAP1 DUP1 PUSH1 0x2 ADD PUSH1 0x0 SWAP1 SLOAD SWAP1 PUSH2 0x100 EXP SWAP1 DIV PUSH20 0xFFFFFFFFFFFFFFFFFFFFFFFFFFFFFFFFFFFFFFFF AND SWAP1 POP DUP4 JUMP JUMPDEST PUSH2 0x13F PUSH2 0x183 JUMP JUMPDEST PUSH1 0x40 MLOAD DUP1 PUSH1 0x40 ADD PUSH1 0x40 MSTORE DUP1 PUSH1 0x2 DUP2 MSTORE PUSH1 0x20 ADD PUSH32 0x726A000000000000000000000000000000000000000000000000000000000000 DUP2 MSTORE POP DUP2 PUSH1 0x0 ADD DUP2 SWAP1 MSTORE POP POP POP POP POP JUMP JUMPDEST PUSH1 0x40 MLOAD DUP1 PUSH1 0x60 ADD PUSH1 0x40 MSTORE DUP1 PUSH1 0x60 DUP2 MSTORE PUSH1 0x20 ADD PUSH1 0x0 DUP2 MSTORE PUSH1 0x20 ADD PUSH1 0x0 PUSH20 0xFFFFFFFFFFFFFFFFFFFFFFFFFFFFFFFFFFFFFFFF AND DUP2 MSTORE POP SWAP1 JUMP JUMPDEST PUSH1 0x0 PUSH2 0x1CD PUSH2 0x1C8 DUP5 PUSH2 0x37D JUMP JUMPDEST PUSH2 0x358 JUMP JUMPDEST SWAP1 POP DUP3 DUP2 MSTORE PUSH1 0x20 DUP2 ADD DUP5 DUP5 DUP5 ADD GT ISZERO PUSH2 0x1E9 JUMPI PUSH2 0x1E8 PUSH2 0x50E JUMP JUMPDEST JUMPDEST PUSH2 0x1F4 DUP5 DUP3 DUP6 PUSH2 0x406 JUMP JUMPDEST POP SWAP4 SWAP3 POP POP POP JUMP JUMPDEST PUSH1 0x0 DUP2 CALLDATALOAD SWAP1 POP PUSH2 0x20B DUP2 PUSH2 0x52E JUMP JUMPDEST SWAP3 SWAP2 POP POP JUMP JUMPDEST PUSH1 0x0 DUP3 PUSH1 0x1F DUP4 ADD SLT PUSH2 0x226 JUMPI PUSH2 0x225 PUSH2 0x509 JUMP JUMPDEST JUMPDEST DUP2 CALLDATALOAD PUSH2 0x236 DUP5 DUP3 PUSH1 0x20 DUP7 ADD PUSH2 0x1BA JUMP JUMPDEST SWAP2 POP POP SWAP3 SWAP2 POP POP JUMP JUMPDEST PUSH1 0x0 DUP2 CALLDATALOAD SWAP1 POP PUSH2 0x24E DUP2 PUSH2 0x545 JUMP JUMPDEST SWAP3 SWAP2 POP POP JUMP JUMPDEST PUSH1 0x0 DUP1 PUSH1 0x0 PUSH1 0x60 DUP5 DUP7 SUB SLT ISZERO PUSH2 0x26D JUMPI PUSH2 0x26C PUSH2 0x518 JUMP JUMPDEST JUMPDEST PUSH1 0x0 DUP5 ADD CALLDATALOAD PUSH8 0xFFFFFFFFFFFFFFFF DUP2 GT ISZERO PUSH2 0x28B JUMPI PUSH2 0x28A PUSH2 0x513 JUMP JUMPDEST JUMPDEST PUSH2 0x297 DUP7 DUP3 DUP8 ADD PUSH2 0x211 JUMP JUMPDEST SWAP4 POP POP PUSH1 0x20 PUSH2 0x2A8 DUP7 DUP3 DUP8 ADD PUSH2 0x23F JUMP JUMPDEST SWAP3 POP POP PUSH1 0x40 PUSH2 0x2B9 DUP7 DUP3 DUP8 ADD PUSH2 0x1FC JUMP JUMPDEST SWAP2 POP POP SWAP3 POP SWAP3 POP SWAP3 JUMP JUMPDEST PUSH2 0x2CC DUP2 PUSH2 0x3CA JUMP JUMPDEST DUP3 MSTORE POP POP JUMP JUMPDEST PUSH1 0x0 PUSH2 0x2DD DUP3 PUSH2 0x3AE JUMP JUMPDEST PUSH2 0x2E7 DUP2 DUP6 PUSH2 0x3B9 JUMP JUMPDEST SWAP4 POP PUSH2 0x2F7 DUP2 DUP6 PUSH1 0x20 DUP7 ADD PUSH2 0x415 JUMP JUMPDEST PUSH2 0x300 DUP2 PUSH2 0x51D JUMP JUMPDEST DUP5 ADD SWAP2 POP POP SWAP3 SWAP2 POP POP JUMP JUMPDEST PUSH2 0x314 DUP2 PUSH2 0x3FC JUMP JUMPDEST DUP3 MSTORE POP POP JUMP JUMPDEST PUSH1 0x0 PUSH1 0x60 DUP3 ADD SWAP1 POP DUP2 DUP2 SUB PUSH1 0x0 DUP4 ADD MSTORE PUSH2 0x334 DUP2 DUP7 PUSH2 0x2D2 JUMP JUMPDEST SWAP1 POP PUSH2 0x343 PUSH1 0x20 DUP4 ADD DUP6 PUSH2 0x30B JUMP JUMPDEST PUSH2 0x350 PUSH1 0x40 DUP4 ADD DUP5 PUSH2 0x2C3 JUMP JUMPDEST SWAP5 SWAP4 POP POP POP POP JUMP JUMPDEST PUSH1 0x0 PUSH2 0x362 PUSH2 0x373 JUMP JUMPDEST SWAP1 POP PUSH2 0x36E DUP3 DUP3 PUSH2 0x47A JUMP JUMPDEST SWAP2 SWAP1 POP JUMP JUMPDEST PUSH1 0x0 PUSH1 0x40 MLOAD SWAP1 POP SWAP1 JUMP JUMPDEST PUSH1 0x0 PUSH8 0xFFFFFFFFFFFFFFFF DUP3 GT ISZERO PUSH2 0x398 JUMPI PUSH2 0x397 PUSH2 0x4DA JUMP JUMPDEST JUMPDEST PUSH2 0x3A1 DUP3 PUSH2 0x51D JUMP JUMPDEST SWAP1 POP PUSH1 0x20 DUP2 ADD SWAP1 POP SWAP2 SWAP1 POP JUMP JUMPDEST PUSH1 0x0 DUP2 MLOAD SWAP1 POP SWAP2 SWAP1 POP JUMP JUMPDEST PUSH1 0x0 DUP3 DUP3 MSTORE PUSH1 0x20 DUP3 ADD SWAP1 POP SWAP3 SWAP2 POP POP JUMP JUMPDEST PUSH1 0x0 PUSH2 0x3D5 DUP3 PUSH2 0x3DC JUMP JUMPDEST SWAP1 POP SWAP2 SWAP1 POP JUMP JUMPDEST PUSH1 0x0 PUSH20 0xFFFFFFFFFFFFFFFFFFFFFFFFFFFFFFFFFFFFFFFF DUP3 AND SWAP1 POP SWAP2 SWAP1 POP JUMP JUMPDEST PUSH1 0x0 DUP2 SWAP1 POP SWAP2 SWAP1 POP JUMP JUMPDEST DUP3 DUP2 DUP4 CALLDATACOPY PUSH1 0x0 DUP4 DUP4 ADD MSTORE POP POP POP JUMP JUMPDEST PUSH1 0x0 JUMPDEST DUP4 DUP2 LT ISZERO PUSH2 0x433 JUMPI DUP1 DUP3 ADD MLOAD DUP2 DUP5 ADD MSTORE PUSH1 0x20 DUP2 ADD SWAP1 POP PUSH2 0x418 JUMP JUMPDEST DUP4 DUP2 GT ISZERO PUSH2 0x442 JUMPI PUSH1 0x0 DUP5 DUP5 ADD MSTORE JUMPDEST POP POP POP POP JUMP JUMPDEST PUSH1 0x0 PUSH1 0x2 DUP3 DIV SWAP1 POP PUSH1 0x1 DUP3 AND DUP1 PUSH2 0x460 JUMPI PUSH1 0x7F DUP3 AND SWAP2 POP JUMPDEST PUSH1 0x20 DUP3 LT DUP2 EQ ISZERO PUSH2 0x474 JUMPI PUSH2 0x473 PUSH2 0x4AB JUMP JUMPDEST JUMPDEST POP SWAP2 SWAP1 POP JUMP JUMPDEST PUSH2 0x483 DUP3 PUSH2 0x51D JUMP JUMPDEST DUP2 ADD DUP2 DUP2 LT PUSH8 0xFFFFFFFFFFFFFFFF DUP3 GT OR ISZERO PUSH2 0x4A2 JUMPI PUSH2 0x4A1 PUSH2 0x4DA JUMP JUMPDEST JUMPDEST DUP1 PUSH1 0x40 MSTORE POP POP POP JUMP JUMPDEST PUSH32 0x4E487B7100000000000000000000000000000000000000000000000000000000 PUSH1 0x0 MSTORE PUSH1 0x22 PUSH1 0x4 MSTORE PUSH1 0x24 PUSH1 0x0 REVERT JUMPDEST PUSH32 0x4E487B7100000000000000000000000000000000000000000000000000000000 PUSH1 0x0 MSTORE PUSH1 0x41 PUSH1 0x4 MSTORE PUSH1 0x24 PUSH1 0x0 REVERT JUMPDEST PUSH1 0x0 DUP1 REVERT JUMPDEST PUSH1 0x0 DUP1 REVERT JUMPDEST PUSH1 0x0 DUP1 REVERT JUMPDEST PUSH1 0x0 DUP1 REVERT JUMPDEST PUSH1 0x0 PUSH1 0x1F NOT PUSH1 0x1F DUP4 ADD AND SWAP1 POP SWAP2 SWAP1 POP JUMP JUMPDEST PUSH2 0x537 DUP2 PUSH2 0x3CA JUMP JUMPDEST DUP2 EQ PUSH2 0x542 JUMPI PUSH1 0x0 DUP1 REVERT JUMPDEST POP JUMP JUMPDEST PUSH2 0x54E DUP2 PUSH2 0x3FC JUMP JUMPDEST DUP2 EQ PUSH2 0x559 JUMPI PUSH1 0x0 DUP1 REVERT JUMPDEST POP JUMP INVALID LOG2 PUSH5 0x6970667358 0x22 SLT KECCAK256 0xB5 CALLER DIV LOG2 JUMPI PUSH2 0xB9A 0xAB DUP1 GAS 0xD8 ADD 0xD8 PUSH7 0x292F46E87C3DA0 0x2D 0xD8 SAR 0x4A SWAP12 EXP 0x1F CHAINID SWAP10 MSIZE PUSH5 0x736F6C6343 STOP ADDMOD SMOD STOP CALLER "
				},
				"gasEstimates": {
					"creation": {
						"codeDepositCost": "285200",
						"executionCost": "324",
						"totalCost": "285524"
					},
					"external": {
						"a()": "infinite",
						"setValue(string,uint256,address)": "infinite"
					}
				},
				"methodIdentifiers": {
					"a()": "0dbe671f",
					"setValue(string,uint256,address)": "b771af3d"
				}
			},
			"storageLayout": {
				"storage": [
					{
						"astId": 11,
						"contract": "structure.sol:structure",
						"label": "a",
						"offset": 0,
						"slot": "0",
						"type": "t_struct(myDT)8_storage"
					}
				],
				"types": {
					"t_address": {
						"encoding": "inplace",
						"label": "address",
						"numberOfBytes": "20"
					},
					"t_string_storage": {
						"encoding": "bytes",
						"label": "string",
						"numberOfBytes": "32"
					},
					"t_struct(myDT)8_storage": {
						"encoding": "inplace",
						"label": "struct structure.myDT",
						"members": [
							{
								"astId": 3,
								"contract": "structure.sol:structure",
								"label": "name",
								"offset": 0,
								"slot": "0",
								"type": "t_string_storage"
							},
							{
								"astId": 5,
								"contract": "structure.sol:structure",
								"label": "age",
								"offset": 0,
								"slot": "1",
								"type": "t_uint256"
							},
							{
								"astId": 7,
								"contract": "structure.sol:structure",
								"label": "acc",
								"offset": 0,
								"slot": "2",
								"type": "t_address"
							}
						],
						"numberOfBytes": "96"
					},
					"t_uint256": {
						"encoding": "inplace",
						"label": "uint256",
						"numberOfBytes": "32"
					}
				}
			},
			"userdoc": {
				"kind": "user",
				"methods": {},
				"version": 1
			}
		}
	}
}