{
	"structure.sol": {
		"structure": {
			"abi": [
				{
					"inputs": [],
					"name": "a",
					"outputs": [
						{
							"internalType": "string",
							"name": "name",
							"type": "string"
						},
						{
							"internalType": "uint256",
							"name": "age",
							"type": "uint256"
						},
						{
							"internalType": "address",
							"name": "acc",
							"type": "address"
						}
					],
					"stateMutability": "view",
					"type": "function"
				},
				{
					"inputs": [],
					"name": "setValue",
					"outputs": [],
					"stateMutability": "pure",
					"type": "function"
				}
			],
			"devdoc": {
				"kind": "dev",
				"methods": {},
				"version": 1
			},
			"evm": {
				"assembly": "    /* \"structure.sol\":58:351  contract structure{... */\n  mstore(0x40, 0x80)\n  callvalue\n  dup1\n  iszero\n  tag_1\n  jumpi\n  0x00\n  dup1\n  revert\ntag_1:\n  pop\n  dataSize(sub_0)\n  dup1\n  dataOffset(sub_0)\n  0x00\n  codecopy\n  0x00\n  return\nstop\n\nsub_0: assembly {\n        /* \"structure.sol\":58:351  contract structure{... */\n      mstore(0x40, 0x80)\n      callvalue\n      dup1\n      iszero\n      tag_1\n      jumpi\n      0x00\n      dup1\n      revert\n    tag_1:\n      pop\n      jumpi(tag_2, lt(calldatasize, 0x04))\n      shr(0xe0, calldataload(0x00))\n      dup1\n      0x0dbe671f\n      eq\n      tag_3\n      jumpi\n      dup1\n      0x4fa519fa\n      eq\n      tag_4\n      jumpi\n    tag_2:\n      0x00\n      dup1\n      revert\n        /* \"structure.sol\":166:179  myDT public a */\n    tag_3:\n      tag_5\n      tag_6\n      jump\t// in\n    tag_5:\n      mload(0x40)\n      tag_7\n      swap4\n      swap3\n      swap2\n      swap1\n      tag_8\n      jump\t// in\n    tag_7:\n      mload(0x40)\n      dup1\n      swap2\n      sub\n      swap1\n      return\n        /* \"structure.sol\":185:348  function setValue()pure public... */\n    tag_4:\n      tag_9\n      tag_10\n      jump\t// in\n    tag_9:\n      stop\n        /* \"structure.sol\":166:179  myDT public a */\n    tag_6:\n      0x00\n      dup1\n      0x00\n      add\n      dup1\n      sload\n      tag_11\n      swap1\n      tag_12\n      jump\t// in\n    tag_11:\n      dup1\n      0x1f\n      add\n      0x20\n      dup1\n      swap2\n      div\n      mul\n      0x20\n      add\n      mload(0x40)\n      swap1\n      dup2\n      add\n      0x40\n      mstore\n      dup1\n      swap3\n      swap2\n      swap1\n      dup2\n      dup2\n      mstore\n      0x20\n      add\n      dup3\n      dup1\n      sload\n      tag_13\n      swap1\n      tag_12\n      jump\t// in\n    tag_13:\n      dup1\n      iszero\n      tag_14\n      jumpi\n      dup1\n      0x1f\n      lt\n      tag_15\n      jumpi\n      0x0100\n      dup1\n      dup4\n      sload\n      div\n      mul\n      dup4\n      mstore\n      swap2\n      0x20\n      add\n      swap2\n      jump(tag_14)\n    tag_15:\n      dup3\n      add\n      swap2\n      swap1\n      0x00\n      mstore\n      keccak256(0x00, 0x20)\n      swap1\n    tag_16:\n      dup2\n      sload\n      dup2\n      mstore\n      swap1\n      0x01\n      add\n      swap1\n      0x20\n      add\n      dup1\n      dup4\n      gt\n      tag_16\n      jumpi\n      dup3\n      swap1\n      sub\n      0x1f\n      and\n      dup3\n      add\n      swap2\n    tag_14:\n      pop\n      pop\n      pop\n      pop\n      pop\n      swap1\n      dup1\n      0x01\n      add\n      sload\n      swap1\n      dup1\n      0x02\n      add\n      0x00\n      swap1\n      sload\n      swap1\n      0x0100\n      exp\n      swap1\n      div\n      0xffffffffffffffffffffffffffffffffffffffff\n      and\n      swap1\n      pop\n      dup4\n      jump\t// out\n        /* \"structure.sol\":185:348  function setValue()pure public... */\n    tag_10:\n        /* \"structure.sol\":228:241  myDT memory b */\n      tag_18\n      tag_19\n      jump\t// in\n    tag_18:\n        /* \"structure.sol\":249:262  b.name = \"rj\" */\n      mload(0x40)\n      dup1\n      0x40\n      add\n      0x40\n      mstore\n      dup1\n      0x02\n      dup2\n      mstore\n      0x20\n      add\n      0x726a000000000000000000000000000000000000000000000000000000000000\n      dup2\n      mstore\n      pop\n        /* \"structure.sol\":249:250  b */\n      dup2\n        /* \"structure.sol\":249:255  b.name */\n      0x00\n      add\n        /* \"structure.sol\":249:262  b.name = \"rj\" */\n      dup2\n      swap1\n      mstore\n      pop\n        /* \"structure.sol\":276:278  22 */\n      0x16\n        /* \"structure.sol\":270:271  b */\n      dup2\n        /* \"structure.sol\":270:275  b.age */\n      0x20\n      add\n        /* \"structure.sol\":270:278  b.age=22 */\n      dup2\n      dup2\n      mstore\n      pop\n      pop\n        /* \"structure.sol\":292:334  0x5B38Da6a701c568545dCfcB03FcB875f56beddC4 */\n      0x5b38da6a701c568545dcfcb03fcb875f56beddc4\n        /* \"structure.sol\":286:287  b */\n      dup2\n        /* \"structure.sol\":286:291  b.acc */\n      0x40\n      add\n        /* \"structure.sol\":286:334  b.acc=0x5B38Da6a701c568545dCfcB03FcB875f56beddC4 */\n      swap1\n      0xffffffffffffffffffffffffffffffffffffffff\n      and\n      swap1\n      dup2\n      0xffffffffffffffffffffffffffffffffffffffff\n      and\n      dup2\n      mstore\n      pop\n      pop\n        /* \"structure.sol\":220:348  {... */\n      pop\n        /* \"structure.sol\":185:348  function setValue()pure public... */\n      jump\t// out\n    tag_19:\n      mload(0x40)\n      dup1\n      0x60\n      add\n      0x40\n      mstore\n      dup1\n      0x60\n      dup2\n      mstore\n      0x20\n      add\n      0x00\n      dup2\n      mstore\n      0x20\n      add\n      and(0xffffffffffffffffffffffffffffffffffffffff, 0x00)\n      dup2\n      mstore\n      pop\n      swap1\n      jump\t// out\n        /* \"#utility.yul\":7:125   */\n    tag_21:\n        /* \"#utility.yul\":94:118   */\n      tag_23\n        /* \"#utility.yul\":112:117   */\n      dup2\n        /* \"#utility.yul\":94:118   */\n      tag_24\n      jump\t// in\n    tag_23:\n        /* \"#utility.yul\":89:92   */\n      dup3\n        /* \"#utility.yul\":82:119   */\n      mstore\n        /* \"#utility.yul\":7:125   */\n      pop\n      pop\n      jump\t// out\n        /* \"#utility.yul\":131:495   */\n    tag_25:\n        /* \"#utility.yul\":219:222   */\n      0x00\n        /* \"#utility.yul\":247:286   */\n      tag_27\n        /* \"#utility.yul\":280:285   */\n      dup3\n        /* \"#utility.yul\":247:286   */\n      tag_28\n      jump\t// in\n    tag_27:\n        /* \"#utility.yul\":302:373   */\n      tag_29\n        /* \"#utility.yul\":366:372   */\n      dup2\n        /* \"#utility.yul\":361:364   */\n      dup6\n        /* \"#utility.yul\":302:373   */\n      tag_30\n      jump\t// in\n    tag_29:\n        /* \"#utility.yul\":295:373   */\n      swap4\n      pop\n        /* \"#utility.yul\":382:434   */\n      tag_31\n        /* \"#utility.yul\":427:433   */\n      dup2\n        /* \"#utility.yul\":422:425   */\n      dup6\n        /* \"#utility.yul\":415:419   */\n      0x20\n        /* \"#utility.yul\":408:413   */\n      dup7\n        /* \"#utility.yul\":404:420   */\n      add\n        /* \"#utility.yul\":382:434   */\n      tag_32\n      jump\t// in\n    tag_31:\n        /* \"#utility.yul\":459:488   */\n      tag_33\n        /* \"#utility.yul\":481:487   */\n      dup2\n        /* \"#utility.yul\":459:488   */\n      tag_34\n      jump\t// in\n    tag_33:\n        /* \"#utility.yul\":454:457   */\n      dup5\n        /* \"#utility.yul\":450:489   */\n      add\n        /* \"#utility.yul\":443:489   */\n      swap2\n      pop\n        /* \"#utility.yul\":223:495   */\n      pop\n        /* \"#utility.yul\":131:495   */\n      swap3\n      swap2\n      pop\n      pop\n      jump\t// out\n        /* \"#utility.yul\":501:619   */\n    tag_35:\n        /* \"#utility.yul\":588:612   */\n      tag_37\n        /* \"#utility.yul\":606:611   */\n      dup2\n        /* \"#utility.yul\":588:612   */\n      tag_38\n      jump\t// in\n    tag_37:\n        /* \"#utility.yul\":583:586   */\n      dup3\n        /* \"#utility.yul\":576:613   */\n      mstore\n        /* \"#utility.yul\":501:619   */\n      pop\n      pop\n      jump\t// out\n        /* \"#utility.yul\":625:1158   */\n    tag_8:\n        /* \"#utility.yul\":794:798   */\n      0x00\n        /* \"#utility.yul\":832:834   */\n      0x60\n        /* \"#utility.yul\":821:830   */\n      dup3\n        /* \"#utility.yul\":817:835   */\n      add\n        /* \"#utility.yul\":809:835   */\n      swap1\n      pop\n        /* \"#utility.yul\":881:890   */\n      dup2\n        /* \"#utility.yul\":875:879   */\n      dup2\n        /* \"#utility.yul\":871:891   */\n      sub\n        /* \"#utility.yul\":867:868   */\n      0x00\n        /* \"#utility.yul\":856:865   */\n      dup4\n        /* \"#utility.yul\":852:869   */\n      add\n        /* \"#utility.yul\":845:892   */\n      mstore\n        /* \"#utility.yul\":909:987   */\n      tag_40\n        /* \"#utility.yul\":982:986   */\n      dup2\n        /* \"#utility.yul\":973:979   */\n      dup7\n        /* \"#utility.yul\":909:987   */\n      tag_25\n      jump\t// in\n    tag_40:\n        /* \"#utility.yul\":901:987   */\n      swap1\n      pop\n        /* \"#utility.yul\":997:1069   */\n      tag_41\n        /* \"#utility.yul\":1065:1067   */\n      0x20\n        /* \"#utility.yul\":1054:1063   */\n      dup4\n        /* \"#utility.yul\":1050:1068   */\n      add\n        /* \"#utility.yul\":1041:1047   */\n      dup6\n        /* \"#utility.yul\":997:1069   */\n      tag_35\n      jump\t// in\n    tag_41:\n        /* \"#utility.yul\":1079:1151   */\n      tag_42\n        /* \"#utility.yul\":1147:1149   */\n      0x40\n        /* \"#utility.yul\":1136:1145   */\n      dup4\n        /* \"#utility.yul\":1132:1150   */\n      add\n        /* \"#utility.yul\":1123:1129   */\n      dup5\n        /* \"#utility.yul\":1079:1151   */\n      tag_21\n      jump\t// in\n    tag_42:\n        /* \"#utility.yul\":625:1158   */\n      swap5\n      swap4\n      pop\n      pop\n      pop\n      pop\n      jump\t// out\n        /* \"#utility.yul\":1164:1263   */\n    tag_28:\n        /* \"#utility.yul\":1216:1222   */\n      0x00\n        /* \"#utility.yul\":1250:1255   */\n      dup2\n        /* \"#utility.yul\":1244:1256   */\n      mload\n        /* \"#utility.yul\":1234:1256   */\n      swap1\n      pop\n        /* \"#utility.yul\":1164:1263   */\n      swap2\n      swap1\n      pop\n      jump\t// out\n        /* \"#utility.yul\":1269:1438   */\n    tag_30:\n        /* \"#utility.yul\":1353:1364   */\n      0x00\n        /* \"#utility.yul\":1387:1393   */\n      dup3\n        /* \"#utility.yul\":1382:1385   */\n      dup3\n        /* \"#utility.yul\":1375:1394   */\n      mstore\n        /* \"#utility.yul\":1427:1431   */\n      0x20\n        /* \"#utility.yul\":1422:1425   */\n      dup3\n        /* \"#utility.yul\":1418:1432   */\n      add\n        /* \"#utility.yul\":1403:1432   */\n      swap1\n      pop\n        /* \"#utility.yul\":1269:1438   */\n      swap3\n      swap2\n      pop\n      pop\n      jump\t// out\n        /* \"#utility.yul\":1444:1540   */\n    tag_24:\n        /* \"#utility.yul\":1481:1488   */\n      0x00\n        /* \"#utility.yul\":1510:1534   */\n      tag_46\n        /* \"#utility.yul\":1528:1533   */\n      dup3\n        /* \"#utility.yul\":1510:1534   */\n      tag_47\n      jump\t// in\n    tag_46:\n        /* \"#utility.yul\":1499:1534   */\n      swap1\n      pop\n        /* \"#utility.yul\":1444:1540   */\n      swap2\n      swap1\n      pop\n      jump\t// out\n        /* \"#utility.yul\":1546:1672   */\n    tag_47:\n        /* \"#utility.yul\":1583:1590   */\n      0x00\n        /* \"#utility.yul\":1623:1665   */\n      0xffffffffffffffffffffffffffffffffffffffff\n        /* \"#utility.yul\":1616:1621   */\n      dup3\n        /* \"#utility.yul\":1612:1666   */\n      and\n        /* \"#utility.yul\":1601:1666   */\n      swap1\n      pop\n        /* \"#utility.yul\":1546:1672   */\n      swap2\n      swap1\n      pop\n      jump\t// out\n        /* \"#utility.yul\":1678:1755   */\n    tag_38:\n        /* \"#utility.yul\":1715:1722   */\n      0x00\n        /* \"#utility.yul\":1744:1749   */\n      dup2\n        /* \"#utility.yul\":1733:1749   */\n      swap1\n      pop\n        /* \"#utility.yul\":1678:1755   */\n      swap2\n      swap1\n      pop\n      jump\t// out\n        /* \"#utility.yul\":1761:2068   */\n    tag_32:\n        /* \"#utility.yul\":1829:1830   */\n      0x00\n        /* \"#utility.yul\":1839:1952   */\n    tag_51:\n        /* \"#utility.yul\":1853:1859   */\n      dup4\n        /* \"#utility.yul\":1850:1851   */\n      dup2\n        /* \"#utility.yul\":1847:1860   */\n      lt\n        /* \"#utility.yul\":1839:1952   */\n      iszero\n      tag_53\n      jumpi\n        /* \"#utility.yul\":1938:1939   */\n      dup1\n        /* \"#utility.yul\":1933:1936   */\n      dup3\n        /* \"#utility.yul\":1929:1940   */\n      add\n        /* \"#utility.yul\":1923:1941   */\n      mload\n        /* \"#utility.yul\":1919:1920   */\n      dup2\n        /* \"#utility.yul\":1914:1917   */\n      dup5\n        /* \"#utility.yul\":1910:1921   */\n      add\n        /* \"#utility.yul\":1903:1942   */\n      mstore\n        /* \"#utility.yul\":1875:1877   */\n      0x20\n        /* \"#utility.yul\":1872:1873   */\n      dup2\n        /* \"#utility.yul\":1868:1878   */\n      add\n        /* \"#utility.yul\":1863:1878   */\n      swap1\n      pop\n        /* \"#utility.yul\":1839:1952   */\n      jump(tag_51)\n    tag_53:\n        /* \"#utility.yul\":1970:1976   */\n      dup4\n        /* \"#utility.yul\":1967:1968   */\n      dup2\n        /* \"#utility.yul\":1964:1977   */\n      gt\n        /* \"#utility.yul\":1961:2062   */\n      iszero\n      tag_54\n      jumpi\n        /* \"#utility.yul\":2050:2051   */\n      0x00\n        /* \"#utility.yul\":2041:2047   */\n      dup5\n        /* \"#utility.yul\":2036:2039   */\n      dup5\n        /* \"#utility.yul\":2032:2048   */\n      add\n        /* \"#utility.yul\":2025:2052   */\n      mstore\n        /* \"#utility.yul\":1961:2062   */\n    tag_54:\n        /* \"#utility.yul\":1810:2068   */\n      pop\n        /* \"#utility.yul\":1761:2068   */\n      pop\n      pop\n      pop\n      jump\t// out\n        /* \"#utility.yul\":2074:2394   */\n    tag_12:\n        /* \"#utility.yul\":2118:2124   */\n      0x00\n        /* \"#utility.yul\":2155:2156   */\n      0x02\n        /* \"#utility.yul\":2149:2153   */\n      dup3\n        /* \"#utility.yul\":2145:2157   */\n      div\n        /* \"#utility.yul\":2135:2157   */\n      swap1\n      pop\n        /* \"#utility.yul\":2202:2203   */\n      0x01\n        /* \"#utility.yul\":2196:2200   */\n      dup3\n        /* \"#utility.yul\":2192:2204   */\n      and\n        /* \"#utility.yul\":2223:2241   */\n      dup1\n        /* \"#utility.yul\":2213:2294   */\n      tag_56\n      jumpi\n        /* \"#utility.yul\":2279:2283   */\n      0x7f\n        /* \"#utility.yul\":2271:2277   */\n      dup3\n        /* \"#utility.yul\":2267:2284   */\n      and\n        /* \"#utility.yul\":2257:2284   */\n      swap2\n      pop\n        /* \"#utility.yul\":2213:2294   */\n    tag_56:\n        /* \"#utility.yul\":2341:2343   */\n      0x20\n        /* \"#utility.yul\":2333:2339   */\n      dup3\n        /* \"#utility.yul\":2330:2344   */\n      lt\n        /* \"#utility.yul\":2310:2328   */\n      dup2\n        /* \"#utility.yul\":2307:2345   */\n      eq\n        /* \"#utility.yul\":2304:2388   */\n      iszero\n      tag_57\n      jumpi\n        /* \"#utility.yul\":2360:2378   */\n      tag_58\n      tag_59\n      jump\t// in\n    tag_58:\n        /* \"#utility.yul\":2304:2388   */\n    tag_57:\n        /* \"#utility.yul\":2125:2394   */\n      pop\n        /* \"#utility.yul\":2074:2394   */\n      swap2\n      swap1\n      pop\n      jump\t// out\n        /* \"#utility.yul\":2400:2580   */\n    tag_59:\n        /* \"#utility.yul\":2448:2525   */\n      0x4e487b7100000000000000000000000000000000000000000000000000000000\n        /* \"#utility.yul\":2445:2446   */\n      0x00\n        /* \"#utility.yul\":2438:2526   */\n      mstore\n        /* \"#utility.yul\":2545:2549   */\n      0x22\n        /* \"#utility.yul\":2542:2543   */\n      0x04\n        /* \"#utility.yul\":2535:2550   */\n      mstore\n        /* \"#utility.yul\":2569:2573   */\n      0x24\n        /* \"#utility.yul\":2566:2567   */\n      0x00\n        /* \"#utility.yul\":2559:2574   */\n      revert\n        /* \"#utility.yul\":2586:2688   */\n    tag_34:\n        /* \"#utility.yul\":2627:2633   */\n      0x00\n        /* \"#utility.yul\":2678:2680   */\n      0x1f\n        /* \"#utility.yul\":2674:2681   */\n      not\n        /* \"#utility.yul\":2669:2671   */\n      0x1f\n        /* \"#utility.yul\":2662:2667   */\n      dup4\n        /* \"#utility.yul\":2658:2672   */\n      add\n        /* \"#utility.yul\":2654:2682   */\n      and\n        /* \"#utility.yul\":2644:2682   */\n      swap1\n      pop\n        /* \"#utility.yul\":2586:2688   */\n      swap2\n      swap1\n      pop\n      jump\t// out\n\n    auxdata: 0xa2646970667358221220d0f80b5c744b7fe953fbde7b8417e2e4f30f49077563a550b7b6abc93efc8d4d64736f6c63430008070033\n}\n",
				"bytecode": {
					"linkReferences": {},
					"object": "608060405234801561001057600080fd5b506103c4806100206000396000f3fe608060405234801561001057600080fd5b50600436106100365760003560e01c80630dbe671f1461003b5780634fa519fa1461005b575b600080fd5b610043610065565b60405161005293929190610253565b60405180910390f35b610063610125565b005b60008060000180546100769061031c565b80601f01602080910402602001604051908101604052809291908181526020018280546100a29061031c565b80156100ef5780601f106100c4576101008083540402835291602001916100ef565b820191906000526020600020905b8154815290600101906020018083116100d257829003601f168201915b5050505050908060010154908060020160009054906101000a900473ffffffffffffffffffffffffffffffffffffffff16905083565b61012d6101c5565b6040518060400160405280600281526020017f726a00000000000000000000000000000000000000000000000000000000000081525081600001819052506016816020018181525050735b38da6a701c568545dcfcb03fcb875f56beddc4816040019073ffffffffffffffffffffffffffffffffffffffff16908173ffffffffffffffffffffffffffffffffffffffff168152505050565b60405180606001604052806060815260200160008152602001600073ffffffffffffffffffffffffffffffffffffffff1681525090565b610205816102ad565b82525050565b600061021682610291565b610220818561029c565b93506102308185602086016102e9565b6102398161037d565b840191505092915050565b61024d816102df565b82525050565b6000606082019050818103600083015261026d818661020b565b905061027c6020830185610244565b61028960408301846101fc565b949350505050565b600081519050919050565b600082825260208201905092915050565b60006102b8826102bf565b9050919050565b600073ffffffffffffffffffffffffffffffffffffffff82169050919050565b6000819050919050565b60005b838110156103075780820151818401526020810190506102ec565b83811115610316576000848401525b50505050565b6000600282049050600182168061033457607f821691505b602082108114156103485761034761034e565b5b50919050565b7f4e487b7100000000000000000000000000000000000000000000000000000000600052602260045260246000fd5b6000601f19601f830116905091905056fea2646970667358221220d0f80b5c744b7fe953fbde7b8417e2e4f30f49077563a550b7b6abc93efc8d4d64736f6c63430008070033",
					"opcodes": "PUSH1 0x80 PUSH1 0x40 MSTORE CALLVALUE DUP1 ISZERO PUSH2 0x10 JUMPI PUSH1 0x0 DUP1 REVERT JUMPDEST POP PUSH2 0x3C4 DUP1 PUSH2 0x20 PUSH1 0x0 CODECOPY PUSH1 0x0 RETURN INVALID PUSH1 0x80 PUSH1 0x40 MSTORE CALLVALUE DUP1 ISZERO PUSH2 0x10 JUMPI PUSH1 0x0 DUP1 REVERT JUMPDEST POP PUSH1 0x4 CALLDATASIZE LT PUSH2 0x36 JUMPI PUSH1 0x0 CALLDATALOAD PUSH1 0xE0 SHR DUP1 PUSH4 0xDBE671F EQ PUSH2 0x3B JUMPI DUP1 PUSH4 0x4FA519FA EQ PUSH2 0x5B JUMPI JUMPDEST PUSH1 0x0 DUP1 REVERT JUMPDEST PUSH2 0x43 PUSH2 0x65 JUMP JUMPDEST PUSH1 0x40 MLOAD PUSH2 0x52 SWAP4 SWAP3 SWAP2 SWAP1 PUSH2 0x253 JUMP JUMPDEST PUSH1 0x40 MLOAD DUP1 SWAP2 SUB SWAP1 RETURN JUMPDEST PUSH2 0x63 PUSH2 0x125 JUMP JUMPDEST STOP JUMPDEST PUSH1 0x0 DUP1 PUSH1 0x0 ADD DUP1 SLOAD PUSH2 0x76 SWAP1 PUSH2 0x31C JUMP JUMPDEST DUP1 PUSH1 0x1F ADD PUSH1 0x20 DUP1 SWAP2 DIV MUL PUSH1 0x20 ADD PUSH1 0x40 MLOAD SWAP1 DUP2 ADD PUSH1 0x40 MSTORE DUP1 SWAP3 SWAP2 SWAP1 DUP2 DUP2 MSTORE PUSH1 0x20 ADD DUP3 DUP1 SLOAD PUSH2 0xA2 SWAP1 PUSH2 0x31C JUMP JUMPDEST DUP1 ISZERO PUSH2 0xEF JUMPI DUP1 PUSH1 0x1F LT PUSH2 0xC4 JUMPI PUSH2 0x100 DUP1 DUP4 SLOAD DIV MUL DUP4 MSTORE SWAP2 PUSH1 0x20 ADD SWAP2 PUSH2 0xEF JUMP JUMPDEST DUP3 ADD SWAP2 SWAP1 PUSH1 0x0 MSTORE PUSH1 0x20 PUSH1 0x0 KECCAK256 SWAP1 JUMPDEST DUP2 SLOAD DUP2 MSTORE SWAP1 PUSH1 0x1 ADD SWAP1 PUSH1 0x20 ADD DUP1 DUP4 GT PUSH2 0xD2 JUMPI DUP3 SWAP1 SUB PUSH1 0x1F AND DUP3 ADD SWAP2 JUMPDEST POP POP POP POP POP SWAP1 DUP1 PUSH1 0x1 ADD SLOAD SWAP1 DUP1 PUSH1 0x2 ADD PUSH1 0x0 SWAP1 SLOAD SWAP1 PUSH2 0x100 EXP SWAP1 DIV PUSH20 0xFFFFFFFFFFFFFFFFFFFFFFFFFFFFFFFFFFFFFFFF AND SWAP1 POP DUP4 JUMP JUMPDEST PUSH2 0x12D PUSH2 0x1C5 JUMP JUMPDEST PUSH1 0x40 MLOAD DUP1 PUSH1 0x40 ADD PUSH1 0x40 MSTORE DUP1 PUSH1 0x2 DUP2 MSTORE PUSH1 0x20 ADD PUSH32 0x726A000000000000000000000000000000000000000000000000000000000000 DUP2 MSTORE POP DUP2 PUSH1 0x0 ADD DUP2 SWAP1 MSTORE POP PUSH1 0x16 DUP2 PUSH1 0x20 ADD DUP2 DUP2 MSTORE POP POP PUSH20 0x5B38DA6A701C568545DCFCB03FCB875F56BEDDC4 DUP2 PUSH1 0x40 ADD SWAP1 PUSH20 0xFFFFFFFFFFFFFFFFFFFFFFFFFFFFFFFFFFFFFFFF AND SWAP1 DUP2 PUSH20 0xFFFFFFFFFFFFFFFFFFFFFFFFFFFFFFFFFFFFFFFF AND DUP2 MSTORE POP POP POP JUMP JUMPDEST PUSH1 0x40 MLOAD DUP1 PUSH1 0x60 ADD PUSH1 0x40 MSTORE DUP1 PUSH1 0x60 DUP2 MSTORE PUSH1 0x20 ADD PUSH1 0x0 DUP2 MSTORE PUSH1 0x20 ADD PUSH1 0x0 PUSH20 0xFFFFFFFFFFFFFFFFFFFFFFFFFFFFFFFFFFFFFFFF AND DUP2 MSTORE POP SWAP1 JUMP JUMPDEST PUSH2 0x205 DUP2 PUSH2 0x2AD JUMP JUMPDEST DUP3 MSTORE POP POP JUMP JUMPDEST PUSH1 0x0 PUSH2 0x216 DUP3 PUSH2 0x291 JUMP JUMPDEST PUSH2 0x220 DUP2 DUP6 PUSH2 0x29C JUMP JUMPDEST SWAP4 POP PUSH2 0x230 DUP2 DUP6 PUSH1 0x20 DUP7 ADD PUSH2 0x2E9 JUMP JUMPDEST PUSH2 0x239 DUP2 PUSH2 0x37D JUMP JUMPDEST DUP5 ADD SWAP2 POP POP SWAP3 SWAP2 POP POP JUMP JUMPDEST PUSH2 0x24D DUP2 PUSH2 0x2DF JUMP JUMPDEST DUP3 MSTORE POP POP JUMP JUMPDEST PUSH1 0x0 PUSH1 0x60 DUP3 ADD SWAP1 POP DUP2 DUP2 SUB PUSH1 0x0 DUP4 ADD MSTORE PUSH2 0x26D DUP2 DUP7 PUSH2 0x20B JUMP JUMPDEST SWAP1 POP PUSH2 0x27C PUSH1 0x20 DUP4 ADD DUP6 PUSH2 0x244 JUMP JUMPDEST PUSH2 0x289 PUSH1 0x40 DUP4 ADD DUP5 PUSH2 0x1FC JUMP JUMPDEST SWAP5 SWAP4 POP POP POP POP JUMP JUMPDEST PUSH1 0x0 DUP2 MLOAD SWAP1 POP SWAP2 SWAP1 POP JUMP JUMPDEST PUSH1 0x0 DUP3 DUP3 MSTORE PUSH1 0x20 DUP3 ADD SWAP1 POP SWAP3 SWAP2 POP POP JUMP JUMPDEST PUSH1 0x0 PUSH2 0x2B8 DUP3 PUSH2 0x2BF JUMP JUMPDEST SWAP1 POP SWAP2 SWAP1 POP JUMP JUMPDEST PUSH1 0x0 PUSH20 0xFFFFFFFFFFFFFFFFFFFFFFFFFFFFFFFFFFFFFFFF DUP3 AND SWAP1 POP SWAP2 SWAP1 POP JUMP JUMPDEST PUSH1 0x0 DUP2 SWAP1 POP SWAP2 SWAP1 POP JUMP JUMPDEST PUSH1 0x0 JUMPDEST DUP4 DUP2 LT ISZERO PUSH2 0x307 JUMPI DUP1 DUP3 ADD MLOAD DUP2 DUP5 ADD MSTORE PUSH1 0x20 DUP2 ADD SWAP1 POP PUSH2 0x2EC JUMP JUMPDEST DUP4 DUP2 GT ISZERO PUSH2 0x316 JUMPI PUSH1 0x0 DUP5 DUP5 ADD MSTORE JUMPDEST POP POP POP POP JUMP JUMPDEST PUSH1 0x0 PUSH1 0x2 DUP3 DIV SWAP1 POP PUSH1 0x1 DUP3 AND DUP1 PUSH2 0x334 JUMPI PUSH1 0x7F DUP3 AND SWAP2 POP JUMPDEST PUSH1 0x20 DUP3 LT DUP2 EQ ISZERO PUSH2 0x348 JUMPI PUSH2 0x347 PUSH2 0x34E JUMP JUMPDEST JUMPDEST POP SWAP2 SWAP1 POP JUMP JUMPDEST PUSH32 0x4E487B7100000000000000000000000000000000000000000000000000000000 PUSH1 0x0 MSTORE PUSH1 0x22 PUSH1 0x4 MSTORE PUSH1 0x24 PUSH1 0x0 REVERT JUMPDEST PUSH1 0x0 PUSH1 0x1F NOT PUSH1 0x1F DUP4 ADD AND SWAP1 POP SWAP2 SWAP1 POP JUMP INVALID LOG2 PUSH5 0x6970667358 0x22 SLT KECCAK256 0xD0 0xF8 SIGNEXTEND 0x5C PUSH21 0x4B7FE953FBDE7B8417E2E4F30F49077563A550B7B6 0xAB 0xC9 RETURNDATACOPY 0xFC DUP14 0x4D PUSH5 0x736F6C6343 STOP ADDMOD SMOD STOP CALLER "
				},
				"gasEstimates": {
					"creation": {
						"codeDepositCost": "192800",
						"executionCost": "238",
						"totalCost": "193038"
					},
					"external": {
						"a()": "infinite",
						"setValue()": "400"
					}
				},
				"methodIdentifiers": {
					"a()": "0dbe671f",
					"setValue()": "4fa519fa"
				}
			},
			"storageLayout": {
				"storage": [
					{
						"astId": 11,
						"contract": "structure.sol:structure",
						"label": "a",
						"offset": 0,
						"slot": "0",
						"type": "t_struct(myDT)8_storage"
					}
				],
				"types": {
					"t_address": {
						"encoding": "inplace",
						"label": "address",
						"numberOfBytes": "20"
					},
					"t_string_storage": {
						"encoding": "bytes",
						"label": "string",
						"numberOfBytes": "32"
					},
					"t_struct(myDT)8_storage": {
						"encoding": "inplace",
						"label": "struct structure.myDT",
						"members": [
							{
								"astId": 3,
								"contract": "structure.sol:structure",
								"label": "name",
								"offset": 0,
								"slot": "0",
								"type": "t_string_storage"
							},
							{
								"astId": 5,
								"contract": "structure.sol:structure",
								"label": "age",
								"offset": 0,
								"slot": "1",
								"type": "t_uint256"
							},
							{
								"astId": 7,
								"contract": "structure.sol:structure",
								"label": "acc",
								"offset": 0,
								"slot": "2",
								"type": "t_address"
							}
						],
						"numberOfBytes": "96"
					},
					"t_uint256": {
						"encoding": "inplace",
						"label": "uint256",
						"numberOfBytes": "32"
					}
				}
			},
			"userdoc": {
				"kind": "user",
				"methods": {},
				"version": 1
			}
		}
	}
}