{
	"ERC20_2.sol": {
		"ERC20Basic": {
			"abi": [
				{
					"inputs": [],
					"stateMutability": "nonpayable",
					"type": "constructor"
				},
				{
					"anonymous": false,
					"inputs": [
						{
							"indexed": true,
							"internalType": "address",
							"name": "owner",
							"type": "address"
						},
						{
							"indexed": true,
							"internalType": "address",
							"name": "spender",
							"type": "address"
						},
						{
							"indexed": false,
							"internalType": "uint256",
							"name": "value",
							"type": "uint256"
						}
					],
					"name": "Approval",
					"type": "event"
				},
				{
					"anonymous": false,
					"inputs": [
						{
							"indexed": true,
							"internalType": "address",
							"name": "from",
							"type": "address"
						},
						{
							"indexed": true,
							"internalType": "address",
							"name": "to",
							"type": "address"
						},
						{
							"indexed": false,
							"internalType": "uint256",
							"name": "value",
							"type": "uint256"
						}
					],
					"name": "Transfer",
					"type": "event"
				},
				{
					"inputs": [
						{
							"internalType": "address",
							"name": "_newOwner",
							"type": "address"
						}
					],
					"name": "TransferOwnership",
					"outputs": [],
					"stateMutability": "nonpayable",
					"type": "function"
				},
				{
					"inputs": [
						{
							"internalType": "address",
							"name": "owner",
							"type": "address"
						},
						{
							"internalType": "address",
							"name": "delegate",
							"type": "address"
						}
					],
					"name": "allowance",
					"outputs": [
						{
							"internalType": "uint256",
							"name": "",
							"type": "uint256"
						}
					],
					"stateMutability": "view",
					"type": "function"
				},
				{
					"inputs": [
						{
							"internalType": "address",
							"name": "delegate",
							"type": "address"
						},
						{
							"internalType": "uint256",
							"name": "numTokens",
							"type": "uint256"
						}
					],
					"name": "approve",
					"outputs": [
						{
							"internalType": "bool",
							"name": "",
							"type": "bool"
						}
					],
					"stateMutability": "nonpayable",
					"type": "function"
				},
				{
					"inputs": [
						{
							"internalType": "address",
							"name": "tokenOwner",
							"type": "address"
						}
					],
					"name": "balanceOf",
					"outputs": [
						{
							"internalType": "uint256",
							"name": "",
							"type": "uint256"
						}
					],
					"stateMutability": "view",
					"type": "function"
				},
				{
					"inputs": [],
					"name": "decimals",
					"outputs": [
						{
							"internalType": "uint8",
							"name": "",
							"type": "uint8"
						}
					],
					"stateMutability": "view",
					"type": "function"
				},
				{
					"inputs": [],
					"name": "name",
					"outputs": [
						{
							"internalType": "string",
							"name": "",
							"type": "string"
						}
					],
					"stateMutability": "view",
					"type": "function"
				},
				{
					"inputs": [],
					"name": "ownerId",
					"outputs": [
						{
							"internalType": "address",
							"name": "",
							"type": "address"
						}
					],
					"stateMutability": "view",
					"type": "function"
				},
				{
					"inputs": [],
					"name": "symbol",
					"outputs": [
						{
							"internalType": "string",
							"name": "",
							"type": "string"
						}
					],
					"stateMutability": "view",
					"type": "function"
				},
				{
					"inputs": [],
					"name": "totalSupply",
					"outputs": [
						{
							"internalType": "uint256",
							"name": "",
							"type": "uint256"
						}
					],
					"stateMutability": "view",
					"type": "function"
				},
				{
					"inputs": [
						{
							"internalType": "address",
							"name": "receiver",
							"type": "address"
						},
						{
							"internalType": "uint256",
							"name": "numTokens",
							"type": "uint256"
						}
					],
					"name": "transfer",
					"outputs": [
						{
							"internalType": "bool",
							"name": "",
							"type": "bool"
						}
					],
					"stateMutability": "nonpayable",
					"type": "function"
				},
				{
					"inputs": [
						{
							"internalType": "address",
							"name": "owner",
							"type": "address"
						},
						{
							"internalType": "address",
							"name": "buyer",
							"type": "address"
						},
						{
							"internalType": "uint256",
							"name": "numTokens",
							"type": "uint256"
						}
					],
					"name": "transferFrom",
					"outputs": [
						{
							"internalType": "bool",
							"name": "",
							"type": "bool"
						}
					],
					"stateMutability": "nonpayable",
					"type": "function"
				}
			],
			"devdoc": {
				"kind": "dev",
				"methods": {},
				"version": 1
			},
			"evm": {
				"assembly": "    /* \"ERC20_2.sol\":696:2800  contract ERC20Basic is IERC20 {... */\n  mstore(0x40, 0x80)\n    /* \"ERC20_2.sol\":886:896  msg.sender */\n  caller\n    /* \"ERC20_2.sol\":870:896  address owner = msg.sender */\n  0x00\n  dup1\n  0x0100\n  exp\n  dup2\n  sload\n  dup2\n  0xffffffffffffffffffffffffffffffffffffffff\n  mul\n  not\n  and\n  swap1\n  dup4\n  0xffffffffffffffffffffffffffffffffffffffff\n  and\n  mul\n  or\n  swap1\n  sstore\n  pop\n    /* \"ERC20_2.sol\":1033:1037  1000 */\n  0x03e8\n    /* \"ERC20_2.sol\":1010:1037  uint256 totalSupply_ = 1000 */\n  0x03\n  sstore\n    /* \"ERC20_2.sol\":1044:1101  constructor() {... */\n  callvalue\n  dup1\n  iszero\n  tag_1\n  jumpi\n  0x00\n  dup1\n  revert\ntag_1:\n  pop\n    /* \"ERC20_2.sol\":1082:1094  totalSupply_ */\n  sload(0x03)\n    /* \"ERC20_2.sol\":1064:1072  balances */\n  0x01\n    /* \"ERC20_2.sol\":1064:1079  balances[owner] */\n  0x00\n    /* \"ERC20_2.sol\":1073:1078  owner */\n  dup1\n  0x00\n  swap1\n  sload\n  swap1\n  0x0100\n  exp\n  swap1\n  div\n  0xffffffffffffffffffffffffffffffffffffffff\n  and\n    /* \"ERC20_2.sol\":1064:1079  balances[owner] */\n  0xffffffffffffffffffffffffffffffffffffffff\n  and\n  0xffffffffffffffffffffffffffffffffffffffff\n  and\n  dup2\n  mstore\n  0x20\n  add\n  swap1\n  dup2\n  mstore\n  0x20\n  add\n  0x00\n  keccak256\n    /* \"ERC20_2.sol\":1064:1094  balances[owner] = totalSupply_ */\n  dup2\n  swap1\n  sstore\n  pop\n    /* \"ERC20_2.sol\":696:2800  contract ERC20Basic is IERC20 {... */\n  dataSize(sub_0)\n  dup1\n  dataOffset(sub_0)\n  0x00\n  codecopy\n  0x00\n  return\nstop\n\nsub_0: assembly {\n        /* \"ERC20_2.sol\":696:2800  contract ERC20Basic is IERC20 {... */\n      mstore(0x40, 0x80)\n      callvalue\n      dup1\n      iszero\n      tag_1\n      jumpi\n      0x00\n      dup1\n      revert\n    tag_1:\n      pop\n      jumpi(tag_2, lt(calldatasize, 0x04))\n      shr(0xe0, calldataload(0x00))\n      dup1\n      0x313ce567\n      gt\n      tag_14\n      jumpi\n      dup1\n      0x313ce567\n      eq\n      tag_8\n      jumpi\n      dup1\n      0x70a08231\n      eq\n      tag_9\n      jumpi\n      dup1\n      0x95d89b41\n      eq\n      tag_10\n      jumpi\n      dup1\n      0xa9059cbb\n      eq\n      tag_11\n      jumpi\n      dup1\n      0xcfaaa266\n      eq\n      tag_12\n      jumpi\n      dup1\n      0xdd62ed3e\n      eq\n      tag_13\n      jumpi\n      jump(tag_2)\n    tag_14:\n      dup1\n      0x019c08f5\n      eq\n      tag_3\n      jumpi\n      dup1\n      0x06fdde03\n      eq\n      tag_4\n      jumpi\n      dup1\n      0x095ea7b3\n      eq\n      tag_5\n      jumpi\n      dup1\n      0x18160ddd\n      eq\n      tag_6\n      jumpi\n      dup1\n      0x23b872dd\n      eq\n      tag_7\n      jumpi\n    tag_2:\n      0x00\n      dup1\n      revert\n        /* \"ERC20_2.sol\":2722:2798  function ownerId() public view returns(address){... */\n    tag_3:\n      tag_15\n      tag_16\n      jump\t// in\n    tag_15:\n      mload(0x40)\n      tag_17\n      swap2\n      swap1\n      tag_18\n      jump\t// in\n    tag_17:\n      mload(0x40)\n      dup1\n      swap2\n      sub\n      swap1\n      return\n        /* \"ERC20_2.sol\":738:780  string public constant name = \"ERC20Basic\" */\n    tag_4:\n      tag_19\n      tag_20\n      jump\t// in\n    tag_19:\n      mload(0x40)\n      tag_21\n      swap2\n      swap1\n      tag_22\n      jump\t// in\n    tag_21:\n      mload(0x40)\n      dup1\n      swap2\n      sub\n      swap1\n      return\n        /* \"ERC20_2.sol\":1685:1905  function approve(address delegate, uint256 numTokens) public override returns (bool) {... */\n    tag_5:\n      tag_23\n      0x04\n      dup1\n      calldatasize\n      sub\n      dup2\n      add\n      swap1\n      tag_24\n      swap2\n      swap1\n      tag_25\n      jump\t// in\n    tag_24:\n      tag_26\n      jump\t// in\n    tag_23:\n      mload(0x40)\n      tag_27\n      swap2\n      swap1\n      tag_28\n      jump\t// in\n    tag_27:\n      mload(0x40)\n      dup1\n      swap2\n      sub\n      swap1\n      return\n        /* \"ERC20_2.sol\":1107:1201  function totalSupply() public override view returns (uint256) {... */\n    tag_6:\n      tag_29\n      tag_30\n      jump\t// in\n    tag_29:\n      mload(0x40)\n      tag_31\n      swap2\n      swap1\n      tag_32\n      jump\t// in\n    tag_31:\n      mload(0x40)\n      dup1\n      swap2\n      sub\n      swap1\n      return\n        /* \"ERC20_2.sol\":2053:2518  function transferFrom(address owner, address buyer, uint256 numTokens) public override returns (bool) {... */\n    tag_7:\n      tag_33\n      0x04\n      dup1\n      calldatasize\n      sub\n      dup2\n      add\n      swap1\n      tag_34\n      swap2\n      swap1\n      tag_35\n      jump\t// in\n    tag_34:\n      tag_36\n      jump\t// in\n    tag_33:\n      mload(0x40)\n      tag_37\n      swap2\n      swap1\n      tag_28\n      jump\t// in\n    tag_37:\n      mload(0x40)\n      dup1\n      swap2\n      sub\n      swap1\n      return\n        /* \"ERC20_2.sol\":829:864  uint8 public constant decimals = 18 */\n    tag_8:\n      tag_38\n      tag_39\n      jump\t// in\n    tag_38:\n      mload(0x40)\n      tag_40\n      swap2\n      swap1\n      tag_41\n      jump\t// in\n    tag_40:\n      mload(0x40)\n      dup1\n      swap2\n      sub\n      swap1\n      return\n        /* \"ERC20_2.sol\":1207:1329  function balanceOf(address tokenOwner) public override view returns (uint256) {... */\n    tag_9:\n      tag_42\n      0x04\n      dup1\n      calldatasize\n      sub\n      dup2\n      add\n      swap1\n      tag_43\n      swap2\n      swap1\n      tag_44\n      jump\t// in\n    tag_43:\n      tag_45\n      jump\t// in\n    tag_42:\n      mload(0x40)\n      tag_46\n      swap2\n      swap1\n      tag_32\n      jump\t// in\n    tag_46:\n      mload(0x40)\n      dup1\n      swap2\n      sub\n      swap1\n      return\n        /* \"ERC20_2.sol\":786:823  string public constant symbol = \"ERC\" */\n    tag_10:\n      tag_47\n      tag_48\n      jump\t// in\n    tag_47:\n      mload(0x40)\n      tag_49\n      swap2\n      swap1\n      tag_22\n      jump\t// in\n    tag_49:\n      mload(0x40)\n      dup1\n      swap2\n      sub\n      swap1\n      return\n        /* \"ERC20_2.sol\":1335:1679  function transfer(address receiver, uint256 numTokens) public override returns (bool) {... */\n    tag_11:\n      tag_50\n      0x04\n      dup1\n      calldatasize\n      sub\n      dup2\n      add\n      swap1\n      tag_51\n      swap2\n      swap1\n      tag_25\n      jump\t// in\n    tag_51:\n      tag_52\n      jump\t// in\n    tag_50:\n      mload(0x40)\n      tag_53\n      swap2\n      swap1\n      tag_28\n      jump\t// in\n    tag_53:\n      mload(0x40)\n      dup1\n      swap2\n      sub\n      swap1\n      return\n        /* \"ERC20_2.sol\":2620:2717  function TransferOwnership(address _newOwner) public OwnerOnly {... */\n    tag_12:\n      tag_54\n      0x04\n      dup1\n      calldatasize\n      sub\n      dup2\n      add\n      swap1\n      tag_55\n      swap2\n      swap1\n      tag_44\n      jump\t// in\n    tag_55:\n      tag_56\n      jump\t// in\n    tag_54:\n      stop\n        /* \"ERC20_2.sol\":1911:2047  function allowance(address owner, address delegate) public override view returns (uint) {... */\n    tag_13:\n      tag_57\n      0x04\n      dup1\n      calldatasize\n      sub\n      dup2\n      add\n      swap1\n      tag_58\n      swap2\n      swap1\n      tag_59\n      jump\t// in\n    tag_58:\n      tag_60\n      jump\t// in\n    tag_57:\n      mload(0x40)\n      tag_61\n      swap2\n      swap1\n      tag_32\n      jump\t// in\n    tag_61:\n      mload(0x40)\n      dup1\n      swap2\n      sub\n      swap1\n      return\n        /* \"ERC20_2.sol\":2722:2798  function ownerId() public view returns(address){... */\n    tag_16:\n        /* \"ERC20_2.sol\":2761:2768  address */\n      0x00\n        /* \"ERC20_2.sol\":2786:2791  owner */\n      dup1\n      0x00\n      swap1\n      sload\n      swap1\n      0x0100\n      exp\n      swap1\n      div\n      0xffffffffffffffffffffffffffffffffffffffff\n      and\n        /* \"ERC20_2.sol\":2779:2791  return owner */\n      swap1\n      pop\n        /* \"ERC20_2.sol\":2722:2798  function ownerId() public view returns(address){... */\n      swap1\n      jump\t// out\n        /* \"ERC20_2.sol\":738:780  string public constant name = \"ERC20Basic\" */\n    tag_20:\n      mload(0x40)\n      dup1\n      0x40\n      add\n      0x40\n      mstore\n      dup1\n      0x0a\n      dup2\n      mstore\n      0x20\n      add\n      0x4552433230426173696300000000000000000000000000000000000000000000\n      dup2\n      mstore\n      pop\n      dup2\n      jump\t// out\n        /* \"ERC20_2.sol\":1685:1905  function approve(address delegate, uint256 numTokens) public override returns (bool) {... */\n    tag_26:\n        /* \"ERC20_2.sol\":1764:1768  bool */\n      0x00\n        /* \"ERC20_2.sol\":1812:1821  numTokens */\n      dup2\n        /* \"ERC20_2.sol\":1780:1787  allowed */\n      0x02\n        /* \"ERC20_2.sol\":1780:1799  allowed[msg.sender] */\n      0x00\n        /* \"ERC20_2.sol\":1788:1798  msg.sender */\n      caller\n        /* \"ERC20_2.sol\":1780:1799  allowed[msg.sender] */\n      0xffffffffffffffffffffffffffffffffffffffff\n      and\n      0xffffffffffffffffffffffffffffffffffffffff\n      and\n      dup2\n      mstore\n      0x20\n      add\n      swap1\n      dup2\n      mstore\n      0x20\n      add\n      0x00\n      keccak256\n        /* \"ERC20_2.sol\":1780:1809  allowed[msg.sender][delegate] */\n      0x00\n        /* \"ERC20_2.sol\":1800:1808  delegate */\n      dup6\n        /* \"ERC20_2.sol\":1780:1809  allowed[msg.sender][delegate] */\n      0xffffffffffffffffffffffffffffffffffffffff\n      and\n      0xffffffffffffffffffffffffffffffffffffffff\n      and\n      dup2\n      mstore\n      0x20\n      add\n      swap1\n      dup2\n      mstore\n      0x20\n      add\n      0x00\n      keccak256\n        /* \"ERC20_2.sol\":1780:1821  allowed[msg.sender][delegate] = numTokens */\n      dup2\n      swap1\n      sstore\n      pop\n        /* \"ERC20_2.sol\":1857:1865  delegate */\n      dup3\n        /* \"ERC20_2.sol\":1836:1877  Approval(msg.sender, delegate, numTokens) */\n      0xffffffffffffffffffffffffffffffffffffffff\n      and\n        /* \"ERC20_2.sol\":1845:1855  msg.sender */\n      caller\n        /* \"ERC20_2.sol\":1836:1877  Approval(msg.sender, delegate, numTokens) */\n      0xffffffffffffffffffffffffffffffffffffffff\n      and\n      0x8c5be1e5ebec7d5bd14f71427d1e84f3dd0314c0f7b2291e5b200ac8c7c3b925\n        /* \"ERC20_2.sol\":1867:1876  numTokens */\n      dup5\n        /* \"ERC20_2.sol\":1836:1877  Approval(msg.sender, delegate, numTokens) */\n      mload(0x40)\n      tag_64\n      swap2\n      swap1\n      tag_32\n      jump\t// in\n    tag_64:\n      mload(0x40)\n      dup1\n      swap2\n      sub\n      swap1\n      log3\n        /* \"ERC20_2.sol\":1894:1898  true */\n      0x01\n        /* \"ERC20_2.sol\":1887:1898  return true */\n      swap1\n      pop\n        /* \"ERC20_2.sol\":1685:1905  function approve(address delegate, uint256 numTokens) public override returns (bool) {... */\n      swap3\n      swap2\n      pop\n      pop\n      jump\t// out\n        /* \"ERC20_2.sol\":1107:1201  function totalSupply() public override view returns (uint256) {... */\n    tag_30:\n        /* \"ERC20_2.sol\":1160:1167  uint256 */\n      0x00\n        /* \"ERC20_2.sol\":1182:1194  totalSupply_ */\n      sload(0x03)\n        /* \"ERC20_2.sol\":1175:1194  return totalSupply_ */\n      swap1\n      pop\n        /* \"ERC20_2.sol\":1107:1201  function totalSupply() public override view returns (uint256) {... */\n      swap1\n      jump\t// out\n        /* \"ERC20_2.sol\":2053:2518  function transferFrom(address owner, address buyer, uint256 numTokens) public override returns (bool) {... */\n    tag_36:\n        /* \"ERC20_2.sol\":2149:2153  bool */\n      0x00\n        /* \"ERC20_2.sol\":2186:2194  balances */\n      0x01\n        /* \"ERC20_2.sol\":2186:2201  balances[owner] */\n      0x00\n        /* \"ERC20_2.sol\":2195:2200  owner */\n      dup6\n        /* \"ERC20_2.sol\":2186:2201  balances[owner] */\n      0xffffffffffffffffffffffffffffffffffffffff\n      and\n      0xffffffffffffffffffffffffffffffffffffffff\n      and\n      dup2\n      mstore\n      0x20\n      add\n      swap1\n      dup2\n      mstore\n      0x20\n      add\n      0x00\n      keccak256\n      sload\n        /* \"ERC20_2.sol\":2173:2182  numTokens */\n      dup3\n        /* \"ERC20_2.sol\":2173:2201  numTokens <= balances[owner] */\n      gt\n      iszero\n        /* \"ERC20_2.sol\":2165:2202  require(numTokens <= balances[owner]) */\n      tag_67\n      jumpi\n      0x00\n      dup1\n      revert\n    tag_67:\n        /* \"ERC20_2.sol\":2233:2240  allowed */\n      0x02\n        /* \"ERC20_2.sol\":2233:2247  allowed[owner] */\n      0x00\n        /* \"ERC20_2.sol\":2241:2246  owner */\n      dup6\n        /* \"ERC20_2.sol\":2233:2247  allowed[owner] */\n      0xffffffffffffffffffffffffffffffffffffffff\n      and\n      0xffffffffffffffffffffffffffffffffffffffff\n      and\n      dup2\n      mstore\n      0x20\n      add\n      swap1\n      dup2\n      mstore\n      0x20\n      add\n      0x00\n      keccak256\n        /* \"ERC20_2.sol\":2233:2259  allowed[owner][msg.sender] */\n      0x00\n        /* \"ERC20_2.sol\":2248:2258  msg.sender */\n      caller\n        /* \"ERC20_2.sol\":2233:2259  allowed[owner][msg.sender] */\n      0xffffffffffffffffffffffffffffffffffffffff\n      and\n      0xffffffffffffffffffffffffffffffffffffffff\n      and\n      dup2\n      mstore\n      0x20\n      add\n      swap1\n      dup2\n      mstore\n      0x20\n      add\n      0x00\n      keccak256\n      sload\n        /* \"ERC20_2.sol\":2220:2229  numTokens */\n      dup3\n        /* \"ERC20_2.sol\":2220:2259  numTokens <= allowed[owner][msg.sender] */\n      gt\n      iszero\n        /* \"ERC20_2.sol\":2212:2260  require(numTokens <= allowed[owner][msg.sender]) */\n      tag_68\n      jumpi\n      0x00\n      dup1\n      revert\n    tag_68:\n        /* \"ERC20_2.sol\":2305:2314  numTokens */\n      dup2\n        /* \"ERC20_2.sol\":2289:2297  balances */\n      0x01\n        /* \"ERC20_2.sol\":2289:2304  balances[owner] */\n      0x00\n        /* \"ERC20_2.sol\":2298:2303  owner */\n      dup7\n        /* \"ERC20_2.sol\":2289:2304  balances[owner] */\n      0xffffffffffffffffffffffffffffffffffffffff\n      and\n      0xffffffffffffffffffffffffffffffffffffffff\n      and\n      dup2\n      mstore\n      0x20\n      add\n      swap1\n      dup2\n      mstore\n      0x20\n      add\n      0x00\n      keccak256\n      sload\n        /* \"ERC20_2.sol\":2289:2314  balances[owner]-numTokens */\n      tag_69\n      swap2\n      swap1\n      tag_70\n      jump\t// in\n    tag_69:\n        /* \"ERC20_2.sol\":2271:2279  balances */\n      0x01\n        /* \"ERC20_2.sol\":2271:2286  balances[owner] */\n      0x00\n        /* \"ERC20_2.sol\":2280:2285  owner */\n      dup7\n        /* \"ERC20_2.sol\":2271:2286  balances[owner] */\n      0xffffffffffffffffffffffffffffffffffffffff\n      and\n      0xffffffffffffffffffffffffffffffffffffffff\n      and\n      dup2\n      mstore\n      0x20\n      add\n      swap1\n      dup2\n      mstore\n      0x20\n      add\n      0x00\n      keccak256\n        /* \"ERC20_2.sol\":2271:2314  balances[owner] = balances[owner]-numTokens */\n      dup2\n      swap1\n      sstore\n      pop\n        /* \"ERC20_2.sol\":2380:2389  numTokens */\n      dup2\n        /* \"ERC20_2.sol\":2353:2360  allowed */\n      0x02\n        /* \"ERC20_2.sol\":2353:2367  allowed[owner] */\n      0x00\n        /* \"ERC20_2.sol\":2361:2366  owner */\n      dup7\n        /* \"ERC20_2.sol\":2353:2367  allowed[owner] */\n      0xffffffffffffffffffffffffffffffffffffffff\n      and\n      0xffffffffffffffffffffffffffffffffffffffff\n      and\n      dup2\n      mstore\n      0x20\n      add\n      swap1\n      dup2\n      mstore\n      0x20\n      add\n      0x00\n      keccak256\n        /* \"ERC20_2.sol\":2353:2379  allowed[owner][msg.sender] */\n      0x00\n        /* \"ERC20_2.sol\":2368:2378  msg.sender */\n      caller\n        /* \"ERC20_2.sol\":2353:2379  allowed[owner][msg.sender] */\n      0xffffffffffffffffffffffffffffffffffffffff\n      and\n      0xffffffffffffffffffffffffffffffffffffffff\n      and\n      dup2\n      mstore\n      0x20\n      add\n      swap1\n      dup2\n      mstore\n      0x20\n      add\n      0x00\n      keccak256\n      sload\n        /* \"ERC20_2.sol\":2353:2389  allowed[owner][msg.sender]-numTokens */\n      tag_71\n      swap2\n      swap1\n      tag_70\n      jump\t// in\n    tag_71:\n        /* \"ERC20_2.sol\":2324:2331  allowed */\n      0x02\n        /* \"ERC20_2.sol\":2324:2338  allowed[owner] */\n      0x00\n        /* \"ERC20_2.sol\":2332:2337  owner */\n      dup7\n        /* \"ERC20_2.sol\":2324:2338  allowed[owner] */\n      0xffffffffffffffffffffffffffffffffffffffff\n      and\n      0xffffffffffffffffffffffffffffffffffffffff\n      and\n      dup2\n      mstore\n      0x20\n      add\n      swap1\n      dup2\n      mstore\n      0x20\n      add\n      0x00\n      keccak256\n        /* \"ERC20_2.sol\":2324:2350  allowed[owner][msg.sender] */\n      0x00\n        /* \"ERC20_2.sol\":2339:2349  msg.sender */\n      caller\n        /* \"ERC20_2.sol\":2324:2350  allowed[owner][msg.sender] */\n      0xffffffffffffffffffffffffffffffffffffffff\n      and\n      0xffffffffffffffffffffffffffffffffffffffff\n      and\n      dup2\n      mstore\n      0x20\n      add\n      swap1\n      dup2\n      mstore\n      0x20\n      add\n      0x00\n      keccak256\n        /* \"ERC20_2.sol\":2324:2389  allowed[owner][msg.sender] = allowed[owner][msg.sender]-numTokens */\n      dup2\n      swap1\n      sstore\n      pop\n        /* \"ERC20_2.sol\":2433:2442  numTokens */\n      dup2\n        /* \"ERC20_2.sol\":2417:2425  balances */\n      0x01\n        /* \"ERC20_2.sol\":2417:2432  balances[buyer] */\n      0x00\n        /* \"ERC20_2.sol\":2426:2431  buyer */\n      dup6\n        /* \"ERC20_2.sol\":2417:2432  balances[buyer] */\n      0xffffffffffffffffffffffffffffffffffffffff\n      and\n      0xffffffffffffffffffffffffffffffffffffffff\n      and\n      dup2\n      mstore\n      0x20\n      add\n      swap1\n      dup2\n      mstore\n      0x20\n      add\n      0x00\n      keccak256\n      sload\n        /* \"ERC20_2.sol\":2417:2442  balances[buyer]+numTokens */\n      tag_72\n      swap2\n      swap1\n      tag_73\n      jump\t// in\n    tag_72:\n        /* \"ERC20_2.sol\":2399:2407  balances */\n      0x01\n        /* \"ERC20_2.sol\":2399:2414  balances[buyer] */\n      0x00\n        /* \"ERC20_2.sol\":2408:2413  buyer */\n      dup6\n        /* \"ERC20_2.sol\":2399:2414  balances[buyer] */\n      0xffffffffffffffffffffffffffffffffffffffff\n      and\n      0xffffffffffffffffffffffffffffffffffffffff\n      and\n      dup2\n      mstore\n      0x20\n      add\n      swap1\n      dup2\n      mstore\n      0x20\n      add\n      0x00\n      keccak256\n        /* \"ERC20_2.sol\":2399:2442  balances[buyer] = balances[buyer]+numTokens */\n      dup2\n      swap1\n      sstore\n      pop\n        /* \"ERC20_2.sol\":2473:2478  buyer */\n      dup3\n        /* \"ERC20_2.sol\":2457:2490  Transfer(owner, buyer, numTokens) */\n      0xffffffffffffffffffffffffffffffffffffffff\n      and\n        /* \"ERC20_2.sol\":2466:2471  owner */\n      dup5\n        /* \"ERC20_2.sol\":2457:2490  Transfer(owner, buyer, numTokens) */\n      0xffffffffffffffffffffffffffffffffffffffff\n      and\n      0xddf252ad1be2c89b69c2b068fc378daa952ba7f163c4a11628f55a4df523b3ef\n        /* \"ERC20_2.sol\":2480:2489  numTokens */\n      dup5\n        /* \"ERC20_2.sol\":2457:2490  Transfer(owner, buyer, numTokens) */\n      mload(0x40)\n      tag_74\n      swap2\n      swap1\n      tag_32\n      jump\t// in\n    tag_74:\n      mload(0x40)\n      dup1\n      swap2\n      sub\n      swap1\n      log3\n        /* \"ERC20_2.sol\":2507:2511  true */\n      0x01\n        /* \"ERC20_2.sol\":2500:2511  return true */\n      swap1\n      pop\n        /* \"ERC20_2.sol\":2053:2518  function transferFrom(address owner, address buyer, uint256 numTokens) public override returns (bool) {... */\n      swap4\n      swap3\n      pop\n      pop\n      pop\n      jump\t// out\n        /* \"ERC20_2.sol\":829:864  uint8 public constant decimals = 18 */\n    tag_39:\n        /* \"ERC20_2.sol\":862:864  18 */\n      0x12\n        /* \"ERC20_2.sol\":829:864  uint8 public constant decimals = 18 */\n      dup2\n      jump\t// out\n        /* \"ERC20_2.sol\":1207:1329  function balanceOf(address tokenOwner) public override view returns (uint256) {... */\n    tag_45:\n        /* \"ERC20_2.sol\":1276:1283  uint256 */\n      0x00\n        /* \"ERC20_2.sol\":1302:1310  balances */\n      0x01\n        /* \"ERC20_2.sol\":1302:1322  balances[tokenOwner] */\n      0x00\n        /* \"ERC20_2.sol\":1311:1321  tokenOwner */\n      dup4\n        /* \"ERC20_2.sol\":1302:1322  balances[tokenOwner] */\n      0xffffffffffffffffffffffffffffffffffffffff\n      and\n      0xffffffffffffffffffffffffffffffffffffffff\n      and\n      dup2\n      mstore\n      0x20\n      add\n      swap1\n      dup2\n      mstore\n      0x20\n      add\n      0x00\n      keccak256\n      sload\n        /* \"ERC20_2.sol\":1295:1322  return balances[tokenOwner] */\n      swap1\n      pop\n        /* \"ERC20_2.sol\":1207:1329  function balanceOf(address tokenOwner) public override view returns (uint256) {... */\n      swap2\n      swap1\n      pop\n      jump\t// out\n        /* \"ERC20_2.sol\":786:823  string public constant symbol = \"ERC\" */\n    tag_48:\n      mload(0x40)\n      dup1\n      0x40\n      add\n      0x40\n      mstore\n      dup1\n      0x03\n      dup2\n      mstore\n      0x20\n      add\n      0x4552430000000000000000000000000000000000000000000000000000000000\n      dup2\n      mstore\n      pop\n      dup2\n      jump\t// out\n        /* \"ERC20_2.sol\":1335:1679  function transfer(address receiver, uint256 numTokens) public override returns (bool) {... */\n    tag_52:\n        /* \"ERC20_2.sol\":1415:1419  bool */\n      0x00\n        /* \"ERC20_2.sol\":1452:1460  balances */\n      0x01\n        /* \"ERC20_2.sol\":1452:1472  balances[msg.sender] */\n      0x00\n        /* \"ERC20_2.sol\":1461:1471  msg.sender */\n      caller\n        /* \"ERC20_2.sol\":1452:1472  balances[msg.sender] */\n      0xffffffffffffffffffffffffffffffffffffffff\n      and\n      0xffffffffffffffffffffffffffffffffffffffff\n      and\n      dup2\n      mstore\n      0x20\n      add\n      swap1\n      dup2\n      mstore\n      0x20\n      add\n      0x00\n      keccak256\n      sload\n        /* \"ERC20_2.sol\":1439:1448  numTokens */\n      dup3\n        /* \"ERC20_2.sol\":1439:1472  numTokens <= balances[msg.sender] */\n      gt\n      iszero\n        /* \"ERC20_2.sol\":1431:1473  require(numTokens <= balances[msg.sender]) */\n      tag_77\n      jumpi\n      0x00\n      dup1\n      revert\n    tag_77:\n        /* \"ERC20_2.sol\":1527:1536  numTokens */\n      dup2\n        /* \"ERC20_2.sol\":1506:1514  balances */\n      0x01\n        /* \"ERC20_2.sol\":1506:1526  balances[msg.sender] */\n      0x00\n        /* \"ERC20_2.sol\":1515:1525  msg.sender */\n      caller\n        /* \"ERC20_2.sol\":1506:1526  balances[msg.sender] */\n      0xffffffffffffffffffffffffffffffffffffffff\n      and\n      0xffffffffffffffffffffffffffffffffffffffff\n      and\n      dup2\n      mstore\n      0x20\n      add\n      swap1\n      dup2\n      mstore\n      0x20\n      add\n      0x00\n      keccak256\n      sload\n        /* \"ERC20_2.sol\":1506:1536  balances[msg.sender]-numTokens */\n      tag_78\n      swap2\n      swap1\n      tag_70\n      jump\t// in\n    tag_78:\n        /* \"ERC20_2.sol\":1483:1491  balances */\n      0x01\n        /* \"ERC20_2.sol\":1483:1503  balances[msg.sender] */\n      0x00\n        /* \"ERC20_2.sol\":1492:1502  msg.sender */\n      caller\n        /* \"ERC20_2.sol\":1483:1503  balances[msg.sender] */\n      0xffffffffffffffffffffffffffffffffffffffff\n      and\n      0xffffffffffffffffffffffffffffffffffffffff\n      and\n      dup2\n      mstore\n      0x20\n      add\n      swap1\n      dup2\n      mstore\n      0x20\n      add\n      0x00\n      keccak256\n        /* \"ERC20_2.sol\":1483:1536  balances[msg.sender] = balances[msg.sender]-numTokens */\n      dup2\n      swap1\n      sstore\n      pop\n        /* \"ERC20_2.sol\":1586:1595  numTokens */\n      dup2\n        /* \"ERC20_2.sol\":1567:1575  balances */\n      0x01\n        /* \"ERC20_2.sol\":1567:1585  balances[receiver] */\n      0x00\n        /* \"ERC20_2.sol\":1576:1584  receiver */\n      dup6\n        /* \"ERC20_2.sol\":1567:1585  balances[receiver] */\n      0xffffffffffffffffffffffffffffffffffffffff\n      and\n      0xffffffffffffffffffffffffffffffffffffffff\n      and\n      dup2\n      mstore\n      0x20\n      add\n      swap1\n      dup2\n      mstore\n      0x20\n      add\n      0x00\n      keccak256\n      sload\n        /* \"ERC20_2.sol\":1567:1595  balances[receiver]+numTokens */\n      tag_79\n      swap2\n      swap1\n      tag_73\n      jump\t// in\n    tag_79:\n        /* \"ERC20_2.sol\":1546:1554  balances */\n      0x01\n        /* \"ERC20_2.sol\":1546:1564  balances[receiver] */\n      0x00\n        /* \"ERC20_2.sol\":1555:1563  receiver */\n      dup6\n        /* \"ERC20_2.sol\":1546:1564  balances[receiver] */\n      0xffffffffffffffffffffffffffffffffffffffff\n      and\n      0xffffffffffffffffffffffffffffffffffffffff\n      and\n      dup2\n      mstore\n      0x20\n      add\n      swap1\n      dup2\n      mstore\n      0x20\n      add\n      0x00\n      keccak256\n        /* \"ERC20_2.sol\":1546:1595  balances[receiver] = balances[receiver]+numTokens */\n      dup2\n      swap1\n      sstore\n      pop\n        /* \"ERC20_2.sol\":1631:1639  receiver */\n      dup3\n        /* \"ERC20_2.sol\":1610:1651  Transfer(msg.sender, receiver, numTokens) */\n      0xffffffffffffffffffffffffffffffffffffffff\n      and\n        /* \"ERC20_2.sol\":1619:1629  msg.sender */\n      caller\n        /* \"ERC20_2.sol\":1610:1651  Transfer(msg.sender, receiver, numTokens) */\n      0xffffffffffffffffffffffffffffffffffffffff\n      and\n      0xddf252ad1be2c89b69c2b068fc378daa952ba7f163c4a11628f55a4df523b3ef\n        /* \"ERC20_2.sol\":1641:1650  numTokens */\n      dup5\n        /* \"ERC20_2.sol\":1610:1651  Transfer(msg.sender, receiver, numTokens) */\n      mload(0x40)\n      tag_80\n      swap2\n      swap1\n      tag_32\n      jump\t// in\n    tag_80:\n      mload(0x40)\n      dup1\n      swap2\n      sub\n      swap1\n      log3\n        /* \"ERC20_2.sol\":1668:1672  true */\n      0x01\n        /* \"ERC20_2.sol\":1661:1672  return true */\n      swap1\n      pop\n        /* \"ERC20_2.sol\":1335:1679  function transfer(address receiver, uint256 numTokens) public override returns (bool) {... */\n      swap3\n      swap2\n      pop\n      pop\n      jump\t// out\n        /* \"ERC20_2.sol\":2620:2717  function TransferOwnership(address _newOwner) public OwnerOnly {... */\n    tag_56:\n        /* \"ERC20_2.sol\":2568:2578  msg.sender */\n      caller\n        /* \"ERC20_2.sol\":2559:2578  owner == msg.sender */\n      0xffffffffffffffffffffffffffffffffffffffff\n      and\n        /* \"ERC20_2.sol\":2559:2564  owner */\n      0x00\n      dup1\n      sload\n      swap1\n      0x0100\n      exp\n      swap1\n      div\n      0xffffffffffffffffffffffffffffffffffffffff\n      and\n        /* \"ERC20_2.sol\":2559:2578  owner == msg.sender */\n      0xffffffffffffffffffffffffffffffffffffffff\n      and\n      eq\n        /* \"ERC20_2.sol\":2551:2600  require(owner == msg.sender ,'you Are Not Owner') */\n      tag_82\n      jumpi\n      mload(0x40)\n      0x08c379a000000000000000000000000000000000000000000000000000000000\n      dup2\n      mstore\n      0x04\n      add\n      tag_83\n      swap1\n      tag_84\n      jump\t// in\n    tag_83:\n      mload(0x40)\n      dup1\n      swap2\n      sub\n      swap1\n      revert\n    tag_82:\n        /* \"ERC20_2.sol\":2701:2710  _newOwner */\n      dup1\n        /* \"ERC20_2.sol\":2693:2698  owner */\n      0x00\n      dup1\n        /* \"ERC20_2.sol\":2693:2710  owner = _newOwner */\n      0x0100\n      exp\n      dup2\n      sload\n      dup2\n      0xffffffffffffffffffffffffffffffffffffffff\n      mul\n      not\n      and\n      swap1\n      dup4\n      0xffffffffffffffffffffffffffffffffffffffff\n      and\n      mul\n      or\n      swap1\n      sstore\n      pop\n        /* \"ERC20_2.sol\":2620:2717  function TransferOwnership(address _newOwner) public OwnerOnly {... */\n      pop\n      jump\t// out\n        /* \"ERC20_2.sol\":1911:2047  function allowance(address owner, address delegate) public override view returns (uint) {... */\n    tag_60:\n        /* \"ERC20_2.sol\":1993:1997  uint */\n      0x00\n        /* \"ERC20_2.sol\":2016:2023  allowed */\n      0x02\n        /* \"ERC20_2.sol\":2016:2030  allowed[owner] */\n      0x00\n        /* \"ERC20_2.sol\":2024:2029  owner */\n      dup5\n        /* \"ERC20_2.sol\":2016:2030  allowed[owner] */\n      0xffffffffffffffffffffffffffffffffffffffff\n      and\n      0xffffffffffffffffffffffffffffffffffffffff\n      and\n      dup2\n      mstore\n      0x20\n      add\n      swap1\n      dup2\n      mstore\n      0x20\n      add\n      0x00\n      keccak256\n        /* \"ERC20_2.sol\":2016:2040  allowed[owner][delegate] */\n      0x00\n        /* \"ERC20_2.sol\":2031:2039  delegate */\n      dup4\n        /* \"ERC20_2.sol\":2016:2040  allowed[owner][delegate] */\n      0xffffffffffffffffffffffffffffffffffffffff\n      and\n      0xffffffffffffffffffffffffffffffffffffffff\n      and\n      dup2\n      mstore\n      0x20\n      add\n      swap1\n      dup2\n      mstore\n      0x20\n      add\n      0x00\n      keccak256\n      sload\n        /* \"ERC20_2.sol\":2009:2040  return allowed[owner][delegate] */\n      swap1\n      pop\n        /* \"ERC20_2.sol\":1911:2047  function allowance(address owner, address delegate) public override view returns (uint) {... */\n      swap3\n      swap2\n      pop\n      pop\n      jump\t// out\n        /* \"#utility.yul\":7:133   */\n    tag_87:\n        /* \"#utility.yul\":44:51   */\n      0x00\n        /* \"#utility.yul\":84:126   */\n      0xffffffffffffffffffffffffffffffffffffffff\n        /* \"#utility.yul\":77:82   */\n      dup3\n        /* \"#utility.yul\":73:127   */\n      and\n        /* \"#utility.yul\":62:127   */\n      swap1\n      pop\n        /* \"#utility.yul\":7:133   */\n      swap2\n      swap1\n      pop\n      jump\t// out\n        /* \"#utility.yul\":139:235   */\n    tag_88:\n        /* \"#utility.yul\":176:183   */\n      0x00\n        /* \"#utility.yul\":205:229   */\n      tag_114\n        /* \"#utility.yul\":223:228   */\n      dup3\n        /* \"#utility.yul\":205:229   */\n      tag_87\n      jump\t// in\n    tag_114:\n        /* \"#utility.yul\":194:229   */\n      swap1\n      pop\n        /* \"#utility.yul\":139:235   */\n      swap2\n      swap1\n      pop\n      jump\t// out\n        /* \"#utility.yul\":241:359   */\n    tag_89:\n        /* \"#utility.yul\":328:352   */\n      tag_116\n        /* \"#utility.yul\":346:351   */\n      dup2\n        /* \"#utility.yul\":328:352   */\n      tag_88\n      jump\t// in\n    tag_116:\n        /* \"#utility.yul\":323:326   */\n      dup3\n        /* \"#utility.yul\":316:353   */\n      mstore\n        /* \"#utility.yul\":241:359   */\n      pop\n      pop\n      jump\t// out\n        /* \"#utility.yul\":365:587   */\n    tag_18:\n        /* \"#utility.yul\":458:462   */\n      0x00\n        /* \"#utility.yul\":496:498   */\n      0x20\n        /* \"#utility.yul\":485:494   */\n      dup3\n        /* \"#utility.yul\":481:499   */\n      add\n        /* \"#utility.yul\":473:499   */\n      swap1\n      pop\n        /* \"#utility.yul\":509:580   */\n      tag_118\n        /* \"#utility.yul\":577:578   */\n      0x00\n        /* \"#utility.yul\":566:575   */\n      dup4\n        /* \"#utility.yul\":562:579   */\n      add\n        /* \"#utility.yul\":553:559   */\n      dup5\n        /* \"#utility.yul\":509:580   */\n      tag_89\n      jump\t// in\n    tag_118:\n        /* \"#utility.yul\":365:587   */\n      swap3\n      swap2\n      pop\n      pop\n      jump\t// out\n        /* \"#utility.yul\":593:692   */\n    tag_90:\n        /* \"#utility.yul\":645:651   */\n      0x00\n        /* \"#utility.yul\":679:684   */\n      dup2\n        /* \"#utility.yul\":673:685   */\n      mload\n        /* \"#utility.yul\":663:685   */\n      swap1\n      pop\n        /* \"#utility.yul\":593:692   */\n      swap2\n      swap1\n      pop\n      jump\t// out\n        /* \"#utility.yul\":698:867   */\n    tag_91:\n        /* \"#utility.yul\":782:793   */\n      0x00\n        /* \"#utility.yul\":816:822   */\n      dup3\n        /* \"#utility.yul\":811:814   */\n      dup3\n        /* \"#utility.yul\":804:823   */\n      mstore\n        /* \"#utility.yul\":856:860   */\n      0x20\n        /* \"#utility.yul\":851:854   */\n      dup3\n        /* \"#utility.yul\":847:861   */\n      add\n        /* \"#utility.yul\":832:861   */\n      swap1\n      pop\n        /* \"#utility.yul\":698:867   */\n      swap3\n      swap2\n      pop\n      pop\n      jump\t// out\n        /* \"#utility.yul\":873:1180   */\n    tag_92:\n        /* \"#utility.yul\":941:942   */\n      0x00\n        /* \"#utility.yul\":951:1064   */\n    tag_122:\n        /* \"#utility.yul\":965:971   */\n      dup4\n        /* \"#utility.yul\":962:963   */\n      dup2\n        /* \"#utility.yul\":959:972   */\n      lt\n        /* \"#utility.yul\":951:1064   */\n      iszero\n      tag_124\n      jumpi\n        /* \"#utility.yul\":1050:1051   */\n      dup1\n        /* \"#utility.yul\":1045:1048   */\n      dup3\n        /* \"#utility.yul\":1041:1052   */\n      add\n        /* \"#utility.yul\":1035:1053   */\n      mload\n        /* \"#utility.yul\":1031:1032   */\n      dup2\n        /* \"#utility.yul\":1026:1029   */\n      dup5\n        /* \"#utility.yul\":1022:1033   */\n      add\n        /* \"#utility.yul\":1015:1054   */\n      mstore\n        /* \"#utility.yul\":987:989   */\n      0x20\n        /* \"#utility.yul\":984:985   */\n      dup2\n        /* \"#utility.yul\":980:990   */\n      add\n        /* \"#utility.yul\":975:990   */\n      swap1\n      pop\n        /* \"#utility.yul\":951:1064   */\n      jump(tag_122)\n    tag_124:\n        /* \"#utility.yul\":1082:1088   */\n      dup4\n        /* \"#utility.yul\":1079:1080   */\n      dup2\n        /* \"#utility.yul\":1076:1089   */\n      gt\n        /* \"#utility.yul\":1073:1174   */\n      iszero\n      tag_125\n      jumpi\n        /* \"#utility.yul\":1162:1163   */\n      0x00\n        /* \"#utility.yul\":1153:1159   */\n      dup5\n        /* \"#utility.yul\":1148:1151   */\n      dup5\n        /* \"#utility.yul\":1144:1160   */\n      add\n        /* \"#utility.yul\":1137:1164   */\n      mstore\n        /* \"#utility.yul\":1073:1174   */\n    tag_125:\n        /* \"#utility.yul\":922:1180   */\n      pop\n        /* \"#utility.yul\":873:1180   */\n      pop\n      pop\n      pop\n      jump\t// out\n        /* \"#utility.yul\":1186:1288   */\n    tag_93:\n        /* \"#utility.yul\":1227:1233   */\n      0x00\n        /* \"#utility.yul\":1278:1280   */\n      0x1f\n        /* \"#utility.yul\":1274:1281   */\n      not\n        /* \"#utility.yul\":1269:1271   */\n      0x1f\n        /* \"#utility.yul\":1262:1267   */\n      dup4\n        /* \"#utility.yul\":1258:1272   */\n      add\n        /* \"#utility.yul\":1254:1282   */\n      and\n        /* \"#utility.yul\":1244:1282   */\n      swap1\n      pop\n        /* \"#utility.yul\":1186:1288   */\n      swap2\n      swap1\n      pop\n      jump\t// out\n        /* \"#utility.yul\":1294:1658   */\n    tag_94:\n        /* \"#utility.yul\":1382:1385   */\n      0x00\n        /* \"#utility.yul\":1410:1449   */\n      tag_128\n        /* \"#utility.yul\":1443:1448   */\n      dup3\n        /* \"#utility.yul\":1410:1449   */\n      tag_90\n      jump\t// in\n    tag_128:\n        /* \"#utility.yul\":1465:1536   */\n      tag_129\n        /* \"#utility.yul\":1529:1535   */\n      dup2\n        /* \"#utility.yul\":1524:1527   */\n      dup6\n        /* \"#utility.yul\":1465:1536   */\n      tag_91\n      jump\t// in\n    tag_129:\n        /* \"#utility.yul\":1458:1536   */\n      swap4\n      pop\n        /* \"#utility.yul\":1545:1597   */\n      tag_130\n        /* \"#utility.yul\":1590:1596   */\n      dup2\n        /* \"#utility.yul\":1585:1588   */\n      dup6\n        /* \"#utility.yul\":1578:1582   */\n      0x20\n        /* \"#utility.yul\":1571:1576   */\n      dup7\n        /* \"#utility.yul\":1567:1583   */\n      add\n        /* \"#utility.yul\":1545:1597   */\n      tag_92\n      jump\t// in\n    tag_130:\n        /* \"#utility.yul\":1622:1651   */\n      tag_131\n        /* \"#utility.yul\":1644:1650   */\n      dup2\n        /* \"#utility.yul\":1622:1651   */\n      tag_93\n      jump\t// in\n    tag_131:\n        /* \"#utility.yul\":1617:1620   */\n      dup5\n        /* \"#utility.yul\":1613:1652   */\n      add\n        /* \"#utility.yul\":1606:1652   */\n      swap2\n      pop\n        /* \"#utility.yul\":1386:1658   */\n      pop\n        /* \"#utility.yul\":1294:1658   */\n      swap3\n      swap2\n      pop\n      pop\n      jump\t// out\n        /* \"#utility.yul\":1664:1977   */\n    tag_22:\n        /* \"#utility.yul\":1777:1781   */\n      0x00\n        /* \"#utility.yul\":1815:1817   */\n      0x20\n        /* \"#utility.yul\":1804:1813   */\n      dup3\n        /* \"#utility.yul\":1800:1818   */\n      add\n        /* \"#utility.yul\":1792:1818   */\n      swap1\n      pop\n        /* \"#utility.yul\":1864:1873   */\n      dup2\n        /* \"#utility.yul\":1858:1862   */\n      dup2\n        /* \"#utility.yul\":1854:1874   */\n      sub\n        /* \"#utility.yul\":1850:1851   */\n      0x00\n        /* \"#utility.yul\":1839:1848   */\n      dup4\n        /* \"#utility.yul\":1835:1852   */\n      add\n        /* \"#utility.yul\":1828:1875   */\n      mstore\n        /* \"#utility.yul\":1892:1970   */\n      tag_133\n        /* \"#utility.yul\":1965:1969   */\n      dup2\n        /* \"#utility.yul\":1956:1962   */\n      dup5\n        /* \"#utility.yul\":1892:1970   */\n      tag_94\n      jump\t// in\n    tag_133:\n        /* \"#utility.yul\":1884:1970   */\n      swap1\n      pop\n        /* \"#utility.yul\":1664:1977   */\n      swap3\n      swap2\n      pop\n      pop\n      jump\t// out\n        /* \"#utility.yul\":2064:2181   */\n    tag_96:\n        /* \"#utility.yul\":2173:2174   */\n      0x00\n        /* \"#utility.yul\":2170:2171   */\n      dup1\n        /* \"#utility.yul\":2163:2175   */\n      revert\n        /* \"#utility.yul\":2310:2432   */\n    tag_98:\n        /* \"#utility.yul\":2383:2407   */\n      tag_138\n        /* \"#utility.yul\":2401:2406   */\n      dup2\n        /* \"#utility.yul\":2383:2407   */\n      tag_88\n      jump\t// in\n    tag_138:\n        /* \"#utility.yul\":2376:2381   */\n      dup2\n        /* \"#utility.yul\":2373:2408   */\n      eq\n        /* \"#utility.yul\":2363:2426   */\n      tag_139\n      jumpi\n        /* \"#utility.yul\":2422:2423   */\n      0x00\n        /* \"#utility.yul\":2419:2420   */\n      dup1\n        /* \"#utility.yul\":2412:2424   */\n      revert\n        /* \"#utility.yul\":2363:2426   */\n    tag_139:\n        /* \"#utility.yul\":2310:2432   */\n      pop\n      jump\t// out\n        /* \"#utility.yul\":2438:2577   */\n    tag_99:\n        /* \"#utility.yul\":2484:2489   */\n      0x00\n        /* \"#utility.yul\":2522:2528   */\n      dup2\n        /* \"#utility.yul\":2509:2529   */\n      calldataload\n        /* \"#utility.yul\":2500:2529   */\n      swap1\n      pop\n        /* \"#utility.yul\":2538:2571   */\n      tag_141\n        /* \"#utility.yul\":2565:2570   */\n      dup2\n        /* \"#utility.yul\":2538:2571   */\n      tag_98\n      jump\t// in\n    tag_141:\n        /* \"#utility.yul\":2438:2577   */\n      swap3\n      swap2\n      pop\n      pop\n      jump\t// out\n        /* \"#utility.yul\":2583:2660   */\n    tag_100:\n        /* \"#utility.yul\":2620:2627   */\n      0x00\n        /* \"#utility.yul\":2649:2654   */\n      dup2\n        /* \"#utility.yul\":2638:2654   */\n      swap1\n      pop\n        /* \"#utility.yul\":2583:2660   */\n      swap2\n      swap1\n      pop\n      jump\t// out\n        /* \"#utility.yul\":2666:2788   */\n    tag_101:\n        /* \"#utility.yul\":2739:2763   */\n      tag_144\n        /* \"#utility.yul\":2757:2762   */\n      dup2\n        /* \"#utility.yul\":2739:2763   */\n      tag_100\n      jump\t// in\n    tag_144:\n        /* \"#utility.yul\":2732:2737   */\n      dup2\n        /* \"#utility.yul\":2729:2764   */\n      eq\n        /* \"#utility.yul\":2719:2782   */\n      tag_145\n      jumpi\n        /* \"#utility.yul\":2778:2779   */\n      0x00\n        /* \"#utility.yul\":2775:2776   */\n      dup1\n        /* \"#utility.yul\":2768:2780   */\n      revert\n        /* \"#utility.yul\":2719:2782   */\n    tag_145:\n        /* \"#utility.yul\":2666:2788   */\n      pop\n      jump\t// out\n        /* \"#utility.yul\":2794:2933   */\n    tag_102:\n        /* \"#utility.yul\":2840:2845   */\n      0x00\n        /* \"#utility.yul\":2878:2884   */\n      dup2\n        /* \"#utility.yul\":2865:2885   */\n      calldataload\n        /* \"#utility.yul\":2856:2885   */\n      swap1\n      pop\n        /* \"#utility.yul\":2894:2927   */\n      tag_147\n        /* \"#utility.yul\":2921:2926   */\n      dup2\n        /* \"#utility.yul\":2894:2927   */\n      tag_101\n      jump\t// in\n    tag_147:\n        /* \"#utility.yul\":2794:2933   */\n      swap3\n      swap2\n      pop\n      pop\n      jump\t// out\n        /* \"#utility.yul\":2939:3413   */\n    tag_25:\n        /* \"#utility.yul\":3007:3013   */\n      0x00\n        /* \"#utility.yul\":3015:3021   */\n      dup1\n        /* \"#utility.yul\":3064:3066   */\n      0x40\n        /* \"#utility.yul\":3052:3061   */\n      dup4\n        /* \"#utility.yul\":3043:3050   */\n      dup6\n        /* \"#utility.yul\":3039:3062   */\n      sub\n        /* \"#utility.yul\":3035:3067   */\n      slt\n        /* \"#utility.yul\":3032:3151   */\n      iszero\n      tag_149\n      jumpi\n        /* \"#utility.yul\":3070:3149   */\n      tag_150\n      tag_96\n      jump\t// in\n    tag_150:\n        /* \"#utility.yul\":3032:3151   */\n    tag_149:\n        /* \"#utility.yul\":3190:3191   */\n      0x00\n        /* \"#utility.yul\":3215:3268   */\n      tag_151\n        /* \"#utility.yul\":3260:3267   */\n      dup6\n        /* \"#utility.yul\":3251:3257   */\n      dup3\n        /* \"#utility.yul\":3240:3249   */\n      dup7\n        /* \"#utility.yul\":3236:3258   */\n      add\n        /* \"#utility.yul\":3215:3268   */\n      tag_99\n      jump\t// in\n    tag_151:\n        /* \"#utility.yul\":3205:3268   */\n      swap3\n      pop\n        /* \"#utility.yul\":3161:3278   */\n      pop\n        /* \"#utility.yul\":3317:3319   */\n      0x20\n        /* \"#utility.yul\":3343:3396   */\n      tag_152\n        /* \"#utility.yul\":3388:3395   */\n      dup6\n        /* \"#utility.yul\":3379:3385   */\n      dup3\n        /* \"#utility.yul\":3368:3377   */\n      dup7\n        /* \"#utility.yul\":3364:3386   */\n      add\n        /* \"#utility.yul\":3343:3396   */\n      tag_102\n      jump\t// in\n    tag_152:\n        /* \"#utility.yul\":3333:3396   */\n      swap2\n      pop\n        /* \"#utility.yul\":3288:3406   */\n      pop\n        /* \"#utility.yul\":2939:3413   */\n      swap3\n      pop\n      swap3\n      swap1\n      pop\n      jump\t// out\n        /* \"#utility.yul\":3419:3509   */\n    tag_103:\n        /* \"#utility.yul\":3453:3460   */\n      0x00\n        /* \"#utility.yul\":3496:3501   */\n      dup2\n        /* \"#utility.yul\":3489:3502   */\n      iszero\n        /* \"#utility.yul\":3482:3503   */\n      iszero\n        /* \"#utility.yul\":3471:3503   */\n      swap1\n      pop\n        /* \"#utility.yul\":3419:3509   */\n      swap2\n      swap1\n      pop\n      jump\t// out\n        /* \"#utility.yul\":3515:3624   */\n    tag_104:\n        /* \"#utility.yul\":3596:3617   */\n      tag_155\n        /* \"#utility.yul\":3611:3616   */\n      dup2\n        /* \"#utility.yul\":3596:3617   */\n      tag_103\n      jump\t// in\n    tag_155:\n        /* \"#utility.yul\":3591:3594   */\n      dup3\n        /* \"#utility.yul\":3584:3618   */\n      mstore\n        /* \"#utility.yul\":3515:3624   */\n      pop\n      pop\n      jump\t// out\n        /* \"#utility.yul\":3630:3840   */\n    tag_28:\n        /* \"#utility.yul\":3717:3721   */\n      0x00\n        /* \"#utility.yul\":3755:3757   */\n      0x20\n        /* \"#utility.yul\":3744:3753   */\n      dup3\n        /* \"#utility.yul\":3740:3758   */\n      add\n        /* \"#utility.yul\":3732:3758   */\n      swap1\n      pop\n        /* \"#utility.yul\":3768:3833   */\n      tag_157\n        /* \"#utility.yul\":3830:3831   */\n      0x00\n        /* \"#utility.yul\":3819:3828   */\n      dup4\n        /* \"#utility.yul\":3815:3832   */\n      add\n        /* \"#utility.yul\":3806:3812   */\n      dup5\n        /* \"#utility.yul\":3768:3833   */\n      tag_104\n      jump\t// in\n    tag_157:\n        /* \"#utility.yul\":3630:3840   */\n      swap3\n      swap2\n      pop\n      pop\n      jump\t// out\n        /* \"#utility.yul\":3846:3964   */\n    tag_105:\n        /* \"#utility.yul\":3933:3957   */\n      tag_159\n        /* \"#utility.yul\":3951:3956   */\n      dup2\n        /* \"#utility.yul\":3933:3957   */\n      tag_100\n      jump\t// in\n    tag_159:\n        /* \"#utility.yul\":3928:3931   */\n      dup3\n        /* \"#utility.yul\":3921:3958   */\n      mstore\n        /* \"#utility.yul\":3846:3964   */\n      pop\n      pop\n      jump\t// out\n        /* \"#utility.yul\":3970:4192   */\n    tag_32:\n        /* \"#utility.yul\":4063:4067   */\n      0x00\n        /* \"#utility.yul\":4101:4103   */\n      0x20\n        /* \"#utility.yul\":4090:4099   */\n      dup3\n        /* \"#utility.yul\":4086:4104   */\n      add\n        /* \"#utility.yul\":4078:4104   */\n      swap1\n      pop\n        /* \"#utility.yul\":4114:4185   */\n      tag_161\n        /* \"#utility.yul\":4182:4183   */\n      0x00\n        /* \"#utility.yul\":4171:4180   */\n      dup4\n        /* \"#utility.yul\":4167:4184   */\n      add\n        /* \"#utility.yul\":4158:4164   */\n      dup5\n        /* \"#utility.yul\":4114:4185   */\n      tag_105\n      jump\t// in\n    tag_161:\n        /* \"#utility.yul\":3970:4192   */\n      swap3\n      swap2\n      pop\n      pop\n      jump\t// out\n        /* \"#utility.yul\":4198:4817   */\n    tag_35:\n        /* \"#utility.yul\":4275:4281   */\n      0x00\n        /* \"#utility.yul\":4283:4289   */\n      dup1\n        /* \"#utility.yul\":4291:4297   */\n      0x00\n        /* \"#utility.yul\":4340:4342   */\n      0x60\n        /* \"#utility.yul\":4328:4337   */\n      dup5\n        /* \"#utility.yul\":4319:4326   */\n      dup7\n        /* \"#utility.yul\":4315:4338   */\n      sub\n        /* \"#utility.yul\":4311:4343   */\n      slt\n        /* \"#utility.yul\":4308:4427   */\n      iszero\n      tag_163\n      jumpi\n        /* \"#utility.yul\":4346:4425   */\n      tag_164\n      tag_96\n      jump\t// in\n    tag_164:\n        /* \"#utility.yul\":4308:4427   */\n    tag_163:\n        /* \"#utility.yul\":4466:4467   */\n      0x00\n        /* \"#utility.yul\":4491:4544   */\n      tag_165\n        /* \"#utility.yul\":4536:4543   */\n      dup7\n        /* \"#utility.yul\":4527:4533   */\n      dup3\n        /* \"#utility.yul\":4516:4525   */\n      dup8\n        /* \"#utility.yul\":4512:4534   */\n      add\n        /* \"#utility.yul\":4491:4544   */\n      tag_99\n      jump\t// in\n    tag_165:\n        /* \"#utility.yul\":4481:4544   */\n      swap4\n      pop\n        /* \"#utility.yul\":4437:4554   */\n      pop\n        /* \"#utility.yul\":4593:4595   */\n      0x20\n        /* \"#utility.yul\":4619:4672   */\n      tag_166\n        /* \"#utility.yul\":4664:4671   */\n      dup7\n        /* \"#utility.yul\":4655:4661   */\n      dup3\n        /* \"#utility.yul\":4644:4653   */\n      dup8\n        /* \"#utility.yul\":4640:4662   */\n      add\n        /* \"#utility.yul\":4619:4672   */\n      tag_99\n      jump\t// in\n    tag_166:\n        /* \"#utility.yul\":4609:4672   */\n      swap3\n      pop\n        /* \"#utility.yul\":4564:4682   */\n      pop\n        /* \"#utility.yul\":4721:4723   */\n      0x40\n        /* \"#utility.yul\":4747:4800   */\n      tag_167\n        /* \"#utility.yul\":4792:4799   */\n      dup7\n        /* \"#utility.yul\":4783:4789   */\n      dup3\n        /* \"#utility.yul\":4772:4781   */\n      dup8\n        /* \"#utility.yul\":4768:4790   */\n      add\n        /* \"#utility.yul\":4747:4800   */\n      tag_102\n      jump\t// in\n    tag_167:\n        /* \"#utility.yul\":4737:4800   */\n      swap2\n      pop\n        /* \"#utility.yul\":4692:4810   */\n      pop\n        /* \"#utility.yul\":4198:4817   */\n      swap3\n      pop\n      swap3\n      pop\n      swap3\n      jump\t// out\n        /* \"#utility.yul\":4823:4909   */\n    tag_106:\n        /* \"#utility.yul\":4858:4865   */\n      0x00\n        /* \"#utility.yul\":4898:4902   */\n      0xff\n        /* \"#utility.yul\":4891:4896   */\n      dup3\n        /* \"#utility.yul\":4887:4903   */\n      and\n        /* \"#utility.yul\":4876:4903   */\n      swap1\n      pop\n        /* \"#utility.yul\":4823:4909   */\n      swap2\n      swap1\n      pop\n      jump\t// out\n        /* \"#utility.yul\":4915:5027   */\n    tag_107:\n        /* \"#utility.yul\":4998:5020   */\n      tag_170\n        /* \"#utility.yul\":5014:5019   */\n      dup2\n        /* \"#utility.yul\":4998:5020   */\n      tag_106\n      jump\t// in\n    tag_170:\n        /* \"#utility.yul\":4993:4996   */\n      dup3\n        /* \"#utility.yul\":4986:5021   */\n      mstore\n        /* \"#utility.yul\":4915:5027   */\n      pop\n      pop\n      jump\t// out\n        /* \"#utility.yul\":5033:5247   */\n    tag_41:\n        /* \"#utility.yul\":5122:5126   */\n      0x00\n        /* \"#utility.yul\":5160:5162   */\n      0x20\n        /* \"#utility.yul\":5149:5158   */\n      dup3\n        /* \"#utility.yul\":5145:5163   */\n      add\n        /* \"#utility.yul\":5137:5163   */\n      swap1\n      pop\n        /* \"#utility.yul\":5173:5240   */\n      tag_172\n        /* \"#utility.yul\":5237:5238   */\n      0x00\n        /* \"#utility.yul\":5226:5235   */\n      dup4\n        /* \"#utility.yul\":5222:5239   */\n      add\n        /* \"#utility.yul\":5213:5219   */\n      dup5\n        /* \"#utility.yul\":5173:5240   */\n      tag_107\n      jump\t// in\n    tag_172:\n        /* \"#utility.yul\":5033:5247   */\n      swap3\n      swap2\n      pop\n      pop\n      jump\t// out\n        /* \"#utility.yul\":5253:5582   */\n    tag_44:\n        /* \"#utility.yul\":5312:5318   */\n      0x00\n        /* \"#utility.yul\":5361:5363   */\n      0x20\n        /* \"#utility.yul\":5349:5358   */\n      dup3\n        /* \"#utility.yul\":5340:5347   */\n      dup5\n        /* \"#utility.yul\":5336:5359   */\n      sub\n        /* \"#utility.yul\":5332:5364   */\n      slt\n        /* \"#utility.yul\":5329:5448   */\n      iszero\n      tag_174\n      jumpi\n        /* \"#utility.yul\":5367:5446   */\n      tag_175\n      tag_96\n      jump\t// in\n    tag_175:\n        /* \"#utility.yul\":5329:5448   */\n    tag_174:\n        /* \"#utility.yul\":5487:5488   */\n      0x00\n        /* \"#utility.yul\":5512:5565   */\n      tag_176\n        /* \"#utility.yul\":5557:5564   */\n      dup5\n        /* \"#utility.yul\":5548:5554   */\n      dup3\n        /* \"#utility.yul\":5537:5546   */\n      dup6\n        /* \"#utility.yul\":5533:5555   */\n      add\n        /* \"#utility.yul\":5512:5565   */\n      tag_99\n      jump\t// in\n    tag_176:\n        /* \"#utility.yul\":5502:5565   */\n      swap2\n      pop\n        /* \"#utility.yul\":5458:5575   */\n      pop\n        /* \"#utility.yul\":5253:5582   */\n      swap3\n      swap2\n      pop\n      pop\n      jump\t// out\n        /* \"#utility.yul\":5588:6062   */\n    tag_59:\n        /* \"#utility.yul\":5656:5662   */\n      0x00\n        /* \"#utility.yul\":5664:5670   */\n      dup1\n        /* \"#utility.yul\":5713:5715   */\n      0x40\n        /* \"#utility.yul\":5701:5710   */\n      dup4\n        /* \"#utility.yul\":5692:5699   */\n      dup6\n        /* \"#utility.yul\":5688:5711   */\n      sub\n        /* \"#utility.yul\":5684:5716   */\n      slt\n        /* \"#utility.yul\":5681:5800   */\n      iszero\n      tag_178\n      jumpi\n        /* \"#utility.yul\":5719:5798   */\n      tag_179\n      tag_96\n      jump\t// in\n    tag_179:\n        /* \"#utility.yul\":5681:5800   */\n    tag_178:\n        /* \"#utility.yul\":5839:5840   */\n      0x00\n        /* \"#utility.yul\":5864:5917   */\n      tag_180\n        /* \"#utility.yul\":5909:5916   */\n      dup6\n        /* \"#utility.yul\":5900:5906   */\n      dup3\n        /* \"#utility.yul\":5889:5898   */\n      dup7\n        /* \"#utility.yul\":5885:5907   */\n      add\n        /* \"#utility.yul\":5864:5917   */\n      tag_99\n      jump\t// in\n    tag_180:\n        /* \"#utility.yul\":5854:5917   */\n      swap3\n      pop\n        /* \"#utility.yul\":5810:5927   */\n      pop\n        /* \"#utility.yul\":5966:5968   */\n      0x20\n        /* \"#utility.yul\":5992:6045   */\n      tag_181\n        /* \"#utility.yul\":6037:6044   */\n      dup6\n        /* \"#utility.yul\":6028:6034   */\n      dup3\n        /* \"#utility.yul\":6017:6026   */\n      dup7\n        /* \"#utility.yul\":6013:6035   */\n      add\n        /* \"#utility.yul\":5992:6045   */\n      tag_99\n      jump\t// in\n    tag_181:\n        /* \"#utility.yul\":5982:6045   */\n      swap2\n      pop\n        /* \"#utility.yul\":5937:6055   */\n      pop\n        /* \"#utility.yul\":5588:6062   */\n      swap3\n      pop\n      swap3\n      swap1\n      pop\n      jump\t// out\n        /* \"#utility.yul\":6068:6248   */\n    tag_108:\n        /* \"#utility.yul\":6116:6193   */\n      0x4e487b7100000000000000000000000000000000000000000000000000000000\n        /* \"#utility.yul\":6113:6114   */\n      0x00\n        /* \"#utility.yul\":6106:6194   */\n      mstore\n        /* \"#utility.yul\":6213:6217   */\n      0x11\n        /* \"#utility.yul\":6210:6211   */\n      0x04\n        /* \"#utility.yul\":6203:6218   */\n      mstore\n        /* \"#utility.yul\":6237:6241   */\n      0x24\n        /* \"#utility.yul\":6234:6235   */\n      0x00\n        /* \"#utility.yul\":6227:6242   */\n      revert\n        /* \"#utility.yul\":6254:6445   */\n    tag_70:\n        /* \"#utility.yul\":6294:6298   */\n      0x00\n        /* \"#utility.yul\":6314:6334   */\n      tag_184\n        /* \"#utility.yul\":6332:6333   */\n      dup3\n        /* \"#utility.yul\":6314:6334   */\n      tag_100\n      jump\t// in\n    tag_184:\n        /* \"#utility.yul\":6309:6334   */\n      swap2\n      pop\n        /* \"#utility.yul\":6348:6368   */\n      tag_185\n        /* \"#utility.yul\":6366:6367   */\n      dup4\n        /* \"#utility.yul\":6348:6368   */\n      tag_100\n      jump\t// in\n    tag_185:\n        /* \"#utility.yul\":6343:6368   */\n      swap3\n      pop\n        /* \"#utility.yul\":6387:6388   */\n      dup3\n        /* \"#utility.yul\":6384:6385   */\n      dup3\n        /* \"#utility.yul\":6381:6389   */\n      lt\n        /* \"#utility.yul\":6378:6412   */\n      iszero\n      tag_186\n      jumpi\n        /* \"#utility.yul\":6392:6410   */\n      tag_187\n      tag_108\n      jump\t// in\n    tag_187:\n        /* \"#utility.yul\":6378:6412   */\n    tag_186:\n        /* \"#utility.yul\":6437:6438   */\n      dup3\n        /* \"#utility.yul\":6434:6435   */\n      dup3\n        /* \"#utility.yul\":6430:6439   */\n      sub\n        /* \"#utility.yul\":6422:6439   */\n      swap1\n      pop\n        /* \"#utility.yul\":6254:6445   */\n      swap3\n      swap2\n      pop\n      pop\n      jump\t// out\n        /* \"#utility.yul\":6451:6756   */\n    tag_73:\n        /* \"#utility.yul\":6491:6494   */\n      0x00\n        /* \"#utility.yul\":6510:6530   */\n      tag_189\n        /* \"#utility.yul\":6528:6529   */\n      dup3\n        /* \"#utility.yul\":6510:6530   */\n      tag_100\n      jump\t// in\n    tag_189:\n        /* \"#utility.yul\":6505:6530   */\n      swap2\n      pop\n        /* \"#utility.yul\":6544:6564   */\n      tag_190\n        /* \"#utility.yul\":6562:6563   */\n      dup4\n        /* \"#utility.yul\":6544:6564   */\n      tag_100\n      jump\t// in\n    tag_190:\n        /* \"#utility.yul\":6539:6564   */\n      swap3\n      pop\n        /* \"#utility.yul\":6698:6699   */\n      dup3\n        /* \"#utility.yul\":6630:6696   */\n      0xffffffffffffffffffffffffffffffffffffffffffffffffffffffffffffffff\n        /* \"#utility.yul\":6626:6700   */\n      sub\n        /* \"#utility.yul\":6623:6624   */\n      dup3\n        /* \"#utility.yul\":6620:6701   */\n      gt\n        /* \"#utility.yul\":6617:6724   */\n      iszero\n      tag_191\n      jumpi\n        /* \"#utility.yul\":6704:6722   */\n      tag_192\n      tag_108\n      jump\t// in\n    tag_192:\n        /* \"#utility.yul\":6617:6724   */\n    tag_191:\n        /* \"#utility.yul\":6748:6749   */\n      dup3\n        /* \"#utility.yul\":6745:6746   */\n      dup3\n        /* \"#utility.yul\":6741:6750   */\n      add\n        /* \"#utility.yul\":6734:6750   */\n      swap1\n      pop\n        /* \"#utility.yul\":6451:6756   */\n      swap3\n      swap2\n      pop\n      pop\n      jump\t// out\n        /* \"#utility.yul\":6762:6929   */\n    tag_109:\n        /* \"#utility.yul\":6902:6921   */\n      0x796f7520417265204e6f74204f776e6572000000000000000000000000000000\n        /* \"#utility.yul\":6898:6899   */\n      0x00\n        /* \"#utility.yul\":6890:6896   */\n      dup3\n        /* \"#utility.yul\":6886:6900   */\n      add\n        /* \"#utility.yul\":6879:6922   */\n      mstore\n        /* \"#utility.yul\":6762:6929   */\n      pop\n      jump\t// out\n        /* \"#utility.yul\":6935:7301   */\n    tag_110:\n        /* \"#utility.yul\":7077:7080   */\n      0x00\n        /* \"#utility.yul\":7098:7165   */\n      tag_195\n        /* \"#utility.yul\":7162:7164   */\n      0x11\n        /* \"#utility.yul\":7157:7160   */\n      dup4\n        /* \"#utility.yul\":7098:7165   */\n      tag_91\n      jump\t// in\n    tag_195:\n        /* \"#utility.yul\":7091:7165   */\n      swap2\n      pop\n        /* \"#utility.yul\":7174:7267   */\n      tag_196\n        /* \"#utility.yul\":7263:7266   */\n      dup3\n        /* \"#utility.yul\":7174:7267   */\n      tag_109\n      jump\t// in\n    tag_196:\n        /* \"#utility.yul\":7292:7294   */\n      0x20\n        /* \"#utility.yul\":7287:7290   */\n      dup3\n        /* \"#utility.yul\":7283:7295   */\n      add\n        /* \"#utility.yul\":7276:7295   */\n      swap1\n      pop\n        /* \"#utility.yul\":6935:7301   */\n      swap2\n      swap1\n      pop\n      jump\t// out\n        /* \"#utility.yul\":7307:7726   */\n    tag_84:\n        /* \"#utility.yul\":7473:7477   */\n      0x00\n        /* \"#utility.yul\":7511:7513   */\n      0x20\n        /* \"#utility.yul\":7500:7509   */\n      dup3\n        /* \"#utility.yul\":7496:7514   */\n      add\n        /* \"#utility.yul\":7488:7514   */\n      swap1\n      pop\n        /* \"#utility.yul\":7560:7569   */\n      dup2\n        /* \"#utility.yul\":7554:7558   */\n      dup2\n        /* \"#utility.yul\":7550:7570   */\n      sub\n        /* \"#utility.yul\":7546:7547   */\n      0x00\n        /* \"#utility.yul\":7535:7544   */\n      dup4\n        /* \"#utility.yul\":7531:7548   */\n      add\n        /* \"#utility.yul\":7524:7571   */\n      mstore\n        /* \"#utility.yul\":7588:7719   */\n      tag_198\n        /* \"#utility.yul\":7714:7718   */\n      dup2\n        /* \"#utility.yul\":7588:7719   */\n      tag_110\n      jump\t// in\n    tag_198:\n        /* \"#utility.yul\":7580:7719   */\n      swap1\n      pop\n        /* \"#utility.yul\":7307:7726   */\n      swap2\n      swap1\n      pop\n      jump\t// out\n\n    auxdata: 0xa2646970667358221220165e3af716b3df2c49f993e670c5cdb5901716dbe7eef2c400028b16a2d0c3c664736f6c634300080e0033\n}\n",
				"bytecode": {
					"linkReferences": {},
					"object": "6080604052336000806101000a81548173ffffffffffffffffffffffffffffffffffffffff021916908373ffffffffffffffffffffffffffffffffffffffff1602179055506103e860035534801561005657600080fd5b50600354600160008060009054906101000a900473ffffffffffffffffffffffffffffffffffffffff1673ffffffffffffffffffffffffffffffffffffffff1673ffffffffffffffffffffffffffffffffffffffff16815260200190815260200160002081905550610f41806100cd6000396000f3fe608060405234801561001057600080fd5b50600436106100a95760003560e01c8063313ce56711610071578063313ce5671461016857806370a082311461018657806395d89b41146101b6578063a9059cbb146101d4578063cfaaa26614610204578063dd62ed3e14610220576100a9565b8063019c08f5146100ae57806306fdde03146100cc578063095ea7b3146100ea57806318160ddd1461011a57806323b872dd14610138575b600080fd5b6100b6610250565b6040516100c39190610b12565b60405180910390f35b6100d4610279565b6040516100e19190610bc6565b60405180910390f35b61010460048036038101906100ff9190610c4f565b6102b2565b6040516101119190610caa565b60405180910390f35b6101226103a4565b60405161012f9190610cd4565b60405180910390f35b610152600480360381019061014d9190610cef565b6103ae565b60405161015f9190610caa565b60405180910390f35b610170610719565b60405161017d9190610d5e565b60405180910390f35b6101a0600480360381019061019b9190610d79565b61071e565b6040516101ad9190610cd4565b60405180910390f35b6101be610767565b6040516101cb9190610bc6565b60405180910390f35b6101ee60048036038101906101e99190610c4f565b6107a0565b6040516101fb9190610caa565b60405180910390f35b61021e60048036038101906102199190610d79565b610979565b005b61023a60048036038101906102359190610da6565b610a4a565b6040516102479190610cd4565b60405180910390f35b60008060009054906101000a900473ffffffffffffffffffffffffffffffffffffffff16905090565b6040518060400160405280600a81526020017f455243323042617369630000000000000000000000000000000000000000000081525081565b600081600260003373ffffffffffffffffffffffffffffffffffffffff1673ffffffffffffffffffffffffffffffffffffffff16815260200190815260200160002060008573ffffffffffffffffffffffffffffffffffffffff1673ffffffffffffffffffffffffffffffffffffffff168152602001908152602001600020819055508273ffffffffffffffffffffffffffffffffffffffff163373ffffffffffffffffffffffffffffffffffffffff167f8c5be1e5ebec7d5bd14f71427d1e84f3dd0314c0f7b2291e5b200ac8c7c3b925846040516103929190610cd4565b60405180910390a36001905092915050565b6000600354905090565b6000600160008573ffffffffffffffffffffffffffffffffffffffff1673ffffffffffffffffffffffffffffffffffffffff168152602001908152602001600020548211156103fc57600080fd5b600260008573ffffffffffffffffffffffffffffffffffffffff1673ffffffffffffffffffffffffffffffffffffffff16815260200190815260200160002060003373ffffffffffffffffffffffffffffffffffffffff1673ffffffffffffffffffffffffffffffffffffffff1681526020019081526020016000205482111561048557600080fd5b81600160008673ffffffffffffffffffffffffffffffffffffffff1673ffffffffffffffffffffffffffffffffffffffff168152602001908152602001600020546104d09190610e15565b600160008673ffffffffffffffffffffffffffffffffffffffff1673ffffffffffffffffffffffffffffffffffffffff1681526020019081526020016000208190555081600260008673ffffffffffffffffffffffffffffffffffffffff1673ffffffffffffffffffffffffffffffffffffffff16815260200190815260200160002060003373ffffffffffffffffffffffffffffffffffffffff1673ffffffffffffffffffffffffffffffffffffffff1681526020019081526020016000205461059b9190610e15565b600260008673ffffffffffffffffffffffffffffffffffffffff1673ffffffffffffffffffffffffffffffffffffffff16815260200190815260200160002060003373ffffffffffffffffffffffffffffffffffffffff1673ffffffffffffffffffffffffffffffffffffffff1681526020019081526020016000208190555081600160008573ffffffffffffffffffffffffffffffffffffffff1673ffffffffffffffffffffffffffffffffffffffff168152602001908152602001600020546106669190610e49565b600160008573ffffffffffffffffffffffffffffffffffffffff1673ffffffffffffffffffffffffffffffffffffffff168152602001908152602001600020819055508273ffffffffffffffffffffffffffffffffffffffff168473ffffffffffffffffffffffffffffffffffffffff167fddf252ad1be2c89b69c2b068fc378daa952ba7f163c4a11628f55a4df523b3ef846040516107069190610cd4565b60405180910390a3600190509392505050565b601281565b6000600160008373ffffffffffffffffffffffffffffffffffffffff1673ffffffffffffffffffffffffffffffffffffffff168152602001908152602001600020549050919050565b6040518060400160405280600381526020017f455243000000000000000000000000000000000000000000000000000000000081525081565b6000600160003373ffffffffffffffffffffffffffffffffffffffff1673ffffffffffffffffffffffffffffffffffffffff168152602001908152602001600020548211156107ee57600080fd5b81600160003373ffffffffffffffffffffffffffffffffffffffff1673ffffffffffffffffffffffffffffffffffffffff168152602001908152602001600020546108399190610e15565b600160003373ffffffffffffffffffffffffffffffffffffffff1673ffffffffffffffffffffffffffffffffffffffff1681526020019081526020016000208190555081600160008573ffffffffffffffffffffffffffffffffffffffff1673ffffffffffffffffffffffffffffffffffffffff168152602001908152602001600020546108c79190610e49565b600160008573ffffffffffffffffffffffffffffffffffffffff1673ffffffffffffffffffffffffffffffffffffffff168152602001908152602001600020819055508273ffffffffffffffffffffffffffffffffffffffff163373ffffffffffffffffffffffffffffffffffffffff167fddf252ad1be2c89b69c2b068fc378daa952ba7f163c4a11628f55a4df523b3ef846040516109679190610cd4565b60405180910390a36001905092915050565b3373ffffffffffffffffffffffffffffffffffffffff1660008054906101000a900473ffffffffffffffffffffffffffffffffffffffff1673ffffffffffffffffffffffffffffffffffffffff1614610a07576040517f08c379a00000000000000000000000000000000000000000000000000000000081526004016109fe90610eeb565b60405180910390fd5b806000806101000a81548173ffffffffffffffffffffffffffffffffffffffff021916908373ffffffffffffffffffffffffffffffffffffffff16021790555050565b6000600260008473ffffffffffffffffffffffffffffffffffffffff1673ffffffffffffffffffffffffffffffffffffffff16815260200190815260200160002060008373ffffffffffffffffffffffffffffffffffffffff1673ffffffffffffffffffffffffffffffffffffffff16815260200190815260200160002054905092915050565b600073ffffffffffffffffffffffffffffffffffffffff82169050919050565b6000610afc82610ad1565b9050919050565b610b0c81610af1565b82525050565b6000602082019050610b276000830184610b03565b92915050565b600081519050919050565b600082825260208201905092915050565b60005b83811015610b67578082015181840152602081019050610b4c565b83811115610b76576000848401525b50505050565b6000601f19601f8301169050919050565b6000610b9882610b2d565b610ba28185610b38565b9350610bb2818560208601610b49565b610bbb81610b7c565b840191505092915050565b60006020820190508181036000830152610be08184610b8d565b905092915050565b600080fd5b610bf681610af1565b8114610c0157600080fd5b50565b600081359050610c1381610bed565b92915050565b6000819050919050565b610c2c81610c19565b8114610c3757600080fd5b50565b600081359050610c4981610c23565b92915050565b60008060408385031215610c6657610c65610be8565b5b6000610c7485828601610c04565b9250506020610c8585828601610c3a565b9150509250929050565b60008115159050919050565b610ca481610c8f565b82525050565b6000602082019050610cbf6000830184610c9b565b92915050565b610cce81610c19565b82525050565b6000602082019050610ce96000830184610cc5565b92915050565b600080600060608486031215610d0857610d07610be8565b5b6000610d1686828701610c04565b9350506020610d2786828701610c04565b9250506040610d3886828701610c3a565b9150509250925092565b600060ff82169050919050565b610d5881610d42565b82525050565b6000602082019050610d736000830184610d4f565b92915050565b600060208284031215610d8f57610d8e610be8565b5b6000610d9d84828501610c04565b91505092915050565b60008060408385031215610dbd57610dbc610be8565b5b6000610dcb85828601610c04565b9250506020610ddc85828601610c04565b9150509250929050565b7f4e487b7100000000000000000000000000000000000000000000000000000000600052601160045260246000fd5b6000610e2082610c19565b9150610e2b83610c19565b925082821015610e3e57610e3d610de6565b5b828203905092915050565b6000610e5482610c19565b9150610e5f83610c19565b9250827fffffffffffffffffffffffffffffffffffffffffffffffffffffffffffffffff03821115610e9457610e93610de6565b5b828201905092915050565b7f796f7520417265204e6f74204f776e6572000000000000000000000000000000600082015250565b6000610ed5601183610b38565b9150610ee082610e9f565b602082019050919050565b60006020820190508181036000830152610f0481610ec8565b905091905056fea2646970667358221220165e3af716b3df2c49f993e670c5cdb5901716dbe7eef2c400028b16a2d0c3c664736f6c634300080e0033",
					"opcodes": "PUSH1 0x80 PUSH1 0x40 MSTORE CALLER PUSH1 0x0 DUP1 PUSH2 0x100 EXP DUP2 SLOAD DUP2 PUSH20 0xFFFFFFFFFFFFFFFFFFFFFFFFFFFFFFFFFFFFFFFF MUL NOT AND SWAP1 DUP4 PUSH20 0xFFFFFFFFFFFFFFFFFFFFFFFFFFFFFFFFFFFFFFFF AND MUL OR SWAP1 SSTORE POP PUSH2 0x3E8 PUSH1 0x3 SSTORE CALLVALUE DUP1 ISZERO PUSH2 0x56 JUMPI PUSH1 0x0 DUP1 REVERT JUMPDEST POP PUSH1 0x3 SLOAD PUSH1 0x1 PUSH1 0x0 DUP1 PUSH1 0x0 SWAP1 SLOAD SWAP1 PUSH2 0x100 EXP SWAP1 DIV PUSH20 0xFFFFFFFFFFFFFFFFFFFFFFFFFFFFFFFFFFFFFFFF AND PUSH20 0xFFFFFFFFFFFFFFFFFFFFFFFFFFFFFFFFFFFFFFFF AND PUSH20 0xFFFFFFFFFFFFFFFFFFFFFFFFFFFFFFFFFFFFFFFF AND DUP2 MSTORE PUSH1 0x20 ADD SWAP1 DUP2 MSTORE PUSH1 0x20 ADD PUSH1 0x0 KECCAK256 DUP2 SWAP1 SSTORE POP PUSH2 0xF41 DUP1 PUSH2 0xCD PUSH1 0x0 CODECOPY PUSH1 0x0 RETURN INVALID PUSH1 0x80 PUSH1 0x40 MSTORE CALLVALUE DUP1 ISZERO PUSH2 0x10 JUMPI PUSH1 0x0 DUP1 REVERT JUMPDEST POP PUSH1 0x4 CALLDATASIZE LT PUSH2 0xA9 JUMPI PUSH1 0x0 CALLDATALOAD PUSH1 0xE0 SHR DUP1 PUSH4 0x313CE567 GT PUSH2 0x71 JUMPI DUP1 PUSH4 0x313CE567 EQ PUSH2 0x168 JUMPI DUP1 PUSH4 0x70A08231 EQ PUSH2 0x186 JUMPI DUP1 PUSH4 0x95D89B41 EQ PUSH2 0x1B6 JUMPI DUP1 PUSH4 0xA9059CBB EQ PUSH2 0x1D4 JUMPI DUP1 PUSH4 0xCFAAA266 EQ PUSH2 0x204 JUMPI DUP1 PUSH4 0xDD62ED3E EQ PUSH2 0x220 JUMPI PUSH2 0xA9 JUMP JUMPDEST DUP1 PUSH4 0x19C08F5 EQ PUSH2 0xAE JUMPI DUP1 PUSH4 0x6FDDE03 EQ PUSH2 0xCC JUMPI DUP1 PUSH4 0x95EA7B3 EQ PUSH2 0xEA JUMPI DUP1 PUSH4 0x18160DDD EQ PUSH2 0x11A JUMPI DUP1 PUSH4 0x23B872DD EQ PUSH2 0x138 JUMPI JUMPDEST PUSH1 0x0 DUP1 REVERT JUMPDEST PUSH2 0xB6 PUSH2 0x250 JUMP JUMPDEST PUSH1 0x40 MLOAD PUSH2 0xC3 SWAP2 SWAP1 PUSH2 0xB12 JUMP JUMPDEST PUSH1 0x40 MLOAD DUP1 SWAP2 SUB SWAP1 RETURN JUMPDEST PUSH2 0xD4 PUSH2 0x279 JUMP JUMPDEST PUSH1 0x40 MLOAD PUSH2 0xE1 SWAP2 SWAP1 PUSH2 0xBC6 JUMP JUMPDEST PUSH1 0x40 MLOAD DUP1 SWAP2 SUB SWAP1 RETURN JUMPDEST PUSH2 0x104 PUSH1 0x4 DUP1 CALLDATASIZE SUB DUP2 ADD SWAP1 PUSH2 0xFF SWAP2 SWAP1 PUSH2 0xC4F JUMP JUMPDEST PUSH2 0x2B2 JUMP JUMPDEST PUSH1 0x40 MLOAD PUSH2 0x111 SWAP2 SWAP1 PUSH2 0xCAA JUMP JUMPDEST PUSH1 0x40 MLOAD DUP1 SWAP2 SUB SWAP1 RETURN JUMPDEST PUSH2 0x122 PUSH2 0x3A4 JUMP JUMPDEST PUSH1 0x40 MLOAD PUSH2 0x12F SWAP2 SWAP1 PUSH2 0xCD4 JUMP JUMPDEST PUSH1 0x40 MLOAD DUP1 SWAP2 SUB SWAP1 RETURN JUMPDEST PUSH2 0x152 PUSH1 0x4 DUP1 CALLDATASIZE SUB DUP2 ADD SWAP1 PUSH2 0x14D SWAP2 SWAP1 PUSH2 0xCEF JUMP JUMPDEST PUSH2 0x3AE JUMP JUMPDEST PUSH1 0x40 MLOAD PUSH2 0x15F SWAP2 SWAP1 PUSH2 0xCAA JUMP JUMPDEST PUSH1 0x40 MLOAD DUP1 SWAP2 SUB SWAP1 RETURN JUMPDEST PUSH2 0x170 PUSH2 0x719 JUMP JUMPDEST PUSH1 0x40 MLOAD PUSH2 0x17D SWAP2 SWAP1 PUSH2 0xD5E JUMP JUMPDEST PUSH1 0x40 MLOAD DUP1 SWAP2 SUB SWAP1 RETURN JUMPDEST PUSH2 0x1A0 PUSH1 0x4 DUP1 CALLDATASIZE SUB DUP2 ADD SWAP1 PUSH2 0x19B SWAP2 SWAP1 PUSH2 0xD79 JUMP JUMPDEST PUSH2 0x71E JUMP JUMPDEST PUSH1 0x40 MLOAD PUSH2 0x1AD SWAP2 SWAP1 PUSH2 0xCD4 JUMP JUMPDEST PUSH1 0x40 MLOAD DUP1 SWAP2 SUB SWAP1 RETURN JUMPDEST PUSH2 0x1BE PUSH2 0x767 JUMP JUMPDEST PUSH1 0x40 MLOAD PUSH2 0x1CB SWAP2 SWAP1 PUSH2 0xBC6 JUMP JUMPDEST PUSH1 0x40 MLOAD DUP1 SWAP2 SUB SWAP1 RETURN JUMPDEST PUSH2 0x1EE PUSH1 0x4 DUP1 CALLDATASIZE SUB DUP2 ADD SWAP1 PUSH2 0x1E9 SWAP2 SWAP1 PUSH2 0xC4F JUMP JUMPDEST PUSH2 0x7A0 JUMP JUMPDEST PUSH1 0x40 MLOAD PUSH2 0x1FB SWAP2 SWAP1 PUSH2 0xCAA JUMP JUMPDEST PUSH1 0x40 MLOAD DUP1 SWAP2 SUB SWAP1 RETURN JUMPDEST PUSH2 0x21E PUSH1 0x4 DUP1 CALLDATASIZE SUB DUP2 ADD SWAP1 PUSH2 0x219 SWAP2 SWAP1 PUSH2 0xD79 JUMP JUMPDEST PUSH2 0x979 JUMP JUMPDEST STOP JUMPDEST PUSH2 0x23A PUSH1 0x4 DUP1 CALLDATASIZE SUB DUP2 ADD SWAP1 PUSH2 0x235 SWAP2 SWAP1 PUSH2 0xDA6 JUMP JUMPDEST PUSH2 0xA4A JUMP JUMPDEST PUSH1 0x40 MLOAD PUSH2 0x247 SWAP2 SWAP1 PUSH2 0xCD4 JUMP JUMPDEST PUSH1 0x40 MLOAD DUP1 SWAP2 SUB SWAP1 RETURN JUMPDEST PUSH1 0x0 DUP1 PUSH1 0x0 SWAP1 SLOAD SWAP1 PUSH2 0x100 EXP SWAP1 DIV PUSH20 0xFFFFFFFFFFFFFFFFFFFFFFFFFFFFFFFFFFFFFFFF AND SWAP1 POP SWAP1 JUMP JUMPDEST PUSH1 0x40 MLOAD DUP1 PUSH1 0x40 ADD PUSH1 0x40 MSTORE DUP1 PUSH1 0xA DUP2 MSTORE PUSH1 0x20 ADD PUSH32 0x4552433230426173696300000000000000000000000000000000000000000000 DUP2 MSTORE POP DUP2 JUMP JUMPDEST PUSH1 0x0 DUP2 PUSH1 0x2 PUSH1 0x0 CALLER PUSH20 0xFFFFFFFFFFFFFFFFFFFFFFFFFFFFFFFFFFFFFFFF AND PUSH20 0xFFFFFFFFFFFFFFFFFFFFFFFFFFFFFFFFFFFFFFFF AND DUP2 MSTORE PUSH1 0x20 ADD SWAP1 DUP2 MSTORE PUSH1 0x20 ADD PUSH1 0x0 KECCAK256 PUSH1 0x0 DUP6 PUSH20 0xFFFFFFFFFFFFFFFFFFFFFFFFFFFFFFFFFFFFFFFF AND PUSH20 0xFFFFFFFFFFFFFFFFFFFFFFFFFFFFFFFFFFFFFFFF AND DUP2 MSTORE PUSH1 0x20 ADD SWAP1 DUP2 MSTORE PUSH1 0x20 ADD PUSH1 0x0 KECCAK256 DUP2 SWAP1 SSTORE POP DUP3 PUSH20 0xFFFFFFFFFFFFFFFFFFFFFFFFFFFFFFFFFFFFFFFF AND CALLER PUSH20 0xFFFFFFFFFFFFFFFFFFFFFFFFFFFFFFFFFFFFFFFF AND PUSH32 0x8C5BE1E5EBEC7D5BD14F71427D1E84F3DD0314C0F7B2291E5B200AC8C7C3B925 DUP5 PUSH1 0x40 MLOAD PUSH2 0x392 SWAP2 SWAP1 PUSH2 0xCD4 JUMP JUMPDEST PUSH1 0x40 MLOAD DUP1 SWAP2 SUB SWAP1 LOG3 PUSH1 0x1 SWAP1 POP SWAP3 SWAP2 POP POP JUMP JUMPDEST PUSH1 0x0 PUSH1 0x3 SLOAD SWAP1 POP SWAP1 JUMP JUMPDEST PUSH1 0x0 PUSH1 0x1 PUSH1 0x0 DUP6 PUSH20 0xFFFFFFFFFFFFFFFFFFFFFFFFFFFFFFFFFFFFFFFF AND PUSH20 0xFFFFFFFFFFFFFFFFFFFFFFFFFFFFFFFFFFFFFFFF AND DUP2 MSTORE PUSH1 0x20 ADD SWAP1 DUP2 MSTORE PUSH1 0x20 ADD PUSH1 0x0 KECCAK256 SLOAD DUP3 GT ISZERO PUSH2 0x3FC JUMPI PUSH1 0x0 DUP1 REVERT JUMPDEST PUSH1 0x2 PUSH1 0x0 DUP6 PUSH20 0xFFFFFFFFFFFFFFFFFFFFFFFFFFFFFFFFFFFFFFFF AND PUSH20 0xFFFFFFFFFFFFFFFFFFFFFFFFFFFFFFFFFFFFFFFF AND DUP2 MSTORE PUSH1 0x20 ADD SWAP1 DUP2 MSTORE PUSH1 0x20 ADD PUSH1 0x0 KECCAK256 PUSH1 0x0 CALLER PUSH20 0xFFFFFFFFFFFFFFFFFFFFFFFFFFFFFFFFFFFFFFFF AND PUSH20 0xFFFFFFFFFFFFFFFFFFFFFFFFFFFFFFFFFFFFFFFF AND DUP2 MSTORE PUSH1 0x20 ADD SWAP1 DUP2 MSTORE PUSH1 0x20 ADD PUSH1 0x0 KECCAK256 SLOAD DUP3 GT ISZERO PUSH2 0x485 JUMPI PUSH1 0x0 DUP1 REVERT JUMPDEST DUP2 PUSH1 0x1 PUSH1 0x0 DUP7 PUSH20 0xFFFFFFFFFFFFFFFFFFFFFFFFFFFFFFFFFFFFFFFF AND PUSH20 0xFFFFFFFFFFFFFFFFFFFFFFFFFFFFFFFFFFFFFFFF AND DUP2 MSTORE PUSH1 0x20 ADD SWAP1 DUP2 MSTORE PUSH1 0x20 ADD PUSH1 0x0 KECCAK256 SLOAD PUSH2 0x4D0 SWAP2 SWAP1 PUSH2 0xE15 JUMP JUMPDEST PUSH1 0x1 PUSH1 0x0 DUP7 PUSH20 0xFFFFFFFFFFFFFFFFFFFFFFFFFFFFFFFFFFFFFFFF AND PUSH20 0xFFFFFFFFFFFFFFFFFFFFFFFFFFFFFFFFFFFFFFFF AND DUP2 MSTORE PUSH1 0x20 ADD SWAP1 DUP2 MSTORE PUSH1 0x20 ADD PUSH1 0x0 KECCAK256 DUP2 SWAP1 SSTORE POP DUP2 PUSH1 0x2 PUSH1 0x0 DUP7 PUSH20 0xFFFFFFFFFFFFFFFFFFFFFFFFFFFFFFFFFFFFFFFF AND PUSH20 0xFFFFFFFFFFFFFFFFFFFFFFFFFFFFFFFFFFFFFFFF AND DUP2 MSTORE PUSH1 0x20 ADD SWAP1 DUP2 MSTORE PUSH1 0x20 ADD PUSH1 0x0 KECCAK256 PUSH1 0x0 CALLER PUSH20 0xFFFFFFFFFFFFFFFFFFFFFFFFFFFFFFFFFFFFFFFF AND PUSH20 0xFFFFFFFFFFFFFFFFFFFFFFFFFFFFFFFFFFFFFFFF AND DUP2 MSTORE PUSH1 0x20 ADD SWAP1 DUP2 MSTORE PUSH1 0x20 ADD PUSH1 0x0 KECCAK256 SLOAD PUSH2 0x59B SWAP2 SWAP1 PUSH2 0xE15 JUMP JUMPDEST PUSH1 0x2 PUSH1 0x0 DUP7 PUSH20 0xFFFFFFFFFFFFFFFFFFFFFFFFFFFFFFFFFFFFFFFF AND PUSH20 0xFFFFFFFFFFFFFFFFFFFFFFFFFFFFFFFFFFFFFFFF AND DUP2 MSTORE PUSH1 0x20 ADD SWAP1 DUP2 MSTORE PUSH1 0x20 ADD PUSH1 0x0 KECCAK256 PUSH1 0x0 CALLER PUSH20 0xFFFFFFFFFFFFFFFFFFFFFFFFFFFFFFFFFFFFFFFF AND PUSH20 0xFFFFFFFFFFFFFFFFFFFFFFFFFFFFFFFFFFFFFFFF AND DUP2 MSTORE PUSH1 0x20 ADD SWAP1 DUP2 MSTORE PUSH1 0x20 ADD PUSH1 0x0 KECCAK256 DUP2 SWAP1 SSTORE POP DUP2 PUSH1 0x1 PUSH1 0x0 DUP6 PUSH20 0xFFFFFFFFFFFFFFFFFFFFFFFFFFFFFFFFFFFFFFFF AND PUSH20 0xFFFFFFFFFFFFFFFFFFFFFFFFFFFFFFFFFFFFFFFF AND DUP2 MSTORE PUSH1 0x20 ADD SWAP1 DUP2 MSTORE PUSH1 0x20 ADD PUSH1 0x0 KECCAK256 SLOAD PUSH2 0x666 SWAP2 SWAP1 PUSH2 0xE49 JUMP JUMPDEST PUSH1 0x1 PUSH1 0x0 DUP6 PUSH20 0xFFFFFFFFFFFFFFFFFFFFFFFFFFFFFFFFFFFFFFFF AND PUSH20 0xFFFFFFFFFFFFFFFFFFFFFFFFFFFFFFFFFFFFFFFF AND DUP2 MSTORE PUSH1 0x20 ADD SWAP1 DUP2 MSTORE PUSH1 0x20 ADD PUSH1 0x0 KECCAK256 DUP2 SWAP1 SSTORE POP DUP3 PUSH20 0xFFFFFFFFFFFFFFFFFFFFFFFFFFFFFFFFFFFFFFFF AND DUP5 PUSH20 0xFFFFFFFFFFFFFFFFFFFFFFFFFFFFFFFFFFFFFFFF AND PUSH32 0xDDF252AD1BE2C89B69C2B068FC378DAA952BA7F163C4A11628F55A4DF523B3EF DUP5 PUSH1 0x40 MLOAD PUSH2 0x706 SWAP2 SWAP1 PUSH2 0xCD4 JUMP JUMPDEST PUSH1 0x40 MLOAD DUP1 SWAP2 SUB SWAP1 LOG3 PUSH1 0x1 SWAP1 POP SWAP4 SWAP3 POP POP POP JUMP JUMPDEST PUSH1 0x12 DUP2 JUMP JUMPDEST PUSH1 0x0 PUSH1 0x1 PUSH1 0x0 DUP4 PUSH20 0xFFFFFFFFFFFFFFFFFFFFFFFFFFFFFFFFFFFFFFFF AND PUSH20 0xFFFFFFFFFFFFFFFFFFFFFFFFFFFFFFFFFFFFFFFF AND DUP2 MSTORE PUSH1 0x20 ADD SWAP1 DUP2 MSTORE PUSH1 0x20 ADD PUSH1 0x0 KECCAK256 SLOAD SWAP1 POP SWAP2 SWAP1 POP JUMP JUMPDEST PUSH1 0x40 MLOAD DUP1 PUSH1 0x40 ADD PUSH1 0x40 MSTORE DUP1 PUSH1 0x3 DUP2 MSTORE PUSH1 0x20 ADD PUSH32 0x4552430000000000000000000000000000000000000000000000000000000000 DUP2 MSTORE POP DUP2 JUMP JUMPDEST PUSH1 0x0 PUSH1 0x1 PUSH1 0x0 CALLER PUSH20 0xFFFFFFFFFFFFFFFFFFFFFFFFFFFFFFFFFFFFFFFF AND PUSH20 0xFFFFFFFFFFFFFFFFFFFFFFFFFFFFFFFFFFFFFFFF AND DUP2 MSTORE PUSH1 0x20 ADD SWAP1 DUP2 MSTORE PUSH1 0x20 ADD PUSH1 0x0 KECCAK256 SLOAD DUP3 GT ISZERO PUSH2 0x7EE JUMPI PUSH1 0x0 DUP1 REVERT JUMPDEST DUP2 PUSH1 0x1 PUSH1 0x0 CALLER PUSH20 0xFFFFFFFFFFFFFFFFFFFFFFFFFFFFFFFFFFFFFFFF AND PUSH20 0xFFFFFFFFFFFFFFFFFFFFFFFFFFFFFFFFFFFFFFFF AND DUP2 MSTORE PUSH1 0x20 ADD SWAP1 DUP2 MSTORE PUSH1 0x20 ADD PUSH1 0x0 KECCAK256 SLOAD PUSH2 0x839 SWAP2 SWAP1 PUSH2 0xE15 JUMP JUMPDEST PUSH1 0x1 PUSH1 0x0 CALLER PUSH20 0xFFFFFFFFFFFFFFFFFFFFFFFFFFFFFFFFFFFFFFFF AND PUSH20 0xFFFFFFFFFFFFFFFFFFFFFFFFFFFFFFFFFFFFFFFF AND DUP2 MSTORE PUSH1 0x20 ADD SWAP1 DUP2 MSTORE PUSH1 0x20 ADD PUSH1 0x0 KECCAK256 DUP2 SWAP1 SSTORE POP DUP2 PUSH1 0x1 PUSH1 0x0 DUP6 PUSH20 0xFFFFFFFFFFFFFFFFFFFFFFFFFFFFFFFFFFFFFFFF AND PUSH20 0xFFFFFFFFFFFFFFFFFFFFFFFFFFFFFFFFFFFFFFFF AND DUP2 MSTORE PUSH1 0x20 ADD SWAP1 DUP2 MSTORE PUSH1 0x20 ADD PUSH1 0x0 KECCAK256 SLOAD PUSH2 0x8C7 SWAP2 SWAP1 PUSH2 0xE49 JUMP JUMPDEST PUSH1 0x1 PUSH1 0x0 DUP6 PUSH20 0xFFFFFFFFFFFFFFFFFFFFFFFFFFFFFFFFFFFFFFFF AND PUSH20 0xFFFFFFFFFFFFFFFFFFFFFFFFFFFFFFFFFFFFFFFF AND DUP2 MSTORE PUSH1 0x20 ADD SWAP1 DUP2 MSTORE PUSH1 0x20 ADD PUSH1 0x0 KECCAK256 DUP2 SWAP1 SSTORE POP DUP3 PUSH20 0xFFFFFFFFFFFFFFFFFFFFFFFFFFFFFFFFFFFFFFFF AND CALLER PUSH20 0xFFFFFFFFFFFFFFFFFFFFFFFFFFFFFFFFFFFFFFFF AND PUSH32 0xDDF252AD1BE2C89B69C2B068FC378DAA952BA7F163C4A11628F55A4DF523B3EF DUP5 PUSH1 0x40 MLOAD PUSH2 0x967 SWAP2 SWAP1 PUSH2 0xCD4 JUMP JUMPDEST PUSH1 0x40 MLOAD DUP1 SWAP2 SUB SWAP1 LOG3 PUSH1 0x1 SWAP1 POP SWAP3 SWAP2 POP POP JUMP JUMPDEST CALLER PUSH20 0xFFFFFFFFFFFFFFFFFFFFFFFFFFFFFFFFFFFFFFFF AND PUSH1 0x0 DUP1 SLOAD SWAP1 PUSH2 0x100 EXP SWAP1 DIV PUSH20 0xFFFFFFFFFFFFFFFFFFFFFFFFFFFFFFFFFFFFFFFF AND PUSH20 0xFFFFFFFFFFFFFFFFFFFFFFFFFFFFFFFFFFFFFFFF AND EQ PUSH2 0xA07 JUMPI PUSH1 0x40 MLOAD PUSH32 0x8C379A000000000000000000000000000000000000000000000000000000000 DUP2 MSTORE PUSH1 0x4 ADD PUSH2 0x9FE SWAP1 PUSH2 0xEEB JUMP JUMPDEST PUSH1 0x40 MLOAD DUP1 SWAP2 SUB SWAP1 REVERT JUMPDEST DUP1 PUSH1 0x0 DUP1 PUSH2 0x100 EXP DUP2 SLOAD DUP2 PUSH20 0xFFFFFFFFFFFFFFFFFFFFFFFFFFFFFFFFFFFFFFFF MUL NOT AND SWAP1 DUP4 PUSH20 0xFFFFFFFFFFFFFFFFFFFFFFFFFFFFFFFFFFFFFFFF AND MUL OR SWAP1 SSTORE POP POP JUMP JUMPDEST PUSH1 0x0 PUSH1 0x2 PUSH1 0x0 DUP5 PUSH20 0xFFFFFFFFFFFFFFFFFFFFFFFFFFFFFFFFFFFFFFFF AND PUSH20 0xFFFFFFFFFFFFFFFFFFFFFFFFFFFFFFFFFFFFFFFF AND DUP2 MSTORE PUSH1 0x20 ADD SWAP1 DUP2 MSTORE PUSH1 0x20 ADD PUSH1 0x0 KECCAK256 PUSH1 0x0 DUP4 PUSH20 0xFFFFFFFFFFFFFFFFFFFFFFFFFFFFFFFFFFFFFFFF AND PUSH20 0xFFFFFFFFFFFFFFFFFFFFFFFFFFFFFFFFFFFFFFFF AND DUP2 MSTORE PUSH1 0x20 ADD SWAP1 DUP2 MSTORE PUSH1 0x20 ADD PUSH1 0x0 KECCAK256 SLOAD SWAP1 POP SWAP3 SWAP2 POP POP JUMP JUMPDEST PUSH1 0x0 PUSH20 0xFFFFFFFFFFFFFFFFFFFFFFFFFFFFFFFFFFFFFFFF DUP3 AND SWAP1 POP SWAP2 SWAP1 POP JUMP JUMPDEST PUSH1 0x0 PUSH2 0xAFC DUP3 PUSH2 0xAD1 JUMP JUMPDEST SWAP1 POP SWAP2 SWAP1 POP JUMP JUMPDEST PUSH2 0xB0C DUP2 PUSH2 0xAF1 JUMP JUMPDEST DUP3 MSTORE POP POP JUMP JUMPDEST PUSH1 0x0 PUSH1 0x20 DUP3 ADD SWAP1 POP PUSH2 0xB27 PUSH1 0x0 DUP4 ADD DUP5 PUSH2 0xB03 JUMP JUMPDEST SWAP3 SWAP2 POP POP JUMP JUMPDEST PUSH1 0x0 DUP2 MLOAD SWAP1 POP SWAP2 SWAP1 POP JUMP JUMPDEST PUSH1 0x0 DUP3 DUP3 MSTORE PUSH1 0x20 DUP3 ADD SWAP1 POP SWAP3 SWAP2 POP POP JUMP JUMPDEST PUSH1 0x0 JUMPDEST DUP4 DUP2 LT ISZERO PUSH2 0xB67 JUMPI DUP1 DUP3 ADD MLOAD DUP2 DUP5 ADD MSTORE PUSH1 0x20 DUP2 ADD SWAP1 POP PUSH2 0xB4C JUMP JUMPDEST DUP4 DUP2 GT ISZERO PUSH2 0xB76 JUMPI PUSH1 0x0 DUP5 DUP5 ADD MSTORE JUMPDEST POP POP POP POP JUMP JUMPDEST PUSH1 0x0 PUSH1 0x1F NOT PUSH1 0x1F DUP4 ADD AND SWAP1 POP SWAP2 SWAP1 POP JUMP JUMPDEST PUSH1 0x0 PUSH2 0xB98 DUP3 PUSH2 0xB2D JUMP JUMPDEST PUSH2 0xBA2 DUP2 DUP6 PUSH2 0xB38 JUMP JUMPDEST SWAP4 POP PUSH2 0xBB2 DUP2 DUP6 PUSH1 0x20 DUP7 ADD PUSH2 0xB49 JUMP JUMPDEST PUSH2 0xBBB DUP2 PUSH2 0xB7C JUMP JUMPDEST DUP5 ADD SWAP2 POP POP SWAP3 SWAP2 POP POP JUMP JUMPDEST PUSH1 0x0 PUSH1 0x20 DUP3 ADD SWAP1 POP DUP2 DUP2 SUB PUSH1 0x0 DUP4 ADD MSTORE PUSH2 0xBE0 DUP2 DUP5 PUSH2 0xB8D JUMP JUMPDEST SWAP1 POP SWAP3 SWAP2 POP POP JUMP JUMPDEST PUSH1 0x0 DUP1 REVERT JUMPDEST PUSH2 0xBF6 DUP2 PUSH2 0xAF1 JUMP JUMPDEST DUP2 EQ PUSH2 0xC01 JUMPI PUSH1 0x0 DUP1 REVERT JUMPDEST POP JUMP JUMPDEST PUSH1 0x0 DUP2 CALLDATALOAD SWAP1 POP PUSH2 0xC13 DUP2 PUSH2 0xBED JUMP JUMPDEST SWAP3 SWAP2 POP POP JUMP JUMPDEST PUSH1 0x0 DUP2 SWAP1 POP SWAP2 SWAP1 POP JUMP JUMPDEST PUSH2 0xC2C DUP2 PUSH2 0xC19 JUMP JUMPDEST DUP2 EQ PUSH2 0xC37 JUMPI PUSH1 0x0 DUP1 REVERT JUMPDEST POP JUMP JUMPDEST PUSH1 0x0 DUP2 CALLDATALOAD SWAP1 POP PUSH2 0xC49 DUP2 PUSH2 0xC23 JUMP JUMPDEST SWAP3 SWAP2 POP POP JUMP JUMPDEST PUSH1 0x0 DUP1 PUSH1 0x40 DUP4 DUP6 SUB SLT ISZERO PUSH2 0xC66 JUMPI PUSH2 0xC65 PUSH2 0xBE8 JUMP JUMPDEST JUMPDEST PUSH1 0x0 PUSH2 0xC74 DUP6 DUP3 DUP7 ADD PUSH2 0xC04 JUMP JUMPDEST SWAP3 POP POP PUSH1 0x20 PUSH2 0xC85 DUP6 DUP3 DUP7 ADD PUSH2 0xC3A JUMP JUMPDEST SWAP2 POP POP SWAP3 POP SWAP3 SWAP1 POP JUMP JUMPDEST PUSH1 0x0 DUP2 ISZERO ISZERO SWAP1 POP SWAP2 SWAP1 POP JUMP JUMPDEST PUSH2 0xCA4 DUP2 PUSH2 0xC8F JUMP JUMPDEST DUP3 MSTORE POP POP JUMP JUMPDEST PUSH1 0x0 PUSH1 0x20 DUP3 ADD SWAP1 POP PUSH2 0xCBF PUSH1 0x0 DUP4 ADD DUP5 PUSH2 0xC9B JUMP JUMPDEST SWAP3 SWAP2 POP POP JUMP JUMPDEST PUSH2 0xCCE DUP2 PUSH2 0xC19 JUMP JUMPDEST DUP3 MSTORE POP POP JUMP JUMPDEST PUSH1 0x0 PUSH1 0x20 DUP3 ADD SWAP1 POP PUSH2 0xCE9 PUSH1 0x0 DUP4 ADD DUP5 PUSH2 0xCC5 JUMP JUMPDEST SWAP3 SWAP2 POP POP JUMP JUMPDEST PUSH1 0x0 DUP1 PUSH1 0x0 PUSH1 0x60 DUP5 DUP7 SUB SLT ISZERO PUSH2 0xD08 JUMPI PUSH2 0xD07 PUSH2 0xBE8 JUMP JUMPDEST JUMPDEST PUSH1 0x0 PUSH2 0xD16 DUP7 DUP3 DUP8 ADD PUSH2 0xC04 JUMP JUMPDEST SWAP4 POP POP PUSH1 0x20 PUSH2 0xD27 DUP7 DUP3 DUP8 ADD PUSH2 0xC04 JUMP JUMPDEST SWAP3 POP POP PUSH1 0x40 PUSH2 0xD38 DUP7 DUP3 DUP8 ADD PUSH2 0xC3A JUMP JUMPDEST SWAP2 POP POP SWAP3 POP SWAP3 POP SWAP3 JUMP JUMPDEST PUSH1 0x0 PUSH1 0xFF DUP3 AND SWAP1 POP SWAP2 SWAP1 POP JUMP JUMPDEST PUSH2 0xD58 DUP2 PUSH2 0xD42 JUMP JUMPDEST DUP3 MSTORE POP POP JUMP JUMPDEST PUSH1 0x0 PUSH1 0x20 DUP3 ADD SWAP1 POP PUSH2 0xD73 PUSH1 0x0 DUP4 ADD DUP5 PUSH2 0xD4F JUMP JUMPDEST SWAP3 SWAP2 POP POP JUMP JUMPDEST PUSH1 0x0 PUSH1 0x20 DUP3 DUP5 SUB SLT ISZERO PUSH2 0xD8F JUMPI PUSH2 0xD8E PUSH2 0xBE8 JUMP JUMPDEST JUMPDEST PUSH1 0x0 PUSH2 0xD9D DUP5 DUP3 DUP6 ADD PUSH2 0xC04 JUMP JUMPDEST SWAP2 POP POP SWAP3 SWAP2 POP POP JUMP JUMPDEST PUSH1 0x0 DUP1 PUSH1 0x40 DUP4 DUP6 SUB SLT ISZERO PUSH2 0xDBD JUMPI PUSH2 0xDBC PUSH2 0xBE8 JUMP JUMPDEST JUMPDEST PUSH1 0x0 PUSH2 0xDCB DUP6 DUP3 DUP7 ADD PUSH2 0xC04 JUMP JUMPDEST SWAP3 POP POP PUSH1 0x20 PUSH2 0xDDC DUP6 DUP3 DUP7 ADD PUSH2 0xC04 JUMP JUMPDEST SWAP2 POP POP SWAP3 POP SWAP3 SWAP1 POP JUMP JUMPDEST PUSH32 0x4E487B7100000000000000000000000000000000000000000000000000000000 PUSH1 0x0 MSTORE PUSH1 0x11 PUSH1 0x4 MSTORE PUSH1 0x24 PUSH1 0x0 REVERT JUMPDEST PUSH1 0x0 PUSH2 0xE20 DUP3 PUSH2 0xC19 JUMP JUMPDEST SWAP2 POP PUSH2 0xE2B DUP4 PUSH2 0xC19 JUMP JUMPDEST SWAP3 POP DUP3 DUP3 LT ISZERO PUSH2 0xE3E JUMPI PUSH2 0xE3D PUSH2 0xDE6 JUMP JUMPDEST JUMPDEST DUP3 DUP3 SUB SWAP1 POP SWAP3 SWAP2 POP POP JUMP JUMPDEST PUSH1 0x0 PUSH2 0xE54 DUP3 PUSH2 0xC19 JUMP JUMPDEST SWAP2 POP PUSH2 0xE5F DUP4 PUSH2 0xC19 JUMP JUMPDEST SWAP3 POP DUP3 PUSH32 0xFFFFFFFFFFFFFFFFFFFFFFFFFFFFFFFFFFFFFFFFFFFFFFFFFFFFFFFFFFFFFFFF SUB DUP3 GT ISZERO PUSH2 0xE94 JUMPI PUSH2 0xE93 PUSH2 0xDE6 JUMP JUMPDEST JUMPDEST DUP3 DUP3 ADD SWAP1 POP SWAP3 SWAP2 POP POP JUMP JUMPDEST PUSH32 0x796F7520417265204E6F74204F776E6572000000000000000000000000000000 PUSH1 0x0 DUP3 ADD MSTORE POP JUMP JUMPDEST PUSH1 0x0 PUSH2 0xED5 PUSH1 0x11 DUP4 PUSH2 0xB38 JUMP JUMPDEST SWAP2 POP PUSH2 0xEE0 DUP3 PUSH2 0xE9F JUMP JUMPDEST PUSH1 0x20 DUP3 ADD SWAP1 POP SWAP2 SWAP1 POP JUMP JUMPDEST PUSH1 0x0 PUSH1 0x20 DUP3 ADD SWAP1 POP DUP2 DUP2 SUB PUSH1 0x0 DUP4 ADD MSTORE PUSH2 0xF04 DUP2 PUSH2 0xEC8 JUMP JUMPDEST SWAP1 POP SWAP2 SWAP1 POP JUMP INVALID LOG2 PUSH5 0x6970667358 0x22 SLT KECCAK256 AND 0x5E GASPRICE 0xF7 AND 0xB3 0xDF 0x2C 0x49 0xF9 SWAP4 0xE6 PUSH17 0xC5CDB5901716DBE7EEF2C400028B16A2D0 0xC3 0xC6 PUSH5 0x736F6C6343 STOP ADDMOD 0xE STOP CALLER "
				},
				"gasEstimates": {
					"creation": {
						"codeDepositCost": "781000",
						"executionCost": "73630",
						"totalCost": "854630"
					},
					"external": {
						"TransferOwnership(address)": "26977",
						"allowance(address,address)": "infinite",
						"approve(address,uint256)": "infinite",
						"balanceOf(address)": "2863",
						"decimals()": "335",
						"name()": "infinite",
						"ownerId()": "2523",
						"symbol()": "infinite",
						"totalSupply()": "2504",
						"transfer(address,uint256)": "infinite",
						"transferFrom(address,address,uint256)": "infinite"
					}
				},
				"methodIdentifiers": {
					"TransferOwnership(address)": "cfaaa266",
					"allowance(address,address)": "dd62ed3e",
					"approve(address,uint256)": "095ea7b3",
					"balanceOf(address)": "70a08231",
					"decimals()": "313ce567",
					"name()": "06fdde03",
					"ownerId()": "019c08f5",
					"symbol()": "95d89b41",
					"totalSupply()": "18160ddd",
					"transfer(address,uint256)": "a9059cbb",
					"transferFrom(address,address,uint256)": "23b872dd"
				}
			},
			"storageLayout": {
				"storage": [
					{
						"astId": 83,
						"contract": "ERC20_2.sol:ERC20Basic",
						"label": "owner",
						"offset": 0,
						"slot": "0",
						"type": "t_address"
					},
					{
						"astId": 87,
						"contract": "ERC20_2.sol:ERC20Basic",
						"label": "balances",
						"offset": 0,
						"slot": "1",
						"type": "t_mapping(t_address,t_uint256)"
					},
					{
						"astId": 93,
						"contract": "ERC20_2.sol:ERC20Basic",
						"label": "allowed",
						"offset": 0,
						"slot": "2",
						"type": "t_mapping(t_address,t_mapping(t_address,t_uint256))"
					},
					{
						"astId": 96,
						"contract": "ERC20_2.sol:ERC20Basic",
						"label": "totalSupply_",
						"offset": 0,
						"slot": "3",
						"type": "t_uint256"
					}
				],
				"types": {
					"t_address": {
						"encoding": "inplace",
						"label": "address",
						"numberOfBytes": "20"
					},
					"t_mapping(t_address,t_mapping(t_address,t_uint256))": {
						"encoding": "mapping",
						"key": "t_address",
						"label": "mapping(address => mapping(address => uint256))",
						"numberOfBytes": "32",
						"value": "t_mapping(t_address,t_uint256)"
					},
					"t_mapping(t_address,t_uint256)": {
						"encoding": "mapping",
						"key": "t_address",
						"label": "mapping(address => uint256)",
						"numberOfBytes": "32",
						"value": "t_uint256"
					},
					"t_uint256": {
						"encoding": "inplace",
						"label": "uint256",
						"numberOfBytes": "32"
					}
				}
			},
			"userdoc": {
				"kind": "user",
				"methods": {},
				"version": 1
			}
		}
	}
}