{
	"localVariable.sol": {
		"localVariable": {
			"abi": [
				{
					"inputs": [],
					"name": "age",
					"outputs": [
						{
							"internalType": "uint256",
							"name": "",
							"type": "uint256"
						}
					],
					"stateMutability": "view",
					"type": "function"
				},
				{
					"inputs": [],
					"name": "b",
					"outputs": [
						{
							"internalType": "bool",
							"name": "",
							"type": "bool"
						}
					],
					"stateMutability": "view",
					"type": "function"
				},
				{
					"inputs": [],
					"name": "newAdd",
					"outputs": [
						{
							"internalType": "address",
							"name": "",
							"type": "address"
						}
					],
					"stateMutability": "view",
					"type": "function"
				}
			],
			"devdoc": {
				"kind": "dev",
				"methods": {},
				"version": 1
			},
			"evm": {
				"assembly": "    /* \"localVariable.sol\":58:156  contract localVariable{... */\n  mstore(0x40, 0x80)\n  callvalue\n  dup1\n  iszero\n  tag_1\n  jumpi\n  0x00\n  dup1\n  revert\ntag_1:\n  pop\n  dataSize(sub_0)\n  dup1\n  dataOffset(sub_0)\n  0x00\n  codecopy\n  0x00\n  return\nstop\n\nsub_0: assembly {\n        /* \"localVariable.sol\":58:156  contract localVariable{... */\n      mstore(0x40, 0x80)\n      callvalue\n      dup1\n      iszero\n      tag_1\n      jumpi\n      0x00\n      dup1\n      revert\n    tag_1:\n      pop\n      jumpi(tag_2, lt(calldatasize, 0x04))\n      shr(0xe0, calldataload(0x00))\n      dup1\n      0x262a9dff\n      eq\n      tag_3\n      jumpi\n      dup1\n      0x4df7e3d0\n      eq\n      tag_4\n      jumpi\n      dup1\n      0x59a35e00\n      eq\n      tag_5\n      jumpi\n    tag_2:\n      0x00\n      dup1\n      revert\n        /* \"localVariable.sol\":86:101  uint public age */\n    tag_3:\n      tag_6\n      tag_7\n      jump\t// in\n    tag_6:\n      mload(0x40)\n      tag_8\n      swap2\n      swap1\n      tag_9\n      jump\t// in\n    tag_8:\n      mload(0x40)\n      dup1\n      swap2\n      sub\n      swap1\n      return\n        /* \"localVariable.sol\":107:120  bool public b */\n    tag_4:\n      tag_10\n      tag_11\n      jump\t// in\n    tag_10:\n      mload(0x40)\n      tag_12\n      swap2\n      swap1\n      tag_13\n      jump\t// in\n    tag_12:\n      mload(0x40)\n      dup1\n      swap2\n      sub\n      swap1\n      return\n        /* \"localVariable.sol\":126:147  address public newAdd */\n    tag_5:\n      tag_14\n      tag_15\n      jump\t// in\n    tag_14:\n      mload(0x40)\n      tag_16\n      swap2\n      swap1\n      tag_17\n      jump\t// in\n    tag_16:\n      mload(0x40)\n      dup1\n      swap2\n      sub\n      swap1\n      return\n        /* \"localVariable.sol\":86:101  uint public age */\n    tag_7:\n      sload(0x00)\n      dup2\n      jump\t// out\n        /* \"localVariable.sol\":107:120  bool public b */\n    tag_11:\n      0x01\n      0x00\n      swap1\n      sload\n      swap1\n      0x0100\n      exp\n      swap1\n      div\n      0xff\n      and\n      dup2\n      jump\t// out\n        /* \"localVariable.sol\":126:147  address public newAdd */\n    tag_15:\n      0x01\n      dup1\n      sload\n      swap1\n      0x0100\n      exp\n      swap1\n      div\n      0xffffffffffffffffffffffffffffffffffffffff\n      and\n      dup2\n      jump\t// out\n        /* \"#utility.yul\":7:125   */\n    tag_19:\n        /* \"#utility.yul\":94:118   */\n      tag_21\n        /* \"#utility.yul\":112:117   */\n      dup2\n        /* \"#utility.yul\":94:118   */\n      tag_22\n      jump\t// in\n    tag_21:\n        /* \"#utility.yul\":89:92   */\n      dup3\n        /* \"#utility.yul\":82:119   */\n      mstore\n        /* \"#utility.yul\":72:125   */\n      pop\n      pop\n      jump\t// out\n        /* \"#utility.yul\":131:240   */\n    tag_23:\n        /* \"#utility.yul\":212:233   */\n      tag_25\n        /* \"#utility.yul\":227:232   */\n      dup2\n        /* \"#utility.yul\":212:233   */\n      tag_26\n      jump\t// in\n    tag_25:\n        /* \"#utility.yul\":207:210   */\n      dup3\n        /* \"#utility.yul\":200:234   */\n      mstore\n        /* \"#utility.yul\":190:240   */\n      pop\n      pop\n      jump\t// out\n        /* \"#utility.yul\":246:364   */\n    tag_27:\n        /* \"#utility.yul\":333:357   */\n      tag_29\n        /* \"#utility.yul\":351:356   */\n      dup2\n        /* \"#utility.yul\":333:357   */\n      tag_30\n      jump\t// in\n    tag_29:\n        /* \"#utility.yul\":328:331   */\n      dup3\n        /* \"#utility.yul\":321:358   */\n      mstore\n        /* \"#utility.yul\":311:364   */\n      pop\n      pop\n      jump\t// out\n        /* \"#utility.yul\":370:592   */\n    tag_17:\n      0x00\n        /* \"#utility.yul\":501:503   */\n      0x20\n        /* \"#utility.yul\":490:499   */\n      dup3\n        /* \"#utility.yul\":486:504   */\n      add\n        /* \"#utility.yul\":478:504   */\n      swap1\n      pop\n        /* \"#utility.yul\":514:585   */\n      tag_32\n        /* \"#utility.yul\":582:583   */\n      0x00\n        /* \"#utility.yul\":571:580   */\n      dup4\n        /* \"#utility.yul\":567:584   */\n      add\n        /* \"#utility.yul\":558:564   */\n      dup5\n        /* \"#utility.yul\":514:585   */\n      tag_19\n      jump\t// in\n    tag_32:\n        /* \"#utility.yul\":468:592   */\n      swap3\n      swap2\n      pop\n      pop\n      jump\t// out\n        /* \"#utility.yul\":598:808   */\n    tag_13:\n      0x00\n        /* \"#utility.yul\":723:725   */\n      0x20\n        /* \"#utility.yul\":712:721   */\n      dup3\n        /* \"#utility.yul\":708:726   */\n      add\n        /* \"#utility.yul\":700:726   */\n      swap1\n      pop\n        /* \"#utility.yul\":736:801   */\n      tag_34\n        /* \"#utility.yul\":798:799   */\n      0x00\n        /* \"#utility.yul\":787:796   */\n      dup4\n        /* \"#utility.yul\":783:800   */\n      add\n        /* \"#utility.yul\":774:780   */\n      dup5\n        /* \"#utility.yul\":736:801   */\n      tag_23\n      jump\t// in\n    tag_34:\n        /* \"#utility.yul\":690:808   */\n      swap3\n      swap2\n      pop\n      pop\n      jump\t// out\n        /* \"#utility.yul\":814:1036   */\n    tag_9:\n      0x00\n        /* \"#utility.yul\":945:947   */\n      0x20\n        /* \"#utility.yul\":934:943   */\n      dup3\n        /* \"#utility.yul\":930:948   */\n      add\n        /* \"#utility.yul\":922:948   */\n      swap1\n      pop\n        /* \"#utility.yul\":958:1029   */\n      tag_36\n        /* \"#utility.yul\":1026:1027   */\n      0x00\n        /* \"#utility.yul\":1015:1024   */\n      dup4\n        /* \"#utility.yul\":1011:1028   */\n      add\n        /* \"#utility.yul\":1002:1008   */\n      dup5\n        /* \"#utility.yul\":958:1029   */\n      tag_27\n      jump\t// in\n    tag_36:\n        /* \"#utility.yul\":912:1036   */\n      swap3\n      swap2\n      pop\n      pop\n      jump\t// out\n        /* \"#utility.yul\":1042:1138   */\n    tag_22:\n      0x00\n        /* \"#utility.yul\":1108:1132   */\n      tag_38\n        /* \"#utility.yul\":1126:1131   */\n      dup3\n        /* \"#utility.yul\":1108:1132   */\n      tag_39\n      jump\t// in\n    tag_38:\n        /* \"#utility.yul\":1097:1132   */\n      swap1\n      pop\n        /* \"#utility.yul\":1087:1138   */\n      swap2\n      swap1\n      pop\n      jump\t// out\n        /* \"#utility.yul\":1144:1234   */\n    tag_26:\n      0x00\n        /* \"#utility.yul\":1221:1226   */\n      dup2\n        /* \"#utility.yul\":1214:1227   */\n      iszero\n        /* \"#utility.yul\":1207:1228   */\n      iszero\n        /* \"#utility.yul\":1196:1228   */\n      swap1\n      pop\n        /* \"#utility.yul\":1186:1234   */\n      swap2\n      swap1\n      pop\n      jump\t// out\n        /* \"#utility.yul\":1240:1366   */\n    tag_39:\n      0x00\n        /* \"#utility.yul\":1317:1359   */\n      0xffffffffffffffffffffffffffffffffffffffff\n        /* \"#utility.yul\":1310:1315   */\n      dup3\n        /* \"#utility.yul\":1306:1360   */\n      and\n        /* \"#utility.yul\":1295:1360   */\n      swap1\n      pop\n        /* \"#utility.yul\":1285:1366   */\n      swap2\n      swap1\n      pop\n      jump\t// out\n        /* \"#utility.yul\":1372:1449   */\n    tag_30:\n      0x00\n        /* \"#utility.yul\":1438:1443   */\n      dup2\n        /* \"#utility.yul\":1427:1443   */\n      swap1\n      pop\n        /* \"#utility.yul\":1417:1449   */\n      swap2\n      swap1\n      pop\n      jump\t// out\n\n    auxdata: 0xa2646970667358221220274054b301d91cb1e23cf1eaaaaf2a70c04ac9a14bccfd4a3691950eb6e5aaa964736f6c63430008000033\n}\n",
				"bytecode": {
					"linkReferences": {},
					"object": "608060405234801561001057600080fd5b506101d9806100206000396000f3fe608060405234801561001057600080fd5b50600436106100415760003560e01c8063262a9dff146100465780634df7e3d01461006457806359a35e0014610082575b600080fd5b61004e6100a0565b60405161005b9190610140565b60405180910390f35b61006c6100a6565b6040516100799190610125565b60405180910390f35b61008a6100b9565b604051610097919061010a565b60405180910390f35b60005481565b600160009054906101000a900460ff1681565b60018054906101000a900473ffffffffffffffffffffffffffffffffffffffff1681565b6100e68161015b565b82525050565b6100f58161016d565b82525050565b61010481610199565b82525050565b600060208201905061011f60008301846100dd565b92915050565b600060208201905061013a60008301846100ec565b92915050565b600060208201905061015560008301846100fb565b92915050565b600061016682610179565b9050919050565b60008115159050919050565b600073ffffffffffffffffffffffffffffffffffffffff82169050919050565b600081905091905056fea2646970667358221220274054b301d91cb1e23cf1eaaaaf2a70c04ac9a14bccfd4a3691950eb6e5aaa964736f6c63430008000033",
					"opcodes": "PUSH1 0x80 PUSH1 0x40 MSTORE CALLVALUE DUP1 ISZERO PUSH2 0x10 JUMPI PUSH1 0x0 DUP1 REVERT JUMPDEST POP PUSH2 0x1D9 DUP1 PUSH2 0x20 PUSH1 0x0 CODECOPY PUSH1 0x0 RETURN INVALID PUSH1 0x80 PUSH1 0x40 MSTORE CALLVALUE DUP1 ISZERO PUSH2 0x10 JUMPI PUSH1 0x0 DUP1 REVERT JUMPDEST POP PUSH1 0x4 CALLDATASIZE LT PUSH2 0x41 JUMPI PUSH1 0x0 CALLDATALOAD PUSH1 0xE0 SHR DUP1 PUSH4 0x262A9DFF EQ PUSH2 0x46 JUMPI DUP1 PUSH4 0x4DF7E3D0 EQ PUSH2 0x64 JUMPI DUP1 PUSH4 0x59A35E00 EQ PUSH2 0x82 JUMPI JUMPDEST PUSH1 0x0 DUP1 REVERT JUMPDEST PUSH2 0x4E PUSH2 0xA0 JUMP JUMPDEST PUSH1 0x40 MLOAD PUSH2 0x5B SWAP2 SWAP1 PUSH2 0x140 JUMP JUMPDEST PUSH1 0x40 MLOAD DUP1 SWAP2 SUB SWAP1 RETURN JUMPDEST PUSH2 0x6C PUSH2 0xA6 JUMP JUMPDEST PUSH1 0x40 MLOAD PUSH2 0x79 SWAP2 SWAP1 PUSH2 0x125 JUMP JUMPDEST PUSH1 0x40 MLOAD DUP1 SWAP2 SUB SWAP1 RETURN JUMPDEST PUSH2 0x8A PUSH2 0xB9 JUMP JUMPDEST PUSH1 0x40 MLOAD PUSH2 0x97 SWAP2 SWAP1 PUSH2 0x10A JUMP JUMPDEST PUSH1 0x40 MLOAD DUP1 SWAP2 SUB SWAP1 RETURN JUMPDEST PUSH1 0x0 SLOAD DUP2 JUMP JUMPDEST PUSH1 0x1 PUSH1 0x0 SWAP1 SLOAD SWAP1 PUSH2 0x100 EXP SWAP1 DIV PUSH1 0xFF AND DUP2 JUMP JUMPDEST PUSH1 0x1 DUP1 SLOAD SWAP1 PUSH2 0x100 EXP SWAP1 DIV PUSH20 0xFFFFFFFFFFFFFFFFFFFFFFFFFFFFFFFFFFFFFFFF AND DUP2 JUMP JUMPDEST PUSH2 0xE6 DUP2 PUSH2 0x15B JUMP JUMPDEST DUP3 MSTORE POP POP JUMP JUMPDEST PUSH2 0xF5 DUP2 PUSH2 0x16D JUMP JUMPDEST DUP3 MSTORE POP POP JUMP JUMPDEST PUSH2 0x104 DUP2 PUSH2 0x199 JUMP JUMPDEST DUP3 MSTORE POP POP JUMP JUMPDEST PUSH1 0x0 PUSH1 0x20 DUP3 ADD SWAP1 POP PUSH2 0x11F PUSH1 0x0 DUP4 ADD DUP5 PUSH2 0xDD JUMP JUMPDEST SWAP3 SWAP2 POP POP JUMP JUMPDEST PUSH1 0x0 PUSH1 0x20 DUP3 ADD SWAP1 POP PUSH2 0x13A PUSH1 0x0 DUP4 ADD DUP5 PUSH2 0xEC JUMP JUMPDEST SWAP3 SWAP2 POP POP JUMP JUMPDEST PUSH1 0x0 PUSH1 0x20 DUP3 ADD SWAP1 POP PUSH2 0x155 PUSH1 0x0 DUP4 ADD DUP5 PUSH2 0xFB JUMP JUMPDEST SWAP3 SWAP2 POP POP JUMP JUMPDEST PUSH1 0x0 PUSH2 0x166 DUP3 PUSH2 0x179 JUMP JUMPDEST SWAP1 POP SWAP2 SWAP1 POP JUMP JUMPDEST PUSH1 0x0 DUP2 ISZERO ISZERO SWAP1 POP SWAP2 SWAP1 POP JUMP JUMPDEST PUSH1 0x0 PUSH20 0xFFFFFFFFFFFFFFFFFFFFFFFFFFFFFFFFFFFFFFFF DUP3 AND SWAP1 POP SWAP2 SWAP1 POP JUMP JUMPDEST PUSH1 0x0 DUP2 SWAP1 POP SWAP2 SWAP1 POP JUMP INVALID LOG2 PUSH5 0x6970667358 0x22 SLT KECCAK256 0x27 BLOCKHASH SLOAD 0xB3 ADD 0xD9 SHR 0xB1 0xE2 EXTCODECOPY CALL 0xEA 0xAA 0xAF 0x2A PUSH17 0xC04AC9A14BCCFD4A3691950EB6E5AAA964 PUSH20 0x6F6C634300080000330000000000000000000000 "
				},
				"gasEstimates": {
					"creation": {
						"codeDepositCost": "94600",
						"executionCost": "141",
						"totalCost": "94741"
					},
					"external": {
						"age()": "1107",
						"b()": "1171",
						"newAdd()": "1283"
					}
				},
				"methodIdentifiers": {
					"age()": "262a9dff",
					"b()": "4df7e3d0",
					"newAdd()": "59a35e00"
				}
			},
			"storageLayout": {
				"storage": [
					{
						"astId": 3,
						"contract": "localVariable.sol:localVariable",
						"label": "age",
						"offset": 0,
						"slot": "0",
						"type": "t_uint256"
					},
					{
						"astId": 5,
						"contract": "localVariable.sol:localVariable",
						"label": "b",
						"offset": 0,
						"slot": "1",
						"type": "t_bool"
					},
					{
						"astId": 7,
						"contract": "localVariable.sol:localVariable",
						"label": "newAdd",
						"offset": 1,
						"slot": "1",
						"type": "t_address"
					}
				],
				"types": {
					"t_address": {
						"encoding": "inplace",
						"label": "address",
						"numberOfBytes": "20"
					},
					"t_bool": {
						"encoding": "inplace",
						"label": "bool",
						"numberOfBytes": "1"
					},
					"t_uint256": {
						"encoding": "inplace",
						"label": "uint256",
						"numberOfBytes": "32"
					}
				}
			},
			"userdoc": {
				"kind": "user",
				"methods": {},
				"version": 1
			}
		}
	}
}