{
	"structure.sol": {
		"structure": {
			"abi": [
				{
					"inputs": [
						{
							"internalType": "string",
							"name": "_x",
							"type": "string"
						},
						{
							"internalType": "uint256",
							"name": "_y",
							"type": "uint256"
						},
						{
							"internalType": "address",
							"name": "_z",
							"type": "address"
						}
					],
					"name": "setValue",
					"outputs": [],
					"stateMutability": "nonpayable",
					"type": "function"
				}
			],
			"devdoc": {
				"kind": "dev",
				"methods": {},
				"version": 1
			},
			"evm": {
				"assembly": "    /* \"structure.sol\":58:316  contract structure{... */\n  mstore(0x40, 0x80)\n  callvalue\n  dup1\n  iszero\n  tag_1\n  jumpi\n  0x00\n  dup1\n  revert\ntag_1:\n  pop\n  dataSize(sub_0)\n  dup1\n  dataOffset(sub_0)\n  0x00\n  codecopy\n  0x00\n  return\nstop\n\nsub_0: assembly {\n        /* \"structure.sol\":58:316  contract structure{... */\n      mstore(0x40, 0x80)\n      callvalue\n      dup1\n      iszero\n      tag_1\n      jumpi\n      0x00\n      dup1\n      revert\n    tag_1:\n      pop\n      jumpi(tag_2, lt(calldatasize, 0x04))\n      shr(0xe0, calldataload(0x00))\n      dup1\n      0xb771af3d\n      eq\n      tag_3\n      jumpi\n    tag_2:\n      0x00\n      dup1\n      revert\n        /* \"structure.sol\":223:313  function setValue(string memory _x,uint _y,address _z)public... */\n    tag_3:\n      tag_4\n      0x04\n      dup1\n      calldatasize\n      sub\n      dup2\n      add\n      swap1\n      tag_5\n      swap2\n      swap1\n      tag_6\n      jump\t// in\n    tag_5:\n      tag_7\n      jump\t// in\n    tag_4:\n      stop\n    tag_7:\n        /* \"structure.sol\":292:306  myDT(_x,_y,_z) */\n      mload(0x40)\n      dup1\n      0x60\n      add\n      0x40\n      mstore\n      dup1\n        /* \"structure.sol\":297:299  _x */\n      dup5\n        /* \"structure.sol\":292:306  myDT(_x,_y,_z) */\n      dup2\n      mstore\n      0x20\n      add\n        /* \"structure.sol\":300:302  _y */\n      dup4\n        /* \"structure.sol\":292:306  myDT(_x,_y,_z) */\n      dup2\n      mstore\n      0x20\n      add\n        /* \"structure.sol\":303:305  _z */\n      dup3\n        /* \"structure.sol\":292:306  myDT(_x,_y,_z) */\n      0xffffffffffffffffffffffffffffffffffffffff\n      and\n      dup2\n      mstore\n      pop\n        /* \"structure.sol\":290:291  a */\n      0x00\n        /* \"structure.sol\":290:306  a=myDT(_x,_y,_z) */\n      dup1\n      dup3\n      add\n      mload\n      dup2\n      0x00\n      add\n      swap1\n      dup1\n      mload\n      swap1\n      0x20\n      add\n      swap1\n      tag_9\n      swap3\n      swap2\n      swap1\n      tag_10\n      jump\t// in\n    tag_9:\n      pop\n      0x20\n      dup3\n      add\n      mload\n      dup2\n      0x01\n      add\n      sstore\n      0x40\n      dup3\n      add\n      mload\n      dup2\n      0x02\n      add\n      exp(0x0100, 0x00)\n      dup2\n      sload\n      dup2\n      0xffffffffffffffffffffffffffffffffffffffff\n      mul\n      not\n      and\n      swap1\n      dup4\n      0xffffffffffffffffffffffffffffffffffffffff\n      and\n      mul\n      or\n      swap1\n      sstore\n      pop\n      swap1\n      pop\n      pop\n        /* \"structure.sol\":223:313  function setValue(string memory _x,uint _y,address _z)public... */\n      pop\n      pop\n      pop\n      jump\t// out\n    tag_10:\n      dup3\n      dup1\n      sload\n      tag_11\n      swap1\n      tag_12\n      jump\t// in\n    tag_11:\n      swap1\n      0x00\n      mstore\n      keccak256(0x00, 0x20)\n      swap1\n      0x1f\n      add\n      0x20\n      swap1\n      div\n      dup2\n      add\n      swap3\n      dup3\n      tag_14\n      jumpi\n      0x00\n      dup6\n      sstore\n      jump(tag_13)\n    tag_14:\n      dup3\n      0x1f\n      lt\n      tag_15\n      jumpi\n      dup1\n      mload\n      not(0xff)\n      and\n      dup4\n      dup1\n      add\n      or\n      dup6\n      sstore\n      jump(tag_13)\n    tag_15:\n      dup3\n      dup1\n      add\n      0x01\n      add\n      dup6\n      sstore\n      dup3\n      iszero\n      tag_13\n      jumpi\n      swap2\n      dup3\n      add\n    tag_16:\n      dup3\n      dup2\n      gt\n      iszero\n      tag_17\n      jumpi\n      dup3\n      mload\n      dup3\n      sstore\n      swap2\n      0x20\n      add\n      swap2\n      swap1\n      0x01\n      add\n      swap1\n      jump(tag_16)\n    tag_17:\n    tag_13:\n      pop\n      swap1\n      pop\n      tag_18\n      swap2\n      swap1\n      tag_19\n      jump\t// in\n    tag_18:\n      pop\n      swap1\n      jump\t// out\n    tag_19:\n    tag_20:\n      dup1\n      dup3\n      gt\n      iszero\n      tag_21\n      jumpi\n      0x00\n      dup2\n      0x00\n      swap1\n      sstore\n      pop\n      0x01\n      add\n      jump(tag_20)\n    tag_21:\n      pop\n      swap1\n      jump\t// out\n        /* \"#utility.yul\":7:419   */\n    tag_23:\n        /* \"#utility.yul\":85:90   */\n      0x00\n        /* \"#utility.yul\":110:176   */\n      tag_25\n        /* \"#utility.yul\":126:175   */\n      tag_26\n        /* \"#utility.yul\":168:174   */\n      dup5\n        /* \"#utility.yul\":126:175   */\n      tag_27\n      jump\t// in\n    tag_26:\n        /* \"#utility.yul\":110:176   */\n      tag_28\n      jump\t// in\n    tag_25:\n        /* \"#utility.yul\":101:176   */\n      swap1\n      pop\n        /* \"#utility.yul\":199:205   */\n      dup3\n        /* \"#utility.yul\":192:197   */\n      dup2\n        /* \"#utility.yul\":185:206   */\n      mstore\n        /* \"#utility.yul\":237:241   */\n      0x20\n        /* \"#utility.yul\":230:235   */\n      dup2\n        /* \"#utility.yul\":226:242   */\n      add\n        /* \"#utility.yul\":275:278   */\n      dup5\n        /* \"#utility.yul\":266:272   */\n      dup5\n        /* \"#utility.yul\":261:264   */\n      dup5\n        /* \"#utility.yul\":257:273   */\n      add\n        /* \"#utility.yul\":254:279   */\n      gt\n        /* \"#utility.yul\":251:363   */\n      iszero\n      tag_29\n      jumpi\n        /* \"#utility.yul\":282:361   */\n      tag_30\n      tag_31\n      jump\t// in\n    tag_30:\n        /* \"#utility.yul\":251:363   */\n    tag_29:\n        /* \"#utility.yul\":372:413   */\n      tag_32\n        /* \"#utility.yul\":406:412   */\n      dup5\n        /* \"#utility.yul\":401:404   */\n      dup3\n        /* \"#utility.yul\":396:399   */\n      dup6\n        /* \"#utility.yul\":372:413   */\n      tag_33\n      jump\t// in\n    tag_32:\n        /* \"#utility.yul\":91:419   */\n      pop\n        /* \"#utility.yul\":7:419   */\n      swap4\n      swap3\n      pop\n      pop\n      pop\n      jump\t// out\n        /* \"#utility.yul\":425:564   */\n    tag_34:\n        /* \"#utility.yul\":471:476   */\n      0x00\n        /* \"#utility.yul\":509:515   */\n      dup2\n        /* \"#utility.yul\":496:516   */\n      calldataload\n        /* \"#utility.yul\":487:516   */\n      swap1\n      pop\n        /* \"#utility.yul\":525:558   */\n      tag_36\n        /* \"#utility.yul\":552:557   */\n      dup2\n        /* \"#utility.yul\":525:558   */\n      tag_37\n      jump\t// in\n    tag_36:\n        /* \"#utility.yul\":425:564   */\n      swap3\n      swap2\n      pop\n      pop\n      jump\t// out\n        /* \"#utility.yul\":584:924   */\n    tag_38:\n        /* \"#utility.yul\":640:645   */\n      0x00\n        /* \"#utility.yul\":689:692   */\n      dup3\n        /* \"#utility.yul\":682:686   */\n      0x1f\n        /* \"#utility.yul\":674:680   */\n      dup4\n        /* \"#utility.yul\":670:687   */\n      add\n        /* \"#utility.yul\":666:693   */\n      slt\n        /* \"#utility.yul\":656:778   */\n      tag_40\n      jumpi\n        /* \"#utility.yul\":697:776   */\n      tag_41\n      tag_42\n      jump\t// in\n    tag_41:\n        /* \"#utility.yul\":656:778   */\n    tag_40:\n        /* \"#utility.yul\":814:820   */\n      dup2\n        /* \"#utility.yul\":801:821   */\n      calldataload\n        /* \"#utility.yul\":839:918   */\n      tag_43\n        /* \"#utility.yul\":914:917   */\n      dup5\n        /* \"#utility.yul\":906:912   */\n      dup3\n        /* \"#utility.yul\":899:903   */\n      0x20\n        /* \"#utility.yul\":891:897   */\n      dup7\n        /* \"#utility.yul\":887:904   */\n      add\n        /* \"#utility.yul\":839:918   */\n      tag_23\n      jump\t// in\n    tag_43:\n        /* \"#utility.yul\":830:918   */\n      swap2\n      pop\n        /* \"#utility.yul\":646:924   */\n      pop\n        /* \"#utility.yul\":584:924   */\n      swap3\n      swap2\n      pop\n      pop\n      jump\t// out\n        /* \"#utility.yul\":930:1069   */\n    tag_44:\n        /* \"#utility.yul\":976:981   */\n      0x00\n        /* \"#utility.yul\":1014:1020   */\n      dup2\n        /* \"#utility.yul\":1001:1021   */\n      calldataload\n        /* \"#utility.yul\":992:1021   */\n      swap1\n      pop\n        /* \"#utility.yul\":1030:1063   */\n      tag_46\n        /* \"#utility.yul\":1057:1062   */\n      dup2\n        /* \"#utility.yul\":1030:1063   */\n      tag_47\n      jump\t// in\n    tag_46:\n        /* \"#utility.yul\":930:1069   */\n      swap3\n      swap2\n      pop\n      pop\n      jump\t// out\n        /* \"#utility.yul\":1075:1874   */\n    tag_6:\n        /* \"#utility.yul\":1162:1168   */\n      0x00\n        /* \"#utility.yul\":1170:1176   */\n      dup1\n        /* \"#utility.yul\":1178:1184   */\n      0x00\n        /* \"#utility.yul\":1227:1229   */\n      0x60\n        /* \"#utility.yul\":1215:1224   */\n      dup5\n        /* \"#utility.yul\":1206:1213   */\n      dup7\n        /* \"#utility.yul\":1202:1225   */\n      sub\n        /* \"#utility.yul\":1198:1230   */\n      slt\n        /* \"#utility.yul\":1195:1314   */\n      iszero\n      tag_49\n      jumpi\n        /* \"#utility.yul\":1233:1312   */\n      tag_50\n      tag_51\n      jump\t// in\n    tag_50:\n        /* \"#utility.yul\":1195:1314   */\n    tag_49:\n        /* \"#utility.yul\":1381:1382   */\n      0x00\n        /* \"#utility.yul\":1370:1379   */\n      dup5\n        /* \"#utility.yul\":1366:1383   */\n      add\n        /* \"#utility.yul\":1353:1384   */\n      calldataload\n        /* \"#utility.yul\":1411:1429   */\n      0xffffffffffffffff\n        /* \"#utility.yul\":1403:1409   */\n      dup2\n        /* \"#utility.yul\":1400:1430   */\n      gt\n        /* \"#utility.yul\":1397:1514   */\n      iszero\n      tag_52\n      jumpi\n        /* \"#utility.yul\":1433:1512   */\n      tag_53\n      tag_54\n      jump\t// in\n    tag_53:\n        /* \"#utility.yul\":1397:1514   */\n    tag_52:\n        /* \"#utility.yul\":1538:1601   */\n      tag_55\n        /* \"#utility.yul\":1593:1600   */\n      dup7\n        /* \"#utility.yul\":1584:1590   */\n      dup3\n        /* \"#utility.yul\":1573:1582   */\n      dup8\n        /* \"#utility.yul\":1569:1591   */\n      add\n        /* \"#utility.yul\":1538:1601   */\n      tag_38\n      jump\t// in\n    tag_55:\n        /* \"#utility.yul\":1528:1601   */\n      swap4\n      pop\n        /* \"#utility.yul\":1324:1611   */\n      pop\n        /* \"#utility.yul\":1650:1652   */\n      0x20\n        /* \"#utility.yul\":1676:1729   */\n      tag_56\n        /* \"#utility.yul\":1721:1728   */\n      dup7\n        /* \"#utility.yul\":1712:1718   */\n      dup3\n        /* \"#utility.yul\":1701:1710   */\n      dup8\n        /* \"#utility.yul\":1697:1719   */\n      add\n        /* \"#utility.yul\":1676:1729   */\n      tag_44\n      jump\t// in\n    tag_56:\n        /* \"#utility.yul\":1666:1729   */\n      swap3\n      pop\n        /* \"#utility.yul\":1621:1739   */\n      pop\n        /* \"#utility.yul\":1778:1780   */\n      0x40\n        /* \"#utility.yul\":1804:1857   */\n      tag_57\n        /* \"#utility.yul\":1849:1856   */\n      dup7\n        /* \"#utility.yul\":1840:1846   */\n      dup3\n        /* \"#utility.yul\":1829:1838   */\n      dup8\n        /* \"#utility.yul\":1825:1847   */\n      add\n        /* \"#utility.yul\":1804:1857   */\n      tag_34\n      jump\t// in\n    tag_57:\n        /* \"#utility.yul\":1794:1857   */\n      swap2\n      pop\n        /* \"#utility.yul\":1749:1867   */\n      pop\n        /* \"#utility.yul\":1075:1874   */\n      swap3\n      pop\n      swap3\n      pop\n      swap3\n      jump\t// out\n        /* \"#utility.yul\":1880:2009   */\n    tag_28:\n        /* \"#utility.yul\":1914:1920   */\n      0x00\n        /* \"#utility.yul\":1941:1961   */\n      tag_59\n      tag_60\n      jump\t// in\n    tag_59:\n        /* \"#utility.yul\":1931:1961   */\n      swap1\n      pop\n        /* \"#utility.yul\":1970:2003   */\n      tag_61\n        /* \"#utility.yul\":1998:2002   */\n      dup3\n        /* \"#utility.yul\":1990:1996   */\n      dup3\n        /* \"#utility.yul\":1970:2003   */\n      tag_62\n      jump\t// in\n    tag_61:\n        /* \"#utility.yul\":1880:2009   */\n      swap2\n      swap1\n      pop\n      jump\t// out\n        /* \"#utility.yul\":2015:2090   */\n    tag_60:\n        /* \"#utility.yul\":2048:2054   */\n      0x00\n        /* \"#utility.yul\":2081:2083   */\n      0x40\n        /* \"#utility.yul\":2075:2084   */\n      mload\n        /* \"#utility.yul\":2065:2084   */\n      swap1\n      pop\n        /* \"#utility.yul\":2015:2090   */\n      swap1\n      jump\t// out\n        /* \"#utility.yul\":2096:2404   */\n    tag_27:\n        /* \"#utility.yul\":2158:2162   */\n      0x00\n        /* \"#utility.yul\":2248:2266   */\n      0xffffffffffffffff\n        /* \"#utility.yul\":2240:2246   */\n      dup3\n        /* \"#utility.yul\":2237:2267   */\n      gt\n        /* \"#utility.yul\":2234:2290   */\n      iszero\n      tag_65\n      jumpi\n        /* \"#utility.yul\":2270:2288   */\n      tag_66\n      tag_67\n      jump\t// in\n    tag_66:\n        /* \"#utility.yul\":2234:2290   */\n    tag_65:\n        /* \"#utility.yul\":2308:2337   */\n      tag_68\n        /* \"#utility.yul\":2330:2336   */\n      dup3\n        /* \"#utility.yul\":2308:2337   */\n      tag_69\n      jump\t// in\n    tag_68:\n        /* \"#utility.yul\":2300:2337   */\n      swap1\n      pop\n        /* \"#utility.yul\":2392:2396   */\n      0x20\n        /* \"#utility.yul\":2386:2390   */\n      dup2\n        /* \"#utility.yul\":2382:2397   */\n      add\n        /* \"#utility.yul\":2374:2397   */\n      swap1\n      pop\n        /* \"#utility.yul\":2096:2404   */\n      swap2\n      swap1\n      pop\n      jump\t// out\n        /* \"#utility.yul\":2410:2506   */\n    tag_70:\n        /* \"#utility.yul\":2447:2454   */\n      0x00\n        /* \"#utility.yul\":2476:2500   */\n      tag_72\n        /* \"#utility.yul\":2494:2499   */\n      dup3\n        /* \"#utility.yul\":2476:2500   */\n      tag_73\n      jump\t// in\n    tag_72:\n        /* \"#utility.yul\":2465:2500   */\n      swap1\n      pop\n        /* \"#utility.yul\":2410:2506   */\n      swap2\n      swap1\n      pop\n      jump\t// out\n        /* \"#utility.yul\":2512:2638   */\n    tag_73:\n        /* \"#utility.yul\":2549:2556   */\n      0x00\n        /* \"#utility.yul\":2589:2631   */\n      0xffffffffffffffffffffffffffffffffffffffff\n        /* \"#utility.yul\":2582:2587   */\n      dup3\n        /* \"#utility.yul\":2578:2632   */\n      and\n        /* \"#utility.yul\":2567:2632   */\n      swap1\n      pop\n        /* \"#utility.yul\":2512:2638   */\n      swap2\n      swap1\n      pop\n      jump\t// out\n        /* \"#utility.yul\":2644:2721   */\n    tag_75:\n        /* \"#utility.yul\":2681:2688   */\n      0x00\n        /* \"#utility.yul\":2710:2715   */\n      dup2\n        /* \"#utility.yul\":2699:2715   */\n      swap1\n      pop\n        /* \"#utility.yul\":2644:2721   */\n      swap2\n      swap1\n      pop\n      jump\t// out\n        /* \"#utility.yul\":2727:2881   */\n    tag_33:\n        /* \"#utility.yul\":2811:2817   */\n      dup3\n        /* \"#utility.yul\":2806:2809   */\n      dup2\n        /* \"#utility.yul\":2801:2804   */\n      dup4\n        /* \"#utility.yul\":2788:2818   */\n      calldatacopy\n        /* \"#utility.yul\":2873:2874   */\n      0x00\n        /* \"#utility.yul\":2864:2870   */\n      dup4\n        /* \"#utility.yul\":2859:2862   */\n      dup4\n        /* \"#utility.yul\":2855:2871   */\n      add\n        /* \"#utility.yul\":2848:2875   */\n      mstore\n        /* \"#utility.yul\":2727:2881   */\n      pop\n      pop\n      pop\n      jump\t// out\n        /* \"#utility.yul\":2887:3207   */\n    tag_12:\n        /* \"#utility.yul\":2931:2937   */\n      0x00\n        /* \"#utility.yul\":2968:2969   */\n      0x02\n        /* \"#utility.yul\":2962:2966   */\n      dup3\n        /* \"#utility.yul\":2958:2970   */\n      div\n        /* \"#utility.yul\":2948:2970   */\n      swap1\n      pop\n        /* \"#utility.yul\":3015:3016   */\n      0x01\n        /* \"#utility.yul\":3009:3013   */\n      dup3\n        /* \"#utility.yul\":3005:3017   */\n      and\n        /* \"#utility.yul\":3036:3054   */\n      dup1\n        /* \"#utility.yul\":3026:3107   */\n      tag_79\n      jumpi\n        /* \"#utility.yul\":3092:3096   */\n      0x7f\n        /* \"#utility.yul\":3084:3090   */\n      dup3\n        /* \"#utility.yul\":3080:3097   */\n      and\n        /* \"#utility.yul\":3070:3097   */\n      swap2\n      pop\n        /* \"#utility.yul\":3026:3107   */\n    tag_79:\n        /* \"#utility.yul\":3154:3156   */\n      0x20\n        /* \"#utility.yul\":3146:3152   */\n      dup3\n        /* \"#utility.yul\":3143:3157   */\n      lt\n        /* \"#utility.yul\":3123:3141   */\n      dup2\n        /* \"#utility.yul\":3120:3158   */\n      eq\n        /* \"#utility.yul\":3117:3201   */\n      iszero\n      tag_80\n      jumpi\n        /* \"#utility.yul\":3173:3191   */\n      tag_81\n      tag_82\n      jump\t// in\n    tag_81:\n        /* \"#utility.yul\":3117:3201   */\n    tag_80:\n        /* \"#utility.yul\":2938:3207   */\n      pop\n        /* \"#utility.yul\":2887:3207   */\n      swap2\n      swap1\n      pop\n      jump\t// out\n        /* \"#utility.yul\":3213:3494   */\n    tag_62:\n        /* \"#utility.yul\":3296:3323   */\n      tag_84\n        /* \"#utility.yul\":3318:3322   */\n      dup3\n        /* \"#utility.yul\":3296:3323   */\n      tag_69\n      jump\t// in\n    tag_84:\n        /* \"#utility.yul\":3288:3294   */\n      dup2\n        /* \"#utility.yul\":3284:3324   */\n      add\n        /* \"#utility.yul\":3426:3432   */\n      dup2\n        /* \"#utility.yul\":3414:3424   */\n      dup2\n        /* \"#utility.yul\":3411:3433   */\n      lt\n        /* \"#utility.yul\":3390:3408   */\n      0xffffffffffffffff\n        /* \"#utility.yul\":3378:3388   */\n      dup3\n        /* \"#utility.yul\":3375:3409   */\n      gt\n        /* \"#utility.yul\":3372:3434   */\n      or\n        /* \"#utility.yul\":3369:3457   */\n      iszero\n      tag_85\n      jumpi\n        /* \"#utility.yul\":3437:3455   */\n      tag_86\n      tag_67\n      jump\t// in\n    tag_86:\n        /* \"#utility.yul\":3369:3457   */\n    tag_85:\n        /* \"#utility.yul\":3477:3487   */\n      dup1\n        /* \"#utility.yul\":3473:3475   */\n      0x40\n        /* \"#utility.yul\":3466:3488   */\n      mstore\n        /* \"#utility.yul\":3256:3494   */\n      pop\n        /* \"#utility.yul\":3213:3494   */\n      pop\n      pop\n      jump\t// out\n        /* \"#utility.yul\":3500:3680   */\n    tag_82:\n        /* \"#utility.yul\":3548:3625   */\n      0x4e487b7100000000000000000000000000000000000000000000000000000000\n        /* \"#utility.yul\":3545:3546   */\n      0x00\n        /* \"#utility.yul\":3538:3626   */\n      mstore\n        /* \"#utility.yul\":3645:3649   */\n      0x22\n        /* \"#utility.yul\":3642:3643   */\n      0x04\n        /* \"#utility.yul\":3635:3650   */\n      mstore\n        /* \"#utility.yul\":3669:3673   */\n      0x24\n        /* \"#utility.yul\":3666:3667   */\n      0x00\n        /* \"#utility.yul\":3659:3674   */\n      revert\n        /* \"#utility.yul\":3686:3866   */\n    tag_67:\n        /* \"#utility.yul\":3734:3811   */\n      0x4e487b7100000000000000000000000000000000000000000000000000000000\n        /* \"#utility.yul\":3731:3732   */\n      0x00\n        /* \"#utility.yul\":3724:3812   */\n      mstore\n        /* \"#utility.yul\":3831:3835   */\n      0x41\n        /* \"#utility.yul\":3828:3829   */\n      0x04\n        /* \"#utility.yul\":3821:3836   */\n      mstore\n        /* \"#utility.yul\":3855:3859   */\n      0x24\n        /* \"#utility.yul\":3852:3853   */\n      0x00\n        /* \"#utility.yul\":3845:3860   */\n      revert\n        /* \"#utility.yul\":3872:3989   */\n    tag_42:\n        /* \"#utility.yul\":3981:3982   */\n      0x00\n        /* \"#utility.yul\":3978:3979   */\n      dup1\n        /* \"#utility.yul\":3971:3983   */\n      revert\n        /* \"#utility.yul\":3995:4112   */\n    tag_31:\n        /* \"#utility.yul\":4104:4105   */\n      0x00\n        /* \"#utility.yul\":4101:4102   */\n      dup1\n        /* \"#utility.yul\":4094:4106   */\n      revert\n        /* \"#utility.yul\":4118:4235   */\n    tag_54:\n        /* \"#utility.yul\":4227:4228   */\n      0x00\n        /* \"#utility.yul\":4224:4225   */\n      dup1\n        /* \"#utility.yul\":4217:4229   */\n      revert\n        /* \"#utility.yul\":4241:4358   */\n    tag_51:\n        /* \"#utility.yul\":4350:4351   */\n      0x00\n        /* \"#utility.yul\":4347:4348   */\n      dup1\n        /* \"#utility.yul\":4340:4352   */\n      revert\n        /* \"#utility.yul\":4364:4466   */\n    tag_69:\n        /* \"#utility.yul\":4405:4411   */\n      0x00\n        /* \"#utility.yul\":4456:4458   */\n      0x1f\n        /* \"#utility.yul\":4452:4459   */\n      not\n        /* \"#utility.yul\":4447:4449   */\n      0x1f\n        /* \"#utility.yul\":4440:4445   */\n      dup4\n        /* \"#utility.yul\":4436:4450   */\n      add\n        /* \"#utility.yul\":4432:4460   */\n      and\n        /* \"#utility.yul\":4422:4460   */\n      swap1\n      pop\n        /* \"#utility.yul\":4364:4466   */\n      swap2\n      swap1\n      pop\n      jump\t// out\n        /* \"#utility.yul\":4472:4594   */\n    tag_37:\n        /* \"#utility.yul\":4545:4569   */\n      tag_95\n        /* \"#utility.yul\":4563:4568   */\n      dup2\n        /* \"#utility.yul\":4545:4569   */\n      tag_70\n      jump\t// in\n    tag_95:\n        /* \"#utility.yul\":4538:4543   */\n      dup2\n        /* \"#utility.yul\":4535:4570   */\n      eq\n        /* \"#utility.yul\":4525:4588   */\n      tag_96\n      jumpi\n        /* \"#utility.yul\":4584:4585   */\n      0x00\n        /* \"#utility.yul\":4581:4582   */\n      dup1\n        /* \"#utility.yul\":4574:4586   */\n      revert\n        /* \"#utility.yul\":4525:4588   */\n    tag_96:\n        /* \"#utility.yul\":4472:4594   */\n      pop\n      jump\t// out\n        /* \"#utility.yul\":4600:4722   */\n    tag_47:\n        /* \"#utility.yul\":4673:4697   */\n      tag_98\n        /* \"#utility.yul\":4691:4696   */\n      dup2\n        /* \"#utility.yul\":4673:4697   */\n      tag_75\n      jump\t// in\n    tag_98:\n        /* \"#utility.yul\":4666:4671   */\n      dup2\n        /* \"#utility.yul\":4663:4698   */\n      eq\n        /* \"#utility.yul\":4653:4716   */\n      tag_99\n      jumpi\n        /* \"#utility.yul\":4712:4713   */\n      0x00\n        /* \"#utility.yul\":4709:4710   */\n      dup1\n        /* \"#utility.yul\":4702:4714   */\n      revert\n        /* \"#utility.yul\":4653:4716   */\n    tag_99:\n        /* \"#utility.yul\":4600:4722   */\n      pop\n      jump\t// out\n\n    auxdata: 0xa2646970667358221220359c782aeee4e3afa3d38b65cba87edcaf85a7c06f0c3870bc49c391dbbda58364736f6c63430008070033\n}\n",
				"bytecode": {
					"linkReferences": {},
					"object": "608060405234801561001057600080fd5b5061048b806100206000396000f3fe608060405234801561001057600080fd5b506004361061002b5760003560e01c8063b771af3d14610030575b600080fd5b61004a60048036038101906100459190610231565b61004c565b005b60405180606001604052808481526020018381526020018273ffffffffffffffffffffffffffffffffffffffff1681525060008082015181600001908051906020019061009a9291906100f4565b506020820151816001015560408201518160020160006101000a81548173ffffffffffffffffffffffffffffffffffffffff021916908373ffffffffffffffffffffffffffffffffffffffff160217905550905050505050565b82805461010090610341565b90600052602060002090601f0160209004810192826101225760008555610169565b82601f1061013b57805160ff1916838001178555610169565b82800160010185558215610169579182015b8281111561016857825182559160200191906001019061014d565b5b509050610176919061017a565b5090565b5b8082111561019357600081600090555060010161017b565b5090565b60006101aa6101a5846102c5565b6102a0565b9050828152602081018484840111156101c6576101c5610407565b5b6101d1848285610332565b509392505050565b6000813590506101e881610427565b92915050565b600082601f83011261020357610202610402565b5b8135610213848260208601610197565b91505092915050565b60008135905061022b8161043e565b92915050565b60008060006060848603121561024a57610249610411565b5b600084013567ffffffffffffffff8111156102685761026761040c565b5b610274868287016101ee565b93505060206102858682870161021c565b9250506040610296868287016101d9565b9150509250925092565b60006102aa6102bb565b90506102b68282610373565b919050565b6000604051905090565b600067ffffffffffffffff8211156102e0576102df6103d3565b5b6102e982610416565b9050602081019050919050565b600061030182610308565b9050919050565b600073ffffffffffffffffffffffffffffffffffffffff82169050919050565b6000819050919050565b82818337600083830152505050565b6000600282049050600182168061035957607f821691505b6020821081141561036d5761036c6103a4565b5b50919050565b61037c82610416565b810181811067ffffffffffffffff8211171561039b5761039a6103d3565b5b80604052505050565b7f4e487b7100000000000000000000000000000000000000000000000000000000600052602260045260246000fd5b7f4e487b7100000000000000000000000000000000000000000000000000000000600052604160045260246000fd5b600080fd5b600080fd5b600080fd5b600080fd5b6000601f19601f8301169050919050565b610430816102f6565b811461043b57600080fd5b50565b61044781610328565b811461045257600080fd5b5056fea2646970667358221220359c782aeee4e3afa3d38b65cba87edcaf85a7c06f0c3870bc49c391dbbda58364736f6c63430008070033",
					"opcodes": "PUSH1 0x80 PUSH1 0x40 MSTORE CALLVALUE DUP1 ISZERO PUSH2 0x10 JUMPI PUSH1 0x0 DUP1 REVERT JUMPDEST POP PUSH2 0x48B DUP1 PUSH2 0x20 PUSH1 0x0 CODECOPY PUSH1 0x0 RETURN INVALID PUSH1 0x80 PUSH1 0x40 MSTORE CALLVALUE DUP1 ISZERO PUSH2 0x10 JUMPI PUSH1 0x0 DUP1 REVERT JUMPDEST POP PUSH1 0x4 CALLDATASIZE LT PUSH2 0x2B JUMPI PUSH1 0x0 CALLDATALOAD PUSH1 0xE0 SHR DUP1 PUSH4 0xB771AF3D EQ PUSH2 0x30 JUMPI JUMPDEST PUSH1 0x0 DUP1 REVERT JUMPDEST PUSH2 0x4A PUSH1 0x4 DUP1 CALLDATASIZE SUB DUP2 ADD SWAP1 PUSH2 0x45 SWAP2 SWAP1 PUSH2 0x231 JUMP JUMPDEST PUSH2 0x4C JUMP JUMPDEST STOP JUMPDEST PUSH1 0x40 MLOAD DUP1 PUSH1 0x60 ADD PUSH1 0x40 MSTORE DUP1 DUP5 DUP2 MSTORE PUSH1 0x20 ADD DUP4 DUP2 MSTORE PUSH1 0x20 ADD DUP3 PUSH20 0xFFFFFFFFFFFFFFFFFFFFFFFFFFFFFFFFFFFFFFFF AND DUP2 MSTORE POP PUSH1 0x0 DUP1 DUP3 ADD MLOAD DUP2 PUSH1 0x0 ADD SWAP1 DUP1 MLOAD SWAP1 PUSH1 0x20 ADD SWAP1 PUSH2 0x9A SWAP3 SWAP2 SWAP1 PUSH2 0xF4 JUMP JUMPDEST POP PUSH1 0x20 DUP3 ADD MLOAD DUP2 PUSH1 0x1 ADD SSTORE PUSH1 0x40 DUP3 ADD MLOAD DUP2 PUSH1 0x2 ADD PUSH1 0x0 PUSH2 0x100 EXP DUP2 SLOAD DUP2 PUSH20 0xFFFFFFFFFFFFFFFFFFFFFFFFFFFFFFFFFFFFFFFF MUL NOT AND SWAP1 DUP4 PUSH20 0xFFFFFFFFFFFFFFFFFFFFFFFFFFFFFFFFFFFFFFFF AND MUL OR SWAP1 SSTORE POP SWAP1 POP POP POP POP POP JUMP JUMPDEST DUP3 DUP1 SLOAD PUSH2 0x100 SWAP1 PUSH2 0x341 JUMP JUMPDEST SWAP1 PUSH1 0x0 MSTORE PUSH1 0x20 PUSH1 0x0 KECCAK256 SWAP1 PUSH1 0x1F ADD PUSH1 0x20 SWAP1 DIV DUP2 ADD SWAP3 DUP3 PUSH2 0x122 JUMPI PUSH1 0x0 DUP6 SSTORE PUSH2 0x169 JUMP JUMPDEST DUP3 PUSH1 0x1F LT PUSH2 0x13B JUMPI DUP1 MLOAD PUSH1 0xFF NOT AND DUP4 DUP1 ADD OR DUP6 SSTORE PUSH2 0x169 JUMP JUMPDEST DUP3 DUP1 ADD PUSH1 0x1 ADD DUP6 SSTORE DUP3 ISZERO PUSH2 0x169 JUMPI SWAP2 DUP3 ADD JUMPDEST DUP3 DUP2 GT ISZERO PUSH2 0x168 JUMPI DUP3 MLOAD DUP3 SSTORE SWAP2 PUSH1 0x20 ADD SWAP2 SWAP1 PUSH1 0x1 ADD SWAP1 PUSH2 0x14D JUMP JUMPDEST JUMPDEST POP SWAP1 POP PUSH2 0x176 SWAP2 SWAP1 PUSH2 0x17A JUMP JUMPDEST POP SWAP1 JUMP JUMPDEST JUMPDEST DUP1 DUP3 GT ISZERO PUSH2 0x193 JUMPI PUSH1 0x0 DUP2 PUSH1 0x0 SWAP1 SSTORE POP PUSH1 0x1 ADD PUSH2 0x17B JUMP JUMPDEST POP SWAP1 JUMP JUMPDEST PUSH1 0x0 PUSH2 0x1AA PUSH2 0x1A5 DUP5 PUSH2 0x2C5 JUMP JUMPDEST PUSH2 0x2A0 JUMP JUMPDEST SWAP1 POP DUP3 DUP2 MSTORE PUSH1 0x20 DUP2 ADD DUP5 DUP5 DUP5 ADD GT ISZERO PUSH2 0x1C6 JUMPI PUSH2 0x1C5 PUSH2 0x407 JUMP JUMPDEST JUMPDEST PUSH2 0x1D1 DUP5 DUP3 DUP6 PUSH2 0x332 JUMP JUMPDEST POP SWAP4 SWAP3 POP POP POP JUMP JUMPDEST PUSH1 0x0 DUP2 CALLDATALOAD SWAP1 POP PUSH2 0x1E8 DUP2 PUSH2 0x427 JUMP JUMPDEST SWAP3 SWAP2 POP POP JUMP JUMPDEST PUSH1 0x0 DUP3 PUSH1 0x1F DUP4 ADD SLT PUSH2 0x203 JUMPI PUSH2 0x202 PUSH2 0x402 JUMP JUMPDEST JUMPDEST DUP2 CALLDATALOAD PUSH2 0x213 DUP5 DUP3 PUSH1 0x20 DUP7 ADD PUSH2 0x197 JUMP JUMPDEST SWAP2 POP POP SWAP3 SWAP2 POP POP JUMP JUMPDEST PUSH1 0x0 DUP2 CALLDATALOAD SWAP1 POP PUSH2 0x22B DUP2 PUSH2 0x43E JUMP JUMPDEST SWAP3 SWAP2 POP POP JUMP JUMPDEST PUSH1 0x0 DUP1 PUSH1 0x0 PUSH1 0x60 DUP5 DUP7 SUB SLT ISZERO PUSH2 0x24A JUMPI PUSH2 0x249 PUSH2 0x411 JUMP JUMPDEST JUMPDEST PUSH1 0x0 DUP5 ADD CALLDATALOAD PUSH8 0xFFFFFFFFFFFFFFFF DUP2 GT ISZERO PUSH2 0x268 JUMPI PUSH2 0x267 PUSH2 0x40C JUMP JUMPDEST JUMPDEST PUSH2 0x274 DUP7 DUP3 DUP8 ADD PUSH2 0x1EE JUMP JUMPDEST SWAP4 POP POP PUSH1 0x20 PUSH2 0x285 DUP7 DUP3 DUP8 ADD PUSH2 0x21C JUMP JUMPDEST SWAP3 POP POP PUSH1 0x40 PUSH2 0x296 DUP7 DUP3 DUP8 ADD PUSH2 0x1D9 JUMP JUMPDEST SWAP2 POP POP SWAP3 POP SWAP3 POP SWAP3 JUMP JUMPDEST PUSH1 0x0 PUSH2 0x2AA PUSH2 0x2BB JUMP JUMPDEST SWAP1 POP PUSH2 0x2B6 DUP3 DUP3 PUSH2 0x373 JUMP JUMPDEST SWAP2 SWAP1 POP JUMP JUMPDEST PUSH1 0x0 PUSH1 0x40 MLOAD SWAP1 POP SWAP1 JUMP JUMPDEST PUSH1 0x0 PUSH8 0xFFFFFFFFFFFFFFFF DUP3 GT ISZERO PUSH2 0x2E0 JUMPI PUSH2 0x2DF PUSH2 0x3D3 JUMP JUMPDEST JUMPDEST PUSH2 0x2E9 DUP3 PUSH2 0x416 JUMP JUMPDEST SWAP1 POP PUSH1 0x20 DUP2 ADD SWAP1 POP SWAP2 SWAP1 POP JUMP JUMPDEST PUSH1 0x0 PUSH2 0x301 DUP3 PUSH2 0x308 JUMP JUMPDEST SWAP1 POP SWAP2 SWAP1 POP JUMP JUMPDEST PUSH1 0x0 PUSH20 0xFFFFFFFFFFFFFFFFFFFFFFFFFFFFFFFFFFFFFFFF DUP3 AND SWAP1 POP SWAP2 SWAP1 POP JUMP JUMPDEST PUSH1 0x0 DUP2 SWAP1 POP SWAP2 SWAP1 POP JUMP JUMPDEST DUP3 DUP2 DUP4 CALLDATACOPY PUSH1 0x0 DUP4 DUP4 ADD MSTORE POP POP POP JUMP JUMPDEST PUSH1 0x0 PUSH1 0x2 DUP3 DIV SWAP1 POP PUSH1 0x1 DUP3 AND DUP1 PUSH2 0x359 JUMPI PUSH1 0x7F DUP3 AND SWAP2 POP JUMPDEST PUSH1 0x20 DUP3 LT DUP2 EQ ISZERO PUSH2 0x36D JUMPI PUSH2 0x36C PUSH2 0x3A4 JUMP JUMPDEST JUMPDEST POP SWAP2 SWAP1 POP JUMP JUMPDEST PUSH2 0x37C DUP3 PUSH2 0x416 JUMP JUMPDEST DUP2 ADD DUP2 DUP2 LT PUSH8 0xFFFFFFFFFFFFFFFF DUP3 GT OR ISZERO PUSH2 0x39B JUMPI PUSH2 0x39A PUSH2 0x3D3 JUMP JUMPDEST JUMPDEST DUP1 PUSH1 0x40 MSTORE POP POP POP JUMP JUMPDEST PUSH32 0x4E487B7100000000000000000000000000000000000000000000000000000000 PUSH1 0x0 MSTORE PUSH1 0x22 PUSH1 0x4 MSTORE PUSH1 0x24 PUSH1 0x0 REVERT JUMPDEST PUSH32 0x4E487B7100000000000000000000000000000000000000000000000000000000 PUSH1 0x0 MSTORE PUSH1 0x41 PUSH1 0x4 MSTORE PUSH1 0x24 PUSH1 0x0 REVERT JUMPDEST PUSH1 0x0 DUP1 REVERT JUMPDEST PUSH1 0x0 DUP1 REVERT JUMPDEST PUSH1 0x0 DUP1 REVERT JUMPDEST PUSH1 0x0 DUP1 REVERT JUMPDEST PUSH1 0x0 PUSH1 0x1F NOT PUSH1 0x1F DUP4 ADD AND SWAP1 POP SWAP2 SWAP1 POP JUMP JUMPDEST PUSH2 0x430 DUP2 PUSH2 0x2F6 JUMP JUMPDEST DUP2 EQ PUSH2 0x43B JUMPI PUSH1 0x0 DUP1 REVERT JUMPDEST POP JUMP JUMPDEST PUSH2 0x447 DUP2 PUSH2 0x328 JUMP JUMPDEST DUP2 EQ PUSH2 0x452 JUMPI PUSH1 0x0 DUP1 REVERT JUMPDEST POP JUMP INVALID LOG2 PUSH5 0x6970667358 0x22 SLT KECCAK256 CALLDATALOAD SWAP13 PUSH25 0x2AEEE4E3AFA3D38B65CBA87EDCAF85A7C06F0C3870BC49C391 0xDB 0xBD 0xA5 DUP4 PUSH5 0x736F6C6343 STOP ADDMOD SMOD STOP CALLER "
				},
				"gasEstimates": {
					"creation": {
						"codeDepositCost": "232600",
						"executionCost": "275",
						"totalCost": "232875"
					},
					"external": {
						"setValue(string,uint256,address)": "infinite"
					}
				},
				"methodIdentifiers": {
					"setValue(string,uint256,address)": "b771af3d"
				}
			},
			"storageLayout": {
				"storage": [
					{
						"astId": 11,
						"contract": "structure.sol:structure",
						"label": "a",
						"offset": 0,
						"slot": "0",
						"type": "t_struct(myDT)8_storage"
					}
				],
				"types": {
					"t_address": {
						"encoding": "inplace",
						"label": "address",
						"numberOfBytes": "20"
					},
					"t_string_storage": {
						"encoding": "bytes",
						"label": "string",
						"numberOfBytes": "32"
					},
					"t_struct(myDT)8_storage": {
						"encoding": "inplace",
						"label": "struct structure.myDT",
						"members": [
							{
								"astId": 3,
								"contract": "structure.sol:structure",
								"label": "name",
								"offset": 0,
								"slot": "0",
								"type": "t_string_storage"
							},
							{
								"astId": 5,
								"contract": "structure.sol:structure",
								"label": "age",
								"offset": 0,
								"slot": "1",
								"type": "t_uint256"
							},
							{
								"astId": 7,
								"contract": "structure.sol:structure",
								"label": "acc",
								"offset": 0,
								"slot": "2",
								"type": "t_address"
							}
						],
						"numberOfBytes": "96"
					},
					"t_uint256": {
						"encoding": "inplace",
						"label": "uint256",
						"numberOfBytes": "32"
					}
				}
			},
			"userdoc": {
				"kind": "user",
				"methods": {},
				"version": 1
			}
		}
	}
}