{
	"localVariable.sol": {
		"localVariable": {
			"abi": [
				{
					"inputs": [],
					"name": "age",
					"outputs": [
						{
							"internalType": "uint256",
							"name": "",
							"type": "uint256"
						}
					],
					"stateMutability": "view",
					"type": "function"
				},
				{
					"inputs": [],
					"name": "b",
					"outputs": [
						{
							"internalType": "bool",
							"name": "",
							"type": "bool"
						}
					],
					"stateMutability": "view",
					"type": "function"
				},
				{
					"inputs": [
						{
							"internalType": "uint256",
							"name": "_x",
							"type": "uint256"
						},
						{
							"internalType": "bool",
							"name": "_y",
							"type": "bool"
						},
						{
							"internalType": "address",
							"name": "_z",
							"type": "address"
						}
					],
					"name": "fun",
					"outputs": [],
					"stateMutability": "nonpayable",
					"type": "function"
				},
				{
					"inputs": [],
					"name": "newAdd",
					"outputs": [
						{
							"internalType": "address",
							"name": "",
							"type": "address"
						}
					],
					"stateMutability": "view",
					"type": "function"
				}
			],
			"devdoc": {
				"kind": "dev",
				"methods": {},
				"version": 1
			},
			"evm": {
				"assembly": "    /* \"localVariable.sol\":58:284  contract localVariable{... */\n  mstore(0x40, 0x80)\n  callvalue\n  dup1\n  iszero\n  tag_1\n  jumpi\n  0x00\n  dup1\n  revert\ntag_1:\n  pop\n  dataSize(sub_0)\n  dup1\n  dataOffset(sub_0)\n  0x00\n  codecopy\n  0x00\n  return\nstop\n\nsub_0: assembly {\n        /* \"localVariable.sol\":58:284  contract localVariable{... */\n      mstore(0x40, 0x80)\n      callvalue\n      dup1\n      iszero\n      tag_1\n      jumpi\n      0x00\n      dup1\n      revert\n    tag_1:\n      pop\n      jumpi(tag_2, lt(calldatasize, 0x04))\n      shr(0xe0, calldataload(0x00))\n      dup1\n      0x262a9dff\n      eq\n      tag_3\n      jumpi\n      dup1\n      0x4df7e3d0\n      eq\n      tag_4\n      jumpi\n      dup1\n      0x59a35e00\n      eq\n      tag_5\n      jumpi\n      dup1\n      0x6d2d583d\n      eq\n      tag_6\n      jumpi\n    tag_2:\n      0x00\n      dup1\n      revert\n        /* \"localVariable.sol\":86:101  uint public age */\n    tag_3:\n      tag_7\n      tag_8\n      jump\t// in\n    tag_7:\n      mload(0x40)\n      tag_9\n      swap2\n      swap1\n      tag_10\n      jump\t// in\n    tag_9:\n      mload(0x40)\n      dup1\n      swap2\n      sub\n      swap1\n      return\n        /* \"localVariable.sol\":107:120  bool public b */\n    tag_4:\n      tag_11\n      tag_12\n      jump\t// in\n    tag_11:\n      mload(0x40)\n      tag_13\n      swap2\n      swap1\n      tag_14\n      jump\t// in\n    tag_13:\n      mload(0x40)\n      dup1\n      swap2\n      sub\n      swap1\n      return\n        /* \"localVariable.sol\":126:147  address public newAdd */\n    tag_5:\n      tag_15\n      tag_16\n      jump\t// in\n    tag_15:\n      mload(0x40)\n      tag_17\n      swap2\n      swap1\n      tag_18\n      jump\t// in\n    tag_17:\n      mload(0x40)\n      dup1\n      swap2\n      sub\n      swap1\n      return\n        /* \"localVariable.sol\":160:282  function fun(uint _x , bool _y , address _z) public{... */\n    tag_6:\n      tag_19\n      0x04\n      dup1\n      calldatasize\n      sub\n      dup2\n      add\n      swap1\n      tag_20\n      swap2\n      swap1\n      tag_21\n      jump\t// in\n    tag_20:\n      tag_22\n      jump\t// in\n    tag_19:\n      stop\n        /* \"localVariable.sol\":86:101  uint public age */\n    tag_8:\n      sload(0x00)\n      dup2\n      jump\t// out\n        /* \"localVariable.sol\":107:120  bool public b */\n    tag_12:\n      0x01\n      0x00\n      swap1\n      sload\n      swap1\n      0x0100\n      exp\n      swap1\n      div\n      0xff\n      and\n      dup2\n      jump\t// out\n        /* \"localVariable.sol\":126:147  address public newAdd */\n    tag_16:\n      0x01\n      dup1\n      sload\n      swap1\n      0x0100\n      exp\n      swap1\n      div\n      0xffffffffffffffffffffffffffffffffffffffff\n      and\n      dup2\n      jump\t// out\n        /* \"localVariable.sol\":160:282  function fun(uint _x , bool _y , address _z) public{... */\n    tag_22:\n        /* \"localVariable.sol\":222:228  uint i */\n      0x00\n        /* \"localVariable.sol\":231:233  98 */\n      0x62\n        /* \"localVariable.sol\":222:233  uint i = 98 */\n      swap1\n      pop\n        /* \"localVariable.sol\":244:251  bool b1 */\n      0x00\n        /* \"localVariable.sol\":254:258  true */\n      0x01\n        /* \"localVariable.sol\":244:258  bool b1 = true */\n      swap1\n      pop\n        /* \"localVariable.sol\":272:274  29 */\n      0x1d\n        /* \"localVariable.sol\":269:274  i+=29 */\n      dup3\n      tag_24\n      swap2\n      swap1\n      tag_25\n      jump\t// in\n    tag_24:\n      swap2\n      pop\n        /* \"localVariable.sol\":160:282  function fun(uint _x , bool _y , address _z) public{... */\n      pop\n      pop\n      pop\n      pop\n      pop\n      jump\t// out\n        /* \"#utility.yul\":7:146   */\n    tag_27:\n      0x00\n        /* \"#utility.yul\":91:97   */\n      dup2\n        /* \"#utility.yul\":78:98   */\n      calldataload\n        /* \"#utility.yul\":69:98   */\n      swap1\n      pop\n        /* \"#utility.yul\":107:140   */\n      tag_29\n        /* \"#utility.yul\":134:139   */\n      dup2\n        /* \"#utility.yul\":107:140   */\n      tag_30\n      jump\t// in\n    tag_29:\n        /* \"#utility.yul\":59:146   */\n      swap3\n      swap2\n      pop\n      pop\n      jump\t// out\n        /* \"#utility.yul\":152:285   */\n    tag_31:\n      0x00\n        /* \"#utility.yul\":233:239   */\n      dup2\n        /* \"#utility.yul\":220:240   */\n      calldataload\n        /* \"#utility.yul\":211:240   */\n      swap1\n      pop\n        /* \"#utility.yul\":249:279   */\n      tag_33\n        /* \"#utility.yul\":273:278   */\n      dup2\n        /* \"#utility.yul\":249:279   */\n      tag_34\n      jump\t// in\n    tag_33:\n        /* \"#utility.yul\":201:285   */\n      swap3\n      swap2\n      pop\n      pop\n      jump\t// out\n        /* \"#utility.yul\":291:430   */\n    tag_35:\n      0x00\n        /* \"#utility.yul\":375:381   */\n      dup2\n        /* \"#utility.yul\":362:382   */\n      calldataload\n        /* \"#utility.yul\":353:382   */\n      swap1\n      pop\n        /* \"#utility.yul\":391:424   */\n      tag_37\n        /* \"#utility.yul\":418:423   */\n      dup2\n        /* \"#utility.yul\":391:424   */\n      tag_38\n      jump\t// in\n    tag_37:\n        /* \"#utility.yul\":343:430   */\n      swap3\n      swap2\n      pop\n      pop\n      jump\t// out\n        /* \"#utility.yul\":436:982   */\n    tag_21:\n      0x00\n      dup1\n      0x00\n        /* \"#utility.yul\":575:577   */\n      0x60\n        /* \"#utility.yul\":563:572   */\n      dup5\n        /* \"#utility.yul\":554:561   */\n      dup7\n        /* \"#utility.yul\":550:573   */\n      sub\n        /* \"#utility.yul\":546:578   */\n      slt\n        /* \"#utility.yul\":543:545   */\n      iszero\n      tag_40\n      jumpi\n        /* \"#utility.yul\":591:592   */\n      0x00\n        /* \"#utility.yul\":588:589   */\n      dup1\n        /* \"#utility.yul\":581:593   */\n      revert\n        /* \"#utility.yul\":543:545   */\n    tag_40:\n        /* \"#utility.yul\":634:635   */\n      0x00\n        /* \"#utility.yul\":659:712   */\n      tag_41\n        /* \"#utility.yul\":704:711   */\n      dup7\n        /* \"#utility.yul\":695:701   */\n      dup3\n        /* \"#utility.yul\":684:693   */\n      dup8\n        /* \"#utility.yul\":680:702   */\n      add\n        /* \"#utility.yul\":659:712   */\n      tag_35\n      jump\t// in\n    tag_41:\n        /* \"#utility.yul\":649:712   */\n      swap4\n      pop\n        /* \"#utility.yul\":605:722   */\n      pop\n        /* \"#utility.yul\":761:763   */\n      0x20\n        /* \"#utility.yul\":787:837   */\n      tag_42\n        /* \"#utility.yul\":829:836   */\n      dup7\n        /* \"#utility.yul\":820:826   */\n      dup3\n        /* \"#utility.yul\":809:818   */\n      dup8\n        /* \"#utility.yul\":805:827   */\n      add\n        /* \"#utility.yul\":787:837   */\n      tag_31\n      jump\t// in\n    tag_42:\n        /* \"#utility.yul\":777:837   */\n      swap3\n      pop\n        /* \"#utility.yul\":732:847   */\n      pop\n        /* \"#utility.yul\":886:888   */\n      0x40\n        /* \"#utility.yul\":912:965   */\n      tag_43\n        /* \"#utility.yul\":957:964   */\n      dup7\n        /* \"#utility.yul\":948:954   */\n      dup3\n        /* \"#utility.yul\":937:946   */\n      dup8\n        /* \"#utility.yul\":933:955   */\n      add\n        /* \"#utility.yul\":912:965   */\n      tag_27\n      jump\t// in\n    tag_43:\n        /* \"#utility.yul\":902:965   */\n      swap2\n      pop\n        /* \"#utility.yul\":857:975   */\n      pop\n        /* \"#utility.yul\":533:982   */\n      swap3\n      pop\n      swap3\n      pop\n      swap3\n      jump\t// out\n        /* \"#utility.yul\":988:1106   */\n    tag_44:\n        /* \"#utility.yul\":1075:1099   */\n      tag_46\n        /* \"#utility.yul\":1093:1098   */\n      dup2\n        /* \"#utility.yul\":1075:1099   */\n      tag_47\n      jump\t// in\n    tag_46:\n        /* \"#utility.yul\":1070:1073   */\n      dup3\n        /* \"#utility.yul\":1063:1100   */\n      mstore\n        /* \"#utility.yul\":1053:1106   */\n      pop\n      pop\n      jump\t// out\n        /* \"#utility.yul\":1112:1221   */\n    tag_48:\n        /* \"#utility.yul\":1193:1214   */\n      tag_50\n        /* \"#utility.yul\":1208:1213   */\n      dup2\n        /* \"#utility.yul\":1193:1214   */\n      tag_51\n      jump\t// in\n    tag_50:\n        /* \"#utility.yul\":1188:1191   */\n      dup3\n        /* \"#utility.yul\":1181:1215   */\n      mstore\n        /* \"#utility.yul\":1171:1221   */\n      pop\n      pop\n      jump\t// out\n        /* \"#utility.yul\":1227:1345   */\n    tag_52:\n        /* \"#utility.yul\":1314:1338   */\n      tag_54\n        /* \"#utility.yul\":1332:1337   */\n      dup2\n        /* \"#utility.yul\":1314:1338   */\n      tag_55\n      jump\t// in\n    tag_54:\n        /* \"#utility.yul\":1309:1312   */\n      dup3\n        /* \"#utility.yul\":1302:1339   */\n      mstore\n        /* \"#utility.yul\":1292:1345   */\n      pop\n      pop\n      jump\t// out\n        /* \"#utility.yul\":1351:1573   */\n    tag_18:\n      0x00\n        /* \"#utility.yul\":1482:1484   */\n      0x20\n        /* \"#utility.yul\":1471:1480   */\n      dup3\n        /* \"#utility.yul\":1467:1485   */\n      add\n        /* \"#utility.yul\":1459:1485   */\n      swap1\n      pop\n        /* \"#utility.yul\":1495:1566   */\n      tag_57\n        /* \"#utility.yul\":1563:1564   */\n      0x00\n        /* \"#utility.yul\":1552:1561   */\n      dup4\n        /* \"#utility.yul\":1548:1565   */\n      add\n        /* \"#utility.yul\":1539:1545   */\n      dup5\n        /* \"#utility.yul\":1495:1566   */\n      tag_44\n      jump\t// in\n    tag_57:\n        /* \"#utility.yul\":1449:1573   */\n      swap3\n      swap2\n      pop\n      pop\n      jump\t// out\n        /* \"#utility.yul\":1579:1789   */\n    tag_14:\n      0x00\n        /* \"#utility.yul\":1704:1706   */\n      0x20\n        /* \"#utility.yul\":1693:1702   */\n      dup3\n        /* \"#utility.yul\":1689:1707   */\n      add\n        /* \"#utility.yul\":1681:1707   */\n      swap1\n      pop\n        /* \"#utility.yul\":1717:1782   */\n      tag_59\n        /* \"#utility.yul\":1779:1780   */\n      0x00\n        /* \"#utility.yul\":1768:1777   */\n      dup4\n        /* \"#utility.yul\":1764:1781   */\n      add\n        /* \"#utility.yul\":1755:1761   */\n      dup5\n        /* \"#utility.yul\":1717:1782   */\n      tag_48\n      jump\t// in\n    tag_59:\n        /* \"#utility.yul\":1671:1789   */\n      swap3\n      swap2\n      pop\n      pop\n      jump\t// out\n        /* \"#utility.yul\":1795:2017   */\n    tag_10:\n      0x00\n        /* \"#utility.yul\":1926:1928   */\n      0x20\n        /* \"#utility.yul\":1915:1924   */\n      dup3\n        /* \"#utility.yul\":1911:1929   */\n      add\n        /* \"#utility.yul\":1903:1929   */\n      swap1\n      pop\n        /* \"#utility.yul\":1939:2010   */\n      tag_61\n        /* \"#utility.yul\":2007:2008   */\n      0x00\n        /* \"#utility.yul\":1996:2005   */\n      dup4\n        /* \"#utility.yul\":1992:2009   */\n      add\n        /* \"#utility.yul\":1983:1989   */\n      dup5\n        /* \"#utility.yul\":1939:2010   */\n      tag_52\n      jump\t// in\n    tag_61:\n        /* \"#utility.yul\":1893:2017   */\n      swap3\n      swap2\n      pop\n      pop\n      jump\t// out\n        /* \"#utility.yul\":2023:2328   */\n    tag_25:\n      0x00\n        /* \"#utility.yul\":2082:2102   */\n      tag_63\n        /* \"#utility.yul\":2100:2101   */\n      dup3\n        /* \"#utility.yul\":2082:2102   */\n      tag_55\n      jump\t// in\n    tag_63:\n        /* \"#utility.yul\":2077:2102   */\n      swap2\n      pop\n        /* \"#utility.yul\":2116:2136   */\n      tag_64\n        /* \"#utility.yul\":2134:2135   */\n      dup4\n        /* \"#utility.yul\":2116:2136   */\n      tag_55\n      jump\t// in\n    tag_64:\n        /* \"#utility.yul\":2111:2136   */\n      swap3\n      pop\n        /* \"#utility.yul\":2270:2271   */\n      dup3\n        /* \"#utility.yul\":2202:2268   */\n      0xffffffffffffffffffffffffffffffffffffffffffffffffffffffffffffffff\n        /* \"#utility.yul\":2198:2272   */\n      sub\n        /* \"#utility.yul\":2195:2196   */\n      dup3\n        /* \"#utility.yul\":2192:2273   */\n      gt\n        /* \"#utility.yul\":2189:2191   */\n      iszero\n      tag_65\n      jumpi\n        /* \"#utility.yul\":2276:2294   */\n      tag_66\n      tag_67\n      jump\t// in\n    tag_66:\n        /* \"#utility.yul\":2189:2191   */\n    tag_65:\n        /* \"#utility.yul\":2320:2321   */\n      dup3\n        /* \"#utility.yul\":2317:2318   */\n      dup3\n        /* \"#utility.yul\":2313:2322   */\n      add\n        /* \"#utility.yul\":2306:2322   */\n      swap1\n      pop\n        /* \"#utility.yul\":2067:2328   */\n      swap3\n      swap2\n      pop\n      pop\n      jump\t// out\n        /* \"#utility.yul\":2334:2430   */\n    tag_47:\n      0x00\n        /* \"#utility.yul\":2400:2424   */\n      tag_69\n        /* \"#utility.yul\":2418:2423   */\n      dup3\n        /* \"#utility.yul\":2400:2424   */\n      tag_70\n      jump\t// in\n    tag_69:\n        /* \"#utility.yul\":2389:2424   */\n      swap1\n      pop\n        /* \"#utility.yul\":2379:2430   */\n      swap2\n      swap1\n      pop\n      jump\t// out\n        /* \"#utility.yul\":2436:2526   */\n    tag_51:\n      0x00\n        /* \"#utility.yul\":2513:2518   */\n      dup2\n        /* \"#utility.yul\":2506:2519   */\n      iszero\n        /* \"#utility.yul\":2499:2520   */\n      iszero\n        /* \"#utility.yul\":2488:2520   */\n      swap1\n      pop\n        /* \"#utility.yul\":2478:2526   */\n      swap2\n      swap1\n      pop\n      jump\t// out\n        /* \"#utility.yul\":2532:2658   */\n    tag_70:\n      0x00\n        /* \"#utility.yul\":2609:2651   */\n      0xffffffffffffffffffffffffffffffffffffffff\n        /* \"#utility.yul\":2602:2607   */\n      dup3\n        /* \"#utility.yul\":2598:2652   */\n      and\n        /* \"#utility.yul\":2587:2652   */\n      swap1\n      pop\n        /* \"#utility.yul\":2577:2658   */\n      swap2\n      swap1\n      pop\n      jump\t// out\n        /* \"#utility.yul\":2664:2741   */\n    tag_55:\n      0x00\n        /* \"#utility.yul\":2730:2735   */\n      dup2\n        /* \"#utility.yul\":2719:2735   */\n      swap1\n      pop\n        /* \"#utility.yul\":2709:2741   */\n      swap2\n      swap1\n      pop\n      jump\t// out\n        /* \"#utility.yul\":2747:2927   */\n    tag_67:\n        /* \"#utility.yul\":2795:2872   */\n      0x4e487b7100000000000000000000000000000000000000000000000000000000\n        /* \"#utility.yul\":2792:2793   */\n      0x00\n        /* \"#utility.yul\":2785:2873   */\n      mstore\n        /* \"#utility.yul\":2892:2896   */\n      0x11\n        /* \"#utility.yul\":2889:2890   */\n      0x04\n        /* \"#utility.yul\":2882:2897   */\n      mstore\n        /* \"#utility.yul\":2916:2920   */\n      0x24\n        /* \"#utility.yul\":2913:2914   */\n      0x00\n        /* \"#utility.yul\":2906:2921   */\n      revert\n        /* \"#utility.yul\":2933:3055   */\n    tag_30:\n        /* \"#utility.yul\":3006:3030   */\n      tag_76\n        /* \"#utility.yul\":3024:3029   */\n      dup2\n        /* \"#utility.yul\":3006:3030   */\n      tag_47\n      jump\t// in\n    tag_76:\n        /* \"#utility.yul\":2999:3004   */\n      dup2\n        /* \"#utility.yul\":2996:3031   */\n      eq\n        /* \"#utility.yul\":2986:2988   */\n      tag_77\n      jumpi\n        /* \"#utility.yul\":3045:3046   */\n      0x00\n        /* \"#utility.yul\":3042:3043   */\n      dup1\n        /* \"#utility.yul\":3035:3047   */\n      revert\n        /* \"#utility.yul\":2986:2988   */\n    tag_77:\n        /* \"#utility.yul\":2976:3055   */\n      pop\n      jump\t// out\n        /* \"#utility.yul\":3061:3177   */\n    tag_34:\n        /* \"#utility.yul\":3131:3152   */\n      tag_79\n        /* \"#utility.yul\":3146:3151   */\n      dup2\n        /* \"#utility.yul\":3131:3152   */\n      tag_51\n      jump\t// in\n    tag_79:\n        /* \"#utility.yul\":3124:3129   */\n      dup2\n        /* \"#utility.yul\":3121:3153   */\n      eq\n        /* \"#utility.yul\":3111:3113   */\n      tag_80\n      jumpi\n        /* \"#utility.yul\":3167:3168   */\n      0x00\n        /* \"#utility.yul\":3164:3165   */\n      dup1\n        /* \"#utility.yul\":3157:3169   */\n      revert\n        /* \"#utility.yul\":3111:3113   */\n    tag_80:\n        /* \"#utility.yul\":3101:3177   */\n      pop\n      jump\t// out\n        /* \"#utility.yul\":3183:3305   */\n    tag_38:\n        /* \"#utility.yul\":3256:3280   */\n      tag_82\n        /* \"#utility.yul\":3274:3279   */\n      dup2\n        /* \"#utility.yul\":3256:3280   */\n      tag_55\n      jump\t// in\n    tag_82:\n        /* \"#utility.yul\":3249:3254   */\n      dup2\n        /* \"#utility.yul\":3246:3281   */\n      eq\n        /* \"#utility.yul\":3236:3238   */\n      tag_83\n      jumpi\n        /* \"#utility.yul\":3295:3296   */\n      0x00\n        /* \"#utility.yul\":3292:3293   */\n      dup1\n        /* \"#utility.yul\":3285:3297   */\n      revert\n        /* \"#utility.yul\":3236:3238   */\n    tag_83:\n        /* \"#utility.yul\":3226:3305   */\n      pop\n      jump\t// out\n\n    auxdata: 0xa264697066735822122039230fad8744c9c0836186b730f13b4f574c36b812512cf17d8b5c643be1c5e564736f6c63430008000033\n}\n",
				"bytecode": {
					"linkReferences": {},
					"object": "608060405234801561001057600080fd5b5061037a806100206000396000f3fe608060405234801561001057600080fd5b506004361061004c5760003560e01c8063262a9dff146100515780634df7e3d01461006f57806359a35e001461008d5780636d2d583d146100ab575b600080fd5b6100596100c7565b6040516100669190610217565b60405180910390f35b6100776100cd565b60405161008491906101fc565b60405180910390f35b6100956100e0565b6040516100a291906101e1565b60405180910390f35b6100c560048036038101906100c09190610165565b610104565b005b60005481565b600160009054906101000a900460ff1681565b60018054906101000a900473ffffffffffffffffffffffffffffffffffffffff1681565b600060629050600060019050601d8261011d9190610232565b91505050505050565b600081359050610135816102ff565b92915050565b60008135905061014a81610316565b92915050565b60008135905061015f8161032d565b92915050565b60008060006060848603121561017a57600080fd5b600061018886828701610150565b93505060206101998682870161013b565b92505060406101aa86828701610126565b9150509250925092565b6101bd81610288565b82525050565b6101cc8161029a565b82525050565b6101db816102c6565b82525050565b60006020820190506101f660008301846101b4565b92915050565b600060208201905061021160008301846101c3565b92915050565b600060208201905061022c60008301846101d2565b92915050565b600061023d826102c6565b9150610248836102c6565b9250827fffffffffffffffffffffffffffffffffffffffffffffffffffffffffffffffff0382111561027d5761027c6102d0565b5b828201905092915050565b6000610293826102a6565b9050919050565b60008115159050919050565b600073ffffffffffffffffffffffffffffffffffffffff82169050919050565b6000819050919050565b7f4e487b7100000000000000000000000000000000000000000000000000000000600052601160045260246000fd5b61030881610288565b811461031357600080fd5b50565b61031f8161029a565b811461032a57600080fd5b50565b610336816102c6565b811461034157600080fd5b5056fea264697066735822122039230fad8744c9c0836186b730f13b4f574c36b812512cf17d8b5c643be1c5e564736f6c63430008000033",
					"opcodes": "PUSH1 0x80 PUSH1 0x40 MSTORE CALLVALUE DUP1 ISZERO PUSH2 0x10 JUMPI PUSH1 0x0 DUP1 REVERT JUMPDEST POP PUSH2 0x37A DUP1 PUSH2 0x20 PUSH1 0x0 CODECOPY PUSH1 0x0 RETURN INVALID PUSH1 0x80 PUSH1 0x40 MSTORE CALLVALUE DUP1 ISZERO PUSH2 0x10 JUMPI PUSH1 0x0 DUP1 REVERT JUMPDEST POP PUSH1 0x4 CALLDATASIZE LT PUSH2 0x4C JUMPI PUSH1 0x0 CALLDATALOAD PUSH1 0xE0 SHR DUP1 PUSH4 0x262A9DFF EQ PUSH2 0x51 JUMPI DUP1 PUSH4 0x4DF7E3D0 EQ PUSH2 0x6F JUMPI DUP1 PUSH4 0x59A35E00 EQ PUSH2 0x8D JUMPI DUP1 PUSH4 0x6D2D583D EQ PUSH2 0xAB JUMPI JUMPDEST PUSH1 0x0 DUP1 REVERT JUMPDEST PUSH2 0x59 PUSH2 0xC7 JUMP JUMPDEST PUSH1 0x40 MLOAD PUSH2 0x66 SWAP2 SWAP1 PUSH2 0x217 JUMP JUMPDEST PUSH1 0x40 MLOAD DUP1 SWAP2 SUB SWAP1 RETURN JUMPDEST PUSH2 0x77 PUSH2 0xCD JUMP JUMPDEST PUSH1 0x40 MLOAD PUSH2 0x84 SWAP2 SWAP1 PUSH2 0x1FC JUMP JUMPDEST PUSH1 0x40 MLOAD DUP1 SWAP2 SUB SWAP1 RETURN JUMPDEST PUSH2 0x95 PUSH2 0xE0 JUMP JUMPDEST PUSH1 0x40 MLOAD PUSH2 0xA2 SWAP2 SWAP1 PUSH2 0x1E1 JUMP JUMPDEST PUSH1 0x40 MLOAD DUP1 SWAP2 SUB SWAP1 RETURN JUMPDEST PUSH2 0xC5 PUSH1 0x4 DUP1 CALLDATASIZE SUB DUP2 ADD SWAP1 PUSH2 0xC0 SWAP2 SWAP1 PUSH2 0x165 JUMP JUMPDEST PUSH2 0x104 JUMP JUMPDEST STOP JUMPDEST PUSH1 0x0 SLOAD DUP2 JUMP JUMPDEST PUSH1 0x1 PUSH1 0x0 SWAP1 SLOAD SWAP1 PUSH2 0x100 EXP SWAP1 DIV PUSH1 0xFF AND DUP2 JUMP JUMPDEST PUSH1 0x1 DUP1 SLOAD SWAP1 PUSH2 0x100 EXP SWAP1 DIV PUSH20 0xFFFFFFFFFFFFFFFFFFFFFFFFFFFFFFFFFFFFFFFF AND DUP2 JUMP JUMPDEST PUSH1 0x0 PUSH1 0x62 SWAP1 POP PUSH1 0x0 PUSH1 0x1 SWAP1 POP PUSH1 0x1D DUP3 PUSH2 0x11D SWAP2 SWAP1 PUSH2 0x232 JUMP JUMPDEST SWAP2 POP POP POP POP POP POP JUMP JUMPDEST PUSH1 0x0 DUP2 CALLDATALOAD SWAP1 POP PUSH2 0x135 DUP2 PUSH2 0x2FF JUMP JUMPDEST SWAP3 SWAP2 POP POP JUMP JUMPDEST PUSH1 0x0 DUP2 CALLDATALOAD SWAP1 POP PUSH2 0x14A DUP2 PUSH2 0x316 JUMP JUMPDEST SWAP3 SWAP2 POP POP JUMP JUMPDEST PUSH1 0x0 DUP2 CALLDATALOAD SWAP1 POP PUSH2 0x15F DUP2 PUSH2 0x32D JUMP JUMPDEST SWAP3 SWAP2 POP POP JUMP JUMPDEST PUSH1 0x0 DUP1 PUSH1 0x0 PUSH1 0x60 DUP5 DUP7 SUB SLT ISZERO PUSH2 0x17A JUMPI PUSH1 0x0 DUP1 REVERT JUMPDEST PUSH1 0x0 PUSH2 0x188 DUP7 DUP3 DUP8 ADD PUSH2 0x150 JUMP JUMPDEST SWAP4 POP POP PUSH1 0x20 PUSH2 0x199 DUP7 DUP3 DUP8 ADD PUSH2 0x13B JUMP JUMPDEST SWAP3 POP POP PUSH1 0x40 PUSH2 0x1AA DUP7 DUP3 DUP8 ADD PUSH2 0x126 JUMP JUMPDEST SWAP2 POP POP SWAP3 POP SWAP3 POP SWAP3 JUMP JUMPDEST PUSH2 0x1BD DUP2 PUSH2 0x288 JUMP JUMPDEST DUP3 MSTORE POP POP JUMP JUMPDEST PUSH2 0x1CC DUP2 PUSH2 0x29A JUMP JUMPDEST DUP3 MSTORE POP POP JUMP JUMPDEST PUSH2 0x1DB DUP2 PUSH2 0x2C6 JUMP JUMPDEST DUP3 MSTORE POP POP JUMP JUMPDEST PUSH1 0x0 PUSH1 0x20 DUP3 ADD SWAP1 POP PUSH2 0x1F6 PUSH1 0x0 DUP4 ADD DUP5 PUSH2 0x1B4 JUMP JUMPDEST SWAP3 SWAP2 POP POP JUMP JUMPDEST PUSH1 0x0 PUSH1 0x20 DUP3 ADD SWAP1 POP PUSH2 0x211 PUSH1 0x0 DUP4 ADD DUP5 PUSH2 0x1C3 JUMP JUMPDEST SWAP3 SWAP2 POP POP JUMP JUMPDEST PUSH1 0x0 PUSH1 0x20 DUP3 ADD SWAP1 POP PUSH2 0x22C PUSH1 0x0 DUP4 ADD DUP5 PUSH2 0x1D2 JUMP JUMPDEST SWAP3 SWAP2 POP POP JUMP JUMPDEST PUSH1 0x0 PUSH2 0x23D DUP3 PUSH2 0x2C6 JUMP JUMPDEST SWAP2 POP PUSH2 0x248 DUP4 PUSH2 0x2C6 JUMP JUMPDEST SWAP3 POP DUP3 PUSH32 0xFFFFFFFFFFFFFFFFFFFFFFFFFFFFFFFFFFFFFFFFFFFFFFFFFFFFFFFFFFFFFFFF SUB DUP3 GT ISZERO PUSH2 0x27D JUMPI PUSH2 0x27C PUSH2 0x2D0 JUMP JUMPDEST JUMPDEST DUP3 DUP3 ADD SWAP1 POP SWAP3 SWAP2 POP POP JUMP JUMPDEST PUSH1 0x0 PUSH2 0x293 DUP3 PUSH2 0x2A6 JUMP JUMPDEST SWAP1 POP SWAP2 SWAP1 POP JUMP JUMPDEST PUSH1 0x0 DUP2 ISZERO ISZERO SWAP1 POP SWAP2 SWAP1 POP JUMP JUMPDEST PUSH1 0x0 PUSH20 0xFFFFFFFFFFFFFFFFFFFFFFFFFFFFFFFFFFFFFFFF DUP3 AND SWAP1 POP SWAP2 SWAP1 POP JUMP JUMPDEST PUSH1 0x0 DUP2 SWAP1 POP SWAP2 SWAP1 POP JUMP JUMPDEST PUSH32 0x4E487B7100000000000000000000000000000000000000000000000000000000 PUSH1 0x0 MSTORE PUSH1 0x11 PUSH1 0x4 MSTORE PUSH1 0x24 PUSH1 0x0 REVERT JUMPDEST PUSH2 0x308 DUP2 PUSH2 0x288 JUMP JUMPDEST DUP2 EQ PUSH2 0x313 JUMPI PUSH1 0x0 DUP1 REVERT JUMPDEST POP JUMP JUMPDEST PUSH2 0x31F DUP2 PUSH2 0x29A JUMP JUMPDEST DUP2 EQ PUSH2 0x32A JUMPI PUSH1 0x0 DUP1 REVERT JUMPDEST POP JUMP JUMPDEST PUSH2 0x336 DUP2 PUSH2 0x2C6 JUMP JUMPDEST DUP2 EQ PUSH2 0x341 JUMPI PUSH1 0x0 DUP1 REVERT JUMPDEST POP JUMP INVALID LOG2 PUSH5 0x6970667358 0x22 SLT KECCAK256 CODECOPY 0x23 0xF 0xAD DUP8 DIFFICULTY 0xC9 0xC0 DUP4 PUSH2 0x86B7 ADDRESS CALL EXTCODESIZE 0x4F JUMPI 0x4C CALLDATASIZE 0xB8 SLT MLOAD 0x2C CALL PUSH30 0x8B5C643BE1C5E564736F6C63430008000033000000000000000000000000 "
				},
				"gasEstimates": {
					"creation": {
						"codeDepositCost": "178000",
						"executionCost": "220",
						"totalCost": "178220"
					},
					"external": {
						"age()": "1107",
						"b()": "1171",
						"fun(uint256,bool,address)": "infinite",
						"newAdd()": "1283"
					}
				},
				"methodIdentifiers": {
					"age()": "262a9dff",
					"b()": "4df7e3d0",
					"fun(uint256,bool,address)": "6d2d583d",
					"newAdd()": "59a35e00"
				}
			},
			"storageLayout": {
				"storage": [
					{
						"astId": 3,
						"contract": "localVariable.sol:localVariable",
						"label": "age",
						"offset": 0,
						"slot": "0",
						"type": "t_uint256"
					},
					{
						"astId": 5,
						"contract": "localVariable.sol:localVariable",
						"label": "b",
						"offset": 0,
						"slot": "1",
						"type": "t_bool"
					},
					{
						"astId": 7,
						"contract": "localVariable.sol:localVariable",
						"label": "newAdd",
						"offset": 1,
						"slot": "1",
						"type": "t_address"
					}
				],
				"types": {
					"t_address": {
						"encoding": "inplace",
						"label": "address",
						"numberOfBytes": "20"
					},
					"t_bool": {
						"encoding": "inplace",
						"label": "bool",
						"numberOfBytes": "1"
					},
					"t_uint256": {
						"encoding": "inplace",
						"label": "uint256",
						"numberOfBytes": "32"
					}
				}
			},
			"userdoc": {
				"kind": "user",
				"methods": {},
				"version": 1
			}
		}
	}
}