{
	"ERC20_2.sol": {
		"ERC20Basic": {
			"abi": [
				{
					"inputs": [],
					"stateMutability": "nonpayable",
					"type": "constructor"
				},
				{
					"anonymous": false,
					"inputs": [
						{
							"indexed": true,
							"internalType": "address",
							"name": "owner",
							"type": "address"
						},
						{
							"indexed": true,
							"internalType": "address",
							"name": "spender",
							"type": "address"
						},
						{
							"indexed": false,
							"internalType": "uint256",
							"name": "value",
							"type": "uint256"
						}
					],
					"name": "Approval",
					"type": "event"
				},
				{
					"anonymous": false,
					"inputs": [
						{
							"indexed": true,
							"internalType": "address",
							"name": "from",
							"type": "address"
						},
						{
							"indexed": true,
							"internalType": "address",
							"name": "to",
							"type": "address"
						},
						{
							"indexed": false,
							"internalType": "uint256",
							"name": "value",
							"type": "uint256"
						}
					],
					"name": "Transfer",
					"type": "event"
				},
				{
					"inputs": [
						{
							"internalType": "address",
							"name": "_newOwner",
							"type": "address"
						}
					],
					"name": "TransferOwnership",
					"outputs": [],
					"stateMutability": "nonpayable",
					"type": "function"
				},
				{
					"inputs": [
						{
							"internalType": "address",
							"name": "owner",
							"type": "address"
						},
						{
							"internalType": "address",
							"name": "delegate",
							"type": "address"
						}
					],
					"name": "allowance",
					"outputs": [
						{
							"internalType": "uint256",
							"name": "",
							"type": "uint256"
						}
					],
					"stateMutability": "view",
					"type": "function"
				},
				{
					"inputs": [
						{
							"internalType": "address",
							"name": "delegate",
							"type": "address"
						},
						{
							"internalType": "uint256",
							"name": "numTokens",
							"type": "uint256"
						}
					],
					"name": "approve",
					"outputs": [
						{
							"internalType": "bool",
							"name": "",
							"type": "bool"
						}
					],
					"stateMutability": "nonpayable",
					"type": "function"
				},
				{
					"inputs": [
						{
							"internalType": "address",
							"name": "tokenOwner",
							"type": "address"
						}
					],
					"name": "balanceOf",
					"outputs": [
						{
							"internalType": "uint256",
							"name": "",
							"type": "uint256"
						}
					],
					"stateMutability": "view",
					"type": "function"
				},
				{
					"inputs": [],
					"name": "decimals",
					"outputs": [
						{
							"internalType": "uint8",
							"name": "",
							"type": "uint8"
						}
					],
					"stateMutability": "view",
					"type": "function"
				},
				{
					"inputs": [
						{
							"internalType": "uint256",
							"name": "_x",
							"type": "uint256"
						}
					],
					"name": "mint",
					"outputs": [],
					"stateMutability": "nonpayable",
					"type": "function"
				},
				{
					"inputs": [],
					"name": "mowner",
					"outputs": [
						{
							"internalType": "address",
							"name": "",
							"type": "address"
						}
					],
					"stateMutability": "view",
					"type": "function"
				},
				{
					"inputs": [],
					"name": "name",
					"outputs": [
						{
							"internalType": "string",
							"name": "",
							"type": "string"
						}
					],
					"stateMutability": "view",
					"type": "function"
				},
				{
					"inputs": [],
					"name": "ownerId",
					"outputs": [
						{
							"internalType": "address",
							"name": "",
							"type": "address"
						}
					],
					"stateMutability": "view",
					"type": "function"
				},
				{
					"inputs": [],
					"name": "symbol",
					"outputs": [
						{
							"internalType": "string",
							"name": "",
							"type": "string"
						}
					],
					"stateMutability": "view",
					"type": "function"
				},
				{
					"inputs": [],
					"name": "totalSupply",
					"outputs": [
						{
							"internalType": "uint256",
							"name": "",
							"type": "uint256"
						}
					],
					"stateMutability": "view",
					"type": "function"
				},
				{
					"inputs": [
						{
							"internalType": "address",
							"name": "receiver",
							"type": "address"
						},
						{
							"internalType": "uint256",
							"name": "numTokens",
							"type": "uint256"
						}
					],
					"name": "transfer",
					"outputs": [
						{
							"internalType": "bool",
							"name": "",
							"type": "bool"
						}
					],
					"stateMutability": "nonpayable",
					"type": "function"
				},
				{
					"inputs": [
						{
							"internalType": "address",
							"name": "owner",
							"type": "address"
						},
						{
							"internalType": "address",
							"name": "buyer",
							"type": "address"
						},
						{
							"internalType": "uint256",
							"name": "numTokens",
							"type": "uint256"
						}
					],
					"name": "transferFrom",
					"outputs": [
						{
							"internalType": "bool",
							"name": "",
							"type": "bool"
						}
					],
					"stateMutability": "nonpayable",
					"type": "function"
				}
			],
			"devdoc": {
				"kind": "dev",
				"methods": {},
				"version": 1
			},
			"evm": {
				"assembly": "    /* \"ERC20_2.sol\":696:3302  contract ERC20Basic is IERC20 {... */\n  mstore(0x40, 0x80)\n    /* \"ERC20_2.sol\":893:903  msg.sender */\n  caller\n    /* \"ERC20_2.sol\":869:903  address public mowner = msg.sender */\n  0x00\n  dup1\n  0x0100\n  exp\n  dup2\n  sload\n  dup2\n  0xffffffffffffffffffffffffffffffffffffffff\n  mul\n  not\n  and\n  swap1\n  dup4\n  0xffffffffffffffffffffffffffffffffffffffff\n  and\n  mul\n  or\n  swap1\n  sstore\n  pop\n    /* \"ERC20_2.sol\":1040:1044  1000 */\n  0x03e8\n    /* \"ERC20_2.sol\":1017:1044  uint256 totalSupply_ = 1000 */\n  0x03\n  sstore\n    /* \"ERC20_2.sol\":1051:1110  constructor() {... */\n  callvalue\n  dup1\n  iszero\n  tag_1\n  jumpi\n  0x00\n  dup1\n  revert\ntag_1:\n  pop\n    /* \"ERC20_2.sol\":1090:1102  totalSupply_ */\n  sload(0x03)\n    /* \"ERC20_2.sol\":1071:1079  balances */\n  0x01\n    /* \"ERC20_2.sol\":1071:1087  balances[mowner] */\n  0x00\n    /* \"ERC20_2.sol\":1080:1086  mowner */\n  dup1\n  0x00\n  swap1\n  sload\n  swap1\n  0x0100\n  exp\n  swap1\n  div\n  0xffffffffffffffffffffffffffffffffffffffff\n  and\n    /* \"ERC20_2.sol\":1071:1087  balances[mowner] */\n  0xffffffffffffffffffffffffffffffffffffffff\n  and\n  0xffffffffffffffffffffffffffffffffffffffff\n  and\n  dup2\n  mstore\n  0x20\n  add\n  swap1\n  dup2\n  mstore\n  0x20\n  add\n  0x00\n  keccak256\n    /* \"ERC20_2.sol\":1071:1102  balances[mowner] = totalSupply_ */\n  dup2\n  swap1\n  sstore\n  pop\n    /* \"ERC20_2.sol\":696:3302  contract ERC20Basic is IERC20 {... */\n  dataSize(sub_0)\n  dup1\n  dataOffset(sub_0)\n  0x00\n  codecopy\n  0x00\n  return\nstop\n\nsub_0: assembly {\n        /* \"ERC20_2.sol\":696:3302  contract ERC20Basic is IERC20 {... */\n      mstore(0x40, 0x80)\n      callvalue\n      dup1\n      iszero\n      tag_1\n      jumpi\n      0x00\n      dup1\n      revert\n    tag_1:\n      pop\n      jumpi(tag_2, lt(calldatasize, 0x04))\n      shr(0xe0, calldataload(0x00))\n      dup1\n      0x70a08231\n      gt\n      tag_16\n      jumpi\n      dup1\n      0xa9059cbb\n      gt\n      tag_17\n      jumpi\n      dup1\n      0xa9059cbb\n      eq\n      tag_12\n      jumpi\n      dup1\n      0xcfaaa266\n      eq\n      tag_13\n      jumpi\n      dup1\n      0xdd62ed3e\n      eq\n      tag_14\n      jumpi\n      dup1\n      0xf5ba02f9\n      eq\n      tag_15\n      jumpi\n      jump(tag_2)\n    tag_17:\n      dup1\n      0x70a08231\n      eq\n      tag_9\n      jumpi\n      dup1\n      0x95d89b41\n      eq\n      tag_10\n      jumpi\n      dup1\n      0xa0712d68\n      eq\n      tag_11\n      jumpi\n      jump(tag_2)\n    tag_16:\n      dup1\n      0x019c08f5\n      eq\n      tag_3\n      jumpi\n      dup1\n      0x06fdde03\n      eq\n      tag_4\n      jumpi\n      dup1\n      0x095ea7b3\n      eq\n      tag_5\n      jumpi\n      dup1\n      0x18160ddd\n      eq\n      tag_6\n      jumpi\n      dup1\n      0x23b872dd\n      eq\n      tag_7\n      jumpi\n      dup1\n      0x313ce567\n      eq\n      tag_8\n      jumpi\n    tag_2:\n      0x00\n      dup1\n      revert\n        /* \"ERC20_2.sol\":3086:3163  function ownerId() public view returns(address){... */\n    tag_3:\n      tag_18\n      tag_19\n      jump\t// in\n    tag_18:\n      mload(0x40)\n      tag_20\n      swap2\n      swap1\n      tag_21\n      jump\t// in\n    tag_20:\n      mload(0x40)\n      dup1\n      swap2\n      sub\n      swap1\n      return\n        /* \"ERC20_2.sol\":738:780  string public constant name = \"ERC20Basic\" */\n    tag_4:\n      tag_22\n      tag_23\n      jump\t// in\n    tag_22:\n      mload(0x40)\n      tag_24\n      swap2\n      swap1\n      tag_25\n      jump\t// in\n    tag_24:\n      mload(0x40)\n      dup1\n      swap2\n      sub\n      swap1\n      return\n        /* \"ERC20_2.sol\":1678:1890  function approve(address delegate, uint256 numTokens) public override returns (bool) {... */\n    tag_5:\n      tag_26\n      0x04\n      dup1\n      calldatasize\n      sub\n      dup2\n      add\n      swap1\n      tag_27\n      swap2\n      swap1\n      tag_28\n      jump\t// in\n    tag_27:\n      tag_29\n      jump\t// in\n    tag_26:\n      mload(0x40)\n      tag_30\n      swap2\n      swap1\n      tag_31\n      jump\t// in\n    tag_30:\n      mload(0x40)\n      dup1\n      swap2\n      sub\n      swap1\n      return\n        /* \"ERC20_2.sol\":1116:1210  function totalSupply() public override view returns (uint256) {... */\n    tag_6:\n      tag_32\n      tag_33\n      jump\t// in\n    tag_32:\n      mload(0x40)\n      tag_34\n      swap2\n      swap1\n      tag_35\n      jump\t// in\n    tag_34:\n      mload(0x40)\n      dup1\n      swap2\n      sub\n      swap1\n      return\n        /* \"ERC20_2.sol\":2038:2491  function transferFrom(address owner, address buyer, uint256 numTokens) public override returns (bool) {... */\n    tag_7:\n      tag_36\n      0x04\n      dup1\n      calldatasize\n      sub\n      dup2\n      add\n      swap1\n      tag_37\n      swap2\n      swap1\n      tag_38\n      jump\t// in\n    tag_37:\n      tag_39\n      jump\t// in\n    tag_36:\n      mload(0x40)\n      tag_40\n      swap2\n      swap1\n      tag_31\n      jump\t// in\n    tag_40:\n      mload(0x40)\n      dup1\n      swap2\n      sub\n      swap1\n      return\n        /* \"ERC20_2.sol\":829:863  uint8 public constant decimals = 0 */\n    tag_8:\n      tag_41\n      tag_42\n      jump\t// in\n    tag_41:\n      mload(0x40)\n      tag_43\n      swap2\n      swap1\n      tag_44\n      jump\t// in\n    tag_43:\n      mload(0x40)\n      dup1\n      swap2\n      sub\n      swap1\n      return\n        /* \"ERC20_2.sol\":1216:1338  function balanceOf(address tokenOwner) public override view returns (uint256) {... */\n    tag_9:\n      tag_45\n      0x04\n      dup1\n      calldatasize\n      sub\n      dup2\n      add\n      swap1\n      tag_46\n      swap2\n      swap1\n      tag_47\n      jump\t// in\n    tag_46:\n      tag_48\n      jump\t// in\n    tag_45:\n      mload(0x40)\n      tag_49\n      swap2\n      swap1\n      tag_35\n      jump\t// in\n    tag_49:\n      mload(0x40)\n      dup1\n      swap2\n      sub\n      swap1\n      return\n        /* \"ERC20_2.sol\":786:823  string public constant symbol = \"ERC\" */\n    tag_10:\n      tag_50\n      tag_51\n      jump\t// in\n    tag_50:\n      mload(0x40)\n      tag_52\n      swap2\n      swap1\n      tag_25\n      jump\t// in\n    tag_52:\n      mload(0x40)\n      dup1\n      swap2\n      sub\n      swap1\n      return\n        /* \"ERC20_2.sol\":3169:3300  function mint(uint _x) public OwnerOnly {... */\n    tag_11:\n      tag_53\n      0x04\n      dup1\n      calldatasize\n      sub\n      dup2\n      add\n      swap1\n      tag_54\n      swap2\n      swap1\n      tag_55\n      jump\t// in\n    tag_54:\n      tag_56\n      jump\t// in\n    tag_53:\n      stop\n        /* \"ERC20_2.sol\":1344:1672  function transfer(address receiver, uint256 numTokens) public override returns (bool) {... */\n    tag_12:\n      tag_57\n      0x04\n      dup1\n      calldatasize\n      sub\n      dup2\n      add\n      swap1\n      tag_58\n      swap2\n      swap1\n      tag_28\n      jump\t// in\n    tag_58:\n      tag_59\n      jump\t// in\n    tag_57:\n      mload(0x40)\n      tag_60\n      swap2\n      swap1\n      tag_31\n      jump\t// in\n    tag_60:\n      mload(0x40)\n      dup1\n      swap2\n      sub\n      swap1\n      return\n        /* \"ERC20_2.sol\":2590:3081  function TransferOwnership(address _newOwner) public OwnerOnly {... */\n    tag_13:\n      tag_61\n      0x04\n      dup1\n      calldatasize\n      sub\n      dup2\n      add\n      swap1\n      tag_62\n      swap2\n      swap1\n      tag_47\n      jump\t// in\n    tag_62:\n      tag_63\n      jump\t// in\n    tag_61:\n      stop\n        /* \"ERC20_2.sol\":1896:2032  function allowance(address owner, address delegate) public override view returns (uint) {... */\n    tag_14:\n      tag_64\n      0x04\n      dup1\n      calldatasize\n      sub\n      dup2\n      add\n      swap1\n      tag_65\n      swap2\n      swap1\n      tag_66\n      jump\t// in\n    tag_65:\n      tag_67\n      jump\t// in\n    tag_64:\n      mload(0x40)\n      tag_68\n      swap2\n      swap1\n      tag_35\n      jump\t// in\n    tag_68:\n      mload(0x40)\n      dup1\n      swap2\n      sub\n      swap1\n      return\n        /* \"ERC20_2.sol\":869:903  address public mowner = msg.sender */\n    tag_15:\n      tag_69\n      tag_70\n      jump\t// in\n    tag_69:\n      mload(0x40)\n      tag_71\n      swap2\n      swap1\n      tag_21\n      jump\t// in\n    tag_71:\n      mload(0x40)\n      dup1\n      swap2\n      sub\n      swap1\n      return\n        /* \"ERC20_2.sol\":3086:3163  function ownerId() public view returns(address){... */\n    tag_19:\n        /* \"ERC20_2.sol\":3125:3132  address */\n      0x00\n        /* \"ERC20_2.sol\":3150:3156  mowner */\n      dup1\n      0x00\n      swap1\n      sload\n      swap1\n      0x0100\n      exp\n      swap1\n      div\n      0xffffffffffffffffffffffffffffffffffffffff\n      and\n        /* \"ERC20_2.sol\":3143:3156  return mowner */\n      swap1\n      pop\n        /* \"ERC20_2.sol\":3086:3163  function ownerId() public view returns(address){... */\n      swap1\n      jump\t// out\n        /* \"ERC20_2.sol\":738:780  string public constant name = \"ERC20Basic\" */\n    tag_23:\n      mload(0x40)\n      dup1\n      0x40\n      add\n      0x40\n      mstore\n      dup1\n      0x0a\n      dup2\n      mstore\n      0x20\n      add\n      0x4552433230426173696300000000000000000000000000000000000000000000\n      dup2\n      mstore\n      pop\n      dup2\n      jump\t// out\n        /* \"ERC20_2.sol\":1678:1890  function approve(address delegate, uint256 numTokens) public override returns (bool) {... */\n    tag_29:\n        /* \"ERC20_2.sol\":1757:1761  bool */\n      0x00\n        /* \"ERC20_2.sol\":1801:1810  numTokens */\n      dup2\n        /* \"ERC20_2.sol\":1773:1780  allowed */\n      0x02\n        /* \"ERC20_2.sol\":1773:1788  allowed[mowner] */\n      0x00\n        /* \"ERC20_2.sol\":1781:1787  mowner */\n      dup1\n      0x00\n      swap1\n      sload\n      swap1\n      0x0100\n      exp\n      swap1\n      div\n      0xffffffffffffffffffffffffffffffffffffffff\n      and\n        /* \"ERC20_2.sol\":1773:1788  allowed[mowner] */\n      0xffffffffffffffffffffffffffffffffffffffff\n      and\n      0xffffffffffffffffffffffffffffffffffffffff\n      and\n      dup2\n      mstore\n      0x20\n      add\n      swap1\n      dup2\n      mstore\n      0x20\n      add\n      0x00\n      keccak256\n        /* \"ERC20_2.sol\":1773:1798  allowed[mowner][delegate] */\n      0x00\n        /* \"ERC20_2.sol\":1789:1797  delegate */\n      dup6\n        /* \"ERC20_2.sol\":1773:1798  allowed[mowner][delegate] */\n      0xffffffffffffffffffffffffffffffffffffffff\n      and\n      0xffffffffffffffffffffffffffffffffffffffff\n      and\n      dup2\n      mstore\n      0x20\n      add\n      swap1\n      dup2\n      mstore\n      0x20\n      add\n      0x00\n      keccak256\n        /* \"ERC20_2.sol\":1773:1810  allowed[mowner][delegate] = numTokens */\n      dup2\n      swap1\n      sstore\n      pop\n        /* \"ERC20_2.sol\":1842:1850  delegate */\n      dup3\n        /* \"ERC20_2.sol\":1825:1862  Approval(mowner, delegate, numTokens) */\n      0xffffffffffffffffffffffffffffffffffffffff\n      and\n        /* \"ERC20_2.sol\":1834:1840  mowner */\n      0x00\n      dup1\n      sload\n      swap1\n      0x0100\n      exp\n      swap1\n      div\n      0xffffffffffffffffffffffffffffffffffffffff\n      and\n        /* \"ERC20_2.sol\":1825:1862  Approval(mowner, delegate, numTokens) */\n      0xffffffffffffffffffffffffffffffffffffffff\n      and\n      0x8c5be1e5ebec7d5bd14f71427d1e84f3dd0314c0f7b2291e5b200ac8c7c3b925\n        /* \"ERC20_2.sol\":1852:1861  numTokens */\n      dup5\n        /* \"ERC20_2.sol\":1825:1862  Approval(mowner, delegate, numTokens) */\n      mload(0x40)\n      tag_74\n      swap2\n      swap1\n      tag_35\n      jump\t// in\n    tag_74:\n      mload(0x40)\n      dup1\n      swap2\n      sub\n      swap1\n      log3\n        /* \"ERC20_2.sol\":1879:1883  true */\n      0x01\n        /* \"ERC20_2.sol\":1872:1883  return true */\n      swap1\n      pop\n        /* \"ERC20_2.sol\":1678:1890  function approve(address delegate, uint256 numTokens) public override returns (bool) {... */\n      swap3\n      swap2\n      pop\n      pop\n      jump\t// out\n        /* \"ERC20_2.sol\":1116:1210  function totalSupply() public override view returns (uint256) {... */\n    tag_33:\n        /* \"ERC20_2.sol\":1169:1176  uint256 */\n      0x00\n        /* \"ERC20_2.sol\":1191:1203  totalSupply_ */\n      sload(0x03)\n        /* \"ERC20_2.sol\":1184:1203  return totalSupply_ */\n      swap1\n      pop\n        /* \"ERC20_2.sol\":1116:1210  function totalSupply() public override view returns (uint256) {... */\n      swap1\n      jump\t// out\n        /* \"ERC20_2.sol\":2038:2491  function transferFrom(address owner, address buyer, uint256 numTokens) public override returns (bool) {... */\n    tag_39:\n        /* \"ERC20_2.sol\":2134:2138  bool */\n      0x00\n        /* \"ERC20_2.sol\":2171:2179  balances */\n      0x01\n        /* \"ERC20_2.sol\":2171:2186  balances[owner] */\n      0x00\n        /* \"ERC20_2.sol\":2180:2185  owner */\n      dup6\n        /* \"ERC20_2.sol\":2171:2186  balances[owner] */\n      0xffffffffffffffffffffffffffffffffffffffff\n      and\n      0xffffffffffffffffffffffffffffffffffffffff\n      and\n      dup2\n      mstore\n      0x20\n      add\n      swap1\n      dup2\n      mstore\n      0x20\n      add\n      0x00\n      keccak256\n      sload\n        /* \"ERC20_2.sol\":2158:2167  numTokens */\n      dup3\n        /* \"ERC20_2.sol\":2158:2186  numTokens <= balances[owner] */\n      gt\n      iszero\n        /* \"ERC20_2.sol\":2150:2187  require(numTokens <= balances[owner]) */\n      tag_77\n      jumpi\n      0x00\n      dup1\n      revert\n    tag_77:\n        /* \"ERC20_2.sol\":2218:2225  allowed */\n      0x02\n        /* \"ERC20_2.sol\":2218:2232  allowed[owner] */\n      0x00\n        /* \"ERC20_2.sol\":2226:2231  owner */\n      dup6\n        /* \"ERC20_2.sol\":2218:2232  allowed[owner] */\n      0xffffffffffffffffffffffffffffffffffffffff\n      and\n      0xffffffffffffffffffffffffffffffffffffffff\n      and\n      dup2\n      mstore\n      0x20\n      add\n      swap1\n      dup2\n      mstore\n      0x20\n      add\n      0x00\n      keccak256\n        /* \"ERC20_2.sol\":2218:2240  allowed[owner][mowner] */\n      0x00\n        /* \"ERC20_2.sol\":2233:2239  mowner */\n      dup1\n      0x00\n      swap1\n      sload\n      swap1\n      0x0100\n      exp\n      swap1\n      div\n      0xffffffffffffffffffffffffffffffffffffffff\n      and\n        /* \"ERC20_2.sol\":2218:2240  allowed[owner][mowner] */\n      0xffffffffffffffffffffffffffffffffffffffff\n      and\n      0xffffffffffffffffffffffffffffffffffffffff\n      and\n      dup2\n      mstore\n      0x20\n      add\n      swap1\n      dup2\n      mstore\n      0x20\n      add\n      0x00\n      keccak256\n      sload\n        /* \"ERC20_2.sol\":2205:2214  numTokens */\n      dup3\n        /* \"ERC20_2.sol\":2205:2240  numTokens <= allowed[owner][mowner] */\n      gt\n      iszero\n        /* \"ERC20_2.sol\":2197:2241  require(numTokens <= allowed[owner][mowner]) */\n      tag_78\n      jumpi\n      0x00\n      dup1\n      revert\n    tag_78:\n        /* \"ERC20_2.sol\":2286:2295  numTokens */\n      dup2\n        /* \"ERC20_2.sol\":2270:2278  balances */\n      0x01\n        /* \"ERC20_2.sol\":2270:2285  balances[owner] */\n      0x00\n        /* \"ERC20_2.sol\":2279:2284  owner */\n      dup7\n        /* \"ERC20_2.sol\":2270:2285  balances[owner] */\n      0xffffffffffffffffffffffffffffffffffffffff\n      and\n      0xffffffffffffffffffffffffffffffffffffffff\n      and\n      dup2\n      mstore\n      0x20\n      add\n      swap1\n      dup2\n      mstore\n      0x20\n      add\n      0x00\n      keccak256\n      sload\n        /* \"ERC20_2.sol\":2270:2295  balances[owner]-numTokens */\n      tag_79\n      swap2\n      swap1\n      tag_80\n      jump\t// in\n    tag_79:\n        /* \"ERC20_2.sol\":2252:2260  balances */\n      0x01\n        /* \"ERC20_2.sol\":2252:2267  balances[owner] */\n      0x00\n        /* \"ERC20_2.sol\":2261:2266  owner */\n      dup7\n        /* \"ERC20_2.sol\":2252:2267  balances[owner] */\n      0xffffffffffffffffffffffffffffffffffffffff\n      and\n      0xffffffffffffffffffffffffffffffffffffffff\n      and\n      dup2\n      mstore\n      0x20\n      add\n      swap1\n      dup2\n      mstore\n      0x20\n      add\n      0x00\n      keccak256\n        /* \"ERC20_2.sol\":2252:2295  balances[owner] = balances[owner]-numTokens */\n      dup2\n      swap1\n      sstore\n      pop\n        /* \"ERC20_2.sol\":2353:2362  numTokens */\n      dup2\n        /* \"ERC20_2.sol\":2330:2337  allowed */\n      0x02\n        /* \"ERC20_2.sol\":2330:2344  allowed[owner] */\n      0x00\n        /* \"ERC20_2.sol\":2338:2343  owner */\n      dup7\n        /* \"ERC20_2.sol\":2330:2344  allowed[owner] */\n      0xffffffffffffffffffffffffffffffffffffffff\n      and\n      0xffffffffffffffffffffffffffffffffffffffff\n      and\n      dup2\n      mstore\n      0x20\n      add\n      swap1\n      dup2\n      mstore\n      0x20\n      add\n      0x00\n      keccak256\n        /* \"ERC20_2.sol\":2330:2352  allowed[owner][mowner] */\n      0x00\n        /* \"ERC20_2.sol\":2345:2351  mowner */\n      dup1\n      0x00\n      swap1\n      sload\n      swap1\n      0x0100\n      exp\n      swap1\n      div\n      0xffffffffffffffffffffffffffffffffffffffff\n      and\n        /* \"ERC20_2.sol\":2330:2352  allowed[owner][mowner] */\n      0xffffffffffffffffffffffffffffffffffffffff\n      and\n      0xffffffffffffffffffffffffffffffffffffffff\n      and\n      dup2\n      mstore\n      0x20\n      add\n      swap1\n      dup2\n      mstore\n      0x20\n      add\n      0x00\n      keccak256\n      sload\n        /* \"ERC20_2.sol\":2330:2362  allowed[owner][mowner]-numTokens */\n      tag_81\n      swap2\n      swap1\n      tag_80\n      jump\t// in\n    tag_81:\n        /* \"ERC20_2.sol\":2305:2312  allowed */\n      0x02\n        /* \"ERC20_2.sol\":2305:2319  allowed[owner] */\n      0x00\n        /* \"ERC20_2.sol\":2313:2318  owner */\n      dup7\n        /* \"ERC20_2.sol\":2305:2319  allowed[owner] */\n      0xffffffffffffffffffffffffffffffffffffffff\n      and\n      0xffffffffffffffffffffffffffffffffffffffff\n      and\n      dup2\n      mstore\n      0x20\n      add\n      swap1\n      dup2\n      mstore\n      0x20\n      add\n      0x00\n      keccak256\n        /* \"ERC20_2.sol\":2305:2327  allowed[owner][mowner] */\n      0x00\n        /* \"ERC20_2.sol\":2320:2326  mowner */\n      dup1\n      0x00\n      swap1\n      sload\n      swap1\n      0x0100\n      exp\n      swap1\n      div\n      0xffffffffffffffffffffffffffffffffffffffff\n      and\n        /* \"ERC20_2.sol\":2305:2327  allowed[owner][mowner] */\n      0xffffffffffffffffffffffffffffffffffffffff\n      and\n      0xffffffffffffffffffffffffffffffffffffffff\n      and\n      dup2\n      mstore\n      0x20\n      add\n      swap1\n      dup2\n      mstore\n      0x20\n      add\n      0x00\n      keccak256\n        /* \"ERC20_2.sol\":2305:2362  allowed[owner][mowner] = allowed[owner][mowner]-numTokens */\n      dup2\n      swap1\n      sstore\n      pop\n        /* \"ERC20_2.sol\":2406:2415  numTokens */\n      dup2\n        /* \"ERC20_2.sol\":2390:2398  balances */\n      0x01\n        /* \"ERC20_2.sol\":2390:2405  balances[buyer] */\n      0x00\n        /* \"ERC20_2.sol\":2399:2404  buyer */\n      dup6\n        /* \"ERC20_2.sol\":2390:2405  balances[buyer] */\n      0xffffffffffffffffffffffffffffffffffffffff\n      and\n      0xffffffffffffffffffffffffffffffffffffffff\n      and\n      dup2\n      mstore\n      0x20\n      add\n      swap1\n      dup2\n      mstore\n      0x20\n      add\n      0x00\n      keccak256\n      sload\n        /* \"ERC20_2.sol\":2390:2415  balances[buyer]+numTokens */\n      tag_82\n      swap2\n      swap1\n      tag_83\n      jump\t// in\n    tag_82:\n        /* \"ERC20_2.sol\":2372:2380  balances */\n      0x01\n        /* \"ERC20_2.sol\":2372:2387  balances[buyer] */\n      0x00\n        /* \"ERC20_2.sol\":2381:2386  buyer */\n      dup6\n        /* \"ERC20_2.sol\":2372:2387  balances[buyer] */\n      0xffffffffffffffffffffffffffffffffffffffff\n      and\n      0xffffffffffffffffffffffffffffffffffffffff\n      and\n      dup2\n      mstore\n      0x20\n      add\n      swap1\n      dup2\n      mstore\n      0x20\n      add\n      0x00\n      keccak256\n        /* \"ERC20_2.sol\":2372:2415  balances[buyer] = balances[buyer]+numTokens */\n      dup2\n      swap1\n      sstore\n      pop\n        /* \"ERC20_2.sol\":2446:2451  buyer */\n      dup3\n        /* \"ERC20_2.sol\":2430:2463  Transfer(owner, buyer, numTokens) */\n      0xffffffffffffffffffffffffffffffffffffffff\n      and\n        /* \"ERC20_2.sol\":2439:2444  owner */\n      dup5\n        /* \"ERC20_2.sol\":2430:2463  Transfer(owner, buyer, numTokens) */\n      0xffffffffffffffffffffffffffffffffffffffff\n      and\n      0xddf252ad1be2c89b69c2b068fc378daa952ba7f163c4a11628f55a4df523b3ef\n        /* \"ERC20_2.sol\":2453:2462  numTokens */\n      dup5\n        /* \"ERC20_2.sol\":2430:2463  Transfer(owner, buyer, numTokens) */\n      mload(0x40)\n      tag_84\n      swap2\n      swap1\n      tag_35\n      jump\t// in\n    tag_84:\n      mload(0x40)\n      dup1\n      swap2\n      sub\n      swap1\n      log3\n        /* \"ERC20_2.sol\":2480:2484  true */\n      0x01\n        /* \"ERC20_2.sol\":2473:2484  return true */\n      swap1\n      pop\n        /* \"ERC20_2.sol\":2038:2491  function transferFrom(address owner, address buyer, uint256 numTokens) public override returns (bool) {... */\n      swap4\n      swap3\n      pop\n      pop\n      pop\n      jump\t// out\n        /* \"ERC20_2.sol\":829:863  uint8 public constant decimals = 0 */\n    tag_42:\n        /* \"ERC20_2.sol\":862:863  0 */\n      0x00\n        /* \"ERC20_2.sol\":829:863  uint8 public constant decimals = 0 */\n      dup2\n      jump\t// out\n        /* \"ERC20_2.sol\":1216:1338  function balanceOf(address tokenOwner) public override view returns (uint256) {... */\n    tag_48:\n        /* \"ERC20_2.sol\":1285:1292  uint256 */\n      0x00\n        /* \"ERC20_2.sol\":1311:1319  balances */\n      0x01\n        /* \"ERC20_2.sol\":1311:1331  balances[tokenOwner] */\n      0x00\n        /* \"ERC20_2.sol\":1320:1330  tokenOwner */\n      dup4\n        /* \"ERC20_2.sol\":1311:1331  balances[tokenOwner] */\n      0xffffffffffffffffffffffffffffffffffffffff\n      and\n      0xffffffffffffffffffffffffffffffffffffffff\n      and\n      dup2\n      mstore\n      0x20\n      add\n      swap1\n      dup2\n      mstore\n      0x20\n      add\n      0x00\n      keccak256\n      sload\n        /* \"ERC20_2.sol\":1304:1331  return balances[tokenOwner] */\n      swap1\n      pop\n        /* \"ERC20_2.sol\":1216:1338  function balanceOf(address tokenOwner) public override view returns (uint256) {... */\n      swap2\n      swap1\n      pop\n      jump\t// out\n        /* \"ERC20_2.sol\":786:823  string public constant symbol = \"ERC\" */\n    tag_51:\n      mload(0x40)\n      dup1\n      0x40\n      add\n      0x40\n      mstore\n      dup1\n      0x03\n      dup2\n      mstore\n      0x20\n      add\n      0x4552430000000000000000000000000000000000000000000000000000000000\n      dup2\n      mstore\n      pop\n      dup2\n      jump\t// out\n        /* \"ERC20_2.sol\":3169:3300  function mint(uint _x) public OwnerOnly {... */\n    tag_56:\n        /* \"ERC20_2.sol\":2542:2548  mowner */\n      0x00\n      dup1\n      sload\n      swap1\n      0x0100\n      exp\n      swap1\n      div\n      0xffffffffffffffffffffffffffffffffffffffff\n      and\n        /* \"ERC20_2.sol\":2532:2548  mowner == mowner */\n      0xffffffffffffffffffffffffffffffffffffffff\n      and\n        /* \"ERC20_2.sol\":2532:2538  mowner */\n      0x00\n      dup1\n      sload\n      swap1\n      0x0100\n      exp\n      swap1\n      div\n      0xffffffffffffffffffffffffffffffffffffffff\n      and\n        /* \"ERC20_2.sol\":2532:2548  mowner == mowner */\n      0xffffffffffffffffffffffffffffffffffffffff\n      and\n      eq\n        /* \"ERC20_2.sol\":2524:2570  require(mowner == mowner ,'you Are Not Owner') */\n      tag_87\n      jumpi\n      mload(0x40)\n      0x08c379a000000000000000000000000000000000000000000000000000000000\n      dup2\n      mstore\n      0x04\n      add\n      tag_88\n      swap1\n      tag_89\n      jump\t// in\n    tag_88:\n      mload(0x40)\n      dup1\n      swap2\n      sub\n      swap1\n      revert\n    tag_87:\n        /* \"ERC20_2.sol\":3248:3250  _x */\n      dup1\n        /* \"ERC20_2.sol\":3235:3247  totalSupply_ */\n      sload(0x03)\n        /* \"ERC20_2.sol\":3235:3250  totalSupply_+_x */\n      tag_91\n      swap2\n      swap1\n      tag_83\n      jump\t// in\n    tag_91:\n        /* \"ERC20_2.sol\":3220:3232  totalSupply_ */\n      0x03\n        /* \"ERC20_2.sol\":3220:3250  totalSupply_ = totalSupply_+_x */\n      dup2\n      swap1\n      sstore\n      pop\n        /* \"ERC20_2.sol\":3280:3292  totalSupply_ */\n      sload(0x03)\n        /* \"ERC20_2.sol\":3261:3269  balances */\n      0x01\n        /* \"ERC20_2.sol\":3261:3277  balances[mowner] */\n      0x00\n        /* \"ERC20_2.sol\":3270:3276  mowner */\n      dup1\n      0x00\n      swap1\n      sload\n      swap1\n      0x0100\n      exp\n      swap1\n      div\n      0xffffffffffffffffffffffffffffffffffffffff\n      and\n        /* \"ERC20_2.sol\":3261:3277  balances[mowner] */\n      0xffffffffffffffffffffffffffffffffffffffff\n      and\n      0xffffffffffffffffffffffffffffffffffffffff\n      and\n      dup2\n      mstore\n      0x20\n      add\n      swap1\n      dup2\n      mstore\n      0x20\n      add\n      0x00\n      keccak256\n        /* \"ERC20_2.sol\":3261:3292  balances[mowner] = totalSupply_ */\n      dup2\n      swap1\n      sstore\n      pop\n        /* \"ERC20_2.sol\":3169:3300  function mint(uint _x) public OwnerOnly {... */\n      pop\n      jump\t// out\n        /* \"ERC20_2.sol\":1344:1672  function transfer(address receiver, uint256 numTokens) public override returns (bool) {... */\n    tag_59:\n        /* \"ERC20_2.sol\":1424:1428  bool */\n      0x00\n        /* \"ERC20_2.sol\":1461:1469  balances */\n      0x01\n        /* \"ERC20_2.sol\":1461:1477  balances[mowner] */\n      0x00\n        /* \"ERC20_2.sol\":1470:1476  mowner */\n      dup1\n      0x00\n      swap1\n      sload\n      swap1\n      0x0100\n      exp\n      swap1\n      div\n      0xffffffffffffffffffffffffffffffffffffffff\n      and\n        /* \"ERC20_2.sol\":1461:1477  balances[mowner] */\n      0xffffffffffffffffffffffffffffffffffffffff\n      and\n      0xffffffffffffffffffffffffffffffffffffffff\n      and\n      dup2\n      mstore\n      0x20\n      add\n      swap1\n      dup2\n      mstore\n      0x20\n      add\n      0x00\n      keccak256\n      sload\n        /* \"ERC20_2.sol\":1448:1457  numTokens */\n      dup3\n        /* \"ERC20_2.sol\":1448:1477  numTokens <= balances[mowner] */\n      gt\n      iszero\n        /* \"ERC20_2.sol\":1440:1478  require(numTokens <= balances[mowner]) */\n      tag_93\n      jumpi\n      0x00\n      dup1\n      revert\n    tag_93:\n        /* \"ERC20_2.sol\":1524:1533  numTokens */\n      dup2\n        /* \"ERC20_2.sol\":1507:1515  balances */\n      0x01\n        /* \"ERC20_2.sol\":1507:1523  balances[mowner] */\n      0x00\n        /* \"ERC20_2.sol\":1516:1522  mowner */\n      dup1\n      0x00\n      swap1\n      sload\n      swap1\n      0x0100\n      exp\n      swap1\n      div\n      0xffffffffffffffffffffffffffffffffffffffff\n      and\n        /* \"ERC20_2.sol\":1507:1523  balances[mowner] */\n      0xffffffffffffffffffffffffffffffffffffffff\n      and\n      0xffffffffffffffffffffffffffffffffffffffff\n      and\n      dup2\n      mstore\n      0x20\n      add\n      swap1\n      dup2\n      mstore\n      0x20\n      add\n      0x00\n      keccak256\n      sload\n        /* \"ERC20_2.sol\":1507:1533  balances[mowner]-numTokens */\n      tag_94\n      swap2\n      swap1\n      tag_80\n      jump\t// in\n    tag_94:\n        /* \"ERC20_2.sol\":1488:1496  balances */\n      0x01\n        /* \"ERC20_2.sol\":1488:1504  balances[mowner] */\n      0x00\n        /* \"ERC20_2.sol\":1497:1503  mowner */\n      dup1\n      0x00\n      swap1\n      sload\n      swap1\n      0x0100\n      exp\n      swap1\n      div\n      0xffffffffffffffffffffffffffffffffffffffff\n      and\n        /* \"ERC20_2.sol\":1488:1504  balances[mowner] */\n      0xffffffffffffffffffffffffffffffffffffffff\n      and\n      0xffffffffffffffffffffffffffffffffffffffff\n      and\n      dup2\n      mstore\n      0x20\n      add\n      swap1\n      dup2\n      mstore\n      0x20\n      add\n      0x00\n      keccak256\n        /* \"ERC20_2.sol\":1488:1533  balances[mowner] = balances[mowner]-numTokens */\n      dup2\n      swap1\n      sstore\n      pop\n        /* \"ERC20_2.sol\":1583:1592  numTokens */\n      dup2\n        /* \"ERC20_2.sol\":1564:1572  balances */\n      0x01\n        /* \"ERC20_2.sol\":1564:1582  balances[receiver] */\n      0x00\n        /* \"ERC20_2.sol\":1573:1581  receiver */\n      dup6\n        /* \"ERC20_2.sol\":1564:1582  balances[receiver] */\n      0xffffffffffffffffffffffffffffffffffffffff\n      and\n      0xffffffffffffffffffffffffffffffffffffffff\n      and\n      dup2\n      mstore\n      0x20\n      add\n      swap1\n      dup2\n      mstore\n      0x20\n      add\n      0x00\n      keccak256\n      sload\n        /* \"ERC20_2.sol\":1564:1592  balances[receiver]+numTokens */\n      tag_95\n      swap2\n      swap1\n      tag_83\n      jump\t// in\n    tag_95:\n        /* \"ERC20_2.sol\":1543:1551  balances */\n      0x01\n        /* \"ERC20_2.sol\":1543:1561  balances[receiver] */\n      0x00\n        /* \"ERC20_2.sol\":1552:1560  receiver */\n      dup6\n        /* \"ERC20_2.sol\":1543:1561  balances[receiver] */\n      0xffffffffffffffffffffffffffffffffffffffff\n      and\n      0xffffffffffffffffffffffffffffffffffffffff\n      and\n      dup2\n      mstore\n      0x20\n      add\n      swap1\n      dup2\n      mstore\n      0x20\n      add\n      0x00\n      keccak256\n        /* \"ERC20_2.sol\":1543:1592  balances[receiver] = balances[receiver]+numTokens */\n      dup2\n      swap1\n      sstore\n      pop\n        /* \"ERC20_2.sol\":1624:1632  receiver */\n      dup3\n        /* \"ERC20_2.sol\":1607:1644  Transfer(mowner, receiver, numTokens) */\n      0xffffffffffffffffffffffffffffffffffffffff\n      and\n        /* \"ERC20_2.sol\":1616:1622  mowner */\n      0x00\n      dup1\n      sload\n      swap1\n      0x0100\n      exp\n      swap1\n      div\n      0xffffffffffffffffffffffffffffffffffffffff\n      and\n        /* \"ERC20_2.sol\":1607:1644  Transfer(mowner, receiver, numTokens) */\n      0xffffffffffffffffffffffffffffffffffffffff\n      and\n      0xddf252ad1be2c89b69c2b068fc378daa952ba7f163c4a11628f55a4df523b3ef\n        /* \"ERC20_2.sol\":1634:1643  numTokens */\n      dup5\n        /* \"ERC20_2.sol\":1607:1644  Transfer(mowner, receiver, numTokens) */\n      mload(0x40)\n      tag_96\n      swap2\n      swap1\n      tag_35\n      jump\t// in\n    tag_96:\n      mload(0x40)\n      dup1\n      swap2\n      sub\n      swap1\n      log3\n        /* \"ERC20_2.sol\":1661:1665  true */\n      0x01\n        /* \"ERC20_2.sol\":1654:1665  return true */\n      swap1\n      pop\n        /* \"ERC20_2.sol\":1344:1672  function transfer(address receiver, uint256 numTokens) public override returns (bool) {... */\n      swap3\n      swap2\n      pop\n      pop\n      jump\t// out\n        /* \"ERC20_2.sol\":2590:3081  function TransferOwnership(address _newOwner) public OwnerOnly {... */\n    tag_63:\n        /* \"ERC20_2.sol\":2542:2548  mowner */\n      0x00\n      dup1\n      sload\n      swap1\n      0x0100\n      exp\n      swap1\n      div\n      0xffffffffffffffffffffffffffffffffffffffff\n      and\n        /* \"ERC20_2.sol\":2532:2548  mowner == mowner */\n      0xffffffffffffffffffffffffffffffffffffffff\n      and\n        /* \"ERC20_2.sol\":2532:2538  mowner */\n      0x00\n      dup1\n      sload\n      swap1\n      0x0100\n      exp\n      swap1\n      div\n      0xffffffffffffffffffffffffffffffffffffffff\n      and\n        /* \"ERC20_2.sol\":2532:2548  mowner == mowner */\n      0xffffffffffffffffffffffffffffffffffffffff\n      and\n      eq\n        /* \"ERC20_2.sol\":2524:2570  require(mowner == mowner ,'you Are Not Owner') */\n      tag_98\n      jumpi\n      mload(0x40)\n      0x08c379a000000000000000000000000000000000000000000000000000000000\n      dup2\n      mstore\n      0x04\n      add\n      tag_99\n      swap1\n      tag_89\n      jump\t// in\n    tag_99:\n      mload(0x40)\n      dup1\n      swap2\n      sub\n      swap1\n      revert\n    tag_98:\n        /* \"ERC20_2.sol\":2942:2954  address temp */\n      0x00\n        /* \"ERC20_2.sol\":2957:2963  mowner */\n      dup1\n      0x00\n      swap1\n      sload\n      swap1\n      0x0100\n      exp\n      swap1\n      div\n      0xffffffffffffffffffffffffffffffffffffffff\n      and\n        /* \"ERC20_2.sol\":2942:2963  address temp = mowner */\n      swap1\n      pop\n        /* \"ERC20_2.sol\":2983:2992  _newOwner */\n      dup2\n        /* \"ERC20_2.sol\":2974:2980  mowner */\n      0x00\n      dup1\n        /* \"ERC20_2.sol\":2974:2992  mowner = _newOwner */\n      0x0100\n      exp\n      dup2\n      sload\n      dup2\n      0xffffffffffffffffffffffffffffffffffffffff\n      mul\n      not\n      and\n      swap1\n      dup4\n      0xffffffffffffffffffffffffffffffffffffffff\n      and\n      mul\n      or\n      swap1\n      sstore\n      pop\n        /* \"ERC20_2.sol\":3034:3042  balances */\n      0x01\n        /* \"ERC20_2.sol\":3034:3048  balances[temp] */\n      0x00\n        /* \"ERC20_2.sol\":3043:3047  temp */\n      dup3\n        /* \"ERC20_2.sol\":3034:3048  balances[temp] */\n      0xffffffffffffffffffffffffffffffffffffffff\n      and\n      0xffffffffffffffffffffffffffffffffffffffff\n      and\n      dup2\n      mstore\n      0x20\n      add\n      swap1\n      dup2\n      mstore\n      0x20\n      add\n      0x00\n      keccak256\n      sload\n        /* \"ERC20_2.sol\":3021:3033  totalSupply_ */\n      sload(0x03)\n        /* \"ERC20_2.sol\":3021:3048  totalSupply_+balances[temp] */\n      tag_101\n      swap2\n      swap1\n      tag_83\n      jump\t// in\n    tag_101:\n        /* \"ERC20_2.sol\":3002:3010  balances */\n      0x01\n        /* \"ERC20_2.sol\":3002:3018  balances[mowner] */\n      0x00\n        /* \"ERC20_2.sol\":3011:3017  mowner */\n      dup1\n      0x00\n      swap1\n      sload\n      swap1\n      0x0100\n      exp\n      swap1\n      div\n      0xffffffffffffffffffffffffffffffffffffffff\n      and\n        /* \"ERC20_2.sol\":3002:3018  balances[mowner] */\n      0xffffffffffffffffffffffffffffffffffffffff\n      and\n      0xffffffffffffffffffffffffffffffffffffffff\n      and\n      dup2\n      mstore\n      0x20\n      add\n      swap1\n      dup2\n      mstore\n      0x20\n      add\n      0x00\n      keccak256\n        /* \"ERC20_2.sol\":3002:3048  balances[mowner] = totalSupply_+balances[temp] */\n      dup2\n      swap1\n      sstore\n      pop\n        /* \"ERC20_2.sol\":3073:3074  0 */\n      0x00\n        /* \"ERC20_2.sol\":3058:3066  balances */\n      0x01\n        /* \"ERC20_2.sol\":3058:3072  balances[temp] */\n      0x00\n        /* \"ERC20_2.sol\":3067:3071  temp */\n      dup4\n        /* \"ERC20_2.sol\":3058:3072  balances[temp] */\n      0xffffffffffffffffffffffffffffffffffffffff\n      and\n      0xffffffffffffffffffffffffffffffffffffffff\n      and\n      dup2\n      mstore\n      0x20\n      add\n      swap1\n      dup2\n      mstore\n      0x20\n      add\n      0x00\n      keccak256\n        /* \"ERC20_2.sol\":3058:3074  balances[temp]=0 */\n      dup2\n      swap1\n      sstore\n      pop\n        /* \"ERC20_2.sol\":2653:3081  {... */\n      pop\n        /* \"ERC20_2.sol\":2590:3081  function TransferOwnership(address _newOwner) public OwnerOnly {... */\n      pop\n      jump\t// out\n        /* \"ERC20_2.sol\":1896:2032  function allowance(address owner, address delegate) public override view returns (uint) {... */\n    tag_67:\n        /* \"ERC20_2.sol\":1978:1982  uint */\n      0x00\n        /* \"ERC20_2.sol\":2001:2008  allowed */\n      0x02\n        /* \"ERC20_2.sol\":2001:2015  allowed[owner] */\n      0x00\n        /* \"ERC20_2.sol\":2009:2014  owner */\n      dup5\n        /* \"ERC20_2.sol\":2001:2015  allowed[owner] */\n      0xffffffffffffffffffffffffffffffffffffffff\n      and\n      0xffffffffffffffffffffffffffffffffffffffff\n      and\n      dup2\n      mstore\n      0x20\n      add\n      swap1\n      dup2\n      mstore\n      0x20\n      add\n      0x00\n      keccak256\n        /* \"ERC20_2.sol\":2001:2025  allowed[owner][delegate] */\n      0x00\n        /* \"ERC20_2.sol\":2016:2024  delegate */\n      dup4\n        /* \"ERC20_2.sol\":2001:2025  allowed[owner][delegate] */\n      0xffffffffffffffffffffffffffffffffffffffff\n      and\n      0xffffffffffffffffffffffffffffffffffffffff\n      and\n      dup2\n      mstore\n      0x20\n      add\n      swap1\n      dup2\n      mstore\n      0x20\n      add\n      0x00\n      keccak256\n      sload\n        /* \"ERC20_2.sol\":1994:2025  return allowed[owner][delegate] */\n      swap1\n      pop\n        /* \"ERC20_2.sol\":1896:2032  function allowance(address owner, address delegate) public override view returns (uint) {... */\n      swap3\n      swap2\n      pop\n      pop\n      jump\t// out\n        /* \"ERC20_2.sol\":869:903  address public mowner = msg.sender */\n    tag_70:\n      0x00\n      dup1\n      sload\n      swap1\n      0x0100\n      exp\n      swap1\n      div\n      0xffffffffffffffffffffffffffffffffffffffff\n      and\n      dup2\n      jump\t// out\n        /* \"#utility.yul\":7:133   */\n    tag_103:\n        /* \"#utility.yul\":44:51   */\n      0x00\n        /* \"#utility.yul\":84:126   */\n      0xffffffffffffffffffffffffffffffffffffffff\n        /* \"#utility.yul\":77:82   */\n      dup3\n        /* \"#utility.yul\":73:127   */\n      and\n        /* \"#utility.yul\":62:127   */\n      swap1\n      pop\n        /* \"#utility.yul\":7:133   */\n      swap2\n      swap1\n      pop\n      jump\t// out\n        /* \"#utility.yul\":139:235   */\n    tag_104:\n        /* \"#utility.yul\":176:183   */\n      0x00\n        /* \"#utility.yul\":205:229   */\n      tag_130\n        /* \"#utility.yul\":223:228   */\n      dup3\n        /* \"#utility.yul\":205:229   */\n      tag_103\n      jump\t// in\n    tag_130:\n        /* \"#utility.yul\":194:229   */\n      swap1\n      pop\n        /* \"#utility.yul\":139:235   */\n      swap2\n      swap1\n      pop\n      jump\t// out\n        /* \"#utility.yul\":241:359   */\n    tag_105:\n        /* \"#utility.yul\":328:352   */\n      tag_132\n        /* \"#utility.yul\":346:351   */\n      dup2\n        /* \"#utility.yul\":328:352   */\n      tag_104\n      jump\t// in\n    tag_132:\n        /* \"#utility.yul\":323:326   */\n      dup3\n        /* \"#utility.yul\":316:353   */\n      mstore\n        /* \"#utility.yul\":241:359   */\n      pop\n      pop\n      jump\t// out\n        /* \"#utility.yul\":365:587   */\n    tag_21:\n        /* \"#utility.yul\":458:462   */\n      0x00\n        /* \"#utility.yul\":496:498   */\n      0x20\n        /* \"#utility.yul\":485:494   */\n      dup3\n        /* \"#utility.yul\":481:499   */\n      add\n        /* \"#utility.yul\":473:499   */\n      swap1\n      pop\n        /* \"#utility.yul\":509:580   */\n      tag_134\n        /* \"#utility.yul\":577:578   */\n      0x00\n        /* \"#utility.yul\":566:575   */\n      dup4\n        /* \"#utility.yul\":562:579   */\n      add\n        /* \"#utility.yul\":553:559   */\n      dup5\n        /* \"#utility.yul\":509:580   */\n      tag_105\n      jump\t// in\n    tag_134:\n        /* \"#utility.yul\":365:587   */\n      swap3\n      swap2\n      pop\n      pop\n      jump\t// out\n        /* \"#utility.yul\":593:692   */\n    tag_106:\n        /* \"#utility.yul\":645:651   */\n      0x00\n        /* \"#utility.yul\":679:684   */\n      dup2\n        /* \"#utility.yul\":673:685   */\n      mload\n        /* \"#utility.yul\":663:685   */\n      swap1\n      pop\n        /* \"#utility.yul\":593:692   */\n      swap2\n      swap1\n      pop\n      jump\t// out\n        /* \"#utility.yul\":698:867   */\n    tag_107:\n        /* \"#utility.yul\":782:793   */\n      0x00\n        /* \"#utility.yul\":816:822   */\n      dup3\n        /* \"#utility.yul\":811:814   */\n      dup3\n        /* \"#utility.yul\":804:823   */\n      mstore\n        /* \"#utility.yul\":856:860   */\n      0x20\n        /* \"#utility.yul\":851:854   */\n      dup3\n        /* \"#utility.yul\":847:861   */\n      add\n        /* \"#utility.yul\":832:861   */\n      swap1\n      pop\n        /* \"#utility.yul\":698:867   */\n      swap3\n      swap2\n      pop\n      pop\n      jump\t// out\n        /* \"#utility.yul\":873:1180   */\n    tag_108:\n        /* \"#utility.yul\":941:942   */\n      0x00\n        /* \"#utility.yul\":951:1064   */\n    tag_138:\n        /* \"#utility.yul\":965:971   */\n      dup4\n        /* \"#utility.yul\":962:963   */\n      dup2\n        /* \"#utility.yul\":959:972   */\n      lt\n        /* \"#utility.yul\":951:1064   */\n      iszero\n      tag_140\n      jumpi\n        /* \"#utility.yul\":1050:1051   */\n      dup1\n        /* \"#utility.yul\":1045:1048   */\n      dup3\n        /* \"#utility.yul\":1041:1052   */\n      add\n        /* \"#utility.yul\":1035:1053   */\n      mload\n        /* \"#utility.yul\":1031:1032   */\n      dup2\n        /* \"#utility.yul\":1026:1029   */\n      dup5\n        /* \"#utility.yul\":1022:1033   */\n      add\n        /* \"#utility.yul\":1015:1054   */\n      mstore\n        /* \"#utility.yul\":987:989   */\n      0x20\n        /* \"#utility.yul\":984:985   */\n      dup2\n        /* \"#utility.yul\":980:990   */\n      add\n        /* \"#utility.yul\":975:990   */\n      swap1\n      pop\n        /* \"#utility.yul\":951:1064   */\n      jump(tag_138)\n    tag_140:\n        /* \"#utility.yul\":1082:1088   */\n      dup4\n        /* \"#utility.yul\":1079:1080   */\n      dup2\n        /* \"#utility.yul\":1076:1089   */\n      gt\n        /* \"#utility.yul\":1073:1174   */\n      iszero\n      tag_141\n      jumpi\n        /* \"#utility.yul\":1162:1163   */\n      0x00\n        /* \"#utility.yul\":1153:1159   */\n      dup5\n        /* \"#utility.yul\":1148:1151   */\n      dup5\n        /* \"#utility.yul\":1144:1160   */\n      add\n        /* \"#utility.yul\":1137:1164   */\n      mstore\n        /* \"#utility.yul\":1073:1174   */\n    tag_141:\n        /* \"#utility.yul\":922:1180   */\n      pop\n        /* \"#utility.yul\":873:1180   */\n      pop\n      pop\n      pop\n      jump\t// out\n        /* \"#utility.yul\":1186:1288   */\n    tag_109:\n        /* \"#utility.yul\":1227:1233   */\n      0x00\n        /* \"#utility.yul\":1278:1280   */\n      0x1f\n        /* \"#utility.yul\":1274:1281   */\n      not\n        /* \"#utility.yul\":1269:1271   */\n      0x1f\n        /* \"#utility.yul\":1262:1267   */\n      dup4\n        /* \"#utility.yul\":1258:1272   */\n      add\n        /* \"#utility.yul\":1254:1282   */\n      and\n        /* \"#utility.yul\":1244:1282   */\n      swap1\n      pop\n        /* \"#utility.yul\":1186:1288   */\n      swap2\n      swap1\n      pop\n      jump\t// out\n        /* \"#utility.yul\":1294:1658   */\n    tag_110:\n        /* \"#utility.yul\":1382:1385   */\n      0x00\n        /* \"#utility.yul\":1410:1449   */\n      tag_144\n        /* \"#utility.yul\":1443:1448   */\n      dup3\n        /* \"#utility.yul\":1410:1449   */\n      tag_106\n      jump\t// in\n    tag_144:\n        /* \"#utility.yul\":1465:1536   */\n      tag_145\n        /* \"#utility.yul\":1529:1535   */\n      dup2\n        /* \"#utility.yul\":1524:1527   */\n      dup6\n        /* \"#utility.yul\":1465:1536   */\n      tag_107\n      jump\t// in\n    tag_145:\n        /* \"#utility.yul\":1458:1536   */\n      swap4\n      pop\n        /* \"#utility.yul\":1545:1597   */\n      tag_146\n        /* \"#utility.yul\":1590:1596   */\n      dup2\n        /* \"#utility.yul\":1585:1588   */\n      dup6\n        /* \"#utility.yul\":1578:1582   */\n      0x20\n        /* \"#utility.yul\":1571:1576   */\n      dup7\n        /* \"#utility.yul\":1567:1583   */\n      add\n        /* \"#utility.yul\":1545:1597   */\n      tag_108\n      jump\t// in\n    tag_146:\n        /* \"#utility.yul\":1622:1651   */\n      tag_147\n        /* \"#utility.yul\":1644:1650   */\n      dup2\n        /* \"#utility.yul\":1622:1651   */\n      tag_109\n      jump\t// in\n    tag_147:\n        /* \"#utility.yul\":1617:1620   */\n      dup5\n        /* \"#utility.yul\":1613:1652   */\n      add\n        /* \"#utility.yul\":1606:1652   */\n      swap2\n      pop\n        /* \"#utility.yul\":1386:1658   */\n      pop\n        /* \"#utility.yul\":1294:1658   */\n      swap3\n      swap2\n      pop\n      pop\n      jump\t// out\n        /* \"#utility.yul\":1664:1977   */\n    tag_25:\n        /* \"#utility.yul\":1777:1781   */\n      0x00\n        /* \"#utility.yul\":1815:1817   */\n      0x20\n        /* \"#utility.yul\":1804:1813   */\n      dup3\n        /* \"#utility.yul\":1800:1818   */\n      add\n        /* \"#utility.yul\":1792:1818   */\n      swap1\n      pop\n        /* \"#utility.yul\":1864:1873   */\n      dup2\n        /* \"#utility.yul\":1858:1862   */\n      dup2\n        /* \"#utility.yul\":1854:1874   */\n      sub\n        /* \"#utility.yul\":1850:1851   */\n      0x00\n        /* \"#utility.yul\":1839:1848   */\n      dup4\n        /* \"#utility.yul\":1835:1852   */\n      add\n        /* \"#utility.yul\":1828:1875   */\n      mstore\n        /* \"#utility.yul\":1892:1970   */\n      tag_149\n        /* \"#utility.yul\":1965:1969   */\n      dup2\n        /* \"#utility.yul\":1956:1962   */\n      dup5\n        /* \"#utility.yul\":1892:1970   */\n      tag_110\n      jump\t// in\n    tag_149:\n        /* \"#utility.yul\":1884:1970   */\n      swap1\n      pop\n        /* \"#utility.yul\":1664:1977   */\n      swap3\n      swap2\n      pop\n      pop\n      jump\t// out\n        /* \"#utility.yul\":2064:2181   */\n    tag_112:\n        /* \"#utility.yul\":2173:2174   */\n      0x00\n        /* \"#utility.yul\":2170:2171   */\n      dup1\n        /* \"#utility.yul\":2163:2175   */\n      revert\n        /* \"#utility.yul\":2310:2432   */\n    tag_114:\n        /* \"#utility.yul\":2383:2407   */\n      tag_154\n        /* \"#utility.yul\":2401:2406   */\n      dup2\n        /* \"#utility.yul\":2383:2407   */\n      tag_104\n      jump\t// in\n    tag_154:\n        /* \"#utility.yul\":2376:2381   */\n      dup2\n        /* \"#utility.yul\":2373:2408   */\n      eq\n        /* \"#utility.yul\":2363:2426   */\n      tag_155\n      jumpi\n        /* \"#utility.yul\":2422:2423   */\n      0x00\n        /* \"#utility.yul\":2419:2420   */\n      dup1\n        /* \"#utility.yul\":2412:2424   */\n      revert\n        /* \"#utility.yul\":2363:2426   */\n    tag_155:\n        /* \"#utility.yul\":2310:2432   */\n      pop\n      jump\t// out\n        /* \"#utility.yul\":2438:2577   */\n    tag_115:\n        /* \"#utility.yul\":2484:2489   */\n      0x00\n        /* \"#utility.yul\":2522:2528   */\n      dup2\n        /* \"#utility.yul\":2509:2529   */\n      calldataload\n        /* \"#utility.yul\":2500:2529   */\n      swap1\n      pop\n        /* \"#utility.yul\":2538:2571   */\n      tag_157\n        /* \"#utility.yul\":2565:2570   */\n      dup2\n        /* \"#utility.yul\":2538:2571   */\n      tag_114\n      jump\t// in\n    tag_157:\n        /* \"#utility.yul\":2438:2577   */\n      swap3\n      swap2\n      pop\n      pop\n      jump\t// out\n        /* \"#utility.yul\":2583:2660   */\n    tag_116:\n        /* \"#utility.yul\":2620:2627   */\n      0x00\n        /* \"#utility.yul\":2649:2654   */\n      dup2\n        /* \"#utility.yul\":2638:2654   */\n      swap1\n      pop\n        /* \"#utility.yul\":2583:2660   */\n      swap2\n      swap1\n      pop\n      jump\t// out\n        /* \"#utility.yul\":2666:2788   */\n    tag_117:\n        /* \"#utility.yul\":2739:2763   */\n      tag_160\n        /* \"#utility.yul\":2757:2762   */\n      dup2\n        /* \"#utility.yul\":2739:2763   */\n      tag_116\n      jump\t// in\n    tag_160:\n        /* \"#utility.yul\":2732:2737   */\n      dup2\n        /* \"#utility.yul\":2729:2764   */\n      eq\n        /* \"#utility.yul\":2719:2782   */\n      tag_161\n      jumpi\n        /* \"#utility.yul\":2778:2779   */\n      0x00\n        /* \"#utility.yul\":2775:2776   */\n      dup1\n        /* \"#utility.yul\":2768:2780   */\n      revert\n        /* \"#utility.yul\":2719:2782   */\n    tag_161:\n        /* \"#utility.yul\":2666:2788   */\n      pop\n      jump\t// out\n        /* \"#utility.yul\":2794:2933   */\n    tag_118:\n        /* \"#utility.yul\":2840:2845   */\n      0x00\n        /* \"#utility.yul\":2878:2884   */\n      dup2\n        /* \"#utility.yul\":2865:2885   */\n      calldataload\n        /* \"#utility.yul\":2856:2885   */\n      swap1\n      pop\n        /* \"#utility.yul\":2894:2927   */\n      tag_163\n        /* \"#utility.yul\":2921:2926   */\n      dup2\n        /* \"#utility.yul\":2894:2927   */\n      tag_117\n      jump\t// in\n    tag_163:\n        /* \"#utility.yul\":2794:2933   */\n      swap3\n      swap2\n      pop\n      pop\n      jump\t// out\n        /* \"#utility.yul\":2939:3413   */\n    tag_28:\n        /* \"#utility.yul\":3007:3013   */\n      0x00\n        /* \"#utility.yul\":3015:3021   */\n      dup1\n        /* \"#utility.yul\":3064:3066   */\n      0x40\n        /* \"#utility.yul\":3052:3061   */\n      dup4\n        /* \"#utility.yul\":3043:3050   */\n      dup6\n        /* \"#utility.yul\":3039:3062   */\n      sub\n        /* \"#utility.yul\":3035:3067   */\n      slt\n        /* \"#utility.yul\":3032:3151   */\n      iszero\n      tag_165\n      jumpi\n        /* \"#utility.yul\":3070:3149   */\n      tag_166\n      tag_112\n      jump\t// in\n    tag_166:\n        /* \"#utility.yul\":3032:3151   */\n    tag_165:\n        /* \"#utility.yul\":3190:3191   */\n      0x00\n        /* \"#utility.yul\":3215:3268   */\n      tag_167\n        /* \"#utility.yul\":3260:3267   */\n      dup6\n        /* \"#utility.yul\":3251:3257   */\n      dup3\n        /* \"#utility.yul\":3240:3249   */\n      dup7\n        /* \"#utility.yul\":3236:3258   */\n      add\n        /* \"#utility.yul\":3215:3268   */\n      tag_115\n      jump\t// in\n    tag_167:\n        /* \"#utility.yul\":3205:3268   */\n      swap3\n      pop\n        /* \"#utility.yul\":3161:3278   */\n      pop\n        /* \"#utility.yul\":3317:3319   */\n      0x20\n        /* \"#utility.yul\":3343:3396   */\n      tag_168\n        /* \"#utility.yul\":3388:3395   */\n      dup6\n        /* \"#utility.yul\":3379:3385   */\n      dup3\n        /* \"#utility.yul\":3368:3377   */\n      dup7\n        /* \"#utility.yul\":3364:3386   */\n      add\n        /* \"#utility.yul\":3343:3396   */\n      tag_118\n      jump\t// in\n    tag_168:\n        /* \"#utility.yul\":3333:3396   */\n      swap2\n      pop\n        /* \"#utility.yul\":3288:3406   */\n      pop\n        /* \"#utility.yul\":2939:3413   */\n      swap3\n      pop\n      swap3\n      swap1\n      pop\n      jump\t// out\n        /* \"#utility.yul\":3419:3509   */\n    tag_119:\n        /* \"#utility.yul\":3453:3460   */\n      0x00\n        /* \"#utility.yul\":3496:3501   */\n      dup2\n        /* \"#utility.yul\":3489:3502   */\n      iszero\n        /* \"#utility.yul\":3482:3503   */\n      iszero\n        /* \"#utility.yul\":3471:3503   */\n      swap1\n      pop\n        /* \"#utility.yul\":3419:3509   */\n      swap2\n      swap1\n      pop\n      jump\t// out\n        /* \"#utility.yul\":3515:3624   */\n    tag_120:\n        /* \"#utility.yul\":3596:3617   */\n      tag_171\n        /* \"#utility.yul\":3611:3616   */\n      dup2\n        /* \"#utility.yul\":3596:3617   */\n      tag_119\n      jump\t// in\n    tag_171:\n        /* \"#utility.yul\":3591:3594   */\n      dup3\n        /* \"#utility.yul\":3584:3618   */\n      mstore\n        /* \"#utility.yul\":3515:3624   */\n      pop\n      pop\n      jump\t// out\n        /* \"#utility.yul\":3630:3840   */\n    tag_31:\n        /* \"#utility.yul\":3717:3721   */\n      0x00\n        /* \"#utility.yul\":3755:3757   */\n      0x20\n        /* \"#utility.yul\":3744:3753   */\n      dup3\n        /* \"#utility.yul\":3740:3758   */\n      add\n        /* \"#utility.yul\":3732:3758   */\n      swap1\n      pop\n        /* \"#utility.yul\":3768:3833   */\n      tag_173\n        /* \"#utility.yul\":3830:3831   */\n      0x00\n        /* \"#utility.yul\":3819:3828   */\n      dup4\n        /* \"#utility.yul\":3815:3832   */\n      add\n        /* \"#utility.yul\":3806:3812   */\n      dup5\n        /* \"#utility.yul\":3768:3833   */\n      tag_120\n      jump\t// in\n    tag_173:\n        /* \"#utility.yul\":3630:3840   */\n      swap3\n      swap2\n      pop\n      pop\n      jump\t// out\n        /* \"#utility.yul\":3846:3964   */\n    tag_121:\n        /* \"#utility.yul\":3933:3957   */\n      tag_175\n        /* \"#utility.yul\":3951:3956   */\n      dup2\n        /* \"#utility.yul\":3933:3957   */\n      tag_116\n      jump\t// in\n    tag_175:\n        /* \"#utility.yul\":3928:3931   */\n      dup3\n        /* \"#utility.yul\":3921:3958   */\n      mstore\n        /* \"#utility.yul\":3846:3964   */\n      pop\n      pop\n      jump\t// out\n        /* \"#utility.yul\":3970:4192   */\n    tag_35:\n        /* \"#utility.yul\":4063:4067   */\n      0x00\n        /* \"#utility.yul\":4101:4103   */\n      0x20\n        /* \"#utility.yul\":4090:4099   */\n      dup3\n        /* \"#utility.yul\":4086:4104   */\n      add\n        /* \"#utility.yul\":4078:4104   */\n      swap1\n      pop\n        /* \"#utility.yul\":4114:4185   */\n      tag_177\n        /* \"#utility.yul\":4182:4183   */\n      0x00\n        /* \"#utility.yul\":4171:4180   */\n      dup4\n        /* \"#utility.yul\":4167:4184   */\n      add\n        /* \"#utility.yul\":4158:4164   */\n      dup5\n        /* \"#utility.yul\":4114:4185   */\n      tag_121\n      jump\t// in\n    tag_177:\n        /* \"#utility.yul\":3970:4192   */\n      swap3\n      swap2\n      pop\n      pop\n      jump\t// out\n        /* \"#utility.yul\":4198:4817   */\n    tag_38:\n        /* \"#utility.yul\":4275:4281   */\n      0x00\n        /* \"#utility.yul\":4283:4289   */\n      dup1\n        /* \"#utility.yul\":4291:4297   */\n      0x00\n        /* \"#utility.yul\":4340:4342   */\n      0x60\n        /* \"#utility.yul\":4328:4337   */\n      dup5\n        /* \"#utility.yul\":4319:4326   */\n      dup7\n        /* \"#utility.yul\":4315:4338   */\n      sub\n        /* \"#utility.yul\":4311:4343   */\n      slt\n        /* \"#utility.yul\":4308:4427   */\n      iszero\n      tag_179\n      jumpi\n        /* \"#utility.yul\":4346:4425   */\n      tag_180\n      tag_112\n      jump\t// in\n    tag_180:\n        /* \"#utility.yul\":4308:4427   */\n    tag_179:\n        /* \"#utility.yul\":4466:4467   */\n      0x00\n        /* \"#utility.yul\":4491:4544   */\n      tag_181\n        /* \"#utility.yul\":4536:4543   */\n      dup7\n        /* \"#utility.yul\":4527:4533   */\n      dup3\n        /* \"#utility.yul\":4516:4525   */\n      dup8\n        /* \"#utility.yul\":4512:4534   */\n      add\n        /* \"#utility.yul\":4491:4544   */\n      tag_115\n      jump\t// in\n    tag_181:\n        /* \"#utility.yul\":4481:4544   */\n      swap4\n      pop\n        /* \"#utility.yul\":4437:4554   */\n      pop\n        /* \"#utility.yul\":4593:4595   */\n      0x20\n        /* \"#utility.yul\":4619:4672   */\n      tag_182\n        /* \"#utility.yul\":4664:4671   */\n      dup7\n        /* \"#utility.yul\":4655:4661   */\n      dup3\n        /* \"#utility.yul\":4644:4653   */\n      dup8\n        /* \"#utility.yul\":4640:4662   */\n      add\n        /* \"#utility.yul\":4619:4672   */\n      tag_115\n      jump\t// in\n    tag_182:\n        /* \"#utility.yul\":4609:4672   */\n      swap3\n      pop\n        /* \"#utility.yul\":4564:4682   */\n      pop\n        /* \"#utility.yul\":4721:4723   */\n      0x40\n        /* \"#utility.yul\":4747:4800   */\n      tag_183\n        /* \"#utility.yul\":4792:4799   */\n      dup7\n        /* \"#utility.yul\":4783:4789   */\n      dup3\n        /* \"#utility.yul\":4772:4781   */\n      dup8\n        /* \"#utility.yul\":4768:4790   */\n      add\n        /* \"#utility.yul\":4747:4800   */\n      tag_118\n      jump\t// in\n    tag_183:\n        /* \"#utility.yul\":4737:4800   */\n      swap2\n      pop\n        /* \"#utility.yul\":4692:4810   */\n      pop\n        /* \"#utility.yul\":4198:4817   */\n      swap3\n      pop\n      swap3\n      pop\n      swap3\n      jump\t// out\n        /* \"#utility.yul\":4823:4909   */\n    tag_122:\n        /* \"#utility.yul\":4858:4865   */\n      0x00\n        /* \"#utility.yul\":4898:4902   */\n      0xff\n        /* \"#utility.yul\":4891:4896   */\n      dup3\n        /* \"#utility.yul\":4887:4903   */\n      and\n        /* \"#utility.yul\":4876:4903   */\n      swap1\n      pop\n        /* \"#utility.yul\":4823:4909   */\n      swap2\n      swap1\n      pop\n      jump\t// out\n        /* \"#utility.yul\":4915:5027   */\n    tag_123:\n        /* \"#utility.yul\":4998:5020   */\n      tag_186\n        /* \"#utility.yul\":5014:5019   */\n      dup2\n        /* \"#utility.yul\":4998:5020   */\n      tag_122\n      jump\t// in\n    tag_186:\n        /* \"#utility.yul\":4993:4996   */\n      dup3\n        /* \"#utility.yul\":4986:5021   */\n      mstore\n        /* \"#utility.yul\":4915:5027   */\n      pop\n      pop\n      jump\t// out\n        /* \"#utility.yul\":5033:5247   */\n    tag_44:\n        /* \"#utility.yul\":5122:5126   */\n      0x00\n        /* \"#utility.yul\":5160:5162   */\n      0x20\n        /* \"#utility.yul\":5149:5158   */\n      dup3\n        /* \"#utility.yul\":5145:5163   */\n      add\n        /* \"#utility.yul\":5137:5163   */\n      swap1\n      pop\n        /* \"#utility.yul\":5173:5240   */\n      tag_188\n        /* \"#utility.yul\":5237:5238   */\n      0x00\n        /* \"#utility.yul\":5226:5235   */\n      dup4\n        /* \"#utility.yul\":5222:5239   */\n      add\n        /* \"#utility.yul\":5213:5219   */\n      dup5\n        /* \"#utility.yul\":5173:5240   */\n      tag_123\n      jump\t// in\n    tag_188:\n        /* \"#utility.yul\":5033:5247   */\n      swap3\n      swap2\n      pop\n      pop\n      jump\t// out\n        /* \"#utility.yul\":5253:5582   */\n    tag_47:\n        /* \"#utility.yul\":5312:5318   */\n      0x00\n        /* \"#utility.yul\":5361:5363   */\n      0x20\n        /* \"#utility.yul\":5349:5358   */\n      dup3\n        /* \"#utility.yul\":5340:5347   */\n      dup5\n        /* \"#utility.yul\":5336:5359   */\n      sub\n        /* \"#utility.yul\":5332:5364   */\n      slt\n        /* \"#utility.yul\":5329:5448   */\n      iszero\n      tag_190\n      jumpi\n        /* \"#utility.yul\":5367:5446   */\n      tag_191\n      tag_112\n      jump\t// in\n    tag_191:\n        /* \"#utility.yul\":5329:5448   */\n    tag_190:\n        /* \"#utility.yul\":5487:5488   */\n      0x00\n        /* \"#utility.yul\":5512:5565   */\n      tag_192\n        /* \"#utility.yul\":5557:5564   */\n      dup5\n        /* \"#utility.yul\":5548:5554   */\n      dup3\n        /* \"#utility.yul\":5537:5546   */\n      dup6\n        /* \"#utility.yul\":5533:5555   */\n      add\n        /* \"#utility.yul\":5512:5565   */\n      tag_115\n      jump\t// in\n    tag_192:\n        /* \"#utility.yul\":5502:5565   */\n      swap2\n      pop\n        /* \"#utility.yul\":5458:5575   */\n      pop\n        /* \"#utility.yul\":5253:5582   */\n      swap3\n      swap2\n      pop\n      pop\n      jump\t// out\n        /* \"#utility.yul\":5588:5917   */\n    tag_55:\n        /* \"#utility.yul\":5647:5653   */\n      0x00\n        /* \"#utility.yul\":5696:5698   */\n      0x20\n        /* \"#utility.yul\":5684:5693   */\n      dup3\n        /* \"#utility.yul\":5675:5682   */\n      dup5\n        /* \"#utility.yul\":5671:5694   */\n      sub\n        /* \"#utility.yul\":5667:5699   */\n      slt\n        /* \"#utility.yul\":5664:5783   */\n      iszero\n      tag_194\n      jumpi\n        /* \"#utility.yul\":5702:5781   */\n      tag_195\n      tag_112\n      jump\t// in\n    tag_195:\n        /* \"#utility.yul\":5664:5783   */\n    tag_194:\n        /* \"#utility.yul\":5822:5823   */\n      0x00\n        /* \"#utility.yul\":5847:5900   */\n      tag_196\n        /* \"#utility.yul\":5892:5899   */\n      dup5\n        /* \"#utility.yul\":5883:5889   */\n      dup3\n        /* \"#utility.yul\":5872:5881   */\n      dup6\n        /* \"#utility.yul\":5868:5890   */\n      add\n        /* \"#utility.yul\":5847:5900   */\n      tag_118\n      jump\t// in\n    tag_196:\n        /* \"#utility.yul\":5837:5900   */\n      swap2\n      pop\n        /* \"#utility.yul\":5793:5910   */\n      pop\n        /* \"#utility.yul\":5588:5917   */\n      swap3\n      swap2\n      pop\n      pop\n      jump\t// out\n        /* \"#utility.yul\":5923:6397   */\n    tag_66:\n        /* \"#utility.yul\":5991:5997   */\n      0x00\n        /* \"#utility.yul\":5999:6005   */\n      dup1\n        /* \"#utility.yul\":6048:6050   */\n      0x40\n        /* \"#utility.yul\":6036:6045   */\n      dup4\n        /* \"#utility.yul\":6027:6034   */\n      dup6\n        /* \"#utility.yul\":6023:6046   */\n      sub\n        /* \"#utility.yul\":6019:6051   */\n      slt\n        /* \"#utility.yul\":6016:6135   */\n      iszero\n      tag_198\n      jumpi\n        /* \"#utility.yul\":6054:6133   */\n      tag_199\n      tag_112\n      jump\t// in\n    tag_199:\n        /* \"#utility.yul\":6016:6135   */\n    tag_198:\n        /* \"#utility.yul\":6174:6175   */\n      0x00\n        /* \"#utility.yul\":6199:6252   */\n      tag_200\n        /* \"#utility.yul\":6244:6251   */\n      dup6\n        /* \"#utility.yul\":6235:6241   */\n      dup3\n        /* \"#utility.yul\":6224:6233   */\n      dup7\n        /* \"#utility.yul\":6220:6242   */\n      add\n        /* \"#utility.yul\":6199:6252   */\n      tag_115\n      jump\t// in\n    tag_200:\n        /* \"#utility.yul\":6189:6252   */\n      swap3\n      pop\n        /* \"#utility.yul\":6145:6262   */\n      pop\n        /* \"#utility.yul\":6301:6303   */\n      0x20\n        /* \"#utility.yul\":6327:6380   */\n      tag_201\n        /* \"#utility.yul\":6372:6379   */\n      dup6\n        /* \"#utility.yul\":6363:6369   */\n      dup3\n        /* \"#utility.yul\":6352:6361   */\n      dup7\n        /* \"#utility.yul\":6348:6370   */\n      add\n        /* \"#utility.yul\":6327:6380   */\n      tag_115\n      jump\t// in\n    tag_201:\n        /* \"#utility.yul\":6317:6380   */\n      swap2\n      pop\n        /* \"#utility.yul\":6272:6390   */\n      pop\n        /* \"#utility.yul\":5923:6397   */\n      swap3\n      pop\n      swap3\n      swap1\n      pop\n      jump\t// out\n        /* \"#utility.yul\":6403:6583   */\n    tag_124:\n        /* \"#utility.yul\":6451:6528   */\n      0x4e487b7100000000000000000000000000000000000000000000000000000000\n        /* \"#utility.yul\":6448:6449   */\n      0x00\n        /* \"#utility.yul\":6441:6529   */\n      mstore\n        /* \"#utility.yul\":6548:6552   */\n      0x11\n        /* \"#utility.yul\":6545:6546   */\n      0x04\n        /* \"#utility.yul\":6538:6553   */\n      mstore\n        /* \"#utility.yul\":6572:6576   */\n      0x24\n        /* \"#utility.yul\":6569:6570   */\n      0x00\n        /* \"#utility.yul\":6562:6577   */\n      revert\n        /* \"#utility.yul\":6589:6780   */\n    tag_80:\n        /* \"#utility.yul\":6629:6633   */\n      0x00\n        /* \"#utility.yul\":6649:6669   */\n      tag_204\n        /* \"#utility.yul\":6667:6668   */\n      dup3\n        /* \"#utility.yul\":6649:6669   */\n      tag_116\n      jump\t// in\n    tag_204:\n        /* \"#utility.yul\":6644:6669   */\n      swap2\n      pop\n        /* \"#utility.yul\":6683:6703   */\n      tag_205\n        /* \"#utility.yul\":6701:6702   */\n      dup4\n        /* \"#utility.yul\":6683:6703   */\n      tag_116\n      jump\t// in\n    tag_205:\n        /* \"#utility.yul\":6678:6703   */\n      swap3\n      pop\n        /* \"#utility.yul\":6722:6723   */\n      dup3\n        /* \"#utility.yul\":6719:6720   */\n      dup3\n        /* \"#utility.yul\":6716:6724   */\n      lt\n        /* \"#utility.yul\":6713:6747   */\n      iszero\n      tag_206\n      jumpi\n        /* \"#utility.yul\":6727:6745   */\n      tag_207\n      tag_124\n      jump\t// in\n    tag_207:\n        /* \"#utility.yul\":6713:6747   */\n    tag_206:\n        /* \"#utility.yul\":6772:6773   */\n      dup3\n        /* \"#utility.yul\":6769:6770   */\n      dup3\n        /* \"#utility.yul\":6765:6774   */\n      sub\n        /* \"#utility.yul\":6757:6774   */\n      swap1\n      pop\n        /* \"#utility.yul\":6589:6780   */\n      swap3\n      swap2\n      pop\n      pop\n      jump\t// out\n        /* \"#utility.yul\":6786:7091   */\n    tag_83:\n        /* \"#utility.yul\":6826:6829   */\n      0x00\n        /* \"#utility.yul\":6845:6865   */\n      tag_209\n        /* \"#utility.yul\":6863:6864   */\n      dup3\n        /* \"#utility.yul\":6845:6865   */\n      tag_116\n      jump\t// in\n    tag_209:\n        /* \"#utility.yul\":6840:6865   */\n      swap2\n      pop\n        /* \"#utility.yul\":6879:6899   */\n      tag_210\n        /* \"#utility.yul\":6897:6898   */\n      dup4\n        /* \"#utility.yul\":6879:6899   */\n      tag_116\n      jump\t// in\n    tag_210:\n        /* \"#utility.yul\":6874:6899   */\n      swap3\n      pop\n        /* \"#utility.yul\":7033:7034   */\n      dup3\n        /* \"#utility.yul\":6965:7031   */\n      0xffffffffffffffffffffffffffffffffffffffffffffffffffffffffffffffff\n        /* \"#utility.yul\":6961:7035   */\n      sub\n        /* \"#utility.yul\":6958:6959   */\n      dup3\n        /* \"#utility.yul\":6955:7036   */\n      gt\n        /* \"#utility.yul\":6952:7059   */\n      iszero\n      tag_211\n      jumpi\n        /* \"#utility.yul\":7039:7057   */\n      tag_212\n      tag_124\n      jump\t// in\n    tag_212:\n        /* \"#utility.yul\":6952:7059   */\n    tag_211:\n        /* \"#utility.yul\":7083:7084   */\n      dup3\n        /* \"#utility.yul\":7080:7081   */\n      dup3\n        /* \"#utility.yul\":7076:7085   */\n      add\n        /* \"#utility.yul\":7069:7085   */\n      swap1\n      pop\n        /* \"#utility.yul\":6786:7091   */\n      swap3\n      swap2\n      pop\n      pop\n      jump\t// out\n        /* \"#utility.yul\":7097:7264   */\n    tag_125:\n        /* \"#utility.yul\":7237:7256   */\n      0x796f7520417265204e6f74204f776e6572000000000000000000000000000000\n        /* \"#utility.yul\":7233:7234   */\n      0x00\n        /* \"#utility.yul\":7225:7231   */\n      dup3\n        /* \"#utility.yul\":7221:7235   */\n      add\n        /* \"#utility.yul\":7214:7257   */\n      mstore\n        /* \"#utility.yul\":7097:7264   */\n      pop\n      jump\t// out\n        /* \"#utility.yul\":7270:7636   */\n    tag_126:\n        /* \"#utility.yul\":7412:7415   */\n      0x00\n        /* \"#utility.yul\":7433:7500   */\n      tag_215\n        /* \"#utility.yul\":7497:7499   */\n      0x11\n        /* \"#utility.yul\":7492:7495   */\n      dup4\n        /* \"#utility.yul\":7433:7500   */\n      tag_107\n      jump\t// in\n    tag_215:\n        /* \"#utility.yul\":7426:7500   */\n      swap2\n      pop\n        /* \"#utility.yul\":7509:7602   */\n      tag_216\n        /* \"#utility.yul\":7598:7601   */\n      dup3\n        /* \"#utility.yul\":7509:7602   */\n      tag_125\n      jump\t// in\n    tag_216:\n        /* \"#utility.yul\":7627:7629   */\n      0x20\n        /* \"#utility.yul\":7622:7625   */\n      dup3\n        /* \"#utility.yul\":7618:7630   */\n      add\n        /* \"#utility.yul\":7611:7630   */\n      swap1\n      pop\n        /* \"#utility.yul\":7270:7636   */\n      swap2\n      swap1\n      pop\n      jump\t// out\n        /* \"#utility.yul\":7642:8061   */\n    tag_89:\n        /* \"#utility.yul\":7808:7812   */\n      0x00\n        /* \"#utility.yul\":7846:7848   */\n      0x20\n        /* \"#utility.yul\":7835:7844   */\n      dup3\n        /* \"#utility.yul\":7831:7849   */\n      add\n        /* \"#utility.yul\":7823:7849   */\n      swap1\n      pop\n        /* \"#utility.yul\":7895:7904   */\n      dup2\n        /* \"#utility.yul\":7889:7893   */\n      dup2\n        /* \"#utility.yul\":7885:7905   */\n      sub\n        /* \"#utility.yul\":7881:7882   */\n      0x00\n        /* \"#utility.yul\":7870:7879   */\n      dup4\n        /* \"#utility.yul\":7866:7883   */\n      add\n        /* \"#utility.yul\":7859:7906   */\n      mstore\n        /* \"#utility.yul\":7923:8054   */\n      tag_218\n        /* \"#utility.yul\":8049:8053   */\n      dup2\n        /* \"#utility.yul\":7923:8054   */\n      tag_126\n      jump\t// in\n    tag_218:\n        /* \"#utility.yul\":7915:8054   */\n      swap1\n      pop\n        /* \"#utility.yul\":7642:8061   */\n      swap2\n      swap1\n      pop\n      jump\t// out\n\n    auxdata: 0xa2646970667358221220a40d27d078418b24af6fd5547ac88e1a05477a7aecabbbaca4273a08c999d35464736f6c634300080e0033\n}\n",
				"bytecode": {
					"linkReferences": {},
					"object": "6080604052336000806101000a81548173ffffffffffffffffffffffffffffffffffffffff021916908373ffffffffffffffffffffffffffffffffffffffff1602179055506103e860035534801561005657600080fd5b50600354600160008060009054906101000a900473ffffffffffffffffffffffffffffffffffffffff1673ffffffffffffffffffffffffffffffffffffffff1673ffffffffffffffffffffffffffffffffffffffff16815260200190815260200160002081905550611382806100cd6000396000f3fe608060405234801561001057600080fd5b50600436106100cf5760003560e01c806370a082311161008c578063a9059cbb11610066578063a9059cbb14610216578063cfaaa26614610246578063dd62ed3e14610262578063f5ba02f914610292576100cf565b806370a08231146101ac57806395d89b41146101dc578063a0712d68146101fa576100cf565b8063019c08f5146100d457806306fdde03146100f2578063095ea7b31461011057806318160ddd1461014057806323b872dd1461015e578063313ce5671461018e575b600080fd5b6100dc6102b0565b6040516100e99190610f26565b60405180910390f35b6100fa6102d9565b6040516101079190610fda565b60405180910390f35b61012a60048036038101906101259190611063565b610312565b60405161013791906110be565b60405180910390f35b610148610445565b60405161015591906110e8565b60405180910390f35b61017860048036038101906101739190611103565b61044f565b60405161018591906110be565b60405180910390f35b61019661081d565b6040516101a39190611172565b60405180910390f35b6101c660048036038101906101c1919061118d565b610822565b6040516101d391906110e8565b60405180910390f35b6101e461086b565b6040516101f19190610fda565b60405180910390f35b610214600480360381019061020f91906111ba565b6108a4565b005b610230600480360381019061022b9190611063565b6109d0565b60405161023d91906110be565b60405180910390f35b610260600480360381019061025b919061118d565b610c2c565b005b61027c600480360381019061027791906111e7565b610e3a565b60405161028991906110e8565b60405180910390f35b61029a610ec1565b6040516102a79190610f26565b60405180910390f35b60008060009054906101000a900473ffffffffffffffffffffffffffffffffffffffff16905090565b6040518060400160405280600a81526020017f455243323042617369630000000000000000000000000000000000000000000081525081565b600081600260008060009054906101000a900473ffffffffffffffffffffffffffffffffffffffff1673ffffffffffffffffffffffffffffffffffffffff1673ffffffffffffffffffffffffffffffffffffffff16815260200190815260200160002060008573ffffffffffffffffffffffffffffffffffffffff1673ffffffffffffffffffffffffffffffffffffffff168152602001908152602001600020819055508273ffffffffffffffffffffffffffffffffffffffff1660008054906101000a900473ffffffffffffffffffffffffffffffffffffffff1673ffffffffffffffffffffffffffffffffffffffff167f8c5be1e5ebec7d5bd14f71427d1e84f3dd0314c0f7b2291e5b200ac8c7c3b9258460405161043391906110e8565b60405180910390a36001905092915050565b6000600354905090565b6000600160008573ffffffffffffffffffffffffffffffffffffffff1673ffffffffffffffffffffffffffffffffffffffff1681526020019081526020016000205482111561049d57600080fd5b600260008573ffffffffffffffffffffffffffffffffffffffff1673ffffffffffffffffffffffffffffffffffffffff16815260200190815260200160002060008060009054906101000a900473ffffffffffffffffffffffffffffffffffffffff1673ffffffffffffffffffffffffffffffffffffffff1673ffffffffffffffffffffffffffffffffffffffff1681526020019081526020016000205482111561054757600080fd5b81600160008673ffffffffffffffffffffffffffffffffffffffff1673ffffffffffffffffffffffffffffffffffffffff168152602001908152602001600020546105929190611256565b600160008673ffffffffffffffffffffffffffffffffffffffff1673ffffffffffffffffffffffffffffffffffffffff1681526020019081526020016000208190555081600260008673ffffffffffffffffffffffffffffffffffffffff1673ffffffffffffffffffffffffffffffffffffffff16815260200190815260200160002060008060009054906101000a900473ffffffffffffffffffffffffffffffffffffffff1673ffffffffffffffffffffffffffffffffffffffff1673ffffffffffffffffffffffffffffffffffffffff1681526020019081526020016000205461067e9190611256565b600260008673ffffffffffffffffffffffffffffffffffffffff1673ffffffffffffffffffffffffffffffffffffffff16815260200190815260200160002060008060009054906101000a900473ffffffffffffffffffffffffffffffffffffffff1673ffffffffffffffffffffffffffffffffffffffff1673ffffffffffffffffffffffffffffffffffffffff1681526020019081526020016000208190555081600160008573ffffffffffffffffffffffffffffffffffffffff1673ffffffffffffffffffffffffffffffffffffffff1681526020019081526020016000205461076a919061128a565b600160008573ffffffffffffffffffffffffffffffffffffffff1673ffffffffffffffffffffffffffffffffffffffff168152602001908152602001600020819055508273ffffffffffffffffffffffffffffffffffffffff168473ffffffffffffffffffffffffffffffffffffffff167fddf252ad1be2c89b69c2b068fc378daa952ba7f163c4a11628f55a4df523b3ef8460405161080a91906110e8565b60405180910390a3600190509392505050565b600081565b6000600160008373ffffffffffffffffffffffffffffffffffffffff1673ffffffffffffffffffffffffffffffffffffffff168152602001908152602001600020549050919050565b6040518060400160405280600381526020017f455243000000000000000000000000000000000000000000000000000000000081525081565b60008054906101000a900473ffffffffffffffffffffffffffffffffffffffff1673ffffffffffffffffffffffffffffffffffffffff1660008054906101000a900473ffffffffffffffffffffffffffffffffffffffff1673ffffffffffffffffffffffffffffffffffffffff1614610952576040517f08c379a00000000000000000000000000000000000000000000000000000000081526004016109499061132c565b60405180910390fd5b80600354610960919061128a565b600381905550600354600160008060009054906101000a900473ffffffffffffffffffffffffffffffffffffffff1673ffffffffffffffffffffffffffffffffffffffff1673ffffffffffffffffffffffffffffffffffffffff1681526020019081526020016000208190555050565b6000600160008060009054906101000a900473ffffffffffffffffffffffffffffffffffffffff1673ffffffffffffffffffffffffffffffffffffffff1673ffffffffffffffffffffffffffffffffffffffff16815260200190815260200160002054821115610a3f57600080fd5b81600160008060009054906101000a900473ffffffffffffffffffffffffffffffffffffffff1673ffffffffffffffffffffffffffffffffffffffff1673ffffffffffffffffffffffffffffffffffffffff16815260200190815260200160002054610aab9190611256565b600160008060009054906101000a900473ffffffffffffffffffffffffffffffffffffffff1673ffffffffffffffffffffffffffffffffffffffff1673ffffffffffffffffffffffffffffffffffffffff1681526020019081526020016000208190555081600160008573ffffffffffffffffffffffffffffffffffffffff1673ffffffffffffffffffffffffffffffffffffffff16815260200190815260200160002054610b5a919061128a565b600160008573ffffffffffffffffffffffffffffffffffffffff1673ffffffffffffffffffffffffffffffffffffffff168152602001908152602001600020819055508273ffffffffffffffffffffffffffffffffffffffff1660008054906101000a900473ffffffffffffffffffffffffffffffffffffffff1673ffffffffffffffffffffffffffffffffffffffff167fddf252ad1be2c89b69c2b068fc378daa952ba7f163c4a11628f55a4df523b3ef84604051610c1a91906110e8565b60405180910390a36001905092915050565b60008054906101000a900473ffffffffffffffffffffffffffffffffffffffff1673ffffffffffffffffffffffffffffffffffffffff1660008054906101000a900473ffffffffffffffffffffffffffffffffffffffff1673ffffffffffffffffffffffffffffffffffffffff1614610cda576040517f08c379a0000000000000000000000000000000000000000000000000000000008152600401610cd19061132c565b60405180910390fd5b60008060009054906101000a900473ffffffffffffffffffffffffffffffffffffffff169050816000806101000a81548173ffffffffffffffffffffffffffffffffffffffff021916908373ffffffffffffffffffffffffffffffffffffffff160217905550600160008273ffffffffffffffffffffffffffffffffffffffff1673ffffffffffffffffffffffffffffffffffffffff16815260200190815260200160002054600354610d8d919061128a565b600160008060009054906101000a900473ffffffffffffffffffffffffffffffffffffffff1673ffffffffffffffffffffffffffffffffffffffff1673ffffffffffffffffffffffffffffffffffffffff168152602001908152602001600020819055506000600160008373ffffffffffffffffffffffffffffffffffffffff1673ffffffffffffffffffffffffffffffffffffffff168152602001908152602001600020819055505050565b6000600260008473ffffffffffffffffffffffffffffffffffffffff1673ffffffffffffffffffffffffffffffffffffffff16815260200190815260200160002060008373ffffffffffffffffffffffffffffffffffffffff1673ffffffffffffffffffffffffffffffffffffffff16815260200190815260200160002054905092915050565b60008054906101000a900473ffffffffffffffffffffffffffffffffffffffff1681565b600073ffffffffffffffffffffffffffffffffffffffff82169050919050565b6000610f1082610ee5565b9050919050565b610f2081610f05565b82525050565b6000602082019050610f3b6000830184610f17565b92915050565b600081519050919050565b600082825260208201905092915050565b60005b83811015610f7b578082015181840152602081019050610f60565b83811115610f8a576000848401525b50505050565b6000601f19601f8301169050919050565b6000610fac82610f41565b610fb68185610f4c565b9350610fc6818560208601610f5d565b610fcf81610f90565b840191505092915050565b60006020820190508181036000830152610ff48184610fa1565b905092915050565b600080fd5b61100a81610f05565b811461101557600080fd5b50565b60008135905061102781611001565b92915050565b6000819050919050565b6110408161102d565b811461104b57600080fd5b50565b60008135905061105d81611037565b92915050565b6000806040838503121561107a57611079610ffc565b5b600061108885828601611018565b92505060206110998582860161104e565b9150509250929050565b60008115159050919050565b6110b8816110a3565b82525050565b60006020820190506110d360008301846110af565b92915050565b6110e28161102d565b82525050565b60006020820190506110fd60008301846110d9565b92915050565b60008060006060848603121561111c5761111b610ffc565b5b600061112a86828701611018565b935050602061113b86828701611018565b925050604061114c8682870161104e565b9150509250925092565b600060ff82169050919050565b61116c81611156565b82525050565b60006020820190506111876000830184611163565b92915050565b6000602082840312156111a3576111a2610ffc565b5b60006111b184828501611018565b91505092915050565b6000602082840312156111d0576111cf610ffc565b5b60006111de8482850161104e565b91505092915050565b600080604083850312156111fe576111fd610ffc565b5b600061120c85828601611018565b925050602061121d85828601611018565b9150509250929050565b7f4e487b7100000000000000000000000000000000000000000000000000000000600052601160045260246000fd5b60006112618261102d565b915061126c8361102d565b92508282101561127f5761127e611227565b5b828203905092915050565b60006112958261102d565b91506112a08361102d565b9250827fffffffffffffffffffffffffffffffffffffffffffffffffffffffffffffffff038211156112d5576112d4611227565b5b828201905092915050565b7f796f7520417265204e6f74204f776e6572000000000000000000000000000000600082015250565b6000611316601183610f4c565b9150611321826112e0565b602082019050919050565b6000602082019050818103600083015261134581611309565b905091905056fea2646970667358221220a40d27d078418b24af6fd5547ac88e1a05477a7aecabbbaca4273a08c999d35464736f6c634300080e0033",
					"opcodes": "PUSH1 0x80 PUSH1 0x40 MSTORE CALLER PUSH1 0x0 DUP1 PUSH2 0x100 EXP DUP2 SLOAD DUP2 PUSH20 0xFFFFFFFFFFFFFFFFFFFFFFFFFFFFFFFFFFFFFFFF MUL NOT AND SWAP1 DUP4 PUSH20 0xFFFFFFFFFFFFFFFFFFFFFFFFFFFFFFFFFFFFFFFF AND MUL OR SWAP1 SSTORE POP PUSH2 0x3E8 PUSH1 0x3 SSTORE CALLVALUE DUP1 ISZERO PUSH2 0x56 JUMPI PUSH1 0x0 DUP1 REVERT JUMPDEST POP PUSH1 0x3 SLOAD PUSH1 0x1 PUSH1 0x0 DUP1 PUSH1 0x0 SWAP1 SLOAD SWAP1 PUSH2 0x100 EXP SWAP1 DIV PUSH20 0xFFFFFFFFFFFFFFFFFFFFFFFFFFFFFFFFFFFFFFFF AND PUSH20 0xFFFFFFFFFFFFFFFFFFFFFFFFFFFFFFFFFFFFFFFF AND PUSH20 0xFFFFFFFFFFFFFFFFFFFFFFFFFFFFFFFFFFFFFFFF AND DUP2 MSTORE PUSH1 0x20 ADD SWAP1 DUP2 MSTORE PUSH1 0x20 ADD PUSH1 0x0 KECCAK256 DUP2 SWAP1 SSTORE POP PUSH2 0x1382 DUP1 PUSH2 0xCD PUSH1 0x0 CODECOPY PUSH1 0x0 RETURN INVALID PUSH1 0x80 PUSH1 0x40 MSTORE CALLVALUE DUP1 ISZERO PUSH2 0x10 JUMPI PUSH1 0x0 DUP1 REVERT JUMPDEST POP PUSH1 0x4 CALLDATASIZE LT PUSH2 0xCF JUMPI PUSH1 0x0 CALLDATALOAD PUSH1 0xE0 SHR DUP1 PUSH4 0x70A08231 GT PUSH2 0x8C JUMPI DUP1 PUSH4 0xA9059CBB GT PUSH2 0x66 JUMPI DUP1 PUSH4 0xA9059CBB EQ PUSH2 0x216 JUMPI DUP1 PUSH4 0xCFAAA266 EQ PUSH2 0x246 JUMPI DUP1 PUSH4 0xDD62ED3E EQ PUSH2 0x262 JUMPI DUP1 PUSH4 0xF5BA02F9 EQ PUSH2 0x292 JUMPI PUSH2 0xCF JUMP JUMPDEST DUP1 PUSH4 0x70A08231 EQ PUSH2 0x1AC JUMPI DUP1 PUSH4 0x95D89B41 EQ PUSH2 0x1DC JUMPI DUP1 PUSH4 0xA0712D68 EQ PUSH2 0x1FA JUMPI PUSH2 0xCF JUMP JUMPDEST DUP1 PUSH4 0x19C08F5 EQ PUSH2 0xD4 JUMPI DUP1 PUSH4 0x6FDDE03 EQ PUSH2 0xF2 JUMPI DUP1 PUSH4 0x95EA7B3 EQ PUSH2 0x110 JUMPI DUP1 PUSH4 0x18160DDD EQ PUSH2 0x140 JUMPI DUP1 PUSH4 0x23B872DD EQ PUSH2 0x15E JUMPI DUP1 PUSH4 0x313CE567 EQ PUSH2 0x18E JUMPI JUMPDEST PUSH1 0x0 DUP1 REVERT JUMPDEST PUSH2 0xDC PUSH2 0x2B0 JUMP JUMPDEST PUSH1 0x40 MLOAD PUSH2 0xE9 SWAP2 SWAP1 PUSH2 0xF26 JUMP JUMPDEST PUSH1 0x40 MLOAD DUP1 SWAP2 SUB SWAP1 RETURN JUMPDEST PUSH2 0xFA PUSH2 0x2D9 JUMP JUMPDEST PUSH1 0x40 MLOAD PUSH2 0x107 SWAP2 SWAP1 PUSH2 0xFDA JUMP JUMPDEST PUSH1 0x40 MLOAD DUP1 SWAP2 SUB SWAP1 RETURN JUMPDEST PUSH2 0x12A PUSH1 0x4 DUP1 CALLDATASIZE SUB DUP2 ADD SWAP1 PUSH2 0x125 SWAP2 SWAP1 PUSH2 0x1063 JUMP JUMPDEST PUSH2 0x312 JUMP JUMPDEST PUSH1 0x40 MLOAD PUSH2 0x137 SWAP2 SWAP1 PUSH2 0x10BE JUMP JUMPDEST PUSH1 0x40 MLOAD DUP1 SWAP2 SUB SWAP1 RETURN JUMPDEST PUSH2 0x148 PUSH2 0x445 JUMP JUMPDEST PUSH1 0x40 MLOAD PUSH2 0x155 SWAP2 SWAP1 PUSH2 0x10E8 JUMP JUMPDEST PUSH1 0x40 MLOAD DUP1 SWAP2 SUB SWAP1 RETURN JUMPDEST PUSH2 0x178 PUSH1 0x4 DUP1 CALLDATASIZE SUB DUP2 ADD SWAP1 PUSH2 0x173 SWAP2 SWAP1 PUSH2 0x1103 JUMP JUMPDEST PUSH2 0x44F JUMP JUMPDEST PUSH1 0x40 MLOAD PUSH2 0x185 SWAP2 SWAP1 PUSH2 0x10BE JUMP JUMPDEST PUSH1 0x40 MLOAD DUP1 SWAP2 SUB SWAP1 RETURN JUMPDEST PUSH2 0x196 PUSH2 0x81D JUMP JUMPDEST PUSH1 0x40 MLOAD PUSH2 0x1A3 SWAP2 SWAP1 PUSH2 0x1172 JUMP JUMPDEST PUSH1 0x40 MLOAD DUP1 SWAP2 SUB SWAP1 RETURN JUMPDEST PUSH2 0x1C6 PUSH1 0x4 DUP1 CALLDATASIZE SUB DUP2 ADD SWAP1 PUSH2 0x1C1 SWAP2 SWAP1 PUSH2 0x118D JUMP JUMPDEST PUSH2 0x822 JUMP JUMPDEST PUSH1 0x40 MLOAD PUSH2 0x1D3 SWAP2 SWAP1 PUSH2 0x10E8 JUMP JUMPDEST PUSH1 0x40 MLOAD DUP1 SWAP2 SUB SWAP1 RETURN JUMPDEST PUSH2 0x1E4 PUSH2 0x86B JUMP JUMPDEST PUSH1 0x40 MLOAD PUSH2 0x1F1 SWAP2 SWAP1 PUSH2 0xFDA JUMP JUMPDEST PUSH1 0x40 MLOAD DUP1 SWAP2 SUB SWAP1 RETURN JUMPDEST PUSH2 0x214 PUSH1 0x4 DUP1 CALLDATASIZE SUB DUP2 ADD SWAP1 PUSH2 0x20F SWAP2 SWAP1 PUSH2 0x11BA JUMP JUMPDEST PUSH2 0x8A4 JUMP JUMPDEST STOP JUMPDEST PUSH2 0x230 PUSH1 0x4 DUP1 CALLDATASIZE SUB DUP2 ADD SWAP1 PUSH2 0x22B SWAP2 SWAP1 PUSH2 0x1063 JUMP JUMPDEST PUSH2 0x9D0 JUMP JUMPDEST PUSH1 0x40 MLOAD PUSH2 0x23D SWAP2 SWAP1 PUSH2 0x10BE JUMP JUMPDEST PUSH1 0x40 MLOAD DUP1 SWAP2 SUB SWAP1 RETURN JUMPDEST PUSH2 0x260 PUSH1 0x4 DUP1 CALLDATASIZE SUB DUP2 ADD SWAP1 PUSH2 0x25B SWAP2 SWAP1 PUSH2 0x118D JUMP JUMPDEST PUSH2 0xC2C JUMP JUMPDEST STOP JUMPDEST PUSH2 0x27C PUSH1 0x4 DUP1 CALLDATASIZE SUB DUP2 ADD SWAP1 PUSH2 0x277 SWAP2 SWAP1 PUSH2 0x11E7 JUMP JUMPDEST PUSH2 0xE3A JUMP JUMPDEST PUSH1 0x40 MLOAD PUSH2 0x289 SWAP2 SWAP1 PUSH2 0x10E8 JUMP JUMPDEST PUSH1 0x40 MLOAD DUP1 SWAP2 SUB SWAP1 RETURN JUMPDEST PUSH2 0x29A PUSH2 0xEC1 JUMP JUMPDEST PUSH1 0x40 MLOAD PUSH2 0x2A7 SWAP2 SWAP1 PUSH2 0xF26 JUMP JUMPDEST PUSH1 0x40 MLOAD DUP1 SWAP2 SUB SWAP1 RETURN JUMPDEST PUSH1 0x0 DUP1 PUSH1 0x0 SWAP1 SLOAD SWAP1 PUSH2 0x100 EXP SWAP1 DIV PUSH20 0xFFFFFFFFFFFFFFFFFFFFFFFFFFFFFFFFFFFFFFFF AND SWAP1 POP SWAP1 JUMP JUMPDEST PUSH1 0x40 MLOAD DUP1 PUSH1 0x40 ADD PUSH1 0x40 MSTORE DUP1 PUSH1 0xA DUP2 MSTORE PUSH1 0x20 ADD PUSH32 0x4552433230426173696300000000000000000000000000000000000000000000 DUP2 MSTORE POP DUP2 JUMP JUMPDEST PUSH1 0x0 DUP2 PUSH1 0x2 PUSH1 0x0 DUP1 PUSH1 0x0 SWAP1 SLOAD SWAP1 PUSH2 0x100 EXP SWAP1 DIV PUSH20 0xFFFFFFFFFFFFFFFFFFFFFFFFFFFFFFFFFFFFFFFF AND PUSH20 0xFFFFFFFFFFFFFFFFFFFFFFFFFFFFFFFFFFFFFFFF AND PUSH20 0xFFFFFFFFFFFFFFFFFFFFFFFFFFFFFFFFFFFFFFFF AND DUP2 MSTORE PUSH1 0x20 ADD SWAP1 DUP2 MSTORE PUSH1 0x20 ADD PUSH1 0x0 KECCAK256 PUSH1 0x0 DUP6 PUSH20 0xFFFFFFFFFFFFFFFFFFFFFFFFFFFFFFFFFFFFFFFF AND PUSH20 0xFFFFFFFFFFFFFFFFFFFFFFFFFFFFFFFFFFFFFFFF AND DUP2 MSTORE PUSH1 0x20 ADD SWAP1 DUP2 MSTORE PUSH1 0x20 ADD PUSH1 0x0 KECCAK256 DUP2 SWAP1 SSTORE POP DUP3 PUSH20 0xFFFFFFFFFFFFFFFFFFFFFFFFFFFFFFFFFFFFFFFF AND PUSH1 0x0 DUP1 SLOAD SWAP1 PUSH2 0x100 EXP SWAP1 DIV PUSH20 0xFFFFFFFFFFFFFFFFFFFFFFFFFFFFFFFFFFFFFFFF AND PUSH20 0xFFFFFFFFFFFFFFFFFFFFFFFFFFFFFFFFFFFFFFFF AND PUSH32 0x8C5BE1E5EBEC7D5BD14F71427D1E84F3DD0314C0F7B2291E5B200AC8C7C3B925 DUP5 PUSH1 0x40 MLOAD PUSH2 0x433 SWAP2 SWAP1 PUSH2 0x10E8 JUMP JUMPDEST PUSH1 0x40 MLOAD DUP1 SWAP2 SUB SWAP1 LOG3 PUSH1 0x1 SWAP1 POP SWAP3 SWAP2 POP POP JUMP JUMPDEST PUSH1 0x0 PUSH1 0x3 SLOAD SWAP1 POP SWAP1 JUMP JUMPDEST PUSH1 0x0 PUSH1 0x1 PUSH1 0x0 DUP6 PUSH20 0xFFFFFFFFFFFFFFFFFFFFFFFFFFFFFFFFFFFFFFFF AND PUSH20 0xFFFFFFFFFFFFFFFFFFFFFFFFFFFFFFFFFFFFFFFF AND DUP2 MSTORE PUSH1 0x20 ADD SWAP1 DUP2 MSTORE PUSH1 0x20 ADD PUSH1 0x0 KECCAK256 SLOAD DUP3 GT ISZERO PUSH2 0x49D JUMPI PUSH1 0x0 DUP1 REVERT JUMPDEST PUSH1 0x2 PUSH1 0x0 DUP6 PUSH20 0xFFFFFFFFFFFFFFFFFFFFFFFFFFFFFFFFFFFFFFFF AND PUSH20 0xFFFFFFFFFFFFFFFFFFFFFFFFFFFFFFFFFFFFFFFF AND DUP2 MSTORE PUSH1 0x20 ADD SWAP1 DUP2 MSTORE PUSH1 0x20 ADD PUSH1 0x0 KECCAK256 PUSH1 0x0 DUP1 PUSH1 0x0 SWAP1 SLOAD SWAP1 PUSH2 0x100 EXP SWAP1 DIV PUSH20 0xFFFFFFFFFFFFFFFFFFFFFFFFFFFFFFFFFFFFFFFF AND PUSH20 0xFFFFFFFFFFFFFFFFFFFFFFFFFFFFFFFFFFFFFFFF AND PUSH20 0xFFFFFFFFFFFFFFFFFFFFFFFFFFFFFFFFFFFFFFFF AND DUP2 MSTORE PUSH1 0x20 ADD SWAP1 DUP2 MSTORE PUSH1 0x20 ADD PUSH1 0x0 KECCAK256 SLOAD DUP3 GT ISZERO PUSH2 0x547 JUMPI PUSH1 0x0 DUP1 REVERT JUMPDEST DUP2 PUSH1 0x1 PUSH1 0x0 DUP7 PUSH20 0xFFFFFFFFFFFFFFFFFFFFFFFFFFFFFFFFFFFFFFFF AND PUSH20 0xFFFFFFFFFFFFFFFFFFFFFFFFFFFFFFFFFFFFFFFF AND DUP2 MSTORE PUSH1 0x20 ADD SWAP1 DUP2 MSTORE PUSH1 0x20 ADD PUSH1 0x0 KECCAK256 SLOAD PUSH2 0x592 SWAP2 SWAP1 PUSH2 0x1256 JUMP JUMPDEST PUSH1 0x1 PUSH1 0x0 DUP7 PUSH20 0xFFFFFFFFFFFFFFFFFFFFFFFFFFFFFFFFFFFFFFFF AND PUSH20 0xFFFFFFFFFFFFFFFFFFFFFFFFFFFFFFFFFFFFFFFF AND DUP2 MSTORE PUSH1 0x20 ADD SWAP1 DUP2 MSTORE PUSH1 0x20 ADD PUSH1 0x0 KECCAK256 DUP2 SWAP1 SSTORE POP DUP2 PUSH1 0x2 PUSH1 0x0 DUP7 PUSH20 0xFFFFFFFFFFFFFFFFFFFFFFFFFFFFFFFFFFFFFFFF AND PUSH20 0xFFFFFFFFFFFFFFFFFFFFFFFFFFFFFFFFFFFFFFFF AND DUP2 MSTORE PUSH1 0x20 ADD SWAP1 DUP2 MSTORE PUSH1 0x20 ADD PUSH1 0x0 KECCAK256 PUSH1 0x0 DUP1 PUSH1 0x0 SWAP1 SLOAD SWAP1 PUSH2 0x100 EXP SWAP1 DIV PUSH20 0xFFFFFFFFFFFFFFFFFFFFFFFFFFFFFFFFFFFFFFFF AND PUSH20 0xFFFFFFFFFFFFFFFFFFFFFFFFFFFFFFFFFFFFFFFF AND PUSH20 0xFFFFFFFFFFFFFFFFFFFFFFFFFFFFFFFFFFFFFFFF AND DUP2 MSTORE PUSH1 0x20 ADD SWAP1 DUP2 MSTORE PUSH1 0x20 ADD PUSH1 0x0 KECCAK256 SLOAD PUSH2 0x67E SWAP2 SWAP1 PUSH2 0x1256 JUMP JUMPDEST PUSH1 0x2 PUSH1 0x0 DUP7 PUSH20 0xFFFFFFFFFFFFFFFFFFFFFFFFFFFFFFFFFFFFFFFF AND PUSH20 0xFFFFFFFFFFFFFFFFFFFFFFFFFFFFFFFFFFFFFFFF AND DUP2 MSTORE PUSH1 0x20 ADD SWAP1 DUP2 MSTORE PUSH1 0x20 ADD PUSH1 0x0 KECCAK256 PUSH1 0x0 DUP1 PUSH1 0x0 SWAP1 SLOAD SWAP1 PUSH2 0x100 EXP SWAP1 DIV PUSH20 0xFFFFFFFFFFFFFFFFFFFFFFFFFFFFFFFFFFFFFFFF AND PUSH20 0xFFFFFFFFFFFFFFFFFFFFFFFFFFFFFFFFFFFFFFFF AND PUSH20 0xFFFFFFFFFFFFFFFFFFFFFFFFFFFFFFFFFFFFFFFF AND DUP2 MSTORE PUSH1 0x20 ADD SWAP1 DUP2 MSTORE PUSH1 0x20 ADD PUSH1 0x0 KECCAK256 DUP2 SWAP1 SSTORE POP DUP2 PUSH1 0x1 PUSH1 0x0 DUP6 PUSH20 0xFFFFFFFFFFFFFFFFFFFFFFFFFFFFFFFFFFFFFFFF AND PUSH20 0xFFFFFFFFFFFFFFFFFFFFFFFFFFFFFFFFFFFFFFFF AND DUP2 MSTORE PUSH1 0x20 ADD SWAP1 DUP2 MSTORE PUSH1 0x20 ADD PUSH1 0x0 KECCAK256 SLOAD PUSH2 0x76A SWAP2 SWAP1 PUSH2 0x128A JUMP JUMPDEST PUSH1 0x1 PUSH1 0x0 DUP6 PUSH20 0xFFFFFFFFFFFFFFFFFFFFFFFFFFFFFFFFFFFFFFFF AND PUSH20 0xFFFFFFFFFFFFFFFFFFFFFFFFFFFFFFFFFFFFFFFF AND DUP2 MSTORE PUSH1 0x20 ADD SWAP1 DUP2 MSTORE PUSH1 0x20 ADD PUSH1 0x0 KECCAK256 DUP2 SWAP1 SSTORE POP DUP3 PUSH20 0xFFFFFFFFFFFFFFFFFFFFFFFFFFFFFFFFFFFFFFFF AND DUP5 PUSH20 0xFFFFFFFFFFFFFFFFFFFFFFFFFFFFFFFFFFFFFFFF AND PUSH32 0xDDF252AD1BE2C89B69C2B068FC378DAA952BA7F163C4A11628F55A4DF523B3EF DUP5 PUSH1 0x40 MLOAD PUSH2 0x80A SWAP2 SWAP1 PUSH2 0x10E8 JUMP JUMPDEST PUSH1 0x40 MLOAD DUP1 SWAP2 SUB SWAP1 LOG3 PUSH1 0x1 SWAP1 POP SWAP4 SWAP3 POP POP POP JUMP JUMPDEST PUSH1 0x0 DUP2 JUMP JUMPDEST PUSH1 0x0 PUSH1 0x1 PUSH1 0x0 DUP4 PUSH20 0xFFFFFFFFFFFFFFFFFFFFFFFFFFFFFFFFFFFFFFFF AND PUSH20 0xFFFFFFFFFFFFFFFFFFFFFFFFFFFFFFFFFFFFFFFF AND DUP2 MSTORE PUSH1 0x20 ADD SWAP1 DUP2 MSTORE PUSH1 0x20 ADD PUSH1 0x0 KECCAK256 SLOAD SWAP1 POP SWAP2 SWAP1 POP JUMP JUMPDEST PUSH1 0x40 MLOAD DUP1 PUSH1 0x40 ADD PUSH1 0x40 MSTORE DUP1 PUSH1 0x3 DUP2 MSTORE PUSH1 0x20 ADD PUSH32 0x4552430000000000000000000000000000000000000000000000000000000000 DUP2 MSTORE POP DUP2 JUMP JUMPDEST PUSH1 0x0 DUP1 SLOAD SWAP1 PUSH2 0x100 EXP SWAP1 DIV PUSH20 0xFFFFFFFFFFFFFFFFFFFFFFFFFFFFFFFFFFFFFFFF AND PUSH20 0xFFFFFFFFFFFFFFFFFFFFFFFFFFFFFFFFFFFFFFFF AND PUSH1 0x0 DUP1 SLOAD SWAP1 PUSH2 0x100 EXP SWAP1 DIV PUSH20 0xFFFFFFFFFFFFFFFFFFFFFFFFFFFFFFFFFFFFFFFF AND PUSH20 0xFFFFFFFFFFFFFFFFFFFFFFFFFFFFFFFFFFFFFFFF AND EQ PUSH2 0x952 JUMPI PUSH1 0x40 MLOAD PUSH32 0x8C379A000000000000000000000000000000000000000000000000000000000 DUP2 MSTORE PUSH1 0x4 ADD PUSH2 0x949 SWAP1 PUSH2 0x132C JUMP JUMPDEST PUSH1 0x40 MLOAD DUP1 SWAP2 SUB SWAP1 REVERT JUMPDEST DUP1 PUSH1 0x3 SLOAD PUSH2 0x960 SWAP2 SWAP1 PUSH2 0x128A JUMP JUMPDEST PUSH1 0x3 DUP2 SWAP1 SSTORE POP PUSH1 0x3 SLOAD PUSH1 0x1 PUSH1 0x0 DUP1 PUSH1 0x0 SWAP1 SLOAD SWAP1 PUSH2 0x100 EXP SWAP1 DIV PUSH20 0xFFFFFFFFFFFFFFFFFFFFFFFFFFFFFFFFFFFFFFFF AND PUSH20 0xFFFFFFFFFFFFFFFFFFFFFFFFFFFFFFFFFFFFFFFF AND PUSH20 0xFFFFFFFFFFFFFFFFFFFFFFFFFFFFFFFFFFFFFFFF AND DUP2 MSTORE PUSH1 0x20 ADD SWAP1 DUP2 MSTORE PUSH1 0x20 ADD PUSH1 0x0 KECCAK256 DUP2 SWAP1 SSTORE POP POP JUMP JUMPDEST PUSH1 0x0 PUSH1 0x1 PUSH1 0x0 DUP1 PUSH1 0x0 SWAP1 SLOAD SWAP1 PUSH2 0x100 EXP SWAP1 DIV PUSH20 0xFFFFFFFFFFFFFFFFFFFFFFFFFFFFFFFFFFFFFFFF AND PUSH20 0xFFFFFFFFFFFFFFFFFFFFFFFFFFFFFFFFFFFFFFFF AND PUSH20 0xFFFFFFFFFFFFFFFFFFFFFFFFFFFFFFFFFFFFFFFF AND DUP2 MSTORE PUSH1 0x20 ADD SWAP1 DUP2 MSTORE PUSH1 0x20 ADD PUSH1 0x0 KECCAK256 SLOAD DUP3 GT ISZERO PUSH2 0xA3F JUMPI PUSH1 0x0 DUP1 REVERT JUMPDEST DUP2 PUSH1 0x1 PUSH1 0x0 DUP1 PUSH1 0x0 SWAP1 SLOAD SWAP1 PUSH2 0x100 EXP SWAP1 DIV PUSH20 0xFFFFFFFFFFFFFFFFFFFFFFFFFFFFFFFFFFFFFFFF AND PUSH20 0xFFFFFFFFFFFFFFFFFFFFFFFFFFFFFFFFFFFFFFFF AND PUSH20 0xFFFFFFFFFFFFFFFFFFFFFFFFFFFFFFFFFFFFFFFF AND DUP2 MSTORE PUSH1 0x20 ADD SWAP1 DUP2 MSTORE PUSH1 0x20 ADD PUSH1 0x0 KECCAK256 SLOAD PUSH2 0xAAB SWAP2 SWAP1 PUSH2 0x1256 JUMP JUMPDEST PUSH1 0x1 PUSH1 0x0 DUP1 PUSH1 0x0 SWAP1 SLOAD SWAP1 PUSH2 0x100 EXP SWAP1 DIV PUSH20 0xFFFFFFFFFFFFFFFFFFFFFFFFFFFFFFFFFFFFFFFF AND PUSH20 0xFFFFFFFFFFFFFFFFFFFFFFFFFFFFFFFFFFFFFFFF AND PUSH20 0xFFFFFFFFFFFFFFFFFFFFFFFFFFFFFFFFFFFFFFFF AND DUP2 MSTORE PUSH1 0x20 ADD SWAP1 DUP2 MSTORE PUSH1 0x20 ADD PUSH1 0x0 KECCAK256 DUP2 SWAP1 SSTORE POP DUP2 PUSH1 0x1 PUSH1 0x0 DUP6 PUSH20 0xFFFFFFFFFFFFFFFFFFFFFFFFFFFFFFFFFFFFFFFF AND PUSH20 0xFFFFFFFFFFFFFFFFFFFFFFFFFFFFFFFFFFFFFFFF AND DUP2 MSTORE PUSH1 0x20 ADD SWAP1 DUP2 MSTORE PUSH1 0x20 ADD PUSH1 0x0 KECCAK256 SLOAD PUSH2 0xB5A SWAP2 SWAP1 PUSH2 0x128A JUMP JUMPDEST PUSH1 0x1 PUSH1 0x0 DUP6 PUSH20 0xFFFFFFFFFFFFFFFFFFFFFFFFFFFFFFFFFFFFFFFF AND PUSH20 0xFFFFFFFFFFFFFFFFFFFFFFFFFFFFFFFFFFFFFFFF AND DUP2 MSTORE PUSH1 0x20 ADD SWAP1 DUP2 MSTORE PUSH1 0x20 ADD PUSH1 0x0 KECCAK256 DUP2 SWAP1 SSTORE POP DUP3 PUSH20 0xFFFFFFFFFFFFFFFFFFFFFFFFFFFFFFFFFFFFFFFF AND PUSH1 0x0 DUP1 SLOAD SWAP1 PUSH2 0x100 EXP SWAP1 DIV PUSH20 0xFFFFFFFFFFFFFFFFFFFFFFFFFFFFFFFFFFFFFFFF AND PUSH20 0xFFFFFFFFFFFFFFFFFFFFFFFFFFFFFFFFFFFFFFFF AND PUSH32 0xDDF252AD1BE2C89B69C2B068FC378DAA952BA7F163C4A11628F55A4DF523B3EF DUP5 PUSH1 0x40 MLOAD PUSH2 0xC1A SWAP2 SWAP1 PUSH2 0x10E8 JUMP JUMPDEST PUSH1 0x40 MLOAD DUP1 SWAP2 SUB SWAP1 LOG3 PUSH1 0x1 SWAP1 POP SWAP3 SWAP2 POP POP JUMP JUMPDEST PUSH1 0x0 DUP1 SLOAD SWAP1 PUSH2 0x100 EXP SWAP1 DIV PUSH20 0xFFFFFFFFFFFFFFFFFFFFFFFFFFFFFFFFFFFFFFFF AND PUSH20 0xFFFFFFFFFFFFFFFFFFFFFFFFFFFFFFFFFFFFFFFF AND PUSH1 0x0 DUP1 SLOAD SWAP1 PUSH2 0x100 EXP SWAP1 DIV PUSH20 0xFFFFFFFFFFFFFFFFFFFFFFFFFFFFFFFFFFFFFFFF AND PUSH20 0xFFFFFFFFFFFFFFFFFFFFFFFFFFFFFFFFFFFFFFFF AND EQ PUSH2 0xCDA JUMPI PUSH1 0x40 MLOAD PUSH32 0x8C379A000000000000000000000000000000000000000000000000000000000 DUP2 MSTORE PUSH1 0x4 ADD PUSH2 0xCD1 SWAP1 PUSH2 0x132C JUMP JUMPDEST PUSH1 0x40 MLOAD DUP1 SWAP2 SUB SWAP1 REVERT JUMPDEST PUSH1 0x0 DUP1 PUSH1 0x0 SWAP1 SLOAD SWAP1 PUSH2 0x100 EXP SWAP1 DIV PUSH20 0xFFFFFFFFFFFFFFFFFFFFFFFFFFFFFFFFFFFFFFFF AND SWAP1 POP DUP2 PUSH1 0x0 DUP1 PUSH2 0x100 EXP DUP2 SLOAD DUP2 PUSH20 0xFFFFFFFFFFFFFFFFFFFFFFFFFFFFFFFFFFFFFFFF MUL NOT AND SWAP1 DUP4 PUSH20 0xFFFFFFFFFFFFFFFFFFFFFFFFFFFFFFFFFFFFFFFF AND MUL OR SWAP1 SSTORE POP PUSH1 0x1 PUSH1 0x0 DUP3 PUSH20 0xFFFFFFFFFFFFFFFFFFFFFFFFFFFFFFFFFFFFFFFF AND PUSH20 0xFFFFFFFFFFFFFFFFFFFFFFFFFFFFFFFFFFFFFFFF AND DUP2 MSTORE PUSH1 0x20 ADD SWAP1 DUP2 MSTORE PUSH1 0x20 ADD PUSH1 0x0 KECCAK256 SLOAD PUSH1 0x3 SLOAD PUSH2 0xD8D SWAP2 SWAP1 PUSH2 0x128A JUMP JUMPDEST PUSH1 0x1 PUSH1 0x0 DUP1 PUSH1 0x0 SWAP1 SLOAD SWAP1 PUSH2 0x100 EXP SWAP1 DIV PUSH20 0xFFFFFFFFFFFFFFFFFFFFFFFFFFFFFFFFFFFFFFFF AND PUSH20 0xFFFFFFFFFFFFFFFFFFFFFFFFFFFFFFFFFFFFFFFF AND PUSH20 0xFFFFFFFFFFFFFFFFFFFFFFFFFFFFFFFFFFFFFFFF AND DUP2 MSTORE PUSH1 0x20 ADD SWAP1 DUP2 MSTORE PUSH1 0x20 ADD PUSH1 0x0 KECCAK256 DUP2 SWAP1 SSTORE POP PUSH1 0x0 PUSH1 0x1 PUSH1 0x0 DUP4 PUSH20 0xFFFFFFFFFFFFFFFFFFFFFFFFFFFFFFFFFFFFFFFF AND PUSH20 0xFFFFFFFFFFFFFFFFFFFFFFFFFFFFFFFFFFFFFFFF AND DUP2 MSTORE PUSH1 0x20 ADD SWAP1 DUP2 MSTORE PUSH1 0x20 ADD PUSH1 0x0 KECCAK256 DUP2 SWAP1 SSTORE POP POP POP JUMP JUMPDEST PUSH1 0x0 PUSH1 0x2 PUSH1 0x0 DUP5 PUSH20 0xFFFFFFFFFFFFFFFFFFFFFFFFFFFFFFFFFFFFFFFF AND PUSH20 0xFFFFFFFFFFFFFFFFFFFFFFFFFFFFFFFFFFFFFFFF AND DUP2 MSTORE PUSH1 0x20 ADD SWAP1 DUP2 MSTORE PUSH1 0x20 ADD PUSH1 0x0 KECCAK256 PUSH1 0x0 DUP4 PUSH20 0xFFFFFFFFFFFFFFFFFFFFFFFFFFFFFFFFFFFFFFFF AND PUSH20 0xFFFFFFFFFFFFFFFFFFFFFFFFFFFFFFFFFFFFFFFF AND DUP2 MSTORE PUSH1 0x20 ADD SWAP1 DUP2 MSTORE PUSH1 0x20 ADD PUSH1 0x0 KECCAK256 SLOAD SWAP1 POP SWAP3 SWAP2 POP POP JUMP JUMPDEST PUSH1 0x0 DUP1 SLOAD SWAP1 PUSH2 0x100 EXP SWAP1 DIV PUSH20 0xFFFFFFFFFFFFFFFFFFFFFFFFFFFFFFFFFFFFFFFF AND DUP2 JUMP JUMPDEST PUSH1 0x0 PUSH20 0xFFFFFFFFFFFFFFFFFFFFFFFFFFFFFFFFFFFFFFFF DUP3 AND SWAP1 POP SWAP2 SWAP1 POP JUMP JUMPDEST PUSH1 0x0 PUSH2 0xF10 DUP3 PUSH2 0xEE5 JUMP JUMPDEST SWAP1 POP SWAP2 SWAP1 POP JUMP JUMPDEST PUSH2 0xF20 DUP2 PUSH2 0xF05 JUMP JUMPDEST DUP3 MSTORE POP POP JUMP JUMPDEST PUSH1 0x0 PUSH1 0x20 DUP3 ADD SWAP1 POP PUSH2 0xF3B PUSH1 0x0 DUP4 ADD DUP5 PUSH2 0xF17 JUMP JUMPDEST SWAP3 SWAP2 POP POP JUMP JUMPDEST PUSH1 0x0 DUP2 MLOAD SWAP1 POP SWAP2 SWAP1 POP JUMP JUMPDEST PUSH1 0x0 DUP3 DUP3 MSTORE PUSH1 0x20 DUP3 ADD SWAP1 POP SWAP3 SWAP2 POP POP JUMP JUMPDEST PUSH1 0x0 JUMPDEST DUP4 DUP2 LT ISZERO PUSH2 0xF7B JUMPI DUP1 DUP3 ADD MLOAD DUP2 DUP5 ADD MSTORE PUSH1 0x20 DUP2 ADD SWAP1 POP PUSH2 0xF60 JUMP JUMPDEST DUP4 DUP2 GT ISZERO PUSH2 0xF8A JUMPI PUSH1 0x0 DUP5 DUP5 ADD MSTORE JUMPDEST POP POP POP POP JUMP JUMPDEST PUSH1 0x0 PUSH1 0x1F NOT PUSH1 0x1F DUP4 ADD AND SWAP1 POP SWAP2 SWAP1 POP JUMP JUMPDEST PUSH1 0x0 PUSH2 0xFAC DUP3 PUSH2 0xF41 JUMP JUMPDEST PUSH2 0xFB6 DUP2 DUP6 PUSH2 0xF4C JUMP JUMPDEST SWAP4 POP PUSH2 0xFC6 DUP2 DUP6 PUSH1 0x20 DUP7 ADD PUSH2 0xF5D JUMP JUMPDEST PUSH2 0xFCF DUP2 PUSH2 0xF90 JUMP JUMPDEST DUP5 ADD SWAP2 POP POP SWAP3 SWAP2 POP POP JUMP JUMPDEST PUSH1 0x0 PUSH1 0x20 DUP3 ADD SWAP1 POP DUP2 DUP2 SUB PUSH1 0x0 DUP4 ADD MSTORE PUSH2 0xFF4 DUP2 DUP5 PUSH2 0xFA1 JUMP JUMPDEST SWAP1 POP SWAP3 SWAP2 POP POP JUMP JUMPDEST PUSH1 0x0 DUP1 REVERT JUMPDEST PUSH2 0x100A DUP2 PUSH2 0xF05 JUMP JUMPDEST DUP2 EQ PUSH2 0x1015 JUMPI PUSH1 0x0 DUP1 REVERT JUMPDEST POP JUMP JUMPDEST PUSH1 0x0 DUP2 CALLDATALOAD SWAP1 POP PUSH2 0x1027 DUP2 PUSH2 0x1001 JUMP JUMPDEST SWAP3 SWAP2 POP POP JUMP JUMPDEST PUSH1 0x0 DUP2 SWAP1 POP SWAP2 SWAP1 POP JUMP JUMPDEST PUSH2 0x1040 DUP2 PUSH2 0x102D JUMP JUMPDEST DUP2 EQ PUSH2 0x104B JUMPI PUSH1 0x0 DUP1 REVERT JUMPDEST POP JUMP JUMPDEST PUSH1 0x0 DUP2 CALLDATALOAD SWAP1 POP PUSH2 0x105D DUP2 PUSH2 0x1037 JUMP JUMPDEST SWAP3 SWAP2 POP POP JUMP JUMPDEST PUSH1 0x0 DUP1 PUSH1 0x40 DUP4 DUP6 SUB SLT ISZERO PUSH2 0x107A JUMPI PUSH2 0x1079 PUSH2 0xFFC JUMP JUMPDEST JUMPDEST PUSH1 0x0 PUSH2 0x1088 DUP6 DUP3 DUP7 ADD PUSH2 0x1018 JUMP JUMPDEST SWAP3 POP POP PUSH1 0x20 PUSH2 0x1099 DUP6 DUP3 DUP7 ADD PUSH2 0x104E JUMP JUMPDEST SWAP2 POP POP SWAP3 POP SWAP3 SWAP1 POP JUMP JUMPDEST PUSH1 0x0 DUP2 ISZERO ISZERO SWAP1 POP SWAP2 SWAP1 POP JUMP JUMPDEST PUSH2 0x10B8 DUP2 PUSH2 0x10A3 JUMP JUMPDEST DUP3 MSTORE POP POP JUMP JUMPDEST PUSH1 0x0 PUSH1 0x20 DUP3 ADD SWAP1 POP PUSH2 0x10D3 PUSH1 0x0 DUP4 ADD DUP5 PUSH2 0x10AF JUMP JUMPDEST SWAP3 SWAP2 POP POP JUMP JUMPDEST PUSH2 0x10E2 DUP2 PUSH2 0x102D JUMP JUMPDEST DUP3 MSTORE POP POP JUMP JUMPDEST PUSH1 0x0 PUSH1 0x20 DUP3 ADD SWAP1 POP PUSH2 0x10FD PUSH1 0x0 DUP4 ADD DUP5 PUSH2 0x10D9 JUMP JUMPDEST SWAP3 SWAP2 POP POP JUMP JUMPDEST PUSH1 0x0 DUP1 PUSH1 0x0 PUSH1 0x60 DUP5 DUP7 SUB SLT ISZERO PUSH2 0x111C JUMPI PUSH2 0x111B PUSH2 0xFFC JUMP JUMPDEST JUMPDEST PUSH1 0x0 PUSH2 0x112A DUP7 DUP3 DUP8 ADD PUSH2 0x1018 JUMP JUMPDEST SWAP4 POP POP PUSH1 0x20 PUSH2 0x113B DUP7 DUP3 DUP8 ADD PUSH2 0x1018 JUMP JUMPDEST SWAP3 POP POP PUSH1 0x40 PUSH2 0x114C DUP7 DUP3 DUP8 ADD PUSH2 0x104E JUMP JUMPDEST SWAP2 POP POP SWAP3 POP SWAP3 POP SWAP3 JUMP JUMPDEST PUSH1 0x0 PUSH1 0xFF DUP3 AND SWAP1 POP SWAP2 SWAP1 POP JUMP JUMPDEST PUSH2 0x116C DUP2 PUSH2 0x1156 JUMP JUMPDEST DUP3 MSTORE POP POP JUMP JUMPDEST PUSH1 0x0 PUSH1 0x20 DUP3 ADD SWAP1 POP PUSH2 0x1187 PUSH1 0x0 DUP4 ADD DUP5 PUSH2 0x1163 JUMP JUMPDEST SWAP3 SWAP2 POP POP JUMP JUMPDEST PUSH1 0x0 PUSH1 0x20 DUP3 DUP5 SUB SLT ISZERO PUSH2 0x11A3 JUMPI PUSH2 0x11A2 PUSH2 0xFFC JUMP JUMPDEST JUMPDEST PUSH1 0x0 PUSH2 0x11B1 DUP5 DUP3 DUP6 ADD PUSH2 0x1018 JUMP JUMPDEST SWAP2 POP POP SWAP3 SWAP2 POP POP JUMP JUMPDEST PUSH1 0x0 PUSH1 0x20 DUP3 DUP5 SUB SLT ISZERO PUSH2 0x11D0 JUMPI PUSH2 0x11CF PUSH2 0xFFC JUMP JUMPDEST JUMPDEST PUSH1 0x0 PUSH2 0x11DE DUP5 DUP3 DUP6 ADD PUSH2 0x104E JUMP JUMPDEST SWAP2 POP POP SWAP3 SWAP2 POP POP JUMP JUMPDEST PUSH1 0x0 DUP1 PUSH1 0x40 DUP4 DUP6 SUB SLT ISZERO PUSH2 0x11FE JUMPI PUSH2 0x11FD PUSH2 0xFFC JUMP JUMPDEST JUMPDEST PUSH1 0x0 PUSH2 0x120C DUP6 DUP3 DUP7 ADD PUSH2 0x1018 JUMP JUMPDEST SWAP3 POP POP PUSH1 0x20 PUSH2 0x121D DUP6 DUP3 DUP7 ADD PUSH2 0x1018 JUMP JUMPDEST SWAP2 POP POP SWAP3 POP SWAP3 SWAP1 POP JUMP JUMPDEST PUSH32 0x4E487B7100000000000000000000000000000000000000000000000000000000 PUSH1 0x0 MSTORE PUSH1 0x11 PUSH1 0x4 MSTORE PUSH1 0x24 PUSH1 0x0 REVERT JUMPDEST PUSH1 0x0 PUSH2 0x1261 DUP3 PUSH2 0x102D JUMP JUMPDEST SWAP2 POP PUSH2 0x126C DUP4 PUSH2 0x102D JUMP JUMPDEST SWAP3 POP DUP3 DUP3 LT ISZERO PUSH2 0x127F JUMPI PUSH2 0x127E PUSH2 0x1227 JUMP JUMPDEST JUMPDEST DUP3 DUP3 SUB SWAP1 POP SWAP3 SWAP2 POP POP JUMP JUMPDEST PUSH1 0x0 PUSH2 0x1295 DUP3 PUSH2 0x102D JUMP JUMPDEST SWAP2 POP PUSH2 0x12A0 DUP4 PUSH2 0x102D JUMP JUMPDEST SWAP3 POP DUP3 PUSH32 0xFFFFFFFFFFFFFFFFFFFFFFFFFFFFFFFFFFFFFFFFFFFFFFFFFFFFFFFFFFFFFFFF SUB DUP3 GT ISZERO PUSH2 0x12D5 JUMPI PUSH2 0x12D4 PUSH2 0x1227 JUMP JUMPDEST JUMPDEST DUP3 DUP3 ADD SWAP1 POP SWAP3 SWAP2 POP POP JUMP JUMPDEST PUSH32 0x796F7520417265204E6F74204F776E6572000000000000000000000000000000 PUSH1 0x0 DUP3 ADD MSTORE POP JUMP JUMPDEST PUSH1 0x0 PUSH2 0x1316 PUSH1 0x11 DUP4 PUSH2 0xF4C JUMP JUMPDEST SWAP2 POP PUSH2 0x1321 DUP3 PUSH2 0x12E0 JUMP JUMPDEST PUSH1 0x20 DUP3 ADD SWAP1 POP SWAP2 SWAP1 POP JUMP JUMPDEST PUSH1 0x0 PUSH1 0x20 DUP3 ADD SWAP1 POP DUP2 DUP2 SUB PUSH1 0x0 DUP4 ADD MSTORE PUSH2 0x1345 DUP2 PUSH2 0x1309 JUMP JUMPDEST SWAP1 POP SWAP2 SWAP1 POP JUMP INVALID LOG2 PUSH5 0x6970667358 0x22 SLT KECCAK256 LOG4 0xD 0x27 0xD0 PUSH25 0x418B24AF6FD5547AC88E1A05477A7AECABBBACA4273A08C999 0xD3 SLOAD PUSH5 0x736F6C6343 STOP ADDMOD 0xE STOP CALLER "
				},
				"gasEstimates": {
					"creation": {
						"codeDepositCost": "998800",
						"executionCost": "73853",
						"totalCost": "1072653"
					},
					"external": {
						"TransferOwnership(address)": "infinite",
						"allowance(address,address)": "infinite",
						"approve(address,uint256)": "infinite",
						"balanceOf(address)": "2864",
						"decimals()": "446",
						"mint(uint256)": "infinite",
						"mowner()": "2599",
						"name()": "infinite",
						"ownerId()": "2523",
						"symbol()": "infinite",
						"totalSupply()": "2504",
						"transfer(address,uint256)": "infinite",
						"transferFrom(address,address,uint256)": "infinite"
					}
				},
				"methodIdentifiers": {
					"TransferOwnership(address)": "cfaaa266",
					"allowance(address,address)": "dd62ed3e",
					"approve(address,uint256)": "095ea7b3",
					"balanceOf(address)": "70a08231",
					"decimals()": "313ce567",
					"mint(uint256)": "a0712d68",
					"mowner()": "f5ba02f9",
					"name()": "06fdde03",
					"ownerId()": "019c08f5",
					"symbol()": "95d89b41",
					"totalSupply()": "18160ddd",
					"transfer(address,uint256)": "a9059cbb",
					"transferFrom(address,address,uint256)": "23b872dd"
				}
			},
			"storageLayout": {
				"storage": [
					{
						"astId": 83,
						"contract": "ERC20_2.sol:ERC20Basic",
						"label": "mowner",
						"offset": 0,
						"slot": "0",
						"type": "t_address"
					},
					{
						"astId": 87,
						"contract": "ERC20_2.sol:ERC20Basic",
						"label": "balances",
						"offset": 0,
						"slot": "1",
						"type": "t_mapping(t_address,t_uint256)"
					},
					{
						"astId": 93,
						"contract": "ERC20_2.sol:ERC20Basic",
						"label": "allowed",
						"offset": 0,
						"slot": "2",
						"type": "t_mapping(t_address,t_mapping(t_address,t_uint256))"
					},
					{
						"astId": 96,
						"contract": "ERC20_2.sol:ERC20Basic",
						"label": "totalSupply_",
						"offset": 0,
						"slot": "3",
						"type": "t_uint256"
					}
				],
				"types": {
					"t_address": {
						"encoding": "inplace",
						"label": "address",
						"numberOfBytes": "20"
					},
					"t_mapping(t_address,t_mapping(t_address,t_uint256))": {
						"encoding": "mapping",
						"key": "t_address",
						"label": "mapping(address => mapping(address => uint256))",
						"numberOfBytes": "32",
						"value": "t_mapping(t_address,t_uint256)"
					},
					"t_mapping(t_address,t_uint256)": {
						"encoding": "mapping",
						"key": "t_address",
						"label": "mapping(address => uint256)",
						"numberOfBytes": "32",
						"value": "t_uint256"
					},
					"t_uint256": {
						"encoding": "inplace",
						"label": "uint256",
						"numberOfBytes": "32"
					}
				}
			},
			"userdoc": {
				"kind": "user",
				"methods": {},
				"version": 1
			}
		}
	}
}