{
	"sendEther.sol": {
		"sendEther": {
			"abi": [
				{
					"inputs": [],
					"name": "getter",
					"outputs": [
						{
							"internalType": "address payable",
							"name": "",
							"type": "address"
						}
					],
					"stateMutability": "view",
					"type": "function"
				},
				{
					"stateMutability": "payable",
					"type": "receive"
				}
			],
			"devdoc": {
				"kind": "dev",
				"methods": {},
				"version": 1
			},
			"evm": {
				"assembly": "    /* \"sendEther.sol\":58:208  contract sendEther{... */\n  mstore(0x40, 0x80)\n    /* \"sendEther.sol\":122:164  0xAb8483F64d9C6d1EcF9b849Ae677dD3315835cb2 */\n  0xab8483f64d9c6d1ecf9b849ae677dd3315835cb2\n    /* \"sendEther.sol\":82:165  address payable public getter = payable(0xAb8483F64d9C6d1EcF9b849Ae677dD3315835cb2) */\n  0x00\n  dup1\n  0x0100\n  exp\n  dup2\n  sload\n  dup2\n  0xffffffffffffffffffffffffffffffffffffffff\n  mul\n  not\n  and\n  swap1\n  dup4\n  0xffffffffffffffffffffffffffffffffffffffff\n  and\n  mul\n  or\n  swap1\n  sstore\n  pop\n    /* \"sendEther.sol\":58:208  contract sendEther{... */\n  callvalue\n  dup1\n  iszero\n  tag_1\n  jumpi\n  0x00\n  dup1\n  revert\ntag_1:\n  pop\n  dataSize(sub_0)\n  dup1\n  dataOffset(sub_0)\n  0x00\n  codecopy\n  0x00\n  return\nstop\n\nsub_0: assembly {\n        /* \"sendEther.sol\":58:208  contract sendEther{... */\n      mstore(0x40, 0x80)\n      jumpi(tag_1, lt(calldatasize, 0x04))\n      shr(0xe0, calldataload(0x00))\n      dup1\n      0x993a04b7\n      eq\n      tag_3\n      jumpi\n      jump(tag_2)\n    tag_1:\n      jumpi(tag_2, calldatasize)\n      stop\n    tag_2:\n      0x00\n      dup1\n      revert\n        /* \"sendEther.sol\":82:165  address payable public getter = payable(0xAb8483F64d9C6d1EcF9b849Ae677dD3315835cb2) */\n    tag_3:\n      callvalue\n      dup1\n      iszero\n      tag_6\n      jumpi\n      0x00\n      dup1\n      revert\n    tag_6:\n      pop\n      tag_7\n      tag_8\n      jump\t// in\n    tag_7:\n      mload(0x40)\n      tag_9\n      swap2\n      swap1\n      tag_10\n      jump\t// in\n    tag_9:\n      mload(0x40)\n      dup1\n      swap2\n      sub\n      swap1\n      return\n    tag_8:\n      0x00\n      dup1\n      sload\n      swap1\n      0x0100\n      exp\n      swap1\n      div\n      0xffffffffffffffffffffffffffffffffffffffff\n      and\n      dup2\n      jump\t// out\n        /* \"#utility.yul\":7:149   */\n    tag_12:\n        /* \"#utility.yul\":110:142   */\n      tag_14\n        /* \"#utility.yul\":136:141   */\n      dup2\n        /* \"#utility.yul\":110:142   */\n      tag_15\n      jump\t// in\n    tag_14:\n        /* \"#utility.yul\":105:108   */\n      dup3\n        /* \"#utility.yul\":98:143   */\n      mstore\n        /* \"#utility.yul\":7:149   */\n      pop\n      pop\n      jump\t// out\n        /* \"#utility.yul\":155:409   */\n    tag_10:\n        /* \"#utility.yul\":264:268   */\n      0x00\n        /* \"#utility.yul\":302:304   */\n      0x20\n        /* \"#utility.yul\":291:300   */\n      dup3\n        /* \"#utility.yul\":287:305   */\n      add\n        /* \"#utility.yul\":279:305   */\n      swap1\n      pop\n        /* \"#utility.yul\":315:402   */\n      tag_17\n        /* \"#utility.yul\":399:400   */\n      0x00\n        /* \"#utility.yul\":388:397   */\n      dup4\n        /* \"#utility.yul\":384:401   */\n      add\n        /* \"#utility.yul\":375:381   */\n      dup5\n        /* \"#utility.yul\":315:402   */\n      tag_12\n      jump\t// in\n    tag_17:\n        /* \"#utility.yul\":155:409   */\n      swap3\n      swap2\n      pop\n      pop\n      jump\t// out\n        /* \"#utility.yul\":415:519   */\n    tag_15:\n        /* \"#utility.yul\":460:467   */\n      0x00\n        /* \"#utility.yul\":489:513   */\n      tag_19\n        /* \"#utility.yul\":507:512   */\n      dup3\n        /* \"#utility.yul\":489:513   */\n      tag_20\n      jump\t// in\n    tag_19:\n        /* \"#utility.yul\":478:513   */\n      swap1\n      pop\n        /* \"#utility.yul\":415:519   */\n      swap2\n      swap1\n      pop\n      jump\t// out\n        /* \"#utility.yul\":525:651   */\n    tag_20:\n        /* \"#utility.yul\":562:569   */\n      0x00\n        /* \"#utility.yul\":602:644   */\n      0xffffffffffffffffffffffffffffffffffffffff\n        /* \"#utility.yul\":595:600   */\n      dup3\n        /* \"#utility.yul\":591:645   */\n      and\n        /* \"#utility.yul\":580:645   */\n      swap1\n      pop\n        /* \"#utility.yul\":525:651   */\n      swap2\n      swap1\n      pop\n      jump\t// out\n\n    auxdata: 0xa2646970667358221220f330d7b4a0feb2999b1bb785c6e8428868486f29ea5af1dad184e8f20928ef1364736f6c63430008070033\n}\n",
				"bytecode": {
					"linkReferences": {},
					"object": "608060405273ab8483f64d9c6d1ecf9b849ae677dd3315835cb26000806101000a81548173ffffffffffffffffffffffffffffffffffffffff021916908373ffffffffffffffffffffffffffffffffffffffff16021790555034801561006457600080fd5b50610100806100746000396000f3fe608060405260043610601f5760003560e01c8063993a04b714602a576025565b36602557005b600080fd5b348015603557600080fd5b50603c6050565b604051604791906081565b60405180910390f35b60008054906101000a900473ffffffffffffffffffffffffffffffffffffffff1681565b607b81609a565b82525050565b6000602082019050609460008301846074565b92915050565b600060a38260aa565b9050919050565b600073ffffffffffffffffffffffffffffffffffffffff8216905091905056fea2646970667358221220f330d7b4a0feb2999b1bb785c6e8428868486f29ea5af1dad184e8f20928ef1364736f6c63430008070033",
					"opcodes": "PUSH1 0x80 PUSH1 0x40 MSTORE PUSH20 0xAB8483F64D9C6D1ECF9B849AE677DD3315835CB2 PUSH1 0x0 DUP1 PUSH2 0x100 EXP DUP2 SLOAD DUP2 PUSH20 0xFFFFFFFFFFFFFFFFFFFFFFFFFFFFFFFFFFFFFFFF MUL NOT AND SWAP1 DUP4 PUSH20 0xFFFFFFFFFFFFFFFFFFFFFFFFFFFFFFFFFFFFFFFF AND MUL OR SWAP1 SSTORE POP CALLVALUE DUP1 ISZERO PUSH2 0x64 JUMPI PUSH1 0x0 DUP1 REVERT JUMPDEST POP PUSH2 0x100 DUP1 PUSH2 0x74 PUSH1 0x0 CODECOPY PUSH1 0x0 RETURN INVALID PUSH1 0x80 PUSH1 0x40 MSTORE PUSH1 0x4 CALLDATASIZE LT PUSH1 0x1F JUMPI PUSH1 0x0 CALLDATALOAD PUSH1 0xE0 SHR DUP1 PUSH4 0x993A04B7 EQ PUSH1 0x2A JUMPI PUSH1 0x25 JUMP JUMPDEST CALLDATASIZE PUSH1 0x25 JUMPI STOP JUMPDEST PUSH1 0x0 DUP1 REVERT JUMPDEST CALLVALUE DUP1 ISZERO PUSH1 0x35 JUMPI PUSH1 0x0 DUP1 REVERT JUMPDEST POP PUSH1 0x3C PUSH1 0x50 JUMP JUMPDEST PUSH1 0x40 MLOAD PUSH1 0x47 SWAP2 SWAP1 PUSH1 0x81 JUMP JUMPDEST PUSH1 0x40 MLOAD DUP1 SWAP2 SUB SWAP1 RETURN JUMPDEST PUSH1 0x0 DUP1 SLOAD SWAP1 PUSH2 0x100 EXP SWAP1 DIV PUSH20 0xFFFFFFFFFFFFFFFFFFFFFFFFFFFFFFFFFFFFFFFF AND DUP2 JUMP JUMPDEST PUSH1 0x7B DUP2 PUSH1 0x9A JUMP JUMPDEST DUP3 MSTORE POP POP JUMP JUMPDEST PUSH1 0x0 PUSH1 0x20 DUP3 ADD SWAP1 POP PUSH1 0x94 PUSH1 0x0 DUP4 ADD DUP5 PUSH1 0x74 JUMP JUMPDEST SWAP3 SWAP2 POP POP JUMP JUMPDEST PUSH1 0x0 PUSH1 0xA3 DUP3 PUSH1 0xAA JUMP JUMPDEST SWAP1 POP SWAP2 SWAP1 POP JUMP JUMPDEST PUSH1 0x0 PUSH20 0xFFFFFFFFFFFFFFFFFFFFFFFFFFFFFFFFFFFFFFFF DUP3 AND SWAP1 POP SWAP2 SWAP1 POP JUMP INVALID LOG2 PUSH5 0x6970667358 0x22 SLT KECCAK256 RETURN ADDRESS 0xD7 0xB4 LOG0 INVALID 0xB2 SWAP10 SWAP12 SHL 0xB7 DUP6 0xC6 0xE8 TIMESTAMP DUP9 PUSH9 0x486F29EA5AF1DAD184 0xE8 CALLCODE MULMOD 0x28 0xEF SGT PUSH5 0x736F6C6343 STOP ADDMOD SMOD STOP CALLER "
				},
				"gasEstimates": {
					"creation": {
						"codeDepositCost": "51200",
						"executionCost": "24366",
						"totalCost": "75566"
					},
					"external": {
						"getter()": "2489"
					}
				},
				"methodIdentifiers": {
					"getter()": "993a04b7"
				}
			},
			"storageLayout": {
				"storage": [
					{
						"astId": 7,
						"contract": "sendEther.sol:sendEther",
						"label": "getter",
						"offset": 0,
						"slot": "0",
						"type": "t_address_payable"
					}
				],
				"types": {
					"t_address_payable": {
						"encoding": "inplace",
						"label": "address payable",
						"numberOfBytes": "20"
					}
				}
			},
			"userdoc": {
				"kind": "user",
				"methods": {},
				"version": 1
			}
		}
	}
}