{
	"sendEther.sol": {
		"sendEther": {
			"abi": [
				{
					"inputs": [],
					"name": "SEND",
					"outputs": [],
					"stateMutability": "nonpayable",
					"type": "function"
				},
				{
					"inputs": [],
					"name": "checkBal",
					"outputs": [
						{
							"internalType": "uint256",
							"name": "",
							"type": "uint256"
						}
					],
					"stateMutability": "view",
					"type": "function"
				},
				{
					"inputs": [],
					"name": "getter",
					"outputs": [
						{
							"internalType": "address payable",
							"name": "",
							"type": "address"
						}
					],
					"stateMutability": "view",
					"type": "function"
				},
				{
					"stateMutability": "payable",
					"type": "receive"
				}
			],
			"devdoc": {
				"kind": "dev",
				"methods": {},
				"version": 1
			},
			"evm": {
				"assembly": "    /* \"sendEther.sol\":58:443  contract sendEther{... */\n  mstore(0x40, 0x80)\n    /* \"sendEther.sol\":122:164  0xAb8483F64d9C6d1EcF9b849Ae677dD3315835cb2 */\n  0xab8483f64d9c6d1ecf9b849ae677dd3315835cb2\n    /* \"sendEther.sol\":82:165  address payable public getter = payable(0xAb8483F64d9C6d1EcF9b849Ae677dD3315835cb2) */\n  0x00\n  dup1\n  0x0100\n  exp\n  dup2\n  sload\n  dup2\n  0xffffffffffffffffffffffffffffffffffffffff\n  mul\n  not\n  and\n  swap1\n  dup4\n  0xffffffffffffffffffffffffffffffffffffffff\n  and\n  mul\n  or\n  swap1\n  sstore\n  pop\n    /* \"sendEther.sol\":58:443  contract sendEther{... */\n  callvalue\n  dup1\n  iszero\n  tag_1\n  jumpi\n  0x00\n  dup1\n  revert\ntag_1:\n  pop\n  dataSize(sub_0)\n  dup1\n  dataOffset(sub_0)\n  0x00\n  codecopy\n  0x00\n  return\nstop\n\nsub_0: assembly {\n        /* \"sendEther.sol\":58:443  contract sendEther{... */\n      mstore(0x40, 0x80)\n      jumpi(tag_1, lt(calldatasize, 0x04))\n      shr(0xe0, calldataload(0x00))\n      dup1\n      0x1f5e1334\n      eq\n      tag_3\n      jumpi\n      dup1\n      0x2058ad6b\n      eq\n      tag_4\n      jumpi\n      dup1\n      0x993a04b7\n      eq\n      tag_5\n      jumpi\n      jump(tag_2)\n    tag_1:\n      jumpi(tag_2, calldatasize)\n      stop\n    tag_2:\n      0x00\n      dup1\n      revert\n        /* \"sendEther.sol\":308:435  function SEND() public{... */\n    tag_3:\n      callvalue\n      dup1\n      iszero\n      tag_8\n      jumpi\n      0x00\n      dup1\n      revert\n    tag_8:\n      pop\n      tag_9\n      tag_10\n      jump\t// in\n    tag_9:\n      stop\n        /* \"sendEther.sol\":212:302  function checkBal() public view returns(uint){... */\n    tag_4:\n      callvalue\n      dup1\n      iszero\n      tag_11\n      jumpi\n      0x00\n      dup1\n      revert\n    tag_11:\n      pop\n      tag_12\n      tag_13\n      jump\t// in\n    tag_12:\n      mload(0x40)\n      tag_14\n      swap2\n      swap1\n      tag_15\n      jump\t// in\n    tag_14:\n      mload(0x40)\n      dup1\n      swap2\n      sub\n      swap1\n      return\n        /* \"sendEther.sol\":82:165  address payable public getter = payable(0xAb8483F64d9C6d1EcF9b849Ae677dD3315835cb2) */\n    tag_5:\n      callvalue\n      dup1\n      iszero\n      tag_16\n      jumpi\n      0x00\n      dup1\n      revert\n    tag_16:\n      pop\n      tag_17\n      tag_18\n      jump\t// in\n    tag_17:\n      mload(0x40)\n      tag_19\n      swap2\n      swap1\n      tag_20\n      jump\t// in\n    tag_19:\n      mload(0x40)\n      dup1\n      swap2\n      sub\n      swap1\n      return\n        /* \"sendEther.sol\":308:435  function SEND() public{... */\n    tag_10:\n        /* \"sendEther.sol\":340:349  bool sent */\n      0x00\n        /* \"sendEther.sol\":352:358  getter */\n      dup1\n      0x00\n      swap1\n      sload\n      swap1\n      0x0100\n      exp\n      swap1\n      div\n      0xffffffffffffffffffffffffffffffffffffffff\n      and\n        /* \"sendEther.sol\":352:363  getter.send */\n      0xffffffffffffffffffffffffffffffffffffffff\n      and\n        /* \"sendEther.sol\":352:384  getter.send(1000000000000000000) */\n      0x08fc\n        /* \"sendEther.sol\":364:383  1000000000000000000 */\n      0x0de0b6b3a7640000\n        /* \"sendEther.sol\":352:384  getter.send(1000000000000000000) */\n      swap1\n      dup2\n      iszero\n      mul\n      swap1\n      mload(0x40)\n      0x00\n      mload(0x40)\n      dup1\n      dup4\n      sub\n      dup2\n      dup6\n      dup9\n      dup9\n      call\n      swap4\n      pop\n      pop\n      pop\n      pop\n        /* \"sendEther.sol\":340:384  bool sent = getter.send(1000000000000000000) */\n      swap1\n      pop\n        /* \"sendEther.sol\":402:406  sent */\n      dup1\n        /* \"sendEther.sol\":394:428  require(sent,\"transaction failed\") */\n      tag_23\n      jumpi\n      mload(0x40)\n      0x08c379a000000000000000000000000000000000000000000000000000000000\n      dup2\n      mstore\n      0x04\n      add\n      tag_24\n      swap1\n      tag_25\n      jump\t// in\n    tag_24:\n      mload(0x40)\n      dup1\n      swap2\n      sub\n      swap1\n      revert\n    tag_23:\n        /* \"sendEther.sol\":330:435  {... */\n      pop\n        /* \"sendEther.sol\":308:435  function SEND() public{... */\n      jump\t// out\n        /* \"sendEther.sol\":212:302  function checkBal() public view returns(uint){... */\n    tag_13:\n        /* \"sendEther.sol\":252:256  uint */\n      0x00\n        /* \"sendEther.sol\":274:295  address(this).balance */\n      selfbalance\n        /* \"sendEther.sol\":267:295  return address(this).balance */\n      swap1\n      pop\n        /* \"sendEther.sol\":212:302  function checkBal() public view returns(uint){... */\n      swap1\n      jump\t// out\n        /* \"sendEther.sol\":82:165  address payable public getter = payable(0xAb8483F64d9C6d1EcF9b849Ae677dD3315835cb2) */\n    tag_18:\n      0x00\n      dup1\n      sload\n      swap1\n      0x0100\n      exp\n      swap1\n      div\n      0xffffffffffffffffffffffffffffffffffffffff\n      and\n      dup2\n      jump\t// out\n        /* \"#utility.yul\":7:149   */\n    tag_28:\n        /* \"#utility.yul\":110:142   */\n      tag_30\n        /* \"#utility.yul\":136:141   */\n      dup2\n        /* \"#utility.yul\":110:142   */\n      tag_31\n      jump\t// in\n    tag_30:\n        /* \"#utility.yul\":105:108   */\n      dup3\n        /* \"#utility.yul\":98:143   */\n      mstore\n        /* \"#utility.yul\":7:149   */\n      pop\n      pop\n      jump\t// out\n        /* \"#utility.yul\":155:521   */\n    tag_32:\n        /* \"#utility.yul\":297:300   */\n      0x00\n        /* \"#utility.yul\":318:385   */\n      tag_34\n        /* \"#utility.yul\":382:384   */\n      0x12\n        /* \"#utility.yul\":377:380   */\n      dup4\n        /* \"#utility.yul\":318:385   */\n      tag_35\n      jump\t// in\n    tag_34:\n        /* \"#utility.yul\":311:385   */\n      swap2\n      pop\n        /* \"#utility.yul\":394:487   */\n      tag_36\n        /* \"#utility.yul\":483:486   */\n      dup3\n        /* \"#utility.yul\":394:487   */\n      tag_37\n      jump\t// in\n    tag_36:\n        /* \"#utility.yul\":512:514   */\n      0x20\n        /* \"#utility.yul\":507:510   */\n      dup3\n        /* \"#utility.yul\":503:515   */\n      add\n        /* \"#utility.yul\":496:515   */\n      swap1\n      pop\n        /* \"#utility.yul\":155:521   */\n      swap2\n      swap1\n      pop\n      jump\t// out\n        /* \"#utility.yul\":527:645   */\n    tag_38:\n        /* \"#utility.yul\":614:638   */\n      tag_40\n        /* \"#utility.yul\":632:637   */\n      dup2\n        /* \"#utility.yul\":614:638   */\n      tag_41\n      jump\t// in\n    tag_40:\n        /* \"#utility.yul\":609:612   */\n      dup3\n        /* \"#utility.yul\":602:639   */\n      mstore\n        /* \"#utility.yul\":527:645   */\n      pop\n      pop\n      jump\t// out\n        /* \"#utility.yul\":651:905   */\n    tag_20:\n        /* \"#utility.yul\":760:764   */\n      0x00\n        /* \"#utility.yul\":798:800   */\n      0x20\n        /* \"#utility.yul\":787:796   */\n      dup3\n        /* \"#utility.yul\":783:801   */\n      add\n        /* \"#utility.yul\":775:801   */\n      swap1\n      pop\n        /* \"#utility.yul\":811:898   */\n      tag_43\n        /* \"#utility.yul\":895:896   */\n      0x00\n        /* \"#utility.yul\":884:893   */\n      dup4\n        /* \"#utility.yul\":880:897   */\n      add\n        /* \"#utility.yul\":871:877   */\n      dup5\n        /* \"#utility.yul\":811:898   */\n      tag_28\n      jump\t// in\n    tag_43:\n        /* \"#utility.yul\":651:905   */\n      swap3\n      swap2\n      pop\n      pop\n      jump\t// out\n        /* \"#utility.yul\":911:1330   */\n    tag_25:\n        /* \"#utility.yul\":1077:1081   */\n      0x00\n        /* \"#utility.yul\":1115:1117   */\n      0x20\n        /* \"#utility.yul\":1104:1113   */\n      dup3\n        /* \"#utility.yul\":1100:1118   */\n      add\n        /* \"#utility.yul\":1092:1118   */\n      swap1\n      pop\n        /* \"#utility.yul\":1164:1173   */\n      dup2\n        /* \"#utility.yul\":1158:1162   */\n      dup2\n        /* \"#utility.yul\":1154:1174   */\n      sub\n        /* \"#utility.yul\":1150:1151   */\n      0x00\n        /* \"#utility.yul\":1139:1148   */\n      dup4\n        /* \"#utility.yul\":1135:1152   */\n      add\n        /* \"#utility.yul\":1128:1175   */\n      mstore\n        /* \"#utility.yul\":1192:1323   */\n      tag_45\n        /* \"#utility.yul\":1318:1322   */\n      dup2\n        /* \"#utility.yul\":1192:1323   */\n      tag_32\n      jump\t// in\n    tag_45:\n        /* \"#utility.yul\":1184:1323   */\n      swap1\n      pop\n        /* \"#utility.yul\":911:1330   */\n      swap2\n      swap1\n      pop\n      jump\t// out\n        /* \"#utility.yul\":1336:1558   */\n    tag_15:\n        /* \"#utility.yul\":1429:1433   */\n      0x00\n        /* \"#utility.yul\":1467:1469   */\n      0x20\n        /* \"#utility.yul\":1456:1465   */\n      dup3\n        /* \"#utility.yul\":1452:1470   */\n      add\n        /* \"#utility.yul\":1444:1470   */\n      swap1\n      pop\n        /* \"#utility.yul\":1480:1551   */\n      tag_47\n        /* \"#utility.yul\":1548:1549   */\n      0x00\n        /* \"#utility.yul\":1537:1546   */\n      dup4\n        /* \"#utility.yul\":1533:1550   */\n      add\n        /* \"#utility.yul\":1524:1530   */\n      dup5\n        /* \"#utility.yul\":1480:1551   */\n      tag_38\n      jump\t// in\n    tag_47:\n        /* \"#utility.yul\":1336:1558   */\n      swap3\n      swap2\n      pop\n      pop\n      jump\t// out\n        /* \"#utility.yul\":1564:1733   */\n    tag_35:\n        /* \"#utility.yul\":1648:1659   */\n      0x00\n        /* \"#utility.yul\":1682:1688   */\n      dup3\n        /* \"#utility.yul\":1677:1680   */\n      dup3\n        /* \"#utility.yul\":1670:1689   */\n      mstore\n        /* \"#utility.yul\":1722:1726   */\n      0x20\n        /* \"#utility.yul\":1717:1720   */\n      dup3\n        /* \"#utility.yul\":1713:1727   */\n      add\n        /* \"#utility.yul\":1698:1727   */\n      swap1\n      pop\n        /* \"#utility.yul\":1564:1733   */\n      swap3\n      swap2\n      pop\n      pop\n      jump\t// out\n        /* \"#utility.yul\":1739:1843   */\n    tag_31:\n        /* \"#utility.yul\":1784:1791   */\n      0x00\n        /* \"#utility.yul\":1813:1837   */\n      tag_50\n        /* \"#utility.yul\":1831:1836   */\n      dup3\n        /* \"#utility.yul\":1813:1837   */\n      tag_51\n      jump\t// in\n    tag_50:\n        /* \"#utility.yul\":1802:1837   */\n      swap1\n      pop\n        /* \"#utility.yul\":1739:1843   */\n      swap2\n      swap1\n      pop\n      jump\t// out\n        /* \"#utility.yul\":1849:1975   */\n    tag_51:\n        /* \"#utility.yul\":1886:1893   */\n      0x00\n        /* \"#utility.yul\":1926:1968   */\n      0xffffffffffffffffffffffffffffffffffffffff\n        /* \"#utility.yul\":1919:1924   */\n      dup3\n        /* \"#utility.yul\":1915:1969   */\n      and\n        /* \"#utility.yul\":1904:1969   */\n      swap1\n      pop\n        /* \"#utility.yul\":1849:1975   */\n      swap2\n      swap1\n      pop\n      jump\t// out\n        /* \"#utility.yul\":1981:2058   */\n    tag_41:\n        /* \"#utility.yul\":2018:2025   */\n      0x00\n        /* \"#utility.yul\":2047:2052   */\n      dup2\n        /* \"#utility.yul\":2036:2052   */\n      swap1\n      pop\n        /* \"#utility.yul\":1981:2058   */\n      swap2\n      swap1\n      pop\n      jump\t// out\n        /* \"#utility.yul\":2064:2232   */\n    tag_37:\n        /* \"#utility.yul\":2204:2224   */\n      0x7472616e73616374696f6e206661696c65640000000000000000000000000000\n        /* \"#utility.yul\":2200:2201   */\n      0x00\n        /* \"#utility.yul\":2192:2198   */\n      dup3\n        /* \"#utility.yul\":2188:2202   */\n      add\n        /* \"#utility.yul\":2181:2225   */\n      mstore\n        /* \"#utility.yul\":2064:2232   */\n      pop\n      jump\t// out\n\n    auxdata: 0xa264697066735822122009cbf150285fa1bee05289c078b088b0facacf98fdcc11411384a05cc63d207164736f6c63430008070033\n}\n",
				"bytecode": {
					"linkReferences": {},
					"object": "608060405273ab8483f64d9c6d1ecf9b849ae677dd3315835cb26000806101000a81548173ffffffffffffffffffffffffffffffffffffffff021916908373ffffffffffffffffffffffffffffffffffffffff16021790555034801561006457600080fd5b506102c5806100746000396000f3fe6080604052600436106100385760003560e01c80631f5e1334146100445780632058ad6b1461005b578063993a04b7146100865761003f565b3661003f57005b600080fd5b34801561005057600080fd5b506100596100b1565b005b34801561006757600080fd5b50610070610156565b60405161007d91906101fe565b60405180910390f35b34801561009257600080fd5b5061009b61015e565b6040516100a891906101c3565b60405180910390f35b60008060009054906101000a900473ffffffffffffffffffffffffffffffffffffffff1673ffffffffffffffffffffffffffffffffffffffff166108fc670de0b6b3a76400009081150290604051600060405180830381858888f19350505050905080610153576040517f08c379a000000000000000000000000000000000000000000000000000000000815260040161014a906101de565b60405180910390fd5b50565b600047905090565b60008054906101000a900473ffffffffffffffffffffffffffffffffffffffff1681565b61018b8161022a565b82525050565b600061019e601283610219565b91506101a982610266565b602082019050919050565b6101bd8161025c565b82525050565b60006020820190506101d86000830184610182565b92915050565b600060208201905081810360008301526101f781610191565b9050919050565b600060208201905061021360008301846101b4565b92915050565b600082825260208201905092915050565b60006102358261023c565b9050919050565b600073ffffffffffffffffffffffffffffffffffffffff82169050919050565b6000819050919050565b7f7472616e73616374696f6e206661696c6564000000000000000000000000000060008201525056fea264697066735822122009cbf150285fa1bee05289c078b088b0facacf98fdcc11411384a05cc63d207164736f6c63430008070033",
					"opcodes": "PUSH1 0x80 PUSH1 0x40 MSTORE PUSH20 0xAB8483F64D9C6D1ECF9B849AE677DD3315835CB2 PUSH1 0x0 DUP1 PUSH2 0x100 EXP DUP2 SLOAD DUP2 PUSH20 0xFFFFFFFFFFFFFFFFFFFFFFFFFFFFFFFFFFFFFFFF MUL NOT AND SWAP1 DUP4 PUSH20 0xFFFFFFFFFFFFFFFFFFFFFFFFFFFFFFFFFFFFFFFF AND MUL OR SWAP1 SSTORE POP CALLVALUE DUP1 ISZERO PUSH2 0x64 JUMPI PUSH1 0x0 DUP1 REVERT JUMPDEST POP PUSH2 0x2C5 DUP1 PUSH2 0x74 PUSH1 0x0 CODECOPY PUSH1 0x0 RETURN INVALID PUSH1 0x80 PUSH1 0x40 MSTORE PUSH1 0x4 CALLDATASIZE LT PUSH2 0x38 JUMPI PUSH1 0x0 CALLDATALOAD PUSH1 0xE0 SHR DUP1 PUSH4 0x1F5E1334 EQ PUSH2 0x44 JUMPI DUP1 PUSH4 0x2058AD6B EQ PUSH2 0x5B JUMPI DUP1 PUSH4 0x993A04B7 EQ PUSH2 0x86 JUMPI PUSH2 0x3F JUMP JUMPDEST CALLDATASIZE PUSH2 0x3F JUMPI STOP JUMPDEST PUSH1 0x0 DUP1 REVERT JUMPDEST CALLVALUE DUP1 ISZERO PUSH2 0x50 JUMPI PUSH1 0x0 DUP1 REVERT JUMPDEST POP PUSH2 0x59 PUSH2 0xB1 JUMP JUMPDEST STOP JUMPDEST CALLVALUE DUP1 ISZERO PUSH2 0x67 JUMPI PUSH1 0x0 DUP1 REVERT JUMPDEST POP PUSH2 0x70 PUSH2 0x156 JUMP JUMPDEST PUSH1 0x40 MLOAD PUSH2 0x7D SWAP2 SWAP1 PUSH2 0x1FE JUMP JUMPDEST PUSH1 0x40 MLOAD DUP1 SWAP2 SUB SWAP1 RETURN JUMPDEST CALLVALUE DUP1 ISZERO PUSH2 0x92 JUMPI PUSH1 0x0 DUP1 REVERT JUMPDEST POP PUSH2 0x9B PUSH2 0x15E JUMP JUMPDEST PUSH1 0x40 MLOAD PUSH2 0xA8 SWAP2 SWAP1 PUSH2 0x1C3 JUMP JUMPDEST PUSH1 0x40 MLOAD DUP1 SWAP2 SUB SWAP1 RETURN JUMPDEST PUSH1 0x0 DUP1 PUSH1 0x0 SWAP1 SLOAD SWAP1 PUSH2 0x100 EXP SWAP1 DIV PUSH20 0xFFFFFFFFFFFFFFFFFFFFFFFFFFFFFFFFFFFFFFFF AND PUSH20 0xFFFFFFFFFFFFFFFFFFFFFFFFFFFFFFFFFFFFFFFF AND PUSH2 0x8FC PUSH8 0xDE0B6B3A7640000 SWAP1 DUP2 ISZERO MUL SWAP1 PUSH1 0x40 MLOAD PUSH1 0x0 PUSH1 0x40 MLOAD DUP1 DUP4 SUB DUP2 DUP6 DUP9 DUP9 CALL SWAP4 POP POP POP POP SWAP1 POP DUP1 PUSH2 0x153 JUMPI PUSH1 0x40 MLOAD PUSH32 0x8C379A000000000000000000000000000000000000000000000000000000000 DUP2 MSTORE PUSH1 0x4 ADD PUSH2 0x14A SWAP1 PUSH2 0x1DE JUMP JUMPDEST PUSH1 0x40 MLOAD DUP1 SWAP2 SUB SWAP1 REVERT JUMPDEST POP JUMP JUMPDEST PUSH1 0x0 SELFBALANCE SWAP1 POP SWAP1 JUMP JUMPDEST PUSH1 0x0 DUP1 SLOAD SWAP1 PUSH2 0x100 EXP SWAP1 DIV PUSH20 0xFFFFFFFFFFFFFFFFFFFFFFFFFFFFFFFFFFFFFFFF AND DUP2 JUMP JUMPDEST PUSH2 0x18B DUP2 PUSH2 0x22A JUMP JUMPDEST DUP3 MSTORE POP POP JUMP JUMPDEST PUSH1 0x0 PUSH2 0x19E PUSH1 0x12 DUP4 PUSH2 0x219 JUMP JUMPDEST SWAP2 POP PUSH2 0x1A9 DUP3 PUSH2 0x266 JUMP JUMPDEST PUSH1 0x20 DUP3 ADD SWAP1 POP SWAP2 SWAP1 POP JUMP JUMPDEST PUSH2 0x1BD DUP2 PUSH2 0x25C JUMP JUMPDEST DUP3 MSTORE POP POP JUMP JUMPDEST PUSH1 0x0 PUSH1 0x20 DUP3 ADD SWAP1 POP PUSH2 0x1D8 PUSH1 0x0 DUP4 ADD DUP5 PUSH2 0x182 JUMP JUMPDEST SWAP3 SWAP2 POP POP JUMP JUMPDEST PUSH1 0x0 PUSH1 0x20 DUP3 ADD SWAP1 POP DUP2 DUP2 SUB PUSH1 0x0 DUP4 ADD MSTORE PUSH2 0x1F7 DUP2 PUSH2 0x191 JUMP JUMPDEST SWAP1 POP SWAP2 SWAP1 POP JUMP JUMPDEST PUSH1 0x0 PUSH1 0x20 DUP3 ADD SWAP1 POP PUSH2 0x213 PUSH1 0x0 DUP4 ADD DUP5 PUSH2 0x1B4 JUMP JUMPDEST SWAP3 SWAP2 POP POP JUMP JUMPDEST PUSH1 0x0 DUP3 DUP3 MSTORE PUSH1 0x20 DUP3 ADD SWAP1 POP SWAP3 SWAP2 POP POP JUMP JUMPDEST PUSH1 0x0 PUSH2 0x235 DUP3 PUSH2 0x23C JUMP JUMPDEST SWAP1 POP SWAP2 SWAP1 POP JUMP JUMPDEST PUSH1 0x0 PUSH20 0xFFFFFFFFFFFFFFFFFFFFFFFFFFFFFFFFFFFFFFFF DUP3 AND SWAP1 POP SWAP2 SWAP1 POP JUMP JUMPDEST PUSH1 0x0 DUP2 SWAP1 POP SWAP2 SWAP1 POP JUMP JUMPDEST PUSH32 0x7472616E73616374696F6E206661696C65640000000000000000000000000000 PUSH1 0x0 DUP3 ADD MSTORE POP JUMP INVALID LOG2 PUSH5 0x6970667358 0x22 SLT KECCAK256 MULMOD 0xCB CALL POP 0x28 0x5F LOG1 0xBE 0xE0 MSTORE DUP10 0xC0 PUSH25 0xB088B0FACACF98FDCC11411384A05CC63D207164736F6C6343 STOP ADDMOD SMOD STOP CALLER "
				},
				"gasEstimates": {
					"creation": {
						"codeDepositCost": "141800",
						"executionCost": "24457",
						"totalCost": "166257"
					},
					"external": {
						"SEND()": "infinite",
						"checkBal()": "339",
						"getter()": "2533"
					}
				},
				"methodIdentifiers": {
					"SEND()": "1f5e1334",
					"checkBal()": "2058ad6b",
					"getter()": "993a04b7"
				}
			},
			"storageLayout": {
				"storage": [
					{
						"astId": 7,
						"contract": "sendEther.sol:sendEther",
						"label": "getter",
						"offset": 0,
						"slot": "0",
						"type": "t_address_payable"
					}
				],
				"types": {
					"t_address_payable": {
						"encoding": "inplace",
						"label": "address payable",
						"numberOfBytes": "20"
					}
				}
			},
			"userdoc": {
				"kind": "user",
				"methods": {},
				"version": 1
			}
		}
	}
}