{
	"sendEther.sol": {
		"sendEther": {
			"abi": [
				{
					"inputs": [],
					"name": "CALL",
					"outputs": [],
					"stateMutability": "nonpayable",
					"type": "function"
				},
				{
					"inputs": [],
					"name": "SEND",
					"outputs": [],
					"stateMutability": "nonpayable",
					"type": "function"
				},
				{
					"inputs": [],
					"name": "TRANSFER",
					"outputs": [],
					"stateMutability": "nonpayable",
					"type": "function"
				},
				{
					"inputs": [],
					"name": "checkBal",
					"outputs": [
						{
							"internalType": "uint256",
							"name": "",
							"type": "uint256"
						}
					],
					"stateMutability": "view",
					"type": "function"
				},
				{
					"inputs": [],
					"name": "getter",
					"outputs": [
						{
							"internalType": "address payable",
							"name": "",
							"type": "address"
						}
					],
					"stateMutability": "view",
					"type": "function"
				},
				{
					"stateMutability": "payable",
					"type": "receive"
				}
			],
			"devdoc": {
				"kind": "dev",
				"methods": {},
				"version": 1
			},
			"evm": {
				"assembly": "    /* \"sendEther.sol\":58:695  contract sendEther{... */\n  mstore(0x40, 0x80)\n    /* \"sendEther.sol\":122:164  0xAb8483F64d9C6d1EcF9b849Ae677dD3315835cb2 */\n  0xab8483f64d9c6d1ecf9b849ae677dd3315835cb2\n    /* \"sendEther.sol\":82:165  address payable public getter = payable(0xAb8483F64d9C6d1EcF9b849Ae677dD3315835cb2) */\n  0x00\n  dup1\n  0x0100\n  exp\n  dup2\n  sload\n  dup2\n  0xffffffffffffffffffffffffffffffffffffffff\n  mul\n  not\n  and\n  swap1\n  dup4\n  0xffffffffffffffffffffffffffffffffffffffff\n  and\n  mul\n  or\n  swap1\n  sstore\n  pop\n    /* \"sendEther.sol\":58:695  contract sendEther{... */\n  callvalue\n  dup1\n  iszero\n  tag_1\n  jumpi\n  0x00\n  dup1\n  revert\ntag_1:\n  pop\n  dataSize(sub_0)\n  dup1\n  dataOffset(sub_0)\n  0x00\n  codecopy\n  0x00\n  return\nstop\n\nsub_0: assembly {\n        /* \"sendEther.sol\":58:695  contract sendEther{... */\n      mstore(0x40, 0x80)\n      jumpi(tag_1, lt(calldatasize, 0x04))\n      shr(0xe0, calldataload(0x00))\n      dup1\n      0x1cd48842\n      eq\n      tag_3\n      jumpi\n      dup1\n      0x1f5e1334\n      eq\n      tag_4\n      jumpi\n      dup1\n      0x2058ad6b\n      eq\n      tag_5\n      jumpi\n      dup1\n      0x76420e1d\n      eq\n      tag_6\n      jumpi\n      dup1\n      0x993a04b7\n      eq\n      tag_7\n      jumpi\n      jump(tag_2)\n    tag_1:\n      jumpi(tag_2, calldatasize)\n      stop\n    tag_2:\n      0x00\n      dup1\n      revert\n        /* \"sendEther.sol\":526:693  function CALL() public {... */\n    tag_3:\n      callvalue\n      dup1\n      iszero\n      tag_10\n      jumpi\n      0x00\n      dup1\n      revert\n    tag_10:\n      pop\n      tag_11\n      tag_12\n      jump\t// in\n    tag_11:\n      stop\n        /* \"sendEther.sol\":308:435  function SEND() public{... */\n    tag_4:\n      callvalue\n      dup1\n      iszero\n      tag_13\n      jumpi\n      0x00\n      dup1\n      revert\n    tag_13:\n      pop\n      tag_14\n      tag_15\n      jump\t// in\n    tag_14:\n      stop\n        /* \"sendEther.sol\":212:302  function checkBal() public view returns(uint){... */\n    tag_5:\n      callvalue\n      dup1\n      iszero\n      tag_16\n      jumpi\n      0x00\n      dup1\n      revert\n    tag_16:\n      pop\n      tag_17\n      tag_18\n      jump\t// in\n    tag_17:\n      mload(0x40)\n      tag_19\n      swap2\n      swap1\n      tag_20\n      jump\t// in\n    tag_19:\n      mload(0x40)\n      dup1\n      swap2\n      sub\n      swap1\n      return\n        /* \"sendEther.sol\":441:520  function TRANSFER() public{... */\n    tag_6:\n      callvalue\n      dup1\n      iszero\n      tag_21\n      jumpi\n      0x00\n      dup1\n      revert\n    tag_21:\n      pop\n      tag_22\n      tag_23\n      jump\t// in\n    tag_22:\n      stop\n        /* \"sendEther.sol\":82:165  address payable public getter = payable(0xAb8483F64d9C6d1EcF9b849Ae677dD3315835cb2) */\n    tag_7:\n      callvalue\n      dup1\n      iszero\n      tag_24\n      jumpi\n      0x00\n      dup1\n      revert\n    tag_24:\n      pop\n      tag_25\n      tag_26\n      jump\t// in\n    tag_25:\n      mload(0x40)\n      tag_27\n      swap2\n      swap1\n      tag_28\n      jump\t// in\n    tag_27:\n      mload(0x40)\n      dup1\n      swap2\n      sub\n      swap1\n      return\n        /* \"sendEther.sol\":526:693  function CALL() public {... */\n    tag_12:\n        /* \"sendEther.sol\":563:572  bool sent */\n      0x00\n        /* \"sendEther.sol\":575:592  bytes memory data */\n      dup1\n        /* \"sendEther.sol\":597:603  getter */\n      0x00\n      dup1\n      sload\n      swap1\n      0x0100\n      exp\n      swap1\n      div\n      0xffffffffffffffffffffffffffffffffffffffff\n      and\n        /* \"sendEther.sol\":597:608  getter.call */\n      0xffffffffffffffffffffffffffffffffffffffff\n      and\n        /* \"sendEther.sol\":615:634  1000000000000000000 */\n      0x0de0b6b3a7640000\n        /* \"sendEther.sol\":597:639  getter.call{value:1000000000000000000}(\"\") */\n      mload(0x40)\n      tag_30\n      swap1\n      tag_31\n      jump\t// in\n    tag_30:\n      0x00\n      mload(0x40)\n      dup1\n      dup4\n      sub\n      dup2\n      dup6\n      dup8\n      gas\n      call\n      swap3\n      pop\n      pop\n      pop\n      returndatasize\n      dup1\n      0x00\n      dup2\n      eq\n      tag_34\n      jumpi\n      mload(0x40)\n      swap2\n      pop\n      and(add(returndatasize, 0x3f), not(0x1f))\n      dup3\n      add\n      0x40\n      mstore\n      returndatasize\n      dup3\n      mstore\n      returndatasize\n      0x00\n      0x20\n      dup5\n      add\n      returndatacopy\n      jump(tag_33)\n    tag_34:\n      0x60\n      swap2\n      pop\n    tag_33:\n      pop\n        /* \"sendEther.sol\":562:639  (bool sent , bytes memory data) =  getter.call{value:1000000000000000000}(\"\") */\n      swap2\n      pop\n      swap2\n      pop\n        /* \"sendEther.sol\":660:664  sent */\n      dup2\n        /* \"sendEther.sol\":652:686  require(sent,\"transaction failed\") */\n      tag_35\n      jumpi\n      mload(0x40)\n      0x08c379a000000000000000000000000000000000000000000000000000000000\n      dup2\n      mstore\n      0x04\n      add\n      tag_36\n      swap1\n      tag_37\n      jump\t// in\n    tag_36:\n      mload(0x40)\n      dup1\n      swap2\n      sub\n      swap1\n      revert\n    tag_35:\n        /* \"sendEther.sol\":549:693  {... */\n      pop\n      pop\n        /* \"sendEther.sol\":526:693  function CALL() public {... */\n      jump\t// out\n        /* \"sendEther.sol\":308:435  function SEND() public{... */\n    tag_15:\n        /* \"sendEther.sol\":340:349  bool sent */\n      0x00\n        /* \"sendEther.sol\":352:358  getter */\n      dup1\n      0x00\n      swap1\n      sload\n      swap1\n      0x0100\n      exp\n      swap1\n      div\n      0xffffffffffffffffffffffffffffffffffffffff\n      and\n        /* \"sendEther.sol\":352:363  getter.send */\n      0xffffffffffffffffffffffffffffffffffffffff\n      and\n        /* \"sendEther.sol\":352:384  getter.send(1000000000000000000) */\n      0x08fc\n        /* \"sendEther.sol\":364:383  1000000000000000000 */\n      0x0de0b6b3a7640000\n        /* \"sendEther.sol\":352:384  getter.send(1000000000000000000) */\n      swap1\n      dup2\n      iszero\n      mul\n      swap1\n      mload(0x40)\n      0x00\n      mload(0x40)\n      dup1\n      dup4\n      sub\n      dup2\n      dup6\n      dup9\n      dup9\n      call\n      swap4\n      pop\n      pop\n      pop\n      pop\n        /* \"sendEther.sol\":340:384  bool sent = getter.send(1000000000000000000) */\n      swap1\n      pop\n        /* \"sendEther.sol\":402:406  sent */\n      dup1\n        /* \"sendEther.sol\":394:428  require(sent,\"transaction failed\") */\n      tag_40\n      jumpi\n      mload(0x40)\n      0x08c379a000000000000000000000000000000000000000000000000000000000\n      dup2\n      mstore\n      0x04\n      add\n      tag_41\n      swap1\n      tag_37\n      jump\t// in\n    tag_41:\n      mload(0x40)\n      dup1\n      swap2\n      sub\n      swap1\n      revert\n    tag_40:\n        /* \"sendEther.sol\":330:435  {... */\n      pop\n        /* \"sendEther.sol\":308:435  function SEND() public{... */\n      jump\t// out\n        /* \"sendEther.sol\":212:302  function checkBal() public view returns(uint){... */\n    tag_18:\n        /* \"sendEther.sol\":252:256  uint */\n      0x00\n        /* \"sendEther.sol\":274:295  address(this).balance */\n      selfbalance\n        /* \"sendEther.sol\":267:295  return address(this).balance */\n      swap1\n      pop\n        /* \"sendEther.sol\":212:302  function checkBal() public view returns(uint){... */\n      swap1\n      jump\t// out\n        /* \"sendEther.sol\":441:520  function TRANSFER() public{... */\n    tag_23:\n        /* \"sendEther.sol\":477:483  getter */\n      0x00\n      dup1\n      sload\n      swap1\n      0x0100\n      exp\n      swap1\n      div\n      0xffffffffffffffffffffffffffffffffffffffff\n      and\n        /* \"sendEther.sol\":477:492  getter.transfer */\n      0xffffffffffffffffffffffffffffffffffffffff\n      and\n        /* \"sendEther.sol\":477:513  getter.transfer(1000000000000000000) */\n      0x08fc\n        /* \"sendEther.sol\":493:512  1000000000000000000 */\n      0x0de0b6b3a7640000\n        /* \"sendEther.sol\":477:513  getter.transfer(1000000000000000000) */\n      swap1\n      dup2\n      iszero\n      mul\n      swap1\n      mload(0x40)\n      0x00\n      mload(0x40)\n      dup1\n      dup4\n      sub\n      dup2\n      dup6\n      dup9\n      dup9\n      call\n      swap4\n      pop\n      pop\n      pop\n      pop\n      iszero\n      dup1\n      iszero\n      tag_45\n      jumpi\n      returndatasize\n      0x00\n      dup1\n      returndatacopy\n      revert(0x00, returndatasize)\n    tag_45:\n      pop\n        /* \"sendEther.sol\":441:520  function TRANSFER() public{... */\n      jump\t// out\n        /* \"sendEther.sol\":82:165  address payable public getter = payable(0xAb8483F64d9C6d1EcF9b849Ae677dD3315835cb2) */\n    tag_26:\n      0x00\n      dup1\n      sload\n      swap1\n      0x0100\n      exp\n      swap1\n      div\n      0xffffffffffffffffffffffffffffffffffffffff\n      and\n      dup2\n      jump\t// out\n        /* \"#utility.yul\":7:149   */\n    tag_47:\n        /* \"#utility.yul\":110:142   */\n      tag_49\n        /* \"#utility.yul\":136:141   */\n      dup2\n        /* \"#utility.yul\":110:142   */\n      tag_50\n      jump\t// in\n    tag_49:\n        /* \"#utility.yul\":105:108   */\n      dup3\n        /* \"#utility.yul\":98:143   */\n      mstore\n        /* \"#utility.yul\":7:149   */\n      pop\n      pop\n      jump\t// out\n        /* \"#utility.yul\":155:553   */\n    tag_51:\n        /* \"#utility.yul\":314:317   */\n      0x00\n        /* \"#utility.yul\":335:418   */\n      tag_53\n        /* \"#utility.yul\":416:417   */\n      0x00\n        /* \"#utility.yul\":411:414   */\n      dup4\n        /* \"#utility.yul\":335:418   */\n      tag_54\n      jump\t// in\n    tag_53:\n        /* \"#utility.yul\":328:418   */\n      swap2\n      pop\n        /* \"#utility.yul\":427:520   */\n      tag_55\n        /* \"#utility.yul\":516:519   */\n      dup3\n        /* \"#utility.yul\":427:520   */\n      tag_56\n      jump\t// in\n    tag_55:\n        /* \"#utility.yul\":545:546   */\n      0x00\n        /* \"#utility.yul\":540:543   */\n      dup3\n        /* \"#utility.yul\":536:547   */\n      add\n        /* \"#utility.yul\":529:547   */\n      swap1\n      pop\n        /* \"#utility.yul\":155:553   */\n      swap2\n      swap1\n      pop\n      jump\t// out\n        /* \"#utility.yul\":559:925   */\n    tag_57:\n        /* \"#utility.yul\":701:704   */\n      0x00\n        /* \"#utility.yul\":722:789   */\n      tag_59\n        /* \"#utility.yul\":786:788   */\n      0x12\n        /* \"#utility.yul\":781:784   */\n      dup4\n        /* \"#utility.yul\":722:789   */\n      tag_60\n      jump\t// in\n    tag_59:\n        /* \"#utility.yul\":715:789   */\n      swap2\n      pop\n        /* \"#utility.yul\":798:891   */\n      tag_61\n        /* \"#utility.yul\":887:890   */\n      dup3\n        /* \"#utility.yul\":798:891   */\n      tag_62\n      jump\t// in\n    tag_61:\n        /* \"#utility.yul\":916:918   */\n      0x20\n        /* \"#utility.yul\":911:914   */\n      dup3\n        /* \"#utility.yul\":907:919   */\n      add\n        /* \"#utility.yul\":900:919   */\n      swap1\n      pop\n        /* \"#utility.yul\":559:925   */\n      swap2\n      swap1\n      pop\n      jump\t// out\n        /* \"#utility.yul\":931:1049   */\n    tag_63:\n        /* \"#utility.yul\":1018:1042   */\n      tag_65\n        /* \"#utility.yul\":1036:1041   */\n      dup2\n        /* \"#utility.yul\":1018:1042   */\n      tag_66\n      jump\t// in\n    tag_65:\n        /* \"#utility.yul\":1013:1016   */\n      dup3\n        /* \"#utility.yul\":1006:1043   */\n      mstore\n        /* \"#utility.yul\":931:1049   */\n      pop\n      pop\n      jump\t// out\n        /* \"#utility.yul\":1055:1434   */\n    tag_31:\n        /* \"#utility.yul\":1239:1242   */\n      0x00\n        /* \"#utility.yul\":1261:1408   */\n      tag_68\n        /* \"#utility.yul\":1404:1407   */\n      dup3\n        /* \"#utility.yul\":1261:1408   */\n      tag_51\n      jump\t// in\n    tag_68:\n        /* \"#utility.yul\":1254:1408   */\n      swap2\n      pop\n        /* \"#utility.yul\":1425:1428   */\n      dup2\n        /* \"#utility.yul\":1418:1428   */\n      swap1\n      pop\n        /* \"#utility.yul\":1055:1434   */\n      swap2\n      swap1\n      pop\n      jump\t// out\n        /* \"#utility.yul\":1440:1694   */\n    tag_28:\n        /* \"#utility.yul\":1549:1553   */\n      0x00\n        /* \"#utility.yul\":1587:1589   */\n      0x20\n        /* \"#utility.yul\":1576:1585   */\n      dup3\n        /* \"#utility.yul\":1572:1590   */\n      add\n        /* \"#utility.yul\":1564:1590   */\n      swap1\n      pop\n        /* \"#utility.yul\":1600:1687   */\n      tag_70\n        /* \"#utility.yul\":1684:1685   */\n      0x00\n        /* \"#utility.yul\":1673:1682   */\n      dup4\n        /* \"#utility.yul\":1669:1686   */\n      add\n        /* \"#utility.yul\":1660:1666   */\n      dup5\n        /* \"#utility.yul\":1600:1687   */\n      tag_47\n      jump\t// in\n    tag_70:\n        /* \"#utility.yul\":1440:1694   */\n      swap3\n      swap2\n      pop\n      pop\n      jump\t// out\n        /* \"#utility.yul\":1700:2119   */\n    tag_37:\n        /* \"#utility.yul\":1866:1870   */\n      0x00\n        /* \"#utility.yul\":1904:1906   */\n      0x20\n        /* \"#utility.yul\":1893:1902   */\n      dup3\n        /* \"#utility.yul\":1889:1907   */\n      add\n        /* \"#utility.yul\":1881:1907   */\n      swap1\n      pop\n        /* \"#utility.yul\":1953:1962   */\n      dup2\n        /* \"#utility.yul\":1947:1951   */\n      dup2\n        /* \"#utility.yul\":1943:1963   */\n      sub\n        /* \"#utility.yul\":1939:1940   */\n      0x00\n        /* \"#utility.yul\":1928:1937   */\n      dup4\n        /* \"#utility.yul\":1924:1941   */\n      add\n        /* \"#utility.yul\":1917:1964   */\n      mstore\n        /* \"#utility.yul\":1981:2112   */\n      tag_72\n        /* \"#utility.yul\":2107:2111   */\n      dup2\n        /* \"#utility.yul\":1981:2112   */\n      tag_57\n      jump\t// in\n    tag_72:\n        /* \"#utility.yul\":1973:2112   */\n      swap1\n      pop\n        /* \"#utility.yul\":1700:2119   */\n      swap2\n      swap1\n      pop\n      jump\t// out\n        /* \"#utility.yul\":2125:2347   */\n    tag_20:\n        /* \"#utility.yul\":2218:2222   */\n      0x00\n        /* \"#utility.yul\":2256:2258   */\n      0x20\n        /* \"#utility.yul\":2245:2254   */\n      dup3\n        /* \"#utility.yul\":2241:2259   */\n      add\n        /* \"#utility.yul\":2233:2259   */\n      swap1\n      pop\n        /* \"#utility.yul\":2269:2340   */\n      tag_74\n        /* \"#utility.yul\":2337:2338   */\n      0x00\n        /* \"#utility.yul\":2326:2335   */\n      dup4\n        /* \"#utility.yul\":2322:2339   */\n      add\n        /* \"#utility.yul\":2313:2319   */\n      dup5\n        /* \"#utility.yul\":2269:2340   */\n      tag_63\n      jump\t// in\n    tag_74:\n        /* \"#utility.yul\":2125:2347   */\n      swap3\n      swap2\n      pop\n      pop\n      jump\t// out\n        /* \"#utility.yul\":2353:2500   */\n    tag_54:\n        /* \"#utility.yul\":2454:2465   */\n      0x00\n        /* \"#utility.yul\":2491:2494   */\n      dup2\n        /* \"#utility.yul\":2476:2494   */\n      swap1\n      pop\n        /* \"#utility.yul\":2353:2500   */\n      swap3\n      swap2\n      pop\n      pop\n      jump\t// out\n        /* \"#utility.yul\":2506:2675   */\n    tag_60:\n        /* \"#utility.yul\":2590:2601   */\n      0x00\n        /* \"#utility.yul\":2624:2630   */\n      dup3\n        /* \"#utility.yul\":2619:2622   */\n      dup3\n        /* \"#utility.yul\":2612:2631   */\n      mstore\n        /* \"#utility.yul\":2664:2668   */\n      0x20\n        /* \"#utility.yul\":2659:2662   */\n      dup3\n        /* \"#utility.yul\":2655:2669   */\n      add\n        /* \"#utility.yul\":2640:2669   */\n      swap1\n      pop\n        /* \"#utility.yul\":2506:2675   */\n      swap3\n      swap2\n      pop\n      pop\n      jump\t// out\n        /* \"#utility.yul\":2681:2785   */\n    tag_50:\n        /* \"#utility.yul\":2726:2733   */\n      0x00\n        /* \"#utility.yul\":2755:2779   */\n      tag_78\n        /* \"#utility.yul\":2773:2778   */\n      dup3\n        /* \"#utility.yul\":2755:2779   */\n      tag_79\n      jump\t// in\n    tag_78:\n        /* \"#utility.yul\":2744:2779   */\n      swap1\n      pop\n        /* \"#utility.yul\":2681:2785   */\n      swap2\n      swap1\n      pop\n      jump\t// out\n        /* \"#utility.yul\":2791:2917   */\n    tag_79:\n        /* \"#utility.yul\":2828:2835   */\n      0x00\n        /* \"#utility.yul\":2868:2910   */\n      0xffffffffffffffffffffffffffffffffffffffff\n        /* \"#utility.yul\":2861:2866   */\n      dup3\n        /* \"#utility.yul\":2857:2911   */\n      and\n        /* \"#utility.yul\":2846:2911   */\n      swap1\n      pop\n        /* \"#utility.yul\":2791:2917   */\n      swap2\n      swap1\n      pop\n      jump\t// out\n        /* \"#utility.yul\":2923:3000   */\n    tag_66:\n        /* \"#utility.yul\":2960:2967   */\n      0x00\n        /* \"#utility.yul\":2989:2994   */\n      dup2\n        /* \"#utility.yul\":2978:2994   */\n      swap1\n      pop\n        /* \"#utility.yul\":2923:3000   */\n      swap2\n      swap1\n      pop\n      jump\t// out\n        /* \"#utility.yul\":3006:3120   */\n    tag_56:\n      pop\n      jump\t// out\n        /* \"#utility.yul\":3126:3294   */\n    tag_62:\n        /* \"#utility.yul\":3266:3286   */\n      0x7472616e73616374696f6e206661696c65640000000000000000000000000000\n        /* \"#utility.yul\":3262:3263   */\n      0x00\n        /* \"#utility.yul\":3254:3260   */\n      dup3\n        /* \"#utility.yul\":3250:3264   */\n      add\n        /* \"#utility.yul\":3243:3287   */\n      mstore\n        /* \"#utility.yul\":3126:3294   */\n      pop\n      jump\t// out\n\n    auxdata: 0xa26469706673582212207ee1c7e9d360fd77454022b79bdff3d912e06f8289e50d207505cac0ae0e133464736f6c63430008070033\n}\n",
				"bytecode": {
					"linkReferences": {},
					"object": "608060405273ab8483f64d9c6d1ecf9b849ae677dd3315835cb26000806101000a81548173ffffffffffffffffffffffffffffffffffffffff021916908373ffffffffffffffffffffffffffffffffffffffff16021790555034801561006457600080fd5b5061049a806100746000396000f3fe60806040526004361061004e5760003560e01c80631cd488421461005a5780631f5e1334146100715780632058ad6b1461008857806376420e1d146100b3578063993a04b7146100ca57610055565b3661005557005b600080fd5b34801561006657600080fd5b5061006f6100f5565b005b34801561007d57600080fd5b506100866101cf565b005b34801561009457600080fd5b5061009d610274565b6040516100aa91906103c5565b60405180910390f35b3480156100bf57600080fd5b506100c861027c565b005b3480156100d657600080fd5b506100df6102ed565b6040516100ec919061038a565b60405180910390f35b60008060008054906101000a900473ffffffffffffffffffffffffffffffffffffffff1673ffffffffffffffffffffffffffffffffffffffff16670de0b6b3a764000060405161014490610375565b60006040518083038185875af1925050503d8060008114610181576040519150601f19603f3d011682016040523d82523d6000602084013e610186565b606091505b5091509150816101cb576040517f08c379a00000000000000000000000000000000000000000000000000000000081526004016101c2906103a5565b60405180910390fd5b5050565b60008060009054906101000a900473ffffffffffffffffffffffffffffffffffffffff1673ffffffffffffffffffffffffffffffffffffffff166108fc670de0b6b3a76400009081150290604051600060405180830381858888f19350505050905080610271576040517f08c379a0000000000000000000000000000000000000000000000000000000008152600401610268906103a5565b60405180910390fd5b50565b600047905090565b60008054906101000a900473ffffffffffffffffffffffffffffffffffffffff1673ffffffffffffffffffffffffffffffffffffffff166108fc670de0b6b3a76400009081150290604051600060405180830381858888f193505050501580156102ea573d6000803e3d6000fd5b50565b60008054906101000a900473ffffffffffffffffffffffffffffffffffffffff1681565b61031a816103fc565b82525050565b600061032d6000836103e0565b915061033882610438565b600082019050919050565b60006103506012836103eb565b915061035b8261043b565b602082019050919050565b61036f8161042e565b82525050565b600061038082610320565b9150819050919050565b600060208201905061039f6000830184610311565b92915050565b600060208201905081810360008301526103be81610343565b9050919050565b60006020820190506103da6000830184610366565b92915050565b600081905092915050565b600082825260208201905092915050565b60006104078261040e565b9050919050565b600073ffffffffffffffffffffffffffffffffffffffff82169050919050565b6000819050919050565b50565b7f7472616e73616374696f6e206661696c6564000000000000000000000000000060008201525056fea26469706673582212207ee1c7e9d360fd77454022b79bdff3d912e06f8289e50d207505cac0ae0e133464736f6c63430008070033",
					"opcodes": "PUSH1 0x80 PUSH1 0x40 MSTORE PUSH20 0xAB8483F64D9C6D1ECF9B849AE677DD3315835CB2 PUSH1 0x0 DUP1 PUSH2 0x100 EXP DUP2 SLOAD DUP2 PUSH20 0xFFFFFFFFFFFFFFFFFFFFFFFFFFFFFFFFFFFFFFFF MUL NOT AND SWAP1 DUP4 PUSH20 0xFFFFFFFFFFFFFFFFFFFFFFFFFFFFFFFFFFFFFFFF AND MUL OR SWAP1 SSTORE POP CALLVALUE DUP1 ISZERO PUSH2 0x64 JUMPI PUSH1 0x0 DUP1 REVERT JUMPDEST POP PUSH2 0x49A DUP1 PUSH2 0x74 PUSH1 0x0 CODECOPY PUSH1 0x0 RETURN INVALID PUSH1 0x80 PUSH1 0x40 MSTORE PUSH1 0x4 CALLDATASIZE LT PUSH2 0x4E JUMPI PUSH1 0x0 CALLDATALOAD PUSH1 0xE0 SHR DUP1 PUSH4 0x1CD48842 EQ PUSH2 0x5A JUMPI DUP1 PUSH4 0x1F5E1334 EQ PUSH2 0x71 JUMPI DUP1 PUSH4 0x2058AD6B EQ PUSH2 0x88 JUMPI DUP1 PUSH4 0x76420E1D EQ PUSH2 0xB3 JUMPI DUP1 PUSH4 0x993A04B7 EQ PUSH2 0xCA JUMPI PUSH2 0x55 JUMP JUMPDEST CALLDATASIZE PUSH2 0x55 JUMPI STOP JUMPDEST PUSH1 0x0 DUP1 REVERT JUMPDEST CALLVALUE DUP1 ISZERO PUSH2 0x66 JUMPI PUSH1 0x0 DUP1 REVERT JUMPDEST POP PUSH2 0x6F PUSH2 0xF5 JUMP JUMPDEST STOP JUMPDEST CALLVALUE DUP1 ISZERO PUSH2 0x7D JUMPI PUSH1 0x0 DUP1 REVERT JUMPDEST POP PUSH2 0x86 PUSH2 0x1CF JUMP JUMPDEST STOP JUMPDEST CALLVALUE DUP1 ISZERO PUSH2 0x94 JUMPI PUSH1 0x0 DUP1 REVERT JUMPDEST POP PUSH2 0x9D PUSH2 0x274 JUMP JUMPDEST PUSH1 0x40 MLOAD PUSH2 0xAA SWAP2 SWAP1 PUSH2 0x3C5 JUMP JUMPDEST PUSH1 0x40 MLOAD DUP1 SWAP2 SUB SWAP1 RETURN JUMPDEST CALLVALUE DUP1 ISZERO PUSH2 0xBF JUMPI PUSH1 0x0 DUP1 REVERT JUMPDEST POP PUSH2 0xC8 PUSH2 0x27C JUMP JUMPDEST STOP JUMPDEST CALLVALUE DUP1 ISZERO PUSH2 0xD6 JUMPI PUSH1 0x0 DUP1 REVERT JUMPDEST POP PUSH2 0xDF PUSH2 0x2ED JUMP JUMPDEST PUSH1 0x40 MLOAD PUSH2 0xEC SWAP2 SWAP1 PUSH2 0x38A JUMP JUMPDEST PUSH1 0x40 MLOAD DUP1 SWAP2 SUB SWAP1 RETURN JUMPDEST PUSH1 0x0 DUP1 PUSH1 0x0 DUP1 SLOAD SWAP1 PUSH2 0x100 EXP SWAP1 DIV PUSH20 0xFFFFFFFFFFFFFFFFFFFFFFFFFFFFFFFFFFFFFFFF AND PUSH20 0xFFFFFFFFFFFFFFFFFFFFFFFFFFFFFFFFFFFFFFFF AND PUSH8 0xDE0B6B3A7640000 PUSH1 0x40 MLOAD PUSH2 0x144 SWAP1 PUSH2 0x375 JUMP JUMPDEST PUSH1 0x0 PUSH1 0x40 MLOAD DUP1 DUP4 SUB DUP2 DUP6 DUP8 GAS CALL SWAP3 POP POP POP RETURNDATASIZE DUP1 PUSH1 0x0 DUP2 EQ PUSH2 0x181 JUMPI PUSH1 0x40 MLOAD SWAP2 POP PUSH1 0x1F NOT PUSH1 0x3F RETURNDATASIZE ADD AND DUP3 ADD PUSH1 0x40 MSTORE RETURNDATASIZE DUP3 MSTORE RETURNDATASIZE PUSH1 0x0 PUSH1 0x20 DUP5 ADD RETURNDATACOPY PUSH2 0x186 JUMP JUMPDEST PUSH1 0x60 SWAP2 POP JUMPDEST POP SWAP2 POP SWAP2 POP DUP2 PUSH2 0x1CB JUMPI PUSH1 0x40 MLOAD PUSH32 0x8C379A000000000000000000000000000000000000000000000000000000000 DUP2 MSTORE PUSH1 0x4 ADD PUSH2 0x1C2 SWAP1 PUSH2 0x3A5 JUMP JUMPDEST PUSH1 0x40 MLOAD DUP1 SWAP2 SUB SWAP1 REVERT JUMPDEST POP POP JUMP JUMPDEST PUSH1 0x0 DUP1 PUSH1 0x0 SWAP1 SLOAD SWAP1 PUSH2 0x100 EXP SWAP1 DIV PUSH20 0xFFFFFFFFFFFFFFFFFFFFFFFFFFFFFFFFFFFFFFFF AND PUSH20 0xFFFFFFFFFFFFFFFFFFFFFFFFFFFFFFFFFFFFFFFF AND PUSH2 0x8FC PUSH8 0xDE0B6B3A7640000 SWAP1 DUP2 ISZERO MUL SWAP1 PUSH1 0x40 MLOAD PUSH1 0x0 PUSH1 0x40 MLOAD DUP1 DUP4 SUB DUP2 DUP6 DUP9 DUP9 CALL SWAP4 POP POP POP POP SWAP1 POP DUP1 PUSH2 0x271 JUMPI PUSH1 0x40 MLOAD PUSH32 0x8C379A000000000000000000000000000000000000000000000000000000000 DUP2 MSTORE PUSH1 0x4 ADD PUSH2 0x268 SWAP1 PUSH2 0x3A5 JUMP JUMPDEST PUSH1 0x40 MLOAD DUP1 SWAP2 SUB SWAP1 REVERT JUMPDEST POP JUMP JUMPDEST PUSH1 0x0 SELFBALANCE SWAP1 POP SWAP1 JUMP JUMPDEST PUSH1 0x0 DUP1 SLOAD SWAP1 PUSH2 0x100 EXP SWAP1 DIV PUSH20 0xFFFFFFFFFFFFFFFFFFFFFFFFFFFFFFFFFFFFFFFF AND PUSH20 0xFFFFFFFFFFFFFFFFFFFFFFFFFFFFFFFFFFFFFFFF AND PUSH2 0x8FC PUSH8 0xDE0B6B3A7640000 SWAP1 DUP2 ISZERO MUL SWAP1 PUSH1 0x40 MLOAD PUSH1 0x0 PUSH1 0x40 MLOAD DUP1 DUP4 SUB DUP2 DUP6 DUP9 DUP9 CALL SWAP4 POP POP POP POP ISZERO DUP1 ISZERO PUSH2 0x2EA JUMPI RETURNDATASIZE PUSH1 0x0 DUP1 RETURNDATACOPY RETURNDATASIZE PUSH1 0x0 REVERT JUMPDEST POP JUMP JUMPDEST PUSH1 0x0 DUP1 SLOAD SWAP1 PUSH2 0x100 EXP SWAP1 DIV PUSH20 0xFFFFFFFFFFFFFFFFFFFFFFFFFFFFFFFFFFFFFFFF AND DUP2 JUMP JUMPDEST PUSH2 0x31A DUP2 PUSH2 0x3FC JUMP JUMPDEST DUP3 MSTORE POP POP JUMP JUMPDEST PUSH1 0x0 PUSH2 0x32D PUSH1 0x0 DUP4 PUSH2 0x3E0 JUMP JUMPDEST SWAP2 POP PUSH2 0x338 DUP3 PUSH2 0x438 JUMP JUMPDEST PUSH1 0x0 DUP3 ADD SWAP1 POP SWAP2 SWAP1 POP JUMP JUMPDEST PUSH1 0x0 PUSH2 0x350 PUSH1 0x12 DUP4 PUSH2 0x3EB JUMP JUMPDEST SWAP2 POP PUSH2 0x35B DUP3 PUSH2 0x43B JUMP JUMPDEST PUSH1 0x20 DUP3 ADD SWAP1 POP SWAP2 SWAP1 POP JUMP JUMPDEST PUSH2 0x36F DUP2 PUSH2 0x42E JUMP JUMPDEST DUP3 MSTORE POP POP JUMP JUMPDEST PUSH1 0x0 PUSH2 0x380 DUP3 PUSH2 0x320 JUMP JUMPDEST SWAP2 POP DUP2 SWAP1 POP SWAP2 SWAP1 POP JUMP JUMPDEST PUSH1 0x0 PUSH1 0x20 DUP3 ADD SWAP1 POP PUSH2 0x39F PUSH1 0x0 DUP4 ADD DUP5 PUSH2 0x311 JUMP JUMPDEST SWAP3 SWAP2 POP POP JUMP JUMPDEST PUSH1 0x0 PUSH1 0x20 DUP3 ADD SWAP1 POP DUP2 DUP2 SUB PUSH1 0x0 DUP4 ADD MSTORE PUSH2 0x3BE DUP2 PUSH2 0x343 JUMP JUMPDEST SWAP1 POP SWAP2 SWAP1 POP JUMP JUMPDEST PUSH1 0x0 PUSH1 0x20 DUP3 ADD SWAP1 POP PUSH2 0x3DA PUSH1 0x0 DUP4 ADD DUP5 PUSH2 0x366 JUMP JUMPDEST SWAP3 SWAP2 POP POP JUMP JUMPDEST PUSH1 0x0 DUP2 SWAP1 POP SWAP3 SWAP2 POP POP JUMP JUMPDEST PUSH1 0x0 DUP3 DUP3 MSTORE PUSH1 0x20 DUP3 ADD SWAP1 POP SWAP3 SWAP2 POP POP JUMP JUMPDEST PUSH1 0x0 PUSH2 0x407 DUP3 PUSH2 0x40E JUMP JUMPDEST SWAP1 POP SWAP2 SWAP1 POP JUMP JUMPDEST PUSH1 0x0 PUSH20 0xFFFFFFFFFFFFFFFFFFFFFFFFFFFFFFFFFFFFFFFF DUP3 AND SWAP1 POP SWAP2 SWAP1 POP JUMP JUMPDEST PUSH1 0x0 DUP2 SWAP1 POP SWAP2 SWAP1 POP JUMP JUMPDEST POP JUMP JUMPDEST PUSH32 0x7472616E73616374696F6E206661696C65640000000000000000000000000000 PUSH1 0x0 DUP3 ADD MSTORE POP JUMP INVALID LOG2 PUSH5 0x6970667358 0x22 SLT KECCAK256 PUSH31 0xE1C7E9D360FD77454022B79BDFF3D912E06F8289E50D207505CAC0AE0E1334 PUSH5 0x736F6C6343 STOP ADDMOD SMOD STOP CALLER "
				},
				"gasEstimates": {
					"creation": {
						"codeDepositCost": "235600",
						"executionCost": "24542",
						"totalCost": "260142"
					},
					"external": {
						"CALL()": "infinite",
						"SEND()": "infinite",
						"TRANSFER()": "infinite",
						"checkBal()": "361",
						"getter()": "2577"
					}
				},
				"methodIdentifiers": {
					"CALL()": "1cd48842",
					"SEND()": "1f5e1334",
					"TRANSFER()": "76420e1d",
					"checkBal()": "2058ad6b",
					"getter()": "993a04b7"
				}
			},
			"storageLayout": {
				"storage": [
					{
						"astId": 7,
						"contract": "sendEther.sol:sendEther",
						"label": "getter",
						"offset": 0,
						"slot": "0",
						"type": "t_address_payable"
					}
				],
				"types": {
					"t_address_payable": {
						"encoding": "inplace",
						"label": "address payable",
						"numberOfBytes": "20"
					}
				}
			},
			"userdoc": {
				"kind": "user",
				"methods": {},
				"version": 1
			}
		}
	}
}