{
	"structure.sol": {
		"structure": {
			"abi": [
				{
					"inputs": [
						{
							"internalType": "string",
							"name": "_x",
							"type": "string"
						},
						{
							"internalType": "uint256",
							"name": "_y",
							"type": "uint256"
						},
						{
							"internalType": "address",
							"name": "_z",
							"type": "address"
						}
					],
					"name": "setValue",
					"outputs": [],
					"stateMutability": "nonpayable",
					"type": "function"
				}
			],
			"devdoc": {
				"kind": "dev",
				"methods": {},
				"version": 1
			},
			"evm": {
				"assembly": "    /* \"structure.sol\":58:292  contract structure{... */\n  mstore(0x40, 0x80)\n  callvalue\n  dup1\n  iszero\n  tag_1\n  jumpi\n  0x00\n  dup1\n  revert\ntag_1:\n  pop\n  dataSize(sub_0)\n  dup1\n  dataOffset(sub_0)\n  0x00\n  codecopy\n  0x00\n  return\nstop\n\nsub_0: assembly {\n        /* \"structure.sol\":58:292  contract structure{... */\n      mstore(0x40, 0x80)\n      callvalue\n      dup1\n      iszero\n      tag_1\n      jumpi\n      0x00\n      dup1\n      revert\n    tag_1:\n      pop\n      jumpi(tag_2, lt(calldatasize, 0x04))\n      shr(0xe0, calldataload(0x00))\n      dup1\n      0xb771af3d\n      eq\n      tag_3\n      jumpi\n    tag_2:\n      0x00\n      dup1\n      revert\n        /* \"structure.sol\":216:289  function setValue(string memory _x,uint _y,address _z)public... */\n    tag_3:\n      tag_4\n      0x04\n      dup1\n      calldatasize\n      sub\n      dup2\n      add\n      swap1\n      tag_5\n      swap2\n      swap1\n      tag_6\n      jump\t// in\n    tag_5:\n      tag_7\n      jump\t// in\n    tag_4:\n      stop\n    tag_7:\n      pop\n      pop\n      pop\n      jump\t// out\n        /* \"#utility.yul\":7:419   */\n    tag_10:\n        /* \"#utility.yul\":85:90   */\n      0x00\n        /* \"#utility.yul\":110:176   */\n      tag_12\n        /* \"#utility.yul\":126:175   */\n      tag_13\n        /* \"#utility.yul\":168:174   */\n      dup5\n        /* \"#utility.yul\":126:175   */\n      tag_14\n      jump\t// in\n    tag_13:\n        /* \"#utility.yul\":110:176   */\n      tag_15\n      jump\t// in\n    tag_12:\n        /* \"#utility.yul\":101:176   */\n      swap1\n      pop\n        /* \"#utility.yul\":199:205   */\n      dup3\n        /* \"#utility.yul\":192:197   */\n      dup2\n        /* \"#utility.yul\":185:206   */\n      mstore\n        /* \"#utility.yul\":237:241   */\n      0x20\n        /* \"#utility.yul\":230:235   */\n      dup2\n        /* \"#utility.yul\":226:242   */\n      add\n        /* \"#utility.yul\":275:278   */\n      dup5\n        /* \"#utility.yul\":266:272   */\n      dup5\n        /* \"#utility.yul\":261:264   */\n      dup5\n        /* \"#utility.yul\":257:273   */\n      add\n        /* \"#utility.yul\":254:279   */\n      gt\n        /* \"#utility.yul\":251:363   */\n      iszero\n      tag_16\n      jumpi\n        /* \"#utility.yul\":282:361   */\n      tag_17\n      tag_18\n      jump\t// in\n    tag_17:\n        /* \"#utility.yul\":251:363   */\n    tag_16:\n        /* \"#utility.yul\":372:413   */\n      tag_19\n        /* \"#utility.yul\":406:412   */\n      dup5\n        /* \"#utility.yul\":401:404   */\n      dup3\n        /* \"#utility.yul\":396:399   */\n      dup6\n        /* \"#utility.yul\":372:413   */\n      tag_20\n      jump\t// in\n    tag_19:\n        /* \"#utility.yul\":91:419   */\n      pop\n        /* \"#utility.yul\":7:419   */\n      swap4\n      swap3\n      pop\n      pop\n      pop\n      jump\t// out\n        /* \"#utility.yul\":425:564   */\n    tag_21:\n        /* \"#utility.yul\":471:476   */\n      0x00\n        /* \"#utility.yul\":509:515   */\n      dup2\n        /* \"#utility.yul\":496:516   */\n      calldataload\n        /* \"#utility.yul\":487:516   */\n      swap1\n      pop\n        /* \"#utility.yul\":525:558   */\n      tag_23\n        /* \"#utility.yul\":552:557   */\n      dup2\n        /* \"#utility.yul\":525:558   */\n      tag_24\n      jump\t// in\n    tag_23:\n        /* \"#utility.yul\":425:564   */\n      swap3\n      swap2\n      pop\n      pop\n      jump\t// out\n        /* \"#utility.yul\":584:924   */\n    tag_25:\n        /* \"#utility.yul\":640:645   */\n      0x00\n        /* \"#utility.yul\":689:692   */\n      dup3\n        /* \"#utility.yul\":682:686   */\n      0x1f\n        /* \"#utility.yul\":674:680   */\n      dup4\n        /* \"#utility.yul\":670:687   */\n      add\n        /* \"#utility.yul\":666:693   */\n      slt\n        /* \"#utility.yul\":656:778   */\n      tag_27\n      jumpi\n        /* \"#utility.yul\":697:776   */\n      tag_28\n      tag_29\n      jump\t// in\n    tag_28:\n        /* \"#utility.yul\":656:778   */\n    tag_27:\n        /* \"#utility.yul\":814:820   */\n      dup2\n        /* \"#utility.yul\":801:821   */\n      calldataload\n        /* \"#utility.yul\":839:918   */\n      tag_30\n        /* \"#utility.yul\":914:917   */\n      dup5\n        /* \"#utility.yul\":906:912   */\n      dup3\n        /* \"#utility.yul\":899:903   */\n      0x20\n        /* \"#utility.yul\":891:897   */\n      dup7\n        /* \"#utility.yul\":887:904   */\n      add\n        /* \"#utility.yul\":839:918   */\n      tag_10\n      jump\t// in\n    tag_30:\n        /* \"#utility.yul\":830:918   */\n      swap2\n      pop\n        /* \"#utility.yul\":646:924   */\n      pop\n        /* \"#utility.yul\":584:924   */\n      swap3\n      swap2\n      pop\n      pop\n      jump\t// out\n        /* \"#utility.yul\":930:1069   */\n    tag_31:\n        /* \"#utility.yul\":976:981   */\n      0x00\n        /* \"#utility.yul\":1014:1020   */\n      dup2\n        /* \"#utility.yul\":1001:1021   */\n      calldataload\n        /* \"#utility.yul\":992:1021   */\n      swap1\n      pop\n        /* \"#utility.yul\":1030:1063   */\n      tag_33\n        /* \"#utility.yul\":1057:1062   */\n      dup2\n        /* \"#utility.yul\":1030:1063   */\n      tag_34\n      jump\t// in\n    tag_33:\n        /* \"#utility.yul\":930:1069   */\n      swap3\n      swap2\n      pop\n      pop\n      jump\t// out\n        /* \"#utility.yul\":1075:1874   */\n    tag_6:\n        /* \"#utility.yul\":1162:1168   */\n      0x00\n        /* \"#utility.yul\":1170:1176   */\n      dup1\n        /* \"#utility.yul\":1178:1184   */\n      0x00\n        /* \"#utility.yul\":1227:1229   */\n      0x60\n        /* \"#utility.yul\":1215:1224   */\n      dup5\n        /* \"#utility.yul\":1206:1213   */\n      dup7\n        /* \"#utility.yul\":1202:1225   */\n      sub\n        /* \"#utility.yul\":1198:1230   */\n      slt\n        /* \"#utility.yul\":1195:1314   */\n      iszero\n      tag_36\n      jumpi\n        /* \"#utility.yul\":1233:1312   */\n      tag_37\n      tag_38\n      jump\t// in\n    tag_37:\n        /* \"#utility.yul\":1195:1314   */\n    tag_36:\n        /* \"#utility.yul\":1381:1382   */\n      0x00\n        /* \"#utility.yul\":1370:1379   */\n      dup5\n        /* \"#utility.yul\":1366:1383   */\n      add\n        /* \"#utility.yul\":1353:1384   */\n      calldataload\n        /* \"#utility.yul\":1411:1429   */\n      0xffffffffffffffff\n        /* \"#utility.yul\":1403:1409   */\n      dup2\n        /* \"#utility.yul\":1400:1430   */\n      gt\n        /* \"#utility.yul\":1397:1514   */\n      iszero\n      tag_39\n      jumpi\n        /* \"#utility.yul\":1433:1512   */\n      tag_40\n      tag_41\n      jump\t// in\n    tag_40:\n        /* \"#utility.yul\":1397:1514   */\n    tag_39:\n        /* \"#utility.yul\":1538:1601   */\n      tag_42\n        /* \"#utility.yul\":1593:1600   */\n      dup7\n        /* \"#utility.yul\":1584:1590   */\n      dup3\n        /* \"#utility.yul\":1573:1582   */\n      dup8\n        /* \"#utility.yul\":1569:1591   */\n      add\n        /* \"#utility.yul\":1538:1601   */\n      tag_25\n      jump\t// in\n    tag_42:\n        /* \"#utility.yul\":1528:1601   */\n      swap4\n      pop\n        /* \"#utility.yul\":1324:1611   */\n      pop\n        /* \"#utility.yul\":1650:1652   */\n      0x20\n        /* \"#utility.yul\":1676:1729   */\n      tag_43\n        /* \"#utility.yul\":1721:1728   */\n      dup7\n        /* \"#utility.yul\":1712:1718   */\n      dup3\n        /* \"#utility.yul\":1701:1710   */\n      dup8\n        /* \"#utility.yul\":1697:1719   */\n      add\n        /* \"#utility.yul\":1676:1729   */\n      tag_31\n      jump\t// in\n    tag_43:\n        /* \"#utility.yul\":1666:1729   */\n      swap3\n      pop\n        /* \"#utility.yul\":1621:1739   */\n      pop\n        /* \"#utility.yul\":1778:1780   */\n      0x40\n        /* \"#utility.yul\":1804:1857   */\n      tag_44\n        /* \"#utility.yul\":1849:1856   */\n      dup7\n        /* \"#utility.yul\":1840:1846   */\n      dup3\n        /* \"#utility.yul\":1829:1838   */\n      dup8\n        /* \"#utility.yul\":1825:1847   */\n      add\n        /* \"#utility.yul\":1804:1857   */\n      tag_21\n      jump\t// in\n    tag_44:\n        /* \"#utility.yul\":1794:1857   */\n      swap2\n      pop\n        /* \"#utility.yul\":1749:1867   */\n      pop\n        /* \"#utility.yul\":1075:1874   */\n      swap3\n      pop\n      swap3\n      pop\n      swap3\n      jump\t// out\n        /* \"#utility.yul\":1880:2009   */\n    tag_15:\n        /* \"#utility.yul\":1914:1920   */\n      0x00\n        /* \"#utility.yul\":1941:1961   */\n      tag_46\n      tag_47\n      jump\t// in\n    tag_46:\n        /* \"#utility.yul\":1931:1961   */\n      swap1\n      pop\n        /* \"#utility.yul\":1970:2003   */\n      tag_48\n        /* \"#utility.yul\":1998:2002   */\n      dup3\n        /* \"#utility.yul\":1990:1996   */\n      dup3\n        /* \"#utility.yul\":1970:2003   */\n      tag_49\n      jump\t// in\n    tag_48:\n        /* \"#utility.yul\":1880:2009   */\n      swap2\n      swap1\n      pop\n      jump\t// out\n        /* \"#utility.yul\":2015:2090   */\n    tag_47:\n        /* \"#utility.yul\":2048:2054   */\n      0x00\n        /* \"#utility.yul\":2081:2083   */\n      0x40\n        /* \"#utility.yul\":2075:2084   */\n      mload\n        /* \"#utility.yul\":2065:2084   */\n      swap1\n      pop\n        /* \"#utility.yul\":2015:2090   */\n      swap1\n      jump\t// out\n        /* \"#utility.yul\":2096:2404   */\n    tag_14:\n        /* \"#utility.yul\":2158:2162   */\n      0x00\n        /* \"#utility.yul\":2248:2266   */\n      0xffffffffffffffff\n        /* \"#utility.yul\":2240:2246   */\n      dup3\n        /* \"#utility.yul\":2237:2267   */\n      gt\n        /* \"#utility.yul\":2234:2290   */\n      iszero\n      tag_52\n      jumpi\n        /* \"#utility.yul\":2270:2288   */\n      tag_53\n      tag_54\n      jump\t// in\n    tag_53:\n        /* \"#utility.yul\":2234:2290   */\n    tag_52:\n        /* \"#utility.yul\":2308:2337   */\n      tag_55\n        /* \"#utility.yul\":2330:2336   */\n      dup3\n        /* \"#utility.yul\":2308:2337   */\n      tag_56\n      jump\t// in\n    tag_55:\n        /* \"#utility.yul\":2300:2337   */\n      swap1\n      pop\n        /* \"#utility.yul\":2392:2396   */\n      0x20\n        /* \"#utility.yul\":2386:2390   */\n      dup2\n        /* \"#utility.yul\":2382:2397   */\n      add\n        /* \"#utility.yul\":2374:2397   */\n      swap1\n      pop\n        /* \"#utility.yul\":2096:2404   */\n      swap2\n      swap1\n      pop\n      jump\t// out\n        /* \"#utility.yul\":2410:2506   */\n    tag_57:\n        /* \"#utility.yul\":2447:2454   */\n      0x00\n        /* \"#utility.yul\":2476:2500   */\n      tag_59\n        /* \"#utility.yul\":2494:2499   */\n      dup3\n        /* \"#utility.yul\":2476:2500   */\n      tag_60\n      jump\t// in\n    tag_59:\n        /* \"#utility.yul\":2465:2500   */\n      swap1\n      pop\n        /* \"#utility.yul\":2410:2506   */\n      swap2\n      swap1\n      pop\n      jump\t// out\n        /* \"#utility.yul\":2512:2638   */\n    tag_60:\n        /* \"#utility.yul\":2549:2556   */\n      0x00\n        /* \"#utility.yul\":2589:2631   */\n      0xffffffffffffffffffffffffffffffffffffffff\n        /* \"#utility.yul\":2582:2587   */\n      dup3\n        /* \"#utility.yul\":2578:2632   */\n      and\n        /* \"#utility.yul\":2567:2632   */\n      swap1\n      pop\n        /* \"#utility.yul\":2512:2638   */\n      swap2\n      swap1\n      pop\n      jump\t// out\n        /* \"#utility.yul\":2644:2721   */\n    tag_62:\n        /* \"#utility.yul\":2681:2688   */\n      0x00\n        /* \"#utility.yul\":2710:2715   */\n      dup2\n        /* \"#utility.yul\":2699:2715   */\n      swap1\n      pop\n        /* \"#utility.yul\":2644:2721   */\n      swap2\n      swap1\n      pop\n      jump\t// out\n        /* \"#utility.yul\":2727:2881   */\n    tag_20:\n        /* \"#utility.yul\":2811:2817   */\n      dup3\n        /* \"#utility.yul\":2806:2809   */\n      dup2\n        /* \"#utility.yul\":2801:2804   */\n      dup4\n        /* \"#utility.yul\":2788:2818   */\n      calldatacopy\n        /* \"#utility.yul\":2873:2874   */\n      0x00\n        /* \"#utility.yul\":2864:2870   */\n      dup4\n        /* \"#utility.yul\":2859:2862   */\n      dup4\n        /* \"#utility.yul\":2855:2871   */\n      add\n        /* \"#utility.yul\":2848:2875   */\n      mstore\n        /* \"#utility.yul\":2727:2881   */\n      pop\n      pop\n      pop\n      jump\t// out\n        /* \"#utility.yul\":2887:3168   */\n    tag_49:\n        /* \"#utility.yul\":2970:2997   */\n      tag_66\n        /* \"#utility.yul\":2992:2996   */\n      dup3\n        /* \"#utility.yul\":2970:2997   */\n      tag_56\n      jump\t// in\n    tag_66:\n        /* \"#utility.yul\":2962:2968   */\n      dup2\n        /* \"#utility.yul\":2958:2998   */\n      add\n        /* \"#utility.yul\":3100:3106   */\n      dup2\n        /* \"#utility.yul\":3088:3098   */\n      dup2\n        /* \"#utility.yul\":3085:3107   */\n      lt\n        /* \"#utility.yul\":3064:3082   */\n      0xffffffffffffffff\n        /* \"#utility.yul\":3052:3062   */\n      dup3\n        /* \"#utility.yul\":3049:3083   */\n      gt\n        /* \"#utility.yul\":3046:3108   */\n      or\n        /* \"#utility.yul\":3043:3131   */\n      iszero\n      tag_67\n      jumpi\n        /* \"#utility.yul\":3111:3129   */\n      tag_68\n      tag_54\n      jump\t// in\n    tag_68:\n        /* \"#utility.yul\":3043:3131   */\n    tag_67:\n        /* \"#utility.yul\":3151:3161   */\n      dup1\n        /* \"#utility.yul\":3147:3149   */\n      0x40\n        /* \"#utility.yul\":3140:3162   */\n      mstore\n        /* \"#utility.yul\":2930:3168   */\n      pop\n        /* \"#utility.yul\":2887:3168   */\n      pop\n      pop\n      jump\t// out\n        /* \"#utility.yul\":3174:3354   */\n    tag_54:\n        /* \"#utility.yul\":3222:3299   */\n      0x4e487b7100000000000000000000000000000000000000000000000000000000\n        /* \"#utility.yul\":3219:3220   */\n      0x00\n        /* \"#utility.yul\":3212:3300   */\n      mstore\n        /* \"#utility.yul\":3319:3323   */\n      0x41\n        /* \"#utility.yul\":3316:3317   */\n      0x04\n        /* \"#utility.yul\":3309:3324   */\n      mstore\n        /* \"#utility.yul\":3343:3347   */\n      0x24\n        /* \"#utility.yul\":3340:3341   */\n      0x00\n        /* \"#utility.yul\":3333:3348   */\n      revert\n        /* \"#utility.yul\":3360:3477   */\n    tag_29:\n        /* \"#utility.yul\":3469:3470   */\n      0x00\n        /* \"#utility.yul\":3466:3467   */\n      dup1\n        /* \"#utility.yul\":3459:3471   */\n      revert\n        /* \"#utility.yul\":3483:3600   */\n    tag_18:\n        /* \"#utility.yul\":3592:3593   */\n      0x00\n        /* \"#utility.yul\":3589:3590   */\n      dup1\n        /* \"#utility.yul\":3582:3594   */\n      revert\n        /* \"#utility.yul\":3606:3723   */\n    tag_41:\n        /* \"#utility.yul\":3715:3716   */\n      0x00\n        /* \"#utility.yul\":3712:3713   */\n      dup1\n        /* \"#utility.yul\":3705:3717   */\n      revert\n        /* \"#utility.yul\":3729:3846   */\n    tag_38:\n        /* \"#utility.yul\":3838:3839   */\n      0x00\n        /* \"#utility.yul\":3835:3836   */\n      dup1\n        /* \"#utility.yul\":3828:3840   */\n      revert\n        /* \"#utility.yul\":3852:3954   */\n    tag_56:\n        /* \"#utility.yul\":3893:3899   */\n      0x00\n        /* \"#utility.yul\":3944:3946   */\n      0x1f\n        /* \"#utility.yul\":3940:3947   */\n      not\n        /* \"#utility.yul\":3935:3937   */\n      0x1f\n        /* \"#utility.yul\":3928:3933   */\n      dup4\n        /* \"#utility.yul\":3924:3938   */\n      add\n        /* \"#utility.yul\":3920:3948   */\n      and\n        /* \"#utility.yul\":3910:3948   */\n      swap1\n      pop\n        /* \"#utility.yul\":3852:3954   */\n      swap2\n      swap1\n      pop\n      jump\t// out\n        /* \"#utility.yul\":3960:4082   */\n    tag_24:\n        /* \"#utility.yul\":4033:4057   */\n      tag_76\n        /* \"#utility.yul\":4051:4056   */\n      dup2\n        /* \"#utility.yul\":4033:4057   */\n      tag_57\n      jump\t// in\n    tag_76:\n        /* \"#utility.yul\":4026:4031   */\n      dup2\n        /* \"#utility.yul\":4023:4058   */\n      eq\n        /* \"#utility.yul\":4013:4076   */\n      tag_77\n      jumpi\n        /* \"#utility.yul\":4072:4073   */\n      0x00\n        /* \"#utility.yul\":4069:4070   */\n      dup1\n        /* \"#utility.yul\":4062:4074   */\n      revert\n        /* \"#utility.yul\":4013:4076   */\n    tag_77:\n        /* \"#utility.yul\":3960:4082   */\n      pop\n      jump\t// out\n        /* \"#utility.yul\":4088:4210   */\n    tag_34:\n        /* \"#utility.yul\":4161:4185   */\n      tag_79\n        /* \"#utility.yul\":4179:4184   */\n      dup2\n        /* \"#utility.yul\":4161:4185   */\n      tag_62\n      jump\t// in\n    tag_79:\n        /* \"#utility.yul\":4154:4159   */\n      dup2\n        /* \"#utility.yul\":4151:4186   */\n      eq\n        /* \"#utility.yul\":4141:4204   */\n      tag_80\n      jumpi\n        /* \"#utility.yul\":4200:4201   */\n      0x00\n        /* \"#utility.yul\":4197:4198   */\n      dup1\n        /* \"#utility.yul\":4190:4202   */\n      revert\n        /* \"#utility.yul\":4141:4204   */\n    tag_80:\n        /* \"#utility.yul\":4088:4210   */\n      pop\n      jump\t// out\n\n    auxdata: 0xa264697066735822122032056129c0a9bb4ed43c00814cf46b2fd86f8ba4b30ea0c2ee9c8cea6b516e2a64736f6c63430008070033\n}\n",
				"bytecode": {
					"linkReferences": {},
					"object": "608060405234801561001057600080fd5b506102e4806100206000396000f3fe608060405234801561001057600080fd5b506004361061002b5760003560e01c8063b771af3d14610030575b600080fd5b61004a600480360381019061004591906100eb565b61004c565b005b505050565b600061006461005f8461017f565b61015a565b9050828152602081018484840111156100805761007f610260565b5b61008b8482856101ec565b509392505050565b6000813590506100a281610280565b92915050565b600082601f8301126100bd576100bc61025b565b5b81356100cd848260208601610051565b91505092915050565b6000813590506100e581610297565b92915050565b6000806000606084860312156101045761010361026a565b5b600084013567ffffffffffffffff81111561012257610121610265565b5b61012e868287016100a8565b935050602061013f868287016100d6565b925050604061015086828701610093565b9150509250925092565b6000610164610175565b905061017082826101fb565b919050565b6000604051905090565b600067ffffffffffffffff82111561019a5761019961022c565b5b6101a38261026f565b9050602081019050919050565b60006101bb826101c2565b9050919050565b600073ffffffffffffffffffffffffffffffffffffffff82169050919050565b6000819050919050565b82818337600083830152505050565b6102048261026f565b810181811067ffffffffffffffff821117156102235761022261022c565b5b80604052505050565b7f4e487b7100000000000000000000000000000000000000000000000000000000600052604160045260246000fd5b600080fd5b600080fd5b600080fd5b600080fd5b6000601f19601f8301169050919050565b610289816101b0565b811461029457600080fd5b50565b6102a0816101e2565b81146102ab57600080fd5b5056fea264697066735822122032056129c0a9bb4ed43c00814cf46b2fd86f8ba4b30ea0c2ee9c8cea6b516e2a64736f6c63430008070033",
					"opcodes": "PUSH1 0x80 PUSH1 0x40 MSTORE CALLVALUE DUP1 ISZERO PUSH2 0x10 JUMPI PUSH1 0x0 DUP1 REVERT JUMPDEST POP PUSH2 0x2E4 DUP1 PUSH2 0x20 PUSH1 0x0 CODECOPY PUSH1 0x0 RETURN INVALID PUSH1 0x80 PUSH1 0x40 MSTORE CALLVALUE DUP1 ISZERO PUSH2 0x10 JUMPI PUSH1 0x0 DUP1 REVERT JUMPDEST POP PUSH1 0x4 CALLDATASIZE LT PUSH2 0x2B JUMPI PUSH1 0x0 CALLDATALOAD PUSH1 0xE0 SHR DUP1 PUSH4 0xB771AF3D EQ PUSH2 0x30 JUMPI JUMPDEST PUSH1 0x0 DUP1 REVERT JUMPDEST PUSH2 0x4A PUSH1 0x4 DUP1 CALLDATASIZE SUB DUP2 ADD SWAP1 PUSH2 0x45 SWAP2 SWAP1 PUSH2 0xEB JUMP JUMPDEST PUSH2 0x4C JUMP JUMPDEST STOP JUMPDEST POP POP POP JUMP JUMPDEST PUSH1 0x0 PUSH2 0x64 PUSH2 0x5F DUP5 PUSH2 0x17F JUMP JUMPDEST PUSH2 0x15A JUMP JUMPDEST SWAP1 POP DUP3 DUP2 MSTORE PUSH1 0x20 DUP2 ADD DUP5 DUP5 DUP5 ADD GT ISZERO PUSH2 0x80 JUMPI PUSH2 0x7F PUSH2 0x260 JUMP JUMPDEST JUMPDEST PUSH2 0x8B DUP5 DUP3 DUP6 PUSH2 0x1EC JUMP JUMPDEST POP SWAP4 SWAP3 POP POP POP JUMP JUMPDEST PUSH1 0x0 DUP2 CALLDATALOAD SWAP1 POP PUSH2 0xA2 DUP2 PUSH2 0x280 JUMP JUMPDEST SWAP3 SWAP2 POP POP JUMP JUMPDEST PUSH1 0x0 DUP3 PUSH1 0x1F DUP4 ADD SLT PUSH2 0xBD JUMPI PUSH2 0xBC PUSH2 0x25B JUMP JUMPDEST JUMPDEST DUP2 CALLDATALOAD PUSH2 0xCD DUP5 DUP3 PUSH1 0x20 DUP7 ADD PUSH2 0x51 JUMP JUMPDEST SWAP2 POP POP SWAP3 SWAP2 POP POP JUMP JUMPDEST PUSH1 0x0 DUP2 CALLDATALOAD SWAP1 POP PUSH2 0xE5 DUP2 PUSH2 0x297 JUMP JUMPDEST SWAP3 SWAP2 POP POP JUMP JUMPDEST PUSH1 0x0 DUP1 PUSH1 0x0 PUSH1 0x60 DUP5 DUP7 SUB SLT ISZERO PUSH2 0x104 JUMPI PUSH2 0x103 PUSH2 0x26A JUMP JUMPDEST JUMPDEST PUSH1 0x0 DUP5 ADD CALLDATALOAD PUSH8 0xFFFFFFFFFFFFFFFF DUP2 GT ISZERO PUSH2 0x122 JUMPI PUSH2 0x121 PUSH2 0x265 JUMP JUMPDEST JUMPDEST PUSH2 0x12E DUP7 DUP3 DUP8 ADD PUSH2 0xA8 JUMP JUMPDEST SWAP4 POP POP PUSH1 0x20 PUSH2 0x13F DUP7 DUP3 DUP8 ADD PUSH2 0xD6 JUMP JUMPDEST SWAP3 POP POP PUSH1 0x40 PUSH2 0x150 DUP7 DUP3 DUP8 ADD PUSH2 0x93 JUMP JUMPDEST SWAP2 POP POP SWAP3 POP SWAP3 POP SWAP3 JUMP JUMPDEST PUSH1 0x0 PUSH2 0x164 PUSH2 0x175 JUMP JUMPDEST SWAP1 POP PUSH2 0x170 DUP3 DUP3 PUSH2 0x1FB JUMP JUMPDEST SWAP2 SWAP1 POP JUMP JUMPDEST PUSH1 0x0 PUSH1 0x40 MLOAD SWAP1 POP SWAP1 JUMP JUMPDEST PUSH1 0x0 PUSH8 0xFFFFFFFFFFFFFFFF DUP3 GT ISZERO PUSH2 0x19A JUMPI PUSH2 0x199 PUSH2 0x22C JUMP JUMPDEST JUMPDEST PUSH2 0x1A3 DUP3 PUSH2 0x26F JUMP JUMPDEST SWAP1 POP PUSH1 0x20 DUP2 ADD SWAP1 POP SWAP2 SWAP1 POP JUMP JUMPDEST PUSH1 0x0 PUSH2 0x1BB DUP3 PUSH2 0x1C2 JUMP JUMPDEST SWAP1 POP SWAP2 SWAP1 POP JUMP JUMPDEST PUSH1 0x0 PUSH20 0xFFFFFFFFFFFFFFFFFFFFFFFFFFFFFFFFFFFFFFFF DUP3 AND SWAP1 POP SWAP2 SWAP1 POP JUMP JUMPDEST PUSH1 0x0 DUP2 SWAP1 POP SWAP2 SWAP1 POP JUMP JUMPDEST DUP3 DUP2 DUP4 CALLDATACOPY PUSH1 0x0 DUP4 DUP4 ADD MSTORE POP POP POP JUMP JUMPDEST PUSH2 0x204 DUP3 PUSH2 0x26F JUMP JUMPDEST DUP2 ADD DUP2 DUP2 LT PUSH8 0xFFFFFFFFFFFFFFFF DUP3 GT OR ISZERO PUSH2 0x223 JUMPI PUSH2 0x222 PUSH2 0x22C JUMP JUMPDEST JUMPDEST DUP1 PUSH1 0x40 MSTORE POP POP POP JUMP JUMPDEST PUSH32 0x4E487B7100000000000000000000000000000000000000000000000000000000 PUSH1 0x0 MSTORE PUSH1 0x41 PUSH1 0x4 MSTORE PUSH1 0x24 PUSH1 0x0 REVERT JUMPDEST PUSH1 0x0 DUP1 REVERT JUMPDEST PUSH1 0x0 DUP1 REVERT JUMPDEST PUSH1 0x0 DUP1 REVERT JUMPDEST PUSH1 0x0 DUP1 REVERT JUMPDEST PUSH1 0x0 PUSH1 0x1F NOT PUSH1 0x1F DUP4 ADD AND SWAP1 POP SWAP2 SWAP1 POP JUMP JUMPDEST PUSH2 0x289 DUP2 PUSH2 0x1B0 JUMP JUMPDEST DUP2 EQ PUSH2 0x294 JUMPI PUSH1 0x0 DUP1 REVERT JUMPDEST POP JUMP JUMPDEST PUSH2 0x2A0 DUP2 PUSH2 0x1E2 JUMP JUMPDEST DUP2 EQ PUSH2 0x2AB JUMPI PUSH1 0x0 DUP1 REVERT JUMPDEST POP JUMP INVALID LOG2 PUSH5 0x6970667358 0x22 SLT KECCAK256 ORIGIN SDIV PUSH2 0x29C0 0xA9 0xBB 0x4E 0xD4 EXTCODECOPY STOP DUP2 0x4C DELEGATECALL PUSH12 0x2FD86F8BA4B30EA0C2EE9C8C 0xEA PUSH12 0x516E2A64736F6C6343000807 STOP CALLER "
				},
				"gasEstimates": {
					"creation": {
						"codeDepositCost": "148000",
						"executionCost": "196",
						"totalCost": "148196"
					},
					"external": {
						"setValue(string,uint256,address)": "infinite"
					}
				},
				"methodIdentifiers": {
					"setValue(string,uint256,address)": "b771af3d"
				}
			},
			"storageLayout": {
				"storage": [],
				"types": null
			},
			"userdoc": {
				"kind": "user",
				"methods": {},
				"version": 1
			}
		}
	}
}