{
	"ERC20_2.sol": {
		"ERC20Basic": {
			"abi": [
				{
					"inputs": [],
					"stateMutability": "nonpayable",
					"type": "constructor"
				},
				{
					"anonymous": false,
					"inputs": [
						{
							"indexed": true,
							"internalType": "address",
							"name": "owner",
							"type": "address"
						},
						{
							"indexed": true,
							"internalType": "address",
							"name": "spender",
							"type": "address"
						},
						{
							"indexed": false,
							"internalType": "uint256",
							"name": "value",
							"type": "uint256"
						}
					],
					"name": "Approval",
					"type": "event"
				},
				{
					"anonymous": false,
					"inputs": [
						{
							"indexed": true,
							"internalType": "address",
							"name": "from",
							"type": "address"
						},
						{
							"indexed": true,
							"internalType": "address",
							"name": "to",
							"type": "address"
						},
						{
							"indexed": false,
							"internalType": "uint256",
							"name": "value",
							"type": "uint256"
						}
					],
					"name": "Transfer",
					"type": "event"
				},
				{
					"inputs": [
						{
							"internalType": "address",
							"name": "_newOwner",
							"type": "address"
						}
					],
					"name": "TransferOwnership",
					"outputs": [],
					"stateMutability": "nonpayable",
					"type": "function"
				},
				{
					"inputs": [
						{
							"internalType": "address",
							"name": "owner",
							"type": "address"
						},
						{
							"internalType": "address",
							"name": "delegate",
							"type": "address"
						}
					],
					"name": "allowance",
					"outputs": [
						{
							"internalType": "uint256",
							"name": "",
							"type": "uint256"
						}
					],
					"stateMutability": "view",
					"type": "function"
				},
				{
					"inputs": [
						{
							"internalType": "address",
							"name": "delegate",
							"type": "address"
						},
						{
							"internalType": "uint256",
							"name": "numTokens",
							"type": "uint256"
						}
					],
					"name": "approve",
					"outputs": [
						{
							"internalType": "bool",
							"name": "",
							"type": "bool"
						}
					],
					"stateMutability": "nonpayable",
					"type": "function"
				},
				{
					"inputs": [
						{
							"internalType": "uint256",
							"name": "_x",
							"type": "uint256"
						}
					],
					"name": "badha",
					"outputs": [],
					"stateMutability": "nonpayable",
					"type": "function"
				},
				{
					"inputs": [
						{
							"internalType": "address",
							"name": "tokenOwner",
							"type": "address"
						}
					],
					"name": "balanceOf",
					"outputs": [
						{
							"internalType": "uint256",
							"name": "",
							"type": "uint256"
						}
					],
					"stateMutability": "view",
					"type": "function"
				},
				{
					"inputs": [],
					"name": "decimals",
					"outputs": [
						{
							"internalType": "uint8",
							"name": "",
							"type": "uint8"
						}
					],
					"stateMutability": "view",
					"type": "function"
				},
				{
					"inputs": [],
					"name": "mowner",
					"outputs": [
						{
							"internalType": "address",
							"name": "",
							"type": "address"
						}
					],
					"stateMutability": "view",
					"type": "function"
				},
				{
					"inputs": [],
					"name": "name",
					"outputs": [
						{
							"internalType": "string",
							"name": "",
							"type": "string"
						}
					],
					"stateMutability": "view",
					"type": "function"
				},
				{
					"inputs": [],
					"name": "ownerId",
					"outputs": [
						{
							"internalType": "address",
							"name": "",
							"type": "address"
						}
					],
					"stateMutability": "view",
					"type": "function"
				},
				{
					"inputs": [],
					"name": "symbol",
					"outputs": [
						{
							"internalType": "string",
							"name": "",
							"type": "string"
						}
					],
					"stateMutability": "view",
					"type": "function"
				},
				{
					"inputs": [
						{
							"internalType": "uint256",
							"name": "_x",
							"type": "uint256"
						}
					],
					"name": "toekBadha",
					"outputs": [],
					"stateMutability": "nonpayable",
					"type": "function"
				},
				{
					"inputs": [],
					"name": "totalSupply",
					"outputs": [
						{
							"internalType": "uint256",
							"name": "",
							"type": "uint256"
						}
					],
					"stateMutability": "view",
					"type": "function"
				},
				{
					"inputs": [
						{
							"internalType": "address",
							"name": "receiver",
							"type": "address"
						},
						{
							"internalType": "uint256",
							"name": "numTokens",
							"type": "uint256"
						}
					],
					"name": "transfer",
					"outputs": [
						{
							"internalType": "bool",
							"name": "",
							"type": "bool"
						}
					],
					"stateMutability": "nonpayable",
					"type": "function"
				},
				{
					"inputs": [
						{
							"internalType": "address",
							"name": "owner",
							"type": "address"
						},
						{
							"internalType": "address",
							"name": "buyer",
							"type": "address"
						},
						{
							"internalType": "uint256",
							"name": "numTokens",
							"type": "uint256"
						}
					],
					"name": "transferFrom",
					"outputs": [
						{
							"internalType": "bool",
							"name": "",
							"type": "bool"
						}
					],
					"stateMutability": "nonpayable",
					"type": "function"
				}
			],
			"devdoc": {
				"kind": "dev",
				"methods": {},
				"version": 1
			},
			"evm": {
				"assembly": "    /* \"ERC20_2.sol\":696:3445  contract ERC20Basic is IERC20 {... */\n  mstore(0x40, 0x80)\n    /* \"ERC20_2.sol\":893:903  msg.sender */\n  caller\n    /* \"ERC20_2.sol\":869:903  address public mowner = msg.sender */\n  0x00\n  dup1\n  0x0100\n  exp\n  dup2\n  sload\n  dup2\n  0xffffffffffffffffffffffffffffffffffffffff\n  mul\n  not\n  and\n  swap1\n  dup4\n  0xffffffffffffffffffffffffffffffffffffffff\n  and\n  mul\n  or\n  swap1\n  sstore\n  pop\n    /* \"ERC20_2.sol\":1040:1044  1000 */\n  0x03e8\n    /* \"ERC20_2.sol\":1017:1044  uint256 totalSupply_ = 1000 */\n  0x03\n  sstore\n    /* \"ERC20_2.sol\":1051:1110  constructor() {... */\n  callvalue\n  dup1\n  iszero\n  tag_1\n  jumpi\n  0x00\n  dup1\n  revert\ntag_1:\n  pop\n    /* \"ERC20_2.sol\":1090:1102  totalSupply_ */\n  sload(0x03)\n    /* \"ERC20_2.sol\":1071:1079  balances */\n  0x01\n    /* \"ERC20_2.sol\":1071:1087  balances[mowner] */\n  0x00\n    /* \"ERC20_2.sol\":1080:1086  mowner */\n  dup1\n  0x00\n  swap1\n  sload\n  swap1\n  0x0100\n  exp\n  swap1\n  div\n  0xffffffffffffffffffffffffffffffffffffffff\n  and\n    /* \"ERC20_2.sol\":1071:1087  balances[mowner] */\n  0xffffffffffffffffffffffffffffffffffffffff\n  and\n  0xffffffffffffffffffffffffffffffffffffffff\n  and\n  dup2\n  mstore\n  0x20\n  add\n  swap1\n  dup2\n  mstore\n  0x20\n  add\n  0x00\n  keccak256\n    /* \"ERC20_2.sol\":1071:1102  balances[mowner] = totalSupply_ */\n  dup2\n  swap1\n  sstore\n  pop\n    /* \"ERC20_2.sol\":696:3445  contract ERC20Basic is IERC20 {... */\n  dataSize(sub_0)\n  dup1\n  dataOffset(sub_0)\n  0x00\n  codecopy\n  0x00\n  return\nstop\n\nsub_0: assembly {\n        /* \"ERC20_2.sol\":696:3445  contract ERC20Basic is IERC20 {... */\n      mstore(0x40, 0x80)\n      callvalue\n      dup1\n      iszero\n      tag_1\n      jumpi\n      0x00\n      dup1\n      revert\n    tag_1:\n      pop\n      jumpi(tag_2, lt(calldatasize, 0x04))\n      shr(0xe0, calldataload(0x00))\n      dup1\n      0x313ce567\n      gt\n      tag_17\n      jumpi\n      dup1\n      0xa9059cbb\n      gt\n      tag_18\n      jumpi\n      dup1\n      0xa9059cbb\n      eq\n      tag_13\n      jumpi\n      dup1\n      0xcfaaa266\n      eq\n      tag_14\n      jumpi\n      dup1\n      0xdd62ed3e\n      eq\n      tag_15\n      jumpi\n      dup1\n      0xf5ba02f9\n      eq\n      tag_16\n      jumpi\n      jump(tag_2)\n    tag_18:\n      dup1\n      0x313ce567\n      eq\n      tag_10\n      jumpi\n      dup1\n      0x70a08231\n      eq\n      tag_11\n      jumpi\n      dup1\n      0x95d89b41\n      eq\n      tag_12\n      jumpi\n      jump(tag_2)\n    tag_17:\n      dup1\n      0x095ea7b3\n      gt\n      tag_19\n      jumpi\n      dup1\n      0x095ea7b3\n      eq\n      tag_6\n      jumpi\n      dup1\n      0x18160ddd\n      eq\n      tag_7\n      jumpi\n      dup1\n      0x23b872dd\n      eq\n      tag_8\n      jumpi\n      dup1\n      0x2dda936f\n      eq\n      tag_9\n      jumpi\n      jump(tag_2)\n    tag_19:\n      dup1\n      0x019c08f5\n      eq\n      tag_3\n      jumpi\n      dup1\n      0x05014f08\n      eq\n      tag_4\n      jumpi\n      dup1\n      0x06fdde03\n      eq\n      tag_5\n      jumpi\n    tag_2:\n      0x00\n      dup1\n      revert\n        /* \"ERC20_2.sol\":3086:3163  function ownerId() public view returns(address){... */\n    tag_3:\n      tag_20\n      tag_21\n      jump\t// in\n    tag_20:\n      mload(0x40)\n      tag_22\n      swap2\n      swap1\n      tag_23\n      jump\t// in\n    tag_22:\n      mload(0x40)\n      dup1\n      swap2\n      sub\n      swap1\n      return\n        /* \"ERC20_2.sol\":3169:3305  function toekBadha(uint _x) public OwnerOnly {... */\n    tag_4:\n      tag_24\n      0x04\n      dup1\n      calldatasize\n      sub\n      dup2\n      add\n      swap1\n      tag_25\n      swap2\n      swap1\n      tag_26\n      jump\t// in\n    tag_25:\n      tag_27\n      jump\t// in\n    tag_24:\n      stop\n        /* \"ERC20_2.sol\":738:780  string public constant name = \"ERC20Basic\" */\n    tag_5:\n      tag_28\n      tag_29\n      jump\t// in\n    tag_28:\n      mload(0x40)\n      tag_30\n      swap2\n      swap1\n      tag_31\n      jump\t// in\n    tag_30:\n      mload(0x40)\n      dup1\n      swap2\n      sub\n      swap1\n      return\n        /* \"ERC20_2.sol\":1678:1890  function approve(address delegate, uint256 numTokens) public override returns (bool) {... */\n    tag_6:\n      tag_32\n      0x04\n      dup1\n      calldatasize\n      sub\n      dup2\n      add\n      swap1\n      tag_33\n      swap2\n      swap1\n      tag_34\n      jump\t// in\n    tag_33:\n      tag_35\n      jump\t// in\n    tag_32:\n      mload(0x40)\n      tag_36\n      swap2\n      swap1\n      tag_37\n      jump\t// in\n    tag_36:\n      mload(0x40)\n      dup1\n      swap2\n      sub\n      swap1\n      return\n        /* \"ERC20_2.sol\":1116:1210  function totalSupply() public override view returns (uint256) {... */\n    tag_7:\n      tag_38\n      tag_39\n      jump\t// in\n    tag_38:\n      mload(0x40)\n      tag_40\n      swap2\n      swap1\n      tag_41\n      jump\t// in\n    tag_40:\n      mload(0x40)\n      dup1\n      swap2\n      sub\n      swap1\n      return\n        /* \"ERC20_2.sol\":2038:2491  function transferFrom(address owner, address buyer, uint256 numTokens) public override returns (bool) {... */\n    tag_8:\n      tag_42\n      0x04\n      dup1\n      calldatasize\n      sub\n      dup2\n      add\n      swap1\n      tag_43\n      swap2\n      swap1\n      tag_44\n      jump\t// in\n    tag_43:\n      tag_45\n      jump\t// in\n    tag_42:\n      mload(0x40)\n      tag_46\n      swap2\n      swap1\n      tag_37\n      jump\t// in\n    tag_46:\n      mload(0x40)\n      dup1\n      swap2\n      sub\n      swap1\n      return\n        /* \"ERC20_2.sol\":3311:3443  function badha(uint _x) public OwnerOnly {... */\n    tag_9:\n      tag_47\n      0x04\n      dup1\n      calldatasize\n      sub\n      dup2\n      add\n      swap1\n      tag_48\n      swap2\n      swap1\n      tag_26\n      jump\t// in\n    tag_48:\n      tag_49\n      jump\t// in\n    tag_47:\n      stop\n        /* \"ERC20_2.sol\":829:863  uint8 public constant decimals = 0 */\n    tag_10:\n      tag_50\n      tag_51\n      jump\t// in\n    tag_50:\n      mload(0x40)\n      tag_52\n      swap2\n      swap1\n      tag_53\n      jump\t// in\n    tag_52:\n      mload(0x40)\n      dup1\n      swap2\n      sub\n      swap1\n      return\n        /* \"ERC20_2.sol\":1216:1338  function balanceOf(address tokenOwner) public override view returns (uint256) {... */\n    tag_11:\n      tag_54\n      0x04\n      dup1\n      calldatasize\n      sub\n      dup2\n      add\n      swap1\n      tag_55\n      swap2\n      swap1\n      tag_56\n      jump\t// in\n    tag_55:\n      tag_57\n      jump\t// in\n    tag_54:\n      mload(0x40)\n      tag_58\n      swap2\n      swap1\n      tag_41\n      jump\t// in\n    tag_58:\n      mload(0x40)\n      dup1\n      swap2\n      sub\n      swap1\n      return\n        /* \"ERC20_2.sol\":786:823  string public constant symbol = \"ERC\" */\n    tag_12:\n      tag_59\n      tag_60\n      jump\t// in\n    tag_59:\n      mload(0x40)\n      tag_61\n      swap2\n      swap1\n      tag_31\n      jump\t// in\n    tag_61:\n      mload(0x40)\n      dup1\n      swap2\n      sub\n      swap1\n      return\n        /* \"ERC20_2.sol\":1344:1672  function transfer(address receiver, uint256 numTokens) public override returns (bool) {... */\n    tag_13:\n      tag_62\n      0x04\n      dup1\n      calldatasize\n      sub\n      dup2\n      add\n      swap1\n      tag_63\n      swap2\n      swap1\n      tag_34\n      jump\t// in\n    tag_63:\n      tag_64\n      jump\t// in\n    tag_62:\n      mload(0x40)\n      tag_65\n      swap2\n      swap1\n      tag_37\n      jump\t// in\n    tag_65:\n      mload(0x40)\n      dup1\n      swap2\n      sub\n      swap1\n      return\n        /* \"ERC20_2.sol\":2590:3081  function TransferOwnership(address _newOwner) public OwnerOnly {... */\n    tag_14:\n      tag_66\n      0x04\n      dup1\n      calldatasize\n      sub\n      dup2\n      add\n      swap1\n      tag_67\n      swap2\n      swap1\n      tag_56\n      jump\t// in\n    tag_67:\n      tag_68\n      jump\t// in\n    tag_66:\n      stop\n        /* \"ERC20_2.sol\":1896:2032  function allowance(address owner, address delegate) public override view returns (uint) {... */\n    tag_15:\n      tag_69\n      0x04\n      dup1\n      calldatasize\n      sub\n      dup2\n      add\n      swap1\n      tag_70\n      swap2\n      swap1\n      tag_71\n      jump\t// in\n    tag_70:\n      tag_72\n      jump\t// in\n    tag_69:\n      mload(0x40)\n      tag_73\n      swap2\n      swap1\n      tag_41\n      jump\t// in\n    tag_73:\n      mload(0x40)\n      dup1\n      swap2\n      sub\n      swap1\n      return\n        /* \"ERC20_2.sol\":869:903  address public mowner = msg.sender */\n    tag_16:\n      tag_74\n      tag_75\n      jump\t// in\n    tag_74:\n      mload(0x40)\n      tag_76\n      swap2\n      swap1\n      tag_23\n      jump\t// in\n    tag_76:\n      mload(0x40)\n      dup1\n      swap2\n      sub\n      swap1\n      return\n        /* \"ERC20_2.sol\":3086:3163  function ownerId() public view returns(address){... */\n    tag_21:\n        /* \"ERC20_2.sol\":3125:3132  address */\n      0x00\n        /* \"ERC20_2.sol\":3150:3156  mowner */\n      dup1\n      0x00\n      swap1\n      sload\n      swap1\n      0x0100\n      exp\n      swap1\n      div\n      0xffffffffffffffffffffffffffffffffffffffff\n      and\n        /* \"ERC20_2.sol\":3143:3156  return mowner */\n      swap1\n      pop\n        /* \"ERC20_2.sol\":3086:3163  function ownerId() public view returns(address){... */\n      swap1\n      jump\t// out\n        /* \"ERC20_2.sol\":3169:3305  function toekBadha(uint _x) public OwnerOnly {... */\n    tag_27:\n        /* \"ERC20_2.sol\":2542:2548  mowner */\n      0x00\n      dup1\n      sload\n      swap1\n      0x0100\n      exp\n      swap1\n      div\n      0xffffffffffffffffffffffffffffffffffffffff\n      and\n        /* \"ERC20_2.sol\":2532:2548  mowner == mowner */\n      0xffffffffffffffffffffffffffffffffffffffff\n      and\n        /* \"ERC20_2.sol\":2532:2538  mowner */\n      0x00\n      dup1\n      sload\n      swap1\n      0x0100\n      exp\n      swap1\n      div\n      0xffffffffffffffffffffffffffffffffffffffff\n      and\n        /* \"ERC20_2.sol\":2532:2548  mowner == mowner */\n      0xffffffffffffffffffffffffffffffffffffffff\n      and\n      eq\n        /* \"ERC20_2.sol\":2524:2570  require(mowner == mowner ,'you Are Not Owner') */\n      tag_79\n      jumpi\n      mload(0x40)\n      0x08c379a000000000000000000000000000000000000000000000000000000000\n      dup2\n      mstore\n      0x04\n      add\n      tag_80\n      swap1\n      tag_81\n      jump\t// in\n    tag_80:\n      mload(0x40)\n      dup1\n      swap2\n      sub\n      swap1\n      revert\n    tag_79:\n        /* \"ERC20_2.sol\":3253:3255  _x */\n      dup1\n        /* \"ERC20_2.sol\":3240:3252  totalSupply_ */\n      sload(0x03)\n        /* \"ERC20_2.sol\":3240:3255  totalSupply_+_x */\n      tag_83\n      swap2\n      swap1\n      tag_84\n      jump\t// in\n    tag_83:\n        /* \"ERC20_2.sol\":3225:3237  totalSupply_ */\n      0x03\n        /* \"ERC20_2.sol\":3225:3255  totalSupply_ = totalSupply_+_x */\n      dup2\n      swap1\n      sstore\n      pop\n        /* \"ERC20_2.sol\":3285:3297  totalSupply_ */\n      sload(0x03)\n        /* \"ERC20_2.sol\":3266:3274  balances */\n      0x01\n        /* \"ERC20_2.sol\":3266:3282  balances[mowner] */\n      0x00\n        /* \"ERC20_2.sol\":3275:3281  mowner */\n      dup1\n      0x00\n      swap1\n      sload\n      swap1\n      0x0100\n      exp\n      swap1\n      div\n      0xffffffffffffffffffffffffffffffffffffffff\n      and\n        /* \"ERC20_2.sol\":3266:3282  balances[mowner] */\n      0xffffffffffffffffffffffffffffffffffffffff\n      and\n      0xffffffffffffffffffffffffffffffffffffffff\n      and\n      dup2\n      mstore\n      0x20\n      add\n      swap1\n      dup2\n      mstore\n      0x20\n      add\n      0x00\n      keccak256\n        /* \"ERC20_2.sol\":3266:3297  balances[mowner] = totalSupply_ */\n      dup2\n      swap1\n      sstore\n      pop\n        /* \"ERC20_2.sol\":3169:3305  function toekBadha(uint _x) public OwnerOnly {... */\n      pop\n      jump\t// out\n        /* \"ERC20_2.sol\":738:780  string public constant name = \"ERC20Basic\" */\n    tag_29:\n      mload(0x40)\n      dup1\n      0x40\n      add\n      0x40\n      mstore\n      dup1\n      0x0a\n      dup2\n      mstore\n      0x20\n      add\n      0x4552433230426173696300000000000000000000000000000000000000000000\n      dup2\n      mstore\n      pop\n      dup2\n      jump\t// out\n        /* \"ERC20_2.sol\":1678:1890  function approve(address delegate, uint256 numTokens) public override returns (bool) {... */\n    tag_35:\n        /* \"ERC20_2.sol\":1757:1761  bool */\n      0x00\n        /* \"ERC20_2.sol\":1801:1810  numTokens */\n      dup2\n        /* \"ERC20_2.sol\":1773:1780  allowed */\n      0x02\n        /* \"ERC20_2.sol\":1773:1788  allowed[mowner] */\n      0x00\n        /* \"ERC20_2.sol\":1781:1787  mowner */\n      dup1\n      0x00\n      swap1\n      sload\n      swap1\n      0x0100\n      exp\n      swap1\n      div\n      0xffffffffffffffffffffffffffffffffffffffff\n      and\n        /* \"ERC20_2.sol\":1773:1788  allowed[mowner] */\n      0xffffffffffffffffffffffffffffffffffffffff\n      and\n      0xffffffffffffffffffffffffffffffffffffffff\n      and\n      dup2\n      mstore\n      0x20\n      add\n      swap1\n      dup2\n      mstore\n      0x20\n      add\n      0x00\n      keccak256\n        /* \"ERC20_2.sol\":1773:1798  allowed[mowner][delegate] */\n      0x00\n        /* \"ERC20_2.sol\":1789:1797  delegate */\n      dup6\n        /* \"ERC20_2.sol\":1773:1798  allowed[mowner][delegate] */\n      0xffffffffffffffffffffffffffffffffffffffff\n      and\n      0xffffffffffffffffffffffffffffffffffffffff\n      and\n      dup2\n      mstore\n      0x20\n      add\n      swap1\n      dup2\n      mstore\n      0x20\n      add\n      0x00\n      keccak256\n        /* \"ERC20_2.sol\":1773:1810  allowed[mowner][delegate] = numTokens */\n      dup2\n      swap1\n      sstore\n      pop\n        /* \"ERC20_2.sol\":1842:1850  delegate */\n      dup3\n        /* \"ERC20_2.sol\":1825:1862  Approval(mowner, delegate, numTokens) */\n      0xffffffffffffffffffffffffffffffffffffffff\n      and\n        /* \"ERC20_2.sol\":1834:1840  mowner */\n      0x00\n      dup1\n      sload\n      swap1\n      0x0100\n      exp\n      swap1\n      div\n      0xffffffffffffffffffffffffffffffffffffffff\n      and\n        /* \"ERC20_2.sol\":1825:1862  Approval(mowner, delegate, numTokens) */\n      0xffffffffffffffffffffffffffffffffffffffff\n      and\n      0x8c5be1e5ebec7d5bd14f71427d1e84f3dd0314c0f7b2291e5b200ac8c7c3b925\n        /* \"ERC20_2.sol\":1852:1861  numTokens */\n      dup5\n        /* \"ERC20_2.sol\":1825:1862  Approval(mowner, delegate, numTokens) */\n      mload(0x40)\n      tag_86\n      swap2\n      swap1\n      tag_41\n      jump\t// in\n    tag_86:\n      mload(0x40)\n      dup1\n      swap2\n      sub\n      swap1\n      log3\n        /* \"ERC20_2.sol\":1879:1883  true */\n      0x01\n        /* \"ERC20_2.sol\":1872:1883  return true */\n      swap1\n      pop\n        /* \"ERC20_2.sol\":1678:1890  function approve(address delegate, uint256 numTokens) public override returns (bool) {... */\n      swap3\n      swap2\n      pop\n      pop\n      jump\t// out\n        /* \"ERC20_2.sol\":1116:1210  function totalSupply() public override view returns (uint256) {... */\n    tag_39:\n        /* \"ERC20_2.sol\":1169:1176  uint256 */\n      0x00\n        /* \"ERC20_2.sol\":1191:1203  totalSupply_ */\n      sload(0x03)\n        /* \"ERC20_2.sol\":1184:1203  return totalSupply_ */\n      swap1\n      pop\n        /* \"ERC20_2.sol\":1116:1210  function totalSupply() public override view returns (uint256) {... */\n      swap1\n      jump\t// out\n        /* \"ERC20_2.sol\":2038:2491  function transferFrom(address owner, address buyer, uint256 numTokens) public override returns (bool) {... */\n    tag_45:\n        /* \"ERC20_2.sol\":2134:2138  bool */\n      0x00\n        /* \"ERC20_2.sol\":2171:2179  balances */\n      0x01\n        /* \"ERC20_2.sol\":2171:2186  balances[owner] */\n      0x00\n        /* \"ERC20_2.sol\":2180:2185  owner */\n      dup6\n        /* \"ERC20_2.sol\":2171:2186  balances[owner] */\n      0xffffffffffffffffffffffffffffffffffffffff\n      and\n      0xffffffffffffffffffffffffffffffffffffffff\n      and\n      dup2\n      mstore\n      0x20\n      add\n      swap1\n      dup2\n      mstore\n      0x20\n      add\n      0x00\n      keccak256\n      sload\n        /* \"ERC20_2.sol\":2158:2167  numTokens */\n      dup3\n        /* \"ERC20_2.sol\":2158:2186  numTokens <= balances[owner] */\n      gt\n      iszero\n        /* \"ERC20_2.sol\":2150:2187  require(numTokens <= balances[owner]) */\n      tag_89\n      jumpi\n      0x00\n      dup1\n      revert\n    tag_89:\n        /* \"ERC20_2.sol\":2218:2225  allowed */\n      0x02\n        /* \"ERC20_2.sol\":2218:2232  allowed[owner] */\n      0x00\n        /* \"ERC20_2.sol\":2226:2231  owner */\n      dup6\n        /* \"ERC20_2.sol\":2218:2232  allowed[owner] */\n      0xffffffffffffffffffffffffffffffffffffffff\n      and\n      0xffffffffffffffffffffffffffffffffffffffff\n      and\n      dup2\n      mstore\n      0x20\n      add\n      swap1\n      dup2\n      mstore\n      0x20\n      add\n      0x00\n      keccak256\n        /* \"ERC20_2.sol\":2218:2240  allowed[owner][mowner] */\n      0x00\n        /* \"ERC20_2.sol\":2233:2239  mowner */\n      dup1\n      0x00\n      swap1\n      sload\n      swap1\n      0x0100\n      exp\n      swap1\n      div\n      0xffffffffffffffffffffffffffffffffffffffff\n      and\n        /* \"ERC20_2.sol\":2218:2240  allowed[owner][mowner] */\n      0xffffffffffffffffffffffffffffffffffffffff\n      and\n      0xffffffffffffffffffffffffffffffffffffffff\n      and\n      dup2\n      mstore\n      0x20\n      add\n      swap1\n      dup2\n      mstore\n      0x20\n      add\n      0x00\n      keccak256\n      sload\n        /* \"ERC20_2.sol\":2205:2214  numTokens */\n      dup3\n        /* \"ERC20_2.sol\":2205:2240  numTokens <= allowed[owner][mowner] */\n      gt\n      iszero\n        /* \"ERC20_2.sol\":2197:2241  require(numTokens <= allowed[owner][mowner]) */\n      tag_90\n      jumpi\n      0x00\n      dup1\n      revert\n    tag_90:\n        /* \"ERC20_2.sol\":2286:2295  numTokens */\n      dup2\n        /* \"ERC20_2.sol\":2270:2278  balances */\n      0x01\n        /* \"ERC20_2.sol\":2270:2285  balances[owner] */\n      0x00\n        /* \"ERC20_2.sol\":2279:2284  owner */\n      dup7\n        /* \"ERC20_2.sol\":2270:2285  balances[owner] */\n      0xffffffffffffffffffffffffffffffffffffffff\n      and\n      0xffffffffffffffffffffffffffffffffffffffff\n      and\n      dup2\n      mstore\n      0x20\n      add\n      swap1\n      dup2\n      mstore\n      0x20\n      add\n      0x00\n      keccak256\n      sload\n        /* \"ERC20_2.sol\":2270:2295  balances[owner]-numTokens */\n      tag_91\n      swap2\n      swap1\n      tag_92\n      jump\t// in\n    tag_91:\n        /* \"ERC20_2.sol\":2252:2260  balances */\n      0x01\n        /* \"ERC20_2.sol\":2252:2267  balances[owner] */\n      0x00\n        /* \"ERC20_2.sol\":2261:2266  owner */\n      dup7\n        /* \"ERC20_2.sol\":2252:2267  balances[owner] */\n      0xffffffffffffffffffffffffffffffffffffffff\n      and\n      0xffffffffffffffffffffffffffffffffffffffff\n      and\n      dup2\n      mstore\n      0x20\n      add\n      swap1\n      dup2\n      mstore\n      0x20\n      add\n      0x00\n      keccak256\n        /* \"ERC20_2.sol\":2252:2295  balances[owner] = balances[owner]-numTokens */\n      dup2\n      swap1\n      sstore\n      pop\n        /* \"ERC20_2.sol\":2353:2362  numTokens */\n      dup2\n        /* \"ERC20_2.sol\":2330:2337  allowed */\n      0x02\n        /* \"ERC20_2.sol\":2330:2344  allowed[owner] */\n      0x00\n        /* \"ERC20_2.sol\":2338:2343  owner */\n      dup7\n        /* \"ERC20_2.sol\":2330:2344  allowed[owner] */\n      0xffffffffffffffffffffffffffffffffffffffff\n      and\n      0xffffffffffffffffffffffffffffffffffffffff\n      and\n      dup2\n      mstore\n      0x20\n      add\n      swap1\n      dup2\n      mstore\n      0x20\n      add\n      0x00\n      keccak256\n        /* \"ERC20_2.sol\":2330:2352  allowed[owner][mowner] */\n      0x00\n        /* \"ERC20_2.sol\":2345:2351  mowner */\n      dup1\n      0x00\n      swap1\n      sload\n      swap1\n      0x0100\n      exp\n      swap1\n      div\n      0xffffffffffffffffffffffffffffffffffffffff\n      and\n        /* \"ERC20_2.sol\":2330:2352  allowed[owner][mowner] */\n      0xffffffffffffffffffffffffffffffffffffffff\n      and\n      0xffffffffffffffffffffffffffffffffffffffff\n      and\n      dup2\n      mstore\n      0x20\n      add\n      swap1\n      dup2\n      mstore\n      0x20\n      add\n      0x00\n      keccak256\n      sload\n        /* \"ERC20_2.sol\":2330:2362  allowed[owner][mowner]-numTokens */\n      tag_93\n      swap2\n      swap1\n      tag_92\n      jump\t// in\n    tag_93:\n        /* \"ERC20_2.sol\":2305:2312  allowed */\n      0x02\n        /* \"ERC20_2.sol\":2305:2319  allowed[owner] */\n      0x00\n        /* \"ERC20_2.sol\":2313:2318  owner */\n      dup7\n        /* \"ERC20_2.sol\":2305:2319  allowed[owner] */\n      0xffffffffffffffffffffffffffffffffffffffff\n      and\n      0xffffffffffffffffffffffffffffffffffffffff\n      and\n      dup2\n      mstore\n      0x20\n      add\n      swap1\n      dup2\n      mstore\n      0x20\n      add\n      0x00\n      keccak256\n        /* \"ERC20_2.sol\":2305:2327  allowed[owner][mowner] */\n      0x00\n        /* \"ERC20_2.sol\":2320:2326  mowner */\n      dup1\n      0x00\n      swap1\n      sload\n      swap1\n      0x0100\n      exp\n      swap1\n      div\n      0xffffffffffffffffffffffffffffffffffffffff\n      and\n        /* \"ERC20_2.sol\":2305:2327  allowed[owner][mowner] */\n      0xffffffffffffffffffffffffffffffffffffffff\n      and\n      0xffffffffffffffffffffffffffffffffffffffff\n      and\n      dup2\n      mstore\n      0x20\n      add\n      swap1\n      dup2\n      mstore\n      0x20\n      add\n      0x00\n      keccak256\n        /* \"ERC20_2.sol\":2305:2362  allowed[owner][mowner] = allowed[owner][mowner]-numTokens */\n      dup2\n      swap1\n      sstore\n      pop\n        /* \"ERC20_2.sol\":2406:2415  numTokens */\n      dup2\n        /* \"ERC20_2.sol\":2390:2398  balances */\n      0x01\n        /* \"ERC20_2.sol\":2390:2405  balances[buyer] */\n      0x00\n        /* \"ERC20_2.sol\":2399:2404  buyer */\n      dup6\n        /* \"ERC20_2.sol\":2390:2405  balances[buyer] */\n      0xffffffffffffffffffffffffffffffffffffffff\n      and\n      0xffffffffffffffffffffffffffffffffffffffff\n      and\n      dup2\n      mstore\n      0x20\n      add\n      swap1\n      dup2\n      mstore\n      0x20\n      add\n      0x00\n      keccak256\n      sload\n        /* \"ERC20_2.sol\":2390:2415  balances[buyer]+numTokens */\n      tag_94\n      swap2\n      swap1\n      tag_84\n      jump\t// in\n    tag_94:\n        /* \"ERC20_2.sol\":2372:2380  balances */\n      0x01\n        /* \"ERC20_2.sol\":2372:2387  balances[buyer] */\n      0x00\n        /* \"ERC20_2.sol\":2381:2386  buyer */\n      dup6\n        /* \"ERC20_2.sol\":2372:2387  balances[buyer] */\n      0xffffffffffffffffffffffffffffffffffffffff\n      and\n      0xffffffffffffffffffffffffffffffffffffffff\n      and\n      dup2\n      mstore\n      0x20\n      add\n      swap1\n      dup2\n      mstore\n      0x20\n      add\n      0x00\n      keccak256\n        /* \"ERC20_2.sol\":2372:2415  balances[buyer] = balances[buyer]+numTokens */\n      dup2\n      swap1\n      sstore\n      pop\n        /* \"ERC20_2.sol\":2446:2451  buyer */\n      dup3\n        /* \"ERC20_2.sol\":2430:2463  Transfer(owner, buyer, numTokens) */\n      0xffffffffffffffffffffffffffffffffffffffff\n      and\n        /* \"ERC20_2.sol\":2439:2444  owner */\n      dup5\n        /* \"ERC20_2.sol\":2430:2463  Transfer(owner, buyer, numTokens) */\n      0xffffffffffffffffffffffffffffffffffffffff\n      and\n      0xddf252ad1be2c89b69c2b068fc378daa952ba7f163c4a11628f55a4df523b3ef\n        /* \"ERC20_2.sol\":2453:2462  numTokens */\n      dup5\n        /* \"ERC20_2.sol\":2430:2463  Transfer(owner, buyer, numTokens) */\n      mload(0x40)\n      tag_95\n      swap2\n      swap1\n      tag_41\n      jump\t// in\n    tag_95:\n      mload(0x40)\n      dup1\n      swap2\n      sub\n      swap1\n      log3\n        /* \"ERC20_2.sol\":2480:2484  true */\n      0x01\n        /* \"ERC20_2.sol\":2473:2484  return true */\n      swap1\n      pop\n        /* \"ERC20_2.sol\":2038:2491  function transferFrom(address owner, address buyer, uint256 numTokens) public override returns (bool) {... */\n      swap4\n      swap3\n      pop\n      pop\n      pop\n      jump\t// out\n        /* \"ERC20_2.sol\":3311:3443  function badha(uint _x) public OwnerOnly {... */\n    tag_49:\n        /* \"ERC20_2.sol\":2542:2548  mowner */\n      0x00\n      dup1\n      sload\n      swap1\n      0x0100\n      exp\n      swap1\n      div\n      0xffffffffffffffffffffffffffffffffffffffff\n      and\n        /* \"ERC20_2.sol\":2532:2548  mowner == mowner */\n      0xffffffffffffffffffffffffffffffffffffffff\n      and\n        /* \"ERC20_2.sol\":2532:2538  mowner */\n      0x00\n      dup1\n      sload\n      swap1\n      0x0100\n      exp\n      swap1\n      div\n      0xffffffffffffffffffffffffffffffffffffffff\n      and\n        /* \"ERC20_2.sol\":2532:2548  mowner == mowner */\n      0xffffffffffffffffffffffffffffffffffffffff\n      and\n      eq\n        /* \"ERC20_2.sol\":2524:2570  require(mowner == mowner ,'you Are Not Owner') */\n      tag_97\n      jumpi\n      mload(0x40)\n      0x08c379a000000000000000000000000000000000000000000000000000000000\n      dup2\n      mstore\n      0x04\n      add\n      tag_98\n      swap1\n      tag_81\n      jump\t// in\n    tag_98:\n      mload(0x40)\n      dup1\n      swap2\n      sub\n      swap1\n      revert\n    tag_97:\n        /* \"ERC20_2.sol\":3391:3393  _x */\n      dup1\n        /* \"ERC20_2.sol\":3378:3390  totalSupply_ */\n      sload(0x03)\n        /* \"ERC20_2.sol\":3378:3393  totalSupply_+_x */\n      tag_100\n      swap2\n      swap1\n      tag_84\n      jump\t// in\n    tag_100:\n        /* \"ERC20_2.sol\":3363:3375  totalSupply_ */\n      0x03\n        /* \"ERC20_2.sol\":3363:3393  totalSupply_ = totalSupply_+_x */\n      dup2\n      swap1\n      sstore\n      pop\n        /* \"ERC20_2.sol\":3423:3435  totalSupply_ */\n      sload(0x03)\n        /* \"ERC20_2.sol\":3404:3412  balances */\n      0x01\n        /* \"ERC20_2.sol\":3404:3420  balances[mowner] */\n      0x00\n        /* \"ERC20_2.sol\":3413:3419  mowner */\n      dup1\n      0x00\n      swap1\n      sload\n      swap1\n      0x0100\n      exp\n      swap1\n      div\n      0xffffffffffffffffffffffffffffffffffffffff\n      and\n        /* \"ERC20_2.sol\":3404:3420  balances[mowner] */\n      0xffffffffffffffffffffffffffffffffffffffff\n      and\n      0xffffffffffffffffffffffffffffffffffffffff\n      and\n      dup2\n      mstore\n      0x20\n      add\n      swap1\n      dup2\n      mstore\n      0x20\n      add\n      0x00\n      keccak256\n        /* \"ERC20_2.sol\":3404:3435  balances[mowner] = totalSupply_ */\n      dup2\n      swap1\n      sstore\n      pop\n        /* \"ERC20_2.sol\":3311:3443  function badha(uint _x) public OwnerOnly {... */\n      pop\n      jump\t// out\n        /* \"ERC20_2.sol\":829:863  uint8 public constant decimals = 0 */\n    tag_51:\n        /* \"ERC20_2.sol\":862:863  0 */\n      0x00\n        /* \"ERC20_2.sol\":829:863  uint8 public constant decimals = 0 */\n      dup2\n      jump\t// out\n        /* \"ERC20_2.sol\":1216:1338  function balanceOf(address tokenOwner) public override view returns (uint256) {... */\n    tag_57:\n        /* \"ERC20_2.sol\":1285:1292  uint256 */\n      0x00\n        /* \"ERC20_2.sol\":1311:1319  balances */\n      0x01\n        /* \"ERC20_2.sol\":1311:1331  balances[tokenOwner] */\n      0x00\n        /* \"ERC20_2.sol\":1320:1330  tokenOwner */\n      dup4\n        /* \"ERC20_2.sol\":1311:1331  balances[tokenOwner] */\n      0xffffffffffffffffffffffffffffffffffffffff\n      and\n      0xffffffffffffffffffffffffffffffffffffffff\n      and\n      dup2\n      mstore\n      0x20\n      add\n      swap1\n      dup2\n      mstore\n      0x20\n      add\n      0x00\n      keccak256\n      sload\n        /* \"ERC20_2.sol\":1304:1331  return balances[tokenOwner] */\n      swap1\n      pop\n        /* \"ERC20_2.sol\":1216:1338  function balanceOf(address tokenOwner) public override view returns (uint256) {... */\n      swap2\n      swap1\n      pop\n      jump\t// out\n        /* \"ERC20_2.sol\":786:823  string public constant symbol = \"ERC\" */\n    tag_60:\n      mload(0x40)\n      dup1\n      0x40\n      add\n      0x40\n      mstore\n      dup1\n      0x03\n      dup2\n      mstore\n      0x20\n      add\n      0x4552430000000000000000000000000000000000000000000000000000000000\n      dup2\n      mstore\n      pop\n      dup2\n      jump\t// out\n        /* \"ERC20_2.sol\":1344:1672  function transfer(address receiver, uint256 numTokens) public override returns (bool) {... */\n    tag_64:\n        /* \"ERC20_2.sol\":1424:1428  bool */\n      0x00\n        /* \"ERC20_2.sol\":1461:1469  balances */\n      0x01\n        /* \"ERC20_2.sol\":1461:1477  balances[mowner] */\n      0x00\n        /* \"ERC20_2.sol\":1470:1476  mowner */\n      dup1\n      0x00\n      swap1\n      sload\n      swap1\n      0x0100\n      exp\n      swap1\n      div\n      0xffffffffffffffffffffffffffffffffffffffff\n      and\n        /* \"ERC20_2.sol\":1461:1477  balances[mowner] */\n      0xffffffffffffffffffffffffffffffffffffffff\n      and\n      0xffffffffffffffffffffffffffffffffffffffff\n      and\n      dup2\n      mstore\n      0x20\n      add\n      swap1\n      dup2\n      mstore\n      0x20\n      add\n      0x00\n      keccak256\n      sload\n        /* \"ERC20_2.sol\":1448:1457  numTokens */\n      dup3\n        /* \"ERC20_2.sol\":1448:1477  numTokens <= balances[mowner] */\n      gt\n      iszero\n        /* \"ERC20_2.sol\":1440:1478  require(numTokens <= balances[mowner]) */\n      tag_103\n      jumpi\n      0x00\n      dup1\n      revert\n    tag_103:\n        /* \"ERC20_2.sol\":1524:1533  numTokens */\n      dup2\n        /* \"ERC20_2.sol\":1507:1515  balances */\n      0x01\n        /* \"ERC20_2.sol\":1507:1523  balances[mowner] */\n      0x00\n        /* \"ERC20_2.sol\":1516:1522  mowner */\n      dup1\n      0x00\n      swap1\n      sload\n      swap1\n      0x0100\n      exp\n      swap1\n      div\n      0xffffffffffffffffffffffffffffffffffffffff\n      and\n        /* \"ERC20_2.sol\":1507:1523  balances[mowner] */\n      0xffffffffffffffffffffffffffffffffffffffff\n      and\n      0xffffffffffffffffffffffffffffffffffffffff\n      and\n      dup2\n      mstore\n      0x20\n      add\n      swap1\n      dup2\n      mstore\n      0x20\n      add\n      0x00\n      keccak256\n      sload\n        /* \"ERC20_2.sol\":1507:1533  balances[mowner]-numTokens */\n      tag_104\n      swap2\n      swap1\n      tag_92\n      jump\t// in\n    tag_104:\n        /* \"ERC20_2.sol\":1488:1496  balances */\n      0x01\n        /* \"ERC20_2.sol\":1488:1504  balances[mowner] */\n      0x00\n        /* \"ERC20_2.sol\":1497:1503  mowner */\n      dup1\n      0x00\n      swap1\n      sload\n      swap1\n      0x0100\n      exp\n      swap1\n      div\n      0xffffffffffffffffffffffffffffffffffffffff\n      and\n        /* \"ERC20_2.sol\":1488:1504  balances[mowner] */\n      0xffffffffffffffffffffffffffffffffffffffff\n      and\n      0xffffffffffffffffffffffffffffffffffffffff\n      and\n      dup2\n      mstore\n      0x20\n      add\n      swap1\n      dup2\n      mstore\n      0x20\n      add\n      0x00\n      keccak256\n        /* \"ERC20_2.sol\":1488:1533  balances[mowner] = balances[mowner]-numTokens */\n      dup2\n      swap1\n      sstore\n      pop\n        /* \"ERC20_2.sol\":1583:1592  numTokens */\n      dup2\n        /* \"ERC20_2.sol\":1564:1572  balances */\n      0x01\n        /* \"ERC20_2.sol\":1564:1582  balances[receiver] */\n      0x00\n        /* \"ERC20_2.sol\":1573:1581  receiver */\n      dup6\n        /* \"ERC20_2.sol\":1564:1582  balances[receiver] */\n      0xffffffffffffffffffffffffffffffffffffffff\n      and\n      0xffffffffffffffffffffffffffffffffffffffff\n      and\n      dup2\n      mstore\n      0x20\n      add\n      swap1\n      dup2\n      mstore\n      0x20\n      add\n      0x00\n      keccak256\n      sload\n        /* \"ERC20_2.sol\":1564:1592  balances[receiver]+numTokens */\n      tag_105\n      swap2\n      swap1\n      tag_84\n      jump\t// in\n    tag_105:\n        /* \"ERC20_2.sol\":1543:1551  balances */\n      0x01\n        /* \"ERC20_2.sol\":1543:1561  balances[receiver] */\n      0x00\n        /* \"ERC20_2.sol\":1552:1560  receiver */\n      dup6\n        /* \"ERC20_2.sol\":1543:1561  balances[receiver] */\n      0xffffffffffffffffffffffffffffffffffffffff\n      and\n      0xffffffffffffffffffffffffffffffffffffffff\n      and\n      dup2\n      mstore\n      0x20\n      add\n      swap1\n      dup2\n      mstore\n      0x20\n      add\n      0x00\n      keccak256\n        /* \"ERC20_2.sol\":1543:1592  balances[receiver] = balances[receiver]+numTokens */\n      dup2\n      swap1\n      sstore\n      pop\n        /* \"ERC20_2.sol\":1624:1632  receiver */\n      dup3\n        /* \"ERC20_2.sol\":1607:1644  Transfer(mowner, receiver, numTokens) */\n      0xffffffffffffffffffffffffffffffffffffffff\n      and\n        /* \"ERC20_2.sol\":1616:1622  mowner */\n      0x00\n      dup1\n      sload\n      swap1\n      0x0100\n      exp\n      swap1\n      div\n      0xffffffffffffffffffffffffffffffffffffffff\n      and\n        /* \"ERC20_2.sol\":1607:1644  Transfer(mowner, receiver, numTokens) */\n      0xffffffffffffffffffffffffffffffffffffffff\n      and\n      0xddf252ad1be2c89b69c2b068fc378daa952ba7f163c4a11628f55a4df523b3ef\n        /* \"ERC20_2.sol\":1634:1643  numTokens */\n      dup5\n        /* \"ERC20_2.sol\":1607:1644  Transfer(mowner, receiver, numTokens) */\n      mload(0x40)\n      tag_106\n      swap2\n      swap1\n      tag_41\n      jump\t// in\n    tag_106:\n      mload(0x40)\n      dup1\n      swap2\n      sub\n      swap1\n      log3\n        /* \"ERC20_2.sol\":1661:1665  true */\n      0x01\n        /* \"ERC20_2.sol\":1654:1665  return true */\n      swap1\n      pop\n        /* \"ERC20_2.sol\":1344:1672  function transfer(address receiver, uint256 numTokens) public override returns (bool) {... */\n      swap3\n      swap2\n      pop\n      pop\n      jump\t// out\n        /* \"ERC20_2.sol\":2590:3081  function TransferOwnership(address _newOwner) public OwnerOnly {... */\n    tag_68:\n        /* \"ERC20_2.sol\":2542:2548  mowner */\n      0x00\n      dup1\n      sload\n      swap1\n      0x0100\n      exp\n      swap1\n      div\n      0xffffffffffffffffffffffffffffffffffffffff\n      and\n        /* \"ERC20_2.sol\":2532:2548  mowner == mowner */\n      0xffffffffffffffffffffffffffffffffffffffff\n      and\n        /* \"ERC20_2.sol\":2532:2538  mowner */\n      0x00\n      dup1\n      sload\n      swap1\n      0x0100\n      exp\n      swap1\n      div\n      0xffffffffffffffffffffffffffffffffffffffff\n      and\n        /* \"ERC20_2.sol\":2532:2548  mowner == mowner */\n      0xffffffffffffffffffffffffffffffffffffffff\n      and\n      eq\n        /* \"ERC20_2.sol\":2524:2570  require(mowner == mowner ,'you Are Not Owner') */\n      tag_108\n      jumpi\n      mload(0x40)\n      0x08c379a000000000000000000000000000000000000000000000000000000000\n      dup2\n      mstore\n      0x04\n      add\n      tag_109\n      swap1\n      tag_81\n      jump\t// in\n    tag_109:\n      mload(0x40)\n      dup1\n      swap2\n      sub\n      swap1\n      revert\n    tag_108:\n        /* \"ERC20_2.sol\":2942:2954  address temp */\n      0x00\n        /* \"ERC20_2.sol\":2957:2963  mowner */\n      dup1\n      0x00\n      swap1\n      sload\n      swap1\n      0x0100\n      exp\n      swap1\n      div\n      0xffffffffffffffffffffffffffffffffffffffff\n      and\n        /* \"ERC20_2.sol\":2942:2963  address temp = mowner */\n      swap1\n      pop\n        /* \"ERC20_2.sol\":2983:2992  _newOwner */\n      dup2\n        /* \"ERC20_2.sol\":2974:2980  mowner */\n      0x00\n      dup1\n        /* \"ERC20_2.sol\":2974:2992  mowner = _newOwner */\n      0x0100\n      exp\n      dup2\n      sload\n      dup2\n      0xffffffffffffffffffffffffffffffffffffffff\n      mul\n      not\n      and\n      swap1\n      dup4\n      0xffffffffffffffffffffffffffffffffffffffff\n      and\n      mul\n      or\n      swap1\n      sstore\n      pop\n        /* \"ERC20_2.sol\":3034:3042  balances */\n      0x01\n        /* \"ERC20_2.sol\":3034:3048  balances[temp] */\n      0x00\n        /* \"ERC20_2.sol\":3043:3047  temp */\n      dup3\n        /* \"ERC20_2.sol\":3034:3048  balances[temp] */\n      0xffffffffffffffffffffffffffffffffffffffff\n      and\n      0xffffffffffffffffffffffffffffffffffffffff\n      and\n      dup2\n      mstore\n      0x20\n      add\n      swap1\n      dup2\n      mstore\n      0x20\n      add\n      0x00\n      keccak256\n      sload\n        /* \"ERC20_2.sol\":3021:3033  totalSupply_ */\n      sload(0x03)\n        /* \"ERC20_2.sol\":3021:3048  totalSupply_+balances[temp] */\n      tag_111\n      swap2\n      swap1\n      tag_84\n      jump\t// in\n    tag_111:\n        /* \"ERC20_2.sol\":3002:3010  balances */\n      0x01\n        /* \"ERC20_2.sol\":3002:3018  balances[mowner] */\n      0x00\n        /* \"ERC20_2.sol\":3011:3017  mowner */\n      dup1\n      0x00\n      swap1\n      sload\n      swap1\n      0x0100\n      exp\n      swap1\n      div\n      0xffffffffffffffffffffffffffffffffffffffff\n      and\n        /* \"ERC20_2.sol\":3002:3018  balances[mowner] */\n      0xffffffffffffffffffffffffffffffffffffffff\n      and\n      0xffffffffffffffffffffffffffffffffffffffff\n      and\n      dup2\n      mstore\n      0x20\n      add\n      swap1\n      dup2\n      mstore\n      0x20\n      add\n      0x00\n      keccak256\n        /* \"ERC20_2.sol\":3002:3048  balances[mowner] = totalSupply_+balances[temp] */\n      dup2\n      swap1\n      sstore\n      pop\n        /* \"ERC20_2.sol\":3073:3074  0 */\n      0x00\n        /* \"ERC20_2.sol\":3058:3066  balances */\n      0x01\n        /* \"ERC20_2.sol\":3058:3072  balances[temp] */\n      0x00\n        /* \"ERC20_2.sol\":3067:3071  temp */\n      dup4\n        /* \"ERC20_2.sol\":3058:3072  balances[temp] */\n      0xffffffffffffffffffffffffffffffffffffffff\n      and\n      0xffffffffffffffffffffffffffffffffffffffff\n      and\n      dup2\n      mstore\n      0x20\n      add\n      swap1\n      dup2\n      mstore\n      0x20\n      add\n      0x00\n      keccak256\n        /* \"ERC20_2.sol\":3058:3074  balances[temp]=0 */\n      dup2\n      swap1\n      sstore\n      pop\n        /* \"ERC20_2.sol\":2653:3081  {... */\n      pop\n        /* \"ERC20_2.sol\":2590:3081  function TransferOwnership(address _newOwner) public OwnerOnly {... */\n      pop\n      jump\t// out\n        /* \"ERC20_2.sol\":1896:2032  function allowance(address owner, address delegate) public override view returns (uint) {... */\n    tag_72:\n        /* \"ERC20_2.sol\":1978:1982  uint */\n      0x00\n        /* \"ERC20_2.sol\":2001:2008  allowed */\n      0x02\n        /* \"ERC20_2.sol\":2001:2015  allowed[owner] */\n      0x00\n        /* \"ERC20_2.sol\":2009:2014  owner */\n      dup5\n        /* \"ERC20_2.sol\":2001:2015  allowed[owner] */\n      0xffffffffffffffffffffffffffffffffffffffff\n      and\n      0xffffffffffffffffffffffffffffffffffffffff\n      and\n      dup2\n      mstore\n      0x20\n      add\n      swap1\n      dup2\n      mstore\n      0x20\n      add\n      0x00\n      keccak256\n        /* \"ERC20_2.sol\":2001:2025  allowed[owner][delegate] */\n      0x00\n        /* \"ERC20_2.sol\":2016:2024  delegate */\n      dup4\n        /* \"ERC20_2.sol\":2001:2025  allowed[owner][delegate] */\n      0xffffffffffffffffffffffffffffffffffffffff\n      and\n      0xffffffffffffffffffffffffffffffffffffffff\n      and\n      dup2\n      mstore\n      0x20\n      add\n      swap1\n      dup2\n      mstore\n      0x20\n      add\n      0x00\n      keccak256\n      sload\n        /* \"ERC20_2.sol\":1994:2025  return allowed[owner][delegate] */\n      swap1\n      pop\n        /* \"ERC20_2.sol\":1896:2032  function allowance(address owner, address delegate) public override view returns (uint) {... */\n      swap3\n      swap2\n      pop\n      pop\n      jump\t// out\n        /* \"ERC20_2.sol\":869:903  address public mowner = msg.sender */\n    tag_75:\n      0x00\n      dup1\n      sload\n      swap1\n      0x0100\n      exp\n      swap1\n      div\n      0xffffffffffffffffffffffffffffffffffffffff\n      and\n      dup2\n      jump\t// out\n        /* \"#utility.yul\":7:133   */\n    tag_113:\n        /* \"#utility.yul\":44:51   */\n      0x00\n        /* \"#utility.yul\":84:126   */\n      0xffffffffffffffffffffffffffffffffffffffff\n        /* \"#utility.yul\":77:82   */\n      dup3\n        /* \"#utility.yul\":73:127   */\n      and\n        /* \"#utility.yul\":62:127   */\n      swap1\n      pop\n        /* \"#utility.yul\":7:133   */\n      swap2\n      swap1\n      pop\n      jump\t// out\n        /* \"#utility.yul\":139:235   */\n    tag_114:\n        /* \"#utility.yul\":176:183   */\n      0x00\n        /* \"#utility.yul\":205:229   */\n      tag_140\n        /* \"#utility.yul\":223:228   */\n      dup3\n        /* \"#utility.yul\":205:229   */\n      tag_113\n      jump\t// in\n    tag_140:\n        /* \"#utility.yul\":194:229   */\n      swap1\n      pop\n        /* \"#utility.yul\":139:235   */\n      swap2\n      swap1\n      pop\n      jump\t// out\n        /* \"#utility.yul\":241:359   */\n    tag_115:\n        /* \"#utility.yul\":328:352   */\n      tag_142\n        /* \"#utility.yul\":346:351   */\n      dup2\n        /* \"#utility.yul\":328:352   */\n      tag_114\n      jump\t// in\n    tag_142:\n        /* \"#utility.yul\":323:326   */\n      dup3\n        /* \"#utility.yul\":316:353   */\n      mstore\n        /* \"#utility.yul\":241:359   */\n      pop\n      pop\n      jump\t// out\n        /* \"#utility.yul\":365:587   */\n    tag_23:\n        /* \"#utility.yul\":458:462   */\n      0x00\n        /* \"#utility.yul\":496:498   */\n      0x20\n        /* \"#utility.yul\":485:494   */\n      dup3\n        /* \"#utility.yul\":481:499   */\n      add\n        /* \"#utility.yul\":473:499   */\n      swap1\n      pop\n        /* \"#utility.yul\":509:580   */\n      tag_144\n        /* \"#utility.yul\":577:578   */\n      0x00\n        /* \"#utility.yul\":566:575   */\n      dup4\n        /* \"#utility.yul\":562:579   */\n      add\n        /* \"#utility.yul\":553:559   */\n      dup5\n        /* \"#utility.yul\":509:580   */\n      tag_115\n      jump\t// in\n    tag_144:\n        /* \"#utility.yul\":365:587   */\n      swap3\n      swap2\n      pop\n      pop\n      jump\t// out\n        /* \"#utility.yul\":674:791   */\n    tag_117:\n        /* \"#utility.yul\":783:784   */\n      0x00\n        /* \"#utility.yul\":780:781   */\n      dup1\n        /* \"#utility.yul\":773:785   */\n      revert\n        /* \"#utility.yul\":920:997   */\n    tag_119:\n        /* \"#utility.yul\":957:964   */\n      0x00\n        /* \"#utility.yul\":986:991   */\n      dup2\n        /* \"#utility.yul\":975:991   */\n      swap1\n      pop\n        /* \"#utility.yul\":920:997   */\n      swap2\n      swap1\n      pop\n      jump\t// out\n        /* \"#utility.yul\":1003:1125   */\n    tag_120:\n        /* \"#utility.yul\":1076:1100   */\n      tag_150\n        /* \"#utility.yul\":1094:1099   */\n      dup2\n        /* \"#utility.yul\":1076:1100   */\n      tag_119\n      jump\t// in\n    tag_150:\n        /* \"#utility.yul\":1069:1074   */\n      dup2\n        /* \"#utility.yul\":1066:1101   */\n      eq\n        /* \"#utility.yul\":1056:1119   */\n      tag_151\n      jumpi\n        /* \"#utility.yul\":1115:1116   */\n      0x00\n        /* \"#utility.yul\":1112:1113   */\n      dup1\n        /* \"#utility.yul\":1105:1117   */\n      revert\n        /* \"#utility.yul\":1056:1119   */\n    tag_151:\n        /* \"#utility.yul\":1003:1125   */\n      pop\n      jump\t// out\n        /* \"#utility.yul\":1131:1270   */\n    tag_121:\n        /* \"#utility.yul\":1177:1182   */\n      0x00\n        /* \"#utility.yul\":1215:1221   */\n      dup2\n        /* \"#utility.yul\":1202:1222   */\n      calldataload\n        /* \"#utility.yul\":1193:1222   */\n      swap1\n      pop\n        /* \"#utility.yul\":1231:1264   */\n      tag_153\n        /* \"#utility.yul\":1258:1263   */\n      dup2\n        /* \"#utility.yul\":1231:1264   */\n      tag_120\n      jump\t// in\n    tag_153:\n        /* \"#utility.yul\":1131:1270   */\n      swap3\n      swap2\n      pop\n      pop\n      jump\t// out\n        /* \"#utility.yul\":1276:1605   */\n    tag_26:\n        /* \"#utility.yul\":1335:1341   */\n      0x00\n        /* \"#utility.yul\":1384:1386   */\n      0x20\n        /* \"#utility.yul\":1372:1381   */\n      dup3\n        /* \"#utility.yul\":1363:1370   */\n      dup5\n        /* \"#utility.yul\":1359:1382   */\n      sub\n        /* \"#utility.yul\":1355:1387   */\n      slt\n        /* \"#utility.yul\":1352:1471   */\n      iszero\n      tag_155\n      jumpi\n        /* \"#utility.yul\":1390:1469   */\n      tag_156\n      tag_117\n      jump\t// in\n    tag_156:\n        /* \"#utility.yul\":1352:1471   */\n    tag_155:\n        /* \"#utility.yul\":1510:1511   */\n      0x00\n        /* \"#utility.yul\":1535:1588   */\n      tag_157\n        /* \"#utility.yul\":1580:1587   */\n      dup5\n        /* \"#utility.yul\":1571:1577   */\n      dup3\n        /* \"#utility.yul\":1560:1569   */\n      dup6\n        /* \"#utility.yul\":1556:1578   */\n      add\n        /* \"#utility.yul\":1535:1588   */\n      tag_121\n      jump\t// in\n    tag_157:\n        /* \"#utility.yul\":1525:1588   */\n      swap2\n      pop\n        /* \"#utility.yul\":1481:1598   */\n      pop\n        /* \"#utility.yul\":1276:1605   */\n      swap3\n      swap2\n      pop\n      pop\n      jump\t// out\n        /* \"#utility.yul\":1611:1710   */\n    tag_122:\n        /* \"#utility.yul\":1663:1669   */\n      0x00\n        /* \"#utility.yul\":1697:1702   */\n      dup2\n        /* \"#utility.yul\":1691:1703   */\n      mload\n        /* \"#utility.yul\":1681:1703   */\n      swap1\n      pop\n        /* \"#utility.yul\":1611:1710   */\n      swap2\n      swap1\n      pop\n      jump\t// out\n        /* \"#utility.yul\":1716:1885   */\n    tag_123:\n        /* \"#utility.yul\":1800:1811   */\n      0x00\n        /* \"#utility.yul\":1834:1840   */\n      dup3\n        /* \"#utility.yul\":1829:1832   */\n      dup3\n        /* \"#utility.yul\":1822:1841   */\n      mstore\n        /* \"#utility.yul\":1874:1878   */\n      0x20\n        /* \"#utility.yul\":1869:1872   */\n      dup3\n        /* \"#utility.yul\":1865:1879   */\n      add\n        /* \"#utility.yul\":1850:1879   */\n      swap1\n      pop\n        /* \"#utility.yul\":1716:1885   */\n      swap3\n      swap2\n      pop\n      pop\n      jump\t// out\n        /* \"#utility.yul\":1891:2198   */\n    tag_124:\n        /* \"#utility.yul\":1959:1960   */\n      0x00\n        /* \"#utility.yul\":1969:2082   */\n    tag_161:\n        /* \"#utility.yul\":1983:1989   */\n      dup4\n        /* \"#utility.yul\":1980:1981   */\n      dup2\n        /* \"#utility.yul\":1977:1990   */\n      lt\n        /* \"#utility.yul\":1969:2082   */\n      iszero\n      tag_163\n      jumpi\n        /* \"#utility.yul\":2068:2069   */\n      dup1\n        /* \"#utility.yul\":2063:2066   */\n      dup3\n        /* \"#utility.yul\":2059:2070   */\n      add\n        /* \"#utility.yul\":2053:2071   */\n      mload\n        /* \"#utility.yul\":2049:2050   */\n      dup2\n        /* \"#utility.yul\":2044:2047   */\n      dup5\n        /* \"#utility.yul\":2040:2051   */\n      add\n        /* \"#utility.yul\":2033:2072   */\n      mstore\n        /* \"#utility.yul\":2005:2007   */\n      0x20\n        /* \"#utility.yul\":2002:2003   */\n      dup2\n        /* \"#utility.yul\":1998:2008   */\n      add\n        /* \"#utility.yul\":1993:2008   */\n      swap1\n      pop\n        /* \"#utility.yul\":1969:2082   */\n      jump(tag_161)\n    tag_163:\n        /* \"#utility.yul\":2100:2106   */\n      dup4\n        /* \"#utility.yul\":2097:2098   */\n      dup2\n        /* \"#utility.yul\":2094:2107   */\n      gt\n        /* \"#utility.yul\":2091:2192   */\n      iszero\n      tag_164\n      jumpi\n        /* \"#utility.yul\":2180:2181   */\n      0x00\n        /* \"#utility.yul\":2171:2177   */\n      dup5\n        /* \"#utility.yul\":2166:2169   */\n      dup5\n        /* \"#utility.yul\":2162:2178   */\n      add\n        /* \"#utility.yul\":2155:2182   */\n      mstore\n        /* \"#utility.yul\":2091:2192   */\n    tag_164:\n        /* \"#utility.yul\":1940:2198   */\n      pop\n        /* \"#utility.yul\":1891:2198   */\n      pop\n      pop\n      pop\n      jump\t// out\n        /* \"#utility.yul\":2204:2306   */\n    tag_125:\n        /* \"#utility.yul\":2245:2251   */\n      0x00\n        /* \"#utility.yul\":2296:2298   */\n      0x1f\n        /* \"#utility.yul\":2292:2299   */\n      not\n        /* \"#utility.yul\":2287:2289   */\n      0x1f\n        /* \"#utility.yul\":2280:2285   */\n      dup4\n        /* \"#utility.yul\":2276:2290   */\n      add\n        /* \"#utility.yul\":2272:2300   */\n      and\n        /* \"#utility.yul\":2262:2300   */\n      swap1\n      pop\n        /* \"#utility.yul\":2204:2306   */\n      swap2\n      swap1\n      pop\n      jump\t// out\n        /* \"#utility.yul\":2312:2676   */\n    tag_126:\n        /* \"#utility.yul\":2400:2403   */\n      0x00\n        /* \"#utility.yul\":2428:2467   */\n      tag_167\n        /* \"#utility.yul\":2461:2466   */\n      dup3\n        /* \"#utility.yul\":2428:2467   */\n      tag_122\n      jump\t// in\n    tag_167:\n        /* \"#utility.yul\":2483:2554   */\n      tag_168\n        /* \"#utility.yul\":2547:2553   */\n      dup2\n        /* \"#utility.yul\":2542:2545   */\n      dup6\n        /* \"#utility.yul\":2483:2554   */\n      tag_123\n      jump\t// in\n    tag_168:\n        /* \"#utility.yul\":2476:2554   */\n      swap4\n      pop\n        /* \"#utility.yul\":2563:2615   */\n      tag_169\n        /* \"#utility.yul\":2608:2614   */\n      dup2\n        /* \"#utility.yul\":2603:2606   */\n      dup6\n        /* \"#utility.yul\":2596:2600   */\n      0x20\n        /* \"#utility.yul\":2589:2594   */\n      dup7\n        /* \"#utility.yul\":2585:2601   */\n      add\n        /* \"#utility.yul\":2563:2615   */\n      tag_124\n      jump\t// in\n    tag_169:\n        /* \"#utility.yul\":2640:2669   */\n      tag_170\n        /* \"#utility.yul\":2662:2668   */\n      dup2\n        /* \"#utility.yul\":2640:2669   */\n      tag_125\n      jump\t// in\n    tag_170:\n        /* \"#utility.yul\":2635:2638   */\n      dup5\n        /* \"#utility.yul\":2631:2670   */\n      add\n        /* \"#utility.yul\":2624:2670   */\n      swap2\n      pop\n        /* \"#utility.yul\":2404:2676   */\n      pop\n        /* \"#utility.yul\":2312:2676   */\n      swap3\n      swap2\n      pop\n      pop\n      jump\t// out\n        /* \"#utility.yul\":2682:2995   */\n    tag_31:\n        /* \"#utility.yul\":2795:2799   */\n      0x00\n        /* \"#utility.yul\":2833:2835   */\n      0x20\n        /* \"#utility.yul\":2822:2831   */\n      dup3\n        /* \"#utility.yul\":2818:2836   */\n      add\n        /* \"#utility.yul\":2810:2836   */\n      swap1\n      pop\n        /* \"#utility.yul\":2882:2891   */\n      dup2\n        /* \"#utility.yul\":2876:2880   */\n      dup2\n        /* \"#utility.yul\":2872:2892   */\n      sub\n        /* \"#utility.yul\":2868:2869   */\n      0x00\n        /* \"#utility.yul\":2857:2866   */\n      dup4\n        /* \"#utility.yul\":2853:2870   */\n      add\n        /* \"#utility.yul\":2846:2893   */\n      mstore\n        /* \"#utility.yul\":2910:2988   */\n      tag_172\n        /* \"#utility.yul\":2983:2987   */\n      dup2\n        /* \"#utility.yul\":2974:2980   */\n      dup5\n        /* \"#utility.yul\":2910:2988   */\n      tag_126\n      jump\t// in\n    tag_172:\n        /* \"#utility.yul\":2902:2988   */\n      swap1\n      pop\n        /* \"#utility.yul\":2682:2995   */\n      swap3\n      swap2\n      pop\n      pop\n      jump\t// out\n        /* \"#utility.yul\":3001:3123   */\n    tag_127:\n        /* \"#utility.yul\":3074:3098   */\n      tag_174\n        /* \"#utility.yul\":3092:3097   */\n      dup2\n        /* \"#utility.yul\":3074:3098   */\n      tag_114\n      jump\t// in\n    tag_174:\n        /* \"#utility.yul\":3067:3072   */\n      dup2\n        /* \"#utility.yul\":3064:3099   */\n      eq\n        /* \"#utility.yul\":3054:3117   */\n      tag_175\n      jumpi\n        /* \"#utility.yul\":3113:3114   */\n      0x00\n        /* \"#utility.yul\":3110:3111   */\n      dup1\n        /* \"#utility.yul\":3103:3115   */\n      revert\n        /* \"#utility.yul\":3054:3117   */\n    tag_175:\n        /* \"#utility.yul\":3001:3123   */\n      pop\n      jump\t// out\n        /* \"#utility.yul\":3129:3268   */\n    tag_128:\n        /* \"#utility.yul\":3175:3180   */\n      0x00\n        /* \"#utility.yul\":3213:3219   */\n      dup2\n        /* \"#utility.yul\":3200:3220   */\n      calldataload\n        /* \"#utility.yul\":3191:3220   */\n      swap1\n      pop\n        /* \"#utility.yul\":3229:3262   */\n      tag_177\n        /* \"#utility.yul\":3256:3261   */\n      dup2\n        /* \"#utility.yul\":3229:3262   */\n      tag_127\n      jump\t// in\n    tag_177:\n        /* \"#utility.yul\":3129:3268   */\n      swap3\n      swap2\n      pop\n      pop\n      jump\t// out\n        /* \"#utility.yul\":3274:3748   */\n    tag_34:\n        /* \"#utility.yul\":3342:3348   */\n      0x00\n        /* \"#utility.yul\":3350:3356   */\n      dup1\n        /* \"#utility.yul\":3399:3401   */\n      0x40\n        /* \"#utility.yul\":3387:3396   */\n      dup4\n        /* \"#utility.yul\":3378:3385   */\n      dup6\n        /* \"#utility.yul\":3374:3397   */\n      sub\n        /* \"#utility.yul\":3370:3402   */\n      slt\n        /* \"#utility.yul\":3367:3486   */\n      iszero\n      tag_179\n      jumpi\n        /* \"#utility.yul\":3405:3484   */\n      tag_180\n      tag_117\n      jump\t// in\n    tag_180:\n        /* \"#utility.yul\":3367:3486   */\n    tag_179:\n        /* \"#utility.yul\":3525:3526   */\n      0x00\n        /* \"#utility.yul\":3550:3603   */\n      tag_181\n        /* \"#utility.yul\":3595:3602   */\n      dup6\n        /* \"#utility.yul\":3586:3592   */\n      dup3\n        /* \"#utility.yul\":3575:3584   */\n      dup7\n        /* \"#utility.yul\":3571:3593   */\n      add\n        /* \"#utility.yul\":3550:3603   */\n      tag_128\n      jump\t// in\n    tag_181:\n        /* \"#utility.yul\":3540:3603   */\n      swap3\n      pop\n        /* \"#utility.yul\":3496:3613   */\n      pop\n        /* \"#utility.yul\":3652:3654   */\n      0x20\n        /* \"#utility.yul\":3678:3731   */\n      tag_182\n        /* \"#utility.yul\":3723:3730   */\n      dup6\n        /* \"#utility.yul\":3714:3720   */\n      dup3\n        /* \"#utility.yul\":3703:3712   */\n      dup7\n        /* \"#utility.yul\":3699:3721   */\n      add\n        /* \"#utility.yul\":3678:3731   */\n      tag_121\n      jump\t// in\n    tag_182:\n        /* \"#utility.yul\":3668:3731   */\n      swap2\n      pop\n        /* \"#utility.yul\":3623:3741   */\n      pop\n        /* \"#utility.yul\":3274:3748   */\n      swap3\n      pop\n      swap3\n      swap1\n      pop\n      jump\t// out\n        /* \"#utility.yul\":3754:3844   */\n    tag_129:\n        /* \"#utility.yul\":3788:3795   */\n      0x00\n        /* \"#utility.yul\":3831:3836   */\n      dup2\n        /* \"#utility.yul\":3824:3837   */\n      iszero\n        /* \"#utility.yul\":3817:3838   */\n      iszero\n        /* \"#utility.yul\":3806:3838   */\n      swap1\n      pop\n        /* \"#utility.yul\":3754:3844   */\n      swap2\n      swap1\n      pop\n      jump\t// out\n        /* \"#utility.yul\":3850:3959   */\n    tag_130:\n        /* \"#utility.yul\":3931:3952   */\n      tag_185\n        /* \"#utility.yul\":3946:3951   */\n      dup2\n        /* \"#utility.yul\":3931:3952   */\n      tag_129\n      jump\t// in\n    tag_185:\n        /* \"#utility.yul\":3926:3929   */\n      dup3\n        /* \"#utility.yul\":3919:3953   */\n      mstore\n        /* \"#utility.yul\":3850:3959   */\n      pop\n      pop\n      jump\t// out\n        /* \"#utility.yul\":3965:4175   */\n    tag_37:\n        /* \"#utility.yul\":4052:4056   */\n      0x00\n        /* \"#utility.yul\":4090:4092   */\n      0x20\n        /* \"#utility.yul\":4079:4088   */\n      dup3\n        /* \"#utility.yul\":4075:4093   */\n      add\n        /* \"#utility.yul\":4067:4093   */\n      swap1\n      pop\n        /* \"#utility.yul\":4103:4168   */\n      tag_187\n        /* \"#utility.yul\":4165:4166   */\n      0x00\n        /* \"#utility.yul\":4154:4163   */\n      dup4\n        /* \"#utility.yul\":4150:4167   */\n      add\n        /* \"#utility.yul\":4141:4147   */\n      dup5\n        /* \"#utility.yul\":4103:4168   */\n      tag_130\n      jump\t// in\n    tag_187:\n        /* \"#utility.yul\":3965:4175   */\n      swap3\n      swap2\n      pop\n      pop\n      jump\t// out\n        /* \"#utility.yul\":4181:4299   */\n    tag_131:\n        /* \"#utility.yul\":4268:4292   */\n      tag_189\n        /* \"#utility.yul\":4286:4291   */\n      dup2\n        /* \"#utility.yul\":4268:4292   */\n      tag_119\n      jump\t// in\n    tag_189:\n        /* \"#utility.yul\":4263:4266   */\n      dup3\n        /* \"#utility.yul\":4256:4293   */\n      mstore\n        /* \"#utility.yul\":4181:4299   */\n      pop\n      pop\n      jump\t// out\n        /* \"#utility.yul\":4305:4527   */\n    tag_41:\n        /* \"#utility.yul\":4398:4402   */\n      0x00\n        /* \"#utility.yul\":4436:4438   */\n      0x20\n        /* \"#utility.yul\":4425:4434   */\n      dup3\n        /* \"#utility.yul\":4421:4439   */\n      add\n        /* \"#utility.yul\":4413:4439   */\n      swap1\n      pop\n        /* \"#utility.yul\":4449:4520   */\n      tag_191\n        /* \"#utility.yul\":4517:4518   */\n      0x00\n        /* \"#utility.yul\":4506:4515   */\n      dup4\n        /* \"#utility.yul\":4502:4519   */\n      add\n        /* \"#utility.yul\":4493:4499   */\n      dup5\n        /* \"#utility.yul\":4449:4520   */\n      tag_131\n      jump\t// in\n    tag_191:\n        /* \"#utility.yul\":4305:4527   */\n      swap3\n      swap2\n      pop\n      pop\n      jump\t// out\n        /* \"#utility.yul\":4533:5152   */\n    tag_44:\n        /* \"#utility.yul\":4610:4616   */\n      0x00\n        /* \"#utility.yul\":4618:4624   */\n      dup1\n        /* \"#utility.yul\":4626:4632   */\n      0x00\n        /* \"#utility.yul\":4675:4677   */\n      0x60\n        /* \"#utility.yul\":4663:4672   */\n      dup5\n        /* \"#utility.yul\":4654:4661   */\n      dup7\n        /* \"#utility.yul\":4650:4673   */\n      sub\n        /* \"#utility.yul\":4646:4678   */\n      slt\n        /* \"#utility.yul\":4643:4762   */\n      iszero\n      tag_193\n      jumpi\n        /* \"#utility.yul\":4681:4760   */\n      tag_194\n      tag_117\n      jump\t// in\n    tag_194:\n        /* \"#utility.yul\":4643:4762   */\n    tag_193:\n        /* \"#utility.yul\":4801:4802   */\n      0x00\n        /* \"#utility.yul\":4826:4879   */\n      tag_195\n        /* \"#utility.yul\":4871:4878   */\n      dup7\n        /* \"#utility.yul\":4862:4868   */\n      dup3\n        /* \"#utility.yul\":4851:4860   */\n      dup8\n        /* \"#utility.yul\":4847:4869   */\n      add\n        /* \"#utility.yul\":4826:4879   */\n      tag_128\n      jump\t// in\n    tag_195:\n        /* \"#utility.yul\":4816:4879   */\n      swap4\n      pop\n        /* \"#utility.yul\":4772:4889   */\n      pop\n        /* \"#utility.yul\":4928:4930   */\n      0x20\n        /* \"#utility.yul\":4954:5007   */\n      tag_196\n        /* \"#utility.yul\":4999:5006   */\n      dup7\n        /* \"#utility.yul\":4990:4996   */\n      dup3\n        /* \"#utility.yul\":4979:4988   */\n      dup8\n        /* \"#utility.yul\":4975:4997   */\n      add\n        /* \"#utility.yul\":4954:5007   */\n      tag_128\n      jump\t// in\n    tag_196:\n        /* \"#utility.yul\":4944:5007   */\n      swap3\n      pop\n        /* \"#utility.yul\":4899:5017   */\n      pop\n        /* \"#utility.yul\":5056:5058   */\n      0x40\n        /* \"#utility.yul\":5082:5135   */\n      tag_197\n        /* \"#utility.yul\":5127:5134   */\n      dup7\n        /* \"#utility.yul\":5118:5124   */\n      dup3\n        /* \"#utility.yul\":5107:5116   */\n      dup8\n        /* \"#utility.yul\":5103:5125   */\n      add\n        /* \"#utility.yul\":5082:5135   */\n      tag_121\n      jump\t// in\n    tag_197:\n        /* \"#utility.yul\":5072:5135   */\n      swap2\n      pop\n        /* \"#utility.yul\":5027:5145   */\n      pop\n        /* \"#utility.yul\":4533:5152   */\n      swap3\n      pop\n      swap3\n      pop\n      swap3\n      jump\t// out\n        /* \"#utility.yul\":5158:5244   */\n    tag_132:\n        /* \"#utility.yul\":5193:5200   */\n      0x00\n        /* \"#utility.yul\":5233:5237   */\n      0xff\n        /* \"#utility.yul\":5226:5231   */\n      dup3\n        /* \"#utility.yul\":5222:5238   */\n      and\n        /* \"#utility.yul\":5211:5238   */\n      swap1\n      pop\n        /* \"#utility.yul\":5158:5244   */\n      swap2\n      swap1\n      pop\n      jump\t// out\n        /* \"#utility.yul\":5250:5362   */\n    tag_133:\n        /* \"#utility.yul\":5333:5355   */\n      tag_200\n        /* \"#utility.yul\":5349:5354   */\n      dup2\n        /* \"#utility.yul\":5333:5355   */\n      tag_132\n      jump\t// in\n    tag_200:\n        /* \"#utility.yul\":5328:5331   */\n      dup3\n        /* \"#utility.yul\":5321:5356   */\n      mstore\n        /* \"#utility.yul\":5250:5362   */\n      pop\n      pop\n      jump\t// out\n        /* \"#utility.yul\":5368:5582   */\n    tag_53:\n        /* \"#utility.yul\":5457:5461   */\n      0x00\n        /* \"#utility.yul\":5495:5497   */\n      0x20\n        /* \"#utility.yul\":5484:5493   */\n      dup3\n        /* \"#utility.yul\":5480:5498   */\n      add\n        /* \"#utility.yul\":5472:5498   */\n      swap1\n      pop\n        /* \"#utility.yul\":5508:5575   */\n      tag_202\n        /* \"#utility.yul\":5572:5573   */\n      0x00\n        /* \"#utility.yul\":5561:5570   */\n      dup4\n        /* \"#utility.yul\":5557:5574   */\n      add\n        /* \"#utility.yul\":5548:5554   */\n      dup5\n        /* \"#utility.yul\":5508:5575   */\n      tag_133\n      jump\t// in\n    tag_202:\n        /* \"#utility.yul\":5368:5582   */\n      swap3\n      swap2\n      pop\n      pop\n      jump\t// out\n        /* \"#utility.yul\":5588:5917   */\n    tag_56:\n        /* \"#utility.yul\":5647:5653   */\n      0x00\n        /* \"#utility.yul\":5696:5698   */\n      0x20\n        /* \"#utility.yul\":5684:5693   */\n      dup3\n        /* \"#utility.yul\":5675:5682   */\n      dup5\n        /* \"#utility.yul\":5671:5694   */\n      sub\n        /* \"#utility.yul\":5667:5699   */\n      slt\n        /* \"#utility.yul\":5664:5783   */\n      iszero\n      tag_204\n      jumpi\n        /* \"#utility.yul\":5702:5781   */\n      tag_205\n      tag_117\n      jump\t// in\n    tag_205:\n        /* \"#utility.yul\":5664:5783   */\n    tag_204:\n        /* \"#utility.yul\":5822:5823   */\n      0x00\n        /* \"#utility.yul\":5847:5900   */\n      tag_206\n        /* \"#utility.yul\":5892:5899   */\n      dup5\n        /* \"#utility.yul\":5883:5889   */\n      dup3\n        /* \"#utility.yul\":5872:5881   */\n      dup6\n        /* \"#utility.yul\":5868:5890   */\n      add\n        /* \"#utility.yul\":5847:5900   */\n      tag_128\n      jump\t// in\n    tag_206:\n        /* \"#utility.yul\":5837:5900   */\n      swap2\n      pop\n        /* \"#utility.yul\":5793:5910   */\n      pop\n        /* \"#utility.yul\":5588:5917   */\n      swap3\n      swap2\n      pop\n      pop\n      jump\t// out\n        /* \"#utility.yul\":5923:6397   */\n    tag_71:\n        /* \"#utility.yul\":5991:5997   */\n      0x00\n        /* \"#utility.yul\":5999:6005   */\n      dup1\n        /* \"#utility.yul\":6048:6050   */\n      0x40\n        /* \"#utility.yul\":6036:6045   */\n      dup4\n        /* \"#utility.yul\":6027:6034   */\n      dup6\n        /* \"#utility.yul\":6023:6046   */\n      sub\n        /* \"#utility.yul\":6019:6051   */\n      slt\n        /* \"#utility.yul\":6016:6135   */\n      iszero\n      tag_208\n      jumpi\n        /* \"#utility.yul\":6054:6133   */\n      tag_209\n      tag_117\n      jump\t// in\n    tag_209:\n        /* \"#utility.yul\":6016:6135   */\n    tag_208:\n        /* \"#utility.yul\":6174:6175   */\n      0x00\n        /* \"#utility.yul\":6199:6252   */\n      tag_210\n        /* \"#utility.yul\":6244:6251   */\n      dup6\n        /* \"#utility.yul\":6235:6241   */\n      dup3\n        /* \"#utility.yul\":6224:6233   */\n      dup7\n        /* \"#utility.yul\":6220:6242   */\n      add\n        /* \"#utility.yul\":6199:6252   */\n      tag_128\n      jump\t// in\n    tag_210:\n        /* \"#utility.yul\":6189:6252   */\n      swap3\n      pop\n        /* \"#utility.yul\":6145:6262   */\n      pop\n        /* \"#utility.yul\":6301:6303   */\n      0x20\n        /* \"#utility.yul\":6327:6380   */\n      tag_211\n        /* \"#utility.yul\":6372:6379   */\n      dup6\n        /* \"#utility.yul\":6363:6369   */\n      dup3\n        /* \"#utility.yul\":6352:6361   */\n      dup7\n        /* \"#utility.yul\":6348:6370   */\n      add\n        /* \"#utility.yul\":6327:6380   */\n      tag_128\n      jump\t// in\n    tag_211:\n        /* \"#utility.yul\":6317:6380   */\n      swap2\n      pop\n        /* \"#utility.yul\":6272:6390   */\n      pop\n        /* \"#utility.yul\":5923:6397   */\n      swap3\n      pop\n      swap3\n      swap1\n      pop\n      jump\t// out\n        /* \"#utility.yul\":6403:6570   */\n    tag_134:\n        /* \"#utility.yul\":6543:6562   */\n      0x796f7520417265204e6f74204f776e6572000000000000000000000000000000\n        /* \"#utility.yul\":6539:6540   */\n      0x00\n        /* \"#utility.yul\":6531:6537   */\n      dup3\n        /* \"#utility.yul\":6527:6541   */\n      add\n        /* \"#utility.yul\":6520:6563   */\n      mstore\n        /* \"#utility.yul\":6403:6570   */\n      pop\n      jump\t// out\n        /* \"#utility.yul\":6576:6942   */\n    tag_135:\n        /* \"#utility.yul\":6718:6721   */\n      0x00\n        /* \"#utility.yul\":6739:6806   */\n      tag_214\n        /* \"#utility.yul\":6803:6805   */\n      0x11\n        /* \"#utility.yul\":6798:6801   */\n      dup4\n        /* \"#utility.yul\":6739:6806   */\n      tag_123\n      jump\t// in\n    tag_214:\n        /* \"#utility.yul\":6732:6806   */\n      swap2\n      pop\n        /* \"#utility.yul\":6815:6908   */\n      tag_215\n        /* \"#utility.yul\":6904:6907   */\n      dup3\n        /* \"#utility.yul\":6815:6908   */\n      tag_134\n      jump\t// in\n    tag_215:\n        /* \"#utility.yul\":6933:6935   */\n      0x20\n        /* \"#utility.yul\":6928:6931   */\n      dup3\n        /* \"#utility.yul\":6924:6936   */\n      add\n        /* \"#utility.yul\":6917:6936   */\n      swap1\n      pop\n        /* \"#utility.yul\":6576:6942   */\n      swap2\n      swap1\n      pop\n      jump\t// out\n        /* \"#utility.yul\":6948:7367   */\n    tag_81:\n        /* \"#utility.yul\":7114:7118   */\n      0x00\n        /* \"#utility.yul\":7152:7154   */\n      0x20\n        /* \"#utility.yul\":7141:7150   */\n      dup3\n        /* \"#utility.yul\":7137:7155   */\n      add\n        /* \"#utility.yul\":7129:7155   */\n      swap1\n      pop\n        /* \"#utility.yul\":7201:7210   */\n      dup2\n        /* \"#utility.yul\":7195:7199   */\n      dup2\n        /* \"#utility.yul\":7191:7211   */\n      sub\n        /* \"#utility.yul\":7187:7188   */\n      0x00\n        /* \"#utility.yul\":7176:7185   */\n      dup4\n        /* \"#utility.yul\":7172:7189   */\n      add\n        /* \"#utility.yul\":7165:7212   */\n      mstore\n        /* \"#utility.yul\":7229:7360   */\n      tag_217\n        /* \"#utility.yul\":7355:7359   */\n      dup2\n        /* \"#utility.yul\":7229:7360   */\n      tag_135\n      jump\t// in\n    tag_217:\n        /* \"#utility.yul\":7221:7360   */\n      swap1\n      pop\n        /* \"#utility.yul\":6948:7367   */\n      swap2\n      swap1\n      pop\n      jump\t// out\n        /* \"#utility.yul\":7373:7553   */\n    tag_136:\n        /* \"#utility.yul\":7421:7498   */\n      0x4e487b7100000000000000000000000000000000000000000000000000000000\n        /* \"#utility.yul\":7418:7419   */\n      0x00\n        /* \"#utility.yul\":7411:7499   */\n      mstore\n        /* \"#utility.yul\":7518:7522   */\n      0x11\n        /* \"#utility.yul\":7515:7516   */\n      0x04\n        /* \"#utility.yul\":7508:7523   */\n      mstore\n        /* \"#utility.yul\":7542:7546   */\n      0x24\n        /* \"#utility.yul\":7539:7540   */\n      0x00\n        /* \"#utility.yul\":7532:7547   */\n      revert\n        /* \"#utility.yul\":7559:7864   */\n    tag_84:\n        /* \"#utility.yul\":7599:7602   */\n      0x00\n        /* \"#utility.yul\":7618:7638   */\n      tag_220\n        /* \"#utility.yul\":7636:7637   */\n      dup3\n        /* \"#utility.yul\":7618:7638   */\n      tag_119\n      jump\t// in\n    tag_220:\n        /* \"#utility.yul\":7613:7638   */\n      swap2\n      pop\n        /* \"#utility.yul\":7652:7672   */\n      tag_221\n        /* \"#utility.yul\":7670:7671   */\n      dup4\n        /* \"#utility.yul\":7652:7672   */\n      tag_119\n      jump\t// in\n    tag_221:\n        /* \"#utility.yul\":7647:7672   */\n      swap3\n      pop\n        /* \"#utility.yul\":7806:7807   */\n      dup3\n        /* \"#utility.yul\":7738:7804   */\n      0xffffffffffffffffffffffffffffffffffffffffffffffffffffffffffffffff\n        /* \"#utility.yul\":7734:7808   */\n      sub\n        /* \"#utility.yul\":7731:7732   */\n      dup3\n        /* \"#utility.yul\":7728:7809   */\n      gt\n        /* \"#utility.yul\":7725:7832   */\n      iszero\n      tag_222\n      jumpi\n        /* \"#utility.yul\":7812:7830   */\n      tag_223\n      tag_136\n      jump\t// in\n    tag_223:\n        /* \"#utility.yul\":7725:7832   */\n    tag_222:\n        /* \"#utility.yul\":7856:7857   */\n      dup3\n        /* \"#utility.yul\":7853:7854   */\n      dup3\n        /* \"#utility.yul\":7849:7858   */\n      add\n        /* \"#utility.yul\":7842:7858   */\n      swap1\n      pop\n        /* \"#utility.yul\":7559:7864   */\n      swap3\n      swap2\n      pop\n      pop\n      jump\t// out\n        /* \"#utility.yul\":7870:8061   */\n    tag_92:\n        /* \"#utility.yul\":7910:7914   */\n      0x00\n        /* \"#utility.yul\":7930:7950   */\n      tag_225\n        /* \"#utility.yul\":7948:7949   */\n      dup3\n        /* \"#utility.yul\":7930:7950   */\n      tag_119\n      jump\t// in\n    tag_225:\n        /* \"#utility.yul\":7925:7950   */\n      swap2\n      pop\n        /* \"#utility.yul\":7964:7984   */\n      tag_226\n        /* \"#utility.yul\":7982:7983   */\n      dup4\n        /* \"#utility.yul\":7964:7984   */\n      tag_119\n      jump\t// in\n    tag_226:\n        /* \"#utility.yul\":7959:7984   */\n      swap3\n      pop\n        /* \"#utility.yul\":8003:8004   */\n      dup3\n        /* \"#utility.yul\":8000:8001   */\n      dup3\n        /* \"#utility.yul\":7997:8005   */\n      lt\n        /* \"#utility.yul\":7994:8028   */\n      iszero\n      tag_227\n      jumpi\n        /* \"#utility.yul\":8008:8026   */\n      tag_228\n      tag_136\n      jump\t// in\n    tag_228:\n        /* \"#utility.yul\":7994:8028   */\n    tag_227:\n        /* \"#utility.yul\":8053:8054   */\n      dup3\n        /* \"#utility.yul\":8050:8051   */\n      dup3\n        /* \"#utility.yul\":8046:8055   */\n      sub\n        /* \"#utility.yul\":8038:8055   */\n      swap1\n      pop\n        /* \"#utility.yul\":7870:8061   */\n      swap3\n      swap2\n      pop\n      pop\n      jump\t// out\n\n    auxdata: 0xa2646970667358221220e8fac15bbf67c13256f840cc35d17b0ff6b9bee449bed5b51844299888ae93e064736f6c634300080e0033\n}\n",
				"bytecode": {
					"linkReferences": {},
					"object": "6080604052336000806101000a81548173ffffffffffffffffffffffffffffffffffffffff021916908373ffffffffffffffffffffffffffffffffffffffff1602179055506103e860035534801561005657600080fd5b50600354600160008060009054906101000a900473ffffffffffffffffffffffffffffffffffffffff1673ffffffffffffffffffffffffffffffffffffffff1673ffffffffffffffffffffffffffffffffffffffff168152602001908152602001600020819055506114e5806100cd6000396000f3fe608060405234801561001057600080fd5b50600436106100ea5760003560e01c8063313ce5671161008c578063a9059cbb11610066578063a9059cbb1461024d578063cfaaa2661461027d578063dd62ed3e14610299578063f5ba02f9146102c9576100ea565b8063313ce567146101e157806370a08231146101ff57806395d89b411461022f576100ea565b8063095ea7b3116100c8578063095ea7b31461014757806318160ddd1461017757806323b872dd146101955780632dda936f146101c5576100ea565b8063019c08f5146100ef57806305014f081461010d57806306fdde0314610129575b600080fd5b6100f76102e7565b6040516101049190611089565b60405180910390f35b610127600480360381019061012291906110df565b610310565b005b61013161043c565b60405161013e91906111a5565b60405180910390f35b610161600480360381019061015c91906111f3565b610475565b60405161016e919061124e565b60405180910390f35b61017f6105a8565b60405161018c9190611278565b60405180910390f35b6101af60048036038101906101aa9190611293565b6105b2565b6040516101bc919061124e565b60405180910390f35b6101df60048036038101906101da91906110df565b610980565b005b6101e9610aac565b6040516101f69190611302565b60405180910390f35b6102196004803603810190610214919061131d565b610ab1565b6040516102269190611278565b60405180910390f35b610237610afa565b60405161024491906111a5565b60405180910390f35b610267600480360381019061026291906111f3565b610b33565b604051610274919061124e565b60405180910390f35b6102976004803603810190610292919061131d565b610d8f565b005b6102b360048036038101906102ae919061134a565b610f9d565b6040516102c09190611278565b60405180910390f35b6102d1611024565b6040516102de9190611089565b60405180910390f35b60008060009054906101000a900473ffffffffffffffffffffffffffffffffffffffff16905090565b60008054906101000a900473ffffffffffffffffffffffffffffffffffffffff1673ffffffffffffffffffffffffffffffffffffffff1660008054906101000a900473ffffffffffffffffffffffffffffffffffffffff1673ffffffffffffffffffffffffffffffffffffffff16146103be576040517f08c379a00000000000000000000000000000000000000000000000000000000081526004016103b5906113d6565b60405180910390fd5b806003546103cc9190611425565b600381905550600354600160008060009054906101000a900473ffffffffffffffffffffffffffffffffffffffff1673ffffffffffffffffffffffffffffffffffffffff1673ffffffffffffffffffffffffffffffffffffffff1681526020019081526020016000208190555050565b6040518060400160405280600a81526020017f455243323042617369630000000000000000000000000000000000000000000081525081565b600081600260008060009054906101000a900473ffffffffffffffffffffffffffffffffffffffff1673ffffffffffffffffffffffffffffffffffffffff1673ffffffffffffffffffffffffffffffffffffffff16815260200190815260200160002060008573ffffffffffffffffffffffffffffffffffffffff1673ffffffffffffffffffffffffffffffffffffffff168152602001908152602001600020819055508273ffffffffffffffffffffffffffffffffffffffff1660008054906101000a900473ffffffffffffffffffffffffffffffffffffffff1673ffffffffffffffffffffffffffffffffffffffff167f8c5be1e5ebec7d5bd14f71427d1e84f3dd0314c0f7b2291e5b200ac8c7c3b925846040516105969190611278565b60405180910390a36001905092915050565b6000600354905090565b6000600160008573ffffffffffffffffffffffffffffffffffffffff1673ffffffffffffffffffffffffffffffffffffffff1681526020019081526020016000205482111561060057600080fd5b600260008573ffffffffffffffffffffffffffffffffffffffff1673ffffffffffffffffffffffffffffffffffffffff16815260200190815260200160002060008060009054906101000a900473ffffffffffffffffffffffffffffffffffffffff1673ffffffffffffffffffffffffffffffffffffffff1673ffffffffffffffffffffffffffffffffffffffff168152602001908152602001600020548211156106aa57600080fd5b81600160008673ffffffffffffffffffffffffffffffffffffffff1673ffffffffffffffffffffffffffffffffffffffff168152602001908152602001600020546106f5919061147b565b600160008673ffffffffffffffffffffffffffffffffffffffff1673ffffffffffffffffffffffffffffffffffffffff1681526020019081526020016000208190555081600260008673ffffffffffffffffffffffffffffffffffffffff1673ffffffffffffffffffffffffffffffffffffffff16815260200190815260200160002060008060009054906101000a900473ffffffffffffffffffffffffffffffffffffffff1673ffffffffffffffffffffffffffffffffffffffff1673ffffffffffffffffffffffffffffffffffffffff168152602001908152602001600020546107e1919061147b565b600260008673ffffffffffffffffffffffffffffffffffffffff1673ffffffffffffffffffffffffffffffffffffffff16815260200190815260200160002060008060009054906101000a900473ffffffffffffffffffffffffffffffffffffffff1673ffffffffffffffffffffffffffffffffffffffff1673ffffffffffffffffffffffffffffffffffffffff1681526020019081526020016000208190555081600160008573ffffffffffffffffffffffffffffffffffffffff1673ffffffffffffffffffffffffffffffffffffffff168152602001908152602001600020546108cd9190611425565b600160008573ffffffffffffffffffffffffffffffffffffffff1673ffffffffffffffffffffffffffffffffffffffff168152602001908152602001600020819055508273ffffffffffffffffffffffffffffffffffffffff168473ffffffffffffffffffffffffffffffffffffffff167fddf252ad1be2c89b69c2b068fc378daa952ba7f163c4a11628f55a4df523b3ef8460405161096d9190611278565b60405180910390a3600190509392505050565b60008054906101000a900473ffffffffffffffffffffffffffffffffffffffff1673ffffffffffffffffffffffffffffffffffffffff1660008054906101000a900473ffffffffffffffffffffffffffffffffffffffff1673ffffffffffffffffffffffffffffffffffffffff1614610a2e576040517f08c379a0000000000000000000000000000000000000000000000000000000008152600401610a25906113d6565b60405180910390fd5b80600354610a3c9190611425565b600381905550600354600160008060009054906101000a900473ffffffffffffffffffffffffffffffffffffffff1673ffffffffffffffffffffffffffffffffffffffff1673ffffffffffffffffffffffffffffffffffffffff1681526020019081526020016000208190555050565b600081565b6000600160008373ffffffffffffffffffffffffffffffffffffffff1673ffffffffffffffffffffffffffffffffffffffff168152602001908152602001600020549050919050565b6040518060400160405280600381526020017f455243000000000000000000000000000000000000000000000000000000000081525081565b6000600160008060009054906101000a900473ffffffffffffffffffffffffffffffffffffffff1673ffffffffffffffffffffffffffffffffffffffff1673ffffffffffffffffffffffffffffffffffffffff16815260200190815260200160002054821115610ba257600080fd5b81600160008060009054906101000a900473ffffffffffffffffffffffffffffffffffffffff1673ffffffffffffffffffffffffffffffffffffffff1673ffffffffffffffffffffffffffffffffffffffff16815260200190815260200160002054610c0e919061147b565b600160008060009054906101000a900473ffffffffffffffffffffffffffffffffffffffff1673ffffffffffffffffffffffffffffffffffffffff1673ffffffffffffffffffffffffffffffffffffffff1681526020019081526020016000208190555081600160008573ffffffffffffffffffffffffffffffffffffffff1673ffffffffffffffffffffffffffffffffffffffff16815260200190815260200160002054610cbd9190611425565b600160008573ffffffffffffffffffffffffffffffffffffffff1673ffffffffffffffffffffffffffffffffffffffff168152602001908152602001600020819055508273ffffffffffffffffffffffffffffffffffffffff1660008054906101000a900473ffffffffffffffffffffffffffffffffffffffff1673ffffffffffffffffffffffffffffffffffffffff167fddf252ad1be2c89b69c2b068fc378daa952ba7f163c4a11628f55a4df523b3ef84604051610d7d9190611278565b60405180910390a36001905092915050565b60008054906101000a900473ffffffffffffffffffffffffffffffffffffffff1673ffffffffffffffffffffffffffffffffffffffff1660008054906101000a900473ffffffffffffffffffffffffffffffffffffffff1673ffffffffffffffffffffffffffffffffffffffff1614610e3d576040517f08c379a0000000000000000000000000000000000000000000000000000000008152600401610e34906113d6565b60405180910390fd5b60008060009054906101000a900473ffffffffffffffffffffffffffffffffffffffff169050816000806101000a81548173ffffffffffffffffffffffffffffffffffffffff021916908373ffffffffffffffffffffffffffffffffffffffff160217905550600160008273ffffffffffffffffffffffffffffffffffffffff1673ffffffffffffffffffffffffffffffffffffffff16815260200190815260200160002054600354610ef09190611425565b600160008060009054906101000a900473ffffffffffffffffffffffffffffffffffffffff1673ffffffffffffffffffffffffffffffffffffffff1673ffffffffffffffffffffffffffffffffffffffff168152602001908152602001600020819055506000600160008373ffffffffffffffffffffffffffffffffffffffff1673ffffffffffffffffffffffffffffffffffffffff168152602001908152602001600020819055505050565b6000600260008473ffffffffffffffffffffffffffffffffffffffff1673ffffffffffffffffffffffffffffffffffffffff16815260200190815260200160002060008373ffffffffffffffffffffffffffffffffffffffff1673ffffffffffffffffffffffffffffffffffffffff16815260200190815260200160002054905092915050565b60008054906101000a900473ffffffffffffffffffffffffffffffffffffffff1681565b600073ffffffffffffffffffffffffffffffffffffffff82169050919050565b600061107382611048565b9050919050565b61108381611068565b82525050565b600060208201905061109e600083018461107a565b92915050565b600080fd5b6000819050919050565b6110bc816110a9565b81146110c757600080fd5b50565b6000813590506110d9816110b3565b92915050565b6000602082840312156110f5576110f46110a4565b5b6000611103848285016110ca565b91505092915050565b600081519050919050565b600082825260208201905092915050565b60005b8381101561114657808201518184015260208101905061112b565b83811115611155576000848401525b50505050565b6000601f19601f8301169050919050565b60006111778261110c565b6111818185611117565b9350611191818560208601611128565b61119a8161115b565b840191505092915050565b600060208201905081810360008301526111bf818461116c565b905092915050565b6111d081611068565b81146111db57600080fd5b50565b6000813590506111ed816111c7565b92915050565b6000806040838503121561120a576112096110a4565b5b6000611218858286016111de565b9250506020611229858286016110ca565b9150509250929050565b60008115159050919050565b61124881611233565b82525050565b6000602082019050611263600083018461123f565b92915050565b611272816110a9565b82525050565b600060208201905061128d6000830184611269565b92915050565b6000806000606084860312156112ac576112ab6110a4565b5b60006112ba868287016111de565b93505060206112cb868287016111de565b92505060406112dc868287016110ca565b9150509250925092565b600060ff82169050919050565b6112fc816112e6565b82525050565b600060208201905061131760008301846112f3565b92915050565b600060208284031215611333576113326110a4565b5b6000611341848285016111de565b91505092915050565b60008060408385031215611361576113606110a4565b5b600061136f858286016111de565b9250506020611380858286016111de565b9150509250929050565b7f796f7520417265204e6f74204f776e6572000000000000000000000000000000600082015250565b60006113c0601183611117565b91506113cb8261138a565b602082019050919050565b600060208201905081810360008301526113ef816113b3565b9050919050565b7f4e487b7100000000000000000000000000000000000000000000000000000000600052601160045260246000fd5b6000611430826110a9565b915061143b836110a9565b9250827fffffffffffffffffffffffffffffffffffffffffffffffffffffffffffffffff038211156114705761146f6113f6565b5b828201905092915050565b6000611486826110a9565b9150611491836110a9565b9250828210156114a4576114a36113f6565b5b82820390509291505056fea2646970667358221220e8fac15bbf67c13256f840cc35d17b0ff6b9bee449bed5b51844299888ae93e064736f6c634300080e0033",
					"opcodes": "PUSH1 0x80 PUSH1 0x40 MSTORE CALLER PUSH1 0x0 DUP1 PUSH2 0x100 EXP DUP2 SLOAD DUP2 PUSH20 0xFFFFFFFFFFFFFFFFFFFFFFFFFFFFFFFFFFFFFFFF MUL NOT AND SWAP1 DUP4 PUSH20 0xFFFFFFFFFFFFFFFFFFFFFFFFFFFFFFFFFFFFFFFF AND MUL OR SWAP1 SSTORE POP PUSH2 0x3E8 PUSH1 0x3 SSTORE CALLVALUE DUP1 ISZERO PUSH2 0x56 JUMPI PUSH1 0x0 DUP1 REVERT JUMPDEST POP PUSH1 0x3 SLOAD PUSH1 0x1 PUSH1 0x0 DUP1 PUSH1 0x0 SWAP1 SLOAD SWAP1 PUSH2 0x100 EXP SWAP1 DIV PUSH20 0xFFFFFFFFFFFFFFFFFFFFFFFFFFFFFFFFFFFFFFFF AND PUSH20 0xFFFFFFFFFFFFFFFFFFFFFFFFFFFFFFFFFFFFFFFF AND PUSH20 0xFFFFFFFFFFFFFFFFFFFFFFFFFFFFFFFFFFFFFFFF AND DUP2 MSTORE PUSH1 0x20 ADD SWAP1 DUP2 MSTORE PUSH1 0x20 ADD PUSH1 0x0 KECCAK256 DUP2 SWAP1 SSTORE POP PUSH2 0x14E5 DUP1 PUSH2 0xCD PUSH1 0x0 CODECOPY PUSH1 0x0 RETURN INVALID PUSH1 0x80 PUSH1 0x40 MSTORE CALLVALUE DUP1 ISZERO PUSH2 0x10 JUMPI PUSH1 0x0 DUP1 REVERT JUMPDEST POP PUSH1 0x4 CALLDATASIZE LT PUSH2 0xEA JUMPI PUSH1 0x0 CALLDATALOAD PUSH1 0xE0 SHR DUP1 PUSH4 0x313CE567 GT PUSH2 0x8C JUMPI DUP1 PUSH4 0xA9059CBB GT PUSH2 0x66 JUMPI DUP1 PUSH4 0xA9059CBB EQ PUSH2 0x24D JUMPI DUP1 PUSH4 0xCFAAA266 EQ PUSH2 0x27D JUMPI DUP1 PUSH4 0xDD62ED3E EQ PUSH2 0x299 JUMPI DUP1 PUSH4 0xF5BA02F9 EQ PUSH2 0x2C9 JUMPI PUSH2 0xEA JUMP JUMPDEST DUP1 PUSH4 0x313CE567 EQ PUSH2 0x1E1 JUMPI DUP1 PUSH4 0x70A08231 EQ PUSH2 0x1FF JUMPI DUP1 PUSH4 0x95D89B41 EQ PUSH2 0x22F JUMPI PUSH2 0xEA JUMP JUMPDEST DUP1 PUSH4 0x95EA7B3 GT PUSH2 0xC8 JUMPI DUP1 PUSH4 0x95EA7B3 EQ PUSH2 0x147 JUMPI DUP1 PUSH4 0x18160DDD EQ PUSH2 0x177 JUMPI DUP1 PUSH4 0x23B872DD EQ PUSH2 0x195 JUMPI DUP1 PUSH4 0x2DDA936F EQ PUSH2 0x1C5 JUMPI PUSH2 0xEA JUMP JUMPDEST DUP1 PUSH4 0x19C08F5 EQ PUSH2 0xEF JUMPI DUP1 PUSH4 0x5014F08 EQ PUSH2 0x10D JUMPI DUP1 PUSH4 0x6FDDE03 EQ PUSH2 0x129 JUMPI JUMPDEST PUSH1 0x0 DUP1 REVERT JUMPDEST PUSH2 0xF7 PUSH2 0x2E7 JUMP JUMPDEST PUSH1 0x40 MLOAD PUSH2 0x104 SWAP2 SWAP1 PUSH2 0x1089 JUMP JUMPDEST PUSH1 0x40 MLOAD DUP1 SWAP2 SUB SWAP1 RETURN JUMPDEST PUSH2 0x127 PUSH1 0x4 DUP1 CALLDATASIZE SUB DUP2 ADD SWAP1 PUSH2 0x122 SWAP2 SWAP1 PUSH2 0x10DF JUMP JUMPDEST PUSH2 0x310 JUMP JUMPDEST STOP JUMPDEST PUSH2 0x131 PUSH2 0x43C JUMP JUMPDEST PUSH1 0x40 MLOAD PUSH2 0x13E SWAP2 SWAP1 PUSH2 0x11A5 JUMP JUMPDEST PUSH1 0x40 MLOAD DUP1 SWAP2 SUB SWAP1 RETURN JUMPDEST PUSH2 0x161 PUSH1 0x4 DUP1 CALLDATASIZE SUB DUP2 ADD SWAP1 PUSH2 0x15C SWAP2 SWAP1 PUSH2 0x11F3 JUMP JUMPDEST PUSH2 0x475 JUMP JUMPDEST PUSH1 0x40 MLOAD PUSH2 0x16E SWAP2 SWAP1 PUSH2 0x124E JUMP JUMPDEST PUSH1 0x40 MLOAD DUP1 SWAP2 SUB SWAP1 RETURN JUMPDEST PUSH2 0x17F PUSH2 0x5A8 JUMP JUMPDEST PUSH1 0x40 MLOAD PUSH2 0x18C SWAP2 SWAP1 PUSH2 0x1278 JUMP JUMPDEST PUSH1 0x40 MLOAD DUP1 SWAP2 SUB SWAP1 RETURN JUMPDEST PUSH2 0x1AF PUSH1 0x4 DUP1 CALLDATASIZE SUB DUP2 ADD SWAP1 PUSH2 0x1AA SWAP2 SWAP1 PUSH2 0x1293 JUMP JUMPDEST PUSH2 0x5B2 JUMP JUMPDEST PUSH1 0x40 MLOAD PUSH2 0x1BC SWAP2 SWAP1 PUSH2 0x124E JUMP JUMPDEST PUSH1 0x40 MLOAD DUP1 SWAP2 SUB SWAP1 RETURN JUMPDEST PUSH2 0x1DF PUSH1 0x4 DUP1 CALLDATASIZE SUB DUP2 ADD SWAP1 PUSH2 0x1DA SWAP2 SWAP1 PUSH2 0x10DF JUMP JUMPDEST PUSH2 0x980 JUMP JUMPDEST STOP JUMPDEST PUSH2 0x1E9 PUSH2 0xAAC JUMP JUMPDEST PUSH1 0x40 MLOAD PUSH2 0x1F6 SWAP2 SWAP1 PUSH2 0x1302 JUMP JUMPDEST PUSH1 0x40 MLOAD DUP1 SWAP2 SUB SWAP1 RETURN JUMPDEST PUSH2 0x219 PUSH1 0x4 DUP1 CALLDATASIZE SUB DUP2 ADD SWAP1 PUSH2 0x214 SWAP2 SWAP1 PUSH2 0x131D JUMP JUMPDEST PUSH2 0xAB1 JUMP JUMPDEST PUSH1 0x40 MLOAD PUSH2 0x226 SWAP2 SWAP1 PUSH2 0x1278 JUMP JUMPDEST PUSH1 0x40 MLOAD DUP1 SWAP2 SUB SWAP1 RETURN JUMPDEST PUSH2 0x237 PUSH2 0xAFA JUMP JUMPDEST PUSH1 0x40 MLOAD PUSH2 0x244 SWAP2 SWAP1 PUSH2 0x11A5 JUMP JUMPDEST PUSH1 0x40 MLOAD DUP1 SWAP2 SUB SWAP1 RETURN JUMPDEST PUSH2 0x267 PUSH1 0x4 DUP1 CALLDATASIZE SUB DUP2 ADD SWAP1 PUSH2 0x262 SWAP2 SWAP1 PUSH2 0x11F3 JUMP JUMPDEST PUSH2 0xB33 JUMP JUMPDEST PUSH1 0x40 MLOAD PUSH2 0x274 SWAP2 SWAP1 PUSH2 0x124E JUMP JUMPDEST PUSH1 0x40 MLOAD DUP1 SWAP2 SUB SWAP1 RETURN JUMPDEST PUSH2 0x297 PUSH1 0x4 DUP1 CALLDATASIZE SUB DUP2 ADD SWAP1 PUSH2 0x292 SWAP2 SWAP1 PUSH2 0x131D JUMP JUMPDEST PUSH2 0xD8F JUMP JUMPDEST STOP JUMPDEST PUSH2 0x2B3 PUSH1 0x4 DUP1 CALLDATASIZE SUB DUP2 ADD SWAP1 PUSH2 0x2AE SWAP2 SWAP1 PUSH2 0x134A JUMP JUMPDEST PUSH2 0xF9D JUMP JUMPDEST PUSH1 0x40 MLOAD PUSH2 0x2C0 SWAP2 SWAP1 PUSH2 0x1278 JUMP JUMPDEST PUSH1 0x40 MLOAD DUP1 SWAP2 SUB SWAP1 RETURN JUMPDEST PUSH2 0x2D1 PUSH2 0x1024 JUMP JUMPDEST PUSH1 0x40 MLOAD PUSH2 0x2DE SWAP2 SWAP1 PUSH2 0x1089 JUMP JUMPDEST PUSH1 0x40 MLOAD DUP1 SWAP2 SUB SWAP1 RETURN JUMPDEST PUSH1 0x0 DUP1 PUSH1 0x0 SWAP1 SLOAD SWAP1 PUSH2 0x100 EXP SWAP1 DIV PUSH20 0xFFFFFFFFFFFFFFFFFFFFFFFFFFFFFFFFFFFFFFFF AND SWAP1 POP SWAP1 JUMP JUMPDEST PUSH1 0x0 DUP1 SLOAD SWAP1 PUSH2 0x100 EXP SWAP1 DIV PUSH20 0xFFFFFFFFFFFFFFFFFFFFFFFFFFFFFFFFFFFFFFFF AND PUSH20 0xFFFFFFFFFFFFFFFFFFFFFFFFFFFFFFFFFFFFFFFF AND PUSH1 0x0 DUP1 SLOAD SWAP1 PUSH2 0x100 EXP SWAP1 DIV PUSH20 0xFFFFFFFFFFFFFFFFFFFFFFFFFFFFFFFFFFFFFFFF AND PUSH20 0xFFFFFFFFFFFFFFFFFFFFFFFFFFFFFFFFFFFFFFFF AND EQ PUSH2 0x3BE JUMPI PUSH1 0x40 MLOAD PUSH32 0x8C379A000000000000000000000000000000000000000000000000000000000 DUP2 MSTORE PUSH1 0x4 ADD PUSH2 0x3B5 SWAP1 PUSH2 0x13D6 JUMP JUMPDEST PUSH1 0x40 MLOAD DUP1 SWAP2 SUB SWAP1 REVERT JUMPDEST DUP1 PUSH1 0x3 SLOAD PUSH2 0x3CC SWAP2 SWAP1 PUSH2 0x1425 JUMP JUMPDEST PUSH1 0x3 DUP2 SWAP1 SSTORE POP PUSH1 0x3 SLOAD PUSH1 0x1 PUSH1 0x0 DUP1 PUSH1 0x0 SWAP1 SLOAD SWAP1 PUSH2 0x100 EXP SWAP1 DIV PUSH20 0xFFFFFFFFFFFFFFFFFFFFFFFFFFFFFFFFFFFFFFFF AND PUSH20 0xFFFFFFFFFFFFFFFFFFFFFFFFFFFFFFFFFFFFFFFF AND PUSH20 0xFFFFFFFFFFFFFFFFFFFFFFFFFFFFFFFFFFFFFFFF AND DUP2 MSTORE PUSH1 0x20 ADD SWAP1 DUP2 MSTORE PUSH1 0x20 ADD PUSH1 0x0 KECCAK256 DUP2 SWAP1 SSTORE POP POP JUMP JUMPDEST PUSH1 0x40 MLOAD DUP1 PUSH1 0x40 ADD PUSH1 0x40 MSTORE DUP1 PUSH1 0xA DUP2 MSTORE PUSH1 0x20 ADD PUSH32 0x4552433230426173696300000000000000000000000000000000000000000000 DUP2 MSTORE POP DUP2 JUMP JUMPDEST PUSH1 0x0 DUP2 PUSH1 0x2 PUSH1 0x0 DUP1 PUSH1 0x0 SWAP1 SLOAD SWAP1 PUSH2 0x100 EXP SWAP1 DIV PUSH20 0xFFFFFFFFFFFFFFFFFFFFFFFFFFFFFFFFFFFFFFFF AND PUSH20 0xFFFFFFFFFFFFFFFFFFFFFFFFFFFFFFFFFFFFFFFF AND PUSH20 0xFFFFFFFFFFFFFFFFFFFFFFFFFFFFFFFFFFFFFFFF AND DUP2 MSTORE PUSH1 0x20 ADD SWAP1 DUP2 MSTORE PUSH1 0x20 ADD PUSH1 0x0 KECCAK256 PUSH1 0x0 DUP6 PUSH20 0xFFFFFFFFFFFFFFFFFFFFFFFFFFFFFFFFFFFFFFFF AND PUSH20 0xFFFFFFFFFFFFFFFFFFFFFFFFFFFFFFFFFFFFFFFF AND DUP2 MSTORE PUSH1 0x20 ADD SWAP1 DUP2 MSTORE PUSH1 0x20 ADD PUSH1 0x0 KECCAK256 DUP2 SWAP1 SSTORE POP DUP3 PUSH20 0xFFFFFFFFFFFFFFFFFFFFFFFFFFFFFFFFFFFFFFFF AND PUSH1 0x0 DUP1 SLOAD SWAP1 PUSH2 0x100 EXP SWAP1 DIV PUSH20 0xFFFFFFFFFFFFFFFFFFFFFFFFFFFFFFFFFFFFFFFF AND PUSH20 0xFFFFFFFFFFFFFFFFFFFFFFFFFFFFFFFFFFFFFFFF AND PUSH32 0x8C5BE1E5EBEC7D5BD14F71427D1E84F3DD0314C0F7B2291E5B200AC8C7C3B925 DUP5 PUSH1 0x40 MLOAD PUSH2 0x596 SWAP2 SWAP1 PUSH2 0x1278 JUMP JUMPDEST PUSH1 0x40 MLOAD DUP1 SWAP2 SUB SWAP1 LOG3 PUSH1 0x1 SWAP1 POP SWAP3 SWAP2 POP POP JUMP JUMPDEST PUSH1 0x0 PUSH1 0x3 SLOAD SWAP1 POP SWAP1 JUMP JUMPDEST PUSH1 0x0 PUSH1 0x1 PUSH1 0x0 DUP6 PUSH20 0xFFFFFFFFFFFFFFFFFFFFFFFFFFFFFFFFFFFFFFFF AND PUSH20 0xFFFFFFFFFFFFFFFFFFFFFFFFFFFFFFFFFFFFFFFF AND DUP2 MSTORE PUSH1 0x20 ADD SWAP1 DUP2 MSTORE PUSH1 0x20 ADD PUSH1 0x0 KECCAK256 SLOAD DUP3 GT ISZERO PUSH2 0x600 JUMPI PUSH1 0x0 DUP1 REVERT JUMPDEST PUSH1 0x2 PUSH1 0x0 DUP6 PUSH20 0xFFFFFFFFFFFFFFFFFFFFFFFFFFFFFFFFFFFFFFFF AND PUSH20 0xFFFFFFFFFFFFFFFFFFFFFFFFFFFFFFFFFFFFFFFF AND DUP2 MSTORE PUSH1 0x20 ADD SWAP1 DUP2 MSTORE PUSH1 0x20 ADD PUSH1 0x0 KECCAK256 PUSH1 0x0 DUP1 PUSH1 0x0 SWAP1 SLOAD SWAP1 PUSH2 0x100 EXP SWAP1 DIV PUSH20 0xFFFFFFFFFFFFFFFFFFFFFFFFFFFFFFFFFFFFFFFF AND PUSH20 0xFFFFFFFFFFFFFFFFFFFFFFFFFFFFFFFFFFFFFFFF AND PUSH20 0xFFFFFFFFFFFFFFFFFFFFFFFFFFFFFFFFFFFFFFFF AND DUP2 MSTORE PUSH1 0x20 ADD SWAP1 DUP2 MSTORE PUSH1 0x20 ADD PUSH1 0x0 KECCAK256 SLOAD DUP3 GT ISZERO PUSH2 0x6AA JUMPI PUSH1 0x0 DUP1 REVERT JUMPDEST DUP2 PUSH1 0x1 PUSH1 0x0 DUP7 PUSH20 0xFFFFFFFFFFFFFFFFFFFFFFFFFFFFFFFFFFFFFFFF AND PUSH20 0xFFFFFFFFFFFFFFFFFFFFFFFFFFFFFFFFFFFFFFFF AND DUP2 MSTORE PUSH1 0x20 ADD SWAP1 DUP2 MSTORE PUSH1 0x20 ADD PUSH1 0x0 KECCAK256 SLOAD PUSH2 0x6F5 SWAP2 SWAP1 PUSH2 0x147B JUMP JUMPDEST PUSH1 0x1 PUSH1 0x0 DUP7 PUSH20 0xFFFFFFFFFFFFFFFFFFFFFFFFFFFFFFFFFFFFFFFF AND PUSH20 0xFFFFFFFFFFFFFFFFFFFFFFFFFFFFFFFFFFFFFFFF AND DUP2 MSTORE PUSH1 0x20 ADD SWAP1 DUP2 MSTORE PUSH1 0x20 ADD PUSH1 0x0 KECCAK256 DUP2 SWAP1 SSTORE POP DUP2 PUSH1 0x2 PUSH1 0x0 DUP7 PUSH20 0xFFFFFFFFFFFFFFFFFFFFFFFFFFFFFFFFFFFFFFFF AND PUSH20 0xFFFFFFFFFFFFFFFFFFFFFFFFFFFFFFFFFFFFFFFF AND DUP2 MSTORE PUSH1 0x20 ADD SWAP1 DUP2 MSTORE PUSH1 0x20 ADD PUSH1 0x0 KECCAK256 PUSH1 0x0 DUP1 PUSH1 0x0 SWAP1 SLOAD SWAP1 PUSH2 0x100 EXP SWAP1 DIV PUSH20 0xFFFFFFFFFFFFFFFFFFFFFFFFFFFFFFFFFFFFFFFF AND PUSH20 0xFFFFFFFFFFFFFFFFFFFFFFFFFFFFFFFFFFFFFFFF AND PUSH20 0xFFFFFFFFFFFFFFFFFFFFFFFFFFFFFFFFFFFFFFFF AND DUP2 MSTORE PUSH1 0x20 ADD SWAP1 DUP2 MSTORE PUSH1 0x20 ADD PUSH1 0x0 KECCAK256 SLOAD PUSH2 0x7E1 SWAP2 SWAP1 PUSH2 0x147B JUMP JUMPDEST PUSH1 0x2 PUSH1 0x0 DUP7 PUSH20 0xFFFFFFFFFFFFFFFFFFFFFFFFFFFFFFFFFFFFFFFF AND PUSH20 0xFFFFFFFFFFFFFFFFFFFFFFFFFFFFFFFFFFFFFFFF AND DUP2 MSTORE PUSH1 0x20 ADD SWAP1 DUP2 MSTORE PUSH1 0x20 ADD PUSH1 0x0 KECCAK256 PUSH1 0x0 DUP1 PUSH1 0x0 SWAP1 SLOAD SWAP1 PUSH2 0x100 EXP SWAP1 DIV PUSH20 0xFFFFFFFFFFFFFFFFFFFFFFFFFFFFFFFFFFFFFFFF AND PUSH20 0xFFFFFFFFFFFFFFFFFFFFFFFFFFFFFFFFFFFFFFFF AND PUSH20 0xFFFFFFFFFFFFFFFFFFFFFFFFFFFFFFFFFFFFFFFF AND DUP2 MSTORE PUSH1 0x20 ADD SWAP1 DUP2 MSTORE PUSH1 0x20 ADD PUSH1 0x0 KECCAK256 DUP2 SWAP1 SSTORE POP DUP2 PUSH1 0x1 PUSH1 0x0 DUP6 PUSH20 0xFFFFFFFFFFFFFFFFFFFFFFFFFFFFFFFFFFFFFFFF AND PUSH20 0xFFFFFFFFFFFFFFFFFFFFFFFFFFFFFFFFFFFFFFFF AND DUP2 MSTORE PUSH1 0x20 ADD SWAP1 DUP2 MSTORE PUSH1 0x20 ADD PUSH1 0x0 KECCAK256 SLOAD PUSH2 0x8CD SWAP2 SWAP1 PUSH2 0x1425 JUMP JUMPDEST PUSH1 0x1 PUSH1 0x0 DUP6 PUSH20 0xFFFFFFFFFFFFFFFFFFFFFFFFFFFFFFFFFFFFFFFF AND PUSH20 0xFFFFFFFFFFFFFFFFFFFFFFFFFFFFFFFFFFFFFFFF AND DUP2 MSTORE PUSH1 0x20 ADD SWAP1 DUP2 MSTORE PUSH1 0x20 ADD PUSH1 0x0 KECCAK256 DUP2 SWAP1 SSTORE POP DUP3 PUSH20 0xFFFFFFFFFFFFFFFFFFFFFFFFFFFFFFFFFFFFFFFF AND DUP5 PUSH20 0xFFFFFFFFFFFFFFFFFFFFFFFFFFFFFFFFFFFFFFFF AND PUSH32 0xDDF252AD1BE2C89B69C2B068FC378DAA952BA7F163C4A11628F55A4DF523B3EF DUP5 PUSH1 0x40 MLOAD PUSH2 0x96D SWAP2 SWAP1 PUSH2 0x1278 JUMP JUMPDEST PUSH1 0x40 MLOAD DUP1 SWAP2 SUB SWAP1 LOG3 PUSH1 0x1 SWAP1 POP SWAP4 SWAP3 POP POP POP JUMP JUMPDEST PUSH1 0x0 DUP1 SLOAD SWAP1 PUSH2 0x100 EXP SWAP1 DIV PUSH20 0xFFFFFFFFFFFFFFFFFFFFFFFFFFFFFFFFFFFFFFFF AND PUSH20 0xFFFFFFFFFFFFFFFFFFFFFFFFFFFFFFFFFFFFFFFF AND PUSH1 0x0 DUP1 SLOAD SWAP1 PUSH2 0x100 EXP SWAP1 DIV PUSH20 0xFFFFFFFFFFFFFFFFFFFFFFFFFFFFFFFFFFFFFFFF AND PUSH20 0xFFFFFFFFFFFFFFFFFFFFFFFFFFFFFFFFFFFFFFFF AND EQ PUSH2 0xA2E JUMPI PUSH1 0x40 MLOAD PUSH32 0x8C379A000000000000000000000000000000000000000000000000000000000 DUP2 MSTORE PUSH1 0x4 ADD PUSH2 0xA25 SWAP1 PUSH2 0x13D6 JUMP JUMPDEST PUSH1 0x40 MLOAD DUP1 SWAP2 SUB SWAP1 REVERT JUMPDEST DUP1 PUSH1 0x3 SLOAD PUSH2 0xA3C SWAP2 SWAP1 PUSH2 0x1425 JUMP JUMPDEST PUSH1 0x3 DUP2 SWAP1 SSTORE POP PUSH1 0x3 SLOAD PUSH1 0x1 PUSH1 0x0 DUP1 PUSH1 0x0 SWAP1 SLOAD SWAP1 PUSH2 0x100 EXP SWAP1 DIV PUSH20 0xFFFFFFFFFFFFFFFFFFFFFFFFFFFFFFFFFFFFFFFF AND PUSH20 0xFFFFFFFFFFFFFFFFFFFFFFFFFFFFFFFFFFFFFFFF AND PUSH20 0xFFFFFFFFFFFFFFFFFFFFFFFFFFFFFFFFFFFFFFFF AND DUP2 MSTORE PUSH1 0x20 ADD SWAP1 DUP2 MSTORE PUSH1 0x20 ADD PUSH1 0x0 KECCAK256 DUP2 SWAP1 SSTORE POP POP JUMP JUMPDEST PUSH1 0x0 DUP2 JUMP JUMPDEST PUSH1 0x0 PUSH1 0x1 PUSH1 0x0 DUP4 PUSH20 0xFFFFFFFFFFFFFFFFFFFFFFFFFFFFFFFFFFFFFFFF AND PUSH20 0xFFFFFFFFFFFFFFFFFFFFFFFFFFFFFFFFFFFFFFFF AND DUP2 MSTORE PUSH1 0x20 ADD SWAP1 DUP2 MSTORE PUSH1 0x20 ADD PUSH1 0x0 KECCAK256 SLOAD SWAP1 POP SWAP2 SWAP1 POP JUMP JUMPDEST PUSH1 0x40 MLOAD DUP1 PUSH1 0x40 ADD PUSH1 0x40 MSTORE DUP1 PUSH1 0x3 DUP2 MSTORE PUSH1 0x20 ADD PUSH32 0x4552430000000000000000000000000000000000000000000000000000000000 DUP2 MSTORE POP DUP2 JUMP JUMPDEST PUSH1 0x0 PUSH1 0x1 PUSH1 0x0 DUP1 PUSH1 0x0 SWAP1 SLOAD SWAP1 PUSH2 0x100 EXP SWAP1 DIV PUSH20 0xFFFFFFFFFFFFFFFFFFFFFFFFFFFFFFFFFFFFFFFF AND PUSH20 0xFFFFFFFFFFFFFFFFFFFFFFFFFFFFFFFFFFFFFFFF AND PUSH20 0xFFFFFFFFFFFFFFFFFFFFFFFFFFFFFFFFFFFFFFFF AND DUP2 MSTORE PUSH1 0x20 ADD SWAP1 DUP2 MSTORE PUSH1 0x20 ADD PUSH1 0x0 KECCAK256 SLOAD DUP3 GT ISZERO PUSH2 0xBA2 JUMPI PUSH1 0x0 DUP1 REVERT JUMPDEST DUP2 PUSH1 0x1 PUSH1 0x0 DUP1 PUSH1 0x0 SWAP1 SLOAD SWAP1 PUSH2 0x100 EXP SWAP1 DIV PUSH20 0xFFFFFFFFFFFFFFFFFFFFFFFFFFFFFFFFFFFFFFFF AND PUSH20 0xFFFFFFFFFFFFFFFFFFFFFFFFFFFFFFFFFFFFFFFF AND PUSH20 0xFFFFFFFFFFFFFFFFFFFFFFFFFFFFFFFFFFFFFFFF AND DUP2 MSTORE PUSH1 0x20 ADD SWAP1 DUP2 MSTORE PUSH1 0x20 ADD PUSH1 0x0 KECCAK256 SLOAD PUSH2 0xC0E SWAP2 SWAP1 PUSH2 0x147B JUMP JUMPDEST PUSH1 0x1 PUSH1 0x0 DUP1 PUSH1 0x0 SWAP1 SLOAD SWAP1 PUSH2 0x100 EXP SWAP1 DIV PUSH20 0xFFFFFFFFFFFFFFFFFFFFFFFFFFFFFFFFFFFFFFFF AND PUSH20 0xFFFFFFFFFFFFFFFFFFFFFFFFFFFFFFFFFFFFFFFF AND PUSH20 0xFFFFFFFFFFFFFFFFFFFFFFFFFFFFFFFFFFFFFFFF AND DUP2 MSTORE PUSH1 0x20 ADD SWAP1 DUP2 MSTORE PUSH1 0x20 ADD PUSH1 0x0 KECCAK256 DUP2 SWAP1 SSTORE POP DUP2 PUSH1 0x1 PUSH1 0x0 DUP6 PUSH20 0xFFFFFFFFFFFFFFFFFFFFFFFFFFFFFFFFFFFFFFFF AND PUSH20 0xFFFFFFFFFFFFFFFFFFFFFFFFFFFFFFFFFFFFFFFF AND DUP2 MSTORE PUSH1 0x20 ADD SWAP1 DUP2 MSTORE PUSH1 0x20 ADD PUSH1 0x0 KECCAK256 SLOAD PUSH2 0xCBD SWAP2 SWAP1 PUSH2 0x1425 JUMP JUMPDEST PUSH1 0x1 PUSH1 0x0 DUP6 PUSH20 0xFFFFFFFFFFFFFFFFFFFFFFFFFFFFFFFFFFFFFFFF AND PUSH20 0xFFFFFFFFFFFFFFFFFFFFFFFFFFFFFFFFFFFFFFFF AND DUP2 MSTORE PUSH1 0x20 ADD SWAP1 DUP2 MSTORE PUSH1 0x20 ADD PUSH1 0x0 KECCAK256 DUP2 SWAP1 SSTORE POP DUP3 PUSH20 0xFFFFFFFFFFFFFFFFFFFFFFFFFFFFFFFFFFFFFFFF AND PUSH1 0x0 DUP1 SLOAD SWAP1 PUSH2 0x100 EXP SWAP1 DIV PUSH20 0xFFFFFFFFFFFFFFFFFFFFFFFFFFFFFFFFFFFFFFFF AND PUSH20 0xFFFFFFFFFFFFFFFFFFFFFFFFFFFFFFFFFFFFFFFF AND PUSH32 0xDDF252AD1BE2C89B69C2B068FC378DAA952BA7F163C4A11628F55A4DF523B3EF DUP5 PUSH1 0x40 MLOAD PUSH2 0xD7D SWAP2 SWAP1 PUSH2 0x1278 JUMP JUMPDEST PUSH1 0x40 MLOAD DUP1 SWAP2 SUB SWAP1 LOG3 PUSH1 0x1 SWAP1 POP SWAP3 SWAP2 POP POP JUMP JUMPDEST PUSH1 0x0 DUP1 SLOAD SWAP1 PUSH2 0x100 EXP SWAP1 DIV PUSH20 0xFFFFFFFFFFFFFFFFFFFFFFFFFFFFFFFFFFFFFFFF AND PUSH20 0xFFFFFFFFFFFFFFFFFFFFFFFFFFFFFFFFFFFFFFFF AND PUSH1 0x0 DUP1 SLOAD SWAP1 PUSH2 0x100 EXP SWAP1 DIV PUSH20 0xFFFFFFFFFFFFFFFFFFFFFFFFFFFFFFFFFFFFFFFF AND PUSH20 0xFFFFFFFFFFFFFFFFFFFFFFFFFFFFFFFFFFFFFFFF AND EQ PUSH2 0xE3D JUMPI PUSH1 0x40 MLOAD PUSH32 0x8C379A000000000000000000000000000000000000000000000000000000000 DUP2 MSTORE PUSH1 0x4 ADD PUSH2 0xE34 SWAP1 PUSH2 0x13D6 JUMP JUMPDEST PUSH1 0x40 MLOAD DUP1 SWAP2 SUB SWAP1 REVERT JUMPDEST PUSH1 0x0 DUP1 PUSH1 0x0 SWAP1 SLOAD SWAP1 PUSH2 0x100 EXP SWAP1 DIV PUSH20 0xFFFFFFFFFFFFFFFFFFFFFFFFFFFFFFFFFFFFFFFF AND SWAP1 POP DUP2 PUSH1 0x0 DUP1 PUSH2 0x100 EXP DUP2 SLOAD DUP2 PUSH20 0xFFFFFFFFFFFFFFFFFFFFFFFFFFFFFFFFFFFFFFFF MUL NOT AND SWAP1 DUP4 PUSH20 0xFFFFFFFFFFFFFFFFFFFFFFFFFFFFFFFFFFFFFFFF AND MUL OR SWAP1 SSTORE POP PUSH1 0x1 PUSH1 0x0 DUP3 PUSH20 0xFFFFFFFFFFFFFFFFFFFFFFFFFFFFFFFFFFFFFFFF AND PUSH20 0xFFFFFFFFFFFFFFFFFFFFFFFFFFFFFFFFFFFFFFFF AND DUP2 MSTORE PUSH1 0x20 ADD SWAP1 DUP2 MSTORE PUSH1 0x20 ADD PUSH1 0x0 KECCAK256 SLOAD PUSH1 0x3 SLOAD PUSH2 0xEF0 SWAP2 SWAP1 PUSH2 0x1425 JUMP JUMPDEST PUSH1 0x1 PUSH1 0x0 DUP1 PUSH1 0x0 SWAP1 SLOAD SWAP1 PUSH2 0x100 EXP SWAP1 DIV PUSH20 0xFFFFFFFFFFFFFFFFFFFFFFFFFFFFFFFFFFFFFFFF AND PUSH20 0xFFFFFFFFFFFFFFFFFFFFFFFFFFFFFFFFFFFFFFFF AND PUSH20 0xFFFFFFFFFFFFFFFFFFFFFFFFFFFFFFFFFFFFFFFF AND DUP2 MSTORE PUSH1 0x20 ADD SWAP1 DUP2 MSTORE PUSH1 0x20 ADD PUSH1 0x0 KECCAK256 DUP2 SWAP1 SSTORE POP PUSH1 0x0 PUSH1 0x1 PUSH1 0x0 DUP4 PUSH20 0xFFFFFFFFFFFFFFFFFFFFFFFFFFFFFFFFFFFFFFFF AND PUSH20 0xFFFFFFFFFFFFFFFFFFFFFFFFFFFFFFFFFFFFFFFF AND DUP2 MSTORE PUSH1 0x20 ADD SWAP1 DUP2 MSTORE PUSH1 0x20 ADD PUSH1 0x0 KECCAK256 DUP2 SWAP1 SSTORE POP POP POP JUMP JUMPDEST PUSH1 0x0 PUSH1 0x2 PUSH1 0x0 DUP5 PUSH20 0xFFFFFFFFFFFFFFFFFFFFFFFFFFFFFFFFFFFFFFFF AND PUSH20 0xFFFFFFFFFFFFFFFFFFFFFFFFFFFFFFFFFFFFFFFF AND DUP2 MSTORE PUSH1 0x20 ADD SWAP1 DUP2 MSTORE PUSH1 0x20 ADD PUSH1 0x0 KECCAK256 PUSH1 0x0 DUP4 PUSH20 0xFFFFFFFFFFFFFFFFFFFFFFFFFFFFFFFFFFFFFFFF AND PUSH20 0xFFFFFFFFFFFFFFFFFFFFFFFFFFFFFFFFFFFFFFFF AND DUP2 MSTORE PUSH1 0x20 ADD SWAP1 DUP2 MSTORE PUSH1 0x20 ADD PUSH1 0x0 KECCAK256 SLOAD SWAP1 POP SWAP3 SWAP2 POP POP JUMP JUMPDEST PUSH1 0x0 DUP1 SLOAD SWAP1 PUSH2 0x100 EXP SWAP1 DIV PUSH20 0xFFFFFFFFFFFFFFFFFFFFFFFFFFFFFFFFFFFFFFFF AND DUP2 JUMP JUMPDEST PUSH1 0x0 PUSH20 0xFFFFFFFFFFFFFFFFFFFFFFFFFFFFFFFFFFFFFFFF DUP3 AND SWAP1 POP SWAP2 SWAP1 POP JUMP JUMPDEST PUSH1 0x0 PUSH2 0x1073 DUP3 PUSH2 0x1048 JUMP JUMPDEST SWAP1 POP SWAP2 SWAP1 POP JUMP JUMPDEST PUSH2 0x1083 DUP2 PUSH2 0x1068 JUMP JUMPDEST DUP3 MSTORE POP POP JUMP JUMPDEST PUSH1 0x0 PUSH1 0x20 DUP3 ADD SWAP1 POP PUSH2 0x109E PUSH1 0x0 DUP4 ADD DUP5 PUSH2 0x107A JUMP JUMPDEST SWAP3 SWAP2 POP POP JUMP JUMPDEST PUSH1 0x0 DUP1 REVERT JUMPDEST PUSH1 0x0 DUP2 SWAP1 POP SWAP2 SWAP1 POP JUMP JUMPDEST PUSH2 0x10BC DUP2 PUSH2 0x10A9 JUMP JUMPDEST DUP2 EQ PUSH2 0x10C7 JUMPI PUSH1 0x0 DUP1 REVERT JUMPDEST POP JUMP JUMPDEST PUSH1 0x0 DUP2 CALLDATALOAD SWAP1 POP PUSH2 0x10D9 DUP2 PUSH2 0x10B3 JUMP JUMPDEST SWAP3 SWAP2 POP POP JUMP JUMPDEST PUSH1 0x0 PUSH1 0x20 DUP3 DUP5 SUB SLT ISZERO PUSH2 0x10F5 JUMPI PUSH2 0x10F4 PUSH2 0x10A4 JUMP JUMPDEST JUMPDEST PUSH1 0x0 PUSH2 0x1103 DUP5 DUP3 DUP6 ADD PUSH2 0x10CA JUMP JUMPDEST SWAP2 POP POP SWAP3 SWAP2 POP POP JUMP JUMPDEST PUSH1 0x0 DUP2 MLOAD SWAP1 POP SWAP2 SWAP1 POP JUMP JUMPDEST PUSH1 0x0 DUP3 DUP3 MSTORE PUSH1 0x20 DUP3 ADD SWAP1 POP SWAP3 SWAP2 POP POP JUMP JUMPDEST PUSH1 0x0 JUMPDEST DUP4 DUP2 LT ISZERO PUSH2 0x1146 JUMPI DUP1 DUP3 ADD MLOAD DUP2 DUP5 ADD MSTORE PUSH1 0x20 DUP2 ADD SWAP1 POP PUSH2 0x112B JUMP JUMPDEST DUP4 DUP2 GT ISZERO PUSH2 0x1155 JUMPI PUSH1 0x0 DUP5 DUP5 ADD MSTORE JUMPDEST POP POP POP POP JUMP JUMPDEST PUSH1 0x0 PUSH1 0x1F NOT PUSH1 0x1F DUP4 ADD AND SWAP1 POP SWAP2 SWAP1 POP JUMP JUMPDEST PUSH1 0x0 PUSH2 0x1177 DUP3 PUSH2 0x110C JUMP JUMPDEST PUSH2 0x1181 DUP2 DUP6 PUSH2 0x1117 JUMP JUMPDEST SWAP4 POP PUSH2 0x1191 DUP2 DUP6 PUSH1 0x20 DUP7 ADD PUSH2 0x1128 JUMP JUMPDEST PUSH2 0x119A DUP2 PUSH2 0x115B JUMP JUMPDEST DUP5 ADD SWAP2 POP POP SWAP3 SWAP2 POP POP JUMP JUMPDEST PUSH1 0x0 PUSH1 0x20 DUP3 ADD SWAP1 POP DUP2 DUP2 SUB PUSH1 0x0 DUP4 ADD MSTORE PUSH2 0x11BF DUP2 DUP5 PUSH2 0x116C JUMP JUMPDEST SWAP1 POP SWAP3 SWAP2 POP POP JUMP JUMPDEST PUSH2 0x11D0 DUP2 PUSH2 0x1068 JUMP JUMPDEST DUP2 EQ PUSH2 0x11DB JUMPI PUSH1 0x0 DUP1 REVERT JUMPDEST POP JUMP JUMPDEST PUSH1 0x0 DUP2 CALLDATALOAD SWAP1 POP PUSH2 0x11ED DUP2 PUSH2 0x11C7 JUMP JUMPDEST SWAP3 SWAP2 POP POP JUMP JUMPDEST PUSH1 0x0 DUP1 PUSH1 0x40 DUP4 DUP6 SUB SLT ISZERO PUSH2 0x120A JUMPI PUSH2 0x1209 PUSH2 0x10A4 JUMP JUMPDEST JUMPDEST PUSH1 0x0 PUSH2 0x1218 DUP6 DUP3 DUP7 ADD PUSH2 0x11DE JUMP JUMPDEST SWAP3 POP POP PUSH1 0x20 PUSH2 0x1229 DUP6 DUP3 DUP7 ADD PUSH2 0x10CA JUMP JUMPDEST SWAP2 POP POP SWAP3 POP SWAP3 SWAP1 POP JUMP JUMPDEST PUSH1 0x0 DUP2 ISZERO ISZERO SWAP1 POP SWAP2 SWAP1 POP JUMP JUMPDEST PUSH2 0x1248 DUP2 PUSH2 0x1233 JUMP JUMPDEST DUP3 MSTORE POP POP JUMP JUMPDEST PUSH1 0x0 PUSH1 0x20 DUP3 ADD SWAP1 POP PUSH2 0x1263 PUSH1 0x0 DUP4 ADD DUP5 PUSH2 0x123F JUMP JUMPDEST SWAP3 SWAP2 POP POP JUMP JUMPDEST PUSH2 0x1272 DUP2 PUSH2 0x10A9 JUMP JUMPDEST DUP3 MSTORE POP POP JUMP JUMPDEST PUSH1 0x0 PUSH1 0x20 DUP3 ADD SWAP1 POP PUSH2 0x128D PUSH1 0x0 DUP4 ADD DUP5 PUSH2 0x1269 JUMP JUMPDEST SWAP3 SWAP2 POP POP JUMP JUMPDEST PUSH1 0x0 DUP1 PUSH1 0x0 PUSH1 0x60 DUP5 DUP7 SUB SLT ISZERO PUSH2 0x12AC JUMPI PUSH2 0x12AB PUSH2 0x10A4 JUMP JUMPDEST JUMPDEST PUSH1 0x0 PUSH2 0x12BA DUP7 DUP3 DUP8 ADD PUSH2 0x11DE JUMP JUMPDEST SWAP4 POP POP PUSH1 0x20 PUSH2 0x12CB DUP7 DUP3 DUP8 ADD PUSH2 0x11DE JUMP JUMPDEST SWAP3 POP POP PUSH1 0x40 PUSH2 0x12DC DUP7 DUP3 DUP8 ADD PUSH2 0x10CA JUMP JUMPDEST SWAP2 POP POP SWAP3 POP SWAP3 POP SWAP3 JUMP JUMPDEST PUSH1 0x0 PUSH1 0xFF DUP3 AND SWAP1 POP SWAP2 SWAP1 POP JUMP JUMPDEST PUSH2 0x12FC DUP2 PUSH2 0x12E6 JUMP JUMPDEST DUP3 MSTORE POP POP JUMP JUMPDEST PUSH1 0x0 PUSH1 0x20 DUP3 ADD SWAP1 POP PUSH2 0x1317 PUSH1 0x0 DUP4 ADD DUP5 PUSH2 0x12F3 JUMP JUMPDEST SWAP3 SWAP2 POP POP JUMP JUMPDEST PUSH1 0x0 PUSH1 0x20 DUP3 DUP5 SUB SLT ISZERO PUSH2 0x1333 JUMPI PUSH2 0x1332 PUSH2 0x10A4 JUMP JUMPDEST JUMPDEST PUSH1 0x0 PUSH2 0x1341 DUP5 DUP3 DUP6 ADD PUSH2 0x11DE JUMP JUMPDEST SWAP2 POP POP SWAP3 SWAP2 POP POP JUMP JUMPDEST PUSH1 0x0 DUP1 PUSH1 0x40 DUP4 DUP6 SUB SLT ISZERO PUSH2 0x1361 JUMPI PUSH2 0x1360 PUSH2 0x10A4 JUMP JUMPDEST JUMPDEST PUSH1 0x0 PUSH2 0x136F DUP6 DUP3 DUP7 ADD PUSH2 0x11DE JUMP JUMPDEST SWAP3 POP POP PUSH1 0x20 PUSH2 0x1380 DUP6 DUP3 DUP7 ADD PUSH2 0x11DE JUMP JUMPDEST SWAP2 POP POP SWAP3 POP SWAP3 SWAP1 POP JUMP JUMPDEST PUSH32 0x796F7520417265204E6F74204F776E6572000000000000000000000000000000 PUSH1 0x0 DUP3 ADD MSTORE POP JUMP JUMPDEST PUSH1 0x0 PUSH2 0x13C0 PUSH1 0x11 DUP4 PUSH2 0x1117 JUMP JUMPDEST SWAP2 POP PUSH2 0x13CB DUP3 PUSH2 0x138A JUMP JUMPDEST PUSH1 0x20 DUP3 ADD SWAP1 POP SWAP2 SWAP1 POP JUMP JUMPDEST PUSH1 0x0 PUSH1 0x20 DUP3 ADD SWAP1 POP DUP2 DUP2 SUB PUSH1 0x0 DUP4 ADD MSTORE PUSH2 0x13EF DUP2 PUSH2 0x13B3 JUMP JUMPDEST SWAP1 POP SWAP2 SWAP1 POP JUMP JUMPDEST PUSH32 0x4E487B7100000000000000000000000000000000000000000000000000000000 PUSH1 0x0 MSTORE PUSH1 0x11 PUSH1 0x4 MSTORE PUSH1 0x24 PUSH1 0x0 REVERT JUMPDEST PUSH1 0x0 PUSH2 0x1430 DUP3 PUSH2 0x10A9 JUMP JUMPDEST SWAP2 POP PUSH2 0x143B DUP4 PUSH2 0x10A9 JUMP JUMPDEST SWAP3 POP DUP3 PUSH32 0xFFFFFFFFFFFFFFFFFFFFFFFFFFFFFFFFFFFFFFFFFFFFFFFFFFFFFFFFFFFFFFFF SUB DUP3 GT ISZERO PUSH2 0x1470 JUMPI PUSH2 0x146F PUSH2 0x13F6 JUMP JUMPDEST JUMPDEST DUP3 DUP3 ADD SWAP1 POP SWAP3 SWAP2 POP POP JUMP JUMPDEST PUSH1 0x0 PUSH2 0x1486 DUP3 PUSH2 0x10A9 JUMP JUMPDEST SWAP2 POP PUSH2 0x1491 DUP4 PUSH2 0x10A9 JUMP JUMPDEST SWAP3 POP DUP3 DUP3 LT ISZERO PUSH2 0x14A4 JUMPI PUSH2 0x14A3 PUSH2 0x13F6 JUMP JUMPDEST JUMPDEST DUP3 DUP3 SUB SWAP1 POP SWAP3 SWAP2 POP POP JUMP INVALID LOG2 PUSH5 0x6970667358 0x22 SLT KECCAK256 0xE8 STATICCALL 0xC1 JUMPDEST 0xBF PUSH8 0xC13256F840CC35D1 PUSH28 0xFF6B9BEE449BED5B51844299888AE93E064736F6C634300080E0033 "
				},
				"gasEstimates": {
					"creation": {
						"codeDepositCost": "1069800",
						"executionCost": "73926",
						"totalCost": "1143726"
					},
					"external": {
						"TransferOwnership(address)": "infinite",
						"allowance(address,address)": "infinite",
						"approve(address,uint256)": "infinite",
						"badha(uint256)": "infinite",
						"balanceOf(address)": "2886",
						"decimals()": "358",
						"mowner()": "2599",
						"name()": "infinite",
						"ownerId()": "2546",
						"symbol()": "infinite",
						"toekBadha(uint256)": "infinite",
						"totalSupply()": "2482",
						"transfer(address,uint256)": "infinite",
						"transferFrom(address,address,uint256)": "infinite"
					}
				},
				"methodIdentifiers": {
					"TransferOwnership(address)": "cfaaa266",
					"allowance(address,address)": "dd62ed3e",
					"approve(address,uint256)": "095ea7b3",
					"badha(uint256)": "2dda936f",
					"balanceOf(address)": "70a08231",
					"decimals()": "313ce567",
					"mowner()": "f5ba02f9",
					"name()": "06fdde03",
					"ownerId()": "019c08f5",
					"symbol()": "95d89b41",
					"toekBadha(uint256)": "05014f08",
					"totalSupply()": "18160ddd",
					"transfer(address,uint256)": "a9059cbb",
					"transferFrom(address,address,uint256)": "23b872dd"
				}
			},
			"storageLayout": {
				"storage": [
					{
						"astId": 83,
						"contract": "ERC20_2.sol:ERC20Basic",
						"label": "mowner",
						"offset": 0,
						"slot": "0",
						"type": "t_address"
					},
					{
						"astId": 87,
						"contract": "ERC20_2.sol:ERC20Basic",
						"label": "balances",
						"offset": 0,
						"slot": "1",
						"type": "t_mapping(t_address,t_uint256)"
					},
					{
						"astId": 93,
						"contract": "ERC20_2.sol:ERC20Basic",
						"label": "allowed",
						"offset": 0,
						"slot": "2",
						"type": "t_mapping(t_address,t_mapping(t_address,t_uint256))"
					},
					{
						"astId": 96,
						"contract": "ERC20_2.sol:ERC20Basic",
						"label": "totalSupply_",
						"offset": 0,
						"slot": "3",
						"type": "t_uint256"
					}
				],
				"types": {
					"t_address": {
						"encoding": "inplace",
						"label": "address",
						"numberOfBytes": "20"
					},
					"t_mapping(t_address,t_mapping(t_address,t_uint256))": {
						"encoding": "mapping",
						"key": "t_address",
						"label": "mapping(address => mapping(address => uint256))",
						"numberOfBytes": "32",
						"value": "t_mapping(t_address,t_uint256)"
					},
					"t_mapping(t_address,t_uint256)": {
						"encoding": "mapping",
						"key": "t_address",
						"label": "mapping(address => uint256)",
						"numberOfBytes": "32",
						"value": "t_uint256"
					},
					"t_uint256": {
						"encoding": "inplace",
						"label": "uint256",
						"numberOfBytes": "32"
					}
				}
			},
			"userdoc": {
				"kind": "user",
				"methods": {},
				"version": 1
			}
		}
	}
}