{
	"constructor.sol": {
		"_constructor": {
			"abi": [
				{
					"inputs": [
						{
							"internalType": "uint256",
							"name": "_age",
							"type": "uint256"
						},
						{
							"internalType": "address",
							"name": "_owner",
							"type": "address"
						},
						{
							"internalType": "string",
							"name": "_name",
							"type": "string"
						}
					],
					"stateMutability": "nonpayable",
					"type": "constructor"
				},
				{
					"inputs": [],
					"name": "age",
					"outputs": [
						{
							"internalType": "uint256",
							"name": "",
							"type": "uint256"
						}
					],
					"stateMutability": "view",
					"type": "function"
				},
				{
					"inputs": [],
					"name": "name",
					"outputs": [
						{
							"internalType": "string",
							"name": "",
							"type": "string"
						}
					],
					"stateMutability": "view",
					"type": "function"
				},
				{
					"inputs": [],
					"name": "owner",
					"outputs": [
						{
							"internalType": "address",
							"name": "",
							"type": "address"
						}
					],
					"stateMutability": "view",
					"type": "function"
				}
			],
			"devdoc": {
				"kind": "dev",
				"methods": {},
				"version": 1
			},
			"evm": {
				"assembly": "    /* \"constructor.sol\":60:273  contract _constructor{... */\n  mstore(0x40, 0x80)\n    /* \"constructor.sol\":158:271  constructor (uint _age , address _owner , string memory _name){... */\n  callvalue\n  dup1\n  iszero\n  tag_1\n  jumpi\n  0x00\n  dup1\n  revert\ntag_1:\n  pop\n  mload(0x40)\n  sub(codesize, bytecodeSize)\n  dup1\n  bytecodeSize\n  dup4\n  codecopy\n  dup2\n  dup2\n  add\n  0x40\n  mstore\n  dup2\n  add\n  swap1\n  tag_2\n  swap2\n  swap1\n  tag_3\n  jump\t// in\ntag_2:\n    /* \"constructor.sol\":236:240  _age */\n  dup3\n    /* \"constructor.sol\":230:233  age */\n  0x00\n    /* \"constructor.sol\":230:240  age = _age */\n  dup2\n  swap1\n  sstore\n  pop\n    /* \"constructor.sol\":258:264  _owner */\n  dup2\n    /* \"constructor.sol\":250:255  owner */\n  0x01\n  0x00\n    /* \"constructor.sol\":250:264  owner = _owner */\n  0x0100\n  exp\n  dup2\n  sload\n  dup2\n  0xffffffffffffffffffffffffffffffffffffffff\n  mul\n  not\n  and\n  swap1\n  dup4\n  0xffffffffffffffffffffffffffffffffffffffff\n  and\n  mul\n  or\n  swap1\n  sstore\n  pop\n    /* \"constructor.sol\":158:271  constructor (uint _age , address _owner , string memory _name){... */\n  pop\n  pop\n  pop\n    /* \"constructor.sol\":60:273  contract _constructor{... */\n  jump(tag_6)\n    /* \"#utility.yul\":7:428   */\ntag_8:\n    /* \"#utility.yul\":96:101   */\n  0x00\n    /* \"#utility.yul\":121:187   */\n  tag_10\n    /* \"#utility.yul\":137:186   */\n  tag_11\n    /* \"#utility.yul\":179:185   */\n  dup5\n    /* \"#utility.yul\":137:186   */\n  tag_12\n  jump\t// in\ntag_11:\n    /* \"#utility.yul\":121:187   */\n  tag_13\n  jump\t// in\ntag_10:\n    /* \"#utility.yul\":112:187   */\n  swap1\n  pop\n    /* \"#utility.yul\":210:216   */\n  dup3\n    /* \"#utility.yul\":203:208   */\n  dup2\n    /* \"#utility.yul\":196:217   */\n  mstore\n    /* \"#utility.yul\":248:252   */\n  0x20\n    /* \"#utility.yul\":241:246   */\n  dup2\n    /* \"#utility.yul\":237:253   */\n  add\n    /* \"#utility.yul\":286:289   */\n  dup5\n    /* \"#utility.yul\":277:283   */\n  dup5\n    /* \"#utility.yul\":272:275   */\n  dup5\n    /* \"#utility.yul\":268:284   */\n  add\n    /* \"#utility.yul\":265:290   */\n  gt\n    /* \"#utility.yul\":262:374   */\n  iszero\n  tag_14\n  jumpi\n    /* \"#utility.yul\":293:372   */\n  tag_15\n  tag_16\n  jump\t// in\ntag_15:\n    /* \"#utility.yul\":262:374   */\ntag_14:\n    /* \"#utility.yul\":383:422   */\n  tag_17\n    /* \"#utility.yul\":415:421   */\n  dup5\n    /* \"#utility.yul\":410:413   */\n  dup3\n    /* \"#utility.yul\":405:408   */\n  dup6\n    /* \"#utility.yul\":383:422   */\n  tag_18\n  jump\t// in\ntag_17:\n    /* \"#utility.yul\":102:428   */\n  pop\n    /* \"#utility.yul\":7:428   */\n  swap4\n  swap3\n  pop\n  pop\n  pop\n  jump\t// out\n    /* \"#utility.yul\":434:577   */\ntag_19:\n    /* \"#utility.yul\":491:496   */\n  0x00\n    /* \"#utility.yul\":522:528   */\n  dup2\n    /* \"#utility.yul\":516:529   */\n  mload\n    /* \"#utility.yul\":507:529   */\n  swap1\n  pop\n    /* \"#utility.yul\":538:571   */\n  tag_21\n    /* \"#utility.yul\":565:570   */\n  dup2\n    /* \"#utility.yul\":538:571   */\n  tag_22\n  jump\t// in\ntag_21:\n    /* \"#utility.yul\":434:577   */\n  swap3\n  swap2\n  pop\n  pop\n  jump\t// out\n    /* \"#utility.yul\":597:952   */\ntag_23:\n    /* \"#utility.yul\":664:669   */\n  0x00\n    /* \"#utility.yul\":713:716   */\n  dup3\n    /* \"#utility.yul\":706:710   */\n  0x1f\n    /* \"#utility.yul\":698:704   */\n  dup4\n    /* \"#utility.yul\":694:711   */\n  add\n    /* \"#utility.yul\":690:717   */\n  slt\n    /* \"#utility.yul\":680:802   */\n  tag_25\n  jumpi\n    /* \"#utility.yul\":721:800   */\n  tag_26\n  tag_27\n  jump\t// in\ntag_26:\n    /* \"#utility.yul\":680:802   */\ntag_25:\n    /* \"#utility.yul\":831:837   */\n  dup2\n    /* \"#utility.yul\":825:838   */\n  mload\n    /* \"#utility.yul\":856:946   */\n  tag_28\n    /* \"#utility.yul\":942:945   */\n  dup5\n    /* \"#utility.yul\":934:940   */\n  dup3\n    /* \"#utility.yul\":927:931   */\n  0x20\n    /* \"#utility.yul\":919:925   */\n  dup7\n    /* \"#utility.yul\":915:932   */\n  add\n    /* \"#utility.yul\":856:946   */\n  tag_8\n  jump\t// in\ntag_28:\n    /* \"#utility.yul\":847:946   */\n  swap2\n  pop\n    /* \"#utility.yul\":670:952   */\n  pop\n    /* \"#utility.yul\":597:952   */\n  swap3\n  swap2\n  pop\n  pop\n  jump\t// out\n    /* \"#utility.yul\":958:1101   */\ntag_29:\n    /* \"#utility.yul\":1015:1020   */\n  0x00\n    /* \"#utility.yul\":1046:1052   */\n  dup2\n    /* \"#utility.yul\":1040:1053   */\n  mload\n    /* \"#utility.yul\":1031:1053   */\n  swap1\n  pop\n    /* \"#utility.yul\":1062:1095   */\n  tag_31\n    /* \"#utility.yul\":1089:1094   */\n  dup2\n    /* \"#utility.yul\":1062:1095   */\n  tag_32\n  jump\t// in\ntag_31:\n    /* \"#utility.yul\":958:1101   */\n  swap3\n  swap2\n  pop\n  pop\n  jump\t// out\n    /* \"#utility.yul\":1107:1943   */\ntag_3:\n    /* \"#utility.yul\":1205:1211   */\n  0x00\n    /* \"#utility.yul\":1213:1219   */\n  dup1\n    /* \"#utility.yul\":1221:1227   */\n  0x00\n    /* \"#utility.yul\":1270:1272   */\n  0x60\n    /* \"#utility.yul\":1258:1267   */\n  dup5\n    /* \"#utility.yul\":1249:1256   */\n  dup7\n    /* \"#utility.yul\":1245:1268   */\n  sub\n    /* \"#utility.yul\":1241:1273   */\n  slt\n    /* \"#utility.yul\":1238:1357   */\n  iszero\n  tag_34\n  jumpi\n    /* \"#utility.yul\":1276:1355   */\n  tag_35\n  tag_36\n  jump\t// in\ntag_35:\n    /* \"#utility.yul\":1238:1357   */\ntag_34:\n    /* \"#utility.yul\":1396:1397   */\n  0x00\n    /* \"#utility.yul\":1421:1485   */\n  tag_37\n    /* \"#utility.yul\":1477:1484   */\n  dup7\n    /* \"#utility.yul\":1468:1474   */\n  dup3\n    /* \"#utility.yul\":1457:1466   */\n  dup8\n    /* \"#utility.yul\":1453:1475   */\n  add\n    /* \"#utility.yul\":1421:1485   */\n  tag_29\n  jump\t// in\ntag_37:\n    /* \"#utility.yul\":1411:1485   */\n  swap4\n  pop\n    /* \"#utility.yul\":1367:1495   */\n  pop\n    /* \"#utility.yul\":1534:1536   */\n  0x20\n    /* \"#utility.yul\":1560:1624   */\n  tag_38\n    /* \"#utility.yul\":1616:1623   */\n  dup7\n    /* \"#utility.yul\":1607:1613   */\n  dup3\n    /* \"#utility.yul\":1596:1605   */\n  dup8\n    /* \"#utility.yul\":1592:1614   */\n  add\n    /* \"#utility.yul\":1560:1624   */\n  tag_19\n  jump\t// in\ntag_38:\n    /* \"#utility.yul\":1550:1624   */\n  swap3\n  pop\n    /* \"#utility.yul\":1505:1634   */\n  pop\n    /* \"#utility.yul\":1694:1696   */\n  0x40\n    /* \"#utility.yul\":1683:1692   */\n  dup5\n    /* \"#utility.yul\":1679:1697   */\n  add\n    /* \"#utility.yul\":1673:1698   */\n  mload\n    /* \"#utility.yul\":1725:1743   */\n  0xffffffffffffffff\n    /* \"#utility.yul\":1717:1723   */\n  dup2\n    /* \"#utility.yul\":1714:1744   */\n  gt\n    /* \"#utility.yul\":1711:1828   */\n  iszero\n  tag_39\n  jumpi\n    /* \"#utility.yul\":1747:1826   */\n  tag_40\n  tag_41\n  jump\t// in\ntag_40:\n    /* \"#utility.yul\":1711:1828   */\ntag_39:\n    /* \"#utility.yul\":1852:1926   */\n  tag_42\n    /* \"#utility.yul\":1918:1925   */\n  dup7\n    /* \"#utility.yul\":1909:1915   */\n  dup3\n    /* \"#utility.yul\":1898:1907   */\n  dup8\n    /* \"#utility.yul\":1894:1916   */\n  add\n    /* \"#utility.yul\":1852:1926   */\n  tag_23\n  jump\t// in\ntag_42:\n    /* \"#utility.yul\":1842:1926   */\n  swap2\n  pop\n    /* \"#utility.yul\":1644:1936   */\n  pop\n    /* \"#utility.yul\":1107:1943   */\n  swap3\n  pop\n  swap3\n  pop\n  swap3\n  jump\t// out\n    /* \"#utility.yul\":1949:2078   */\ntag_13:\n    /* \"#utility.yul\":1983:1989   */\n  0x00\n    /* \"#utility.yul\":2010:2030   */\n  tag_44\n  tag_45\n  jump\t// in\ntag_44:\n    /* \"#utility.yul\":2000:2030   */\n  swap1\n  pop\n    /* \"#utility.yul\":2039:2072   */\n  tag_46\n    /* \"#utility.yul\":2067:2071   */\n  dup3\n    /* \"#utility.yul\":2059:2065   */\n  dup3\n    /* \"#utility.yul\":2039:2072   */\n  tag_47\n  jump\t// in\ntag_46:\n    /* \"#utility.yul\":1949:2078   */\n  swap2\n  swap1\n  pop\n  jump\t// out\n    /* \"#utility.yul\":2084:2159   */\ntag_45:\n    /* \"#utility.yul\":2117:2123   */\n  0x00\n    /* \"#utility.yul\":2150:2152   */\n  0x40\n    /* \"#utility.yul\":2144:2153   */\n  mload\n    /* \"#utility.yul\":2134:2153   */\n  swap1\n  pop\n    /* \"#utility.yul\":2084:2159   */\n  swap1\n  jump\t// out\n    /* \"#utility.yul\":2165:2473   */\ntag_12:\n    /* \"#utility.yul\":2227:2231   */\n  0x00\n    /* \"#utility.yul\":2317:2335   */\n  0xffffffffffffffff\n    /* \"#utility.yul\":2309:2315   */\n  dup3\n    /* \"#utility.yul\":2306:2336   */\n  gt\n    /* \"#utility.yul\":2303:2359   */\n  iszero\n  tag_50\n  jumpi\n    /* \"#utility.yul\":2339:2357   */\n  tag_51\n  tag_52\n  jump\t// in\ntag_51:\n    /* \"#utility.yul\":2303:2359   */\ntag_50:\n    /* \"#utility.yul\":2377:2406   */\n  tag_53\n    /* \"#utility.yul\":2399:2405   */\n  dup3\n    /* \"#utility.yul\":2377:2406   */\n  tag_54\n  jump\t// in\ntag_53:\n    /* \"#utility.yul\":2369:2406   */\n  swap1\n  pop\n    /* \"#utility.yul\":2461:2465   */\n  0x20\n    /* \"#utility.yul\":2455:2459   */\n  dup2\n    /* \"#utility.yul\":2451:2466   */\n  add\n    /* \"#utility.yul\":2443:2466   */\n  swap1\n  pop\n    /* \"#utility.yul\":2165:2473   */\n  swap2\n  swap1\n  pop\n  jump\t// out\n    /* \"#utility.yul\":2479:2575   */\ntag_55:\n    /* \"#utility.yul\":2516:2523   */\n  0x00\n    /* \"#utility.yul\":2545:2569   */\n  tag_57\n    /* \"#utility.yul\":2563:2568   */\n  dup3\n    /* \"#utility.yul\":2545:2569   */\n  tag_58\n  jump\t// in\ntag_57:\n    /* \"#utility.yul\":2534:2569   */\n  swap1\n  pop\n    /* \"#utility.yul\":2479:2575   */\n  swap2\n  swap1\n  pop\n  jump\t// out\n    /* \"#utility.yul\":2581:2707   */\ntag_58:\n    /* \"#utility.yul\":2618:2625   */\n  0x00\n    /* \"#utility.yul\":2658:2700   */\n  0xffffffffffffffffffffffffffffffffffffffff\n    /* \"#utility.yul\":2651:2656   */\n  dup3\n    /* \"#utility.yul\":2647:2701   */\n  and\n    /* \"#utility.yul\":2636:2701   */\n  swap1\n  pop\n    /* \"#utility.yul\":2581:2707   */\n  swap2\n  swap1\n  pop\n  jump\t// out\n    /* \"#utility.yul\":2713:2790   */\ntag_60:\n    /* \"#utility.yul\":2750:2757   */\n  0x00\n    /* \"#utility.yul\":2779:2784   */\n  dup2\n    /* \"#utility.yul\":2768:2784   */\n  swap1\n  pop\n    /* \"#utility.yul\":2713:2790   */\n  swap2\n  swap1\n  pop\n  jump\t// out\n    /* \"#utility.yul\":2796:3103   */\ntag_18:\n    /* \"#utility.yul\":2864:2865   */\n  0x00\n    /* \"#utility.yul\":2874:2987   */\ntag_63:\n    /* \"#utility.yul\":2888:2894   */\n  dup4\n    /* \"#utility.yul\":2885:2886   */\n  dup2\n    /* \"#utility.yul\":2882:2895   */\n  lt\n    /* \"#utility.yul\":2874:2987   */\n  iszero\n  tag_65\n  jumpi\n    /* \"#utility.yul\":2973:2974   */\n  dup1\n    /* \"#utility.yul\":2968:2971   */\n  dup3\n    /* \"#utility.yul\":2964:2975   */\n  add\n    /* \"#utility.yul\":2958:2976   */\n  mload\n    /* \"#utility.yul\":2954:2955   */\n  dup2\n    /* \"#utility.yul\":2949:2952   */\n  dup5\n    /* \"#utility.yul\":2945:2956   */\n  add\n    /* \"#utility.yul\":2938:2977   */\n  mstore\n    /* \"#utility.yul\":2910:2912   */\n  0x20\n    /* \"#utility.yul\":2907:2908   */\n  dup2\n    /* \"#utility.yul\":2903:2913   */\n  add\n    /* \"#utility.yul\":2898:2913   */\n  swap1\n  pop\n    /* \"#utility.yul\":2874:2987   */\n  jump(tag_63)\ntag_65:\n    /* \"#utility.yul\":3005:3011   */\n  dup4\n    /* \"#utility.yul\":3002:3003   */\n  dup2\n    /* \"#utility.yul\":2999:3012   */\n  gt\n    /* \"#utility.yul\":2996:3097   */\n  iszero\n  tag_66\n  jumpi\n    /* \"#utility.yul\":3085:3086   */\n  0x00\n    /* \"#utility.yul\":3076:3082   */\n  dup5\n    /* \"#utility.yul\":3071:3074   */\n  dup5\n    /* \"#utility.yul\":3067:3083   */\n  add\n    /* \"#utility.yul\":3060:3087   */\n  mstore\n    /* \"#utility.yul\":2996:3097   */\ntag_66:\n    /* \"#utility.yul\":2845:3103   */\n  pop\n    /* \"#utility.yul\":2796:3103   */\n  pop\n  pop\n  pop\n  jump\t// out\n    /* \"#utility.yul\":3109:3390   */\ntag_47:\n    /* \"#utility.yul\":3192:3219   */\n  tag_68\n    /* \"#utility.yul\":3214:3218   */\n  dup3\n    /* \"#utility.yul\":3192:3219   */\n  tag_54\n  jump\t// in\ntag_68:\n    /* \"#utility.yul\":3184:3190   */\n  dup2\n    /* \"#utility.yul\":3180:3220   */\n  add\n    /* \"#utility.yul\":3322:3328   */\n  dup2\n    /* \"#utility.yul\":3310:3320   */\n  dup2\n    /* \"#utility.yul\":3307:3329   */\n  lt\n    /* \"#utility.yul\":3286:3304   */\n  0xffffffffffffffff\n    /* \"#utility.yul\":3274:3284   */\n  dup3\n    /* \"#utility.yul\":3271:3305   */\n  gt\n    /* \"#utility.yul\":3268:3330   */\n  or\n    /* \"#utility.yul\":3265:3353   */\n  iszero\n  tag_69\n  jumpi\n    /* \"#utility.yul\":3333:3351   */\n  tag_70\n  tag_52\n  jump\t// in\ntag_70:\n    /* \"#utility.yul\":3265:3353   */\ntag_69:\n    /* \"#utility.yul\":3373:3383   */\n  dup1\n    /* \"#utility.yul\":3369:3371   */\n  0x40\n    /* \"#utility.yul\":3362:3384   */\n  mstore\n    /* \"#utility.yul\":3152:3390   */\n  pop\n    /* \"#utility.yul\":3109:3390   */\n  pop\n  pop\n  jump\t// out\n    /* \"#utility.yul\":3396:3576   */\ntag_52:\n    /* \"#utility.yul\":3444:3521   */\n  0x4e487b7100000000000000000000000000000000000000000000000000000000\n    /* \"#utility.yul\":3441:3442   */\n  0x00\n    /* \"#utility.yul\":3434:3522   */\n  mstore\n    /* \"#utility.yul\":3541:3545   */\n  0x41\n    /* \"#utility.yul\":3538:3539   */\n  0x04\n    /* \"#utility.yul\":3531:3546   */\n  mstore\n    /* \"#utility.yul\":3565:3569   */\n  0x24\n    /* \"#utility.yul\":3562:3563   */\n  0x00\n    /* \"#utility.yul\":3555:3570   */\n  revert\n    /* \"#utility.yul\":3582:3699   */\ntag_27:\n    /* \"#utility.yul\":3691:3692   */\n  0x00\n    /* \"#utility.yul\":3688:3689   */\n  dup1\n    /* \"#utility.yul\":3681:3693   */\n  revert\n    /* \"#utility.yul\":3705:3822   */\ntag_16:\n    /* \"#utility.yul\":3814:3815   */\n  0x00\n    /* \"#utility.yul\":3811:3812   */\n  dup1\n    /* \"#utility.yul\":3804:3816   */\n  revert\n    /* \"#utility.yul\":3828:3945   */\ntag_41:\n    /* \"#utility.yul\":3937:3938   */\n  0x00\n    /* \"#utility.yul\":3934:3935   */\n  dup1\n    /* \"#utility.yul\":3927:3939   */\n  revert\n    /* \"#utility.yul\":3951:4068   */\ntag_36:\n    /* \"#utility.yul\":4060:4061   */\n  0x00\n    /* \"#utility.yul\":4057:4058   */\n  dup1\n    /* \"#utility.yul\":4050:4062   */\n  revert\n    /* \"#utility.yul\":4074:4176   */\ntag_54:\n    /* \"#utility.yul\":4115:4121   */\n  0x00\n    /* \"#utility.yul\":4166:4168   */\n  0x1f\n    /* \"#utility.yul\":4162:4169   */\n  not\n    /* \"#utility.yul\":4157:4159   */\n  0x1f\n    /* \"#utility.yul\":4150:4155   */\n  dup4\n    /* \"#utility.yul\":4146:4160   */\n  add\n    /* \"#utility.yul\":4142:4170   */\n  and\n    /* \"#utility.yul\":4132:4170   */\n  swap1\n  pop\n    /* \"#utility.yul\":4074:4176   */\n  swap2\n  swap1\n  pop\n  jump\t// out\n    /* \"#utility.yul\":4182:4304   */\ntag_22:\n    /* \"#utility.yul\":4255:4279   */\n  tag_78\n    /* \"#utility.yul\":4273:4278   */\n  dup2\n    /* \"#utility.yul\":4255:4279   */\n  tag_55\n  jump\t// in\ntag_78:\n    /* \"#utility.yul\":4248:4253   */\n  dup2\n    /* \"#utility.yul\":4245:4280   */\n  eq\n    /* \"#utility.yul\":4235:4298   */\n  tag_79\n  jumpi\n    /* \"#utility.yul\":4294:4295   */\n  0x00\n    /* \"#utility.yul\":4291:4292   */\n  dup1\n    /* \"#utility.yul\":4284:4296   */\n  revert\n    /* \"#utility.yul\":4235:4298   */\ntag_79:\n    /* \"#utility.yul\":4182:4304   */\n  pop\n  jump\t// out\n    /* \"#utility.yul\":4310:4432   */\ntag_32:\n    /* \"#utility.yul\":4383:4407   */\n  tag_81\n    /* \"#utility.yul\":4401:4406   */\n  dup2\n    /* \"#utility.yul\":4383:4407   */\n  tag_60\n  jump\t// in\ntag_81:\n    /* \"#utility.yul\":4376:4381   */\n  dup2\n    /* \"#utility.yul\":4373:4408   */\n  eq\n    /* \"#utility.yul\":4363:4426   */\n  tag_82\n  jumpi\n    /* \"#utility.yul\":4422:4423   */\n  0x00\n    /* \"#utility.yul\":4419:4420   */\n  dup1\n    /* \"#utility.yul\":4412:4424   */\n  revert\n    /* \"#utility.yul\":4363:4426   */\ntag_82:\n    /* \"#utility.yul\":4310:4432   */\n  pop\n  jump\t// out\n    /* \"constructor.sol\":60:273  contract _constructor{... */\ntag_6:\n  dataSize(sub_0)\n  dup1\n  dataOffset(sub_0)\n  0x00\n  codecopy\n  0x00\n  return\nstop\n\nsub_0: assembly {\n        /* \"constructor.sol\":60:273  contract _constructor{... */\n      mstore(0x40, 0x80)\n      callvalue\n      dup1\n      iszero\n      tag_1\n      jumpi\n      0x00\n      dup1\n      revert\n    tag_1:\n      pop\n      jumpi(tag_2, lt(calldatasize, 0x04))\n      shr(0xe0, calldataload(0x00))\n      dup1\n      0x06fdde03\n      eq\n      tag_3\n      jumpi\n      dup1\n      0x262a9dff\n      eq\n      tag_4\n      jumpi\n      dup1\n      0x8da5cb5b\n      eq\n      tag_5\n      jumpi\n    tag_2:\n      0x00\n      dup1\n      revert\n        /* \"constructor.sol\":134:152  string public name */\n    tag_3:\n      tag_6\n      tag_7\n      jump\t// in\n    tag_6:\n      mload(0x40)\n      tag_8\n      swap2\n      swap1\n      tag_9\n      jump\t// in\n    tag_8:\n      mload(0x40)\n      dup1\n      swap2\n      sub\n      swap1\n      return\n        /* \"constructor.sol\":87:102  uint public age */\n    tag_4:\n      tag_10\n      tag_11\n      jump\t// in\n    tag_10:\n      mload(0x40)\n      tag_12\n      swap2\n      swap1\n      tag_13\n      jump\t// in\n    tag_12:\n      mload(0x40)\n      dup1\n      swap2\n      sub\n      swap1\n      return\n        /* \"constructor.sol\":108:128  address public owner */\n    tag_5:\n      tag_14\n      tag_15\n      jump\t// in\n    tag_14:\n      mload(0x40)\n      tag_16\n      swap2\n      swap1\n      tag_17\n      jump\t// in\n    tag_16:\n      mload(0x40)\n      dup1\n      swap2\n      sub\n      swap1\n      return\n        /* \"constructor.sol\":134:152  string public name */\n    tag_7:\n      0x02\n      dup1\n      sload\n      tag_18\n      swap1\n      tag_19\n      jump\t// in\n    tag_18:\n      dup1\n      0x1f\n      add\n      0x20\n      dup1\n      swap2\n      div\n      mul\n      0x20\n      add\n      mload(0x40)\n      swap1\n      dup2\n      add\n      0x40\n      mstore\n      dup1\n      swap3\n      swap2\n      swap1\n      dup2\n      dup2\n      mstore\n      0x20\n      add\n      dup3\n      dup1\n      sload\n      tag_20\n      swap1\n      tag_19\n      jump\t// in\n    tag_20:\n      dup1\n      iszero\n      tag_21\n      jumpi\n      dup1\n      0x1f\n      lt\n      tag_22\n      jumpi\n      0x0100\n      dup1\n      dup4\n      sload\n      div\n      mul\n      dup4\n      mstore\n      swap2\n      0x20\n      add\n      swap2\n      jump(tag_21)\n    tag_22:\n      dup3\n      add\n      swap2\n      swap1\n      0x00\n      mstore\n      keccak256(0x00, 0x20)\n      swap1\n    tag_23:\n      dup2\n      sload\n      dup2\n      mstore\n      swap1\n      0x01\n      add\n      swap1\n      0x20\n      add\n      dup1\n      dup4\n      gt\n      tag_23\n      jumpi\n      dup3\n      swap1\n      sub\n      0x1f\n      and\n      dup3\n      add\n      swap2\n    tag_21:\n      pop\n      pop\n      pop\n      pop\n      pop\n      dup2\n      jump\t// out\n        /* \"constructor.sol\":87:102  uint public age */\n    tag_11:\n      sload(0x00)\n      dup2\n      jump\t// out\n        /* \"constructor.sol\":108:128  address public owner */\n    tag_15:\n      0x01\n      0x00\n      swap1\n      sload\n      swap1\n      0x0100\n      exp\n      swap1\n      div\n      0xffffffffffffffffffffffffffffffffffffffff\n      and\n      dup2\n      jump\t// out\n        /* \"#utility.yul\":7:125   */\n    tag_25:\n        /* \"#utility.yul\":94:118   */\n      tag_27\n        /* \"#utility.yul\":112:117   */\n      dup2\n        /* \"#utility.yul\":94:118   */\n      tag_28\n      jump\t// in\n    tag_27:\n        /* \"#utility.yul\":89:92   */\n      dup3\n        /* \"#utility.yul\":82:119   */\n      mstore\n        /* \"#utility.yul\":7:125   */\n      pop\n      pop\n      jump\t// out\n        /* \"#utility.yul\":131:495   */\n    tag_29:\n        /* \"#utility.yul\":219:222   */\n      0x00\n        /* \"#utility.yul\":247:286   */\n      tag_31\n        /* \"#utility.yul\":280:285   */\n      dup3\n        /* \"#utility.yul\":247:286   */\n      tag_32\n      jump\t// in\n    tag_31:\n        /* \"#utility.yul\":302:373   */\n      tag_33\n        /* \"#utility.yul\":366:372   */\n      dup2\n        /* \"#utility.yul\":361:364   */\n      dup6\n        /* \"#utility.yul\":302:373   */\n      tag_34\n      jump\t// in\n    tag_33:\n        /* \"#utility.yul\":295:373   */\n      swap4\n      pop\n        /* \"#utility.yul\":382:434   */\n      tag_35\n        /* \"#utility.yul\":427:433   */\n      dup2\n        /* \"#utility.yul\":422:425   */\n      dup6\n        /* \"#utility.yul\":415:419   */\n      0x20\n        /* \"#utility.yul\":408:413   */\n      dup7\n        /* \"#utility.yul\":404:420   */\n      add\n        /* \"#utility.yul\":382:434   */\n      tag_36\n      jump\t// in\n    tag_35:\n        /* \"#utility.yul\":459:488   */\n      tag_37\n        /* \"#utility.yul\":481:487   */\n      dup2\n        /* \"#utility.yul\":459:488   */\n      tag_38\n      jump\t// in\n    tag_37:\n        /* \"#utility.yul\":454:457   */\n      dup5\n        /* \"#utility.yul\":450:489   */\n      add\n        /* \"#utility.yul\":443:489   */\n      swap2\n      pop\n        /* \"#utility.yul\":223:495   */\n      pop\n        /* \"#utility.yul\":131:495   */\n      swap3\n      swap2\n      pop\n      pop\n      jump\t// out\n        /* \"#utility.yul\":501:619   */\n    tag_39:\n        /* \"#utility.yul\":588:612   */\n      tag_41\n        /* \"#utility.yul\":606:611   */\n      dup2\n        /* \"#utility.yul\":588:612   */\n      tag_42\n      jump\t// in\n    tag_41:\n        /* \"#utility.yul\":583:586   */\n      dup3\n        /* \"#utility.yul\":576:613   */\n      mstore\n        /* \"#utility.yul\":501:619   */\n      pop\n      pop\n      jump\t// out\n        /* \"#utility.yul\":625:847   */\n    tag_17:\n        /* \"#utility.yul\":718:722   */\n      0x00\n        /* \"#utility.yul\":756:758   */\n      0x20\n        /* \"#utility.yul\":745:754   */\n      dup3\n        /* \"#utility.yul\":741:759   */\n      add\n        /* \"#utility.yul\":733:759   */\n      swap1\n      pop\n        /* \"#utility.yul\":769:840   */\n      tag_44\n        /* \"#utility.yul\":837:838   */\n      0x00\n        /* \"#utility.yul\":826:835   */\n      dup4\n        /* \"#utility.yul\":822:839   */\n      add\n        /* \"#utility.yul\":813:819   */\n      dup5\n        /* \"#utility.yul\":769:840   */\n      tag_25\n      jump\t// in\n    tag_44:\n        /* \"#utility.yul\":625:847   */\n      swap3\n      swap2\n      pop\n      pop\n      jump\t// out\n        /* \"#utility.yul\":853:1166   */\n    tag_9:\n        /* \"#utility.yul\":966:970   */\n      0x00\n        /* \"#utility.yul\":1004:1006   */\n      0x20\n        /* \"#utility.yul\":993:1002   */\n      dup3\n        /* \"#utility.yul\":989:1007   */\n      add\n        /* \"#utility.yul\":981:1007   */\n      swap1\n      pop\n        /* \"#utility.yul\":1053:1062   */\n      dup2\n        /* \"#utility.yul\":1047:1051   */\n      dup2\n        /* \"#utility.yul\":1043:1063   */\n      sub\n        /* \"#utility.yul\":1039:1040   */\n      0x00\n        /* \"#utility.yul\":1028:1037   */\n      dup4\n        /* \"#utility.yul\":1024:1041   */\n      add\n        /* \"#utility.yul\":1017:1064   */\n      mstore\n        /* \"#utility.yul\":1081:1159   */\n      tag_46\n        /* \"#utility.yul\":1154:1158   */\n      dup2\n        /* \"#utility.yul\":1145:1151   */\n      dup5\n        /* \"#utility.yul\":1081:1159   */\n      tag_29\n      jump\t// in\n    tag_46:\n        /* \"#utility.yul\":1073:1159   */\n      swap1\n      pop\n        /* \"#utility.yul\":853:1166   */\n      swap3\n      swap2\n      pop\n      pop\n      jump\t// out\n        /* \"#utility.yul\":1172:1394   */\n    tag_13:\n        /* \"#utility.yul\":1265:1269   */\n      0x00\n        /* \"#utility.yul\":1303:1305   */\n      0x20\n        /* \"#utility.yul\":1292:1301   */\n      dup3\n        /* \"#utility.yul\":1288:1306   */\n      add\n        /* \"#utility.yul\":1280:1306   */\n      swap1\n      pop\n        /* \"#utility.yul\":1316:1387   */\n      tag_48\n        /* \"#utility.yul\":1384:1385   */\n      0x00\n        /* \"#utility.yul\":1373:1382   */\n      dup4\n        /* \"#utility.yul\":1369:1386   */\n      add\n        /* \"#utility.yul\":1360:1366   */\n      dup5\n        /* \"#utility.yul\":1316:1387   */\n      tag_39\n      jump\t// in\n    tag_48:\n        /* \"#utility.yul\":1172:1394   */\n      swap3\n      swap2\n      pop\n      pop\n      jump\t// out\n        /* \"#utility.yul\":1400:1499   */\n    tag_32:\n        /* \"#utility.yul\":1452:1458   */\n      0x00\n        /* \"#utility.yul\":1486:1491   */\n      dup2\n        /* \"#utility.yul\":1480:1492   */\n      mload\n        /* \"#utility.yul\":1470:1492   */\n      swap1\n      pop\n        /* \"#utility.yul\":1400:1499   */\n      swap2\n      swap1\n      pop\n      jump\t// out\n        /* \"#utility.yul\":1505:1674   */\n    tag_34:\n        /* \"#utility.yul\":1589:1600   */\n      0x00\n        /* \"#utility.yul\":1623:1629   */\n      dup3\n        /* \"#utility.yul\":1618:1621   */\n      dup3\n        /* \"#utility.yul\":1611:1630   */\n      mstore\n        /* \"#utility.yul\":1663:1667   */\n      0x20\n        /* \"#utility.yul\":1658:1661   */\n      dup3\n        /* \"#utility.yul\":1654:1668   */\n      add\n        /* \"#utility.yul\":1639:1668   */\n      swap1\n      pop\n        /* \"#utility.yul\":1505:1674   */\n      swap3\n      swap2\n      pop\n      pop\n      jump\t// out\n        /* \"#utility.yul\":1680:1776   */\n    tag_28:\n        /* \"#utility.yul\":1717:1724   */\n      0x00\n        /* \"#utility.yul\":1746:1770   */\n      tag_52\n        /* \"#utility.yul\":1764:1769   */\n      dup3\n        /* \"#utility.yul\":1746:1770   */\n      tag_53\n      jump\t// in\n    tag_52:\n        /* \"#utility.yul\":1735:1770   */\n      swap1\n      pop\n        /* \"#utility.yul\":1680:1776   */\n      swap2\n      swap1\n      pop\n      jump\t// out\n        /* \"#utility.yul\":1782:1908   */\n    tag_53:\n        /* \"#utility.yul\":1819:1826   */\n      0x00\n        /* \"#utility.yul\":1859:1901   */\n      0xffffffffffffffffffffffffffffffffffffffff\n        /* \"#utility.yul\":1852:1857   */\n      dup3\n        /* \"#utility.yul\":1848:1902   */\n      and\n        /* \"#utility.yul\":1837:1902   */\n      swap1\n      pop\n        /* \"#utility.yul\":1782:1908   */\n      swap2\n      swap1\n      pop\n      jump\t// out\n        /* \"#utility.yul\":1914:1991   */\n    tag_42:\n        /* \"#utility.yul\":1951:1958   */\n      0x00\n        /* \"#utility.yul\":1980:1985   */\n      dup2\n        /* \"#utility.yul\":1969:1985   */\n      swap1\n      pop\n        /* \"#utility.yul\":1914:1991   */\n      swap2\n      swap1\n      pop\n      jump\t// out\n        /* \"#utility.yul\":1997:2304   */\n    tag_36:\n        /* \"#utility.yul\":2065:2066   */\n      0x00\n        /* \"#utility.yul\":2075:2188   */\n    tag_57:\n        /* \"#utility.yul\":2089:2095   */\n      dup4\n        /* \"#utility.yul\":2086:2087   */\n      dup2\n        /* \"#utility.yul\":2083:2096   */\n      lt\n        /* \"#utility.yul\":2075:2188   */\n      iszero\n      tag_59\n      jumpi\n        /* \"#utility.yul\":2174:2175   */\n      dup1\n        /* \"#utility.yul\":2169:2172   */\n      dup3\n        /* \"#utility.yul\":2165:2176   */\n      add\n        /* \"#utility.yul\":2159:2177   */\n      mload\n        /* \"#utility.yul\":2155:2156   */\n      dup2\n        /* \"#utility.yul\":2150:2153   */\n      dup5\n        /* \"#utility.yul\":2146:2157   */\n      add\n        /* \"#utility.yul\":2139:2178   */\n      mstore\n        /* \"#utility.yul\":2111:2113   */\n      0x20\n        /* \"#utility.yul\":2108:2109   */\n      dup2\n        /* \"#utility.yul\":2104:2114   */\n      add\n        /* \"#utility.yul\":2099:2114   */\n      swap1\n      pop\n        /* \"#utility.yul\":2075:2188   */\n      jump(tag_57)\n    tag_59:\n        /* \"#utility.yul\":2206:2212   */\n      dup4\n        /* \"#utility.yul\":2203:2204   */\n      dup2\n        /* \"#utility.yul\":2200:2213   */\n      gt\n        /* \"#utility.yul\":2197:2298   */\n      iszero\n      tag_60\n      jumpi\n        /* \"#utility.yul\":2286:2287   */\n      0x00\n        /* \"#utility.yul\":2277:2283   */\n      dup5\n        /* \"#utility.yul\":2272:2275   */\n      dup5\n        /* \"#utility.yul\":2268:2284   */\n      add\n        /* \"#utility.yul\":2261:2288   */\n      mstore\n        /* \"#utility.yul\":2197:2298   */\n    tag_60:\n        /* \"#utility.yul\":2046:2304   */\n      pop\n        /* \"#utility.yul\":1997:2304   */\n      pop\n      pop\n      pop\n      jump\t// out\n        /* \"#utility.yul\":2310:2630   */\n    tag_19:\n        /* \"#utility.yul\":2354:2360   */\n      0x00\n        /* \"#utility.yul\":2391:2392   */\n      0x02\n        /* \"#utility.yul\":2385:2389   */\n      dup3\n        /* \"#utility.yul\":2381:2393   */\n      div\n        /* \"#utility.yul\":2371:2393   */\n      swap1\n      pop\n        /* \"#utility.yul\":2438:2439   */\n      0x01\n        /* \"#utility.yul\":2432:2436   */\n      dup3\n        /* \"#utility.yul\":2428:2440   */\n      and\n        /* \"#utility.yul\":2459:2477   */\n      dup1\n        /* \"#utility.yul\":2449:2530   */\n      tag_62\n      jumpi\n        /* \"#utility.yul\":2515:2519   */\n      0x7f\n        /* \"#utility.yul\":2507:2513   */\n      dup3\n        /* \"#utility.yul\":2503:2520   */\n      and\n        /* \"#utility.yul\":2493:2520   */\n      swap2\n      pop\n        /* \"#utility.yul\":2449:2530   */\n    tag_62:\n        /* \"#utility.yul\":2577:2579   */\n      0x20\n        /* \"#utility.yul\":2569:2575   */\n      dup3\n        /* \"#utility.yul\":2566:2580   */\n      lt\n        /* \"#utility.yul\":2546:2564   */\n      dup2\n        /* \"#utility.yul\":2543:2581   */\n      eq\n        /* \"#utility.yul\":2540:2624   */\n      iszero\n      tag_63\n      jumpi\n        /* \"#utility.yul\":2596:2614   */\n      tag_64\n      tag_65\n      jump\t// in\n    tag_64:\n        /* \"#utility.yul\":2540:2624   */\n    tag_63:\n        /* \"#utility.yul\":2361:2630   */\n      pop\n        /* \"#utility.yul\":2310:2630   */\n      swap2\n      swap1\n      pop\n      jump\t// out\n        /* \"#utility.yul\":2636:2816   */\n    tag_65:\n        /* \"#utility.yul\":2684:2761   */\n      0x4e487b7100000000000000000000000000000000000000000000000000000000\n        /* \"#utility.yul\":2681:2682   */\n      0x00\n        /* \"#utility.yul\":2674:2762   */\n      mstore\n        /* \"#utility.yul\":2781:2785   */\n      0x22\n        /* \"#utility.yul\":2778:2779   */\n      0x04\n        /* \"#utility.yul\":2771:2786   */\n      mstore\n        /* \"#utility.yul\":2805:2809   */\n      0x24\n        /* \"#utility.yul\":2802:2803   */\n      0x00\n        /* \"#utility.yul\":2795:2810   */\n      revert\n        /* \"#utility.yul\":2822:2924   */\n    tag_38:\n        /* \"#utility.yul\":2863:2869   */\n      0x00\n        /* \"#utility.yul\":2914:2916   */\n      0x1f\n        /* \"#utility.yul\":2910:2917   */\n      not\n        /* \"#utility.yul\":2905:2907   */\n      0x1f\n        /* \"#utility.yul\":2898:2903   */\n      dup4\n        /* \"#utility.yul\":2894:2908   */\n      add\n        /* \"#utility.yul\":2890:2918   */\n      and\n        /* \"#utility.yul\":2880:2918   */\n      swap1\n      pop\n        /* \"#utility.yul\":2822:2924   */\n      swap2\n      swap1\n      pop\n      jump\t// out\n\n    auxdata: 0xa2646970667358221220f0524266fb0492342b8483c17aff7f59a66e8dbb8129366491fde59fe66af29e64736f6c63430008070033\n}\n",
				"bytecode": {
					"linkReferences": {},
					"object": "608060405234801561001057600080fd5b5060405161064e38038061064e8339818101604052810190610032919061011c565b8260008190555081600160006101000a81548173ffffffffffffffffffffffffffffffffffffffff021916908373ffffffffffffffffffffffffffffffffffffffff160217905550505050610303565b6000610095610090846101b0565b61018b565b9050828152602081018484840111156100b1576100b06102b5565b5b6100bc84828561021d565b509392505050565b6000815190506100d3816102d5565b92915050565b600082601f8301126100ee576100ed6102b0565b5b81516100fe848260208601610082565b91505092915050565b600081519050610116816102ec565b92915050565b600080600060608486031215610135576101346102bf565b5b600061014386828701610107565b9350506020610154868287016100c4565b925050604084015167ffffffffffffffff811115610175576101746102ba565b5b610181868287016100d9565b9150509250925092565b60006101956101a6565b90506101a18282610250565b919050565b6000604051905090565b600067ffffffffffffffff8211156101cb576101ca610281565b5b6101d4826102c4565b9050602081019050919050565b60006101ec826101f3565b9050919050565b600073ffffffffffffffffffffffffffffffffffffffff82169050919050565b6000819050919050565b60005b8381101561023b578082015181840152602081019050610220565b8381111561024a576000848401525b50505050565b610259826102c4565b810181811067ffffffffffffffff8211171561027857610277610281565b5b80604052505050565b7f4e487b7100000000000000000000000000000000000000000000000000000000600052604160045260246000fd5b600080fd5b600080fd5b600080fd5b600080fd5b6000601f19601f8301169050919050565b6102de816101e1565b81146102e957600080fd5b50565b6102f581610213565b811461030057600080fd5b50565b61033c806103126000396000f3fe608060405234801561001057600080fd5b50600436106100415760003560e01c806306fdde0314610046578063262a9dff146100645780638da5cb5b14610082575b600080fd5b61004e6100a0565b60405161005b91906101cc565b60405180910390f35b61006c61012e565b60405161007991906101ee565b60405180910390f35b61008a610134565b60405161009791906101b1565b60405180910390f35b600280546100ad90610294565b80601f01602080910402602001604051908101604052809291908181526020018280546100d990610294565b80156101265780601f106100fb57610100808354040283529160200191610126565b820191906000526020600020905b81548152906001019060200180831161010957829003601f168201915b505050505081565b60005481565b600160009054906101000a900473ffffffffffffffffffffffffffffffffffffffff1681565b61016381610225565b82525050565b600061017482610209565b61017e8185610214565b935061018e818560208601610261565b610197816102f5565b840191505092915050565b6101ab81610257565b82525050565b60006020820190506101c6600083018461015a565b92915050565b600060208201905081810360008301526101e68184610169565b905092915050565b600060208201905061020360008301846101a2565b92915050565b600081519050919050565b600082825260208201905092915050565b600061023082610237565b9050919050565b600073ffffffffffffffffffffffffffffffffffffffff82169050919050565b6000819050919050565b60005b8381101561027f578082015181840152602081019050610264565b8381111561028e576000848401525b50505050565b600060028204905060018216806102ac57607f821691505b602082108114156102c0576102bf6102c6565b5b50919050565b7f4e487b7100000000000000000000000000000000000000000000000000000000600052602260045260246000fd5b6000601f19601f830116905091905056fea2646970667358221220f0524266fb0492342b8483c17aff7f59a66e8dbb8129366491fde59fe66af29e64736f6c63430008070033",
					"opcodes": "PUSH1 0x80 PUSH1 0x40 MSTORE CALLVALUE DUP1 ISZERO PUSH2 0x10 JUMPI PUSH1 0x0 DUP1 REVERT JUMPDEST POP PUSH1 0x40 MLOAD PUSH2 0x64E CODESIZE SUB DUP1 PUSH2 0x64E DUP4 CODECOPY DUP2 DUP2 ADD PUSH1 0x40 MSTORE DUP2 ADD SWAP1 PUSH2 0x32 SWAP2 SWAP1 PUSH2 0x11C JUMP JUMPDEST DUP3 PUSH1 0x0 DUP2 SWAP1 SSTORE POP DUP2 PUSH1 0x1 PUSH1 0x0 PUSH2 0x100 EXP DUP2 SLOAD DUP2 PUSH20 0xFFFFFFFFFFFFFFFFFFFFFFFFFFFFFFFFFFFFFFFF MUL NOT AND SWAP1 DUP4 PUSH20 0xFFFFFFFFFFFFFFFFFFFFFFFFFFFFFFFFFFFFFFFF AND MUL OR SWAP1 SSTORE POP POP POP POP PUSH2 0x303 JUMP JUMPDEST PUSH1 0x0 PUSH2 0x95 PUSH2 0x90 DUP5 PUSH2 0x1B0 JUMP JUMPDEST PUSH2 0x18B JUMP JUMPDEST SWAP1 POP DUP3 DUP2 MSTORE PUSH1 0x20 DUP2 ADD DUP5 DUP5 DUP5 ADD GT ISZERO PUSH2 0xB1 JUMPI PUSH2 0xB0 PUSH2 0x2B5 JUMP JUMPDEST JUMPDEST PUSH2 0xBC DUP5 DUP3 DUP6 PUSH2 0x21D JUMP JUMPDEST POP SWAP4 SWAP3 POP POP POP JUMP JUMPDEST PUSH1 0x0 DUP2 MLOAD SWAP1 POP PUSH2 0xD3 DUP2 PUSH2 0x2D5 JUMP JUMPDEST SWAP3 SWAP2 POP POP JUMP JUMPDEST PUSH1 0x0 DUP3 PUSH1 0x1F DUP4 ADD SLT PUSH2 0xEE JUMPI PUSH2 0xED PUSH2 0x2B0 JUMP JUMPDEST JUMPDEST DUP2 MLOAD PUSH2 0xFE DUP5 DUP3 PUSH1 0x20 DUP7 ADD PUSH2 0x82 JUMP JUMPDEST SWAP2 POP POP SWAP3 SWAP2 POP POP JUMP JUMPDEST PUSH1 0x0 DUP2 MLOAD SWAP1 POP PUSH2 0x116 DUP2 PUSH2 0x2EC JUMP JUMPDEST SWAP3 SWAP2 POP POP JUMP JUMPDEST PUSH1 0x0 DUP1 PUSH1 0x0 PUSH1 0x60 DUP5 DUP7 SUB SLT ISZERO PUSH2 0x135 JUMPI PUSH2 0x134 PUSH2 0x2BF JUMP JUMPDEST JUMPDEST PUSH1 0x0 PUSH2 0x143 DUP7 DUP3 DUP8 ADD PUSH2 0x107 JUMP JUMPDEST SWAP4 POP POP PUSH1 0x20 PUSH2 0x154 DUP7 DUP3 DUP8 ADD PUSH2 0xC4 JUMP JUMPDEST SWAP3 POP POP PUSH1 0x40 DUP5 ADD MLOAD PUSH8 0xFFFFFFFFFFFFFFFF DUP2 GT ISZERO PUSH2 0x175 JUMPI PUSH2 0x174 PUSH2 0x2BA JUMP JUMPDEST JUMPDEST PUSH2 0x181 DUP7 DUP3 DUP8 ADD PUSH2 0xD9 JUMP JUMPDEST SWAP2 POP POP SWAP3 POP SWAP3 POP SWAP3 JUMP JUMPDEST PUSH1 0x0 PUSH2 0x195 PUSH2 0x1A6 JUMP JUMPDEST SWAP1 POP PUSH2 0x1A1 DUP3 DUP3 PUSH2 0x250 JUMP JUMPDEST SWAP2 SWAP1 POP JUMP JUMPDEST PUSH1 0x0 PUSH1 0x40 MLOAD SWAP1 POP SWAP1 JUMP JUMPDEST PUSH1 0x0 PUSH8 0xFFFFFFFFFFFFFFFF DUP3 GT ISZERO PUSH2 0x1CB JUMPI PUSH2 0x1CA PUSH2 0x281 JUMP JUMPDEST JUMPDEST PUSH2 0x1D4 DUP3 PUSH2 0x2C4 JUMP JUMPDEST SWAP1 POP PUSH1 0x20 DUP2 ADD SWAP1 POP SWAP2 SWAP1 POP JUMP JUMPDEST PUSH1 0x0 PUSH2 0x1EC DUP3 PUSH2 0x1F3 JUMP JUMPDEST SWAP1 POP SWAP2 SWAP1 POP JUMP JUMPDEST PUSH1 0x0 PUSH20 0xFFFFFFFFFFFFFFFFFFFFFFFFFFFFFFFFFFFFFFFF DUP3 AND SWAP1 POP SWAP2 SWAP1 POP JUMP JUMPDEST PUSH1 0x0 DUP2 SWAP1 POP SWAP2 SWAP1 POP JUMP JUMPDEST PUSH1 0x0 JUMPDEST DUP4 DUP2 LT ISZERO PUSH2 0x23B JUMPI DUP1 DUP3 ADD MLOAD DUP2 DUP5 ADD MSTORE PUSH1 0x20 DUP2 ADD SWAP1 POP PUSH2 0x220 JUMP JUMPDEST DUP4 DUP2 GT ISZERO PUSH2 0x24A JUMPI PUSH1 0x0 DUP5 DUP5 ADD MSTORE JUMPDEST POP POP POP POP JUMP JUMPDEST PUSH2 0x259 DUP3 PUSH2 0x2C4 JUMP JUMPDEST DUP2 ADD DUP2 DUP2 LT PUSH8 0xFFFFFFFFFFFFFFFF DUP3 GT OR ISZERO PUSH2 0x278 JUMPI PUSH2 0x277 PUSH2 0x281 JUMP JUMPDEST JUMPDEST DUP1 PUSH1 0x40 MSTORE POP POP POP JUMP JUMPDEST PUSH32 0x4E487B7100000000000000000000000000000000000000000000000000000000 PUSH1 0x0 MSTORE PUSH1 0x41 PUSH1 0x4 MSTORE PUSH1 0x24 PUSH1 0x0 REVERT JUMPDEST PUSH1 0x0 DUP1 REVERT JUMPDEST PUSH1 0x0 DUP1 REVERT JUMPDEST PUSH1 0x0 DUP1 REVERT JUMPDEST PUSH1 0x0 DUP1 REVERT JUMPDEST PUSH1 0x0 PUSH1 0x1F NOT PUSH1 0x1F DUP4 ADD AND SWAP1 POP SWAP2 SWAP1 POP JUMP JUMPDEST PUSH2 0x2DE DUP2 PUSH2 0x1E1 JUMP JUMPDEST DUP2 EQ PUSH2 0x2E9 JUMPI PUSH1 0x0 DUP1 REVERT JUMPDEST POP JUMP JUMPDEST PUSH2 0x2F5 DUP2 PUSH2 0x213 JUMP JUMPDEST DUP2 EQ PUSH2 0x300 JUMPI PUSH1 0x0 DUP1 REVERT JUMPDEST POP JUMP JUMPDEST PUSH2 0x33C DUP1 PUSH2 0x312 PUSH1 0x0 CODECOPY PUSH1 0x0 RETURN INVALID PUSH1 0x80 PUSH1 0x40 MSTORE CALLVALUE DUP1 ISZERO PUSH2 0x10 JUMPI PUSH1 0x0 DUP1 REVERT JUMPDEST POP PUSH1 0x4 CALLDATASIZE LT PUSH2 0x41 JUMPI PUSH1 0x0 CALLDATALOAD PUSH1 0xE0 SHR DUP1 PUSH4 0x6FDDE03 EQ PUSH2 0x46 JUMPI DUP1 PUSH4 0x262A9DFF EQ PUSH2 0x64 JUMPI DUP1 PUSH4 0x8DA5CB5B EQ PUSH2 0x82 JUMPI JUMPDEST PUSH1 0x0 DUP1 REVERT JUMPDEST PUSH2 0x4E PUSH2 0xA0 JUMP JUMPDEST PUSH1 0x40 MLOAD PUSH2 0x5B SWAP2 SWAP1 PUSH2 0x1CC JUMP JUMPDEST PUSH1 0x40 MLOAD DUP1 SWAP2 SUB SWAP1 RETURN JUMPDEST PUSH2 0x6C PUSH2 0x12E JUMP JUMPDEST PUSH1 0x40 MLOAD PUSH2 0x79 SWAP2 SWAP1 PUSH2 0x1EE JUMP JUMPDEST PUSH1 0x40 MLOAD DUP1 SWAP2 SUB SWAP1 RETURN JUMPDEST PUSH2 0x8A PUSH2 0x134 JUMP JUMPDEST PUSH1 0x40 MLOAD PUSH2 0x97 SWAP2 SWAP1 PUSH2 0x1B1 JUMP JUMPDEST PUSH1 0x40 MLOAD DUP1 SWAP2 SUB SWAP1 RETURN JUMPDEST PUSH1 0x2 DUP1 SLOAD PUSH2 0xAD SWAP1 PUSH2 0x294 JUMP JUMPDEST DUP1 PUSH1 0x1F ADD PUSH1 0x20 DUP1 SWAP2 DIV MUL PUSH1 0x20 ADD PUSH1 0x40 MLOAD SWAP1 DUP2 ADD PUSH1 0x40 MSTORE DUP1 SWAP3 SWAP2 SWAP1 DUP2 DUP2 MSTORE PUSH1 0x20 ADD DUP3 DUP1 SLOAD PUSH2 0xD9 SWAP1 PUSH2 0x294 JUMP JUMPDEST DUP1 ISZERO PUSH2 0x126 JUMPI DUP1 PUSH1 0x1F LT PUSH2 0xFB JUMPI PUSH2 0x100 DUP1 DUP4 SLOAD DIV MUL DUP4 MSTORE SWAP2 PUSH1 0x20 ADD SWAP2 PUSH2 0x126 JUMP JUMPDEST DUP3 ADD SWAP2 SWAP1 PUSH1 0x0 MSTORE PUSH1 0x20 PUSH1 0x0 KECCAK256 SWAP1 JUMPDEST DUP2 SLOAD DUP2 MSTORE SWAP1 PUSH1 0x1 ADD SWAP1 PUSH1 0x20 ADD DUP1 DUP4 GT PUSH2 0x109 JUMPI DUP3 SWAP1 SUB PUSH1 0x1F AND DUP3 ADD SWAP2 JUMPDEST POP POP POP POP POP DUP2 JUMP JUMPDEST PUSH1 0x0 SLOAD DUP2 JUMP JUMPDEST PUSH1 0x1 PUSH1 0x0 SWAP1 SLOAD SWAP1 PUSH2 0x100 EXP SWAP1 DIV PUSH20 0xFFFFFFFFFFFFFFFFFFFFFFFFFFFFFFFFFFFFFFFF AND DUP2 JUMP JUMPDEST PUSH2 0x163 DUP2 PUSH2 0x225 JUMP JUMPDEST DUP3 MSTORE POP POP JUMP JUMPDEST PUSH1 0x0 PUSH2 0x174 DUP3 PUSH2 0x209 JUMP JUMPDEST PUSH2 0x17E DUP2 DUP6 PUSH2 0x214 JUMP JUMPDEST SWAP4 POP PUSH2 0x18E DUP2 DUP6 PUSH1 0x20 DUP7 ADD PUSH2 0x261 JUMP JUMPDEST PUSH2 0x197 DUP2 PUSH2 0x2F5 JUMP JUMPDEST DUP5 ADD SWAP2 POP POP SWAP3 SWAP2 POP POP JUMP JUMPDEST PUSH2 0x1AB DUP2 PUSH2 0x257 JUMP JUMPDEST DUP3 MSTORE POP POP JUMP JUMPDEST PUSH1 0x0 PUSH1 0x20 DUP3 ADD SWAP1 POP PUSH2 0x1C6 PUSH1 0x0 DUP4 ADD DUP5 PUSH2 0x15A JUMP JUMPDEST SWAP3 SWAP2 POP POP JUMP JUMPDEST PUSH1 0x0 PUSH1 0x20 DUP3 ADD SWAP1 POP DUP2 DUP2 SUB PUSH1 0x0 DUP4 ADD MSTORE PUSH2 0x1E6 DUP2 DUP5 PUSH2 0x169 JUMP JUMPDEST SWAP1 POP SWAP3 SWAP2 POP POP JUMP JUMPDEST PUSH1 0x0 PUSH1 0x20 DUP3 ADD SWAP1 POP PUSH2 0x203 PUSH1 0x0 DUP4 ADD DUP5 PUSH2 0x1A2 JUMP JUMPDEST SWAP3 SWAP2 POP POP JUMP JUMPDEST PUSH1 0x0 DUP2 MLOAD SWAP1 POP SWAP2 SWAP1 POP JUMP JUMPDEST PUSH1 0x0 DUP3 DUP3 MSTORE PUSH1 0x20 DUP3 ADD SWAP1 POP SWAP3 SWAP2 POP POP JUMP JUMPDEST PUSH1 0x0 PUSH2 0x230 DUP3 PUSH2 0x237 JUMP JUMPDEST SWAP1 POP SWAP2 SWAP1 POP JUMP JUMPDEST PUSH1 0x0 PUSH20 0xFFFFFFFFFFFFFFFFFFFFFFFFFFFFFFFFFFFFFFFF DUP3 AND SWAP1 POP SWAP2 SWAP1 POP JUMP JUMPDEST PUSH1 0x0 DUP2 SWAP1 POP SWAP2 SWAP1 POP JUMP JUMPDEST PUSH1 0x0 JUMPDEST DUP4 DUP2 LT ISZERO PUSH2 0x27F JUMPI DUP1 DUP3 ADD MLOAD DUP2 DUP5 ADD MSTORE PUSH1 0x20 DUP2 ADD SWAP1 POP PUSH2 0x264 JUMP JUMPDEST DUP4 DUP2 GT ISZERO PUSH2 0x28E JUMPI PUSH1 0x0 DUP5 DUP5 ADD MSTORE JUMPDEST POP POP POP POP JUMP JUMPDEST PUSH1 0x0 PUSH1 0x2 DUP3 DIV SWAP1 POP PUSH1 0x1 DUP3 AND DUP1 PUSH2 0x2AC JUMPI PUSH1 0x7F DUP3 AND SWAP2 POP JUMPDEST PUSH1 0x20 DUP3 LT DUP2 EQ ISZERO PUSH2 0x2C0 JUMPI PUSH2 0x2BF PUSH2 0x2C6 JUMP JUMPDEST JUMPDEST POP SWAP2 SWAP1 POP JUMP JUMPDEST PUSH32 0x4E487B7100000000000000000000000000000000000000000000000000000000 PUSH1 0x0 MSTORE PUSH1 0x22 PUSH1 0x4 MSTORE PUSH1 0x24 PUSH1 0x0 REVERT JUMPDEST PUSH1 0x0 PUSH1 0x1F NOT PUSH1 0x1F DUP4 ADD AND SWAP1 POP SWAP2 SWAP1 POP JUMP INVALID LOG2 PUSH5 0x6970667358 0x22 SLT KECCAK256 CREATE MSTORE TIMESTAMP PUSH7 0xFB0492342B8483 0xC1 PUSH27 0xFF7F59A66E8DBB8129366491FDE59FE66AF29E64736F6C63430008 SMOD STOP CALLER "
				},
				"gasEstimates": {
					"creation": {
						"codeDepositCost": "165600",
						"executionCost": "infinite",
						"totalCost": "infinite"
					},
					"external": {
						"age()": "2429",
						"name()": "infinite",
						"owner()": "2536"
					}
				},
				"methodIdentifiers": {
					"age()": "262a9dff",
					"name()": "06fdde03",
					"owner()": "8da5cb5b"
				}
			},
			"storageLayout": {
				"storage": [
					{
						"astId": 3,
						"contract": "constructor.sol:_constructor",
						"label": "age",
						"offset": 0,
						"slot": "0",
						"type": "t_uint256"
					},
					{
						"astId": 5,
						"contract": "constructor.sol:_constructor",
						"label": "owner",
						"offset": 0,
						"slot": "1",
						"type": "t_address"
					},
					{
						"astId": 7,
						"contract": "constructor.sol:_constructor",
						"label": "name",
						"offset": 0,
						"slot": "2",
						"type": "t_string_storage"
					}
				],
				"types": {
					"t_address": {
						"encoding": "inplace",
						"label": "address",
						"numberOfBytes": "20"
					},
					"t_string_storage": {
						"encoding": "bytes",
						"label": "string",
						"numberOfBytes": "32"
					},
					"t_uint256": {
						"encoding": "inplace",
						"label": "uint256",
						"numberOfBytes": "32"
					}
				}
			},
			"userdoc": {
				"kind": "user",
				"methods": {},
				"version": 1
			}
		}
	}
}