{
	"ERC20.sol": {
		"Ownership": {
			"abi": [
				{
					"inputs": [],
					"stateMutability": "nonpayable",
					"type": "constructor"
				},
				{
					"anonymous": false,
					"inputs": [
						{
							"indexed": true,
							"internalType": "address",
							"name": "_from",
							"type": "address"
						},
						{
							"indexed": true,
							"internalType": "address",
							"name": "_to",
							"type": "address"
						}
					],
					"name": "TransferOwnership",
					"type": "event"
				},
				{
					"inputs": [],
					"name": "acceptOwner",
					"outputs": [],
					"stateMutability": "nonpayable",
					"type": "function"
				},
				{
					"inputs": [
						{
							"internalType": "address",
							"name": "_to",
							"type": "address"
						}
					],
					"name": "changeowner",
					"outputs": [],
					"stateMutability": "nonpayable",
					"type": "function"
				},
				{
					"inputs": [],
					"name": "contractOwner",
					"outputs": [
						{
							"internalType": "address",
							"name": "",
							"type": "address"
						}
					],
					"stateMutability": "view",
					"type": "function"
				},
				{
					"inputs": [],
					"name": "newOwner",
					"outputs": [
						{
							"internalType": "address",
							"name": "",
							"type": "address"
						}
					],
					"stateMutability": "view",
					"type": "function"
				}
			],
			"devdoc": {
				"kind": "dev",
				"methods": {},
				"version": 1
			},
			"evm": {
				"assembly": "    /* \"ERC20.sol\":942:1587  contract Ownership{... */\n  mstore(0x40, 0x80)\n    /* \"ERC20.sol\":1109:1165  constructor(){... */\n  callvalue\n  dup1\n  iszero\n  tag_1\n  jumpi\n  0x00\n  dup1\n  revert\ntag_1:\n  pop\n    /* \"ERC20.sol\":1148:1158  msg.sender */\n  caller\n    /* \"ERC20.sol\":1132:1145  contractOwner */\n  0x00\n  dup1\n    /* \"ERC20.sol\":1132:1158  contractOwner = msg.sender */\n  0x0100\n  exp\n  dup2\n  sload\n  dup2\n  0xffffffffffffffffffffffffffffffffffffffff\n  mul\n  not\n  and\n  swap1\n  dup4\n  0xffffffffffffffffffffffffffffffffffffffff\n  and\n  mul\n  or\n  swap1\n  sstore\n  pop\n    /* \"ERC20.sol\":942:1587  contract Ownership{... */\n  dataSize(sub_0)\n  dup1\n  dataOffset(sub_0)\n  0x00\n  codecopy\n  0x00\n  return\nstop\n\nsub_0: assembly {\n        /* \"ERC20.sol\":942:1587  contract Ownership{... */\n      mstore(0x40, 0x80)\n      callvalue\n      dup1\n      iszero\n      tag_1\n      jumpi\n      0x00\n      dup1\n      revert\n    tag_1:\n      pop\n      jumpi(tag_2, lt(calldatasize, 0x04))\n      shr(0xe0, calldataload(0x00))\n      dup1\n      0x662e4ee4\n      eq\n      tag_3\n      jumpi\n      dup1\n      0xce606ee0\n      eq\n      tag_4\n      jumpi\n      dup1\n      0xd4ee1d90\n      eq\n      tag_5\n      jumpi\n      dup1\n      0xebbc4965\n      eq\n      tag_6\n      jumpi\n    tag_2:\n      0x00\n      dup1\n      revert\n        /* \"ERC20.sol\":1171:1339  function changeowner(address _to) public{... */\n    tag_3:\n      tag_7\n      0x04\n      dup1\n      calldatasize\n      sub\n      dup2\n      add\n      swap1\n      tag_8\n      swap2\n      swap1\n      tag_9\n      jump\t// in\n    tag_8:\n      tag_10\n      jump\t// in\n    tag_7:\n      stop\n        /* \"ERC20.sol\":966:994  address public contractOwner */\n    tag_4:\n      tag_11\n      tag_12\n      jump\t// in\n    tag_11:\n      mload(0x40)\n      tag_13\n      swap2\n      swap1\n      tag_14\n      jump\t// in\n    tag_13:\n      mload(0x40)\n      dup1\n      swap2\n      sub\n      swap1\n      return\n        /* \"ERC20.sol\":1000:1023  address public newOwner */\n    tag_5:\n      tag_15\n      tag_16\n      jump\t// in\n    tag_15:\n      mload(0x40)\n      tag_17\n      swap2\n      swap1\n      tag_14\n      jump\t// in\n    tag_17:\n      mload(0x40)\n      dup1\n      swap2\n      sub\n      swap1\n      return\n        /* \"ERC20.sol\":1345:1585  function acceptOwner() public{... */\n    tag_6:\n      tag_18\n      tag_19\n      jump\t// in\n    tag_18:\n      stop\n        /* \"ERC20.sol\":1171:1339  function changeowner(address _to) public{... */\n    tag_10:\n        /* \"ERC20.sol\":1243:1256  contractOwner */\n      0x00\n      dup1\n      sload\n      swap1\n      0x0100\n      exp\n      swap1\n      div\n      0xffffffffffffffffffffffffffffffffffffffff\n      and\n        /* \"ERC20.sol\":1229:1256  msg.sender == contractOwner */\n      0xffffffffffffffffffffffffffffffffffffffff\n      and\n        /* \"ERC20.sol\":1229:1239  msg.sender */\n      caller\n        /* \"ERC20.sol\":1229:1256  msg.sender == contractOwner */\n      0xffffffffffffffffffffffffffffffffffffffff\n      and\n      eq\n        /* \"ERC20.sol\":1221:1303  require(msg.sender == contractOwner , 'Only Owner Of The Contract Can Execute it') */\n      tag_21\n      jumpi\n      mload(0x40)\n      0x08c379a000000000000000000000000000000000000000000000000000000000\n      dup2\n      mstore\n      0x04\n      add\n      tag_22\n      swap1\n      tag_23\n      jump\t// in\n    tag_22:\n      mload(0x40)\n      dup1\n      swap2\n      sub\n      swap1\n      revert\n    tag_21:\n        /* \"ERC20.sol\":1329:1332  _to */\n      dup1\n        /* \"ERC20.sol\":1313:1326  contractOwner */\n      0x00\n      dup1\n        /* \"ERC20.sol\":1313:1332  contractOwner = _to */\n      0x0100\n      exp\n      dup2\n      sload\n      dup2\n      0xffffffffffffffffffffffffffffffffffffffff\n      mul\n      not\n      and\n      swap1\n      dup4\n      0xffffffffffffffffffffffffffffffffffffffff\n      and\n      mul\n      or\n      swap1\n      sstore\n      pop\n        /* \"ERC20.sol\":1171:1339  function changeowner(address _to) public{... */\n      pop\n      jump\t// out\n        /* \"ERC20.sol\":966:994  address public contractOwner */\n    tag_12:\n      0x00\n      dup1\n      sload\n      swap1\n      0x0100\n      exp\n      swap1\n      div\n      0xffffffffffffffffffffffffffffffffffffffff\n      and\n      dup2\n      jump\t// out\n        /* \"ERC20.sol\":1000:1023  address public newOwner */\n    tag_16:\n      0x01\n      0x00\n      swap1\n      sload\n      swap1\n      0x0100\n      exp\n      swap1\n      div\n      0xffffffffffffffffffffffffffffffffffffffff\n      and\n      dup2\n      jump\t// out\n        /* \"ERC20.sol\":1345:1585  function acceptOwner() public{... */\n    tag_19:\n        /* \"ERC20.sol\":1406:1414  newOwner */\n      0x01\n      0x00\n      swap1\n      sload\n      swap1\n      0x0100\n      exp\n      swap1\n      div\n      0xffffffffffffffffffffffffffffffffffffffff\n      and\n        /* \"ERC20.sol\":1392:1414  msg.sender == newOwner */\n      0xffffffffffffffffffffffffffffffffffffffff\n      and\n        /* \"ERC20.sol\":1392:1402  msg.sender */\n      caller\n        /* \"ERC20.sol\":1392:1414  msg.sender == newOwner */\n      0xffffffffffffffffffffffffffffffffffffffff\n      and\n      eq\n        /* \"ERC20.sol\":1384:1453  require(msg.sender == newOwner,'Only new Assigned Owner Can Call It') */\n      tag_25\n      jumpi\n      mload(0x40)\n      0x08c379a000000000000000000000000000000000000000000000000000000000\n      dup2\n      mstore\n      0x04\n      add\n      tag_26\n      swap1\n      tag_27\n      jump\t// in\n    tag_26:\n      mload(0x40)\n      dup1\n      swap2\n      sub\n      swap1\n      revert\n    tag_25:\n        /* \"ERC20.sol\":1503:1511  newOwner */\n      0x01\n      0x00\n      swap1\n      sload\n      swap1\n      0x0100\n      exp\n      swap1\n      div\n      0xffffffffffffffffffffffffffffffffffffffff\n      and\n        /* \"ERC20.sol\":1468:1512  TransferOwnership (contractOwner , newOwner) */\n      0xffffffffffffffffffffffffffffffffffffffff\n      and\n        /* \"ERC20.sol\":1487:1500  contractOwner */\n      0x00\n      dup1\n      sload\n      swap1\n      0x0100\n      exp\n      swap1\n      div\n      0xffffffffffffffffffffffffffffffffffffffff\n      and\n        /* \"ERC20.sol\":1468:1512  TransferOwnership (contractOwner , newOwner) */\n      0xffffffffffffffffffffffffffffffffffffffff\n      and\n      0x5c486528ec3e3f0ea91181cff8116f02bfa350e03b8b6f12e00765adbb5af85c\n      mload(0x40)\n      mload(0x40)\n      dup1\n      swap2\n      sub\n      swap1\n      log3\n        /* \"ERC20.sol\":1538:1546  newOwner */\n      0x01\n      0x00\n      swap1\n      sload\n      swap1\n      0x0100\n      exp\n      swap1\n      div\n      0xffffffffffffffffffffffffffffffffffffffff\n      and\n        /* \"ERC20.sol\":1522:1535  contractOwner */\n      0x00\n      dup1\n        /* \"ERC20.sol\":1522:1546  contractOwner = newOwner */\n      0x0100\n      exp\n      dup2\n      sload\n      dup2\n      0xffffffffffffffffffffffffffffffffffffffff\n      mul\n      not\n      and\n      swap1\n      dup4\n      0xffffffffffffffffffffffffffffffffffffffff\n      and\n      mul\n      or\n      swap1\n      sstore\n      pop\n        /* \"ERC20.sol\":1575:1576  0 */\n      0x00\n        /* \"ERC20.sol\":1556:1564  newOwner */\n      0x01\n      0x00\n        /* \"ERC20.sol\":1556:1577  newOwner = address(0) */\n      0x0100\n      exp\n      dup2\n      sload\n      dup2\n      0xffffffffffffffffffffffffffffffffffffffff\n      mul\n      not\n      and\n      swap1\n      dup4\n      0xffffffffffffffffffffffffffffffffffffffff\n      and\n      mul\n      or\n      swap1\n      sstore\n      pop\n        /* \"ERC20.sol\":1345:1585  function acceptOwner() public{... */\n      jump\t// out\n        /* \"#utility.yul\":88:205   */\n    tag_29:\n        /* \"#utility.yul\":197:198   */\n      0x00\n        /* \"#utility.yul\":194:195   */\n      dup1\n        /* \"#utility.yul\":187:199   */\n      revert\n        /* \"#utility.yul\":334:460   */\n    tag_31:\n        /* \"#utility.yul\":371:378   */\n      0x00\n        /* \"#utility.yul\":411:453   */\n      0xffffffffffffffffffffffffffffffffffffffff\n        /* \"#utility.yul\":404:409   */\n      dup3\n        /* \"#utility.yul\":400:454   */\n      and\n        /* \"#utility.yul\":389:454   */\n      swap1\n      pop\n        /* \"#utility.yul\":334:460   */\n      swap2\n      swap1\n      pop\n      jump\t// out\n        /* \"#utility.yul\":466:562   */\n    tag_32:\n        /* \"#utility.yul\":503:510   */\n      0x00\n        /* \"#utility.yul\":532:556   */\n      tag_47\n        /* \"#utility.yul\":550:555   */\n      dup3\n        /* \"#utility.yul\":532:556   */\n      tag_31\n      jump\t// in\n    tag_47:\n        /* \"#utility.yul\":521:556   */\n      swap1\n      pop\n        /* \"#utility.yul\":466:562   */\n      swap2\n      swap1\n      pop\n      jump\t// out\n        /* \"#utility.yul\":568:690   */\n    tag_33:\n        /* \"#utility.yul\":641:665   */\n      tag_49\n        /* \"#utility.yul\":659:664   */\n      dup2\n        /* \"#utility.yul\":641:665   */\n      tag_32\n      jump\t// in\n    tag_49:\n        /* \"#utility.yul\":634:639   */\n      dup2\n        /* \"#utility.yul\":631:666   */\n      eq\n        /* \"#utility.yul\":621:684   */\n      tag_50\n      jumpi\n        /* \"#utility.yul\":680:681   */\n      0x00\n        /* \"#utility.yul\":677:678   */\n      dup1\n        /* \"#utility.yul\":670:682   */\n      revert\n        /* \"#utility.yul\":621:684   */\n    tag_50:\n        /* \"#utility.yul\":568:690   */\n      pop\n      jump\t// out\n        /* \"#utility.yul\":696:835   */\n    tag_34:\n        /* \"#utility.yul\":742:747   */\n      0x00\n        /* \"#utility.yul\":780:786   */\n      dup2\n        /* \"#utility.yul\":767:787   */\n      calldataload\n        /* \"#utility.yul\":758:787   */\n      swap1\n      pop\n        /* \"#utility.yul\":796:829   */\n      tag_52\n        /* \"#utility.yul\":823:828   */\n      dup2\n        /* \"#utility.yul\":796:829   */\n      tag_33\n      jump\t// in\n    tag_52:\n        /* \"#utility.yul\":696:835   */\n      swap3\n      swap2\n      pop\n      pop\n      jump\t// out\n        /* \"#utility.yul\":841:1170   */\n    tag_9:\n        /* \"#utility.yul\":900:906   */\n      0x00\n        /* \"#utility.yul\":949:951   */\n      0x20\n        /* \"#utility.yul\":937:946   */\n      dup3\n        /* \"#utility.yul\":928:935   */\n      dup5\n        /* \"#utility.yul\":924:947   */\n      sub\n        /* \"#utility.yul\":920:952   */\n      slt\n        /* \"#utility.yul\":917:1036   */\n      iszero\n      tag_54\n      jumpi\n        /* \"#utility.yul\":955:1034   */\n      tag_55\n      tag_29\n      jump\t// in\n    tag_55:\n        /* \"#utility.yul\":917:1036   */\n    tag_54:\n        /* \"#utility.yul\":1075:1076   */\n      0x00\n        /* \"#utility.yul\":1100:1153   */\n      tag_56\n        /* \"#utility.yul\":1145:1152   */\n      dup5\n        /* \"#utility.yul\":1136:1142   */\n      dup3\n        /* \"#utility.yul\":1125:1134   */\n      dup6\n        /* \"#utility.yul\":1121:1143   */\n      add\n        /* \"#utility.yul\":1100:1153   */\n      tag_34\n      jump\t// in\n    tag_56:\n        /* \"#utility.yul\":1090:1153   */\n      swap2\n      pop\n        /* \"#utility.yul\":1046:1163   */\n      pop\n        /* \"#utility.yul\":841:1170   */\n      swap3\n      swap2\n      pop\n      pop\n      jump\t// out\n        /* \"#utility.yul\":1176:1294   */\n    tag_35:\n        /* \"#utility.yul\":1263:1287   */\n      tag_58\n        /* \"#utility.yul\":1281:1286   */\n      dup2\n        /* \"#utility.yul\":1263:1287   */\n      tag_32\n      jump\t// in\n    tag_58:\n        /* \"#utility.yul\":1258:1261   */\n      dup3\n        /* \"#utility.yul\":1251:1288   */\n      mstore\n        /* \"#utility.yul\":1176:1294   */\n      pop\n      pop\n      jump\t// out\n        /* \"#utility.yul\":1300:1522   */\n    tag_14:\n        /* \"#utility.yul\":1393:1397   */\n      0x00\n        /* \"#utility.yul\":1431:1433   */\n      0x20\n        /* \"#utility.yul\":1420:1429   */\n      dup3\n        /* \"#utility.yul\":1416:1434   */\n      add\n        /* \"#utility.yul\":1408:1434   */\n      swap1\n      pop\n        /* \"#utility.yul\":1444:1515   */\n      tag_60\n        /* \"#utility.yul\":1512:1513   */\n      0x00\n        /* \"#utility.yul\":1501:1510   */\n      dup4\n        /* \"#utility.yul\":1497:1514   */\n      add\n        /* \"#utility.yul\":1488:1494   */\n      dup5\n        /* \"#utility.yul\":1444:1515   */\n      tag_35\n      jump\t// in\n    tag_60:\n        /* \"#utility.yul\":1300:1522   */\n      swap3\n      swap2\n      pop\n      pop\n      jump\t// out\n        /* \"#utility.yul\":1528:1697   */\n    tag_36:\n        /* \"#utility.yul\":1612:1623   */\n      0x00\n        /* \"#utility.yul\":1646:1652   */\n      dup3\n        /* \"#utility.yul\":1641:1644   */\n      dup3\n        /* \"#utility.yul\":1634:1653   */\n      mstore\n        /* \"#utility.yul\":1686:1690   */\n      0x20\n        /* \"#utility.yul\":1681:1684   */\n      dup3\n        /* \"#utility.yul\":1677:1691   */\n      add\n        /* \"#utility.yul\":1662:1691   */\n      swap1\n      pop\n        /* \"#utility.yul\":1528:1697   */\n      swap3\n      swap2\n      pop\n      pop\n      jump\t// out\n        /* \"#utility.yul\":1703:1931   */\n    tag_37:\n        /* \"#utility.yul\":1843:1877   */\n      0x4f6e6c79204f776e6572204f662054686520436f6e74726163742043616e2045\n        /* \"#utility.yul\":1839:1840   */\n      0x00\n        /* \"#utility.yul\":1831:1837   */\n      dup3\n        /* \"#utility.yul\":1827:1841   */\n      add\n        /* \"#utility.yul\":1820:1878   */\n      mstore\n        /* \"#utility.yul\":1912:1923   */\n      0x7865637574652069740000000000000000000000000000000000000000000000\n        /* \"#utility.yul\":1907:1909   */\n      0x20\n        /* \"#utility.yul\":1899:1905   */\n      dup3\n        /* \"#utility.yul\":1895:1910   */\n      add\n        /* \"#utility.yul\":1888:1924   */\n      mstore\n        /* \"#utility.yul\":1703:1931   */\n      pop\n      jump\t// out\n        /* \"#utility.yul\":1937:2303   */\n    tag_38:\n        /* \"#utility.yul\":2079:2082   */\n      0x00\n        /* \"#utility.yul\":2100:2167   */\n      tag_64\n        /* \"#utility.yul\":2164:2166   */\n      0x29\n        /* \"#utility.yul\":2159:2162   */\n      dup4\n        /* \"#utility.yul\":2100:2167   */\n      tag_36\n      jump\t// in\n    tag_64:\n        /* \"#utility.yul\":2093:2167   */\n      swap2\n      pop\n        /* \"#utility.yul\":2176:2269   */\n      tag_65\n        /* \"#utility.yul\":2265:2268   */\n      dup3\n        /* \"#utility.yul\":2176:2269   */\n      tag_37\n      jump\t// in\n    tag_65:\n        /* \"#utility.yul\":2294:2296   */\n      0x40\n        /* \"#utility.yul\":2289:2292   */\n      dup3\n        /* \"#utility.yul\":2285:2297   */\n      add\n        /* \"#utility.yul\":2278:2297   */\n      swap1\n      pop\n        /* \"#utility.yul\":1937:2303   */\n      swap2\n      swap1\n      pop\n      jump\t// out\n        /* \"#utility.yul\":2309:2728   */\n    tag_23:\n        /* \"#utility.yul\":2475:2479   */\n      0x00\n        /* \"#utility.yul\":2513:2515   */\n      0x20\n        /* \"#utility.yul\":2502:2511   */\n      dup3\n        /* \"#utility.yul\":2498:2516   */\n      add\n        /* \"#utility.yul\":2490:2516   */\n      swap1\n      pop\n        /* \"#utility.yul\":2562:2571   */\n      dup2\n        /* \"#utility.yul\":2556:2560   */\n      dup2\n        /* \"#utility.yul\":2552:2572   */\n      sub\n        /* \"#utility.yul\":2548:2549   */\n      0x00\n        /* \"#utility.yul\":2537:2546   */\n      dup4\n        /* \"#utility.yul\":2533:2550   */\n      add\n        /* \"#utility.yul\":2526:2573   */\n      mstore\n        /* \"#utility.yul\":2590:2721   */\n      tag_67\n        /* \"#utility.yul\":2716:2720   */\n      dup2\n        /* \"#utility.yul\":2590:2721   */\n      tag_38\n      jump\t// in\n    tag_67:\n        /* \"#utility.yul\":2582:2721   */\n      swap1\n      pop\n        /* \"#utility.yul\":2309:2728   */\n      swap2\n      swap1\n      pop\n      jump\t// out\n        /* \"#utility.yul\":2734:2956   */\n    tag_39:\n        /* \"#utility.yul\":2874:2908   */\n      0x4f6e6c79206e65772041737369676e6564204f776e65722043616e2043616c6c\n        /* \"#utility.yul\":2870:2871   */\n      0x00\n        /* \"#utility.yul\":2862:2868   */\n      dup3\n        /* \"#utility.yul\":2858:2872   */\n      add\n        /* \"#utility.yul\":2851:2909   */\n      mstore\n        /* \"#utility.yul\":2943:2948   */\n      0x2049740000000000000000000000000000000000000000000000000000000000\n        /* \"#utility.yul\":2938:2940   */\n      0x20\n        /* \"#utility.yul\":2930:2936   */\n      dup3\n        /* \"#utility.yul\":2926:2941   */\n      add\n        /* \"#utility.yul\":2919:2949   */\n      mstore\n        /* \"#utility.yul\":2734:2956   */\n      pop\n      jump\t// out\n        /* \"#utility.yul\":2962:3328   */\n    tag_40:\n        /* \"#utility.yul\":3104:3107   */\n      0x00\n        /* \"#utility.yul\":3125:3192   */\n      tag_70\n        /* \"#utility.yul\":3189:3191   */\n      0x23\n        /* \"#utility.yul\":3184:3187   */\n      dup4\n        /* \"#utility.yul\":3125:3192   */\n      tag_36\n      jump\t// in\n    tag_70:\n        /* \"#utility.yul\":3118:3192   */\n      swap2\n      pop\n        /* \"#utility.yul\":3201:3294   */\n      tag_71\n        /* \"#utility.yul\":3290:3293   */\n      dup3\n        /* \"#utility.yul\":3201:3294   */\n      tag_39\n      jump\t// in\n    tag_71:\n        /* \"#utility.yul\":3319:3321   */\n      0x40\n        /* \"#utility.yul\":3314:3317   */\n      dup3\n        /* \"#utility.yul\":3310:3322   */\n      add\n        /* \"#utility.yul\":3303:3322   */\n      swap1\n      pop\n        /* \"#utility.yul\":2962:3328   */\n      swap2\n      swap1\n      pop\n      jump\t// out\n        /* \"#utility.yul\":3334:3753   */\n    tag_27:\n        /* \"#utility.yul\":3500:3504   */\n      0x00\n        /* \"#utility.yul\":3538:3540   */\n      0x20\n        /* \"#utility.yul\":3527:3536   */\n      dup3\n        /* \"#utility.yul\":3523:3541   */\n      add\n        /* \"#utility.yul\":3515:3541   */\n      swap1\n      pop\n        /* \"#utility.yul\":3587:3596   */\n      dup2\n        /* \"#utility.yul\":3581:3585   */\n      dup2\n        /* \"#utility.yul\":3577:3597   */\n      sub\n        /* \"#utility.yul\":3573:3574   */\n      0x00\n        /* \"#utility.yul\":3562:3571   */\n      dup4\n        /* \"#utility.yul\":3558:3575   */\n      add\n        /* \"#utility.yul\":3551:3598   */\n      mstore\n        /* \"#utility.yul\":3615:3746   */\n      tag_73\n        /* \"#utility.yul\":3741:3745   */\n      dup2\n        /* \"#utility.yul\":3615:3746   */\n      tag_40\n      jump\t// in\n    tag_73:\n        /* \"#utility.yul\":3607:3746   */\n      swap1\n      pop\n        /* \"#utility.yul\":3334:3753   */\n      swap2\n      swap1\n      pop\n      jump\t// out\n\n    auxdata: 0xa2646970667358221220552e440d965b8732d5460e46fdd5f0b77e25a2380044d7f811911f26d2b442e264736f6c634300080e0033\n}\n",
				"bytecode": {
					"linkReferences": {},
					"object": "608060405234801561001057600080fd5b50336000806101000a81548173ffffffffffffffffffffffffffffffffffffffff021916908373ffffffffffffffffffffffffffffffffffffffff1602179055506105c5806100606000396000f3fe608060405234801561001057600080fd5b506004361061004c5760003560e01c8063662e4ee414610051578063ce606ee01461006d578063d4ee1d901461008b578063ebbc4965146100a9575b600080fd5b61006b60048036038101906100669190610403565b6100b3565b005b610075610184565b604051610082919061043f565b60405180910390f35b6100936101a8565b6040516100a0919061043f565b60405180910390f35b6100b16101ce565b005b60008054906101000a900473ffffffffffffffffffffffffffffffffffffffff1673ffffffffffffffffffffffffffffffffffffffff163373ffffffffffffffffffffffffffffffffffffffff1614610141576040517f08c379a0000000000000000000000000000000000000000000000000000000008152600401610138906104dd565b60405180910390fd5b806000806101000a81548173ffffffffffffffffffffffffffffffffffffffff021916908373ffffffffffffffffffffffffffffffffffffffff16021790555050565b60008054906101000a900473ffffffffffffffffffffffffffffffffffffffff1681565b600160009054906101000a900473ffffffffffffffffffffffffffffffffffffffff1681565b600160009054906101000a900473ffffffffffffffffffffffffffffffffffffffff1673ffffffffffffffffffffffffffffffffffffffff163373ffffffffffffffffffffffffffffffffffffffff161461025e576040517f08c379a00000000000000000000000000000000000000000000000000000000081526004016102559061056f565b60405180910390fd5b600160009054906101000a900473ffffffffffffffffffffffffffffffffffffffff1673ffffffffffffffffffffffffffffffffffffffff1660008054906101000a900473ffffffffffffffffffffffffffffffffffffffff1673ffffffffffffffffffffffffffffffffffffffff167f5c486528ec3e3f0ea91181cff8116f02bfa350e03b8b6f12e00765adbb5af85c60405160405180910390a3600160009054906101000a900473ffffffffffffffffffffffffffffffffffffffff166000806101000a81548173ffffffffffffffffffffffffffffffffffffffff021916908373ffffffffffffffffffffffffffffffffffffffff1602179055506000600160006101000a81548173ffffffffffffffffffffffffffffffffffffffff021916908373ffffffffffffffffffffffffffffffffffffffff160217905550565b600080fd5b600073ffffffffffffffffffffffffffffffffffffffff82169050919050565b60006103d0826103a5565b9050919050565b6103e0816103c5565b81146103eb57600080fd5b50565b6000813590506103fd816103d7565b92915050565b600060208284031215610419576104186103a0565b5b6000610427848285016103ee565b91505092915050565b610439816103c5565b82525050565b60006020820190506104546000830184610430565b92915050565b600082825260208201905092915050565b7f4f6e6c79204f776e6572204f662054686520436f6e74726163742043616e204560008201527f7865637574652069740000000000000000000000000000000000000000000000602082015250565b60006104c760298361045a565b91506104d28261046b565b604082019050919050565b600060208201905081810360008301526104f6816104ba565b9050919050565b7f4f6e6c79206e65772041737369676e6564204f776e65722043616e2043616c6c60008201527f2049740000000000000000000000000000000000000000000000000000000000602082015250565b600061055960238361045a565b9150610564826104fd565b604082019050919050565b600060208201905081810360008301526105888161054c565b905091905056fea2646970667358221220552e440d965b8732d5460e46fdd5f0b77e25a2380044d7f811911f26d2b442e264736f6c634300080e0033",
					"opcodes": "PUSH1 0x80 PUSH1 0x40 MSTORE CALLVALUE DUP1 ISZERO PUSH2 0x10 JUMPI PUSH1 0x0 DUP1 REVERT JUMPDEST POP CALLER PUSH1 0x0 DUP1 PUSH2 0x100 EXP DUP2 SLOAD DUP2 PUSH20 0xFFFFFFFFFFFFFFFFFFFFFFFFFFFFFFFFFFFFFFFF MUL NOT AND SWAP1 DUP4 PUSH20 0xFFFFFFFFFFFFFFFFFFFFFFFFFFFFFFFFFFFFFFFF AND MUL OR SWAP1 SSTORE POP PUSH2 0x5C5 DUP1 PUSH2 0x60 PUSH1 0x0 CODECOPY PUSH1 0x0 RETURN INVALID PUSH1 0x80 PUSH1 0x40 MSTORE CALLVALUE DUP1 ISZERO PUSH2 0x10 JUMPI PUSH1 0x0 DUP1 REVERT JUMPDEST POP PUSH1 0x4 CALLDATASIZE LT PUSH2 0x4C JUMPI PUSH1 0x0 CALLDATALOAD PUSH1 0xE0 SHR DUP1 PUSH4 0x662E4EE4 EQ PUSH2 0x51 JUMPI DUP1 PUSH4 0xCE606EE0 EQ PUSH2 0x6D JUMPI DUP1 PUSH4 0xD4EE1D90 EQ PUSH2 0x8B JUMPI DUP1 PUSH4 0xEBBC4965 EQ PUSH2 0xA9 JUMPI JUMPDEST PUSH1 0x0 DUP1 REVERT JUMPDEST PUSH2 0x6B PUSH1 0x4 DUP1 CALLDATASIZE SUB DUP2 ADD SWAP1 PUSH2 0x66 SWAP2 SWAP1 PUSH2 0x403 JUMP JUMPDEST PUSH2 0xB3 JUMP JUMPDEST STOP JUMPDEST PUSH2 0x75 PUSH2 0x184 JUMP JUMPDEST PUSH1 0x40 MLOAD PUSH2 0x82 SWAP2 SWAP1 PUSH2 0x43F JUMP JUMPDEST PUSH1 0x40 MLOAD DUP1 SWAP2 SUB SWAP1 RETURN JUMPDEST PUSH2 0x93 PUSH2 0x1A8 JUMP JUMPDEST PUSH1 0x40 MLOAD PUSH2 0xA0 SWAP2 SWAP1 PUSH2 0x43F JUMP JUMPDEST PUSH1 0x40 MLOAD DUP1 SWAP2 SUB SWAP1 RETURN JUMPDEST PUSH2 0xB1 PUSH2 0x1CE JUMP JUMPDEST STOP JUMPDEST PUSH1 0x0 DUP1 SLOAD SWAP1 PUSH2 0x100 EXP SWAP1 DIV PUSH20 0xFFFFFFFFFFFFFFFFFFFFFFFFFFFFFFFFFFFFFFFF AND PUSH20 0xFFFFFFFFFFFFFFFFFFFFFFFFFFFFFFFFFFFFFFFF AND CALLER PUSH20 0xFFFFFFFFFFFFFFFFFFFFFFFFFFFFFFFFFFFFFFFF AND EQ PUSH2 0x141 JUMPI PUSH1 0x40 MLOAD PUSH32 0x8C379A000000000000000000000000000000000000000000000000000000000 DUP2 MSTORE PUSH1 0x4 ADD PUSH2 0x138 SWAP1 PUSH2 0x4DD JUMP JUMPDEST PUSH1 0x40 MLOAD DUP1 SWAP2 SUB SWAP1 REVERT JUMPDEST DUP1 PUSH1 0x0 DUP1 PUSH2 0x100 EXP DUP2 SLOAD DUP2 PUSH20 0xFFFFFFFFFFFFFFFFFFFFFFFFFFFFFFFFFFFFFFFF MUL NOT AND SWAP1 DUP4 PUSH20 0xFFFFFFFFFFFFFFFFFFFFFFFFFFFFFFFFFFFFFFFF AND MUL OR SWAP1 SSTORE POP POP JUMP JUMPDEST PUSH1 0x0 DUP1 SLOAD SWAP1 PUSH2 0x100 EXP SWAP1 DIV PUSH20 0xFFFFFFFFFFFFFFFFFFFFFFFFFFFFFFFFFFFFFFFF AND DUP2 JUMP JUMPDEST PUSH1 0x1 PUSH1 0x0 SWAP1 SLOAD SWAP1 PUSH2 0x100 EXP SWAP1 DIV PUSH20 0xFFFFFFFFFFFFFFFFFFFFFFFFFFFFFFFFFFFFFFFF AND DUP2 JUMP JUMPDEST PUSH1 0x1 PUSH1 0x0 SWAP1 SLOAD SWAP1 PUSH2 0x100 EXP SWAP1 DIV PUSH20 0xFFFFFFFFFFFFFFFFFFFFFFFFFFFFFFFFFFFFFFFF AND PUSH20 0xFFFFFFFFFFFFFFFFFFFFFFFFFFFFFFFFFFFFFFFF AND CALLER PUSH20 0xFFFFFFFFFFFFFFFFFFFFFFFFFFFFFFFFFFFFFFFF AND EQ PUSH2 0x25E JUMPI PUSH1 0x40 MLOAD PUSH32 0x8C379A000000000000000000000000000000000000000000000000000000000 DUP2 MSTORE PUSH1 0x4 ADD PUSH2 0x255 SWAP1 PUSH2 0x56F JUMP JUMPDEST PUSH1 0x40 MLOAD DUP1 SWAP2 SUB SWAP1 REVERT JUMPDEST PUSH1 0x1 PUSH1 0x0 SWAP1 SLOAD SWAP1 PUSH2 0x100 EXP SWAP1 DIV PUSH20 0xFFFFFFFFFFFFFFFFFFFFFFFFFFFFFFFFFFFFFFFF AND PUSH20 0xFFFFFFFFFFFFFFFFFFFFFFFFFFFFFFFFFFFFFFFF AND PUSH1 0x0 DUP1 SLOAD SWAP1 PUSH2 0x100 EXP SWAP1 DIV PUSH20 0xFFFFFFFFFFFFFFFFFFFFFFFFFFFFFFFFFFFFFFFF AND PUSH20 0xFFFFFFFFFFFFFFFFFFFFFFFFFFFFFFFFFFFFFFFF AND PUSH32 0x5C486528EC3E3F0EA91181CFF8116F02BFA350E03B8B6F12E00765ADBB5AF85C PUSH1 0x40 MLOAD PUSH1 0x40 MLOAD DUP1 SWAP2 SUB SWAP1 LOG3 PUSH1 0x1 PUSH1 0x0 SWAP1 SLOAD SWAP1 PUSH2 0x100 EXP SWAP1 DIV PUSH20 0xFFFFFFFFFFFFFFFFFFFFFFFFFFFFFFFFFFFFFFFF AND PUSH1 0x0 DUP1 PUSH2 0x100 EXP DUP2 SLOAD DUP2 PUSH20 0xFFFFFFFFFFFFFFFFFFFFFFFFFFFFFFFFFFFFFFFF MUL NOT AND SWAP1 DUP4 PUSH20 0xFFFFFFFFFFFFFFFFFFFFFFFFFFFFFFFFFFFFFFFF AND MUL OR SWAP1 SSTORE POP PUSH1 0x0 PUSH1 0x1 PUSH1 0x0 PUSH2 0x100 EXP DUP2 SLOAD DUP2 PUSH20 0xFFFFFFFFFFFFFFFFFFFFFFFFFFFFFFFFFFFFFFFF MUL NOT AND SWAP1 DUP4 PUSH20 0xFFFFFFFFFFFFFFFFFFFFFFFFFFFFFFFFFFFFFFFF AND MUL OR SWAP1 SSTORE POP JUMP JUMPDEST PUSH1 0x0 DUP1 REVERT JUMPDEST PUSH1 0x0 PUSH20 0xFFFFFFFFFFFFFFFFFFFFFFFFFFFFFFFFFFFFFFFF DUP3 AND SWAP1 POP SWAP2 SWAP1 POP JUMP JUMPDEST PUSH1 0x0 PUSH2 0x3D0 DUP3 PUSH2 0x3A5 JUMP JUMPDEST SWAP1 POP SWAP2 SWAP1 POP JUMP JUMPDEST PUSH2 0x3E0 DUP2 PUSH2 0x3C5 JUMP JUMPDEST DUP2 EQ PUSH2 0x3EB JUMPI PUSH1 0x0 DUP1 REVERT JUMPDEST POP JUMP JUMPDEST PUSH1 0x0 DUP2 CALLDATALOAD SWAP1 POP PUSH2 0x3FD DUP2 PUSH2 0x3D7 JUMP JUMPDEST SWAP3 SWAP2 POP POP JUMP JUMPDEST PUSH1 0x0 PUSH1 0x20 DUP3 DUP5 SUB SLT ISZERO PUSH2 0x419 JUMPI PUSH2 0x418 PUSH2 0x3A0 JUMP JUMPDEST JUMPDEST PUSH1 0x0 PUSH2 0x427 DUP5 DUP3 DUP6 ADD PUSH2 0x3EE JUMP JUMPDEST SWAP2 POP POP SWAP3 SWAP2 POP POP JUMP JUMPDEST PUSH2 0x439 DUP2 PUSH2 0x3C5 JUMP JUMPDEST DUP3 MSTORE POP POP JUMP JUMPDEST PUSH1 0x0 PUSH1 0x20 DUP3 ADD SWAP1 POP PUSH2 0x454 PUSH1 0x0 DUP4 ADD DUP5 PUSH2 0x430 JUMP JUMPDEST SWAP3 SWAP2 POP POP JUMP JUMPDEST PUSH1 0x0 DUP3 DUP3 MSTORE PUSH1 0x20 DUP3 ADD SWAP1 POP SWAP3 SWAP2 POP POP JUMP JUMPDEST PUSH32 0x4F6E6C79204F776E6572204F662054686520436F6E74726163742043616E2045 PUSH1 0x0 DUP3 ADD MSTORE PUSH32 0x7865637574652069740000000000000000000000000000000000000000000000 PUSH1 0x20 DUP3 ADD MSTORE POP JUMP JUMPDEST PUSH1 0x0 PUSH2 0x4C7 PUSH1 0x29 DUP4 PUSH2 0x45A JUMP JUMPDEST SWAP2 POP PUSH2 0x4D2 DUP3 PUSH2 0x46B JUMP JUMPDEST PUSH1 0x40 DUP3 ADD SWAP1 POP SWAP2 SWAP1 POP JUMP JUMPDEST PUSH1 0x0 PUSH1 0x20 DUP3 ADD SWAP1 POP DUP2 DUP2 SUB PUSH1 0x0 DUP4 ADD MSTORE PUSH2 0x4F6 DUP2 PUSH2 0x4BA JUMP JUMPDEST SWAP1 POP SWAP2 SWAP1 POP JUMP JUMPDEST PUSH32 0x4F6E6C79206E65772041737369676E6564204F776E65722043616E2043616C6C PUSH1 0x0 DUP3 ADD MSTORE PUSH32 0x2049740000000000000000000000000000000000000000000000000000000000 PUSH1 0x20 DUP3 ADD MSTORE POP JUMP JUMPDEST PUSH1 0x0 PUSH2 0x559 PUSH1 0x23 DUP4 PUSH2 0x45A JUMP JUMPDEST SWAP2 POP PUSH2 0x564 DUP3 PUSH2 0x4FD JUMP JUMPDEST PUSH1 0x40 DUP3 ADD SWAP1 POP SWAP2 SWAP1 POP JUMP JUMPDEST PUSH1 0x0 PUSH1 0x20 DUP3 ADD SWAP1 POP DUP2 DUP2 SUB PUSH1 0x0 DUP4 ADD MSTORE PUSH2 0x588 DUP2 PUSH2 0x54C JUMP JUMPDEST SWAP1 POP SWAP2 SWAP1 POP JUMP INVALID LOG2 PUSH5 0x6970667358 0x22 SLT KECCAK256 SSTORE 0x2E DIFFICULTY 0xD SWAP7 JUMPDEST DUP8 ORIGIN 0xD5 CHAINID 0xE CHAINID REVERT 0xD5 CREATE 0xB7 PUSH31 0x25A2380044D7F811911F26D2B442E264736F6C634300080E00330000000000 "
				},
				"gasEstimates": {
					"creation": {
						"codeDepositCost": "295400",
						"executionCost": "24603",
						"totalCost": "320003"
					},
					"external": {
						"acceptOwner()": "58842",
						"changeowner(address)": "26867",
						"contractOwner()": "2511",
						"newOwner()": "2536"
					}
				},
				"methodIdentifiers": {
					"acceptOwner()": "ebbc4965",
					"changeowner(address)": "662e4ee4",
					"contractOwner()": "ce606ee0",
					"newOwner()": "d4ee1d90"
				}
			},
			"storageLayout": {
				"storage": [
					{
						"astId": 80,
						"contract": "ERC20.sol:Ownership",
						"label": "contractOwner",
						"offset": 0,
						"slot": "0",
						"type": "t_address"
					},
					{
						"astId": 82,
						"contract": "ERC20.sol:Ownership",
						"label": "newOwner",
						"offset": 0,
						"slot": "1",
						"type": "t_address"
					}
				],
				"types": {
					"t_address": {
						"encoding": "inplace",
						"label": "address",
						"numberOfBytes": "20"
					}
				}
			},
			"userdoc": {
				"kind": "user",
				"methods": {},
				"version": 1
			}
		}
	}
}