{
	"mapping.sol": {
		"advanceMapping": {
			"abi": [
				{
					"inputs": [
						{
							"internalType": "address",
							"name": "",
							"type": "address"
						}
					],
					"name": "acc_info",
					"outputs": [
						{
							"internalType": "string",
							"name": "name",
							"type": "string"
						},
						{
							"internalType": "uint256",
							"name": "age",
							"type": "uint256"
						},
						{
							"internalType": "string",
							"name": "add",
							"type": "string"
						},
						{
							"internalType": "uint256",
							"name": "don",
							"type": "uint256"
						}
					],
					"stateMutability": "view",
					"type": "function"
				},
				{
					"inputs": [],
					"name": "delete_info",
					"outputs": [],
					"stateMutability": "nonpayable",
					"type": "function"
				},
				{
					"inputs": [
						{
							"internalType": "string",
							"name": "_name",
							"type": "string"
						},
						{
							"internalType": "uint256",
							"name": "_age",
							"type": "uint256"
						},
						{
							"internalType": "string",
							"name": "_add",
							"type": "string"
						},
						{
							"internalType": "uint256",
							"name": "_don",
							"type": "uint256"
						}
					],
					"name": "set",
					"outputs": [],
					"stateMutability": "nonpayable",
					"type": "function"
				}
			],
			"devdoc": {
				"kind": "dev",
				"methods": {},
				"version": 1
			},
			"evm": {
				"assembly": "    /* \"mapping.sol\":337:712  contract advanceMapping{... */\n  mstore(0x40, 0x80)\n  callvalue\n  dup1\n  iszero\n  tag_1\n  jumpi\n  0x00\n  dup1\n  revert\ntag_1:\n  pop\n  dataSize(sub_0)\n  dup1\n  dataOffset(sub_0)\n  0x00\n  codecopy\n  0x00\n  return\nstop\n\nsub_0: assembly {\n        /* \"mapping.sol\":337:712  contract advanceMapping{... */\n      mstore(0x40, 0x80)\n      callvalue\n      dup1\n      iszero\n      tag_1\n      jumpi\n      0x00\n      dup1\n      revert\n    tag_1:\n      pop\n      jumpi(tag_2, lt(calldatasize, 0x04))\n      shr(0xe0, calldataload(0x00))\n      dup1\n      0x0d0d1e2b\n      eq\n      tag_3\n      jumpi\n      dup1\n      0x2f4864c5\n      eq\n      tag_4\n      jumpi\n      dup1\n      0x628e48f9\n      eq\n      tag_5\n      jumpi\n    tag_2:\n      0x00\n      dup1\n      revert\n        /* \"mapping.sol\":370:413  mapping(address=>donar_dts) public acc_info */\n    tag_3:\n      tag_6\n      0x04\n      dup1\n      calldatasize\n      sub\n      dup2\n      add\n      swap1\n      tag_7\n      swap2\n      swap1\n      tag_8\n      jump\t// in\n    tag_7:\n      tag_9\n      jump\t// in\n    tag_6:\n      mload(0x40)\n      tag_10\n      swap5\n      swap4\n      swap3\n      swap2\n      swap1\n      tag_11\n      jump\t// in\n    tag_10:\n      mload(0x40)\n      dup1\n      swap2\n      sub\n      swap1\n      return\n        /* \"mapping.sol\":626:706  function delete_info()public{... */\n    tag_4:\n      tag_12\n      tag_13\n      jump\t// in\n    tag_12:\n      stop\n        /* \"mapping.sol\":424:616  function set(string memory _name , uint _age , string memory     _add , uint _don) public{... */\n    tag_5:\n      tag_14\n      0x04\n      dup1\n      calldatasize\n      sub\n      dup2\n      add\n      swap1\n      tag_15\n      swap2\n      swap1\n      tag_16\n      jump\t// in\n    tag_15:\n      tag_17\n      jump\t// in\n    tag_14:\n      stop\n        /* \"mapping.sol\":370:413  mapping(address=>donar_dts) public acc_info */\n    tag_9:\n      mstore(0x20, 0x00)\n      dup1\n      0x00\n      mstore\n      keccak256(0x00, 0x40)\n      0x00\n      swap2\n      pop\n      swap1\n      pop\n      dup1\n      0x00\n      add\n      dup1\n      sload\n      tag_18\n      swap1\n      tag_19\n      jump\t// in\n    tag_18:\n      dup1\n      0x1f\n      add\n      0x20\n      dup1\n      swap2\n      div\n      mul\n      0x20\n      add\n      mload(0x40)\n      swap1\n      dup2\n      add\n      0x40\n      mstore\n      dup1\n      swap3\n      swap2\n      swap1\n      dup2\n      dup2\n      mstore\n      0x20\n      add\n      dup3\n      dup1\n      sload\n      tag_20\n      swap1\n      tag_19\n      jump\t// in\n    tag_20:\n      dup1\n      iszero\n      tag_21\n      jumpi\n      dup1\n      0x1f\n      lt\n      tag_22\n      jumpi\n      0x0100\n      dup1\n      dup4\n      sload\n      div\n      mul\n      dup4\n      mstore\n      swap2\n      0x20\n      add\n      swap2\n      jump(tag_21)\n    tag_22:\n      dup3\n      add\n      swap2\n      swap1\n      0x00\n      mstore\n      keccak256(0x00, 0x20)\n      swap1\n    tag_23:\n      dup2\n      sload\n      dup2\n      mstore\n      swap1\n      0x01\n      add\n      swap1\n      0x20\n      add\n      dup1\n      dup4\n      gt\n      tag_23\n      jumpi\n      dup3\n      swap1\n      sub\n      0x1f\n      and\n      dup3\n      add\n      swap2\n    tag_21:\n      pop\n      pop\n      pop\n      pop\n      pop\n      swap1\n      dup1\n      0x01\n      add\n      sload\n      swap1\n      dup1\n      0x02\n      add\n      dup1\n      sload\n      tag_24\n      swap1\n      tag_19\n      jump\t// in\n    tag_24:\n      dup1\n      0x1f\n      add\n      0x20\n      dup1\n      swap2\n      div\n      mul\n      0x20\n      add\n      mload(0x40)\n      swap1\n      dup2\n      add\n      0x40\n      mstore\n      dup1\n      swap3\n      swap2\n      swap1\n      dup2\n      dup2\n      mstore\n      0x20\n      add\n      dup3\n      dup1\n      sload\n      tag_25\n      swap1\n      tag_19\n      jump\t// in\n    tag_25:\n      dup1\n      iszero\n      tag_26\n      jumpi\n      dup1\n      0x1f\n      lt\n      tag_27\n      jumpi\n      0x0100\n      dup1\n      dup4\n      sload\n      div\n      mul\n      dup4\n      mstore\n      swap2\n      0x20\n      add\n      swap2\n      jump(tag_26)\n    tag_27:\n      dup3\n      add\n      swap2\n      swap1\n      0x00\n      mstore\n      keccak256(0x00, 0x20)\n      swap1\n    tag_28:\n      dup2\n      sload\n      dup2\n      mstore\n      swap1\n      0x01\n      add\n      swap1\n      0x20\n      add\n      dup1\n      dup4\n      gt\n      tag_28\n      jumpi\n      dup3\n      swap1\n      sub\n      0x1f\n      and\n      dup3\n      add\n      swap2\n    tag_26:\n      pop\n      pop\n      pop\n      pop\n      pop\n      swap1\n      dup1\n      0x03\n      add\n      sload\n      swap1\n      pop\n      dup5\n      jump\t// out\n        /* \"mapping.sol\":626:706  function delete_info()public{... */\n    tag_13:\n        /* \"mapping.sol\":675:683  acc_info */\n      0x00\n        /* \"mapping.sol\":675:695  acc_info[msg.sender] */\n      dup1\n        /* \"mapping.sol\":684:694  msg.sender */\n      caller\n        /* \"mapping.sol\":675:695  acc_info[msg.sender] */\n      0xffffffffffffffffffffffffffffffffffffffff\n      and\n      0xffffffffffffffffffffffffffffffffffffffff\n      and\n      dup2\n      mstore\n      0x20\n      add\n      swap1\n      dup2\n      mstore\n      0x20\n      add\n      0x00\n      keccak256\n      0x00\n        /* \"mapping.sol\":668:695  delete acc_info[msg.sender] */\n      dup1\n      dup3\n      add\n      0x00\n      tag_30\n      swap2\n      swap1\n      tag_31\n      jump\t// in\n    tag_30:\n      0x01\n      dup3\n      add\n      0x00\n      swap1\n      sstore\n      0x02\n      dup3\n      add\n      0x00\n      tag_32\n      swap2\n      swap1\n      tag_31\n      jump\t// in\n    tag_32:\n      0x03\n      dup3\n      add\n      0x00\n      swap1\n      sstore\n      pop\n      pop\n        /* \"mapping.sol\":626:706  function delete_info()public{... */\n      jump\t// out\n        /* \"mapping.sol\":424:616  function set(string memory _name , uint _age , string memory     _add , uint _don) public{... */\n    tag_17:\n        /* \"mapping.sol\":549:605  donar_dts(_name,_age,_add,acc_info[msg.sender].don+_don) */\n      mload(0x40)\n      dup1\n      0x80\n      add\n      0x40\n      mstore\n      dup1\n        /* \"mapping.sol\":559:564  _name */\n      dup6\n        /* \"mapping.sol\":549:605  donar_dts(_name,_age,_add,acc_info[msg.sender].don+_don) */\n      dup2\n      mstore\n      0x20\n      add\n        /* \"mapping.sol\":565:569  _age */\n      dup5\n        /* \"mapping.sol\":549:605  donar_dts(_name,_age,_add,acc_info[msg.sender].don+_don) */\n      dup2\n      mstore\n      0x20\n      add\n        /* \"mapping.sol\":570:574  _add */\n      dup4\n        /* \"mapping.sol\":549:605  donar_dts(_name,_age,_add,acc_info[msg.sender].don+_don) */\n      dup2\n      mstore\n      0x20\n      add\n        /* \"mapping.sol\":600:604  _don */\n      dup3\n        /* \"mapping.sol\":575:583  acc_info */\n      0x00\n        /* \"mapping.sol\":575:595  acc_info[msg.sender] */\n      dup1\n        /* \"mapping.sol\":584:594  msg.sender */\n      caller\n        /* \"mapping.sol\":575:595  acc_info[msg.sender] */\n      0xffffffffffffffffffffffffffffffffffffffff\n      and\n      0xffffffffffffffffffffffffffffffffffffffff\n      and\n      dup2\n      mstore\n      0x20\n      add\n      swap1\n      dup2\n      mstore\n      0x20\n      add\n      0x00\n      keccak256\n        /* \"mapping.sol\":575:599  acc_info[msg.sender].don */\n      0x03\n      add\n      sload\n        /* \"mapping.sol\":575:604  acc_info[msg.sender].don+_don */\n      tag_34\n      swap2\n      swap1\n      tag_35\n      jump\t// in\n    tag_34:\n        /* \"mapping.sol\":549:605  donar_dts(_name,_age,_add,acc_info[msg.sender].don+_don) */\n      dup2\n      mstore\n      pop\n        /* \"mapping.sol\":528:536  acc_info */\n      0x00\n        /* \"mapping.sol\":528:548  acc_info[msg.sender] */\n      dup1\n        /* \"mapping.sol\":537:547  msg.sender */\n      caller\n        /* \"mapping.sol\":528:548  acc_info[msg.sender] */\n      0xffffffffffffffffffffffffffffffffffffffff\n      and\n      0xffffffffffffffffffffffffffffffffffffffff\n      and\n      dup2\n      mstore\n      0x20\n      add\n      swap1\n      dup2\n      mstore\n      0x20\n      add\n      0x00\n      keccak256\n        /* \"mapping.sol\":528:605  acc_info[msg.sender]=donar_dts(_name,_age,_add,acc_info[msg.sender].don+_don) */\n      0x00\n      dup3\n      add\n      mload\n      dup2\n      0x00\n      add\n      swap1\n      dup1\n      mload\n      swap1\n      0x20\n      add\n      swap1\n      tag_36\n      swap3\n      swap2\n      swap1\n      tag_37\n      jump\t// in\n    tag_36:\n      pop\n      0x20\n      dup3\n      add\n      mload\n      dup2\n      0x01\n      add\n      sstore\n      0x40\n      dup3\n      add\n      mload\n      dup2\n      0x02\n      add\n      swap1\n      dup1\n      mload\n      swap1\n      0x20\n      add\n      swap1\n      tag_38\n      swap3\n      swap2\n      swap1\n      tag_37\n      jump\t// in\n    tag_38:\n      pop\n      0x60\n      dup3\n      add\n      mload\n      dup2\n      0x03\n      add\n      sstore\n      swap1\n      pop\n      pop\n        /* \"mapping.sol\":424:616  function set(string memory _name , uint _age , string memory     _add , uint _don) public{... */\n      pop\n      pop\n      pop\n      pop\n      jump\t// out\n    tag_31:\n      pop\n      dup1\n      sload\n      tag_39\n      swap1\n      tag_19\n      jump\t// in\n    tag_39:\n      0x00\n      dup3\n      sstore\n      dup1\n      0x1f\n      lt\n      tag_41\n      jumpi\n      pop\n      jump(tag_40)\n    tag_41:\n      0x1f\n      add\n      0x20\n      swap1\n      div\n      swap1\n      0x00\n      mstore\n      keccak256(0x00, 0x20)\n      swap1\n      dup2\n      add\n      swap1\n      tag_42\n      swap2\n      swap1\n      tag_43\n      jump\t// in\n    tag_42:\n    tag_40:\n      pop\n      jump\t// out\n    tag_37:\n      dup3\n      dup1\n      sload\n      tag_44\n      swap1\n      tag_19\n      jump\t// in\n    tag_44:\n      swap1\n      0x00\n      mstore\n      keccak256(0x00, 0x20)\n      swap1\n      0x1f\n      add\n      0x20\n      swap1\n      div\n      dup2\n      add\n      swap3\n      dup3\n      tag_46\n      jumpi\n      0x00\n      dup6\n      sstore\n      jump(tag_45)\n    tag_46:\n      dup3\n      0x1f\n      lt\n      tag_47\n      jumpi\n      dup1\n      mload\n      not(0xff)\n      and\n      dup4\n      dup1\n      add\n      or\n      dup6\n      sstore\n      jump(tag_45)\n    tag_47:\n      dup3\n      dup1\n      add\n      0x01\n      add\n      dup6\n      sstore\n      dup3\n      iszero\n      tag_45\n      jumpi\n      swap2\n      dup3\n      add\n    tag_48:\n      dup3\n      dup2\n      gt\n      iszero\n      tag_49\n      jumpi\n      dup3\n      mload\n      dup3\n      sstore\n      swap2\n      0x20\n      add\n      swap2\n      swap1\n      0x01\n      add\n      swap1\n      jump(tag_48)\n    tag_49:\n    tag_45:\n      pop\n      swap1\n      pop\n      tag_50\n      swap2\n      swap1\n      tag_43\n      jump\t// in\n    tag_50:\n      pop\n      swap1\n      jump\t// out\n    tag_43:\n    tag_51:\n      dup1\n      dup3\n      gt\n      iszero\n      tag_52\n      jumpi\n      0x00\n      dup2\n      0x00\n      swap1\n      sstore\n      pop\n      0x01\n      add\n      jump(tag_51)\n    tag_52:\n      pop\n      swap1\n      jump\t// out\n        /* \"#utility.yul\":7:419   */\n    tag_54:\n        /* \"#utility.yul\":85:90   */\n      0x00\n        /* \"#utility.yul\":110:176   */\n      tag_56\n        /* \"#utility.yul\":126:175   */\n      tag_57\n        /* \"#utility.yul\":168:174   */\n      dup5\n        /* \"#utility.yul\":126:175   */\n      tag_58\n      jump\t// in\n    tag_57:\n        /* \"#utility.yul\":110:176   */\n      tag_59\n      jump\t// in\n    tag_56:\n        /* \"#utility.yul\":101:176   */\n      swap1\n      pop\n        /* \"#utility.yul\":199:205   */\n      dup3\n        /* \"#utility.yul\":192:197   */\n      dup2\n        /* \"#utility.yul\":185:206   */\n      mstore\n        /* \"#utility.yul\":237:241   */\n      0x20\n        /* \"#utility.yul\":230:235   */\n      dup2\n        /* \"#utility.yul\":226:242   */\n      add\n        /* \"#utility.yul\":275:278   */\n      dup5\n        /* \"#utility.yul\":266:272   */\n      dup5\n        /* \"#utility.yul\":261:264   */\n      dup5\n        /* \"#utility.yul\":257:273   */\n      add\n        /* \"#utility.yul\":254:279   */\n      gt\n        /* \"#utility.yul\":251:363   */\n      iszero\n      tag_60\n      jumpi\n        /* \"#utility.yul\":282:361   */\n      tag_61\n      tag_62\n      jump\t// in\n    tag_61:\n        /* \"#utility.yul\":251:363   */\n    tag_60:\n        /* \"#utility.yul\":372:413   */\n      tag_63\n        /* \"#utility.yul\":406:412   */\n      dup5\n        /* \"#utility.yul\":401:404   */\n      dup3\n        /* \"#utility.yul\":396:399   */\n      dup6\n        /* \"#utility.yul\":372:413   */\n      tag_64\n      jump\t// in\n    tag_63:\n        /* \"#utility.yul\":91:419   */\n      pop\n        /* \"#utility.yul\":7:419   */\n      swap4\n      swap3\n      pop\n      pop\n      pop\n      jump\t// out\n        /* \"#utility.yul\":425:564   */\n    tag_65:\n        /* \"#utility.yul\":471:476   */\n      0x00\n        /* \"#utility.yul\":509:515   */\n      dup2\n        /* \"#utility.yul\":496:516   */\n      calldataload\n        /* \"#utility.yul\":487:516   */\n      swap1\n      pop\n        /* \"#utility.yul\":525:558   */\n      tag_67\n        /* \"#utility.yul\":552:557   */\n      dup2\n        /* \"#utility.yul\":525:558   */\n      tag_68\n      jump\t// in\n    tag_67:\n        /* \"#utility.yul\":425:564   */\n      swap3\n      swap2\n      pop\n      pop\n      jump\t// out\n        /* \"#utility.yul\":584:924   */\n    tag_69:\n        /* \"#utility.yul\":640:645   */\n      0x00\n        /* \"#utility.yul\":689:692   */\n      dup3\n        /* \"#utility.yul\":682:686   */\n      0x1f\n        /* \"#utility.yul\":674:680   */\n      dup4\n        /* \"#utility.yul\":670:687   */\n      add\n        /* \"#utility.yul\":666:693   */\n      slt\n        /* \"#utility.yul\":656:778   */\n      tag_71\n      jumpi\n        /* \"#utility.yul\":697:776   */\n      tag_72\n      tag_73\n      jump\t// in\n    tag_72:\n        /* \"#utility.yul\":656:778   */\n    tag_71:\n        /* \"#utility.yul\":814:820   */\n      dup2\n        /* \"#utility.yul\":801:821   */\n      calldataload\n        /* \"#utility.yul\":839:918   */\n      tag_74\n        /* \"#utility.yul\":914:917   */\n      dup5\n        /* \"#utility.yul\":906:912   */\n      dup3\n        /* \"#utility.yul\":899:903   */\n      0x20\n        /* \"#utility.yul\":891:897   */\n      dup7\n        /* \"#utility.yul\":887:904   */\n      add\n        /* \"#utility.yul\":839:918   */\n      tag_54\n      jump\t// in\n    tag_74:\n        /* \"#utility.yul\":830:918   */\n      swap2\n      pop\n        /* \"#utility.yul\":646:924   */\n      pop\n        /* \"#utility.yul\":584:924   */\n      swap3\n      swap2\n      pop\n      pop\n      jump\t// out\n        /* \"#utility.yul\":930:1069   */\n    tag_75:\n        /* \"#utility.yul\":976:981   */\n      0x00\n        /* \"#utility.yul\":1014:1020   */\n      dup2\n        /* \"#utility.yul\":1001:1021   */\n      calldataload\n        /* \"#utility.yul\":992:1021   */\n      swap1\n      pop\n        /* \"#utility.yul\":1030:1063   */\n      tag_77\n        /* \"#utility.yul\":1057:1062   */\n      dup2\n        /* \"#utility.yul\":1030:1063   */\n      tag_78\n      jump\t// in\n    tag_77:\n        /* \"#utility.yul\":930:1069   */\n      swap3\n      swap2\n      pop\n      pop\n      jump\t// out\n        /* \"#utility.yul\":1075:1404   */\n    tag_8:\n        /* \"#utility.yul\":1134:1140   */\n      0x00\n        /* \"#utility.yul\":1183:1185   */\n      0x20\n        /* \"#utility.yul\":1171:1180   */\n      dup3\n        /* \"#utility.yul\":1162:1169   */\n      dup5\n        /* \"#utility.yul\":1158:1181   */\n      sub\n        /* \"#utility.yul\":1154:1186   */\n      slt\n        /* \"#utility.yul\":1151:1270   */\n      iszero\n      tag_80\n      jumpi\n        /* \"#utility.yul\":1189:1268   */\n      tag_81\n      tag_82\n      jump\t// in\n    tag_81:\n        /* \"#utility.yul\":1151:1270   */\n    tag_80:\n        /* \"#utility.yul\":1309:1310   */\n      0x00\n        /* \"#utility.yul\":1334:1387   */\n      tag_83\n        /* \"#utility.yul\":1379:1386   */\n      dup5\n        /* \"#utility.yul\":1370:1376   */\n      dup3\n        /* \"#utility.yul\":1359:1368   */\n      dup6\n        /* \"#utility.yul\":1355:1377   */\n      add\n        /* \"#utility.yul\":1334:1387   */\n      tag_65\n      jump\t// in\n    tag_83:\n        /* \"#utility.yul\":1324:1387   */\n      swap2\n      pop\n        /* \"#utility.yul\":1280:1397   */\n      pop\n        /* \"#utility.yul\":1075:1404   */\n      swap3\n      swap2\n      pop\n      pop\n      jump\t// out\n        /* \"#utility.yul\":1410:2535   */\n    tag_16:\n        /* \"#utility.yul\":1516:1522   */\n      0x00\n        /* \"#utility.yul\":1524:1530   */\n      dup1\n        /* \"#utility.yul\":1532:1538   */\n      0x00\n        /* \"#utility.yul\":1540:1546   */\n      dup1\n        /* \"#utility.yul\":1589:1592   */\n      0x80\n        /* \"#utility.yul\":1577:1586   */\n      dup6\n        /* \"#utility.yul\":1568:1575   */\n      dup8\n        /* \"#utility.yul\":1564:1587   */\n      sub\n        /* \"#utility.yul\":1560:1593   */\n      slt\n        /* \"#utility.yul\":1557:1677   */\n      iszero\n      tag_85\n      jumpi\n        /* \"#utility.yul\":1596:1675   */\n      tag_86\n      tag_82\n      jump\t// in\n    tag_86:\n        /* \"#utility.yul\":1557:1677   */\n    tag_85:\n        /* \"#utility.yul\":1744:1745   */\n      0x00\n        /* \"#utility.yul\":1733:1742   */\n      dup6\n        /* \"#utility.yul\":1729:1746   */\n      add\n        /* \"#utility.yul\":1716:1747   */\n      calldataload\n        /* \"#utility.yul\":1774:1792   */\n      0xffffffffffffffff\n        /* \"#utility.yul\":1766:1772   */\n      dup2\n        /* \"#utility.yul\":1763:1793   */\n      gt\n        /* \"#utility.yul\":1760:1877   */\n      iszero\n      tag_87\n      jumpi\n        /* \"#utility.yul\":1796:1875   */\n      tag_88\n      tag_89\n      jump\t// in\n    tag_88:\n        /* \"#utility.yul\":1760:1877   */\n    tag_87:\n        /* \"#utility.yul\":1901:1964   */\n      tag_90\n        /* \"#utility.yul\":1956:1963   */\n      dup8\n        /* \"#utility.yul\":1947:1953   */\n      dup3\n        /* \"#utility.yul\":1936:1945   */\n      dup9\n        /* \"#utility.yul\":1932:1954   */\n      add\n        /* \"#utility.yul\":1901:1964   */\n      tag_69\n      jump\t// in\n    tag_90:\n        /* \"#utility.yul\":1891:1964   */\n      swap5\n      pop\n        /* \"#utility.yul\":1687:1974   */\n      pop\n        /* \"#utility.yul\":2013:2015   */\n      0x20\n        /* \"#utility.yul\":2039:2092   */\n      tag_91\n        /* \"#utility.yul\":2084:2091   */\n      dup8\n        /* \"#utility.yul\":2075:2081   */\n      dup3\n        /* \"#utility.yul\":2064:2073   */\n      dup9\n        /* \"#utility.yul\":2060:2082   */\n      add\n        /* \"#utility.yul\":2039:2092   */\n      tag_75\n      jump\t// in\n    tag_91:\n        /* \"#utility.yul\":2029:2092   */\n      swap4\n      pop\n        /* \"#utility.yul\":1984:2102   */\n      pop\n        /* \"#utility.yul\":2169:2171   */\n      0x40\n        /* \"#utility.yul\":2158:2167   */\n      dup6\n        /* \"#utility.yul\":2154:2172   */\n      add\n        /* \"#utility.yul\":2141:2173   */\n      calldataload\n        /* \"#utility.yul\":2200:2218   */\n      0xffffffffffffffff\n        /* \"#utility.yul\":2192:2198   */\n      dup2\n        /* \"#utility.yul\":2189:2219   */\n      gt\n        /* \"#utility.yul\":2186:2303   */\n      iszero\n      tag_92\n      jumpi\n        /* \"#utility.yul\":2222:2301   */\n      tag_93\n      tag_89\n      jump\t// in\n    tag_93:\n        /* \"#utility.yul\":2186:2303   */\n    tag_92:\n        /* \"#utility.yul\":2327:2390   */\n      tag_94\n        /* \"#utility.yul\":2382:2389   */\n      dup8\n        /* \"#utility.yul\":2373:2379   */\n      dup3\n        /* \"#utility.yul\":2362:2371   */\n      dup9\n        /* \"#utility.yul\":2358:2380   */\n      add\n        /* \"#utility.yul\":2327:2390   */\n      tag_69\n      jump\t// in\n    tag_94:\n        /* \"#utility.yul\":2317:2390   */\n      swap3\n      pop\n        /* \"#utility.yul\":2112:2400   */\n      pop\n        /* \"#utility.yul\":2439:2441   */\n      0x60\n        /* \"#utility.yul\":2465:2518   */\n      tag_95\n        /* \"#utility.yul\":2510:2517   */\n      dup8\n        /* \"#utility.yul\":2501:2507   */\n      dup3\n        /* \"#utility.yul\":2490:2499   */\n      dup9\n        /* \"#utility.yul\":2486:2508   */\n      add\n        /* \"#utility.yul\":2465:2518   */\n      tag_75\n      jump\t// in\n    tag_95:\n        /* \"#utility.yul\":2455:2518   */\n      swap2\n      pop\n        /* \"#utility.yul\":2410:2528   */\n      pop\n        /* \"#utility.yul\":1410:2535   */\n      swap3\n      swap6\n      swap2\n      swap5\n      pop\n      swap3\n      pop\n      jump\t// out\n        /* \"#utility.yul\":2541:2905   */\n    tag_96:\n        /* \"#utility.yul\":2629:2632   */\n      0x00\n        /* \"#utility.yul\":2657:2696   */\n      tag_98\n        /* \"#utility.yul\":2690:2695   */\n      dup3\n        /* \"#utility.yul\":2657:2696   */\n      tag_99\n      jump\t// in\n    tag_98:\n        /* \"#utility.yul\":2712:2783   */\n      tag_100\n        /* \"#utility.yul\":2776:2782   */\n      dup2\n        /* \"#utility.yul\":2771:2774   */\n      dup6\n        /* \"#utility.yul\":2712:2783   */\n      tag_101\n      jump\t// in\n    tag_100:\n        /* \"#utility.yul\":2705:2783   */\n      swap4\n      pop\n        /* \"#utility.yul\":2792:2844   */\n      tag_102\n        /* \"#utility.yul\":2837:2843   */\n      dup2\n        /* \"#utility.yul\":2832:2835   */\n      dup6\n        /* \"#utility.yul\":2825:2829   */\n      0x20\n        /* \"#utility.yul\":2818:2823   */\n      dup7\n        /* \"#utility.yul\":2814:2830   */\n      add\n        /* \"#utility.yul\":2792:2844   */\n      tag_103\n      jump\t// in\n    tag_102:\n        /* \"#utility.yul\":2869:2898   */\n      tag_104\n        /* \"#utility.yul\":2891:2897   */\n      dup2\n        /* \"#utility.yul\":2869:2898   */\n      tag_105\n      jump\t// in\n    tag_104:\n        /* \"#utility.yul\":2864:2867   */\n      dup5\n        /* \"#utility.yul\":2860:2899   */\n      add\n        /* \"#utility.yul\":2853:2899   */\n      swap2\n      pop\n        /* \"#utility.yul\":2633:2905   */\n      pop\n        /* \"#utility.yul\":2541:2905   */\n      swap3\n      swap2\n      pop\n      pop\n      jump\t// out\n        /* \"#utility.yul\":2911:3029   */\n    tag_106:\n        /* \"#utility.yul\":2998:3022   */\n      tag_108\n        /* \"#utility.yul\":3016:3021   */\n      dup2\n        /* \"#utility.yul\":2998:3022   */\n      tag_109\n      jump\t// in\n    tag_108:\n        /* \"#utility.yul\":2993:2996   */\n      dup3\n        /* \"#utility.yul\":2986:3023   */\n      mstore\n        /* \"#utility.yul\":2911:3029   */\n      pop\n      pop\n      jump\t// out\n        /* \"#utility.yul\":3035:3770   */\n    tag_11:\n        /* \"#utility.yul\":3252:3256   */\n      0x00\n        /* \"#utility.yul\":3290:3293   */\n      0x80\n        /* \"#utility.yul\":3279:3288   */\n      dup3\n        /* \"#utility.yul\":3275:3294   */\n      add\n        /* \"#utility.yul\":3267:3294   */\n      swap1\n      pop\n        /* \"#utility.yul\":3340:3349   */\n      dup2\n        /* \"#utility.yul\":3334:3338   */\n      dup2\n        /* \"#utility.yul\":3330:3350   */\n      sub\n        /* \"#utility.yul\":3326:3327   */\n      0x00\n        /* \"#utility.yul\":3315:3324   */\n      dup4\n        /* \"#utility.yul\":3311:3328   */\n      add\n        /* \"#utility.yul\":3304:3351   */\n      mstore\n        /* \"#utility.yul\":3368:3446   */\n      tag_111\n        /* \"#utility.yul\":3441:3445   */\n      dup2\n        /* \"#utility.yul\":3432:3438   */\n      dup8\n        /* \"#utility.yul\":3368:3446   */\n      tag_96\n      jump\t// in\n    tag_111:\n        /* \"#utility.yul\":3360:3446   */\n      swap1\n      pop\n        /* \"#utility.yul\":3456:3528   */\n      tag_112\n        /* \"#utility.yul\":3524:3526   */\n      0x20\n        /* \"#utility.yul\":3513:3522   */\n      dup4\n        /* \"#utility.yul\":3509:3527   */\n      add\n        /* \"#utility.yul\":3500:3506   */\n      dup7\n        /* \"#utility.yul\":3456:3528   */\n      tag_106\n      jump\t// in\n    tag_112:\n        /* \"#utility.yul\":3575:3584   */\n      dup2\n        /* \"#utility.yul\":3569:3573   */\n      dup2\n        /* \"#utility.yul\":3565:3585   */\n      sub\n        /* \"#utility.yul\":3560:3562   */\n      0x40\n        /* \"#utility.yul\":3549:3558   */\n      dup4\n        /* \"#utility.yul\":3545:3563   */\n      add\n        /* \"#utility.yul\":3538:3586   */\n      mstore\n        /* \"#utility.yul\":3603:3681   */\n      tag_113\n        /* \"#utility.yul\":3676:3680   */\n      dup2\n        /* \"#utility.yul\":3667:3673   */\n      dup6\n        /* \"#utility.yul\":3603:3681   */\n      tag_96\n      jump\t// in\n    tag_113:\n        /* \"#utility.yul\":3595:3681   */\n      swap1\n      pop\n        /* \"#utility.yul\":3691:3763   */\n      tag_114\n        /* \"#utility.yul\":3759:3761   */\n      0x60\n        /* \"#utility.yul\":3748:3757   */\n      dup4\n        /* \"#utility.yul\":3744:3762   */\n      add\n        /* \"#utility.yul\":3735:3741   */\n      dup5\n        /* \"#utility.yul\":3691:3763   */\n      tag_106\n      jump\t// in\n    tag_114:\n        /* \"#utility.yul\":3035:3770   */\n      swap6\n      swap5\n      pop\n      pop\n      pop\n      pop\n      pop\n      jump\t// out\n        /* \"#utility.yul\":3776:3905   */\n    tag_59:\n        /* \"#utility.yul\":3810:3816   */\n      0x00\n        /* \"#utility.yul\":3837:3857   */\n      tag_116\n      tag_117\n      jump\t// in\n    tag_116:\n        /* \"#utility.yul\":3827:3857   */\n      swap1\n      pop\n        /* \"#utility.yul\":3866:3899   */\n      tag_118\n        /* \"#utility.yul\":3894:3898   */\n      dup3\n        /* \"#utility.yul\":3886:3892   */\n      dup3\n        /* \"#utility.yul\":3866:3899   */\n      tag_119\n      jump\t// in\n    tag_118:\n        /* \"#utility.yul\":3776:3905   */\n      swap2\n      swap1\n      pop\n      jump\t// out\n        /* \"#utility.yul\":3911:3986   */\n    tag_117:\n        /* \"#utility.yul\":3944:3950   */\n      0x00\n        /* \"#utility.yul\":3977:3979   */\n      0x40\n        /* \"#utility.yul\":3971:3980   */\n      mload\n        /* \"#utility.yul\":3961:3980   */\n      swap1\n      pop\n        /* \"#utility.yul\":3911:3986   */\n      swap1\n      jump\t// out\n        /* \"#utility.yul\":3992:4300   */\n    tag_58:\n        /* \"#utility.yul\":4054:4058   */\n      0x00\n        /* \"#utility.yul\":4144:4162   */\n      0xffffffffffffffff\n        /* \"#utility.yul\":4136:4142   */\n      dup3\n        /* \"#utility.yul\":4133:4163   */\n      gt\n        /* \"#utility.yul\":4130:4186   */\n      iszero\n      tag_122\n      jumpi\n        /* \"#utility.yul\":4166:4184   */\n      tag_123\n      tag_124\n      jump\t// in\n    tag_123:\n        /* \"#utility.yul\":4130:4186   */\n    tag_122:\n        /* \"#utility.yul\":4204:4233   */\n      tag_125\n        /* \"#utility.yul\":4226:4232   */\n      dup3\n        /* \"#utility.yul\":4204:4233   */\n      tag_105\n      jump\t// in\n    tag_125:\n        /* \"#utility.yul\":4196:4233   */\n      swap1\n      pop\n        /* \"#utility.yul\":4288:4292   */\n      0x20\n        /* \"#utility.yul\":4282:4286   */\n      dup2\n        /* \"#utility.yul\":4278:4293   */\n      add\n        /* \"#utility.yul\":4270:4293   */\n      swap1\n      pop\n        /* \"#utility.yul\":3992:4300   */\n      swap2\n      swap1\n      pop\n      jump\t// out\n        /* \"#utility.yul\":4306:4405   */\n    tag_99:\n        /* \"#utility.yul\":4358:4364   */\n      0x00\n        /* \"#utility.yul\":4392:4397   */\n      dup2\n        /* \"#utility.yul\":4386:4398   */\n      mload\n        /* \"#utility.yul\":4376:4398   */\n      swap1\n      pop\n        /* \"#utility.yul\":4306:4405   */\n      swap2\n      swap1\n      pop\n      jump\t// out\n        /* \"#utility.yul\":4411:4580   */\n    tag_101:\n        /* \"#utility.yul\":4495:4506   */\n      0x00\n        /* \"#utility.yul\":4529:4535   */\n      dup3\n        /* \"#utility.yul\":4524:4527   */\n      dup3\n        /* \"#utility.yul\":4517:4536   */\n      mstore\n        /* \"#utility.yul\":4569:4573   */\n      0x20\n        /* \"#utility.yul\":4564:4567   */\n      dup3\n        /* \"#utility.yul\":4560:4574   */\n      add\n        /* \"#utility.yul\":4545:4574   */\n      swap1\n      pop\n        /* \"#utility.yul\":4411:4580   */\n      swap3\n      swap2\n      pop\n      pop\n      jump\t// out\n        /* \"#utility.yul\":4586:4891   */\n    tag_35:\n        /* \"#utility.yul\":4626:4629   */\n      0x00\n        /* \"#utility.yul\":4645:4665   */\n      tag_129\n        /* \"#utility.yul\":4663:4664   */\n      dup3\n        /* \"#utility.yul\":4645:4665   */\n      tag_109\n      jump\t// in\n    tag_129:\n        /* \"#utility.yul\":4640:4665   */\n      swap2\n      pop\n        /* \"#utility.yul\":4679:4699   */\n      tag_130\n        /* \"#utility.yul\":4697:4698   */\n      dup4\n        /* \"#utility.yul\":4679:4699   */\n      tag_109\n      jump\t// in\n    tag_130:\n        /* \"#utility.yul\":4674:4699   */\n      swap3\n      pop\n        /* \"#utility.yul\":4833:4834   */\n      dup3\n        /* \"#utility.yul\":4765:4831   */\n      0xffffffffffffffffffffffffffffffffffffffffffffffffffffffffffffffff\n        /* \"#utility.yul\":4761:4835   */\n      sub\n        /* \"#utility.yul\":4758:4759   */\n      dup3\n        /* \"#utility.yul\":4755:4836   */\n      gt\n        /* \"#utility.yul\":4752:4859   */\n      iszero\n      tag_131\n      jumpi\n        /* \"#utility.yul\":4839:4857   */\n      tag_132\n      tag_133\n      jump\t// in\n    tag_132:\n        /* \"#utility.yul\":4752:4859   */\n    tag_131:\n        /* \"#utility.yul\":4883:4884   */\n      dup3\n        /* \"#utility.yul\":4880:4881   */\n      dup3\n        /* \"#utility.yul\":4876:4885   */\n      add\n        /* \"#utility.yul\":4869:4885   */\n      swap1\n      pop\n        /* \"#utility.yul\":4586:4891   */\n      swap3\n      swap2\n      pop\n      pop\n      jump\t// out\n        /* \"#utility.yul\":4897:4993   */\n    tag_134:\n        /* \"#utility.yul\":4934:4941   */\n      0x00\n        /* \"#utility.yul\":4963:4987   */\n      tag_136\n        /* \"#utility.yul\":4981:4986   */\n      dup3\n        /* \"#utility.yul\":4963:4987   */\n      tag_137\n      jump\t// in\n    tag_136:\n        /* \"#utility.yul\":4952:4987   */\n      swap1\n      pop\n        /* \"#utility.yul\":4897:4993   */\n      swap2\n      swap1\n      pop\n      jump\t// out\n        /* \"#utility.yul\":4999:5125   */\n    tag_137:\n        /* \"#utility.yul\":5036:5043   */\n      0x00\n        /* \"#utility.yul\":5076:5118   */\n      0xffffffffffffffffffffffffffffffffffffffff\n        /* \"#utility.yul\":5069:5074   */\n      dup3\n        /* \"#utility.yul\":5065:5119   */\n      and\n        /* \"#utility.yul\":5054:5119   */\n      swap1\n      pop\n        /* \"#utility.yul\":4999:5125   */\n      swap2\n      swap1\n      pop\n      jump\t// out\n        /* \"#utility.yul\":5131:5208   */\n    tag_109:\n        /* \"#utility.yul\":5168:5175   */\n      0x00\n        /* \"#utility.yul\":5197:5202   */\n      dup2\n        /* \"#utility.yul\":5186:5202   */\n      swap1\n      pop\n        /* \"#utility.yul\":5131:5208   */\n      swap2\n      swap1\n      pop\n      jump\t// out\n        /* \"#utility.yul\":5214:5368   */\n    tag_64:\n        /* \"#utility.yul\":5298:5304   */\n      dup3\n        /* \"#utility.yul\":5293:5296   */\n      dup2\n        /* \"#utility.yul\":5288:5291   */\n      dup4\n        /* \"#utility.yul\":5275:5305   */\n      calldatacopy\n        /* \"#utility.yul\":5360:5361   */\n      0x00\n        /* \"#utility.yul\":5351:5357   */\n      dup4\n        /* \"#utility.yul\":5346:5349   */\n      dup4\n        /* \"#utility.yul\":5342:5358   */\n      add\n        /* \"#utility.yul\":5335:5362   */\n      mstore\n        /* \"#utility.yul\":5214:5368   */\n      pop\n      pop\n      pop\n      jump\t// out\n        /* \"#utility.yul\":5374:5681   */\n    tag_103:\n        /* \"#utility.yul\":5442:5443   */\n      0x00\n        /* \"#utility.yul\":5452:5565   */\n    tag_142:\n        /* \"#utility.yul\":5466:5472   */\n      dup4\n        /* \"#utility.yul\":5463:5464   */\n      dup2\n        /* \"#utility.yul\":5460:5473   */\n      lt\n        /* \"#utility.yul\":5452:5565   */\n      iszero\n      tag_144\n      jumpi\n        /* \"#utility.yul\":5551:5552   */\n      dup1\n        /* \"#utility.yul\":5546:5549   */\n      dup3\n        /* \"#utility.yul\":5542:5553   */\n      add\n        /* \"#utility.yul\":5536:5554   */\n      mload\n        /* \"#utility.yul\":5532:5533   */\n      dup2\n        /* \"#utility.yul\":5527:5530   */\n      dup5\n        /* \"#utility.yul\":5523:5534   */\n      add\n        /* \"#utility.yul\":5516:5555   */\n      mstore\n        /* \"#utility.yul\":5488:5490   */\n      0x20\n        /* \"#utility.yul\":5485:5486   */\n      dup2\n        /* \"#utility.yul\":5481:5491   */\n      add\n        /* \"#utility.yul\":5476:5491   */\n      swap1\n      pop\n        /* \"#utility.yul\":5452:5565   */\n      jump(tag_142)\n    tag_144:\n        /* \"#utility.yul\":5583:5589   */\n      dup4\n        /* \"#utility.yul\":5580:5581   */\n      dup2\n        /* \"#utility.yul\":5577:5590   */\n      gt\n        /* \"#utility.yul\":5574:5675   */\n      iszero\n      tag_145\n      jumpi\n        /* \"#utility.yul\":5663:5664   */\n      0x00\n        /* \"#utility.yul\":5654:5660   */\n      dup5\n        /* \"#utility.yul\":5649:5652   */\n      dup5\n        /* \"#utility.yul\":5645:5661   */\n      add\n        /* \"#utility.yul\":5638:5665   */\n      mstore\n        /* \"#utility.yul\":5574:5675   */\n    tag_145:\n        /* \"#utility.yul\":5423:5681   */\n      pop\n        /* \"#utility.yul\":5374:5681   */\n      pop\n      pop\n      pop\n      jump\t// out\n        /* \"#utility.yul\":5687:6007   */\n    tag_19:\n        /* \"#utility.yul\":5731:5737   */\n      0x00\n        /* \"#utility.yul\":5768:5769   */\n      0x02\n        /* \"#utility.yul\":5762:5766   */\n      dup3\n        /* \"#utility.yul\":5758:5770   */\n      div\n        /* \"#utility.yul\":5748:5770   */\n      swap1\n      pop\n        /* \"#utility.yul\":5815:5816   */\n      0x01\n        /* \"#utility.yul\":5809:5813   */\n      dup3\n        /* \"#utility.yul\":5805:5817   */\n      and\n        /* \"#utility.yul\":5836:5854   */\n      dup1\n        /* \"#utility.yul\":5826:5907   */\n      tag_147\n      jumpi\n        /* \"#utility.yul\":5892:5896   */\n      0x7f\n        /* \"#utility.yul\":5884:5890   */\n      dup3\n        /* \"#utility.yul\":5880:5897   */\n      and\n        /* \"#utility.yul\":5870:5897   */\n      swap2\n      pop\n        /* \"#utility.yul\":5826:5907   */\n    tag_147:\n        /* \"#utility.yul\":5954:5956   */\n      0x20\n        /* \"#utility.yul\":5946:5952   */\n      dup3\n        /* \"#utility.yul\":5943:5957   */\n      lt\n        /* \"#utility.yul\":5923:5941   */\n      dup2\n        /* \"#utility.yul\":5920:5958   */\n      eq\n        /* \"#utility.yul\":5917:6001   */\n      iszero\n      tag_148\n      jumpi\n        /* \"#utility.yul\":5973:5991   */\n      tag_149\n      tag_150\n      jump\t// in\n    tag_149:\n        /* \"#utility.yul\":5917:6001   */\n    tag_148:\n        /* \"#utility.yul\":5738:6007   */\n      pop\n        /* \"#utility.yul\":5687:6007   */\n      swap2\n      swap1\n      pop\n      jump\t// out\n        /* \"#utility.yul\":6013:6294   */\n    tag_119:\n        /* \"#utility.yul\":6096:6123   */\n      tag_152\n        /* \"#utility.yul\":6118:6122   */\n      dup3\n        /* \"#utility.yul\":6096:6123   */\n      tag_105\n      jump\t// in\n    tag_152:\n        /* \"#utility.yul\":6088:6094   */\n      dup2\n        /* \"#utility.yul\":6084:6124   */\n      add\n        /* \"#utility.yul\":6226:6232   */\n      dup2\n        /* \"#utility.yul\":6214:6224   */\n      dup2\n        /* \"#utility.yul\":6211:6233   */\n      lt\n        /* \"#utility.yul\":6190:6208   */\n      0xffffffffffffffff\n        /* \"#utility.yul\":6178:6188   */\n      dup3\n        /* \"#utility.yul\":6175:6209   */\n      gt\n        /* \"#utility.yul\":6172:6234   */\n      or\n        /* \"#utility.yul\":6169:6257   */\n      iszero\n      tag_153\n      jumpi\n        /* \"#utility.yul\":6237:6255   */\n      tag_154\n      tag_124\n      jump\t// in\n    tag_154:\n        /* \"#utility.yul\":6169:6257   */\n    tag_153:\n        /* \"#utility.yul\":6277:6287   */\n      dup1\n        /* \"#utility.yul\":6273:6275   */\n      0x40\n        /* \"#utility.yul\":6266:6288   */\n      mstore\n        /* \"#utility.yul\":6056:6294   */\n      pop\n        /* \"#utility.yul\":6013:6294   */\n      pop\n      pop\n      jump\t// out\n        /* \"#utility.yul\":6300:6480   */\n    tag_133:\n        /* \"#utility.yul\":6348:6425   */\n      0x4e487b7100000000000000000000000000000000000000000000000000000000\n        /* \"#utility.yul\":6345:6346   */\n      0x00\n        /* \"#utility.yul\":6338:6426   */\n      mstore\n        /* \"#utility.yul\":6445:6449   */\n      0x11\n        /* \"#utility.yul\":6442:6443   */\n      0x04\n        /* \"#utility.yul\":6435:6450   */\n      mstore\n        /* \"#utility.yul\":6469:6473   */\n      0x24\n        /* \"#utility.yul\":6466:6467   */\n      0x00\n        /* \"#utility.yul\":6459:6474   */\n      revert\n        /* \"#utility.yul\":6486:6666   */\n    tag_150:\n        /* \"#utility.yul\":6534:6611   */\n      0x4e487b7100000000000000000000000000000000000000000000000000000000\n        /* \"#utility.yul\":6531:6532   */\n      0x00\n        /* \"#utility.yul\":6524:6612   */\n      mstore\n        /* \"#utility.yul\":6631:6635   */\n      0x22\n        /* \"#utility.yul\":6628:6629   */\n      0x04\n        /* \"#utility.yul\":6621:6636   */\n      mstore\n        /* \"#utility.yul\":6655:6659   */\n      0x24\n        /* \"#utility.yul\":6652:6653   */\n      0x00\n        /* \"#utility.yul\":6645:6660   */\n      revert\n        /* \"#utility.yul\":6672:6852   */\n    tag_124:\n        /* \"#utility.yul\":6720:6797   */\n      0x4e487b7100000000000000000000000000000000000000000000000000000000\n        /* \"#utility.yul\":6717:6718   */\n      0x00\n        /* \"#utility.yul\":6710:6798   */\n      mstore\n        /* \"#utility.yul\":6817:6821   */\n      0x41\n        /* \"#utility.yul\":6814:6815   */\n      0x04\n        /* \"#utility.yul\":6807:6822   */\n      mstore\n        /* \"#utility.yul\":6841:6845   */\n      0x24\n        /* \"#utility.yul\":6838:6839   */\n      0x00\n        /* \"#utility.yul\":6831:6846   */\n      revert\n        /* \"#utility.yul\":6858:6975   */\n    tag_73:\n        /* \"#utility.yul\":6967:6968   */\n      0x00\n        /* \"#utility.yul\":6964:6965   */\n      dup1\n        /* \"#utility.yul\":6957:6969   */\n      revert\n        /* \"#utility.yul\":6981:7098   */\n    tag_62:\n        /* \"#utility.yul\":7090:7091   */\n      0x00\n        /* \"#utility.yul\":7087:7088   */\n      dup1\n        /* \"#utility.yul\":7080:7092   */\n      revert\n        /* \"#utility.yul\":7104:7221   */\n    tag_89:\n        /* \"#utility.yul\":7213:7214   */\n      0x00\n        /* \"#utility.yul\":7210:7211   */\n      dup1\n        /* \"#utility.yul\":7203:7215   */\n      revert\n        /* \"#utility.yul\":7227:7344   */\n    tag_82:\n        /* \"#utility.yul\":7336:7337   */\n      0x00\n        /* \"#utility.yul\":7333:7334   */\n      dup1\n        /* \"#utility.yul\":7326:7338   */\n      revert\n        /* \"#utility.yul\":7350:7452   */\n    tag_105:\n        /* \"#utility.yul\":7391:7397   */\n      0x00\n        /* \"#utility.yul\":7442:7444   */\n      0x1f\n        /* \"#utility.yul\":7438:7445   */\n      not\n        /* \"#utility.yul\":7433:7435   */\n      0x1f\n        /* \"#utility.yul\":7426:7431   */\n      dup4\n        /* \"#utility.yul\":7422:7436   */\n      add\n        /* \"#utility.yul\":7418:7446   */\n      and\n        /* \"#utility.yul\":7408:7446   */\n      swap1\n      pop\n        /* \"#utility.yul\":7350:7452   */\n      swap2\n      swap1\n      pop\n      jump\t// out\n        /* \"#utility.yul\":7458:7580   */\n    tag_68:\n        /* \"#utility.yul\":7531:7555   */\n      tag_164\n        /* \"#utility.yul\":7549:7554   */\n      dup2\n        /* \"#utility.yul\":7531:7555   */\n      tag_134\n      jump\t// in\n    tag_164:\n        /* \"#utility.yul\":7524:7529   */\n      dup2\n        /* \"#utility.yul\":7521:7556   */\n      eq\n        /* \"#utility.yul\":7511:7574   */\n      tag_165\n      jumpi\n        /* \"#utility.yul\":7570:7571   */\n      0x00\n        /* \"#utility.yul\":7567:7568   */\n      dup1\n        /* \"#utility.yul\":7560:7572   */\n      revert\n        /* \"#utility.yul\":7511:7574   */\n    tag_165:\n        /* \"#utility.yul\":7458:7580   */\n      pop\n      jump\t// out\n        /* \"#utility.yul\":7586:7708   */\n    tag_78:\n        /* \"#utility.yul\":7659:7683   */\n      tag_167\n        /* \"#utility.yul\":7677:7682   */\n      dup2\n        /* \"#utility.yul\":7659:7683   */\n      tag_109\n      jump\t// in\n    tag_167:\n        /* \"#utility.yul\":7652:7657   */\n      dup2\n        /* \"#utility.yul\":7649:7684   */\n      eq\n        /* \"#utility.yul\":7639:7702   */\n      tag_168\n      jumpi\n        /* \"#utility.yul\":7698:7699   */\n      0x00\n        /* \"#utility.yul\":7695:7696   */\n      dup1\n        /* \"#utility.yul\":7688:7700   */\n      revert\n        /* \"#utility.yul\":7639:7702   */\n    tag_168:\n        /* \"#utility.yul\":7586:7708   */\n      pop\n      jump\t// out\n\n    auxdata: 0xa26469706673582212202af7d5444a3035449bd6d9115efdb0d7351459a332f38d6260902869ba7a33fc64736f6c63430008070033\n}\n",
				"bytecode": {
					"linkReferences": {},
					"object": "608060405234801561001057600080fd5b506108f7806100206000396000f3fe608060405234801561001057600080fd5b50600436106100415760003560e01c80630d0d1e2b146100465780632f4864c514610079578063628e48f914610083575b600080fd5b610060600480360381019061005b91906104d1565b61009f565b60405161007094939291906105e5565b60405180910390f35b6100816101df565b005b61009d600480360381019061009891906104fe565b610252565b005b60006020528060005260406000206000915090508060000180546100c29061077e565b80601f01602080910402602001604051908101604052809291908181526020018280546100ee9061077e565b801561013b5780601f106101105761010080835404028352916020019161013b565b820191906000526020600020905b81548152906001019060200180831161011e57829003601f168201915b5050505050908060010154908060020180546101569061077e565b80601f01602080910402602001604051908101604052809291908181526020018280546101829061077e565b80156101cf5780601f106101a4576101008083540402835291602001916101cf565b820191906000526020600020905b8154815290600101906020018083116101b257829003601f168201915b5050505050908060030154905084565b6000803373ffffffffffffffffffffffffffffffffffffffff1673ffffffffffffffffffffffffffffffffffffffff1681526020019081526020016000206000808201600061022e9190610354565b60018201600090556002820160006102469190610354565b60038201600090555050565b6040518060800160405280858152602001848152602001838152602001826000803373ffffffffffffffffffffffffffffffffffffffff1673ffffffffffffffffffffffffffffffffffffffff168152602001908152602001600020600301546102bc91906106aa565b8152506000803373ffffffffffffffffffffffffffffffffffffffff1673ffffffffffffffffffffffffffffffffffffffff1681526020019081526020016000206000820151816000019080519060200190610319929190610394565b50602082015181600101556040820151816002019080519060200190610340929190610394565b506060820151816003015590505050505050565b5080546103609061077e565b6000825580601f106103725750610391565b601f016020900490600052602060002090810190610390919061041a565b5b50565b8280546103a09061077e565b90600052602060002090601f0160209004810192826103c25760008555610409565b82601f106103db57805160ff1916838001178555610409565b82800160010185558215610409579182015b828111156104085782518255916020019190600101906103ed565b5b509050610416919061041a565b5090565b5b8082111561043357600081600090555060010161041b565b5090565b600061044a6104458461065d565b610638565b90508281526020810184848401111561046657610465610873565b5b61047184828561073c565b509392505050565b60008135905061048881610893565b92915050565b600082601f8301126104a3576104a261086e565b5b81356104b3848260208601610437565b91505092915050565b6000813590506104cb816108aa565b92915050565b6000602082840312156104e7576104e661087d565b5b60006104f584828501610479565b91505092915050565b600080600080608085870312156105185761051761087d565b5b600085013567ffffffffffffffff81111561053657610535610878565b5b6105428782880161048e565b9450506020610553878288016104bc565b935050604085013567ffffffffffffffff81111561057457610573610878565b5b6105808782880161048e565b9250506060610591878288016104bc565b91505092959194509250565b60006105a88261068e565b6105b28185610699565b93506105c281856020860161074b565b6105cb81610882565b840191505092915050565b6105df81610732565b82525050565b600060808201905081810360008301526105ff818761059d565b905061060e60208301866105d6565b8181036040830152610620818561059d565b905061062f60608301846105d6565b95945050505050565b6000610642610653565b905061064e82826107b0565b919050565b6000604051905090565b600067ffffffffffffffff8211156106785761067761083f565b5b61068182610882565b9050602081019050919050565b600081519050919050565b600082825260208201905092915050565b60006106b582610732565b91506106c083610732565b9250827fffffffffffffffffffffffffffffffffffffffffffffffffffffffffffffffff038211156106f5576106f46107e1565b5b828201905092915050565b600061070b82610712565b9050919050565b600073ffffffffffffffffffffffffffffffffffffffff82169050919050565b6000819050919050565b82818337600083830152505050565b60005b8381101561076957808201518184015260208101905061074e565b83811115610778576000848401525b50505050565b6000600282049050600182168061079657607f821691505b602082108114156107aa576107a9610810565b5b50919050565b6107b982610882565b810181811067ffffffffffffffff821117156107d8576107d761083f565b5b80604052505050565b7f4e487b7100000000000000000000000000000000000000000000000000000000600052601160045260246000fd5b7f4e487b7100000000000000000000000000000000000000000000000000000000600052602260045260246000fd5b7f4e487b7100000000000000000000000000000000000000000000000000000000600052604160045260246000fd5b600080fd5b600080fd5b600080fd5b600080fd5b6000601f19601f8301169050919050565b61089c81610700565b81146108a757600080fd5b50565b6108b381610732565b81146108be57600080fd5b5056fea26469706673582212202af7d5444a3035449bd6d9115efdb0d7351459a332f38d6260902869ba7a33fc64736f6c63430008070033",
					"opcodes": "PUSH1 0x80 PUSH1 0x40 MSTORE CALLVALUE DUP1 ISZERO PUSH2 0x10 JUMPI PUSH1 0x0 DUP1 REVERT JUMPDEST POP PUSH2 0x8F7 DUP1 PUSH2 0x20 PUSH1 0x0 CODECOPY PUSH1 0x0 RETURN INVALID PUSH1 0x80 PUSH1 0x40 MSTORE CALLVALUE DUP1 ISZERO PUSH2 0x10 JUMPI PUSH1 0x0 DUP1 REVERT JUMPDEST POP PUSH1 0x4 CALLDATASIZE LT PUSH2 0x41 JUMPI PUSH1 0x0 CALLDATALOAD PUSH1 0xE0 SHR DUP1 PUSH4 0xD0D1E2B EQ PUSH2 0x46 JUMPI DUP1 PUSH4 0x2F4864C5 EQ PUSH2 0x79 JUMPI DUP1 PUSH4 0x628E48F9 EQ PUSH2 0x83 JUMPI JUMPDEST PUSH1 0x0 DUP1 REVERT JUMPDEST PUSH2 0x60 PUSH1 0x4 DUP1 CALLDATASIZE SUB DUP2 ADD SWAP1 PUSH2 0x5B SWAP2 SWAP1 PUSH2 0x4D1 JUMP JUMPDEST PUSH2 0x9F JUMP JUMPDEST PUSH1 0x40 MLOAD PUSH2 0x70 SWAP5 SWAP4 SWAP3 SWAP2 SWAP1 PUSH2 0x5E5 JUMP JUMPDEST PUSH1 0x40 MLOAD DUP1 SWAP2 SUB SWAP1 RETURN JUMPDEST PUSH2 0x81 PUSH2 0x1DF JUMP JUMPDEST STOP JUMPDEST PUSH2 0x9D PUSH1 0x4 DUP1 CALLDATASIZE SUB DUP2 ADD SWAP1 PUSH2 0x98 SWAP2 SWAP1 PUSH2 0x4FE JUMP JUMPDEST PUSH2 0x252 JUMP JUMPDEST STOP JUMPDEST PUSH1 0x0 PUSH1 0x20 MSTORE DUP1 PUSH1 0x0 MSTORE PUSH1 0x40 PUSH1 0x0 KECCAK256 PUSH1 0x0 SWAP2 POP SWAP1 POP DUP1 PUSH1 0x0 ADD DUP1 SLOAD PUSH2 0xC2 SWAP1 PUSH2 0x77E JUMP JUMPDEST DUP1 PUSH1 0x1F ADD PUSH1 0x20 DUP1 SWAP2 DIV MUL PUSH1 0x20 ADD PUSH1 0x40 MLOAD SWAP1 DUP2 ADD PUSH1 0x40 MSTORE DUP1 SWAP3 SWAP2 SWAP1 DUP2 DUP2 MSTORE PUSH1 0x20 ADD DUP3 DUP1 SLOAD PUSH2 0xEE SWAP1 PUSH2 0x77E JUMP JUMPDEST DUP1 ISZERO PUSH2 0x13B JUMPI DUP1 PUSH1 0x1F LT PUSH2 0x110 JUMPI PUSH2 0x100 DUP1 DUP4 SLOAD DIV MUL DUP4 MSTORE SWAP2 PUSH1 0x20 ADD SWAP2 PUSH2 0x13B JUMP JUMPDEST DUP3 ADD SWAP2 SWAP1 PUSH1 0x0 MSTORE PUSH1 0x20 PUSH1 0x0 KECCAK256 SWAP1 JUMPDEST DUP2 SLOAD DUP2 MSTORE SWAP1 PUSH1 0x1 ADD SWAP1 PUSH1 0x20 ADD DUP1 DUP4 GT PUSH2 0x11E JUMPI DUP3 SWAP1 SUB PUSH1 0x1F AND DUP3 ADD SWAP2 JUMPDEST POP POP POP POP POP SWAP1 DUP1 PUSH1 0x1 ADD SLOAD SWAP1 DUP1 PUSH1 0x2 ADD DUP1 SLOAD PUSH2 0x156 SWAP1 PUSH2 0x77E JUMP JUMPDEST DUP1 PUSH1 0x1F ADD PUSH1 0x20 DUP1 SWAP2 DIV MUL PUSH1 0x20 ADD PUSH1 0x40 MLOAD SWAP1 DUP2 ADD PUSH1 0x40 MSTORE DUP1 SWAP3 SWAP2 SWAP1 DUP2 DUP2 MSTORE PUSH1 0x20 ADD DUP3 DUP1 SLOAD PUSH2 0x182 SWAP1 PUSH2 0x77E JUMP JUMPDEST DUP1 ISZERO PUSH2 0x1CF JUMPI DUP1 PUSH1 0x1F LT PUSH2 0x1A4 JUMPI PUSH2 0x100 DUP1 DUP4 SLOAD DIV MUL DUP4 MSTORE SWAP2 PUSH1 0x20 ADD SWAP2 PUSH2 0x1CF JUMP JUMPDEST DUP3 ADD SWAP2 SWAP1 PUSH1 0x0 MSTORE PUSH1 0x20 PUSH1 0x0 KECCAK256 SWAP1 JUMPDEST DUP2 SLOAD DUP2 MSTORE SWAP1 PUSH1 0x1 ADD SWAP1 PUSH1 0x20 ADD DUP1 DUP4 GT PUSH2 0x1B2 JUMPI DUP3 SWAP1 SUB PUSH1 0x1F AND DUP3 ADD SWAP2 JUMPDEST POP POP POP POP POP SWAP1 DUP1 PUSH1 0x3 ADD SLOAD SWAP1 POP DUP5 JUMP JUMPDEST PUSH1 0x0 DUP1 CALLER PUSH20 0xFFFFFFFFFFFFFFFFFFFFFFFFFFFFFFFFFFFFFFFF AND PUSH20 0xFFFFFFFFFFFFFFFFFFFFFFFFFFFFFFFFFFFFFFFF AND DUP2 MSTORE PUSH1 0x20 ADD SWAP1 DUP2 MSTORE PUSH1 0x20 ADD PUSH1 0x0 KECCAK256 PUSH1 0x0 DUP1 DUP3 ADD PUSH1 0x0 PUSH2 0x22E SWAP2 SWAP1 PUSH2 0x354 JUMP JUMPDEST PUSH1 0x1 DUP3 ADD PUSH1 0x0 SWAP1 SSTORE PUSH1 0x2 DUP3 ADD PUSH1 0x0 PUSH2 0x246 SWAP2 SWAP1 PUSH2 0x354 JUMP JUMPDEST PUSH1 0x3 DUP3 ADD PUSH1 0x0 SWAP1 SSTORE POP POP JUMP JUMPDEST PUSH1 0x40 MLOAD DUP1 PUSH1 0x80 ADD PUSH1 0x40 MSTORE DUP1 DUP6 DUP2 MSTORE PUSH1 0x20 ADD DUP5 DUP2 MSTORE PUSH1 0x20 ADD DUP4 DUP2 MSTORE PUSH1 0x20 ADD DUP3 PUSH1 0x0 DUP1 CALLER PUSH20 0xFFFFFFFFFFFFFFFFFFFFFFFFFFFFFFFFFFFFFFFF AND PUSH20 0xFFFFFFFFFFFFFFFFFFFFFFFFFFFFFFFFFFFFFFFF AND DUP2 MSTORE PUSH1 0x20 ADD SWAP1 DUP2 MSTORE PUSH1 0x20 ADD PUSH1 0x0 KECCAK256 PUSH1 0x3 ADD SLOAD PUSH2 0x2BC SWAP2 SWAP1 PUSH2 0x6AA JUMP JUMPDEST DUP2 MSTORE POP PUSH1 0x0 DUP1 CALLER PUSH20 0xFFFFFFFFFFFFFFFFFFFFFFFFFFFFFFFFFFFFFFFF AND PUSH20 0xFFFFFFFFFFFFFFFFFFFFFFFFFFFFFFFFFFFFFFFF AND DUP2 MSTORE PUSH1 0x20 ADD SWAP1 DUP2 MSTORE PUSH1 0x20 ADD PUSH1 0x0 KECCAK256 PUSH1 0x0 DUP3 ADD MLOAD DUP2 PUSH1 0x0 ADD SWAP1 DUP1 MLOAD SWAP1 PUSH1 0x20 ADD SWAP1 PUSH2 0x319 SWAP3 SWAP2 SWAP1 PUSH2 0x394 JUMP JUMPDEST POP PUSH1 0x20 DUP3 ADD MLOAD DUP2 PUSH1 0x1 ADD SSTORE PUSH1 0x40 DUP3 ADD MLOAD DUP2 PUSH1 0x2 ADD SWAP1 DUP1 MLOAD SWAP1 PUSH1 0x20 ADD SWAP1 PUSH2 0x340 SWAP3 SWAP2 SWAP1 PUSH2 0x394 JUMP JUMPDEST POP PUSH1 0x60 DUP3 ADD MLOAD DUP2 PUSH1 0x3 ADD SSTORE SWAP1 POP POP POP POP POP POP JUMP JUMPDEST POP DUP1 SLOAD PUSH2 0x360 SWAP1 PUSH2 0x77E JUMP JUMPDEST PUSH1 0x0 DUP3 SSTORE DUP1 PUSH1 0x1F LT PUSH2 0x372 JUMPI POP PUSH2 0x391 JUMP JUMPDEST PUSH1 0x1F ADD PUSH1 0x20 SWAP1 DIV SWAP1 PUSH1 0x0 MSTORE PUSH1 0x20 PUSH1 0x0 KECCAK256 SWAP1 DUP2 ADD SWAP1 PUSH2 0x390 SWAP2 SWAP1 PUSH2 0x41A JUMP JUMPDEST JUMPDEST POP JUMP JUMPDEST DUP3 DUP1 SLOAD PUSH2 0x3A0 SWAP1 PUSH2 0x77E JUMP JUMPDEST SWAP1 PUSH1 0x0 MSTORE PUSH1 0x20 PUSH1 0x0 KECCAK256 SWAP1 PUSH1 0x1F ADD PUSH1 0x20 SWAP1 DIV DUP2 ADD SWAP3 DUP3 PUSH2 0x3C2 JUMPI PUSH1 0x0 DUP6 SSTORE PUSH2 0x409 JUMP JUMPDEST DUP3 PUSH1 0x1F LT PUSH2 0x3DB JUMPI DUP1 MLOAD PUSH1 0xFF NOT AND DUP4 DUP1 ADD OR DUP6 SSTORE PUSH2 0x409 JUMP JUMPDEST DUP3 DUP1 ADD PUSH1 0x1 ADD DUP6 SSTORE DUP3 ISZERO PUSH2 0x409 JUMPI SWAP2 DUP3 ADD JUMPDEST DUP3 DUP2 GT ISZERO PUSH2 0x408 JUMPI DUP3 MLOAD DUP3 SSTORE SWAP2 PUSH1 0x20 ADD SWAP2 SWAP1 PUSH1 0x1 ADD SWAP1 PUSH2 0x3ED JUMP JUMPDEST JUMPDEST POP SWAP1 POP PUSH2 0x416 SWAP2 SWAP1 PUSH2 0x41A JUMP JUMPDEST POP SWAP1 JUMP JUMPDEST JUMPDEST DUP1 DUP3 GT ISZERO PUSH2 0x433 JUMPI PUSH1 0x0 DUP2 PUSH1 0x0 SWAP1 SSTORE POP PUSH1 0x1 ADD PUSH2 0x41B JUMP JUMPDEST POP SWAP1 JUMP JUMPDEST PUSH1 0x0 PUSH2 0x44A PUSH2 0x445 DUP5 PUSH2 0x65D JUMP JUMPDEST PUSH2 0x638 JUMP JUMPDEST SWAP1 POP DUP3 DUP2 MSTORE PUSH1 0x20 DUP2 ADD DUP5 DUP5 DUP5 ADD GT ISZERO PUSH2 0x466 JUMPI PUSH2 0x465 PUSH2 0x873 JUMP JUMPDEST JUMPDEST PUSH2 0x471 DUP5 DUP3 DUP6 PUSH2 0x73C JUMP JUMPDEST POP SWAP4 SWAP3 POP POP POP JUMP JUMPDEST PUSH1 0x0 DUP2 CALLDATALOAD SWAP1 POP PUSH2 0x488 DUP2 PUSH2 0x893 JUMP JUMPDEST SWAP3 SWAP2 POP POP JUMP JUMPDEST PUSH1 0x0 DUP3 PUSH1 0x1F DUP4 ADD SLT PUSH2 0x4A3 JUMPI PUSH2 0x4A2 PUSH2 0x86E JUMP JUMPDEST JUMPDEST DUP2 CALLDATALOAD PUSH2 0x4B3 DUP5 DUP3 PUSH1 0x20 DUP7 ADD PUSH2 0x437 JUMP JUMPDEST SWAP2 POP POP SWAP3 SWAP2 POP POP JUMP JUMPDEST PUSH1 0x0 DUP2 CALLDATALOAD SWAP1 POP PUSH2 0x4CB DUP2 PUSH2 0x8AA JUMP JUMPDEST SWAP3 SWAP2 POP POP JUMP JUMPDEST PUSH1 0x0 PUSH1 0x20 DUP3 DUP5 SUB SLT ISZERO PUSH2 0x4E7 JUMPI PUSH2 0x4E6 PUSH2 0x87D JUMP JUMPDEST JUMPDEST PUSH1 0x0 PUSH2 0x4F5 DUP5 DUP3 DUP6 ADD PUSH2 0x479 JUMP JUMPDEST SWAP2 POP POP SWAP3 SWAP2 POP POP JUMP JUMPDEST PUSH1 0x0 DUP1 PUSH1 0x0 DUP1 PUSH1 0x80 DUP6 DUP8 SUB SLT ISZERO PUSH2 0x518 JUMPI PUSH2 0x517 PUSH2 0x87D JUMP JUMPDEST JUMPDEST PUSH1 0x0 DUP6 ADD CALLDATALOAD PUSH8 0xFFFFFFFFFFFFFFFF DUP2 GT ISZERO PUSH2 0x536 JUMPI PUSH2 0x535 PUSH2 0x878 JUMP JUMPDEST JUMPDEST PUSH2 0x542 DUP8 DUP3 DUP9 ADD PUSH2 0x48E JUMP JUMPDEST SWAP5 POP POP PUSH1 0x20 PUSH2 0x553 DUP8 DUP3 DUP9 ADD PUSH2 0x4BC JUMP JUMPDEST SWAP4 POP POP PUSH1 0x40 DUP6 ADD CALLDATALOAD PUSH8 0xFFFFFFFFFFFFFFFF DUP2 GT ISZERO PUSH2 0x574 JUMPI PUSH2 0x573 PUSH2 0x878 JUMP JUMPDEST JUMPDEST PUSH2 0x580 DUP8 DUP3 DUP9 ADD PUSH2 0x48E JUMP JUMPDEST SWAP3 POP POP PUSH1 0x60 PUSH2 0x591 DUP8 DUP3 DUP9 ADD PUSH2 0x4BC JUMP JUMPDEST SWAP2 POP POP SWAP3 SWAP6 SWAP2 SWAP5 POP SWAP3 POP JUMP JUMPDEST PUSH1 0x0 PUSH2 0x5A8 DUP3 PUSH2 0x68E JUMP JUMPDEST PUSH2 0x5B2 DUP2 DUP6 PUSH2 0x699 JUMP JUMPDEST SWAP4 POP PUSH2 0x5C2 DUP2 DUP6 PUSH1 0x20 DUP7 ADD PUSH2 0x74B JUMP JUMPDEST PUSH2 0x5CB DUP2 PUSH2 0x882 JUMP JUMPDEST DUP5 ADD SWAP2 POP POP SWAP3 SWAP2 POP POP JUMP JUMPDEST PUSH2 0x5DF DUP2 PUSH2 0x732 JUMP JUMPDEST DUP3 MSTORE POP POP JUMP JUMPDEST PUSH1 0x0 PUSH1 0x80 DUP3 ADD SWAP1 POP DUP2 DUP2 SUB PUSH1 0x0 DUP4 ADD MSTORE PUSH2 0x5FF DUP2 DUP8 PUSH2 0x59D JUMP JUMPDEST SWAP1 POP PUSH2 0x60E PUSH1 0x20 DUP4 ADD DUP7 PUSH2 0x5D6 JUMP JUMPDEST DUP2 DUP2 SUB PUSH1 0x40 DUP4 ADD MSTORE PUSH2 0x620 DUP2 DUP6 PUSH2 0x59D JUMP JUMPDEST SWAP1 POP PUSH2 0x62F PUSH1 0x60 DUP4 ADD DUP5 PUSH2 0x5D6 JUMP JUMPDEST SWAP6 SWAP5 POP POP POP POP POP JUMP JUMPDEST PUSH1 0x0 PUSH2 0x642 PUSH2 0x653 JUMP JUMPDEST SWAP1 POP PUSH2 0x64E DUP3 DUP3 PUSH2 0x7B0 JUMP JUMPDEST SWAP2 SWAP1 POP JUMP JUMPDEST PUSH1 0x0 PUSH1 0x40 MLOAD SWAP1 POP SWAP1 JUMP JUMPDEST PUSH1 0x0 PUSH8 0xFFFFFFFFFFFFFFFF DUP3 GT ISZERO PUSH2 0x678 JUMPI PUSH2 0x677 PUSH2 0x83F JUMP JUMPDEST JUMPDEST PUSH2 0x681 DUP3 PUSH2 0x882 JUMP JUMPDEST SWAP1 POP PUSH1 0x20 DUP2 ADD SWAP1 POP SWAP2 SWAP1 POP JUMP JUMPDEST PUSH1 0x0 DUP2 MLOAD SWAP1 POP SWAP2 SWAP1 POP JUMP JUMPDEST PUSH1 0x0 DUP3 DUP3 MSTORE PUSH1 0x20 DUP3 ADD SWAP1 POP SWAP3 SWAP2 POP POP JUMP JUMPDEST PUSH1 0x0 PUSH2 0x6B5 DUP3 PUSH2 0x732 JUMP JUMPDEST SWAP2 POP PUSH2 0x6C0 DUP4 PUSH2 0x732 JUMP JUMPDEST SWAP3 POP DUP3 PUSH32 0xFFFFFFFFFFFFFFFFFFFFFFFFFFFFFFFFFFFFFFFFFFFFFFFFFFFFFFFFFFFFFFFF SUB DUP3 GT ISZERO PUSH2 0x6F5 JUMPI PUSH2 0x6F4 PUSH2 0x7E1 JUMP JUMPDEST JUMPDEST DUP3 DUP3 ADD SWAP1 POP SWAP3 SWAP2 POP POP JUMP JUMPDEST PUSH1 0x0 PUSH2 0x70B DUP3 PUSH2 0x712 JUMP JUMPDEST SWAP1 POP SWAP2 SWAP1 POP JUMP JUMPDEST PUSH1 0x0 PUSH20 0xFFFFFFFFFFFFFFFFFFFFFFFFFFFFFFFFFFFFFFFF DUP3 AND SWAP1 POP SWAP2 SWAP1 POP JUMP JUMPDEST PUSH1 0x0 DUP2 SWAP1 POP SWAP2 SWAP1 POP JUMP JUMPDEST DUP3 DUP2 DUP4 CALLDATACOPY PUSH1 0x0 DUP4 DUP4 ADD MSTORE POP POP POP JUMP JUMPDEST PUSH1 0x0 JUMPDEST DUP4 DUP2 LT ISZERO PUSH2 0x769 JUMPI DUP1 DUP3 ADD MLOAD DUP2 DUP5 ADD MSTORE PUSH1 0x20 DUP2 ADD SWAP1 POP PUSH2 0x74E JUMP JUMPDEST DUP4 DUP2 GT ISZERO PUSH2 0x778 JUMPI PUSH1 0x0 DUP5 DUP5 ADD MSTORE JUMPDEST POP POP POP POP JUMP JUMPDEST PUSH1 0x0 PUSH1 0x2 DUP3 DIV SWAP1 POP PUSH1 0x1 DUP3 AND DUP1 PUSH2 0x796 JUMPI PUSH1 0x7F DUP3 AND SWAP2 POP JUMPDEST PUSH1 0x20 DUP3 LT DUP2 EQ ISZERO PUSH2 0x7AA JUMPI PUSH2 0x7A9 PUSH2 0x810 JUMP JUMPDEST JUMPDEST POP SWAP2 SWAP1 POP JUMP JUMPDEST PUSH2 0x7B9 DUP3 PUSH2 0x882 JUMP JUMPDEST DUP2 ADD DUP2 DUP2 LT PUSH8 0xFFFFFFFFFFFFFFFF DUP3 GT OR ISZERO PUSH2 0x7D8 JUMPI PUSH2 0x7D7 PUSH2 0x83F JUMP JUMPDEST JUMPDEST DUP1 PUSH1 0x40 MSTORE POP POP POP JUMP JUMPDEST PUSH32 0x4E487B7100000000000000000000000000000000000000000000000000000000 PUSH1 0x0 MSTORE PUSH1 0x11 PUSH1 0x4 MSTORE PUSH1 0x24 PUSH1 0x0 REVERT JUMPDEST PUSH32 0x4E487B7100000000000000000000000000000000000000000000000000000000 PUSH1 0x0 MSTORE PUSH1 0x22 PUSH1 0x4 MSTORE PUSH1 0x24 PUSH1 0x0 REVERT JUMPDEST PUSH32 0x4E487B7100000000000000000000000000000000000000000000000000000000 PUSH1 0x0 MSTORE PUSH1 0x41 PUSH1 0x4 MSTORE PUSH1 0x24 PUSH1 0x0 REVERT JUMPDEST PUSH1 0x0 DUP1 REVERT JUMPDEST PUSH1 0x0 DUP1 REVERT JUMPDEST PUSH1 0x0 DUP1 REVERT JUMPDEST PUSH1 0x0 DUP1 REVERT JUMPDEST PUSH1 0x0 PUSH1 0x1F NOT PUSH1 0x1F DUP4 ADD AND SWAP1 POP SWAP2 SWAP1 POP JUMP JUMPDEST PUSH2 0x89C DUP2 PUSH2 0x700 JUMP JUMPDEST DUP2 EQ PUSH2 0x8A7 JUMPI PUSH1 0x0 DUP1 REVERT JUMPDEST POP JUMP JUMPDEST PUSH2 0x8B3 DUP2 PUSH2 0x732 JUMP JUMPDEST DUP2 EQ PUSH2 0x8BE JUMPI PUSH1 0x0 DUP1 REVERT JUMPDEST POP JUMP INVALID LOG2 PUSH5 0x6970667358 0x22 SLT KECCAK256 0x2A 0xF7 0xD5 DIFFICULTY 0x4A ADDRESS CALLDATALOAD DIFFICULTY SWAP12 0xD6 0xD9 GT 0x5E REVERT 0xB0 0xD7 CALLDATALOAD EQ MSIZE LOG3 ORIGIN RETURN DUP14 PUSH3 0x609028 PUSH10 0xBA7A33FC64736F6C6343 STOP ADDMOD SMOD STOP CALLER "
				},
				"gasEstimates": {
					"creation": {
						"codeDepositCost": "459000",
						"executionCost": "493",
						"totalCost": "459493"
					},
					"external": {
						"acc_info(address)": "infinite",
						"delete_info()": "infinite",
						"set(string,uint256,string,uint256)": "infinite"
					}
				},
				"methodIdentifiers": {
					"acc_info(address)": "0d0d1e2b",
					"delete_info()": "2f4864c5",
					"set(string,uint256,string,uint256)": "628e48f9"
				}
			},
			"storageLayout": {
				"storage": [
					{
						"astId": 48,
						"contract": "mapping.sol:advanceMapping",
						"label": "acc_info",
						"offset": 0,
						"slot": "0",
						"type": "t_mapping(t_address,t_struct(donar_dts)43_storage)"
					}
				],
				"types": {
					"t_address": {
						"encoding": "inplace",
						"label": "address",
						"numberOfBytes": "20"
					},
					"t_mapping(t_address,t_struct(donar_dts)43_storage)": {
						"encoding": "mapping",
						"key": "t_address",
						"label": "mapping(address => struct donar_dts)",
						"numberOfBytes": "32",
						"value": "t_struct(donar_dts)43_storage"
					},
					"t_string_storage": {
						"encoding": "bytes",
						"label": "string",
						"numberOfBytes": "32"
					},
					"t_struct(donar_dts)43_storage": {
						"encoding": "inplace",
						"label": "struct donar_dts",
						"members": [
							{
								"astId": 36,
								"contract": "mapping.sol:advanceMapping",
								"label": "name",
								"offset": 0,
								"slot": "0",
								"type": "t_string_storage"
							},
							{
								"astId": 38,
								"contract": "mapping.sol:advanceMapping",
								"label": "age",
								"offset": 0,
								"slot": "1",
								"type": "t_uint256"
							},
							{
								"astId": 40,
								"contract": "mapping.sol:advanceMapping",
								"label": "add",
								"offset": 0,
								"slot": "2",
								"type": "t_string_storage"
							},
							{
								"astId": 42,
								"contract": "mapping.sol:advanceMapping",
								"label": "don",
								"offset": 0,
								"slot": "3",
								"type": "t_uint256"
							}
						],
						"numberOfBytes": "128"
					},
					"t_uint256": {
						"encoding": "inplace",
						"label": "uint256",
						"numberOfBytes": "32"
					}
				}
			},
			"userdoc": {
				"kind": "user",
				"methods": {},
				"version": 1
			}
		}
	}
}