{
	"mapping.sol": {
		"Mapping": {
			"abi": [
				{
					"inputs": [
						{
							"internalType": "uint256",
							"name": "",
							"type": "uint256"
						}
					],
					"name": "empId",
					"outputs": [
						{
							"internalType": "string",
							"name": "",
							"type": "string"
						}
					],
					"stateMutability": "view",
					"type": "function"
				},
				{
					"inputs": [],
					"name": "setIds",
					"outputs": [],
					"stateMutability": "nonpayable",
					"type": "function"
				}
			],
			"devdoc": {
				"kind": "dev",
				"methods": {},
				"version": 1
			},
			"evm": {
				"assembly": "    /* \"mapping.sol\":58:250  contract Mapping{... */\n  mstore(0x40, 0x80)\n  callvalue\n  dup1\n  iszero\n  tag_1\n  jumpi\n  0x00\n  dup1\n  revert\ntag_1:\n  pop\n  dataSize(sub_0)\n  dup1\n  dataOffset(sub_0)\n  0x00\n  codecopy\n  0x00\n  return\nstop\n\nsub_0: assembly {\n        /* \"mapping.sol\":58:250  contract Mapping{... */\n      mstore(0x40, 0x80)\n      callvalue\n      dup1\n      iszero\n      tag_1\n      jumpi\n      0x00\n      dup1\n      revert\n    tag_1:\n      pop\n      jumpi(tag_2, lt(calldatasize, 0x04))\n      shr(0xe0, calldataload(0x00))\n      dup1\n      0x3cc6f28e\n      eq\n      tag_3\n      jumpi\n      dup1\n      0x9b4b9e94\n      eq\n      tag_4\n      jumpi\n    tag_2:\n      0x00\n      dup1\n      revert\n        /* \"mapping.sol\":121:248  function setIds() public{... */\n    tag_3:\n      tag_5\n      tag_6\n      jump\t// in\n    tag_5:\n      stop\n        /* \"mapping.sol\":80:114  mapping(uint=>string) public empId */\n    tag_4:\n      tag_7\n      0x04\n      dup1\n      calldatasize\n      sub\n      dup2\n      add\n      swap1\n      tag_8\n      swap2\n      swap1\n      tag_9\n      jump\t// in\n    tag_8:\n      tag_10\n      jump\t// in\n    tag_7:\n      mload(0x40)\n      tag_11\n      swap2\n      swap1\n      tag_12\n      jump\t// in\n    tag_11:\n      mload(0x40)\n      dup1\n      swap2\n      sub\n      swap1\n      return\n        /* \"mapping.sol\":121:248  function setIds() public{... */\n    tag_6:\n        /* \"mapping.sol\":155:169  empId[31]=\"rj\" */\n      mload(0x40)\n      dup1\n      0x40\n      add\n      0x40\n      mstore\n      dup1\n      0x02\n      dup2\n      mstore\n      0x20\n      add\n      0x726a000000000000000000000000000000000000000000000000000000000000\n      dup2\n      mstore\n      pop\n        /* \"mapping.sol\":155:160  empId */\n      0x00\n        /* \"mapping.sol\":155:164  empId[31] */\n      dup1\n        /* \"mapping.sol\":161:163  31 */\n      0x1f\n        /* \"mapping.sol\":155:164  empId[31] */\n      dup2\n      mstore\n      0x20\n      add\n      swap1\n      dup2\n      mstore\n      0x20\n      add\n      0x00\n      keccak256\n        /* \"mapping.sol\":155:169  empId[31]=\"rj\" */\n      swap1\n      dup1\n      mload\n      swap1\n      0x20\n      add\n      swap1\n      tag_14\n      swap3\n      swap2\n      swap1\n      tag_15\n      jump\t// in\n    tag_14:\n      pop\n        /* \"mapping.sol\":179:193  empId[21]=\"gj\" */\n      mload(0x40)\n      dup1\n      0x40\n      add\n      0x40\n      mstore\n      dup1\n      0x02\n      dup2\n      mstore\n      0x20\n      add\n      0x676a000000000000000000000000000000000000000000000000000000000000\n      dup2\n      mstore\n      pop\n        /* \"mapping.sol\":179:184  empId */\n      0x00\n        /* \"mapping.sol\":179:188  empId[21] */\n      dup1\n        /* \"mapping.sol\":185:187  21 */\n      0x15\n        /* \"mapping.sol\":179:188  empId[21] */\n      dup2\n      mstore\n      0x20\n      add\n      swap1\n      dup2\n      mstore\n      0x20\n      add\n      0x00\n      keccak256\n        /* \"mapping.sol\":179:193  empId[21]=\"gj\" */\n      swap1\n      dup1\n      mload\n      swap1\n      0x20\n      add\n      swap1\n      tag_16\n      swap3\n      swap2\n      swap1\n      tag_15\n      jump\t// in\n    tag_16:\n      pop\n        /* \"mapping.sol\":203:217  empId[11]=\"yj\" */\n      mload(0x40)\n      dup1\n      0x40\n      add\n      0x40\n      mstore\n      dup1\n      0x02\n      dup2\n      mstore\n      0x20\n      add\n      0x796a000000000000000000000000000000000000000000000000000000000000\n      dup2\n      mstore\n      pop\n        /* \"mapping.sol\":203:208  empId */\n      0x00\n        /* \"mapping.sol\":203:212  empId[11] */\n      dup1\n        /* \"mapping.sol\":209:211  11 */\n      0x0b\n        /* \"mapping.sol\":203:212  empId[11] */\n      dup2\n      mstore\n      0x20\n      add\n      swap1\n      dup2\n      mstore\n      0x20\n      add\n      0x00\n      keccak256\n        /* \"mapping.sol\":203:217  empId[11]=\"yj\" */\n      swap1\n      dup1\n      mload\n      swap1\n      0x20\n      add\n      swap1\n      tag_17\n      swap3\n      swap2\n      swap1\n      tag_15\n      jump\t// in\n    tag_17:\n      pop\n        /* \"mapping.sol\":227:240  empId[1]=\"tj\" */\n      mload(0x40)\n      dup1\n      0x40\n      add\n      0x40\n      mstore\n      dup1\n      0x02\n      dup2\n      mstore\n      0x20\n      add\n      0x746a000000000000000000000000000000000000000000000000000000000000\n      dup2\n      mstore\n      pop\n        /* \"mapping.sol\":227:232  empId */\n      0x00\n        /* \"mapping.sol\":227:235  empId[1] */\n      dup1\n        /* \"mapping.sol\":233:234  1 */\n      0x01\n        /* \"mapping.sol\":227:235  empId[1] */\n      dup2\n      mstore\n      0x20\n      add\n      swap1\n      dup2\n      mstore\n      0x20\n      add\n      0x00\n      keccak256\n        /* \"mapping.sol\":227:240  empId[1]=\"tj\" */\n      swap1\n      dup1\n      mload\n      swap1\n      0x20\n      add\n      swap1\n      tag_18\n      swap3\n      swap2\n      swap1\n      tag_15\n      jump\t// in\n    tag_18:\n      pop\n        /* \"mapping.sol\":121:248  function setIds() public{... */\n      jump\t// out\n        /* \"mapping.sol\":80:114  mapping(uint=>string) public empId */\n    tag_10:\n      mstore(0x20, 0x00)\n      dup1\n      0x00\n      mstore\n      keccak256(0x00, 0x40)\n      0x00\n      swap2\n      pop\n      swap1\n      pop\n      dup1\n      sload\n      tag_19\n      swap1\n      tag_20\n      jump\t// in\n    tag_19:\n      dup1\n      0x1f\n      add\n      0x20\n      dup1\n      swap2\n      div\n      mul\n      0x20\n      add\n      mload(0x40)\n      swap1\n      dup2\n      add\n      0x40\n      mstore\n      dup1\n      swap3\n      swap2\n      swap1\n      dup2\n      dup2\n      mstore\n      0x20\n      add\n      dup3\n      dup1\n      sload\n      tag_21\n      swap1\n      tag_20\n      jump\t// in\n    tag_21:\n      dup1\n      iszero\n      tag_22\n      jumpi\n      dup1\n      0x1f\n      lt\n      tag_23\n      jumpi\n      0x0100\n      dup1\n      dup4\n      sload\n      div\n      mul\n      dup4\n      mstore\n      swap2\n      0x20\n      add\n      swap2\n      jump(tag_22)\n    tag_23:\n      dup3\n      add\n      swap2\n      swap1\n      0x00\n      mstore\n      keccak256(0x00, 0x20)\n      swap1\n    tag_24:\n      dup2\n      sload\n      dup2\n      mstore\n      swap1\n      0x01\n      add\n      swap1\n      0x20\n      add\n      dup1\n      dup4\n      gt\n      tag_24\n      jumpi\n      dup3\n      swap1\n      sub\n      0x1f\n      and\n      dup3\n      add\n      swap2\n    tag_22:\n      pop\n      pop\n      pop\n      pop\n      pop\n      dup2\n      jump\t// out\n    tag_15:\n      dup3\n      dup1\n      sload\n      tag_25\n      swap1\n      tag_20\n      jump\t// in\n    tag_25:\n      swap1\n      0x00\n      mstore\n      keccak256(0x00, 0x20)\n      swap1\n      0x1f\n      add\n      0x20\n      swap1\n      div\n      dup2\n      add\n      swap3\n      dup3\n      tag_27\n      jumpi\n      0x00\n      dup6\n      sstore\n      jump(tag_26)\n    tag_27:\n      dup3\n      0x1f\n      lt\n      tag_28\n      jumpi\n      dup1\n      mload\n      not(0xff)\n      and\n      dup4\n      dup1\n      add\n      or\n      dup6\n      sstore\n      jump(tag_26)\n    tag_28:\n      dup3\n      dup1\n      add\n      0x01\n      add\n      dup6\n      sstore\n      dup3\n      iszero\n      tag_26\n      jumpi\n      swap2\n      dup3\n      add\n    tag_29:\n      dup3\n      dup2\n      gt\n      iszero\n      tag_30\n      jumpi\n      dup3\n      mload\n      dup3\n      sstore\n      swap2\n      0x20\n      add\n      swap2\n      swap1\n      0x01\n      add\n      swap1\n      jump(tag_29)\n    tag_30:\n    tag_26:\n      pop\n      swap1\n      pop\n      tag_31\n      swap2\n      swap1\n      tag_32\n      jump\t// in\n    tag_31:\n      pop\n      swap1\n      jump\t// out\n    tag_32:\n    tag_33:\n      dup1\n      dup3\n      gt\n      iszero\n      tag_34\n      jumpi\n      0x00\n      dup2\n      0x00\n      swap1\n      sstore\n      pop\n      0x01\n      add\n      jump(tag_33)\n    tag_34:\n      pop\n      swap1\n      jump\t// out\n        /* \"#utility.yul\":7:146   */\n    tag_36:\n        /* \"#utility.yul\":53:58   */\n      0x00\n        /* \"#utility.yul\":91:97   */\n      dup2\n        /* \"#utility.yul\":78:98   */\n      calldataload\n        /* \"#utility.yul\":69:98   */\n      swap1\n      pop\n        /* \"#utility.yul\":107:140   */\n      tag_38\n        /* \"#utility.yul\":134:139   */\n      dup2\n        /* \"#utility.yul\":107:140   */\n      tag_39\n      jump\t// in\n    tag_38:\n        /* \"#utility.yul\":7:146   */\n      swap3\n      swap2\n      pop\n      pop\n      jump\t// out\n        /* \"#utility.yul\":152:481   */\n    tag_9:\n        /* \"#utility.yul\":211:217   */\n      0x00\n        /* \"#utility.yul\":260:262   */\n      0x20\n        /* \"#utility.yul\":248:257   */\n      dup3\n        /* \"#utility.yul\":239:246   */\n      dup5\n        /* \"#utility.yul\":235:258   */\n      sub\n        /* \"#utility.yul\":231:263   */\n      slt\n        /* \"#utility.yul\":228:347   */\n      iszero\n      tag_41\n      jumpi\n        /* \"#utility.yul\":266:345   */\n      tag_42\n      tag_43\n      jump\t// in\n    tag_42:\n        /* \"#utility.yul\":228:347   */\n    tag_41:\n        /* \"#utility.yul\":386:387   */\n      0x00\n        /* \"#utility.yul\":411:464   */\n      tag_44\n        /* \"#utility.yul\":456:463   */\n      dup5\n        /* \"#utility.yul\":447:453   */\n      dup3\n        /* \"#utility.yul\":436:445   */\n      dup6\n        /* \"#utility.yul\":432:454   */\n      add\n        /* \"#utility.yul\":411:464   */\n      tag_36\n      jump\t// in\n    tag_44:\n        /* \"#utility.yul\":401:464   */\n      swap2\n      pop\n        /* \"#utility.yul\":357:474   */\n      pop\n        /* \"#utility.yul\":152:481   */\n      swap3\n      swap2\n      pop\n      pop\n      jump\t// out\n        /* \"#utility.yul\":487:851   */\n    tag_45:\n        /* \"#utility.yul\":575:578   */\n      0x00\n        /* \"#utility.yul\":603:642   */\n      tag_47\n        /* \"#utility.yul\":636:641   */\n      dup3\n        /* \"#utility.yul\":603:642   */\n      tag_48\n      jump\t// in\n    tag_47:\n        /* \"#utility.yul\":658:729   */\n      tag_49\n        /* \"#utility.yul\":722:728   */\n      dup2\n        /* \"#utility.yul\":717:720   */\n      dup6\n        /* \"#utility.yul\":658:729   */\n      tag_50\n      jump\t// in\n    tag_49:\n        /* \"#utility.yul\":651:729   */\n      swap4\n      pop\n        /* \"#utility.yul\":738:790   */\n      tag_51\n        /* \"#utility.yul\":783:789   */\n      dup2\n        /* \"#utility.yul\":778:781   */\n      dup6\n        /* \"#utility.yul\":771:775   */\n      0x20\n        /* \"#utility.yul\":764:769   */\n      dup7\n        /* \"#utility.yul\":760:776   */\n      add\n        /* \"#utility.yul\":738:790   */\n      tag_52\n      jump\t// in\n    tag_51:\n        /* \"#utility.yul\":815:844   */\n      tag_53\n        /* \"#utility.yul\":837:843   */\n      dup2\n        /* \"#utility.yul\":815:844   */\n      tag_54\n      jump\t// in\n    tag_53:\n        /* \"#utility.yul\":810:813   */\n      dup5\n        /* \"#utility.yul\":806:845   */\n      add\n        /* \"#utility.yul\":799:845   */\n      swap2\n      pop\n        /* \"#utility.yul\":579:851   */\n      pop\n        /* \"#utility.yul\":487:851   */\n      swap3\n      swap2\n      pop\n      pop\n      jump\t// out\n        /* \"#utility.yul\":857:1170   */\n    tag_12:\n        /* \"#utility.yul\":970:974   */\n      0x00\n        /* \"#utility.yul\":1008:1010   */\n      0x20\n        /* \"#utility.yul\":997:1006   */\n      dup3\n        /* \"#utility.yul\":993:1011   */\n      add\n        /* \"#utility.yul\":985:1011   */\n      swap1\n      pop\n        /* \"#utility.yul\":1057:1066   */\n      dup2\n        /* \"#utility.yul\":1051:1055   */\n      dup2\n        /* \"#utility.yul\":1047:1067   */\n      sub\n        /* \"#utility.yul\":1043:1044   */\n      0x00\n        /* \"#utility.yul\":1032:1041   */\n      dup4\n        /* \"#utility.yul\":1028:1045   */\n      add\n        /* \"#utility.yul\":1021:1068   */\n      mstore\n        /* \"#utility.yul\":1085:1163   */\n      tag_56\n        /* \"#utility.yul\":1158:1162   */\n      dup2\n        /* \"#utility.yul\":1149:1155   */\n      dup5\n        /* \"#utility.yul\":1085:1163   */\n      tag_45\n      jump\t// in\n    tag_56:\n        /* \"#utility.yul\":1077:1163   */\n      swap1\n      pop\n        /* \"#utility.yul\":857:1170   */\n      swap3\n      swap2\n      pop\n      pop\n      jump\t// out\n        /* \"#utility.yul\":1257:1356   */\n    tag_48:\n        /* \"#utility.yul\":1309:1315   */\n      0x00\n        /* \"#utility.yul\":1343:1348   */\n      dup2\n        /* \"#utility.yul\":1337:1349   */\n      mload\n        /* \"#utility.yul\":1327:1349   */\n      swap1\n      pop\n        /* \"#utility.yul\":1257:1356   */\n      swap2\n      swap1\n      pop\n      jump\t// out\n        /* \"#utility.yul\":1362:1531   */\n    tag_50:\n        /* \"#utility.yul\":1446:1457   */\n      0x00\n        /* \"#utility.yul\":1480:1486   */\n      dup3\n        /* \"#utility.yul\":1475:1478   */\n      dup3\n        /* \"#utility.yul\":1468:1487   */\n      mstore\n        /* \"#utility.yul\":1520:1524   */\n      0x20\n        /* \"#utility.yul\":1515:1518   */\n      dup3\n        /* \"#utility.yul\":1511:1525   */\n      add\n        /* \"#utility.yul\":1496:1525   */\n      swap1\n      pop\n        /* \"#utility.yul\":1362:1531   */\n      swap3\n      swap2\n      pop\n      pop\n      jump\t// out\n        /* \"#utility.yul\":1537:1614   */\n    tag_61:\n        /* \"#utility.yul\":1574:1581   */\n      0x00\n        /* \"#utility.yul\":1603:1608   */\n      dup2\n        /* \"#utility.yul\":1592:1608   */\n      swap1\n      pop\n        /* \"#utility.yul\":1537:1614   */\n      swap2\n      swap1\n      pop\n      jump\t// out\n        /* \"#utility.yul\":1620:1927   */\n    tag_52:\n        /* \"#utility.yul\":1688:1689   */\n      0x00\n        /* \"#utility.yul\":1698:1811   */\n    tag_64:\n        /* \"#utility.yul\":1712:1718   */\n      dup4\n        /* \"#utility.yul\":1709:1710   */\n      dup2\n        /* \"#utility.yul\":1706:1719   */\n      lt\n        /* \"#utility.yul\":1698:1811   */\n      iszero\n      tag_66\n      jumpi\n        /* \"#utility.yul\":1797:1798   */\n      dup1\n        /* \"#utility.yul\":1792:1795   */\n      dup3\n        /* \"#utility.yul\":1788:1799   */\n      add\n        /* \"#utility.yul\":1782:1800   */\n      mload\n        /* \"#utility.yul\":1778:1779   */\n      dup2\n        /* \"#utility.yul\":1773:1776   */\n      dup5\n        /* \"#utility.yul\":1769:1780   */\n      add\n        /* \"#utility.yul\":1762:1801   */\n      mstore\n        /* \"#utility.yul\":1734:1736   */\n      0x20\n        /* \"#utility.yul\":1731:1732   */\n      dup2\n        /* \"#utility.yul\":1727:1737   */\n      add\n        /* \"#utility.yul\":1722:1737   */\n      swap1\n      pop\n        /* \"#utility.yul\":1698:1811   */\n      jump(tag_64)\n    tag_66:\n        /* \"#utility.yul\":1829:1835   */\n      dup4\n        /* \"#utility.yul\":1826:1827   */\n      dup2\n        /* \"#utility.yul\":1823:1836   */\n      gt\n        /* \"#utility.yul\":1820:1921   */\n      iszero\n      tag_67\n      jumpi\n        /* \"#utility.yul\":1909:1910   */\n      0x00\n        /* \"#utility.yul\":1900:1906   */\n      dup5\n        /* \"#utility.yul\":1895:1898   */\n      dup5\n        /* \"#utility.yul\":1891:1907   */\n      add\n        /* \"#utility.yul\":1884:1911   */\n      mstore\n        /* \"#utility.yul\":1820:1921   */\n    tag_67:\n        /* \"#utility.yul\":1669:1927   */\n      pop\n        /* \"#utility.yul\":1620:1927   */\n      pop\n      pop\n      pop\n      jump\t// out\n        /* \"#utility.yul\":1933:2253   */\n    tag_20:\n        /* \"#utility.yul\":1977:1983   */\n      0x00\n        /* \"#utility.yul\":2014:2015   */\n      0x02\n        /* \"#utility.yul\":2008:2012   */\n      dup3\n        /* \"#utility.yul\":2004:2016   */\n      div\n        /* \"#utility.yul\":1994:2016   */\n      swap1\n      pop\n        /* \"#utility.yul\":2061:2062   */\n      0x01\n        /* \"#utility.yul\":2055:2059   */\n      dup3\n        /* \"#utility.yul\":2051:2063   */\n      and\n        /* \"#utility.yul\":2082:2100   */\n      dup1\n        /* \"#utility.yul\":2072:2153   */\n      tag_69\n      jumpi\n        /* \"#utility.yul\":2138:2142   */\n      0x7f\n        /* \"#utility.yul\":2130:2136   */\n      dup3\n        /* \"#utility.yul\":2126:2143   */\n      and\n        /* \"#utility.yul\":2116:2143   */\n      swap2\n      pop\n        /* \"#utility.yul\":2072:2153   */\n    tag_69:\n        /* \"#utility.yul\":2200:2202   */\n      0x20\n        /* \"#utility.yul\":2192:2198   */\n      dup3\n        /* \"#utility.yul\":2189:2203   */\n      lt\n        /* \"#utility.yul\":2169:2187   */\n      dup2\n        /* \"#utility.yul\":2166:2204   */\n      eq\n        /* \"#utility.yul\":2163:2247   */\n      iszero\n      tag_70\n      jumpi\n        /* \"#utility.yul\":2219:2237   */\n      tag_71\n      tag_72\n      jump\t// in\n    tag_71:\n        /* \"#utility.yul\":2163:2247   */\n    tag_70:\n        /* \"#utility.yul\":1984:2253   */\n      pop\n        /* \"#utility.yul\":1933:2253   */\n      swap2\n      swap1\n      pop\n      jump\t// out\n        /* \"#utility.yul\":2259:2439   */\n    tag_72:\n        /* \"#utility.yul\":2307:2384   */\n      0x4e487b7100000000000000000000000000000000000000000000000000000000\n        /* \"#utility.yul\":2304:2305   */\n      0x00\n        /* \"#utility.yul\":2297:2385   */\n      mstore\n        /* \"#utility.yul\":2404:2408   */\n      0x22\n        /* \"#utility.yul\":2401:2402   */\n      0x04\n        /* \"#utility.yul\":2394:2409   */\n      mstore\n        /* \"#utility.yul\":2428:2432   */\n      0x24\n        /* \"#utility.yul\":2425:2426   */\n      0x00\n        /* \"#utility.yul\":2418:2433   */\n      revert\n        /* \"#utility.yul\":2568:2685   */\n    tag_43:\n        /* \"#utility.yul\":2677:2678   */\n      0x00\n        /* \"#utility.yul\":2674:2675   */\n      dup1\n        /* \"#utility.yul\":2667:2679   */\n      revert\n        /* \"#utility.yul\":2691:2793   */\n    tag_54:\n        /* \"#utility.yul\":2732:2738   */\n      0x00\n        /* \"#utility.yul\":2783:2785   */\n      0x1f\n        /* \"#utility.yul\":2779:2786   */\n      not\n        /* \"#utility.yul\":2774:2776   */\n      0x1f\n        /* \"#utility.yul\":2767:2772   */\n      dup4\n        /* \"#utility.yul\":2763:2777   */\n      add\n        /* \"#utility.yul\":2759:2787   */\n      and\n        /* \"#utility.yul\":2749:2787   */\n      swap1\n      pop\n        /* \"#utility.yul\":2691:2793   */\n      swap2\n      swap1\n      pop\n      jump\t// out\n        /* \"#utility.yul\":2799:2921   */\n    tag_39:\n        /* \"#utility.yul\":2872:2896   */\n      tag_79\n        /* \"#utility.yul\":2890:2895   */\n      dup2\n        /* \"#utility.yul\":2872:2896   */\n      tag_61\n      jump\t// in\n    tag_79:\n        /* \"#utility.yul\":2865:2870   */\n      dup2\n        /* \"#utility.yul\":2862:2897   */\n      eq\n        /* \"#utility.yul\":2852:2915   */\n      tag_80\n      jumpi\n        /* \"#utility.yul\":2911:2912   */\n      0x00\n        /* \"#utility.yul\":2908:2909   */\n      dup1\n        /* \"#utility.yul\":2901:2913   */\n      revert\n        /* \"#utility.yul\":2852:2915   */\n    tag_80:\n        /* \"#utility.yul\":2799:2921   */\n      pop\n      jump\t// out\n\n    auxdata: 0xa2646970667358221220351d1cacca53fd63cfbf590281e1a78b989a7ab92e28183452c2d7b18d57a59a64736f6c63430008070033\n}\n",
				"bytecode": {
					"linkReferences": {},
					"object": "608060405234801561001057600080fd5b506104e8806100206000396000f3fe608060405234801561001057600080fd5b50600436106100365760003560e01c80633cc6f28e1461003b5780639b4b9e9414610045575b600080fd5b610043610075565b005b61005f600480360381019061005a9190610343565b6101eb565b60405161006c91906103a9565b60405180910390f35b6040518060400160405280600281526020017f726a000000000000000000000000000000000000000000000000000000000000815250600080601f815260200190815260200160002090805190602001906100d192919061028b565b506040518060400160405280600281526020017f676a00000000000000000000000000000000000000000000000000000000000081525060008060158152602001908152602001600020908051906020019061012e92919061028b565b506040518060400160405280600281526020017f796a000000000000000000000000000000000000000000000000000000000000815250600080600b8152602001908152602001600020908051906020019061018b92919061028b565b506040518060400160405280600281526020017f746a0000000000000000000000000000000000000000000000000000000000008152506000806001815260200190815260200160002090805190602001906101e892919061028b565b50565b6000602052806000526040600020600091509050805461020a90610424565b80601f016020809104026020016040519081016040528092919081815260200182805461023690610424565b80156102835780601f1061025857610100808354040283529160200191610283565b820191906000526020600020905b81548152906001019060200180831161026657829003601f168201915b505050505081565b82805461029790610424565b90600052602060002090601f0160209004810192826102b95760008555610300565b82601f106102d257805160ff1916838001178555610300565b82800160010185558215610300579182015b828111156102ff5782518255916020019190600101906102e4565b5b50905061030d9190610311565b5090565b5b8082111561032a576000816000905550600101610312565b5090565b60008135905061033d8161049b565b92915050565b60006020828403121561035957610358610485565b5b60006103678482850161032e565b91505092915050565b600061037b826103cb565b61038581856103d6565b93506103958185602086016103f1565b61039e8161048a565b840191505092915050565b600060208201905081810360008301526103c38184610370565b905092915050565b600081519050919050565b600082825260208201905092915050565b6000819050919050565b60005b8381101561040f5780820151818401526020810190506103f4565b8381111561041e576000848401525b50505050565b6000600282049050600182168061043c57607f821691505b602082108114156104505761044f610456565b5b50919050565b7f4e487b7100000000000000000000000000000000000000000000000000000000600052602260045260246000fd5b600080fd5b6000601f19601f8301169050919050565b6104a4816103e7565b81146104af57600080fd5b5056fea2646970667358221220351d1cacca53fd63cfbf590281e1a78b989a7ab92e28183452c2d7b18d57a59a64736f6c63430008070033",
					"opcodes": "PUSH1 0x80 PUSH1 0x40 MSTORE CALLVALUE DUP1 ISZERO PUSH2 0x10 JUMPI PUSH1 0x0 DUP1 REVERT JUMPDEST POP PUSH2 0x4E8 DUP1 PUSH2 0x20 PUSH1 0x0 CODECOPY PUSH1 0x0 RETURN INVALID PUSH1 0x80 PUSH1 0x40 MSTORE CALLVALUE DUP1 ISZERO PUSH2 0x10 JUMPI PUSH1 0x0 DUP1 REVERT JUMPDEST POP PUSH1 0x4 CALLDATASIZE LT PUSH2 0x36 JUMPI PUSH1 0x0 CALLDATALOAD PUSH1 0xE0 SHR DUP1 PUSH4 0x3CC6F28E EQ PUSH2 0x3B JUMPI DUP1 PUSH4 0x9B4B9E94 EQ PUSH2 0x45 JUMPI JUMPDEST PUSH1 0x0 DUP1 REVERT JUMPDEST PUSH2 0x43 PUSH2 0x75 JUMP JUMPDEST STOP JUMPDEST PUSH2 0x5F PUSH1 0x4 DUP1 CALLDATASIZE SUB DUP2 ADD SWAP1 PUSH2 0x5A SWAP2 SWAP1 PUSH2 0x343 JUMP JUMPDEST PUSH2 0x1EB JUMP JUMPDEST PUSH1 0x40 MLOAD PUSH2 0x6C SWAP2 SWAP1 PUSH2 0x3A9 JUMP JUMPDEST PUSH1 0x40 MLOAD DUP1 SWAP2 SUB SWAP1 RETURN JUMPDEST PUSH1 0x40 MLOAD DUP1 PUSH1 0x40 ADD PUSH1 0x40 MSTORE DUP1 PUSH1 0x2 DUP2 MSTORE PUSH1 0x20 ADD PUSH32 0x726A000000000000000000000000000000000000000000000000000000000000 DUP2 MSTORE POP PUSH1 0x0 DUP1 PUSH1 0x1F DUP2 MSTORE PUSH1 0x20 ADD SWAP1 DUP2 MSTORE PUSH1 0x20 ADD PUSH1 0x0 KECCAK256 SWAP1 DUP1 MLOAD SWAP1 PUSH1 0x20 ADD SWAP1 PUSH2 0xD1 SWAP3 SWAP2 SWAP1 PUSH2 0x28B JUMP JUMPDEST POP PUSH1 0x40 MLOAD DUP1 PUSH1 0x40 ADD PUSH1 0x40 MSTORE DUP1 PUSH1 0x2 DUP2 MSTORE PUSH1 0x20 ADD PUSH32 0x676A000000000000000000000000000000000000000000000000000000000000 DUP2 MSTORE POP PUSH1 0x0 DUP1 PUSH1 0x15 DUP2 MSTORE PUSH1 0x20 ADD SWAP1 DUP2 MSTORE PUSH1 0x20 ADD PUSH1 0x0 KECCAK256 SWAP1 DUP1 MLOAD SWAP1 PUSH1 0x20 ADD SWAP1 PUSH2 0x12E SWAP3 SWAP2 SWAP1 PUSH2 0x28B JUMP JUMPDEST POP PUSH1 0x40 MLOAD DUP1 PUSH1 0x40 ADD PUSH1 0x40 MSTORE DUP1 PUSH1 0x2 DUP2 MSTORE PUSH1 0x20 ADD PUSH32 0x796A000000000000000000000000000000000000000000000000000000000000 DUP2 MSTORE POP PUSH1 0x0 DUP1 PUSH1 0xB DUP2 MSTORE PUSH1 0x20 ADD SWAP1 DUP2 MSTORE PUSH1 0x20 ADD PUSH1 0x0 KECCAK256 SWAP1 DUP1 MLOAD SWAP1 PUSH1 0x20 ADD SWAP1 PUSH2 0x18B SWAP3 SWAP2 SWAP1 PUSH2 0x28B JUMP JUMPDEST POP PUSH1 0x40 MLOAD DUP1 PUSH1 0x40 ADD PUSH1 0x40 MSTORE DUP1 PUSH1 0x2 DUP2 MSTORE PUSH1 0x20 ADD PUSH32 0x746A000000000000000000000000000000000000000000000000000000000000 DUP2 MSTORE POP PUSH1 0x0 DUP1 PUSH1 0x1 DUP2 MSTORE PUSH1 0x20 ADD SWAP1 DUP2 MSTORE PUSH1 0x20 ADD PUSH1 0x0 KECCAK256 SWAP1 DUP1 MLOAD SWAP1 PUSH1 0x20 ADD SWAP1 PUSH2 0x1E8 SWAP3 SWAP2 SWAP1 PUSH2 0x28B JUMP JUMPDEST POP JUMP JUMPDEST PUSH1 0x0 PUSH1 0x20 MSTORE DUP1 PUSH1 0x0 MSTORE PUSH1 0x40 PUSH1 0x0 KECCAK256 PUSH1 0x0 SWAP2 POP SWAP1 POP DUP1 SLOAD PUSH2 0x20A SWAP1 PUSH2 0x424 JUMP JUMPDEST DUP1 PUSH1 0x1F ADD PUSH1 0x20 DUP1 SWAP2 DIV MUL PUSH1 0x20 ADD PUSH1 0x40 MLOAD SWAP1 DUP2 ADD PUSH1 0x40 MSTORE DUP1 SWAP3 SWAP2 SWAP1 DUP2 DUP2 MSTORE PUSH1 0x20 ADD DUP3 DUP1 SLOAD PUSH2 0x236 SWAP1 PUSH2 0x424 JUMP JUMPDEST DUP1 ISZERO PUSH2 0x283 JUMPI DUP1 PUSH1 0x1F LT PUSH2 0x258 JUMPI PUSH2 0x100 DUP1 DUP4 SLOAD DIV MUL DUP4 MSTORE SWAP2 PUSH1 0x20 ADD SWAP2 PUSH2 0x283 JUMP JUMPDEST DUP3 ADD SWAP2 SWAP1 PUSH1 0x0 MSTORE PUSH1 0x20 PUSH1 0x0 KECCAK256 SWAP1 JUMPDEST DUP2 SLOAD DUP2 MSTORE SWAP1 PUSH1 0x1 ADD SWAP1 PUSH1 0x20 ADD DUP1 DUP4 GT PUSH2 0x266 JUMPI DUP3 SWAP1 SUB PUSH1 0x1F AND DUP3 ADD SWAP2 JUMPDEST POP POP POP POP POP DUP2 JUMP JUMPDEST DUP3 DUP1 SLOAD PUSH2 0x297 SWAP1 PUSH2 0x424 JUMP JUMPDEST SWAP1 PUSH1 0x0 MSTORE PUSH1 0x20 PUSH1 0x0 KECCAK256 SWAP1 PUSH1 0x1F ADD PUSH1 0x20 SWAP1 DIV DUP2 ADD SWAP3 DUP3 PUSH2 0x2B9 JUMPI PUSH1 0x0 DUP6 SSTORE PUSH2 0x300 JUMP JUMPDEST DUP3 PUSH1 0x1F LT PUSH2 0x2D2 JUMPI DUP1 MLOAD PUSH1 0xFF NOT AND DUP4 DUP1 ADD OR DUP6 SSTORE PUSH2 0x300 JUMP JUMPDEST DUP3 DUP1 ADD PUSH1 0x1 ADD DUP6 SSTORE DUP3 ISZERO PUSH2 0x300 JUMPI SWAP2 DUP3 ADD JUMPDEST DUP3 DUP2 GT ISZERO PUSH2 0x2FF JUMPI DUP3 MLOAD DUP3 SSTORE SWAP2 PUSH1 0x20 ADD SWAP2 SWAP1 PUSH1 0x1 ADD SWAP1 PUSH2 0x2E4 JUMP JUMPDEST JUMPDEST POP SWAP1 POP PUSH2 0x30D SWAP2 SWAP1 PUSH2 0x311 JUMP JUMPDEST POP SWAP1 JUMP JUMPDEST JUMPDEST DUP1 DUP3 GT ISZERO PUSH2 0x32A JUMPI PUSH1 0x0 DUP2 PUSH1 0x0 SWAP1 SSTORE POP PUSH1 0x1 ADD PUSH2 0x312 JUMP JUMPDEST POP SWAP1 JUMP JUMPDEST PUSH1 0x0 DUP2 CALLDATALOAD SWAP1 POP PUSH2 0x33D DUP2 PUSH2 0x49B JUMP JUMPDEST SWAP3 SWAP2 POP POP JUMP JUMPDEST PUSH1 0x0 PUSH1 0x20 DUP3 DUP5 SUB SLT ISZERO PUSH2 0x359 JUMPI PUSH2 0x358 PUSH2 0x485 JUMP JUMPDEST JUMPDEST PUSH1 0x0 PUSH2 0x367 DUP5 DUP3 DUP6 ADD PUSH2 0x32E JUMP JUMPDEST SWAP2 POP POP SWAP3 SWAP2 POP POP JUMP JUMPDEST PUSH1 0x0 PUSH2 0x37B DUP3 PUSH2 0x3CB JUMP JUMPDEST PUSH2 0x385 DUP2 DUP6 PUSH2 0x3D6 JUMP JUMPDEST SWAP4 POP PUSH2 0x395 DUP2 DUP6 PUSH1 0x20 DUP7 ADD PUSH2 0x3F1 JUMP JUMPDEST PUSH2 0x39E DUP2 PUSH2 0x48A JUMP JUMPDEST DUP5 ADD SWAP2 POP POP SWAP3 SWAP2 POP POP JUMP JUMPDEST PUSH1 0x0 PUSH1 0x20 DUP3 ADD SWAP1 POP DUP2 DUP2 SUB PUSH1 0x0 DUP4 ADD MSTORE PUSH2 0x3C3 DUP2 DUP5 PUSH2 0x370 JUMP JUMPDEST SWAP1 POP SWAP3 SWAP2 POP POP JUMP JUMPDEST PUSH1 0x0 DUP2 MLOAD SWAP1 POP SWAP2 SWAP1 POP JUMP JUMPDEST PUSH1 0x0 DUP3 DUP3 MSTORE PUSH1 0x20 DUP3 ADD SWAP1 POP SWAP3 SWAP2 POP POP JUMP JUMPDEST PUSH1 0x0 DUP2 SWAP1 POP SWAP2 SWAP1 POP JUMP JUMPDEST PUSH1 0x0 JUMPDEST DUP4 DUP2 LT ISZERO PUSH2 0x40F JUMPI DUP1 DUP3 ADD MLOAD DUP2 DUP5 ADD MSTORE PUSH1 0x20 DUP2 ADD SWAP1 POP PUSH2 0x3F4 JUMP JUMPDEST DUP4 DUP2 GT ISZERO PUSH2 0x41E JUMPI PUSH1 0x0 DUP5 DUP5 ADD MSTORE JUMPDEST POP POP POP POP JUMP JUMPDEST PUSH1 0x0 PUSH1 0x2 DUP3 DIV SWAP1 POP PUSH1 0x1 DUP3 AND DUP1 PUSH2 0x43C JUMPI PUSH1 0x7F DUP3 AND SWAP2 POP JUMPDEST PUSH1 0x20 DUP3 LT DUP2 EQ ISZERO PUSH2 0x450 JUMPI PUSH2 0x44F PUSH2 0x456 JUMP JUMPDEST JUMPDEST POP SWAP2 SWAP1 POP JUMP JUMPDEST PUSH32 0x4E487B7100000000000000000000000000000000000000000000000000000000 PUSH1 0x0 MSTORE PUSH1 0x22 PUSH1 0x4 MSTORE PUSH1 0x24 PUSH1 0x0 REVERT JUMPDEST PUSH1 0x0 DUP1 REVERT JUMPDEST PUSH1 0x0 PUSH1 0x1F NOT PUSH1 0x1F DUP4 ADD AND SWAP1 POP SWAP2 SWAP1 POP JUMP JUMPDEST PUSH2 0x4A4 DUP2 PUSH2 0x3E7 JUMP JUMPDEST DUP2 EQ PUSH2 0x4AF JUMPI PUSH1 0x0 DUP1 REVERT JUMPDEST POP JUMP INVALID LOG2 PUSH5 0x6970667358 0x22 SLT KECCAK256 CALLDATALOAD SAR SHR 0xAC 0xCA MSTORE8 REVERT PUSH4 0xCFBF5902 DUP2 0xE1 0xA7 DUP12 SWAP9 SWAP11 PUSH27 0xB92E28183452C2D7B18D57A59A64736F6C63430008070033000000 "
				},
				"gasEstimates": {
					"creation": {
						"codeDepositCost": "251200",
						"executionCost": "294",
						"totalCost": "251494"
					},
					"external": {
						"empId(uint256)": "infinite",
						"setIds()": "infinite"
					}
				},
				"methodIdentifiers": {
					"empId(uint256)": "9b4b9e94",
					"setIds()": "3cc6f28e"
				}
			},
			"storageLayout": {
				"storage": [
					{
						"astId": 5,
						"contract": "mapping.sol:Mapping",
						"label": "empId",
						"offset": 0,
						"slot": "0",
						"type": "t_mapping(t_uint256,t_string_storage)"
					}
				],
				"types": {
					"t_mapping(t_uint256,t_string_storage)": {
						"encoding": "mapping",
						"key": "t_uint256",
						"label": "mapping(uint256 => string)",
						"numberOfBytes": "32",
						"value": "t_string_storage"
					},
					"t_string_storage": {
						"encoding": "bytes",
						"label": "string",
						"numberOfBytes": "32"
					},
					"t_uint256": {
						"encoding": "inplace",
						"label": "uint256",
						"numberOfBytes": "32"
					}
				}
			},
			"userdoc": {
				"kind": "user",
				"methods": {},
				"version": 1
			}
		}
	}
}