{
	"constant.sol": {
		"_constant": {
			"abi": [
				{
					"inputs": [],
					"name": "ownerAdd",
					"outputs": [
						{
							"internalType": "address",
							"name": "",
							"type": "address"
						}
					],
					"stateMutability": "view",
					"type": "function"
				},
				{
					"inputs": [],
					"name": "ownerAdd2",
					"outputs": [
						{
							"internalType": "address",
							"name": "",
							"type": "address"
						}
					],
					"stateMutability": "view",
					"type": "function"
				}
			],
			"devdoc": {
				"kind": "dev",
				"methods": {},
				"version": 1
			},
			"evm": {
				"assembly": "    /* \"constant.sol\":60:240  contract _constant{... */\n  mstore(0x40, 0x80)\n    /* \"constant.sol\":195:237  0x5B38Da6a701c568545dCfcB03FcB875f56beddC4 */\n  0x5b38da6a701c568545dcfcb03fcb875f56beddc4\n    /* \"constant.sol\":168:237  address public ownerAdd2 = 0x5B38Da6a701c568545dCfcB03FcB875f56beddC4 */\n  0x00\n  dup1\n  0x0100\n  exp\n  dup2\n  sload\n  dup2\n  0xffffffffffffffffffffffffffffffffffffffff\n  mul\n  not\n  and\n  swap1\n  dup4\n  0xffffffffffffffffffffffffffffffffffffffff\n  and\n  mul\n  or\n  swap1\n  sstore\n  pop\n    /* \"constant.sol\":60:240  contract _constant{... */\n  callvalue\n  dup1\n  iszero\n  tag_1\n  jumpi\n  0x00\n  dup1\n  revert\ntag_1:\n  pop\n  dataSize(sub_0)\n  dup1\n  dataOffset(sub_0)\n  0x00\n  codecopy\n  0x00\n  return\nstop\n\nsub_0: assembly {\n        /* \"constant.sol\":60:240  contract _constant{... */\n      mstore(0x40, 0x80)\n      callvalue\n      dup1\n      iszero\n      tag_1\n      jumpi\n      0x00\n      dup1\n      revert\n    tag_1:\n      pop\n      jumpi(tag_2, lt(calldatasize, 0x04))\n      shr(0xe0, calldataload(0x00))\n      dup1\n      0x7a2d5702\n      eq\n      tag_3\n      jumpi\n      dup1\n      0xd8ce04da\n      eq\n      tag_4\n      jumpi\n    tag_2:\n      0x00\n      dup1\n      revert\n        /* \"constant.sol\":84:161  address public constant ownerAdd = 0x5B38Da6a701c568545dCfcB03FcB875f56beddC4 */\n    tag_3:\n      tag_5\n      tag_6\n      jump\t// in\n    tag_5:\n      mload(0x40)\n      tag_7\n      swap2\n      swap1\n      tag_8\n      jump\t// in\n    tag_7:\n      mload(0x40)\n      dup1\n      swap2\n      sub\n      swap1\n      return\n        /* \"constant.sol\":168:237  address public ownerAdd2 = 0x5B38Da6a701c568545dCfcB03FcB875f56beddC4 */\n    tag_4:\n      tag_9\n      tag_10\n      jump\t// in\n    tag_9:\n      mload(0x40)\n      tag_11\n      swap2\n      swap1\n      tag_8\n      jump\t// in\n    tag_11:\n      mload(0x40)\n      dup1\n      swap2\n      sub\n      swap1\n      return\n        /* \"constant.sol\":84:161  address public constant ownerAdd = 0x5B38Da6a701c568545dCfcB03FcB875f56beddC4 */\n    tag_6:\n        /* \"constant.sol\":119:161  0x5B38Da6a701c568545dCfcB03FcB875f56beddC4 */\n      0x5b38da6a701c568545dcfcb03fcb875f56beddc4\n        /* \"constant.sol\":84:161  address public constant ownerAdd = 0x5B38Da6a701c568545dCfcB03FcB875f56beddC4 */\n      dup2\n      jump\t// out\n        /* \"constant.sol\":168:237  address public ownerAdd2 = 0x5B38Da6a701c568545dCfcB03FcB875f56beddC4 */\n    tag_10:\n      0x00\n      dup1\n      sload\n      swap1\n      0x0100\n      exp\n      swap1\n      div\n      0xffffffffffffffffffffffffffffffffffffffff\n      and\n      dup2\n      jump\t// out\n        /* \"#utility.yul\":7:125   */\n    tag_13:\n        /* \"#utility.yul\":94:118   */\n      tag_15\n        /* \"#utility.yul\":112:117   */\n      dup2\n        /* \"#utility.yul\":94:118   */\n      tag_16\n      jump\t// in\n    tag_15:\n        /* \"#utility.yul\":89:92   */\n      dup3\n        /* \"#utility.yul\":82:119   */\n      mstore\n        /* \"#utility.yul\":7:125   */\n      pop\n      pop\n      jump\t// out\n        /* \"#utility.yul\":131:353   */\n    tag_8:\n        /* \"#utility.yul\":224:228   */\n      0x00\n        /* \"#utility.yul\":262:264   */\n      0x20\n        /* \"#utility.yul\":251:260   */\n      dup3\n        /* \"#utility.yul\":247:265   */\n      add\n        /* \"#utility.yul\":239:265   */\n      swap1\n      pop\n        /* \"#utility.yul\":275:346   */\n      tag_18\n        /* \"#utility.yul\":343:344   */\n      0x00\n        /* \"#utility.yul\":332:341   */\n      dup4\n        /* \"#utility.yul\":328:345   */\n      add\n        /* \"#utility.yul\":319:325   */\n      dup5\n        /* \"#utility.yul\":275:346   */\n      tag_13\n      jump\t// in\n    tag_18:\n        /* \"#utility.yul\":131:353   */\n      swap3\n      swap2\n      pop\n      pop\n      jump\t// out\n        /* \"#utility.yul\":359:455   */\n    tag_16:\n        /* \"#utility.yul\":396:403   */\n      0x00\n        /* \"#utility.yul\":425:449   */\n      tag_20\n        /* \"#utility.yul\":443:448   */\n      dup3\n        /* \"#utility.yul\":425:449   */\n      tag_21\n      jump\t// in\n    tag_20:\n        /* \"#utility.yul\":414:449   */\n      swap1\n      pop\n        /* \"#utility.yul\":359:455   */\n      swap2\n      swap1\n      pop\n      jump\t// out\n        /* \"#utility.yul\":461:587   */\n    tag_21:\n        /* \"#utility.yul\":498:505   */\n      0x00\n        /* \"#utility.yul\":538:580   */\n      0xffffffffffffffffffffffffffffffffffffffff\n        /* \"#utility.yul\":531:536   */\n      dup3\n        /* \"#utility.yul\":527:581   */\n      and\n        /* \"#utility.yul\":516:581   */\n      swap1\n      pop\n        /* \"#utility.yul\":461:587   */\n      swap2\n      swap1\n      pop\n      jump\t// out\n\n    auxdata: 0xa2646970667358221220f01056cbd57a1792c97278b3e71bcb719665b6d23b2b8c3d00cb0d8b730b679164736f6c63430008070033\n}\n",
				"bytecode": {
					"linkReferences": {},
					"object": "6080604052735b38da6a701c568545dcfcb03fcb875f56beddc46000806101000a81548173ffffffffffffffffffffffffffffffffffffffff021916908373ffffffffffffffffffffffffffffffffffffffff16021790555034801561006457600080fd5b50610133806100746000396000f3fe6080604052348015600f57600080fd5b506004361060325760003560e01c80637a2d5702146037578063d8ce04da146051575b600080fd5b603d606b565b6040516048919060b4565b60405180910390f35b60576083565b6040516062919060b4565b60405180910390f35b735b38da6a701c568545dcfcb03fcb875f56beddc481565b60008054906101000a900473ffffffffffffffffffffffffffffffffffffffff1681565b60ae8160cd565b82525050565b600060208201905060c7600083018460a7565b92915050565b600060d68260dd565b9050919050565b600073ffffffffffffffffffffffffffffffffffffffff8216905091905056fea2646970667358221220f01056cbd57a1792c97278b3e71bcb719665b6d23b2b8c3d00cb0d8b730b679164736f6c63430008070033",
					"opcodes": "PUSH1 0x80 PUSH1 0x40 MSTORE PUSH20 0x5B38DA6A701C568545DCFCB03FCB875F56BEDDC4 PUSH1 0x0 DUP1 PUSH2 0x100 EXP DUP2 SLOAD DUP2 PUSH20 0xFFFFFFFFFFFFFFFFFFFFFFFFFFFFFFFFFFFFFFFF MUL NOT AND SWAP1 DUP4 PUSH20 0xFFFFFFFFFFFFFFFFFFFFFFFFFFFFFFFFFFFFFFFF AND MUL OR SWAP1 SSTORE POP CALLVALUE DUP1 ISZERO PUSH2 0x64 JUMPI PUSH1 0x0 DUP1 REVERT JUMPDEST POP PUSH2 0x133 DUP1 PUSH2 0x74 PUSH1 0x0 CODECOPY PUSH1 0x0 RETURN INVALID PUSH1 0x80 PUSH1 0x40 MSTORE CALLVALUE DUP1 ISZERO PUSH1 0xF JUMPI PUSH1 0x0 DUP1 REVERT JUMPDEST POP PUSH1 0x4 CALLDATASIZE LT PUSH1 0x32 JUMPI PUSH1 0x0 CALLDATALOAD PUSH1 0xE0 SHR DUP1 PUSH4 0x7A2D5702 EQ PUSH1 0x37 JUMPI DUP1 PUSH4 0xD8CE04DA EQ PUSH1 0x51 JUMPI JUMPDEST PUSH1 0x0 DUP1 REVERT JUMPDEST PUSH1 0x3D PUSH1 0x6B JUMP JUMPDEST PUSH1 0x40 MLOAD PUSH1 0x48 SWAP2 SWAP1 PUSH1 0xB4 JUMP JUMPDEST PUSH1 0x40 MLOAD DUP1 SWAP2 SUB SWAP1 RETURN JUMPDEST PUSH1 0x57 PUSH1 0x83 JUMP JUMPDEST PUSH1 0x40 MLOAD PUSH1 0x62 SWAP2 SWAP1 PUSH1 0xB4 JUMP JUMPDEST PUSH1 0x40 MLOAD DUP1 SWAP2 SUB SWAP1 RETURN JUMPDEST PUSH20 0x5B38DA6A701C568545DCFCB03FCB875F56BEDDC4 DUP2 JUMP JUMPDEST PUSH1 0x0 DUP1 SLOAD SWAP1 PUSH2 0x100 EXP SWAP1 DIV PUSH20 0xFFFFFFFFFFFFFFFFFFFFFFFFFFFFFFFFFFFFFFFF AND DUP2 JUMP JUMPDEST PUSH1 0xAE DUP2 PUSH1 0xCD JUMP JUMPDEST DUP3 MSTORE POP POP JUMP JUMPDEST PUSH1 0x0 PUSH1 0x20 DUP3 ADD SWAP1 POP PUSH1 0xC7 PUSH1 0x0 DUP4 ADD DUP5 PUSH1 0xA7 JUMP JUMPDEST SWAP3 SWAP2 POP POP JUMP JUMPDEST PUSH1 0x0 PUSH1 0xD6 DUP3 PUSH1 0xDD JUMP JUMPDEST SWAP1 POP SWAP2 SWAP1 POP JUMP JUMPDEST PUSH1 0x0 PUSH20 0xFFFFFFFFFFFFFFFFFFFFFFFFFFFFFFFFFFFFFFFF DUP3 AND SWAP1 POP SWAP2 SWAP1 POP JUMP INVALID LOG2 PUSH5 0x6970667358 0x22 SLT KECCAK256 CREATE LT JUMP 0xCB 0xD5 PUSH27 0x1792C97278B3E71BCB719665B6D23B2B8C3D00CB0D8B730B679164 PUSH20 0x6F6C634300080700330000000000000000000000 "
				},
				"gasEstimates": {
					"creation": {
						"codeDepositCost": "61400",
						"executionCost": "24378",
						"totalCost": "85778"
					},
					"external": {
						"ownerAdd()": "356",
						"ownerAdd2()": "2511"
					}
				},
				"methodIdentifiers": {
					"ownerAdd()": "7a2d5702",
					"ownerAdd2()": "d8ce04da"
				}
			},
			"storageLayout": {
				"storage": [
					{
						"astId": 7,
						"contract": "constant.sol:_constant",
						"label": "ownerAdd2",
						"offset": 0,
						"slot": "0",
						"type": "t_address"
					}
				],
				"types": {
					"t_address": {
						"encoding": "inplace",
						"label": "address",
						"numberOfBytes": "20"
					}
				}
			},
			"userdoc": {
				"kind": "user",
				"methods": {},
				"version": 1
			}
		}
	}
}