{
	"data": {
		"bytecode": {
			"linkReferences": {},
			"object": "608060405234801561001057600080fd5b50604051610769380380610769833981810160405281019061003291906101d6565b8260008190555081600160006101000a81548173ffffffffffffffffffffffffffffffffffffffff021916908373ffffffffffffffffffffffffffffffffffffffff1602179055508060029080519060200190610090929190610099565b5050505061041e565b8280546100a59061030a565b90600052602060002090601f0160209004810192826100c7576000855561010e565b82601f106100e057805160ff191683800117855561010e565b8280016001018555821561010e579182015b8281111561010d5782518255916020019190600101906100f2565b5b50905061011b919061011f565b5090565b5b80821115610138576000816000905550600101610120565b5090565b600061014f61014a8461026a565b610245565b90508281526020810184848401111561016b5761016a6103d0565b5b6101768482856102d7565b509392505050565b60008151905061018d816103f0565b92915050565b600082601f8301126101a8576101a76103cb565b5b81516101b884826020860161013c565b91505092915050565b6000815190506101d081610407565b92915050565b6000806000606084860312156101ef576101ee6103da565b5b60006101fd868287016101c1565b935050602061020e8682870161017e565b925050604084015167ffffffffffffffff81111561022f5761022e6103d5565b5b61023b86828701610193565b9150509250925092565b600061024f610260565b905061025b828261033c565b919050565b6000604051905090565b600067ffffffffffffffff8211156102855761028461039c565b5b61028e826103df565b9050602081019050919050565b60006102a6826102ad565b9050919050565b600073ffffffffffffffffffffffffffffffffffffffff82169050919050565b6000819050919050565b60005b838110156102f55780820151818401526020810190506102da565b83811115610304576000848401525b50505050565b6000600282049050600182168061032257607f821691505b602082108114156103365761033561036d565b5b50919050565b610345826103df565b810181811067ffffffffffffffff821117156103645761036361039c565b5b80604052505050565b7f4e487b7100000000000000000000000000000000000000000000000000000000600052602260045260246000fd5b7f4e487b7100000000000000000000000000000000000000000000000000000000600052604160045260246000fd5b600080fd5b600080fd5b600080fd5b600080fd5b6000601f19601f8301169050919050565b6103f98161029b565b811461040457600080fd5b50565b610410816102cd565b811461041b57600080fd5b50565b61033c8061042d6000396000f3fe608060405234801561001057600080fd5b50600436106100415760003560e01c8063262a9dff146100465780638da5cb5b14610064578063c15bae8414610082575b600080fd5b61004e6100a0565b60405161005b91906101ee565b60405180910390f35b61006c6100a6565b60405161007991906101b1565b60405180910390f35b61008a6100cc565b60405161009791906101cc565b60405180910390f35b60005481565b600160009054906101000a900473ffffffffffffffffffffffffffffffffffffffff1681565b600280546100d990610294565b80601f016020809104026020016040519081016040528092919081815260200182805461010590610294565b80156101525780601f1061012757610100808354040283529160200191610152565b820191906000526020600020905b81548152906001019060200180831161013557829003601f168201915b505050505081565b61016381610225565b82525050565b600061017482610209565b61017e8185610214565b935061018e818560208601610261565b610197816102f5565b840191505092915050565b6101ab81610257565b82525050565b60006020820190506101c6600083018461015a565b92915050565b600060208201905081810360008301526101e68184610169565b905092915050565b600060208201905061020360008301846101a2565b92915050565b600081519050919050565b600082825260208201905092915050565b600061023082610237565b9050919050565b600073ffffffffffffffffffffffffffffffffffffffff82169050919050565b6000819050919050565b60005b8381101561027f578082015181840152602081019050610264565b8381111561028e576000848401525b50505050565b600060028204905060018216806102ac57607f821691505b602082108114156102c0576102bf6102c6565b5b50919050565b7f4e487b7100000000000000000000000000000000000000000000000000000000600052602260045260246000fd5b6000601f19601f830116905091905056fea2646970667358221220b1171f90ca9848161c05ecf9db414632d9e4a3cadfce55c567cb9172a45eeb0164736f6c63430008070033",
			"opcodes": "PUSH1 0x80 PUSH1 0x40 MSTORE CALLVALUE DUP1 ISZERO PUSH2 0x10 JUMPI PUSH1 0x0 DUP1 REVERT JUMPDEST POP PUSH1 0x40 MLOAD PUSH2 0x769 CODESIZE SUB DUP1 PUSH2 0x769 DUP4 CODECOPY DUP2 DUP2 ADD PUSH1 0x40 MSTORE DUP2 ADD SWAP1 PUSH2 0x32 SWAP2 SWAP1 PUSH2 0x1D6 JUMP JUMPDEST DUP3 PUSH1 0x0 DUP2 SWAP1 SSTORE POP DUP2 PUSH1 0x1 PUSH1 0x0 PUSH2 0x100 EXP DUP2 SLOAD DUP2 PUSH20 0xFFFFFFFFFFFFFFFFFFFFFFFFFFFFFFFFFFFFFFFF MUL NOT AND SWAP1 DUP4 PUSH20 0xFFFFFFFFFFFFFFFFFFFFFFFFFFFFFFFFFFFFFFFF AND MUL OR SWAP1 SSTORE POP DUP1 PUSH1 0x2 SWAP1 DUP1 MLOAD SWAP1 PUSH1 0x20 ADD SWAP1 PUSH2 0x90 SWAP3 SWAP2 SWAP1 PUSH2 0x99 JUMP JUMPDEST POP POP POP POP PUSH2 0x41E JUMP JUMPDEST DUP3 DUP1 SLOAD PUSH2 0xA5 SWAP1 PUSH2 0x30A JUMP JUMPDEST SWAP1 PUSH1 0x0 MSTORE PUSH1 0x20 PUSH1 0x0 KECCAK256 SWAP1 PUSH1 0x1F ADD PUSH1 0x20 SWAP1 DIV DUP2 ADD SWAP3 DUP3 PUSH2 0xC7 JUMPI PUSH1 0x0 DUP6 SSTORE PUSH2 0x10E JUMP JUMPDEST DUP3 PUSH1 0x1F LT PUSH2 0xE0 JUMPI DUP1 MLOAD PUSH1 0xFF NOT AND DUP4 DUP1 ADD OR DUP6 SSTORE PUSH2 0x10E JUMP JUMPDEST DUP3 DUP1 ADD PUSH1 0x1 ADD DUP6 SSTORE DUP3 ISZERO PUSH2 0x10E JUMPI SWAP2 DUP3 ADD JUMPDEST DUP3 DUP2 GT ISZERO PUSH2 0x10D JUMPI DUP3 MLOAD DUP3 SSTORE SWAP2 PUSH1 0x20 ADD SWAP2 SWAP1 PUSH1 0x1 ADD SWAP1 PUSH2 0xF2 JUMP JUMPDEST JUMPDEST POP SWAP1 POP PUSH2 0x11B SWAP2 SWAP1 PUSH2 0x11F JUMP JUMPDEST POP SWAP1 JUMP JUMPDEST JUMPDEST DUP1 DUP3 GT ISZERO PUSH2 0x138 JUMPI PUSH1 0x0 DUP2 PUSH1 0x0 SWAP1 SSTORE POP PUSH1 0x1 ADD PUSH2 0x120 JUMP JUMPDEST POP SWAP1 JUMP JUMPDEST PUSH1 0x0 PUSH2 0x14F PUSH2 0x14A DUP5 PUSH2 0x26A JUMP JUMPDEST PUSH2 0x245 JUMP JUMPDEST SWAP1 POP DUP3 DUP2 MSTORE PUSH1 0x20 DUP2 ADD DUP5 DUP5 DUP5 ADD GT ISZERO PUSH2 0x16B JUMPI PUSH2 0x16A PUSH2 0x3D0 JUMP JUMPDEST JUMPDEST PUSH2 0x176 DUP5 DUP3 DUP6 PUSH2 0x2D7 JUMP JUMPDEST POP SWAP4 SWAP3 POP POP POP JUMP JUMPDEST PUSH1 0x0 DUP2 MLOAD SWAP1 POP PUSH2 0x18D DUP2 PUSH2 0x3F0 JUMP JUMPDEST SWAP3 SWAP2 POP POP JUMP JUMPDEST PUSH1 0x0 DUP3 PUSH1 0x1F DUP4 ADD SLT PUSH2 0x1A8 JUMPI PUSH2 0x1A7 PUSH2 0x3CB JUMP JUMPDEST JUMPDEST DUP2 MLOAD PUSH2 0x1B8 DUP5 DUP3 PUSH1 0x20 DUP7 ADD PUSH2 0x13C JUMP JUMPDEST SWAP2 POP POP SWAP3 SWAP2 POP POP JUMP JUMPDEST PUSH1 0x0 DUP2 MLOAD SWAP1 POP PUSH2 0x1D0 DUP2 PUSH2 0x407 JUMP JUMPDEST SWAP3 SWAP2 POP POP JUMP JUMPDEST PUSH1 0x0 DUP1 PUSH1 0x0 PUSH1 0x60 DUP5 DUP7 SUB SLT ISZERO PUSH2 0x1EF JUMPI PUSH2 0x1EE PUSH2 0x3DA JUMP JUMPDEST JUMPDEST PUSH1 0x0 PUSH2 0x1FD DUP7 DUP3 DUP8 ADD PUSH2 0x1C1 JUMP JUMPDEST SWAP4 POP POP PUSH1 0x20 PUSH2 0x20E DUP7 DUP3 DUP8 ADD PUSH2 0x17E JUMP JUMPDEST SWAP3 POP POP PUSH1 0x40 DUP5 ADD MLOAD PUSH8 0xFFFFFFFFFFFFFFFF DUP2 GT ISZERO PUSH2 0x22F JUMPI PUSH2 0x22E PUSH2 0x3D5 JUMP JUMPDEST JUMPDEST PUSH2 0x23B DUP7 DUP3 DUP8 ADD PUSH2 0x193 JUMP JUMPDEST SWAP2 POP POP SWAP3 POP SWAP3 POP SWAP3 JUMP JUMPDEST PUSH1 0x0 PUSH2 0x24F PUSH2 0x260 JUMP JUMPDEST SWAP1 POP PUSH2 0x25B DUP3 DUP3 PUSH2 0x33C JUMP JUMPDEST SWAP2 SWAP1 POP JUMP JUMPDEST PUSH1 0x0 PUSH1 0x40 MLOAD SWAP1 POP SWAP1 JUMP JUMPDEST PUSH1 0x0 PUSH8 0xFFFFFFFFFFFFFFFF DUP3 GT ISZERO PUSH2 0x285 JUMPI PUSH2 0x284 PUSH2 0x39C JUMP JUMPDEST JUMPDEST PUSH2 0x28E DUP3 PUSH2 0x3DF JUMP JUMPDEST SWAP1 POP PUSH1 0x20 DUP2 ADD SWAP1 POP SWAP2 SWAP1 POP JUMP JUMPDEST PUSH1 0x0 PUSH2 0x2A6 DUP3 PUSH2 0x2AD JUMP JUMPDEST SWAP1 POP SWAP2 SWAP1 POP JUMP JUMPDEST PUSH1 0x0 PUSH20 0xFFFFFFFFFFFFFFFFFFFFFFFFFFFFFFFFFFFFFFFF DUP3 AND SWAP1 POP SWAP2 SWAP1 POP JUMP JUMPDEST PUSH1 0x0 DUP2 SWAP1 POP SWAP2 SWAP1 POP JUMP JUMPDEST PUSH1 0x0 JUMPDEST DUP4 DUP2 LT ISZERO PUSH2 0x2F5 JUMPI DUP1 DUP3 ADD MLOAD DUP2 DUP5 ADD MSTORE PUSH1 0x20 DUP2 ADD SWAP1 POP PUSH2 0x2DA JUMP JUMPDEST DUP4 DUP2 GT ISZERO PUSH2 0x304 JUMPI PUSH1 0x0 DUP5 DUP5 ADD MSTORE JUMPDEST POP POP POP POP JUMP JUMPDEST PUSH1 0x0 PUSH1 0x2 DUP3 DIV SWAP1 POP PUSH1 0x1 DUP3 AND DUP1 PUSH2 0x322 JUMPI PUSH1 0x7F DUP3 AND SWAP2 POP JUMPDEST PUSH1 0x20 DUP3 LT DUP2 EQ ISZERO PUSH2 0x336 JUMPI PUSH2 0x335 PUSH2 0x36D JUMP JUMPDEST JUMPDEST POP SWAP2 SWAP1 POP JUMP JUMPDEST PUSH2 0x345 DUP3 PUSH2 0x3DF JUMP JUMPDEST DUP2 ADD DUP2 DUP2 LT PUSH8 0xFFFFFFFFFFFFFFFF DUP3 GT OR ISZERO PUSH2 0x364 JUMPI PUSH2 0x363 PUSH2 0x39C JUMP JUMPDEST JUMPDEST DUP1 PUSH1 0x40 MSTORE POP POP POP JUMP JUMPDEST PUSH32 0x4E487B7100000000000000000000000000000000000000000000000000000000 PUSH1 0x0 MSTORE PUSH1 0x22 PUSH1 0x4 MSTORE PUSH1 0x24 PUSH1 0x0 REVERT JUMPDEST PUSH32 0x4E487B7100000000000000000000000000000000000000000000000000000000 PUSH1 0x0 MSTORE PUSH1 0x41 PUSH1 0x4 MSTORE PUSH1 0x24 PUSH1 0x0 REVERT JUMPDEST PUSH1 0x0 DUP1 REVERT JUMPDEST PUSH1 0x0 DUP1 REVERT JUMPDEST PUSH1 0x0 DUP1 REVERT JUMPDEST PUSH1 0x0 DUP1 REVERT JUMPDEST PUSH1 0x0 PUSH1 0x1F NOT PUSH1 0x1F DUP4 ADD AND SWAP1 POP SWAP2 SWAP1 POP JUMP JUMPDEST PUSH2 0x3F9 DUP2 PUSH2 0x29B JUMP JUMPDEST DUP2 EQ PUSH2 0x404 JUMPI PUSH1 0x0 DUP1 REVERT JUMPDEST POP JUMP JUMPDEST PUSH2 0x410 DUP2 PUSH2 0x2CD JUMP JUMPDEST DUP2 EQ PUSH2 0x41B JUMPI PUSH1 0x0 DUP1 REVERT JUMPDEST POP JUMP JUMPDEST PUSH2 0x33C DUP1 PUSH2 0x42D PUSH1 0x0 CODECOPY PUSH1 0x0 RETURN INVALID PUSH1 0x80 PUSH1 0x40 MSTORE CALLVALUE DUP1 ISZERO PUSH2 0x10 JUMPI PUSH1 0x0 DUP1 REVERT JUMPDEST POP PUSH1 0x4 CALLDATASIZE LT PUSH2 0x41 JUMPI PUSH1 0x0 CALLDATALOAD PUSH1 0xE0 SHR DUP1 PUSH4 0x262A9DFF EQ PUSH2 0x46 JUMPI DUP1 PUSH4 0x8DA5CB5B EQ PUSH2 0x64 JUMPI DUP1 PUSH4 0xC15BAE84 EQ PUSH2 0x82 JUMPI JUMPDEST PUSH1 0x0 DUP1 REVERT JUMPDEST PUSH2 0x4E PUSH2 0xA0 JUMP JUMPDEST PUSH1 0x40 MLOAD PUSH2 0x5B SWAP2 SWAP1 PUSH2 0x1EE JUMP JUMPDEST PUSH1 0x40 MLOAD DUP1 SWAP2 SUB SWAP1 RETURN JUMPDEST PUSH2 0x6C PUSH2 0xA6 JUMP JUMPDEST PUSH1 0x40 MLOAD PUSH2 0x79 SWAP2 SWAP1 PUSH2 0x1B1 JUMP JUMPDEST PUSH1 0x40 MLOAD DUP1 SWAP2 SUB SWAP1 RETURN JUMPDEST PUSH2 0x8A PUSH2 0xCC JUMP JUMPDEST PUSH1 0x40 MLOAD PUSH2 0x97 SWAP2 SWAP1 PUSH2 0x1CC JUMP JUMPDEST PUSH1 0x40 MLOAD DUP1 SWAP2 SUB SWAP1 RETURN JUMPDEST PUSH1 0x0 SLOAD DUP2 JUMP JUMPDEST PUSH1 0x1 PUSH1 0x0 SWAP1 SLOAD SWAP1 PUSH2 0x100 EXP SWAP1 DIV PUSH20 0xFFFFFFFFFFFFFFFFFFFFFFFFFFFFFFFFFFFFFFFF AND DUP2 JUMP JUMPDEST PUSH1 0x2 DUP1 SLOAD PUSH2 0xD9 SWAP1 PUSH2 0x294 JUMP JUMPDEST DUP1 PUSH1 0x1F ADD PUSH1 0x20 DUP1 SWAP2 DIV MUL PUSH1 0x20 ADD PUSH1 0x40 MLOAD SWAP1 DUP2 ADD PUSH1 0x40 MSTORE DUP1 SWAP3 SWAP2 SWAP1 DUP2 DUP2 MSTORE PUSH1 0x20 ADD DUP3 DUP1 SLOAD PUSH2 0x105 SWAP1 PUSH2 0x294 JUMP JUMPDEST DUP1 ISZERO PUSH2 0x152 JUMPI DUP1 PUSH1 0x1F LT PUSH2 0x127 JUMPI PUSH2 0x100 DUP1 DUP4 SLOAD DIV MUL DUP4 MSTORE SWAP2 PUSH1 0x20 ADD SWAP2 PUSH2 0x152 JUMP JUMPDEST DUP3 ADD SWAP2 SWAP1 PUSH1 0x0 MSTORE PUSH1 0x20 PUSH1 0x0 KECCAK256 SWAP1 JUMPDEST DUP2 SLOAD DUP2 MSTORE SWAP1 PUSH1 0x1 ADD SWAP1 PUSH1 0x20 ADD DUP1 DUP4 GT PUSH2 0x135 JUMPI DUP3 SWAP1 SUB PUSH1 0x1F AND DUP3 ADD SWAP2 JUMPDEST POP POP POP POP POP DUP2 JUMP JUMPDEST PUSH2 0x163 DUP2 PUSH2 0x225 JUMP JUMPDEST DUP3 MSTORE POP POP JUMP JUMPDEST PUSH1 0x0 PUSH2 0x174 DUP3 PUSH2 0x209 JUMP JUMPDEST PUSH2 0x17E DUP2 DUP6 PUSH2 0x214 JUMP JUMPDEST SWAP4 POP PUSH2 0x18E DUP2 DUP6 PUSH1 0x20 DUP7 ADD PUSH2 0x261 JUMP JUMPDEST PUSH2 0x197 DUP2 PUSH2 0x2F5 JUMP JUMPDEST DUP5 ADD SWAP2 POP POP SWAP3 SWAP2 POP POP JUMP JUMPDEST PUSH2 0x1AB DUP2 PUSH2 0x257 JUMP JUMPDEST DUP3 MSTORE POP POP JUMP JUMPDEST PUSH1 0x0 PUSH1 0x20 DUP3 ADD SWAP1 POP PUSH2 0x1C6 PUSH1 0x0 DUP4 ADD DUP5 PUSH2 0x15A JUMP JUMPDEST SWAP3 SWAP2 POP POP JUMP JUMPDEST PUSH1 0x0 PUSH1 0x20 DUP3 ADD SWAP1 POP DUP2 DUP2 SUB PUSH1 0x0 DUP4 ADD MSTORE PUSH2 0x1E6 DUP2 DUP5 PUSH2 0x169 JUMP JUMPDEST SWAP1 POP SWAP3 SWAP2 POP POP JUMP JUMPDEST PUSH1 0x0 PUSH1 0x20 DUP3 ADD SWAP1 POP PUSH2 0x203 PUSH1 0x0 DUP4 ADD DUP5 PUSH2 0x1A2 JUMP JUMPDEST SWAP3 SWAP2 POP POP JUMP JUMPDEST PUSH1 0x0 DUP2 MLOAD SWAP1 POP SWAP2 SWAP1 POP JUMP JUMPDEST PUSH1 0x0 DUP3 DUP3 MSTORE PUSH1 0x20 DUP3 ADD SWAP1 POP SWAP3 SWAP2 POP POP JUMP JUMPDEST PUSH1 0x0 PUSH2 0x230 DUP3 PUSH2 0x237 JUMP JUMPDEST SWAP1 POP SWAP2 SWAP1 POP JUMP JUMPDEST PUSH1 0x0 PUSH20 0xFFFFFFFFFFFFFFFFFFFFFFFFFFFFFFFFFFFFFFFF DUP3 AND SWAP1 POP SWAP2 SWAP1 POP JUMP JUMPDEST PUSH1 0x0 DUP2 SWAP1 POP SWAP2 SWAP1 POP JUMP JUMPDEST PUSH1 0x0 JUMPDEST DUP4 DUP2 LT ISZERO PUSH2 0x27F JUMPI DUP1 DUP3 ADD MLOAD DUP2 DUP5 ADD MSTORE PUSH1 0x20 DUP2 ADD SWAP1 POP PUSH2 0x264 JUMP JUMPDEST DUP4 DUP2 GT ISZERO PUSH2 0x28E JUMPI PUSH1 0x0 DUP5 DUP5 ADD MSTORE JUMPDEST POP POP POP POP JUMP JUMPDEST PUSH1 0x0 PUSH1 0x2 DUP3 DIV SWAP1 POP PUSH1 0x1 DUP3 AND DUP1 PUSH2 0x2AC JUMPI PUSH1 0x7F DUP3 AND SWAP2 POP JUMPDEST PUSH1 0x20 DUP3 LT DUP2 EQ ISZERO PUSH2 0x2C0 JUMPI PUSH2 0x2BF PUSH2 0x2C6 JUMP JUMPDEST JUMPDEST POP SWAP2 SWAP1 POP JUMP JUMPDEST PUSH32 0x4E487B7100000000000000000000000000000000000000000000000000000000 PUSH1 0x0 MSTORE PUSH1 0x22 PUSH1 0x4 MSTORE PUSH1 0x24 PUSH1 0x0 REVERT JUMPDEST PUSH1 0x0 PUSH1 0x1F NOT PUSH1 0x1F DUP4 ADD AND SWAP1 POP SWAP2 SWAP1 POP JUMP INVALID LOG2 PUSH5 0x6970667358 0x22 SLT KECCAK256 0xB1 OR 0x1F SWAP1 0xCA SWAP9 BASEFEE AND SHR SDIV 0xEC 0xF9 0xDB COINBASE CHAINID ORIGIN 0xD9 0xE4 LOG3 0xCA 0xDF 0xCE SSTORE 0xC5 PUSH8 0xCB9172A45EEB0164 PUSH20 0x6F6C634300080700330000000000000000000000 "
		},
		"gasEstimates": {
			"creation": {
				"codeDepositCost": "165600",
				"executionCost": "infinite",
				"totalCost": "infinite"
			},
			"external": {
				"age()": "2407",
				"owner()": "2514",
				"str()": "infinite"
			}
		},
		"methodIdentifiers": {
			"age()": "262a9dff",
			"owner()": "8da5cb5b",
			"str()": "c15bae84"
		}
	},
	"abi": [
		{
			"inputs": [
				{
					"internalType": "uint256",
					"name": "_age",
					"type": "uint256"
				},
				{
					"internalType": "address",
					"name": "_owner",
					"type": "address"
				},
				{
					"internalType": "string",
					"name": "_str",
					"type": "string"
				}
			],
			"stateMutability": "nonpayable",
			"type": "constructor"
		},
		{
			"inputs": [],
			"name": "age",
			"outputs": [
				{
					"internalType": "uint256",
					"name": "",
					"type": "uint256"
				}
			],
			"stateMutability": "view",
			"type": "function"
		},
		{
			"inputs": [],
			"name": "owner",
			"outputs": [
				{
					"internalType": "address",
					"name": "",
					"type": "address"
				}
			],
			"stateMutability": "view",
			"type": "function"
		},
		{
			"inputs": [],
			"name": "str",
			"outputs": [
				{
					"internalType": "string",
					"name": "",
					"type": "string"
				}
			],
			"stateMutability": "view",
			"type": "function"
		}
	]
}