{
	"data": {
		"bytecode": {
			"linkReferences": {},
			"object": "608060405234801561001057600080fd5b5061032b806100206000396000f3fe608060405234801561001057600080fd5b506004361061007d5760003560e01c80636df203901161005b5780636df20390146100c6578063779822f7146100d05780637e59301e146100da578063cba59827146100e45761007d565b80632e49d78b146100825780634e69d5601461009e57806358993640146100bc575b600080fd5b61009c60048036038101906100979190610221565b6100ee565b005b6100a661011a565b6040516100b3919061025d565b60405180910390f35b6100c4610130565b005b6100ce61015c565b005b6100d8610188565b005b6100e26101b4565b005b6100ec6101e0565b005b806000806101000a81548160ff021916908360048111156101125761011161029d565b5b021790555050565b60008060009054906101000a900460ff16905090565b60008060006101000a81548160ff021916908360048111156101555761015461029d565b5b0217905550565b60026000806101000a81548160ff021916908360048111156101815761018061029d565b5b0217905550565b60046000806101000a81548160ff021916908360048111156101ad576101ac61029d565b5b0217905550565b60036000806101000a81548160ff021916908360048111156101d9576101d861029d565b5b0217905550565b60016000806101000a81548160ff021916908360048111156102055761020461029d565b5b0217905550565b60008135905061021b816102e5565b92915050565b600060208284031215610237576102366102cc565b5b60006102458482850161020c565b91505092915050565b6102578161028b565b82525050565b6000602082019050610272600083018461024e565b92915050565b6000819050610286826102d1565b919050565b600061029682610278565b9050919050565b7f4e487b7100000000000000000000000000000000000000000000000000000000600052602160045260246000fd5b600080fd5b600581106102e2576102e161029d565b5b50565b600581106102f257600080fd5b5056fea2646970667358221220d0fdd6a2856275be18632f10768d1bf27f292f8a4d365b480d6892534307948d64736f6c63430008070033",
			"opcodes": "PUSH1 0x80 PUSH1 0x40 MSTORE CALLVALUE DUP1 ISZERO PUSH2 0x10 JUMPI PUSH1 0x0 DUP1 REVERT JUMPDEST POP PUSH2 0x32B DUP1 PUSH2 0x20 PUSH1 0x0 CODECOPY PUSH1 0x0 RETURN INVALID PUSH1 0x80 PUSH1 0x40 MSTORE CALLVALUE DUP1 ISZERO PUSH2 0x10 JUMPI PUSH1 0x0 DUP1 REVERT JUMPDEST POP PUSH1 0x4 CALLDATASIZE LT PUSH2 0x7D JUMPI PUSH1 0x0 CALLDATALOAD PUSH1 0xE0 SHR DUP1 PUSH4 0x6DF20390 GT PUSH2 0x5B JUMPI DUP1 PUSH4 0x6DF20390 EQ PUSH2 0xC6 JUMPI DUP1 PUSH4 0x779822F7 EQ PUSH2 0xD0 JUMPI DUP1 PUSH4 0x7E59301E EQ PUSH2 0xDA JUMPI DUP1 PUSH4 0xCBA59827 EQ PUSH2 0xE4 JUMPI PUSH2 0x7D JUMP JUMPDEST DUP1 PUSH4 0x2E49D78B EQ PUSH2 0x82 JUMPI DUP1 PUSH4 0x4E69D560 EQ PUSH2 0x9E JUMPI DUP1 PUSH4 0x58993640 EQ PUSH2 0xBC JUMPI JUMPDEST PUSH1 0x0 DUP1 REVERT JUMPDEST PUSH2 0x9C PUSH1 0x4 DUP1 CALLDATASIZE SUB DUP2 ADD SWAP1 PUSH2 0x97 SWAP2 SWAP1 PUSH2 0x221 JUMP JUMPDEST PUSH2 0xEE JUMP JUMPDEST STOP JUMPDEST PUSH2 0xA6 PUSH2 0x11A JUMP JUMPDEST PUSH1 0x40 MLOAD PUSH2 0xB3 SWAP2 SWAP1 PUSH2 0x25D JUMP JUMPDEST PUSH1 0x40 MLOAD DUP1 SWAP2 SUB SWAP1 RETURN JUMPDEST PUSH2 0xC4 PUSH2 0x130 JUMP JUMPDEST STOP JUMPDEST PUSH2 0xCE PUSH2 0x15C JUMP JUMPDEST STOP JUMPDEST PUSH2 0xD8 PUSH2 0x188 JUMP JUMPDEST STOP JUMPDEST PUSH2 0xE2 PUSH2 0x1B4 JUMP JUMPDEST STOP JUMPDEST PUSH2 0xEC PUSH2 0x1E0 JUMP JUMPDEST STOP JUMPDEST DUP1 PUSH1 0x0 DUP1 PUSH2 0x100 EXP DUP2 SLOAD DUP2 PUSH1 0xFF MUL NOT AND SWAP1 DUP4 PUSH1 0x4 DUP2 GT ISZERO PUSH2 0x112 JUMPI PUSH2 0x111 PUSH2 0x29D JUMP JUMPDEST JUMPDEST MUL OR SWAP1 SSTORE POP POP JUMP JUMPDEST PUSH1 0x0 DUP1 PUSH1 0x0 SWAP1 SLOAD SWAP1 PUSH2 0x100 EXP SWAP1 DIV PUSH1 0xFF AND SWAP1 POP SWAP1 JUMP JUMPDEST PUSH1 0x0 DUP1 PUSH1 0x0 PUSH2 0x100 EXP DUP2 SLOAD DUP2 PUSH1 0xFF MUL NOT AND SWAP1 DUP4 PUSH1 0x4 DUP2 GT ISZERO PUSH2 0x155 JUMPI PUSH2 0x154 PUSH2 0x29D JUMP JUMPDEST JUMPDEST MUL OR SWAP1 SSTORE POP JUMP JUMPDEST PUSH1 0x2 PUSH1 0x0 DUP1 PUSH2 0x100 EXP DUP2 SLOAD DUP2 PUSH1 0xFF MUL NOT AND SWAP1 DUP4 PUSH1 0x4 DUP2 GT ISZERO PUSH2 0x181 JUMPI PUSH2 0x180 PUSH2 0x29D JUMP JUMPDEST JUMPDEST MUL OR SWAP1 SSTORE POP JUMP JUMPDEST PUSH1 0x4 PUSH1 0x0 DUP1 PUSH2 0x100 EXP DUP2 SLOAD DUP2 PUSH1 0xFF MUL NOT AND SWAP1 DUP4 PUSH1 0x4 DUP2 GT ISZERO PUSH2 0x1AD JUMPI PUSH2 0x1AC PUSH2 0x29D JUMP JUMPDEST JUMPDEST MUL OR SWAP1 SSTORE POP JUMP JUMPDEST PUSH1 0x3 PUSH1 0x0 DUP1 PUSH2 0x100 EXP DUP2 SLOAD DUP2 PUSH1 0xFF MUL NOT AND SWAP1 DUP4 PUSH1 0x4 DUP2 GT ISZERO PUSH2 0x1D9 JUMPI PUSH2 0x1D8 PUSH2 0x29D JUMP JUMPDEST JUMPDEST MUL OR SWAP1 SSTORE POP JUMP JUMPDEST PUSH1 0x1 PUSH1 0x0 DUP1 PUSH2 0x100 EXP DUP2 SLOAD DUP2 PUSH1 0xFF MUL NOT AND SWAP1 DUP4 PUSH1 0x4 DUP2 GT ISZERO PUSH2 0x205 JUMPI PUSH2 0x204 PUSH2 0x29D JUMP JUMPDEST JUMPDEST MUL OR SWAP1 SSTORE POP JUMP JUMPDEST PUSH1 0x0 DUP2 CALLDATALOAD SWAP1 POP PUSH2 0x21B DUP2 PUSH2 0x2E5 JUMP JUMPDEST SWAP3 SWAP2 POP POP JUMP JUMPDEST PUSH1 0x0 PUSH1 0x20 DUP3 DUP5 SUB SLT ISZERO PUSH2 0x237 JUMPI PUSH2 0x236 PUSH2 0x2CC JUMP JUMPDEST JUMPDEST PUSH1 0x0 PUSH2 0x245 DUP5 DUP3 DUP6 ADD PUSH2 0x20C JUMP JUMPDEST SWAP2 POP POP SWAP3 SWAP2 POP POP JUMP JUMPDEST PUSH2 0x257 DUP2 PUSH2 0x28B JUMP JUMPDEST DUP3 MSTORE POP POP JUMP JUMPDEST PUSH1 0x0 PUSH1 0x20 DUP3 ADD SWAP1 POP PUSH2 0x272 PUSH1 0x0 DUP4 ADD DUP5 PUSH2 0x24E JUMP JUMPDEST SWAP3 SWAP2 POP POP JUMP JUMPDEST PUSH1 0x0 DUP2 SWAP1 POP PUSH2 0x286 DUP3 PUSH2 0x2D1 JUMP JUMPDEST SWAP2 SWAP1 POP JUMP JUMPDEST PUSH1 0x0 PUSH2 0x296 DUP3 PUSH2 0x278 JUMP JUMPDEST SWAP1 POP SWAP2 SWAP1 POP JUMP JUMPDEST PUSH32 0x4E487B7100000000000000000000000000000000000000000000000000000000 PUSH1 0x0 MSTORE PUSH1 0x21 PUSH1 0x4 MSTORE PUSH1 0x24 PUSH1 0x0 REVERT JUMPDEST PUSH1 0x0 DUP1 REVERT JUMPDEST PUSH1 0x5 DUP2 LT PUSH2 0x2E2 JUMPI PUSH2 0x2E1 PUSH2 0x29D JUMP JUMPDEST JUMPDEST POP JUMP JUMPDEST PUSH1 0x5 DUP2 LT PUSH2 0x2F2 JUMPI PUSH1 0x0 DUP1 REVERT JUMPDEST POP JUMP INVALID LOG2 PUSH5 0x6970667358 0x22 SLT KECCAK256 0xD0 REVERT 0xD6 LOG2 DUP6 PUSH3 0x75BE18 PUSH4 0x2F10768D SHL CALLCODE PUSH32 0x292F8A4D365B480D6892534307948D64736F6C63430008070033000000000000 "
		},
		"gasEstimates": {
			"creation": {
				"codeDepositCost": "162200",
				"executionCost": "208",
				"totalCost": "162408"
			},
			"external": {
				"Accept()": "24476",
				"Delivered()": "24453",
				"Pending()": "24431",
				"Reject()": "24497",
				"Shipped()": "24475",
				"getStatus()": "2591",
				"setStatus(uint8)": "24651"
			}
		},
		"methodIdentifiers": {
			"Accept()": "58993640",
			"Delivered()": "779822f7",
			"Pending()": "6df20390",
			"Reject()": "cba59827",
			"Shipped()": "7e59301e",
			"getStatus()": "4e69d560",
			"setStatus(uint8)": "2e49d78b"
		}
	},
	"abi": [
		{
			"inputs": [],
			"name": "Accept",
			"outputs": [],
			"stateMutability": "nonpayable",
			"type": "function"
		},
		{
			"inputs": [],
			"name": "Delivered",
			"outputs": [],
			"stateMutability": "nonpayable",
			"type": "function"
		},
		{
			"inputs": [],
			"name": "Pending",
			"outputs": [],
			"stateMutability": "nonpayable",
			"type": "function"
		},
		{
			"inputs": [],
			"name": "Reject",
			"outputs": [],
			"stateMutability": "nonpayable",
			"type": "function"
		},
		{
			"inputs": [],
			"name": "Shipped",
			"outputs": [],
			"stateMutability": "nonpayable",
			"type": "function"
		},
		{
			"inputs": [],
			"name": "getStatus",
			"outputs": [
				{
					"internalType": "enum Enum.myEnum",
					"name": "",
					"type": "uint8"
				}
			],
			"stateMutability": "view",
			"type": "function"
		},
		{
			"inputs": [
				{
					"internalType": "enum Enum.myEnum",
					"name": "_b",
					"type": "uint8"
				}
			],
			"name": "setStatus",
			"outputs": [],
			"stateMutability": "nonpayable",
			"type": "function"
		}
	]
}