{
	"data": {
		"bytecode": {
			"linkReferences": {},
			"object": "6080604052348015600f57600080fd5b5060958061001e6000396000f3fe6080604052348015600f57600080fd5b5060043610603c5760003560e01c8063157b5167146041578063446a45b71460495780637b8239fa146051575b600080fd5b60476059565b005b604f605b565b005b6057605d565b005b565b565b56fea26469706673582212209fd86f9bf83bc491b8b5116ff207c0ee15416a0a151db89c25ba315003f47f8b64736f6c634300080e0033",
			"opcodes": "PUSH1 0x80 PUSH1 0x40 MSTORE CALLVALUE DUP1 ISZERO PUSH1 0xF JUMPI PUSH1 0x0 DUP1 REVERT JUMPDEST POP PUSH1 0x95 DUP1 PUSH2 0x1E PUSH1 0x0 CODECOPY PUSH1 0x0 RETURN INVALID PUSH1 0x80 PUSH1 0x40 MSTORE CALLVALUE DUP1 ISZERO PUSH1 0xF JUMPI PUSH1 0x0 DUP1 REVERT JUMPDEST POP PUSH1 0x4 CALLDATASIZE LT PUSH1 0x3C JUMPI PUSH1 0x0 CALLDATALOAD PUSH1 0xE0 SHR DUP1 PUSH4 0x157B5167 EQ PUSH1 0x41 JUMPI DUP1 PUSH4 0x446A45B7 EQ PUSH1 0x49 JUMPI DUP1 PUSH4 0x7B8239FA EQ PUSH1 0x51 JUMPI JUMPDEST PUSH1 0x0 DUP1 REVERT JUMPDEST PUSH1 0x47 PUSH1 0x59 JUMP JUMPDEST STOP JUMPDEST PUSH1 0x4F PUSH1 0x5B JUMP JUMPDEST STOP JUMPDEST PUSH1 0x57 PUSH1 0x5D JUMP JUMPDEST STOP JUMPDEST JUMP JUMPDEST JUMP JUMPDEST JUMP INVALID LOG2 PUSH5 0x6970667358 0x22 SLT KECCAK256 SWAP16 0xD8 PUSH16 0x9BF83BC491B8B5116FF207C0EE15416A EXP ISZERO SAR 0xB8 SWAP13 0x25 0xBA BALANCE POP SUB DELEGATECALL PUSH32 0x8B64736F6C634300080E00330000000000000000000000000000000000000000 "
		},
		"gasEstimates": {
			"creation": {
				"codeDepositCost": "29800",
				"executionCost": "81",
				"totalCost": "29881"
			},
			"external": {
				"fun1()": "144",
				"fun2()": "122",
				"fun3()": "166"
			}
		},
		"methodIdentifiers": {
			"fun1()": "446a45b7",
			"fun2()": "157b5167",
			"fun3()": "7b8239fa"
		}
	},
	"abi": [
		{
			"inputs": [],
			"name": "fun1",
			"outputs": [],
			"stateMutability": "pure",
			"type": "function"
		},
		{
			"inputs": [],
			"name": "fun2",
			"outputs": [],
			"stateMutability": "pure",
			"type": "function"
		},
		{
			"inputs": [],
			"name": "fun3",
			"outputs": [],
			"stateMutability": "pure",
			"type": "function"
		}
	]
}